{
	"CrossFi-Treasury-Guard/contracts/AIScoreRegistry.sol": {
		"AIScoreRegistry": {
			"abi": [
				{
					"inputs": [],
					"stateMutability": "nonpayable",
					"type": "constructor"
				},
				{
					"inputs": [],
					"name": "AccessControlBadConfirmation",
					"type": "error"
				},
				{
					"inputs": [
						{
							"internalType": "address",
							"name": "account",
							"type": "address"
						},
						{
							"internalType": "bytes32",
							"name": "neededRole",
							"type": "bytes32"
						}
					],
					"name": "AccessControlUnauthorizedAccount",
					"type": "error"
				},
				{
					"anonymous": false,
					"inputs": [
						{
							"indexed": true,
							"internalType": "uint256",
							"name": "proposalId",
							"type": "uint256"
						},
						{
							"indexed": false,
							"internalType": "uint256",
							"name": "overallScore",
							"type": "uint256"
						},
						{
							"indexed": false,
							"internalType": "string",
							"name": "justificationIPFS",
							"type": "string"
						},
						{
							"indexed": false,
							"internalType": "string",
							"name": "modelVersion",
							"type": "string"
						},
						{
							"indexed": true,
							"internalType": "address",
							"name": "oracle",
							"type": "address"
						},
						{
							"indexed": false,
							"internalType": "uint256",
							"name": "timestamp",
							"type": "uint256"
						}
					],
					"name": "AIScoreSubmitted",
					"type": "event"
				},
				{
					"anonymous": false,
					"inputs": [
						{
							"indexed": false,
							"internalType": "string",
							"name": "modelVersion",
							"type": "string"
						},
						{
							"indexed": false,
							"internalType": "bool",
							"name": "supported",
							"type": "bool"
						}
					],
					"name": "ModelSupported",
					"type": "event"
				},
				{
					"anonymous": false,
					"inputs": [
						{
							"indexed": true,
							"internalType": "address",
							"name": "oracle",
							"type": "address"
						},
						{
							"indexed": false,
							"internalType": "bool",
							"name": "authorized",
							"type": "bool"
						}
					],
					"name": "OracleAuthorized",
					"type": "event"
				},
				{
					"anonymous": false,
					"inputs": [
						{
							"indexed": false,
							"internalType": "address",
							"name": "account",
							"type": "address"
						}
					],
					"name": "Paused",
					"type": "event"
				},
				{
					"anonymous": false,
					"inputs": [
						{
							"indexed": true,
							"internalType": "bytes32",
							"name": "role",
							"type": "bytes32"
						},
						{
							"indexed": true,
							"internalType": "bytes32",
							"name": "previousAdminRole",
							"type": "bytes32"
						},
						{
							"indexed": true,
							"internalType": "bytes32",
							"name": "newAdminRole",
							"type": "bytes32"
						}
					],
					"name": "RoleAdminChanged",
					"type": "event"
				},
				{
					"anonymous": false,
					"inputs": [
						{
							"indexed": true,
							"internalType": "bytes32",
							"name": "role",
							"type": "bytes32"
						},
						{
							"indexed": true,
							"internalType": "address",
							"name": "account",
							"type": "address"
						},
						{
							"indexed": true,
							"internalType": "address",
							"name": "sender",
							"type": "address"
						}
					],
					"name": "RoleGranted",
					"type": "event"
				},
				{
					"anonymous": false,
					"inputs": [
						{
							"indexed": true,
							"internalType": "bytes32",
							"name": "role",
							"type": "bytes32"
						},
						{
							"indexed": true,
							"internalType": "address",
							"name": "account",
							"type": "address"
						},
						{
							"indexed": true,
							"internalType": "address",
							"name": "sender",
							"type": "address"
						}
					],
					"name": "RoleRevoked",
					"type": "event"
				},
				{
					"anonymous": false,
					"inputs": [
						{
							"indexed": true,
							"internalType": "uint256",
							"name": "proposalId",
							"type": "uint256"
						},
						{
							"indexed": false,
							"internalType": "uint256",
							"name": "newScore",
							"type": "uint256"
						},
						{
							"indexed": false,
							"internalType": "string",
							"name": "reason",
							"type": "string"
						}
					],
					"name": "ScoreUpdated",
					"type": "event"
				},
				{
					"anonymous": false,
					"inputs": [
						{
							"components": [
								{
									"internalType": "uint8",
									"name": "ecosystemContribution",
									"type": "uint8"
								},
								{
									"internalType": "uint8",
									"name": "feasibility",
									"type": "uint8"
								},
								{
									"internalType": "uint8",
									"name": "riskAssessment",
									"type": "uint8"
								},
								{
									"internalType": "uint8",
									"name": "teamReputation",
									"type": "uint8"
								},
								{
									"internalType": "uint8",
									"name": "innovation",
									"type": "uint8"
								}
							],
							"indexed": false,
							"internalType": "struct AIScoreRegistry.ScoringCriteria",
							"name": "newCriteria",
							"type": "tuple"
						}
					],
					"name": "ScoringCriteriaUpdated",
					"type": "event"
				},
				{
					"anonymous": false,
					"inputs": [
						{
							"indexed": false,
							"internalType": "address",
							"name": "account",
							"type": "address"
						}
					],
					"name": "Unpaused",
					"type": "event"
				},
				{
					"inputs": [],
					"name": "ADMIN_ROLE",
					"outputs": [
						{
							"internalType": "bytes32",
							"name": "",
							"type": "bytes32"
						}
					],
					"stateMutability": "view",
					"type": "function"
				},
				{
					"inputs": [],
					"name": "AI_ORACLE_ROLE",
					"outputs": [
						{
							"internalType": "bytes32",
							"name": "",
							"type": "bytes32"
						}
					],
					"stateMutability": "view",
					"type": "function"
				},
				{
					"inputs": [],
					"name": "DEFAULT_ADMIN_ROLE",
					"outputs": [
						{
							"internalType": "bytes32",
							"name": "",
							"type": "bytes32"
						}
					],
					"stateMutability": "view",
					"type": "function"
				},
				{
					"inputs": [],
					"name": "DISPUTE_RESOLVER_ROLE",
					"outputs": [
						{
							"internalType": "bytes32",
							"name": "",
							"type": "bytes32"
						}
					],
					"stateMutability": "view",
					"type": "function"
				},
				{
					"inputs": [],
					"name": "MAX_SCORE",
					"outputs": [
						{
							"internalType": "uint256",
							"name": "",
							"type": "uint256"
						}
					],
					"stateMutability": "view",
					"type": "function"
				},
				{
					"inputs": [],
					"name": "MILESTONE_APPROVER_ROLE",
					"outputs": [
						{
							"internalType": "bytes32",
							"name": "",
							"type": "bytes32"
						}
					],
					"stateMutability": "view",
					"type": "function"
				},
				{
					"inputs": [],
					"name": "MIN_SCORE",
					"outputs": [
						{
							"internalType": "uint256",
							"name": "",
							"type": "uint256"
						}
					],
					"stateMutability": "view",
					"type": "function"
				},
				{
					"inputs": [],
					"name": "SCORE_VALIDITY_PERIOD",
					"outputs": [
						{
							"internalType": "uint256",
							"name": "",
							"type": "uint256"
						}
					],
					"stateMutability": "view",
					"type": "function"
				},
				{
					"inputs": [],
					"name": "TREASURY_MANAGER_ROLE",
					"outputs": [
						{
							"internalType": "bytes32",
							"name": "",
							"type": "bytes32"
						}
					],
					"stateMutability": "view",
					"type": "function"
				},
				{
					"inputs": [
						{
							"internalType": "address",
							"name": "",
							"type": "address"
						}
					],
					"name": "authorizedOracles",
					"outputs": [
						{
							"internalType": "bool",
							"name": "",
							"type": "bool"
						}
					],
					"stateMutability": "view",
					"type": "function"
				},
				{
					"inputs": [
						{
							"internalType": "uint256",
							"name": "proposalId",
							"type": "uint256"
						}
					],
					"name": "getAIScore",
					"outputs": [
						{
							"internalType": "uint256",
							"name": "score",
							"type": "uint256"
						},
						{
							"internalType": "string",
							"name": "justification",
							"type": "string"
						},
						{
							"internalType": "bool",
							"name": "exists",
							"type": "bool"
						}
					],
					"stateMutability": "view",
					"type": "function"
				},
				{
					"inputs": [],
					"name": "getAllRoles",
					"outputs": [
						{
							"internalType": "bytes32[]",
							"name": "roles",
							"type": "bytes32[]"
						}
					],
					"stateMutability": "pure",
					"type": "function"
				},
				{
					"inputs": [
						{
							"internalType": "uint256",
							"name": "proposalId",
							"type": "uint256"
						}
					],
					"name": "getDetailedAIScore",
					"outputs": [
						{
							"components": [
								{
									"internalType": "uint256",
									"name": "proposalId",
									"type": "uint256"
								},
								{
									"internalType": "uint256",
									"name": "overallScore",
									"type": "uint256"
								},
								{
									"internalType": "string",
									"name": "justificationIPFS",
									"type": "string"
								},
								{
									"internalType": "string",
									"name": "modelVersion",
									"type": "string"
								},
								{
									"internalType": "uint256",
									"name": "timestamp",
									"type": "uint256"
								},
								{
									"internalType": "address",
									"name": "oracle",
									"type": "address"
								},
								{
									"internalType": "bool",
									"name": "exists",
									"type": "bool"
								},
								{
									"components": [
										{
											"internalType": "uint8",
											"name": "ecosystemScore",
											"type": "uint8"
										},
										{
											"internalType": "uint8",
											"name": "feasibilityScore",
											"type": "uint8"
										},
										{
											"internalType": "uint8",
											"name": "riskScore",
											"type": "uint8"
										},
										{
											"internalType": "uint8",
											"name": "teamScore",
											"type": "uint8"
										},
										{
											"internalType": "uint8",
											"name": "innovationScore",
											"type": "uint8"
										}
									],
									"internalType": "struct IAIScoreRegistry.ScoringBreakdown",
									"name": "breakdown",
									"type": "tuple"
								}
							],
							"internalType": "struct AIScoreRegistry.AIScoreData",
							"name": "",
							"type": "tuple"
						}
					],
					"stateMutability": "view",
					"type": "function"
				},
				{
					"inputs": [
						{
							"internalType": "address",
							"name": "oracle",
							"type": "address"
						}
					],
					"name": "getOracleStats",
					"outputs": [
						{
							"internalType": "uint256",
							"name": "scoreCount",
							"type": "uint256"
						},
						{
							"internalType": "bool",
							"name": "isAuthorized",
							"type": "bool"
						}
					],
					"stateMutability": "view",
					"type": "function"
				},
				{
					"inputs": [
						{
							"internalType": "bytes32",
							"name": "role",
							"type": "bytes32"
						}
					],
					"name": "getRoleAdmin",
					"outputs": [
						{
							"internalType": "bytes32",
							"name": "",
							"type": "bytes32"
						}
					],
					"stateMutability": "view",
					"type": "function"
				},
				{
					"inputs": [
						{
							"internalType": "address",
							"name": "account",
							"type": "address"
						}
					],
					"name": "getRoleCount",
					"outputs": [
						{
							"internalType": "uint256",
							"name": "roleCount",
							"type": "uint256"
						}
					],
					"stateMutability": "view",
					"type": "function"
				},
				{
					"inputs": [
						{
							"internalType": "uint256",
							"name": "proposalId",
							"type": "uint256"
						}
					],
					"name": "getScoringBreakdown",
					"outputs": [
						{
							"components": [
								{
									"internalType": "uint8",
									"name": "ecosystemScore",
									"type": "uint8"
								},
								{
									"internalType": "uint8",
									"name": "feasibilityScore",
									"type": "uint8"
								},
								{
									"internalType": "uint8",
									"name": "riskScore",
									"type": "uint8"
								},
								{
									"internalType": "uint8",
									"name": "teamScore",
									"type": "uint8"
								},
								{
									"internalType": "uint8",
									"name": "innovationScore",
									"type": "uint8"
								}
							],
							"internalType": "struct IAIScoreRegistry.ScoringBreakdown",
							"name": "breakdown",
							"type": "tuple"
						}
					],
					"stateMutability": "view",
					"type": "function"
				},
				{
					"inputs": [
						{
							"internalType": "address",
							"name": "account",
							"type": "address"
						},
						{
							"internalType": "bytes32[]",
							"name": "roles",
							"type": "bytes32[]"
						}
					],
					"name": "grantMultipleRoles",
					"outputs": [],
					"stateMutability": "nonpayable",
					"type": "function"
				},
				{
					"inputs": [
						{
							"internalType": "bytes32",
							"name": "role",
							"type": "bytes32"
						},
						{
							"internalType": "address",
							"name": "account",
							"type": "address"
						}
					],
					"name": "grantRole",
					"outputs": [],
					"stateMutability": "nonpayable",
					"type": "function"
				},
				{
					"inputs": [
						{
							"internalType": "uint256",
							"name": "proposalId",
							"type": "uint256"
						}
					],
					"name": "hasAIScore",
					"outputs": [
						{
							"internalType": "bool",
							"name": "exists",
							"type": "bool"
						}
					],
					"stateMutability": "view",
					"type": "function"
				},
				{
					"inputs": [
						{
							"internalType": "address",
							"name": "account",
							"type": "address"
						},
						{
							"internalType": "bytes32[]",
							"name": "roles",
							"type": "bytes32[]"
						}
					],
					"name": "hasAnyRole",
					"outputs": [
						{
							"internalType": "bool",
							"name": "",
							"type": "bool"
						}
					],
					"stateMutability": "view",
					"type": "function"
				},
				{
					"inputs": [
						{
							"internalType": "bytes32",
							"name": "role",
							"type": "bytes32"
						},
						{
							"internalType": "address",
							"name": "account",
							"type": "address"
						}
					],
					"name": "hasRole",
					"outputs": [
						{
							"internalType": "bool",
							"name": "",
							"type": "bool"
						}
					],
					"stateMutability": "view",
					"type": "function"
				},
				{
					"inputs": [
						{
							"internalType": "address",
							"name": "",
							"type": "address"
						}
					],
					"name": "oracleScoreCount",
					"outputs": [
						{
							"internalType": "uint256",
							"name": "",
							"type": "uint256"
						}
					],
					"stateMutability": "view",
					"type": "function"
				},
				{
					"inputs": [],
					"name": "pause",
					"outputs": [],
					"stateMutability": "nonpayable",
					"type": "function"
				},
				{
					"inputs": [],
					"name": "paused",
					"outputs": [
						{
							"internalType": "bool",
							"name": "",
							"type": "bool"
						}
					],
					"stateMutability": "view",
					"type": "function"
				},
				{
					"inputs": [
						{
							"internalType": "uint256",
							"name": "proposalId",
							"type": "uint256"
						},
						{
							"internalType": "string",
							"name": "reason",
							"type": "string"
						}
					],
					"name": "removeScore",
					"outputs": [],
					"stateMutability": "nonpayable",
					"type": "function"
				},
				{
					"inputs": [
						{
							"internalType": "bytes32",
							"name": "role",
							"type": "bytes32"
						},
						{
							"internalType": "address",
							"name": "callerConfirmation",
							"type": "address"
						}
					],
					"name": "renounceRole",
					"outputs": [],
					"stateMutability": "nonpayable",
					"type": "function"
				},
				{
					"inputs": [
						{
							"internalType": "address",
							"name": "account",
							"type": "address"
						},
						{
							"internalType": "bytes32[]",
							"name": "roles",
							"type": "bytes32[]"
						}
					],
					"name": "revokeMultipleRoles",
					"outputs": [],
					"stateMutability": "nonpayable",
					"type": "function"
				},
				{
					"inputs": [
						{
							"internalType": "bytes32",
							"name": "role",
							"type": "bytes32"
						},
						{
							"internalType": "address",
							"name": "account",
							"type": "address"
						}
					],
					"name": "revokeRole",
					"outputs": [],
					"stateMutability": "nonpayable",
					"type": "function"
				},
				{
					"inputs": [],
					"name": "scoringWeights",
					"outputs": [
						{
							"internalType": "uint8",
							"name": "ecosystemContribution",
							"type": "uint8"
						},
						{
							"internalType": "uint8",
							"name": "feasibility",
							"type": "uint8"
						},
						{
							"internalType": "uint8",
							"name": "riskAssessment",
							"type": "uint8"
						},
						{
							"internalType": "uint8",
							"name": "teamReputation",
							"type": "uint8"
						},
						{
							"internalType": "uint8",
							"name": "innovation",
							"type": "uint8"
						}
					],
					"stateMutability": "view",
					"type": "function"
				},
				{
					"inputs": [
						{
							"internalType": "address",
							"name": "oracle",
							"type": "address"
						},
						{
							"internalType": "bool",
							"name": "authorized",
							"type": "bool"
						}
					],
					"name": "setOracleAuthorization",
					"outputs": [],
					"stateMutability": "nonpayable",
					"type": "function"
				},
				{
					"inputs": [
						{
							"internalType": "string",
							"name": "modelVersion",
							"type": "string"
						},
						{
							"internalType": "bool",
							"name": "supported",
							"type": "bool"
						}
					],
					"name": "setSupportedModel",
					"outputs": [],
					"stateMutability": "nonpayable",
					"type": "function"
				},
				{
					"inputs": [
						{
							"internalType": "uint256",
							"name": "proposalId",
							"type": "uint256"
						},
						{
							"internalType": "uint256",
							"name": "overallScore",
							"type": "uint256"
						},
						{
							"internalType": "string",
							"name": "justificationIPFS",
							"type": "string"
						},
						{
							"internalType": "string",
							"name": "modelVersion",
							"type": "string"
						},
						{
							"components": [
								{
									"internalType": "uint8",
									"name": "ecosystemScore",
									"type": "uint8"
								},
								{
									"internalType": "uint8",
									"name": "feasibilityScore",
									"type": "uint8"
								},
								{
									"internalType": "uint8",
									"name": "riskScore",
									"type": "uint8"
								},
								{
									"internalType": "uint8",
									"name": "teamScore",
									"type": "uint8"
								},
								{
									"internalType": "uint8",
									"name": "innovationScore",
									"type": "uint8"
								}
							],
							"internalType": "struct IAIScoreRegistry.ScoringBreakdown",
							"name": "breakdown",
							"type": "tuple"
						}
					],
					"name": "submitAIScore",
					"outputs": [],
					"stateMutability": "nonpayable",
					"type": "function"
				},
				{
					"inputs": [
						{
							"internalType": "string",
							"name": "",
							"type": "string"
						}
					],
					"name": "supportedModels",
					"outputs": [
						{
							"internalType": "bool",
							"name": "",
							"type": "bool"
						}
					],
					"stateMutability": "view",
					"type": "function"
				},
				{
					"inputs": [
						{
							"internalType": "bytes4",
							"name": "interfaceId",
							"type": "bytes4"
						}
					],
					"name": "supportsInterface",
					"outputs": [
						{
							"internalType": "bool",
							"name": "",
							"type": "bool"
						}
					],
					"stateMutability": "view",
					"type": "function"
				},
				{
					"inputs": [],
					"name": "totalScoresSubmitted",
					"outputs": [
						{
							"internalType": "uint256",
							"name": "",
							"type": "uint256"
						}
					],
					"stateMutability": "view",
					"type": "function"
				},
				{
					"inputs": [],
					"name": "unpause",
					"outputs": [],
					"stateMutability": "nonpayable",
					"type": "function"
				},
				{
					"inputs": [
						{
							"internalType": "uint256",
							"name": "proposalId",
							"type": "uint256"
						},
						{
							"internalType": "uint256",
							"name": "newScore",
							"type": "uint256"
						},
						{
							"internalType": "string",
							"name": "newJustificationIPFS",
							"type": "string"
						},
						{
							"internalType": "string",
							"name": "reason",
							"type": "string"
						}
					],
					"name": "updateAIScore",
					"outputs": [],
					"stateMutability": "nonpayable",
					"type": "function"
				},
				{
					"inputs": [
						{
							"components": [
								{
									"internalType": "uint8",
									"name": "ecosystemContribution",
									"type": "uint8"
								},
								{
									"internalType": "uint8",
									"name": "feasibility",
									"type": "uint8"
								},
								{
									"internalType": "uint8",
									"name": "riskAssessment",
									"type": "uint8"
								},
								{
									"internalType": "uint8",
									"name": "teamReputation",
									"type": "uint8"
								},
								{
									"internalType": "uint8",
									"name": "innovation",
									"type": "uint8"
								}
							],
							"internalType": "struct AIScoreRegistry.ScoringCriteria",
							"name": "newCriteria",
							"type": "tuple"
						}
					],
					"name": "updateScoringCriteria",
					"outputs": [],
					"stateMutability": "nonpayable",
					"type": "function"
				}
			],
			"devdoc": {
				"author": "CrossFi Treasury Guard Team",
				"details": "Stores AI-generated scores and IPFS CIDs for proposal analysis",
				"errors": {
					"AccessControlBadConfirmation()": [
						{
							"details": "The caller of a function is not the expected one. NOTE: Don't confuse with {AccessControlUnauthorizedAccount}."
						}
					],
					"AccessControlUnauthorizedAccount(address,bytes32)": [
						{
							"details": "The `account` is missing a role."
						}
					]
				},
				"events": {
					"Paused(address)": {
						"details": "Emitted when the pause is triggered by `account`."
					},
					"RoleAdminChanged(bytes32,bytes32,bytes32)": {
						"details": "Emitted when `newAdminRole` is set as ``role``'s admin role, replacing `previousAdminRole` `DEFAULT_ADMIN_ROLE` is the starting admin for all roles, despite {RoleAdminChanged} not being emitted to signal this."
					},
					"RoleGranted(bytes32,address,address)": {
						"details": "Emitted when `account` is granted `role`. `sender` is the account that originated the contract call. This account bears the admin role (for the granted role). Expected in cases where the role was granted using the internal {AccessControl-_grantRole}."
					},
					"RoleRevoked(bytes32,address,address)": {
						"details": "Emitted when `account` is revoked `role`. `sender` is the account that originated the contract call:   - if using `revokeRole`, it is the admin role bearer   - if using `renounceRole`, it is the role bearer (i.e. `account`)"
					},
					"Unpaused(address)": {
						"details": "Emitted when the pause is lifted by `account`."
					}
				},
				"kind": "dev",
				"methods": {
					"getAIScore(uint256)": {
						"details": "Get AI score for a proposal",
						"params": {
							"proposalId": "The proposal ID"
						},
						"returns": {
							"exists": "Whether score exists",
							"justification": "IPFS CID for detailed analysis",
							"score": "Overall AI score"
						}
					},
					"getAllRoles()": {
						"details": "Get all available roles",
						"returns": {
							"roles": "Array of all role identifiers"
						}
					},
					"getDetailedAIScore(uint256)": {
						"details": "Get detailed AI score data",
						"params": {
							"proposalId": "The proposal ID"
						},
						"returns": {
							"_0": "Complete AI score data structure"
						}
					},
					"getOracleStats(address)": {
						"details": "Get oracle statistics",
						"params": {
							"oracle": "Oracle address"
						},
						"returns": {
							"isAuthorized": "Whether oracle is authorized",
							"scoreCount": "Number of scores submitted by oracle"
						}
					},
					"getRoleAdmin(bytes32)": {
						"details": "Returns the admin role that controls `role`. See {grantRole} and {revokeRole}. To change a role's admin, use {_setRoleAdmin}."
					},
					"getRoleCount(address)": {
						"details": "Get all roles for an account",
						"params": {
							"account": "Account to check"
						},
						"returns": {
							"roleCount": "Number of roles the account has"
						}
					},
					"getScoringBreakdown(uint256)": {
						"details": "Get scoring breakdown for a proposal",
						"params": {
							"proposalId": "The proposal ID"
						},
						"returns": {
							"breakdown": "Detailed scoring breakdown"
						}
					},
					"grantMultipleRoles(address,bytes32[])": {
						"details": "Grant multiple roles to an account",
						"params": {
							"account": "Account to grant roles to",
							"roles": "Array of role identifiers"
						}
					},
					"grantRole(bytes32,address)": {
						"details": "Grants `role` to `account`. If `account` had not been already granted `role`, emits a {RoleGranted} event. Requirements: - the caller must have ``role``'s admin role. May emit a {RoleGranted} event."
					},
					"hasAIScore(uint256)": {
						"details": "Check if AI score exists for a proposal",
						"params": {
							"proposalId": "The proposal ID"
						},
						"returns": {
							"exists": "Whether score exists"
						}
					},
					"hasAnyRole(address,bytes32[])": {
						"details": "Check if account has any of the specified roles",
						"params": {
							"account": "Account to check",
							"roles": "Array of role identifiers"
						},
						"returns": {
							"_0": "hasAnyRole True if account has at least one of the roles"
						}
					},
					"hasRole(bytes32,address)": {
						"details": "Returns `true` if `account` has been granted `role`."
					},
					"paused()": {
						"details": "Returns true if the contract is paused, and false otherwise."
					},
					"removeScore(uint256,string)": {
						"details": "Emergency function to remove invalid score",
						"params": {
							"proposalId": "The proposal ID",
							"reason": "Reason for removal"
						}
					},
					"renounceRole(bytes32,address)": {
						"details": "Revokes `role` from the calling account. Roles are often managed via {grantRole} and {revokeRole}: this function's purpose is to provide a mechanism for accounts to lose their privileges if they are compromised (such as when a trusted device is misplaced). If the calling account had been revoked `role`, emits a {RoleRevoked} event. Requirements: - the caller must be `callerConfirmation`. May emit a {RoleRevoked} event."
					},
					"revokeMultipleRoles(address,bytes32[])": {
						"details": "Revoke multiple roles from an account",
						"params": {
							"account": "Account to revoke roles from",
							"roles": "Array of role identifiers"
						}
					},
					"revokeRole(bytes32,address)": {
						"details": "Revokes `role` from `account`. If `account` had been granted `role`, emits a {RoleRevoked} event. Requirements: - the caller must have ``role``'s admin role. May emit a {RoleRevoked} event."
					},
					"setOracleAuthorization(address,bool)": {
						"details": "Authorize or deauthorize an AI oracle",
						"params": {
							"authorized": "Authorization status",
							"oracle": "Oracle address"
						}
					},
					"setSupportedModel(string,bool)": {
						"details": "Add or remove supported AI model",
						"params": {
							"modelVersion": "Model version string",
							"supported": "Whether model is supported"
						}
					},
					"submitAIScore(uint256,uint256,string,string,(uint8,uint8,uint8,uint8,uint8))": {
						"details": "Submit AI-generated score for a proposal",
						"params": {
							"breakdown": "Detailed scoring breakdown",
							"justificationIPFS": "IPFS CID containing detailed analysis",
							"modelVersion": "AI model version used",
							"overallScore": "Overall AI score (0-100)",
							"proposalId": "The proposal ID"
						}
					},
					"supportsInterface(bytes4)": {
						"details": "Returns true if this contract implements the interface defined by `interfaceId`. See the corresponding https://eips.ethereum.org/EIPS/eip-165#how-interfaces-are-identified[ERC section] to learn more about how these ids are created. This function call must use less than 30 000 gas."
					},
					"updateAIScore(uint256,uint256,string,string)": {
						"details": "Update existing AI score (only within validity period)",
						"params": {
							"newJustificationIPFS": "New IPFS CID for updated analysis",
							"newScore": "New overall score",
							"proposalId": "The proposal ID",
							"reason": "Reason for score update"
						}
					},
					"updateScoringCriteria((uint8,uint8,uint8,uint8,uint8))": {
						"details": "Update scoring criteria weights",
						"params": {
							"newCriteria": "New scoring criteria"
						}
					}
				},
				"title": "AIScoreRegistry",
				"version": 1
			},
			"evm": {
				"assembly": "    /* \"CrossFi-Treasury-Guard/contracts/AIScoreRegistry.sol\":410:10788  contract AIScoreRegistry is IAIScoreRegistry, ExtendedAccessControl, Pausable, ReentrancyGuard {... */\n  mstore(0x40, 0x80)\n    /* \"CrossFi-Treasury-Guard/contracts/AIScoreRegistry.sol\":2150:2715  constructor() {... */\n  callvalue\n  dup1\n  iszero\n  tag_1\n  jumpi\n  0x00\n  dup1\n  revert\ntag_1:\n  pop\n    /* \"CrossFi-Treasury-Guard/contracts/utils/ExtendedAccessControl.sol\":744:786  _grantRole(DEFAULT_ADMIN_ROLE, msg.sender) */\n  tag_7\n    /* \"@openzeppelin/contracts/access/AccessControl.sol\":2241:2245  0x00 */\n  0x00\n    /* \"CrossFi-Treasury-Guard/contracts/utils/ExtendedAccessControl.sol\":775:785  msg.sender */\n  caller\n    /* \"CrossFi-Treasury-Guard/contracts/utils/ExtendedAccessControl.sol\":744:754  _grantRole */\n  tag_8\n    /* \"CrossFi-Treasury-Guard/contracts/utils/ExtendedAccessControl.sol\":744:786  _grantRole(DEFAULT_ADMIN_ROLE, msg.sender) */\n  jump\t// in\ntag_7:\n  pop\n    /* \"@openzeppelin/contracts/security/Pausable.sol\":996:1003  _paused */\n  0x01\n    /* \"@openzeppelin/contracts/security/Pausable.sol\":996:1011  _paused = false */\n  dup1\n  sload\n  not(0xff)\n  and\n  dup2\n  sstore\n    /* \"@openzeppelin/contracts/security/ReentrancyGuard.sol\":1821:1828  _status */\n  0x02\n    /* \"@openzeppelin/contracts/security/ReentrancyGuard.sol\":1821:1843  _status = _NOT_ENTERED */\n  sstore\n    /* \"CrossFi-Treasury-Guard/contracts/AIScoreRegistry.sol\":2174:2216  _grantRole(DEFAULT_ADMIN_ROLE, msg.sender) */\n  tag_12\n    /* \"@openzeppelin/contracts/security/Pausable.sol\":1006:1011  false */\n  0x00\n    /* \"CrossFi-Treasury-Guard/contracts/AIScoreRegistry.sol\":2205:2215  msg.sender */\n  caller\n    /* \"CrossFi-Treasury-Guard/contracts/AIScoreRegistry.sol\":2174:2184  _grantRole */\n  tag_8\n    /* \"CrossFi-Treasury-Guard/contracts/AIScoreRegistry.sol\":2174:2216  _grantRole(DEFAULT_ADMIN_ROLE, msg.sender) */\n  jump\t// in\ntag_12:\n  pop\n    /* \"CrossFi-Treasury-Guard/contracts/AIScoreRegistry.sol\":2226:2260  _grantRole(ADMIN_ROLE, msg.sender) */\n  tag_13\n    /* \"CrossFi-Treasury-Guard/contracts/utils/ExtendedAccessControl.sol\":343:366  keccak256(\"ADMIN_ROLE\") */\n  0xa49807205ce4d355092ef5a8a18f56e8913cf4a201fbe287825b095693c21775\n    /* \"CrossFi-Treasury-Guard/contracts/AIScoreRegistry.sol\":2249:2259  msg.sender */\n  caller\n    /* \"CrossFi-Treasury-Guard/contracts/AIScoreRegistry.sol\":2226:2236  _grantRole */\n  tag_8\n    /* \"CrossFi-Treasury-Guard/contracts/AIScoreRegistry.sol\":2226:2260  _grantRole(ADMIN_ROLE, msg.sender) */\n  jump\t// in\ntag_13:\n  pop\n    /* \"CrossFi-Treasury-Guard/contracts/AIScoreRegistry.sol\":2270:2308  _grantRole(AI_ORACLE_ROLE, msg.sender) */\n  tag_14\n    /* \"CrossFi-Treasury-Guard/contracts/utils/ExtendedAccessControl.sol\":413:440  keccak256(\"AI_ORACLE_ROLE\") */\n  0x482648e7878e9fa54c0a2f67ffd22d00ebc37cf7a03e060e428d2ab0cd6735cc\n    /* \"CrossFi-Treasury-Guard/contracts/AIScoreRegistry.sol\":2297:2307  msg.sender */\n  caller\n    /* \"CrossFi-Treasury-Guard/contracts/AIScoreRegistry.sol\":2270:2280  _grantRole */\n  tag_8\n    /* \"CrossFi-Treasury-Guard/contracts/AIScoreRegistry.sol\":2270:2308  _grantRole(AI_ORACLE_ROLE, msg.sender) */\n  jump\t// in\ntag_14:\n  pop\n    /* \"CrossFi-Treasury-Guard/contracts/AIScoreRegistry.sol\":2391:2578  ScoringCriteria({... */\n  0x40\n  dup1\n  mload\n  0xa0\n  dup2\n  add\n  dup3\n  mstore\n    /* \"CrossFi-Treasury-Guard/contracts/AIScoreRegistry.sol\":2444:2446  25 */\n  0x19\n    /* \"CrossFi-Treasury-Guard/contracts/AIScoreRegistry.sol\":2391:2578  ScoringCriteria({... */\n  dup1\n  dup3\n  mstore\n  0x20\n  dup3\n  add\n  mstore\n    /* \"CrossFi-Treasury-Guard/contracts/AIScoreRegistry.sol\":2505:2507  20 */\n  0x14\n    /* \"CrossFi-Treasury-Guard/contracts/AIScoreRegistry.sol\":2391:2578  ScoringCriteria({... */\n  dup2\n  dup4\n  add\n  mstore\n    /* \"CrossFi-Treasury-Guard/contracts/AIScoreRegistry.sol\":2537:2539  15 */\n  0x0f\n    /* \"CrossFi-Treasury-Guard/contracts/AIScoreRegistry.sol\":2391:2578  ScoringCriteria({... */\n  0x60\n  dup3\n  add\n  dup2\n  swap1\n  mstore\n  0x80\n  swap1\n  swap2\n  add\n  mstore\n    /* \"CrossFi-Treasury-Guard/contracts/AIScoreRegistry.sol\":2374:2388  scoringWeights */\n  0x06\n    /* \"CrossFi-Treasury-Guard/contracts/AIScoreRegistry.sol\":2374:2578  scoringWeights = ScoringCriteria({... */\n  dup1\n  sload\n  not(0xffffffffff)\n  and\n  0x0f0f141919\n  or\n  swap1\n  sstore\n    /* \"CrossFi-Treasury-Guard/contracts/AIScoreRegistry.sol\":2633:2657  supportedModels[\"GPT-4\"] */\n  dup1\n  mload\n  shl(0xda, 0x11d4150b4d)\n    /* \"#utility.yul\":216:236   */\n  dup2\n  mstore\n    /* \"CrossFi-Treasury-Guard/contracts/AIScoreRegistry.sol\":2633:2648  supportedModels */\n  0x05\n    /* \"#utility.yul\":252:263   */\n  dup1\n  dup3\n  add\n    /* \"CrossFi-Treasury-Guard/contracts/AIScoreRegistry.sol\":2633:2657  supportedModels[\"GPT-4\"] */\n  dup2\n  swap1\n  mstore\n  dup3\n  mload\n  swap2\n  dup3\n  swap1\n  sub\n  0x25\n  add\n  dup3\n  keccak256\n    /* \"CrossFi-Treasury-Guard/contracts/AIScoreRegistry.sol\":2633:2664  supportedModels[\"GPT-4\"] = true */\n  dup1\n  sload\n  not(0xff)\n  swap1\n  dup2\n  and\n  0x01\n  swap1\n  dup2\n  or\n  swap1\n  swap3\n  sstore\n  shl(0xc0, 0x436c617564652d33)\n    /* \"#utility.yul\":476:499   */\n  dup5\n  mstore\n    /* \"#utility.yul\":524:525   */\n  0x08\n    /* \"#utility.yul\":515:526   */\n  dup5\n  add\n    /* \"CrossFi-Treasury-Guard/contracts/AIScoreRegistry.sol\":2674:2701  supportedModels[\"Claude-3\"] */\n  swap3\n  swap1\n  swap3\n  mstore\n  swap3\n  mload\n  swap2\n  dup3\n  swap1\n  sub\n  0x28\n  add\n  swap1\n  swap2\n  keccak256\n    /* \"CrossFi-Treasury-Guard/contracts/AIScoreRegistry.sol\":2674:2708  supportedModels[\"Claude-3\"] = true */\n  dup1\n  sload\n  swap1\n  swap2\n  and\n  swap1\n  swap2\n  or\n  swap1\n  sstore\n    /* \"CrossFi-Treasury-Guard/contracts/AIScoreRegistry.sol\":410:10788  contract AIScoreRegistry is IAIScoreRegistry, ExtendedAccessControl, Pausable, ReentrancyGuard {... */\n  jump(tag_29)\n    /* \"@openzeppelin/contracts/access/AccessControl.sol\":6155:6471  function _grantRole(bytes32 role, address account) internal virtual returns (bool) {... */\ntag_8:\n    /* \"@openzeppelin/contracts/access/AccessControl.sol\":6232:6236  bool */\n  0x00\n    /* \"@openzeppelin/contracts/access/AccessControl.sol\":2930:2942  _roles[role] */\n  dup3\n  dup2\n  mstore\n  0x20\n  dup2\n  dup2\n  mstore\n  0x40\n  dup1\n  dup4\n  keccak256\n  sub(shl(0xa0, 0x01), 0x01)\n    /* \"@openzeppelin/contracts/access/AccessControl.sol\":2930:2959  _roles[role].hasRole[account] */\n  dup6\n  and\n  dup5\n  mstore\n  swap1\n  swap2\n  mstore\n  dup2\n  keccak256\n  sload\n  0xff\n  and\n    /* \"@openzeppelin/contracts/access/AccessControl.sol\":6248:6465  if (!hasRole(role, account)) {... */\n  tag_23\n  jumpi\n    /* \"@openzeppelin/contracts/access/AccessControl.sol\":6291:6297  _roles */\n  0x00\n    /* \"@openzeppelin/contracts/access/AccessControl.sol\":6291:6303  _roles[role] */\n  dup4\n  dup2\n  mstore\n  0x20\n  dup2\n  dup2\n  mstore\n  0x40\n  dup1\n  dup4\n  keccak256\n  sub(shl(0xa0, 0x01), 0x01)\n    /* \"@openzeppelin/contracts/access/AccessControl.sol\":6291:6320  _roles[role].hasRole[account] */\n  dup7\n  and\n  dup5\n  mstore\n  swap1\n  swap2\n  mstore\n  swap1\n  keccak256\n    /* \"@openzeppelin/contracts/access/AccessControl.sol\":6291:6327  _roles[role].hasRole[account] = true */\n  dup1\n  sload\n  not(0xff)\n  and\n    /* \"@openzeppelin/contracts/access/AccessControl.sol\":6323:6327  true */\n  0x01\n    /* \"@openzeppelin/contracts/access/AccessControl.sol\":6291:6327  _roles[role].hasRole[account] = true */\n  or\n  swap1\n  sstore\n    /* \"@openzeppelin/contracts/access/AccessControl.sol\":6373:6385  _msgSender() */\n  tag_24\n    /* \"@openzeppelin/contracts/utils/Context.sol\":735:745  msg.sender */\n  caller\n  swap1\n    /* \"@openzeppelin/contracts/utils/Context.sol\":656:752  function _msgSender() internal view virtual returns (address) {... */\n  jump\n    /* \"@openzeppelin/contracts/access/AccessControl.sol\":6373:6385  _msgSender() */\ntag_24:\n  sub(shl(0xa0, 0x01), 0x01)\n    /* \"@openzeppelin/contracts/access/AccessControl.sol\":6346:6386  RoleGranted(role, account, _msgSender()) */\n  and\n    /* \"@openzeppelin/contracts/access/AccessControl.sol\":6364:6371  account */\n  dup3\n  sub(shl(0xa0, 0x01), 0x01)\n    /* \"@openzeppelin/contracts/access/AccessControl.sol\":6346:6386  RoleGranted(role, account, _msgSender()) */\n  and\n    /* \"@openzeppelin/contracts/access/AccessControl.sol\":6358:6362  role */\n  dup5\n    /* \"@openzeppelin/contracts/access/AccessControl.sol\":6346:6386  RoleGranted(role, account, _msgSender()) */\n  0x2f8788117e7eff1d82e926ec794901d17c78024a50270940304540a733656f0d\n  mload(0x40)\n  mload(0x40)\n  dup1\n  swap2\n  sub\n  swap1\n  log4\n  pop\n    /* \"@openzeppelin/contracts/access/AccessControl.sol\":6407:6411  true */\n  0x01\n    /* \"@openzeppelin/contracts/access/AccessControl.sol\":6400:6411  return true */\n  jump(tag_26)\n    /* \"@openzeppelin/contracts/access/AccessControl.sol\":6248:6465  if (!hasRole(role, account)) {... */\ntag_23:\n  pop\n    /* \"@openzeppelin/contracts/access/AccessControl.sol\":6449:6454  false */\n  0x00\n    /* \"@openzeppelin/contracts/access/AccessControl.sol\":6248:6465  if (!hasRole(role, account)) {... */\ntag_26:\n    /* \"@openzeppelin/contracts/access/AccessControl.sol\":6155:6471  function _grantRole(bytes32 role, address account) internal virtual returns (bool) {... */\n  swap3\n  swap2\n  pop\n  pop\n  jump\t// out\n    /* \"#utility.yul\":274:532   */\ntag_29:\n    /* \"CrossFi-Treasury-Guard/contracts/AIScoreRegistry.sol\":410:10788  contract AIScoreRegistry is IAIScoreRegistry, ExtendedAccessControl, Pausable, ReentrancyGuard {... */\n  dataSize(sub_0)\n  dup1\n  dataOffset(sub_0)\n  0x00\n  codecopy\n  0x00\n  return\nstop\n\nsub_0: assembly {\n        /* \"CrossFi-Treasury-Guard/contracts/AIScoreRegistry.sol\":410:10788  contract AIScoreRegistry is IAIScoreRegistry, ExtendedAccessControl, Pausable, ReentrancyGuard {... */\n      mstore(0x40, 0x80)\n      callvalue\n      dup1\n      iszero\n      tag_1\n      jumpi\n      0x00\n      dup1\n      revert\n    tag_1:\n      pop\n      jumpi(tag_2, lt(calldatasize, 0x04))\n      shr(0xe0, calldataload(0x00))\n      dup1\n      0x8456cb59\n      gt\n      tag_42\n      jumpi\n      dup1\n      0xbfe42a37\n      gt\n      tag_43\n      jumpi\n      dup1\n      0xd5c1a1e1\n      gt\n      tag_44\n      jumpi\n      dup1\n      0xd5c1a1e1\n      eq\n      tag_37\n      jumpi\n      dup1\n      0xea535940\n      eq\n      tag_38\n      jumpi\n      dup1\n      0xebdf690f\n      eq\n      tag_39\n      jumpi\n      dup1\n      0xf2bcac3d\n      eq\n      tag_40\n      jumpi\n      dup1\n      0xff8dea01\n      eq\n      tag_41\n      jumpi\n      0x00\n      dup1\n      revert\n    tag_44:\n      dup1\n      0xbfe42a37\n      eq\n      tag_32\n      jumpi\n      dup1\n      0xc601f7af\n      eq\n      tag_33\n      jumpi\n      dup1\n      0xc772a8a6\n      eq\n      tag_34\n      jumpi\n      dup1\n      0xcfe85a2f\n      eq\n      tag_35\n      jumpi\n      dup1\n      0xd547741f\n      eq\n      tag_36\n      jumpi\n      0x00\n      dup1\n      revert\n    tag_43:\n      dup1\n      0xa217fddf\n      gt\n      tag_45\n      jumpi\n      dup1\n      0xa217fddf\n      eq\n      tag_13\n      jumpi\n      dup1\n      0xa91ad18e\n      eq\n      tag_28\n      jumpi\n      dup1\n      0xaca5a8a7\n      eq\n      tag_29\n      jumpi\n      dup1\n      0xb8a956d3\n      eq\n      tag_30\n      jumpi\n      dup1\n      0xba340773\n      eq\n      tag_31\n      jumpi\n      0x00\n      dup1\n      revert\n    tag_45:\n      dup1\n      0x8456cb59\n      eq\n      tag_22\n      jumpi\n      dup1\n      0x91b9f9d8\n      eq\n      tag_23\n      jumpi\n      dup1\n      0x91d14854\n      eq\n      tag_24\n      jumpi\n      dup1\n      0x96caac0a\n      eq\n      tag_25\n      jumpi\n      dup1\n      0xa02d72fb\n      eq\n      tag_26\n      jumpi\n      0x00\n      dup1\n      revert\n    tag_42:\n      dup1\n      0x3f4ba83a\n      gt\n      tag_46\n      jumpi\n      dup1\n      0x61c992a3\n      gt\n      tag_47\n      jumpi\n      dup1\n      0x61c992a3\n      eq\n      tag_17\n      jumpi\n      dup1\n      0x68ca78f9\n      eq\n      tag_18\n      jumpi\n      dup1\n      0x7092b0bc\n      eq\n      tag_19\n      jumpi\n      dup1\n      0x7131f025\n      eq\n      tag_20\n      jumpi\n      dup1\n      0x75b238fc\n      eq\n      tag_21\n      jumpi\n      0x00\n      dup1\n      revert\n    tag_47:\n      dup1\n      0x3f4ba83a\n      eq\n      tag_12\n      jumpi\n      dup1\n      0x40b89270\n      eq\n      tag_13\n      jumpi\n      dup1\n      0x4da89fbd\n      eq\n      tag_14\n      jumpi\n      dup1\n      0x4fe9d1f5\n      eq\n      tag_15\n      jumpi\n      dup1\n      0x5c975abb\n      eq\n      tag_16\n      jumpi\n      0x00\n      dup1\n      revert\n    tag_46:\n      dup1\n      0x2b116373\n      gt\n      tag_48\n      jumpi\n      dup1\n      0x2b116373\n      eq\n      tag_7\n      jumpi\n      dup1\n      0x2ed49cf7\n      eq\n      tag_8\n      jumpi\n      dup1\n      0x2f2ff15d\n      eq\n      tag_9\n      jumpi\n      dup1\n      0x36568abe\n      eq\n      tag_10\n      jumpi\n      dup1\n      0x3a1e017f\n      eq\n      tag_11\n      jumpi\n      0x00\n      dup1\n      revert\n    tag_48:\n      dup1\n      0x01ffc9a7\n      eq\n      tag_3\n      jumpi\n      dup1\n      0x0311b82d\n      eq\n      tag_4\n      jumpi\n      dup1\n      0x248a9ca3\n      eq\n      tag_5\n      jumpi\n      dup1\n      0x27ff6223\n      eq\n      tag_6\n      jumpi\n    tag_2:\n      0x00\n      dup1\n      revert\n        /* \"@openzeppelin/contracts/access/AccessControl.sol\":2541:2743  function supportsInterface(bytes4 interfaceId) public view virtual override returns (bool) {... */\n    tag_3:\n      tag_49\n      tag_50\n      calldatasize\n      0x04\n      tag_51\n      jump\t// in\n    tag_50:\n      tag_52\n      jump\t// in\n    tag_49:\n      mload(0x40)\n        /* \"#utility.yul\":566:580   */\n      swap1\n      iszero\n        /* \"#utility.yul\":559:581   */\n      iszero\n        /* \"#utility.yul\":541:582   */\n      dup2\n      mstore\n        /* \"#utility.yul\":529:531   */\n      0x20\n        /* \"#utility.yul\":514:532   */\n      add\n        /* \"@openzeppelin/contracts/access/AccessControl.sol\":2541:2743  function supportsInterface(bytes4 interfaceId) public view virtual override returns (bool) {... */\n    tag_53:\n      mload(0x40)\n      dup1\n      swap2\n      sub\n      swap1\n      return\n        /* \"CrossFi-Treasury-Guard/contracts/AIScoreRegistry.sol\":6593:6937  function getAIScore(uint256 proposalId) external view override validProposalId(proposalId) returns (... */\n    tag_4:\n      tag_55\n      tag_56\n      calldatasize\n      0x04\n      tag_57\n      jump\t// in\n    tag_56:\n      tag_58\n      jump\t// in\n    tag_55:\n      mload(0x40)\n      tag_53\n      swap4\n      swap3\n      swap2\n      swap1\n      tag_60\n      jump\t// in\n        /* \"@openzeppelin/contracts/access/AccessControl.sol\":3786:3906  function getRoleAdmin(bytes32 role) public view virtual returns (bytes32) {... */\n    tag_5:\n      tag_61\n      tag_62\n      calldatasize\n      0x04\n      tag_57\n      jump\t// in\n    tag_62:\n        /* \"@openzeppelin/contracts/access/AccessControl.sol\":3851:3858  bytes32 */\n      0x00\n        /* \"@openzeppelin/contracts/access/AccessControl.sol\":3877:3889  _roles[role] */\n      swap1\n      dup2\n      mstore\n      0x20\n      dup2\n      swap1\n      mstore\n      0x40\n      swap1\n      keccak256\n        /* \"@openzeppelin/contracts/access/AccessControl.sol\":3877:3899  _roles[role].adminRole */\n      0x01\n      add\n      sload\n      swap1\n        /* \"@openzeppelin/contracts/access/AccessControl.sol\":3786:3906  function getRoleAdmin(bytes32 role) public view virtual returns (bytes32) {... */\n      jump\n    tag_61:\n      mload(0x40)\n        /* \"#utility.yul\":2017:2042   */\n      swap1\n      dup2\n      mstore\n        /* \"#utility.yul\":2005:2007   */\n      0x20\n        /* \"#utility.yul\":1990:2008   */\n      add\n        /* \"@openzeppelin/contracts/access/AccessControl.sol\":3786:3906  function getRoleAdmin(bytes32 role) public view virtual returns (bytes32) {... */\n      tag_53\n        /* \"#utility.yul\":1871:2048   */\n      jump\n        /* \"CrossFi-Treasury-Guard/contracts/AIScoreRegistry.sol\":1260:1299  uint256 public constant MAX_SCORE = 100 */\n    tag_6:\n      tag_61\n        /* \"CrossFi-Treasury-Guard/contracts/AIScoreRegistry.sol\":1296:1299  100 */\n      0x64\n        /* \"CrossFi-Treasury-Guard/contracts/AIScoreRegistry.sol\":1260:1299  uint256 public constant MAX_SCORE = 100 */\n      dup2\n      jump\n        /* \"CrossFi-Treasury-Guard/contracts/AIScoreRegistry.sol\":5461:6349  function updateAIScore(... */\n    tag_7:\n      tag_71\n      tag_72\n      calldatasize\n      0x04\n      tag_73\n      jump\t// in\n    tag_72:\n      tag_74\n      jump\t// in\n    tag_71:\n      stop\n        /* \"CrossFi-Treasury-Guard/contracts/AIScoreRegistry.sol\":1117:1163  mapping(string => bool) public supportedModels */\n    tag_8:\n      tag_49\n      tag_76\n      calldatasize\n      0x04\n      tag_77\n      jump\t// in\n    tag_76:\n      dup1\n      mload\n      0x20\n      dup2\n      dup4\n      add\n      dup2\n      add\n      dup1\n      mload\n      0x05\n      dup3\n      mstore\n      swap3\n      dup3\n      add\n      swap2\n      swap1\n      swap4\n      add\n      keccak256\n      swap2\n      mstore\n      sload\n      0xff\n      and\n      dup2\n      jump\n        /* \"@openzeppelin/contracts/access/AccessControl.sol\":4202:4338  function grantRole(bytes32 role, address account) public virtual onlyRole(getRoleAdmin(role)) {... */\n    tag_9:\n      tag_71\n      tag_81\n      calldatasize\n      0x04\n      tag_82\n      jump\t// in\n    tag_81:\n      tag_83\n      jump\t// in\n        /* \"@openzeppelin/contracts/access/AccessControl.sol\":5304:5549  function renounceRole(bytes32 role, address callerConfirmation) public virtual {... */\n    tag_10:\n      tag_71\n      tag_85\n      calldatasize\n      0x04\n      tag_82\n      jump\t// in\n    tag_85:\n      tag_86\n      jump\t// in\n        /* \"CrossFi-Treasury-Guard/contracts/AIScoreRegistry.sol\":1367:1402  uint256 public totalScoresSubmitted */\n    tag_11:\n      tag_61\n      sload(0x07)\n      dup2\n      jump\n        /* \"CrossFi-Treasury-Guard/contracts/AIScoreRegistry.sol\":10710:10786  function unpause() external onlyRole(ADMIN_ROLE) {... */\n    tag_12:\n      tag_71\n      tag_91\n      jump\t// in\n        /* \"CrossFi-Treasury-Guard/contracts/AIScoreRegistry.sol\":1217:1254  uint256 public constant MIN_SCORE = 0 */\n    tag_13:\n      tag_61\n        /* \"CrossFi-Treasury-Guard/contracts/AIScoreRegistry.sol\":1253:1254  0 */\n      0x00\n        /* \"CrossFi-Treasury-Guard/contracts/AIScoreRegistry.sol\":1217:1254  uint256 public constant MIN_SCORE = 0 */\n      dup2\n      jump\n        /* \"CrossFi-Treasury-Guard/contracts/AIScoreRegistry.sol\":1174:1211  ScoringCriteria public scoringWeights */\n    tag_14:\n      sload(0x06)\n      tag_95\n      swap1\n      0xff\n      dup1\n      dup3\n      and\n      swap2\n      0x0100\n      dup2\n      div\n      dup3\n      and\n      swap2\n      0x010000\n      dup3\n      div\n      dup2\n      and\n      swap2\n      0x01000000\n      dup2\n      div\n      dup3\n      and\n      swap2\n      0x0100000000\n      swap1\n      swap2\n      div\n      and\n      dup6\n      jump\n    tag_95:\n      0x40\n      dup1\n      mload\n        /* \"#utility.yul\":4901:4905   */\n      0xff\n        /* \"#utility.yul\":4889:4906   */\n      swap7\n      dup8\n      and\n        /* \"#utility.yul\":4871:4907   */\n      dup2\n      mstore\n        /* \"#utility.yul\":4943:4960   */\n      swap5\n      dup7\n      and\n        /* \"#utility.yul\":4938:4940   */\n      0x20\n        /* \"#utility.yul\":4923:4941   */\n      dup7\n      add\n        /* \"#utility.yul\":4916:4961   */\n      mstore\n        /* \"#utility.yul\":4997:5014   */\n      swap3\n      dup6\n      and\n        /* \"#utility.yul\":4977:4995   */\n      swap3\n      dup5\n      add\n        /* \"#utility.yul\":4970:5015   */\n      swap3\n      swap1\n      swap3\n      mstore\n        /* \"#utility.yul\":5051:5068   */\n      dup4\n      and\n        /* \"#utility.yul\":5046:5048   */\n      0x60\n        /* \"#utility.yul\":5031:5049   */\n      dup4\n      add\n        /* \"#utility.yul\":5024:5069   */\n      mstore\n        /* \"#utility.yul\":5106:5123   */\n      swap1\n      swap2\n      and\n        /* \"#utility.yul\":5100:5103   */\n      0x80\n        /* \"#utility.yul\":5085:5104   */\n      dup3\n      add\n        /* \"#utility.yul\":5078:5124   */\n      mstore\n        /* \"#utility.yul\":4858:4861   */\n      0xa0\n        /* \"#utility.yul\":4843:4862   */\n      add\n        /* \"CrossFi-Treasury-Guard/contracts/AIScoreRegistry.sol\":1174:1211  ScoringCriteria public scoringWeights */\n      tag_53\n        /* \"#utility.yul\":4632:5130   */\n      jump\n        /* \"CrossFi-Treasury-Guard/contracts/utils/ExtendedAccessControl.sol\":1352:1573  function revokeMultipleRoles(address account, bytes32[] memory roles) external onlyRole(DEFAULT_ADMIN_ROLE) {... */\n    tag_15:\n      tag_71\n      tag_100\n      calldatasize\n      0x04\n      tag_101\n      jump\t// in\n    tag_100:\n      tag_102\n      jump\t// in\n        /* \"@openzeppelin/contracts/security/Pausable.sol\":1615:1699  function paused() public view virtual returns (bool) {... */\n    tag_16:\n        /* \"@openzeppelin/contracts/security/Pausable.sol\":1685:1692  _paused */\n      and(0xff, sload(0x01))\n        /* \"@openzeppelin/contracts/security/Pausable.sol\":1615:1699  function paused() public view virtual returns (bool) {... */\n      jump(tag_49)\n        /* \"CrossFi-Treasury-Guard/contracts/AIScoreRegistry.sol\":1062:1111  mapping(address => bool) public authorizedOracles */\n    tag_17:\n      tag_49\n      tag_107\n      calldatasize\n      0x04\n      tag_108\n      jump\t// in\n    tag_107:\n      mstore(0x20, 0x04)\n      0x00\n      swap1\n      dup2\n      mstore\n      0x40\n      swap1\n      keccak256\n      sload\n      0xff\n      and\n      dup2\n      jump\n        /* \"CrossFi-Treasury-Guard/contracts/utils/ExtendedAccessControl.sol\":1816:2087  function hasAnyRole(address account, bytes32[] memory roles) external view returns (bool) {... */\n    tag_18:\n      tag_49\n      tag_112\n      calldatasize\n      0x04\n      tag_101\n      jump\t// in\n    tag_112:\n      tag_113\n      jump\t// in\n        /* \"CrossFi-Treasury-Guard/contracts/AIScoreRegistry.sol\":3054:5175  function submitAIScore(... */\n    tag_19:\n      tag_71\n      tag_116\n      calldatasize\n      0x04\n      tag_117\n      jump\t// in\n    tag_116:\n      tag_118\n      jump\t// in\n        /* \"CrossFi-Treasury-Guard/contracts/AIScoreRegistry.sol\":1408:1459  mapping(address => uint256) public oracleScoreCount */\n    tag_20:\n      tag_61\n      tag_120\n      calldatasize\n      0x04\n      tag_108\n      jump\t// in\n    tag_120:\n      mstore(0x20, 0x08)\n      0x00\n      swap1\n      dup2\n      mstore\n      0x40\n      swap1\n      keccak256\n      sload\n      dup2\n      jump\n        /* \"CrossFi-Treasury-Guard/contracts/utils/ExtendedAccessControl.sol\":306:366  bytes32 public constant ADMIN_ROLE = keccak256(\"ADMIN_ROLE\") */\n    tag_21:\n      tag_61\n      0x00\n      dup1\n      mload\n      0x20\n      data_cb864c43dd5d441bb6271f424f11befa622c032dfd374d226e26fbbdb782b8f8\n      dup4\n      codecopy\n      dup2\n      mload\n      swap2\n      mstore\n      dup2\n      jump\n        /* \"CrossFi-Treasury-Guard/contracts/AIScoreRegistry.sol\":10632:10704  function pause() external onlyRole(ADMIN_ROLE) {... */\n    tag_22:\n      tag_71\n      tag_127\n      jump\t// in\n        /* \"CrossFi-Treasury-Guard/contracts/utils/ExtendedAccessControl.sol\":960:1179  function grantMultipleRoles(address account, bytes32[] memory roles) external onlyRole(DEFAULT_ADMIN_ROLE) {... */\n    tag_23:\n      tag_71\n      tag_129\n      calldatasize\n      0x04\n      tag_101\n      jump\t// in\n    tag_129:\n      tag_130\n      jump\t// in\n        /* \"@openzeppelin/contracts/access/AccessControl.sol\":2830:2966  function hasRole(bytes32 role, address account) public view virtual returns (bool) {... */\n    tag_24:\n      tag_49\n      tag_132\n      calldatasize\n      0x04\n      tag_82\n      jump\t// in\n    tag_132:\n      tag_133\n      jump\t// in\n        /* \"CrossFi-Treasury-Guard/contracts/AIScoreRegistry.sol\":7901:8065  function hasAIScore(uint256 proposalId) external view override validProposalId(proposalId) returns (bool exists) {... */\n    tag_25:\n      tag_49\n      tag_136\n      calldatasize\n      0x04\n      tag_57\n      jump\t// in\n    tag_136:\n      tag_137\n      jump\t// in\n        /* \"CrossFi-Treasury-Guard/contracts/utils/ExtendedAccessControl.sol\":534:620  bytes32 public constant MILESTONE_APPROVER_ROLE = keccak256(\"MILESTONE_APPROVER_ROLE\") */\n    tag_26:\n      tag_61\n        /* \"CrossFi-Treasury-Guard/contracts/utils/ExtendedAccessControl.sol\":584:620  keccak256(\"MILESTONE_APPROVER_ROLE\") */\n      0x58223cdfb69946630d837d40b5c366a584f0217ada7fddd8318f2e08603cfa22\n        /* \"CrossFi-Treasury-Guard/contracts/utils/ExtendedAccessControl.sol\":534:620  bytes32 public constant MILESTONE_APPROVER_ROLE = keccak256(\"MILESTONE_APPROVER_ROLE\") */\n      dup2\n      jump\n        /* \"CrossFi-Treasury-Guard/contracts/AIScoreRegistry.sol\":1305:1360  uint256 public constant SCORE_VALIDITY_PERIOD = 30 days */\n    tag_28:\n      tag_61\n        /* \"CrossFi-Treasury-Guard/contracts/AIScoreRegistry.sol\":1353:1360  30 days */\n      0x278d00\n        /* \"CrossFi-Treasury-Guard/contracts/AIScoreRegistry.sol\":1305:1360  uint256 public constant SCORE_VALIDITY_PERIOD = 30 days */\n      dup2\n      jump\n        /* \"CrossFi-Treasury-Guard/contracts/utils/ExtendedAccessControl.sol\":2250:2610  function getRoleCount(address account) external view returns (uint256 roleCount) {... */\n    tag_29:\n      tag_61\n      tag_149\n      calldatasize\n      0x04\n      tag_108\n      jump\t// in\n    tag_149:\n      tag_150\n      jump\t// in\n        /* \"CrossFi-Treasury-Guard/contracts/AIScoreRegistry.sol\":10249:10626  function removeScore(uint256 proposalId, string memory reason) external onlyRole(DEFAULT_ADMIN_ROLE) {... */\n    tag_30:\n      tag_71\n      tag_153\n      calldatasize\n      0x04\n      tag_154\n      jump\t// in\n    tag_153:\n      tag_155\n      jump\t// in\n        /* \"CrossFi-Treasury-Guard/contracts/AIScoreRegistry.sol\":9209:9496  function setSupportedModel(string memory modelVersion, bool supported) external onlyRole(ADMIN_ROLE) {... */\n    tag_31:\n      tag_71\n      tag_157\n      calldatasize\n      0x04\n      tag_158\n      jump\t// in\n    tag_157:\n      tag_159\n      jump\t// in\n        /* \"CrossFi-Treasury-Guard/contracts/utils/ExtendedAccessControl.sol\":626:708  bytes32 public constant DISPUTE_RESOLVER_ROLE = keccak256(\"DISPUTE_RESOLVER_ROLE\") */\n    tag_32:\n      tag_61\n        /* \"CrossFi-Treasury-Guard/contracts/utils/ExtendedAccessControl.sol\":674:708  keccak256(\"DISPUTE_RESOLVER_ROLE\") */\n      0x7b8bb8356a3f32f5c111ff23f050d97f08988e0883529ea7bff3b918887a6e0e\n        /* \"CrossFi-Treasury-Guard/contracts/utils/ExtendedAccessControl.sol\":626:708  bytes32 public constant DISPUTE_RESOLVER_ROLE = keccak256(\"DISPUTE_RESOLVER_ROLE\") */\n      dup2\n      jump\n        /* \"CrossFi-Treasury-Guard/contracts/utils/ExtendedAccessControl.sol\":372:440  bytes32 public constant AI_ORACLE_ROLE = keccak256(\"AI_ORACLE_ROLE\") */\n    tag_33:\n      tag_61\n      0x00\n      dup1\n      mload\n      0x20\n      data_a33092ec2ea5e84579a4a7f81a8171c84a984183e655ab76a6ea5c0d5344c7b0\n      dup4\n      codecopy\n      dup2\n      mload\n      swap2\n      mstore\n      dup2\n      jump\n        /* \"CrossFi-Treasury-Guard/contracts/AIScoreRegistry.sol\":8277:8456  function getOracleStats(address oracle) external view returns (uint256 scoreCount, bool isAuthorized) {... */\n    tag_34:\n      tag_166\n      tag_167\n      calldatasize\n      0x04\n      tag_108\n      jump\t// in\n    tag_167:\n      sub(shl(0xa0, 0x01), 0x01)\n        /* \"CrossFi-Treasury-Guard/contracts/AIScoreRegistry.sol\":8397:8421  oracleScoreCount[oracle] */\n      and\n        /* \"CrossFi-Treasury-Guard/contracts/AIScoreRegistry.sol\":8340:8358  uint256 scoreCount */\n      0x00\n        /* \"CrossFi-Treasury-Guard/contracts/AIScoreRegistry.sol\":8397:8421  oracleScoreCount[oracle] */\n      swap1\n      dup2\n      mstore\n        /* \"CrossFi-Treasury-Guard/contracts/AIScoreRegistry.sol\":8397:8413  oracleScoreCount */\n      0x08\n        /* \"CrossFi-Treasury-Guard/contracts/AIScoreRegistry.sol\":8397:8421  oracleScoreCount[oracle] */\n      0x20\n      swap1\n      dup2\n      mstore\n      0x40\n      dup1\n      dup4\n      keccak256\n      sload\n        /* \"CrossFi-Treasury-Guard/contracts/AIScoreRegistry.sol\":8423:8440  authorizedOracles */\n      0x04\n        /* \"CrossFi-Treasury-Guard/contracts/AIScoreRegistry.sol\":8423:8448  authorizedOracles[oracle] */\n      swap1\n      swap3\n      mstore\n      swap1\n      swap2\n      keccak256\n      sload\n        /* \"CrossFi-Treasury-Guard/contracts/AIScoreRegistry.sol\":8397:8421  oracleScoreCount[oracle] */\n      swap1\n      swap2\n        /* \"CrossFi-Treasury-Guard/contracts/AIScoreRegistry.sol\":8423:8448  authorizedOracles[oracle] */\n      0xff\n      swap1\n      swap2\n      and\n      swap1\n        /* \"CrossFi-Treasury-Guard/contracts/AIScoreRegistry.sol\":8277:8456  function getOracleStats(address oracle) external view returns (uint256 scoreCount, bool isAuthorized) {... */\n      jump\n    tag_166:\n      0x40\n      dup1\n      mload\n        /* \"#utility.yul\":9160:9185   */\n      swap3\n      dup4\n      mstore\n        /* \"#utility.yul\":9228:9242   */\n      swap1\n      iszero\n        /* \"#utility.yul\":9221:9243   */\n      iszero\n        /* \"#utility.yul\":9216:9218   */\n      0x20\n        /* \"#utility.yul\":9201:9219   */\n      dup4\n      add\n        /* \"#utility.yul\":9194:9244   */\n      mstore\n        /* \"#utility.yul\":9133:9151   */\n      add\n        /* \"CrossFi-Treasury-Guard/contracts/AIScoreRegistry.sol\":8277:8456  function getOracleStats(address oracle) external view returns (uint256 scoreCount, bool isAuthorized) {... */\n      tag_53\n        /* \"#utility.yul\":8992:9250   */\n      jump\n        /* \"CrossFi-Treasury-Guard/contracts/AIScoreRegistry.sol\":7484:7743  function getScoringBreakdown(uint256 proposalId) external view validProposalId(proposalId) returns (ScoringBreakdown memory breakdown) {... */\n    tag_35:\n      tag_171\n      tag_172\n      calldatasize\n      0x04\n      tag_57\n      jump\t// in\n    tag_172:\n      tag_173\n      jump\t// in\n    tag_171:\n      mload(0x40)\n      tag_53\n      swap2\n      swap1\n      tag_175\n      jump\t// in\n        /* \"@openzeppelin/contracts/access/AccessControl.sol\":4618:4756  function revokeRole(bytes32 role, address account) public virtual onlyRole(getRoleAdmin(role)) {... */\n    tag_36:\n      tag_71\n      tag_177\n      calldatasize\n      0x04\n      tag_82\n      jump\t// in\n    tag_177:\n      tag_178\n      jump\t// in\n        /* \"CrossFi-Treasury-Guard/contracts/AIScoreRegistry.sol\":8611:9043  function setOracleAuthorization(address oracle, bool authorized) external onlyRole(ADMIN_ROLE) {... */\n    tag_37:\n      tag_71\n      tag_180\n      calldatasize\n      0x04\n      tag_181\n      jump\t// in\n    tag_180:\n      tag_182\n      jump\t// in\n        /* \"CrossFi-Treasury-Guard/contracts/AIScoreRegistry.sol\":7087:7320  function getDetailedAIScore(uint256 proposalId) external view validProposalId(proposalId) returns (AIScoreData memory) {... */\n    tag_38:\n      tag_183\n      tag_184\n      calldatasize\n      0x04\n      tag_57\n      jump\t// in\n    tag_184:\n      tag_185\n      jump\t// in\n    tag_183:\n      mload(0x40)\n      tag_53\n      swap2\n      swap1\n      tag_187\n      jump\t// in\n        /* \"CrossFi-Treasury-Guard/contracts/utils/ExtendedAccessControl.sol\":446:528  bytes32 public constant TREASURY_MANAGER_ROLE = keccak256(\"TREASURY_MANAGER_ROLE\") */\n    tag_39:\n      tag_61\n        /* \"CrossFi-Treasury-Guard/contracts/utils/ExtendedAccessControl.sol\":494:528  keccak256(\"TREASURY_MANAGER_ROLE\") */\n      0xede9dcdb0ce99dc7cec9c7be9246ad08b37853683ad91569c187b647ddf5e21c\n        /* \"CrossFi-Treasury-Guard/contracts/utils/ExtendedAccessControl.sol\":446:528  bytes32 public constant TREASURY_MANAGER_ROLE = keccak256(\"TREASURY_MANAGER_ROLE\") */\n      dup2\n      jump\n        /* \"CrossFi-Treasury-Guard/contracts/utils/ExtendedAccessControl.sol\":2723:3087  function getAllRoles() public pure returns (bytes32[] memory roles) {... */\n    tag_40:\n      tag_191\n      tag_192\n      jump\t// in\n    tag_191:\n      mload(0x40)\n      tag_53\n      swap2\n      swap1\n      tag_194\n      jump\t// in\n        /* \"CrossFi-Treasury-Guard/contracts/AIScoreRegistry.sol\":9609:10091  function updateScoringCriteria(ScoringCriteria memory newCriteria) external onlyRole(ADMIN_ROLE) {... */\n    tag_41:\n      tag_71\n      tag_196\n      calldatasize\n      0x04\n      tag_197\n      jump\t// in\n    tag_196:\n      tag_198\n      jump\t// in\n        /* \"@openzeppelin/contracts/access/AccessControl.sol\":2541:2743  function supportsInterface(bytes4 interfaceId) public view virtual override returns (bool) {... */\n    tag_52:\n        /* \"@openzeppelin/contracts/access/AccessControl.sol\":2626:2630  bool */\n      0x00\n      not(sub(shl(0xe0, 0x01), 0x01))\n        /* \"@openzeppelin/contracts/access/AccessControl.sol\":2649:2696  interfaceId == type(IAccessControl).interfaceId */\n      dup3\n      and\n      shl(0xe0, 0x7965db0b)\n      eq\n      dup1\n        /* \"@openzeppelin/contracts/access/AccessControl.sol\":2649:2736  interfaceId == type(IAccessControl).interfaceId || super.supportsInterface(interfaceId) */\n      tag_201\n      jumpi\n      pop\n      shl(0xe0, 0x01ffc9a7)\n      not(sub(shl(0xe0, 0x01), 0x01))\n        /* \"@openzeppelin/contracts/utils/introspection/ERC165.sol\":829:869  interfaceId == type(IERC165).interfaceId */\n      dup4\n      and\n      eq\n        /* \"@openzeppelin/contracts/access/AccessControl.sol\":2700:2736  super.supportsInterface(interfaceId) */\n    tag_201:\n        /* \"@openzeppelin/contracts/access/AccessControl.sol\":2642:2736  return interfaceId == type(IAccessControl).interfaceId || super.supportsInterface(interfaceId) */\n      swap3\n        /* \"@openzeppelin/contracts/access/AccessControl.sol\":2541:2743  function supportsInterface(bytes4 interfaceId) public view virtual override returns (bool) {... */\n      swap2\n      pop\n      pop\n      jump\t// out\n        /* \"CrossFi-Treasury-Guard/contracts/AIScoreRegistry.sol\":6593:6937  function getAIScore(uint256 proposalId) external view override validProposalId(proposalId) returns (... */\n    tag_58:\n        /* \"CrossFi-Treasury-Guard/contracts/AIScoreRegistry.sol\":6702:6715  uint256 score */\n      0x00\n        /* \"CrossFi-Treasury-Guard/contracts/AIScoreRegistry.sol\":6725:6752  string memory justification */\n      0x60\n        /* \"CrossFi-Treasury-Guard/contracts/AIScoreRegistry.sol\":6762:6773  bool exists */\n      0x00\n        /* \"CrossFi-Treasury-Guard/contracts/AIScoreRegistry.sol\":6672:6682  proposalId */\n      dup4\n        /* \"CrossFi-Treasury-Guard/contracts/AIScoreRegistry.sol\":2101:2102  0 */\n      0x00\n        /* \"CrossFi-Treasury-Guard/contracts/AIScoreRegistry.sol\":2088:2098  proposalId */\n      dup2\n        /* \"CrossFi-Treasury-Guard/contracts/AIScoreRegistry.sol\":2088:2102  proposalId > 0 */\n      gt\n        /* \"CrossFi-Treasury-Guard/contracts/AIScoreRegistry.sol\":2080:2126  require(proposalId > 0, \"Invalid proposal ID\") */\n      tag_204\n      jumpi\n      mload(0x40)\n      shl(0xe5, 0x461bcd)\n      dup2\n      mstore\n      0x04\n      add\n      tag_205\n      swap1\n      tag_206\n      jump\t// in\n    tag_205:\n      mload(0x40)\n      dup1\n      swap2\n      sub\n      swap1\n      revert\n    tag_204:\n        /* \"CrossFi-Treasury-Guard/contracts/AIScoreRegistry.sol\":6790:6819  AIScoreData storage scoreData */\n      0x00\n        /* \"CrossFi-Treasury-Guard/contracts/AIScoreRegistry.sol\":6822:6842  aiScores[proposalId] */\n      dup6\n      dup2\n      mstore\n        /* \"CrossFi-Treasury-Guard/contracts/AIScoreRegistry.sol\":6822:6830  aiScores */\n      0x03\n        /* \"CrossFi-Treasury-Guard/contracts/AIScoreRegistry.sol\":6822:6842  aiScores[proposalId] */\n      0x20\n      mstore\n      0x40\n      swap1\n      keccak256\n        /* \"CrossFi-Treasury-Guard/contracts/AIScoreRegistry.sol\":6860:6882  scoreData.overallScore */\n      0x01\n      dup2\n      add\n      sload\n        /* \"CrossFi-Treasury-Guard/contracts/AIScoreRegistry.sol\":6913:6929  scoreData.exists */\n      0x05\n      dup3\n      add\n      sload\n        /* \"CrossFi-Treasury-Guard/contracts/AIScoreRegistry.sol\":6884:6911  scoreData.justificationIPFS */\n      0x02\n      dup4\n      add\n        /* \"CrossFi-Treasury-Guard/contracts/AIScoreRegistry.sol\":6852:6930  return (scoreData.overallScore, scoreData.justificationIPFS, scoreData.exists) */\n      dup1\n      sload\n        /* \"CrossFi-Treasury-Guard/contracts/AIScoreRegistry.sol\":6884:6911  scoreData.justificationIPFS */\n      swap1\n      swap2\n      shl(0xa0, 0x01)\n        /* \"CrossFi-Treasury-Guard/contracts/AIScoreRegistry.sol\":6913:6929  scoreData.exists */\n      swap1\n      div\n      0xff\n      and\n      swap1\n        /* \"CrossFi-Treasury-Guard/contracts/AIScoreRegistry.sol\":6884:6911  scoreData.justificationIPFS */\n      dup3\n      swap1\n        /* \"CrossFi-Treasury-Guard/contracts/AIScoreRegistry.sol\":6852:6930  return (scoreData.overallScore, scoreData.justificationIPFS, scoreData.exists) */\n      tag_208\n      swap1\n      tag_209\n      jump\t// in\n    tag_208:\n      dup1\n      0x1f\n      add\n      0x20\n      dup1\n      swap2\n      div\n      mul\n      0x20\n      add\n      mload(0x40)\n      swap1\n      dup2\n      add\n      0x40\n      mstore\n      dup1\n      swap3\n      swap2\n      swap1\n      dup2\n      dup2\n      mstore\n      0x20\n      add\n      dup3\n      dup1\n      sload\n      tag_210\n      swap1\n      tag_209\n      jump\t// in\n    tag_210:\n      dup1\n      iszero\n      tag_211\n      jumpi\n      dup1\n      0x1f\n      lt\n      tag_212\n      jumpi\n      0x0100\n      dup1\n      dup4\n      sload\n      div\n      mul\n      dup4\n      mstore\n      swap2\n      0x20\n      add\n      swap2\n      jump(tag_211)\n    tag_212:\n      dup3\n      add\n      swap2\n      swap1\n      0x00\n      mstore\n      keccak256(0x00, 0x20)\n      swap1\n    tag_213:\n      dup2\n      sload\n      dup2\n      mstore\n      swap1\n      0x01\n      add\n      swap1\n      0x20\n      add\n      dup1\n      dup4\n      gt\n      tag_213\n      jumpi\n      dup3\n      swap1\n      sub\n      0x1f\n      and\n      dup3\n      add\n      swap2\n    tag_211:\n      pop\n      pop\n      pop\n      pop\n      pop\n      swap2\n      pop\n      swap5\n      pop\n      swap5\n      pop\n      swap5\n      pop\n      pop\n        /* \"CrossFi-Treasury-Guard/contracts/AIScoreRegistry.sol\":6593:6937  function getAIScore(uint256 proposalId) external view override validProposalId(proposalId) returns (... */\n      pop\n      swap2\n      swap4\n      swap1\n      swap3\n      pop\n      jump\t// out\n        /* \"CrossFi-Treasury-Guard/contracts/AIScoreRegistry.sol\":5461:6349  function updateAIScore(... */\n    tag_74:\n        /* \"CrossFi-Treasury-Guard/contracts/AIScoreRegistry.sol\":1820:1830  msg.sender */\n      caller\n        /* \"CrossFi-Treasury-Guard/contracts/AIScoreRegistry.sol\":1802:1831  authorizedOracles[msg.sender] */\n      0x00\n      swap1\n      dup2\n      mstore\n        /* \"CrossFi-Treasury-Guard/contracts/AIScoreRegistry.sol\":1802:1819  authorizedOracles */\n      0x04\n        /* \"CrossFi-Treasury-Guard/contracts/AIScoreRegistry.sol\":1802:1831  authorizedOracles[msg.sender] */\n      0x20\n      mstore\n      0x40\n      swap1\n      keccak256\n      sload\n      0xff\n      and\n        /* \"CrossFi-Treasury-Guard/contracts/AIScoreRegistry.sol\":1794:1857  require(authorizedOracles[msg.sender], \"Not authorized oracle\") */\n      tag_216\n      jumpi\n      mload(0x40)\n      shl(0xe5, 0x461bcd)\n      dup2\n      mstore\n        /* \"#utility.yul\":13087:13089   */\n      0x20\n        /* \"CrossFi-Treasury-Guard/contracts/AIScoreRegistry.sol\":1794:1857  require(authorizedOracles[msg.sender], \"Not authorized oracle\") */\n      0x04\n      dup3\n      add\n        /* \"#utility.yul\":13069:13090   */\n      mstore\n        /* \"#utility.yul\":13126:13128   */\n      0x15\n        /* \"#utility.yul\":13106:13124   */\n      0x24\n      dup3\n      add\n        /* \"#utility.yul\":13099:13129   */\n      mstore\n      shl(0x58, 0x4e6f7420617574686f72697a6564206f7261636c65)\n        /* \"#utility.yul\":13145:13163   */\n      0x44\n      dup3\n      add\n        /* \"#utility.yul\":13138:13189   */\n      mstore\n        /* \"#utility.yul\":13206:13224   */\n      0x64\n      add\n        /* \"CrossFi-Treasury-Guard/contracts/AIScoreRegistry.sol\":1794:1857  require(authorizedOracles[msg.sender], \"Not authorized oracle\") */\n      tag_205\n        /* \"#utility.yul\":12885:13230   */\n      jump\n        /* \"CrossFi-Treasury-Guard/contracts/AIScoreRegistry.sol\":1794:1857  require(authorizedOracles[msg.sender], \"Not authorized oracle\") */\n    tag_216:\n        /* \"CrossFi-Treasury-Guard/contracts/AIScoreRegistry.sol\":5664:5674  proposalId */\n      dup4\n        /* \"CrossFi-Treasury-Guard/contracts/AIScoreRegistry.sol\":2101:2102  0 */\n      0x00\n        /* \"CrossFi-Treasury-Guard/contracts/AIScoreRegistry.sol\":2088:2098  proposalId */\n      dup2\n        /* \"CrossFi-Treasury-Guard/contracts/AIScoreRegistry.sol\":2088:2102  proposalId > 0 */\n      gt\n        /* \"CrossFi-Treasury-Guard/contracts/AIScoreRegistry.sol\":2080:2126  require(proposalId > 0, \"Invalid proposal ID\") */\n      tag_220\n      jumpi\n      mload(0x40)\n      shl(0xe5, 0x461bcd)\n      dup2\n      mstore\n      0x04\n      add\n      tag_205\n      swap1\n      tag_206\n      jump\t// in\n    tag_220:\n        /* \"CrossFi-Treasury-Guard/contracts/AIScoreRegistry.sol\":5687:5695  newScore */\n      dup4\n        /* \"CrossFi-Treasury-Guard/contracts/AIScoreRegistry.sol\":1296:1299  100 */\n      0x64\n        /* \"CrossFi-Treasury-Guard/contracts/AIScoreRegistry.sol\":1956:1961  score */\n      dup2\n        /* \"CrossFi-Treasury-Guard/contracts/AIScoreRegistry.sol\":1956:1974  score <= MAX_SCORE */\n      gt\n      iszero\n        /* \"CrossFi-Treasury-Guard/contracts/AIScoreRegistry.sol\":1926:1997  require(score >= MIN_SCORE && score <= MAX_SCORE, \"Score out of range\") */\n      tag_224\n      jumpi\n      mload(0x40)\n      shl(0xe5, 0x461bcd)\n      dup2\n      mstore\n        /* \"#utility.yul\":13437:13439   */\n      0x20\n        /* \"CrossFi-Treasury-Guard/contracts/AIScoreRegistry.sol\":1926:1997  require(score >= MIN_SCORE && score <= MAX_SCORE, \"Score out of range\") */\n      0x04\n      dup3\n      add\n        /* \"#utility.yul\":13419:13440   */\n      mstore\n        /* \"#utility.yul\":13476:13478   */\n      0x12\n        /* \"#utility.yul\":13456:13474   */\n      0x24\n      dup3\n      add\n        /* \"#utility.yul\":13449:13479   */\n      mstore\n      shl(0x70, 0x53636f7265206f7574206f662072616e6765)\n        /* \"#utility.yul\":13495:13513   */\n      0x44\n      dup3\n      add\n        /* \"#utility.yul\":13488:13536   */\n      mstore\n        /* \"#utility.yul\":13553:13571   */\n      0x64\n      add\n        /* \"CrossFi-Treasury-Guard/contracts/AIScoreRegistry.sol\":1926:1997  require(score >= MIN_SCORE && score <= MAX_SCORE, \"Score out of range\") */\n      tag_205\n        /* \"#utility.yul\":13235:13577   */\n      jump\n        /* \"CrossFi-Treasury-Guard/contracts/AIScoreRegistry.sol\":1926:1997  require(score >= MIN_SCORE && score <= MAX_SCORE, \"Score out of range\") */\n    tag_224:\n        /* \"@openzeppelin/contracts/security/Pausable.sol\":1239:1258  _requireNotPaused() */\n      tag_228\n        /* \"@openzeppelin/contracts/security/Pausable.sol\":1239:1256  _requireNotPaused */\n      tag_229\n        /* \"@openzeppelin/contracts/security/Pausable.sol\":1239:1258  _requireNotPaused() */\n      jump\t// in\n    tag_228:\n        /* \"CrossFi-Treasury-Guard/contracts/AIScoreRegistry.sol\":5729:5749  aiScores[proposalId] */\n      0x00\n      dup7\n      dup2\n      mstore\n        /* \"CrossFi-Treasury-Guard/contracts/AIScoreRegistry.sol\":5729:5737  aiScores */\n      0x03\n        /* \"CrossFi-Treasury-Guard/contracts/AIScoreRegistry.sol\":5729:5749  aiScores[proposalId] */\n      0x20\n      mstore\n      0x40\n      swap1\n      keccak256\n        /* \"CrossFi-Treasury-Guard/contracts/AIScoreRegistry.sol\":5729:5756  aiScores[proposalId].exists */\n      0x05\n      add\n      sload\n      shl(0xa0, 0x01)\n      swap1\n      div\n      0xff\n      and\n        /* \"CrossFi-Treasury-Guard/contracts/AIScoreRegistry.sol\":5721:5781  require(aiScores[proposalId].exists, \"Score does not exist\") */\n      tag_231\n      jumpi\n      mload(0x40)\n      shl(0xe5, 0x461bcd)\n      dup2\n      mstore\n      0x04\n      add\n      tag_205\n      swap1\n      tag_233\n      jump\t// in\n    tag_231:\n        /* \"CrossFi-Treasury-Guard/contracts/AIScoreRegistry.sol\":5799:5819  aiScores[proposalId] */\n      0x00\n      dup7\n      dup2\n      mstore\n        /* \"CrossFi-Treasury-Guard/contracts/AIScoreRegistry.sol\":5799:5807  aiScores */\n      0x03\n        /* \"CrossFi-Treasury-Guard/contracts/AIScoreRegistry.sol\":5799:5819  aiScores[proposalId] */\n      0x20\n      mstore\n      0x40\n      swap1\n      keccak256\n        /* \"CrossFi-Treasury-Guard/contracts/AIScoreRegistry.sol\":5799:5826  aiScores[proposalId].oracle */\n      0x05\n      add\n      sload\n      sub(shl(0xa0, 0x01), 0x01)\n      and\n        /* \"CrossFi-Treasury-Guard/contracts/AIScoreRegistry.sol\":5830:5840  msg.sender */\n      caller\n        /* \"CrossFi-Treasury-Guard/contracts/AIScoreRegistry.sol\":5799:5840  aiScores[proposalId].oracle == msg.sender */\n      eq\n        /* \"CrossFi-Treasury-Guard/contracts/AIScoreRegistry.sol\":5791:5864  require(aiScores[proposalId].oracle == msg.sender, \"Not original oracle\") */\n      tag_234\n      jumpi\n      mload(0x40)\n      shl(0xe5, 0x461bcd)\n      dup2\n      mstore\n        /* \"#utility.yul\":14133:14135   */\n      0x20\n        /* \"CrossFi-Treasury-Guard/contracts/AIScoreRegistry.sol\":5791:5864  require(aiScores[proposalId].oracle == msg.sender, \"Not original oracle\") */\n      0x04\n      dup3\n      add\n        /* \"#utility.yul\":14115:14136   */\n      mstore\n        /* \"#utility.yul\":14172:14174   */\n      0x13\n        /* \"#utility.yul\":14152:14170   */\n      0x24\n      dup3\n      add\n        /* \"#utility.yul\":14145:14175   */\n      mstore\n      shl(0x68, 0x4e6f74206f726967696e616c206f7261636c65)\n        /* \"#utility.yul\":14191:14209   */\n      0x44\n      dup3\n      add\n        /* \"#utility.yul\":14184:14233   */\n      mstore\n        /* \"#utility.yul\":14250:14268   */\n      0x64\n      add\n        /* \"CrossFi-Treasury-Guard/contracts/AIScoreRegistry.sol\":5791:5864  require(aiScores[proposalId].oracle == msg.sender, \"Not original oracle\") */\n      tag_205\n        /* \"#utility.yul\":13931:14274   */\n      jump\n        /* \"CrossFi-Treasury-Guard/contracts/AIScoreRegistry.sol\":5791:5864  require(aiScores[proposalId].oracle == msg.sender, \"Not original oracle\") */\n    tag_234:\n        /* \"CrossFi-Treasury-Guard/contracts/AIScoreRegistry.sol\":5914:5934  aiScores[proposalId] */\n      0x00\n      dup7\n      dup2\n      mstore\n        /* \"CrossFi-Treasury-Guard/contracts/AIScoreRegistry.sol\":5914:5922  aiScores */\n      0x03\n        /* \"CrossFi-Treasury-Guard/contracts/AIScoreRegistry.sol\":5914:5934  aiScores[proposalId] */\n      0x20\n      mstore\n      0x40\n      swap1\n      keccak256\n        /* \"CrossFi-Treasury-Guard/contracts/AIScoreRegistry.sol\":5914:5944  aiScores[proposalId].timestamp */\n      0x04\n      add\n      sload\n        /* \"CrossFi-Treasury-Guard/contracts/AIScoreRegistry.sol\":5914:5968  aiScores[proposalId].timestamp + SCORE_VALIDITY_PERIOD */\n      tag_237\n      swap1\n        /* \"CrossFi-Treasury-Guard/contracts/AIScoreRegistry.sol\":1353:1360  30 days */\n      0x278d00\n      swap1\n        /* \"CrossFi-Treasury-Guard/contracts/AIScoreRegistry.sol\":5914:5968  aiScores[proposalId].timestamp + SCORE_VALIDITY_PERIOD */\n      tag_238\n      jump\t// in\n    tag_237:\n        /* \"CrossFi-Treasury-Guard/contracts/AIScoreRegistry.sol\":5895:5910  block.timestamp */\n      timestamp\n        /* \"CrossFi-Treasury-Guard/contracts/AIScoreRegistry.sol\":5895:5968  block.timestamp <= aiScores[proposalId].timestamp + SCORE_VALIDITY_PERIOD */\n      gt\n      iszero\n        /* \"CrossFi-Treasury-Guard/contracts/AIScoreRegistry.sol\":5874:6015  require(... */\n      tag_239\n      jumpi\n      mload(0x40)\n      shl(0xe5, 0x461bcd)\n      dup2\n      mstore\n        /* \"#utility.yul\":14743:14745   */\n      0x20\n        /* \"CrossFi-Treasury-Guard/contracts/AIScoreRegistry.sol\":5874:6015  require(... */\n      0x04\n      dup3\n      add\n        /* \"#utility.yul\":14725:14746   */\n      mstore\n        /* \"#utility.yul\":14782:14784   */\n      0x15\n        /* \"#utility.yul\":14762:14780   */\n      0x24\n      dup3\n      add\n        /* \"#utility.yul\":14755:14785   */\n      mstore\n      shl(0x5a, 0x155c19185d19481c195c9a5bd908195e1c1a5c9959)\n        /* \"#utility.yul\":14801:14819   */\n      0x44\n      dup3\n      add\n        /* \"#utility.yul\":14794:14845   */\n      mstore\n        /* \"#utility.yul\":14862:14880   */\n      0x64\n      add\n        /* \"CrossFi-Treasury-Guard/contracts/AIScoreRegistry.sol\":5874:6015  require(... */\n      tag_205\n        /* \"#utility.yul\":14541:14886   */\n      jump\n        /* \"CrossFi-Treasury-Guard/contracts/AIScoreRegistry.sol\":5874:6015  require(... */\n    tag_239:\n        /* \"CrossFi-Treasury-Guard/contracts/AIScoreRegistry.sol\":6056:6057  0 */\n      0x00\n        /* \"CrossFi-Treasury-Guard/contracts/AIScoreRegistry.sol\":6039:6045  reason */\n      dup4\n        /* \"CrossFi-Treasury-Guard/contracts/AIScoreRegistry.sol\":6033:6053  bytes(reason).length */\n      mload\n        /* \"CrossFi-Treasury-Guard/contracts/AIScoreRegistry.sol\":6033:6057  bytes(reason).length > 0 */\n      gt\n        /* \"CrossFi-Treasury-Guard/contracts/AIScoreRegistry.sol\":6025:6084  require(bytes(reason).length > 0, \"Update reason required\") */\n      tag_242\n      jumpi\n      mload(0x40)\n      shl(0xe5, 0x461bcd)\n      dup2\n      mstore\n        /* \"#utility.yul\":15093:15095   */\n      0x20\n        /* \"CrossFi-Treasury-Guard/contracts/AIScoreRegistry.sol\":6025:6084  require(bytes(reason).length > 0, \"Update reason required\") */\n      0x04\n      dup3\n      add\n        /* \"#utility.yul\":15075:15096   */\n      mstore\n        /* \"#utility.yul\":15132:15134   */\n      0x16\n        /* \"#utility.yul\":15112:15130   */\n      0x24\n      dup3\n      add\n        /* \"#utility.yul\":15105:15135   */\n      mstore\n      shl(0x52, 0x155c19185d19481c99585cdbdb881c995c5d5a5c9959)\n        /* \"#utility.yul\":15151:15169   */\n      0x44\n      dup3\n      add\n        /* \"#utility.yul\":15144:15196   */\n      mstore\n        /* \"#utility.yul\":15213:15231   */\n      0x64\n      add\n        /* \"CrossFi-Treasury-Guard/contracts/AIScoreRegistry.sol\":6025:6084  require(bytes(reason).length > 0, \"Update reason required\") */\n      tag_205\n        /* \"#utility.yul\":14891:15237   */\n      jump\n        /* \"CrossFi-Treasury-Guard/contracts/AIScoreRegistry.sol\":6025:6084  require(bytes(reason).length > 0, \"Update reason required\") */\n    tag_242:\n        /* \"CrossFi-Treasury-Guard/contracts/AIScoreRegistry.sol\":6103:6123  aiScores[proposalId] */\n      0x00\n      dup7\n      dup2\n      mstore\n        /* \"CrossFi-Treasury-Guard/contracts/AIScoreRegistry.sol\":6103:6111  aiScores */\n      0x03\n        /* \"CrossFi-Treasury-Guard/contracts/AIScoreRegistry.sol\":6103:6123  aiScores[proposalId] */\n      0x20\n      mstore\n      0x40\n      swap1\n      keccak256\n        /* \"CrossFi-Treasury-Guard/contracts/AIScoreRegistry.sol\":6103:6136  aiScores[proposalId].overallScore */\n      0x01\n      dup2\n      add\n        /* \"CrossFi-Treasury-Guard/contracts/AIScoreRegistry.sol\":6103:6147  aiScores[proposalId].overallScore = newScore */\n      dup7\n      swap1\n      sstore\n        /* \"CrossFi-Treasury-Guard/contracts/AIScoreRegistry.sol\":6157:6195  aiScores[proposalId].justificationIPFS */\n      0x02\n      add\n        /* \"CrossFi-Treasury-Guard/contracts/AIScoreRegistry.sol\":6157:6218  aiScores[proposalId].justificationIPFS = newJustificationIPFS */\n      tag_245\n        /* \"CrossFi-Treasury-Guard/contracts/AIScoreRegistry.sol\":6198:6218  newJustificationIPFS */\n      dup6\n        /* \"CrossFi-Treasury-Guard/contracts/AIScoreRegistry.sol\":6157:6195  aiScores[proposalId].justificationIPFS */\n      dup3\n        /* \"CrossFi-Treasury-Guard/contracts/AIScoreRegistry.sol\":6157:6218  aiScores[proposalId].justificationIPFS = newJustificationIPFS */\n      tag_246\n      jump\t// in\n    tag_245:\n      pop\n        /* \"CrossFi-Treasury-Guard/contracts/AIScoreRegistry.sol\":6228:6248  aiScores[proposalId] */\n      0x00\n      dup7\n      dup2\n      mstore\n        /* \"CrossFi-Treasury-Guard/contracts/AIScoreRegistry.sol\":6228:6236  aiScores */\n      0x03\n        /* \"CrossFi-Treasury-Guard/contracts/AIScoreRegistry.sol\":6228:6248  aiScores[proposalId] */\n      0x20\n      mstore\n      0x40\n      swap1\n      dup2\n      swap1\n      keccak256\n        /* \"CrossFi-Treasury-Guard/contracts/AIScoreRegistry.sol\":6261:6276  block.timestamp */\n      timestamp\n        /* \"CrossFi-Treasury-Guard/contracts/AIScoreRegistry.sol\":6228:6258  aiScores[proposalId].timestamp */\n      0x04\n      swap1\n      swap2\n      add\n        /* \"CrossFi-Treasury-Guard/contracts/AIScoreRegistry.sol\":6228:6276  aiScores[proposalId].timestamp = block.timestamp */\n      sstore\n        /* \"CrossFi-Treasury-Guard/contracts/AIScoreRegistry.sol\":6300:6342  ScoreUpdated(proposalId, newScore, reason) */\n      mload\n        /* \"CrossFi-Treasury-Guard/contracts/AIScoreRegistry.sol\":6237:6247  proposalId */\n      dup7\n      swap1\n        /* \"CrossFi-Treasury-Guard/contracts/AIScoreRegistry.sol\":6300:6342  ScoreUpdated(proposalId, newScore, reason) */\n      0xd3e8dbbe8ff60a1fae1e5f88e71f27270ed38badc7b26e19922ed94fd12f5fe9\n      swap1\n      tag_247\n      swap1\n        /* \"CrossFi-Treasury-Guard/contracts/AIScoreRegistry.sol\":6325:6333  newScore */\n      dup9\n      swap1\n        /* \"CrossFi-Treasury-Guard/contracts/AIScoreRegistry.sol\":6335:6341  reason */\n      dup8\n      swap1\n        /* \"CrossFi-Treasury-Guard/contracts/AIScoreRegistry.sol\":6300:6342  ScoreUpdated(proposalId, newScore, reason) */\n      tag_248\n      jump\t// in\n    tag_247:\n      mload(0x40)\n      dup1\n      swap2\n      sub\n      swap1\n      log2\n        /* \"CrossFi-Treasury-Guard/contracts/AIScoreRegistry.sol\":2136:2137  _ */\n      pop\n        /* \"CrossFi-Treasury-Guard/contracts/AIScoreRegistry.sol\":1867:1868  _ */\n      pop\n        /* \"CrossFi-Treasury-Guard/contracts/AIScoreRegistry.sol\":5461:6349  function updateAIScore(... */\n      pop\n      pop\n      pop\n      pop\n      jump\t// out\n        /* \"@openzeppelin/contracts/access/AccessControl.sol\":4202:4338  function grantRole(bytes32 role, address account) public virtual onlyRole(getRoleAdmin(role)) {... */\n    tag_83:\n        /* \"@openzeppelin/contracts/access/AccessControl.sol\":3851:3858  bytes32 */\n      0x00\n        /* \"@openzeppelin/contracts/access/AccessControl.sol\":3877:3889  _roles[role] */\n      dup3\n      dup2\n      mstore\n      0x20\n      dup2\n      swap1\n      mstore\n      0x40\n      swap1\n      keccak256\n        /* \"@openzeppelin/contracts/access/AccessControl.sol\":3877:3899  _roles[role].adminRole */\n      0x01\n      add\n      sload\n        /* \"@openzeppelin/contracts/access/AccessControl.sol\":2473:2489  _checkRole(role) */\n      tag_251\n        /* \"@openzeppelin/contracts/access/AccessControl.sol\":2484:2488  role */\n      dup2\n        /* \"@openzeppelin/contracts/access/AccessControl.sol\":2473:2483  _checkRole */\n      tag_252\n        /* \"@openzeppelin/contracts/access/AccessControl.sol\":2473:2489  _checkRole(role) */\n      jump\t// in\n    tag_251:\n        /* \"@openzeppelin/contracts/access/AccessControl.sol\":4306:4331  _grantRole(role, account) */\n      tag_254\n        /* \"@openzeppelin/contracts/access/AccessControl.sol\":4317:4321  role */\n      dup4\n        /* \"@openzeppelin/contracts/access/AccessControl.sol\":4323:4330  account */\n      dup4\n        /* \"@openzeppelin/contracts/access/AccessControl.sol\":4306:4316  _grantRole */\n      tag_255\n        /* \"@openzeppelin/contracts/access/AccessControl.sol\":4306:4331  _grantRole(role, account) */\n      jump\t// in\n    tag_254:\n      pop\n        /* \"@openzeppelin/contracts/access/AccessControl.sol\":4202:4338  function grantRole(bytes32 role, address account) public virtual onlyRole(getRoleAdmin(role)) {... */\n      pop\n      pop\n      pop\n      jump\t// out\n        /* \"@openzeppelin/contracts/access/AccessControl.sol\":5304:5549  function renounceRole(bytes32 role, address callerConfirmation) public virtual {... */\n    tag_86:\n      sub(shl(0xa0, 0x01), 0x01)\n        /* \"@openzeppelin/contracts/access/AccessControl.sol\":5397:5431  callerConfirmation != _msgSender() */\n      dup2\n      and\n        /* \"@openzeppelin/contracts/utils/Context.sol\":735:745  msg.sender */\n      caller\n        /* \"@openzeppelin/contracts/access/AccessControl.sol\":5397:5431  callerConfirmation != _msgSender() */\n      eq\n        /* \"@openzeppelin/contracts/access/AccessControl.sol\":5393:5495  if (callerConfirmation != _msgSender()) {... */\n      tag_259\n      jumpi\n        /* \"@openzeppelin/contracts/access/AccessControl.sol\":5454:5484  AccessControlBadConfirmation() */\n      mload(0x40)\n      shl(0xe1, 0x334bd919)\n      dup2\n      mstore\n      0x04\n      add\n      mload(0x40)\n      dup1\n      swap2\n      sub\n      swap1\n      revert\n        /* \"@openzeppelin/contracts/access/AccessControl.sol\":5393:5495  if (callerConfirmation != _msgSender()) {... */\n    tag_259:\n        /* \"@openzeppelin/contracts/access/AccessControl.sol\":5505:5542  _revokeRole(role, callerConfirmation) */\n      tag_260\n        /* \"@openzeppelin/contracts/access/AccessControl.sol\":5517:5521  role */\n      dup3\n        /* \"@openzeppelin/contracts/access/AccessControl.sol\":5523:5541  callerConfirmation */\n      dup3\n        /* \"@openzeppelin/contracts/access/AccessControl.sol\":5505:5516  _revokeRole */\n      tag_261\n        /* \"@openzeppelin/contracts/access/AccessControl.sol\":5505:5542  _revokeRole(role, callerConfirmation) */\n      jump\t// in\n    tag_260:\n      pop\n        /* \"@openzeppelin/contracts/access/AccessControl.sol\":5304:5549  function renounceRole(bytes32 role, address callerConfirmation) public virtual {... */\n      pop\n      pop\n      jump\t// out\n        /* \"CrossFi-Treasury-Guard/contracts/AIScoreRegistry.sol\":10710:10786  function unpause() external onlyRole(ADMIN_ROLE) {... */\n    tag_91:\n      0x00\n      dup1\n      mload\n      0x20\n      data_cb864c43dd5d441bb6271f424f11befa622c032dfd374d226e26fbbdb782b8f8\n      dup4\n      codecopy\n      dup2\n      mload\n      swap2\n      mstore\n        /* \"@openzeppelin/contracts/access/AccessControl.sol\":2473:2489  _checkRole(role) */\n      tag_263\n        /* \"@openzeppelin/contracts/access/AccessControl.sol\":2484:2488  role */\n      dup2\n        /* \"@openzeppelin/contracts/access/AccessControl.sol\":2473:2483  _checkRole */\n      tag_252\n        /* \"@openzeppelin/contracts/access/AccessControl.sol\":2473:2489  _checkRole(role) */\n      jump\t// in\n    tag_263:\n        /* \"CrossFi-Treasury-Guard/contracts/AIScoreRegistry.sol\":10769:10779  _unpause() */\n      tag_265\n        /* \"CrossFi-Treasury-Guard/contracts/AIScoreRegistry.sol\":10769:10777  _unpause */\n      tag_266\n        /* \"CrossFi-Treasury-Guard/contracts/AIScoreRegistry.sol\":10769:10779  _unpause() */\n      jump\t// in\n    tag_265:\n        /* \"CrossFi-Treasury-Guard/contracts/AIScoreRegistry.sol\":10710:10786  function unpause() external onlyRole(ADMIN_ROLE) {... */\n      pop\n      jump\t// out\n        /* \"CrossFi-Treasury-Guard/contracts/utils/ExtendedAccessControl.sol\":1352:1573  function revokeMultipleRoles(address account, bytes32[] memory roles) external onlyRole(DEFAULT_ADMIN_ROLE) {... */\n    tag_102:\n        /* \"@openzeppelin/contracts/access/AccessControl.sol\":2241:2245  0x00 */\n      0x00\n        /* \"@openzeppelin/contracts/access/AccessControl.sol\":2473:2489  _checkRole(role) */\n      tag_268\n        /* \"@openzeppelin/contracts/access/AccessControl.sol\":2241:2245  0x00 */\n      dup2\n        /* \"@openzeppelin/contracts/access/AccessControl.sol\":2473:2483  _checkRole */\n      tag_252\n        /* \"@openzeppelin/contracts/access/AccessControl.sol\":2473:2489  _checkRole(role) */\n      jump\t// in\n    tag_268:\n        /* \"CrossFi-Treasury-Guard/contracts/utils/ExtendedAccessControl.sol\":1475:1484  uint256 i */\n      0x00\n        /* \"CrossFi-Treasury-Guard/contracts/utils/ExtendedAccessControl.sol\":1470:1567  for (uint256 i = 0; i < roles.length; i++) {... */\n    tag_270:\n        /* \"CrossFi-Treasury-Guard/contracts/utils/ExtendedAccessControl.sol\":1494:1499  roles */\n      dup3\n        /* \"CrossFi-Treasury-Guard/contracts/utils/ExtendedAccessControl.sol\":1494:1506  roles.length */\n      mload\n        /* \"CrossFi-Treasury-Guard/contracts/utils/ExtendedAccessControl.sol\":1490:1491  i */\n      dup2\n        /* \"CrossFi-Treasury-Guard/contracts/utils/ExtendedAccessControl.sol\":1490:1506  i < roles.length */\n      lt\n        /* \"CrossFi-Treasury-Guard/contracts/utils/ExtendedAccessControl.sol\":1470:1567  for (uint256 i = 0; i < roles.length; i++) {... */\n      iszero\n      tag_254\n      jumpi\n        /* \"CrossFi-Treasury-Guard/contracts/utils/ExtendedAccessControl.sol\":1527:1556  revokeRole(roles[i], account) */\n      tag_273\n        /* \"CrossFi-Treasury-Guard/contracts/utils/ExtendedAccessControl.sol\":1538:1543  roles */\n      dup4\n        /* \"CrossFi-Treasury-Guard/contracts/utils/ExtendedAccessControl.sol\":1544:1545  i */\n      dup3\n        /* \"CrossFi-Treasury-Guard/contracts/utils/ExtendedAccessControl.sol\":1538:1546  roles[i] */\n      dup2\n      mload\n      dup2\n      lt\n      tag_275\n      jumpi\n      tag_275\n      tag_276\n      jump\t// in\n    tag_275:\n      0x20\n      mul\n      0x20\n      add\n      add\n      mload\n        /* \"CrossFi-Treasury-Guard/contracts/utils/ExtendedAccessControl.sol\":1548:1555  account */\n      dup6\n        /* \"CrossFi-Treasury-Guard/contracts/utils/ExtendedAccessControl.sol\":1527:1537  revokeRole */\n      tag_178\n        /* \"CrossFi-Treasury-Guard/contracts/utils/ExtendedAccessControl.sol\":1527:1556  revokeRole(roles[i], account) */\n      jump\t// in\n    tag_273:\n        /* \"CrossFi-Treasury-Guard/contracts/utils/ExtendedAccessControl.sol\":1508:1511  i++ */\n      dup1\n      tag_277\n      dup2\n      tag_278\n      jump\t// in\n    tag_277:\n      swap2\n      pop\n      pop\n        /* \"CrossFi-Treasury-Guard/contracts/utils/ExtendedAccessControl.sol\":1470:1567  for (uint256 i = 0; i < roles.length; i++) {... */\n      jump(tag_270)\n        /* \"CrossFi-Treasury-Guard/contracts/utils/ExtendedAccessControl.sol\":1816:2087  function hasAnyRole(address account, bytes32[] memory roles) external view returns (bool) {... */\n    tag_113:\n        /* \"CrossFi-Treasury-Guard/contracts/utils/ExtendedAccessControl.sol\":1900:1904  bool */\n      0x00\n      dup1\n        /* \"CrossFi-Treasury-Guard/contracts/utils/ExtendedAccessControl.sol\":1916:2059  for (uint256 i = 0; i < roles.length; i++) {... */\n    tag_281:\n        /* \"CrossFi-Treasury-Guard/contracts/utils/ExtendedAccessControl.sol\":1940:1945  roles */\n      dup3\n        /* \"CrossFi-Treasury-Guard/contracts/utils/ExtendedAccessControl.sol\":1940:1952  roles.length */\n      mload\n        /* \"CrossFi-Treasury-Guard/contracts/utils/ExtendedAccessControl.sol\":1936:1937  i */\n      dup2\n        /* \"CrossFi-Treasury-Guard/contracts/utils/ExtendedAccessControl.sol\":1936:1952  i < roles.length */\n      lt\n        /* \"CrossFi-Treasury-Guard/contracts/utils/ExtendedAccessControl.sol\":1916:2059  for (uint256 i = 0; i < roles.length; i++) {... */\n      iszero\n      tag_282\n      jumpi\n        /* \"CrossFi-Treasury-Guard/contracts/utils/ExtendedAccessControl.sol\":1977:2003  hasRole(roles[i], account) */\n      tag_284\n        /* \"CrossFi-Treasury-Guard/contracts/utils/ExtendedAccessControl.sol\":1985:1990  roles */\n      dup4\n        /* \"CrossFi-Treasury-Guard/contracts/utils/ExtendedAccessControl.sol\":1991:1992  i */\n      dup3\n        /* \"CrossFi-Treasury-Guard/contracts/utils/ExtendedAccessControl.sol\":1985:1993  roles[i] */\n      dup2\n      mload\n      dup2\n      lt\n      tag_286\n      jumpi\n      tag_286\n      tag_276\n      jump\t// in\n    tag_286:\n      0x20\n      mul\n      0x20\n      add\n      add\n      mload\n        /* \"CrossFi-Treasury-Guard/contracts/utils/ExtendedAccessControl.sol\":1995:2002  account */\n      dup6\n        /* \"CrossFi-Treasury-Guard/contracts/utils/ExtendedAccessControl.sol\":1977:1984  hasRole */\n      tag_133\n        /* \"CrossFi-Treasury-Guard/contracts/utils/ExtendedAccessControl.sol\":1977:2003  hasRole(roles[i], account) */\n      jump\t// in\n    tag_284:\n        /* \"CrossFi-Treasury-Guard/contracts/utils/ExtendedAccessControl.sol\":1973:2049  if (hasRole(roles[i], account)) {... */\n      iszero\n      tag_287\n      jumpi\n        /* \"CrossFi-Treasury-Guard/contracts/utils/ExtendedAccessControl.sol\":2030:2034  true */\n      0x01\n        /* \"CrossFi-Treasury-Guard/contracts/utils/ExtendedAccessControl.sol\":2023:2034  return true */\n      swap2\n      pop\n      pop\n      jump(tag_201)\n        /* \"CrossFi-Treasury-Guard/contracts/utils/ExtendedAccessControl.sol\":1973:2049  if (hasRole(roles[i], account)) {... */\n    tag_287:\n        /* \"CrossFi-Treasury-Guard/contracts/utils/ExtendedAccessControl.sol\":1954:1957  i++ */\n      dup1\n      tag_288\n      dup2\n      tag_278\n      jump\t// in\n    tag_288:\n      swap2\n      pop\n      pop\n        /* \"CrossFi-Treasury-Guard/contracts/utils/ExtendedAccessControl.sol\":1916:2059  for (uint256 i = 0; i < roles.length; i++) {... */\n      jump(tag_281)\n    tag_282:\n      pop\n        /* \"CrossFi-Treasury-Guard/contracts/utils/ExtendedAccessControl.sol\":2075:2080  false */\n      0x00\n      swap4\n        /* \"CrossFi-Treasury-Guard/contracts/utils/ExtendedAccessControl.sol\":1816:2087  function hasAnyRole(address account, bytes32[] memory roles) external view returns (bool) {... */\n      swap3\n      pop\n      pop\n      pop\n      jump\t// out\n        /* \"CrossFi-Treasury-Guard/contracts/AIScoreRegistry.sol\":3054:5175  function submitAIScore(... */\n    tag_118:\n        /* \"CrossFi-Treasury-Guard/contracts/AIScoreRegistry.sol\":1820:1830  msg.sender */\n      caller\n        /* \"CrossFi-Treasury-Guard/contracts/AIScoreRegistry.sol\":1802:1831  authorizedOracles[msg.sender] */\n      0x00\n      swap1\n      dup2\n      mstore\n        /* \"CrossFi-Treasury-Guard/contracts/AIScoreRegistry.sol\":1802:1819  authorizedOracles */\n      0x04\n        /* \"CrossFi-Treasury-Guard/contracts/AIScoreRegistry.sol\":1802:1831  authorizedOracles[msg.sender] */\n      0x20\n      mstore\n      0x40\n      swap1\n      keccak256\n      sload\n      0xff\n      and\n        /* \"CrossFi-Treasury-Guard/contracts/AIScoreRegistry.sol\":1794:1857  require(authorizedOracles[msg.sender], \"Not authorized oracle\") */\n      tag_290\n      jumpi\n      mload(0x40)\n      shl(0xe5, 0x461bcd)\n      dup2\n      mstore\n        /* \"#utility.yul\":13087:13089   */\n      0x20\n        /* \"CrossFi-Treasury-Guard/contracts/AIScoreRegistry.sol\":1794:1857  require(authorizedOracles[msg.sender], \"Not authorized oracle\") */\n      0x04\n      dup3\n      add\n        /* \"#utility.yul\":13069:13090   */\n      mstore\n        /* \"#utility.yul\":13126:13128   */\n      0x15\n        /* \"#utility.yul\":13106:13124   */\n      0x24\n      dup3\n      add\n        /* \"#utility.yul\":13099:13129   */\n      mstore\n      shl(0x58, 0x4e6f7420617574686f72697a6564206f7261636c65)\n        /* \"#utility.yul\":13145:13163   */\n      0x44\n      dup3\n      add\n        /* \"#utility.yul\":13138:13189   */\n      mstore\n        /* \"#utility.yul\":13206:13224   */\n      0x64\n      add\n        /* \"CrossFi-Treasury-Guard/contracts/AIScoreRegistry.sol\":1794:1857  require(authorizedOracles[msg.sender], \"Not authorized oracle\") */\n      tag_205\n        /* \"#utility.yul\":12885:13230   */\n      jump\n        /* \"CrossFi-Treasury-Guard/contracts/AIScoreRegistry.sol\":1794:1857  require(authorizedOracles[msg.sender], \"Not authorized oracle\") */\n    tag_290:\n        /* \"CrossFi-Treasury-Guard/contracts/AIScoreRegistry.sol\":3316:3326  proposalId */\n      dup5\n        /* \"CrossFi-Treasury-Guard/contracts/AIScoreRegistry.sol\":2101:2102  0 */\n      0x00\n        /* \"CrossFi-Treasury-Guard/contracts/AIScoreRegistry.sol\":2088:2098  proposalId */\n      dup2\n        /* \"CrossFi-Treasury-Guard/contracts/AIScoreRegistry.sol\":2088:2102  proposalId > 0 */\n      gt\n        /* \"CrossFi-Treasury-Guard/contracts/AIScoreRegistry.sol\":2080:2126  require(proposalId > 0, \"Invalid proposal ID\") */\n      tag_293\n      jumpi\n      mload(0x40)\n      shl(0xe5, 0x461bcd)\n      dup2\n      mstore\n      0x04\n      add\n      tag_205\n      swap1\n      tag_206\n      jump\t// in\n    tag_293:\n        /* \"CrossFi-Treasury-Guard/contracts/AIScoreRegistry.sol\":3339:3351  overallScore */\n      dup5\n        /* \"CrossFi-Treasury-Guard/contracts/AIScoreRegistry.sol\":1296:1299  100 */\n      0x64\n        /* \"CrossFi-Treasury-Guard/contracts/AIScoreRegistry.sol\":1956:1961  score */\n      dup2\n        /* \"CrossFi-Treasury-Guard/contracts/AIScoreRegistry.sol\":1956:1974  score <= MAX_SCORE */\n      gt\n      iszero\n        /* \"CrossFi-Treasury-Guard/contracts/AIScoreRegistry.sol\":1926:1997  require(score >= MIN_SCORE && score <= MAX_SCORE, \"Score out of range\") */\n      tag_297\n      jumpi\n      mload(0x40)\n      shl(0xe5, 0x461bcd)\n      dup2\n      mstore\n        /* \"#utility.yul\":13437:13439   */\n      0x20\n        /* \"CrossFi-Treasury-Guard/contracts/AIScoreRegistry.sol\":1926:1997  require(score >= MIN_SCORE && score <= MAX_SCORE, \"Score out of range\") */\n      0x04\n      dup3\n      add\n        /* \"#utility.yul\":13419:13440   */\n      mstore\n        /* \"#utility.yul\":13476:13478   */\n      0x12\n        /* \"#utility.yul\":13456:13474   */\n      0x24\n      dup3\n      add\n        /* \"#utility.yul\":13449:13479   */\n      mstore\n      shl(0x70, 0x53636f7265206f7574206f662072616e6765)\n        /* \"#utility.yul\":13495:13513   */\n      0x44\n      dup3\n      add\n        /* \"#utility.yul\":13488:13536   */\n      mstore\n        /* \"#utility.yul\":13553:13571   */\n      0x64\n      add\n        /* \"CrossFi-Treasury-Guard/contracts/AIScoreRegistry.sol\":1926:1997  require(score >= MIN_SCORE && score <= MAX_SCORE, \"Score out of range\") */\n      tag_205\n        /* \"#utility.yul\":13235:13577   */\n      jump\n        /* \"CrossFi-Treasury-Guard/contracts/AIScoreRegistry.sol\":1926:1997  require(score >= MIN_SCORE && score <= MAX_SCORE, \"Score out of range\") */\n    tag_297:\n        /* \"@openzeppelin/contracts/security/Pausable.sol\":1239:1258  _requireNotPaused() */\n      tag_300\n        /* \"@openzeppelin/contracts/security/Pausable.sol\":1239:1256  _requireNotPaused */\n      tag_229\n        /* \"@openzeppelin/contracts/security/Pausable.sol\":1239:1258  _requireNotPaused() */\n      jump\t// in\n    tag_300:\n        /* \"@openzeppelin/contracts/security/ReentrancyGuard.sol\":2261:2282  _nonReentrantBefore() */\n      tag_302\n        /* \"@openzeppelin/contracts/security/ReentrancyGuard.sol\":2261:2280  _nonReentrantBefore */\n      tag_303\n        /* \"@openzeppelin/contracts/security/ReentrancyGuard.sol\":2261:2282  _nonReentrantBefore() */\n      jump\t// in\n    tag_302:\n        /* \"CrossFi-Treasury-Guard/contracts/AIScoreRegistry.sol\":3432:3433  0 */\n      0x00\n        /* \"CrossFi-Treasury-Guard/contracts/AIScoreRegistry.sol\":3404:3421  justificationIPFS */\n      dup6\n        /* \"CrossFi-Treasury-Guard/contracts/AIScoreRegistry.sol\":3398:3429  bytes(justificationIPFS).length */\n      mload\n        /* \"CrossFi-Treasury-Guard/contracts/AIScoreRegistry.sol\":3398:3433  bytes(justificationIPFS).length > 0 */\n      gt\n        /* \"CrossFi-Treasury-Guard/contracts/AIScoreRegistry.sol\":3390:3465  require(bytes(justificationIPFS).length > 0, \"Justification IPFS required\") */\n      tag_305\n      jumpi\n      mload(0x40)\n      shl(0xe5, 0x461bcd)\n      dup2\n      mstore\n        /* \"#utility.yul\":18216:18218   */\n      0x20\n        /* \"CrossFi-Treasury-Guard/contracts/AIScoreRegistry.sol\":3390:3465  require(bytes(justificationIPFS).length > 0, \"Justification IPFS required\") */\n      0x04\n      dup3\n      add\n        /* \"#utility.yul\":18198:18219   */\n      mstore\n        /* \"#utility.yul\":18255:18257   */\n      0x1b\n        /* \"#utility.yul\":18235:18253   */\n      0x24\n      dup3\n      add\n        /* \"#utility.yul\":18228:18258   */\n      mstore\n        /* \"#utility.yul\":18294:18323   */\n      0x4a757374696669636174696f6e20495046532072657175697265640000000000\n        /* \"#utility.yul\":18274:18292   */\n      0x44\n      dup3\n      add\n        /* \"#utility.yul\":18267:18324   */\n      mstore\n        /* \"#utility.yul\":18341:18359   */\n      0x64\n      add\n        /* \"CrossFi-Treasury-Guard/contracts/AIScoreRegistry.sol\":3390:3465  require(bytes(justificationIPFS).length > 0, \"Justification IPFS required\") */\n      tag_205\n        /* \"#utility.yul\":18014:18365   */\n      jump\n        /* \"CrossFi-Treasury-Guard/contracts/AIScoreRegistry.sol\":3390:3465  require(bytes(justificationIPFS).length > 0, \"Justification IPFS required\") */\n    tag_305:\n        /* \"CrossFi-Treasury-Guard/contracts/AIScoreRegistry.sol\":3483:3498  supportedModels */\n      0x05\n        /* \"CrossFi-Treasury-Guard/contracts/AIScoreRegistry.sol\":3499:3511  modelVersion */\n      dup5\n        /* \"CrossFi-Treasury-Guard/contracts/AIScoreRegistry.sol\":3483:3512  supportedModels[modelVersion] */\n      mload(0x40)\n      tag_308\n      swap2\n      swap1\n      tag_309\n      jump\t// in\n    tag_308:\n      swap1\n      dup2\n      mstore\n      mload(0x40)\n      swap1\n      dup2\n      swap1\n      sub\n      0x20\n      add\n      swap1\n      keccak256\n      sload\n      0xff\n      and\n        /* \"CrossFi-Treasury-Guard/contracts/AIScoreRegistry.sol\":3475:3537  require(supportedModels[modelVersion], \"Unsupported AI model\") */\n      tag_310\n      jumpi\n      mload(0x40)\n      shl(0xe5, 0x461bcd)\n      dup2\n      mstore\n        /* \"#utility.yul\":18866:18868   */\n      0x20\n        /* \"CrossFi-Treasury-Guard/contracts/AIScoreRegistry.sol\":3475:3537  require(supportedModels[modelVersion], \"Unsupported AI model\") */\n      0x04\n      dup3\n      add\n        /* \"#utility.yul\":18848:18869   */\n      mstore\n        /* \"#utility.yul\":18905:18907   */\n      0x14\n        /* \"#utility.yul\":18885:18903   */\n      0x24\n      dup3\n      add\n        /* \"#utility.yul\":18878:18908   */\n      mstore\n      shl(0x62, 0x155b9cdd5c1c1bdc9d1959081052481b5bd9195b)\n        /* \"#utility.yul\":18924:18942   */\n      0x44\n      dup3\n      add\n        /* \"#utility.yul\":18917:18967   */\n      mstore\n        /* \"#utility.yul\":18984:19002   */\n      0x64\n      add\n        /* \"CrossFi-Treasury-Guard/contracts/AIScoreRegistry.sol\":3475:3537  require(supportedModels[modelVersion], \"Unsupported AI model\") */\n      tag_205\n        /* \"#utility.yul\":18664:19008   */\n      jump\n        /* \"CrossFi-Treasury-Guard/contracts/AIScoreRegistry.sol\":3475:3537  require(supportedModels[modelVersion], \"Unsupported AI model\") */\n    tag_310:\n        /* \"CrossFi-Treasury-Guard/contracts/AIScoreRegistry.sol\":3556:3576  aiScores[proposalId] */\n      0x00\n      dup8\n      dup2\n      mstore\n        /* \"CrossFi-Treasury-Guard/contracts/AIScoreRegistry.sol\":3556:3564  aiScores */\n      0x03\n        /* \"CrossFi-Treasury-Guard/contracts/AIScoreRegistry.sol\":3556:3576  aiScores[proposalId] */\n      0x20\n      mstore\n      0x40\n      swap1\n      keccak256\n        /* \"CrossFi-Treasury-Guard/contracts/AIScoreRegistry.sol\":3556:3583  aiScores[proposalId].exists */\n      0x05\n      add\n      sload\n      shl(0xa0, 0x01)\n      swap1\n      div\n      0xff\n      and\n        /* \"CrossFi-Treasury-Guard/contracts/AIScoreRegistry.sol\":3555:3583  !aiScores[proposalId].exists */\n      iszero\n        /* \"CrossFi-Treasury-Guard/contracts/AIScoreRegistry.sol\":3547:3608  require(!aiScores[proposalId].exists, \"Score already exists\") */\n      tag_313\n      jumpi\n      mload(0x40)\n      shl(0xe5, 0x461bcd)\n      dup2\n      mstore\n        /* \"#utility.yul\":19215:19217   */\n      0x20\n        /* \"CrossFi-Treasury-Guard/contracts/AIScoreRegistry.sol\":3547:3608  require(!aiScores[proposalId].exists, \"Score already exists\") */\n      0x04\n      dup3\n      add\n        /* \"#utility.yul\":19197:19218   */\n      mstore\n        /* \"#utility.yul\":19254:19256   */\n      0x14\n        /* \"#utility.yul\":19234:19252   */\n      0x24\n      dup3\n      add\n        /* \"#utility.yul\":19227:19257   */\n      mstore\n      shl(0x60, 0x53636f726520616c726561647920657869737473)\n        /* \"#utility.yul\":19273:19291   */\n      0x44\n      dup3\n      add\n        /* \"#utility.yul\":19266:19316   */\n      mstore\n        /* \"#utility.yul\":19333:19351   */\n      0x64\n      add\n        /* \"CrossFi-Treasury-Guard/contracts/AIScoreRegistry.sol\":3547:3608  require(!aiScores[proposalId].exists, \"Score already exists\") */\n      tag_205\n        /* \"#utility.yul\":19013:19357   */\n      jump\n        /* \"CrossFi-Treasury-Guard/contracts/AIScoreRegistry.sol\":3547:3608  require(!aiScores[proposalId].exists, \"Score already exists\") */\n    tag_313:\n        /* \"CrossFi-Treasury-Guard/contracts/AIScoreRegistry.sol\":3713:3716  100 */\n      0x64\n        /* \"CrossFi-Treasury-Guard/contracts/AIScoreRegistry.sol\":3685:3694  breakdown */\n      dup4\n        /* \"CrossFi-Treasury-Guard/contracts/AIScoreRegistry.sol\":3685:3709  breakdown.ecosystemScore */\n      0x00\n      add\n      mload\n        /* \"CrossFi-Treasury-Guard/contracts/AIScoreRegistry.sol\":3685:3716  breakdown.ecosystemScore <= 100 */\n      0xff\n      and\n      gt\n      iszero\n        /* \"CrossFi-Treasury-Guard/contracts/AIScoreRegistry.sol\":3685:3765  breakdown.ecosystemScore <= 100 &&... */\n      dup1\n      iszero\n      tag_316\n      jumpi\n      pop\n        /* \"CrossFi-Treasury-Guard/contracts/AIScoreRegistry.sol\":3762:3765  100 */\n      0x64\n        /* \"CrossFi-Treasury-Guard/contracts/AIScoreRegistry.sol\":3732:3741  breakdown */\n      dup4\n        /* \"CrossFi-Treasury-Guard/contracts/AIScoreRegistry.sol\":3732:3758  breakdown.feasibilityScore */\n      0x20\n      add\n      mload\n        /* \"CrossFi-Treasury-Guard/contracts/AIScoreRegistry.sol\":3732:3765  breakdown.feasibilityScore <= 100 */\n      0xff\n      and\n      gt\n      iszero\n        /* \"CrossFi-Treasury-Guard/contracts/AIScoreRegistry.sol\":3685:3765  breakdown.ecosystemScore <= 100 &&... */\n    tag_316:\n        /* \"CrossFi-Treasury-Guard/contracts/AIScoreRegistry.sol\":3685:3807  breakdown.ecosystemScore <= 100 &&... */\n      dup1\n      iszero\n      tag_317\n      jumpi\n      pop\n        /* \"CrossFi-Treasury-Guard/contracts/AIScoreRegistry.sol\":3804:3807  100 */\n      0x64\n        /* \"CrossFi-Treasury-Guard/contracts/AIScoreRegistry.sol\":3781:3790  breakdown */\n      dup4\n        /* \"CrossFi-Treasury-Guard/contracts/AIScoreRegistry.sol\":3781:3800  breakdown.riskScore */\n      0x40\n      add\n      mload\n        /* \"CrossFi-Treasury-Guard/contracts/AIScoreRegistry.sol\":3781:3807  breakdown.riskScore <= 100 */\n      0xff\n      and\n      gt\n      iszero\n        /* \"CrossFi-Treasury-Guard/contracts/AIScoreRegistry.sol\":3685:3807  breakdown.ecosystemScore <= 100 &&... */\n    tag_317:\n        /* \"CrossFi-Treasury-Guard/contracts/AIScoreRegistry.sol\":3685:3849  breakdown.ecosystemScore <= 100 &&... */\n      dup1\n      iszero\n      tag_318\n      jumpi\n      pop\n        /* \"CrossFi-Treasury-Guard/contracts/AIScoreRegistry.sol\":3846:3849  100 */\n      0x64\n        /* \"CrossFi-Treasury-Guard/contracts/AIScoreRegistry.sol\":3823:3832  breakdown */\n      dup4\n        /* \"CrossFi-Treasury-Guard/contracts/AIScoreRegistry.sol\":3823:3842  breakdown.teamScore */\n      0x60\n      add\n      mload\n        /* \"CrossFi-Treasury-Guard/contracts/AIScoreRegistry.sol\":3823:3849  breakdown.teamScore <= 100 */\n      0xff\n      and\n      gt\n      iszero\n        /* \"CrossFi-Treasury-Guard/contracts/AIScoreRegistry.sol\":3685:3849  breakdown.ecosystemScore <= 100 &&... */\n    tag_318:\n        /* \"CrossFi-Treasury-Guard/contracts/AIScoreRegistry.sol\":3685:3897  breakdown.ecosystemScore <= 100 &&... */\n      dup1\n      iszero\n      tag_319\n      jumpi\n      pop\n        /* \"CrossFi-Treasury-Guard/contracts/AIScoreRegistry.sol\":3894:3897  100 */\n      0x64\n        /* \"CrossFi-Treasury-Guard/contracts/AIScoreRegistry.sol\":3865:3874  breakdown */\n      dup4\n        /* \"CrossFi-Treasury-Guard/contracts/AIScoreRegistry.sol\":3865:3890  breakdown.innovationScore */\n      0x80\n      add\n      mload\n        /* \"CrossFi-Treasury-Guard/contracts/AIScoreRegistry.sol\":3865:3897  breakdown.innovationScore <= 100 */\n      0xff\n      and\n      gt\n      iszero\n        /* \"CrossFi-Treasury-Guard/contracts/AIScoreRegistry.sol\":3685:3897  breakdown.ecosystemScore <= 100 &&... */\n    tag_319:\n        /* \"CrossFi-Treasury-Guard/contracts/AIScoreRegistry.sol\":3664:3947  require(... */\n      tag_320\n      jumpi\n      mload(0x40)\n      shl(0xe5, 0x461bcd)\n      dup2\n      mstore\n        /* \"#utility.yul\":19564:19566   */\n      0x20\n        /* \"CrossFi-Treasury-Guard/contracts/AIScoreRegistry.sol\":3664:3947  require(... */\n      0x04\n      dup3\n      add\n        /* \"#utility.yul\":19546:19567   */\n      mstore\n        /* \"#utility.yul\":19603:19605   */\n      0x18\n        /* \"#utility.yul\":19583:19601   */\n      0x24\n      dup3\n      add\n        /* \"#utility.yul\":19576:19606   */\n      mstore\n        /* \"#utility.yul\":19642:19668   */\n      0x496e76616c696420627265616b646f776e2073636f7265730000000000000000\n        /* \"#utility.yul\":19622:19640   */\n      0x44\n      dup3\n      add\n        /* \"#utility.yul\":19615:19669   */\n      mstore\n        /* \"#utility.yul\":19686:19704   */\n      0x64\n      add\n        /* \"CrossFi-Treasury-Guard/contracts/AIScoreRegistry.sol\":3664:3947  require(... */\n      tag_205\n        /* \"#utility.yul\":19362:19710   */\n      jump\n        /* \"CrossFi-Treasury-Guard/contracts/AIScoreRegistry.sol\":3664:3947  require(... */\n    tag_320:\n        /* \"CrossFi-Treasury-Guard/contracts/AIScoreRegistry.sol\":4315:4329  scoringWeights */\n      0x06\n        /* \"CrossFi-Treasury-Guard/contracts/AIScoreRegistry.sol\":4315:4340  scoringWeights.innovation */\n      sload\n        /* \"CrossFi-Treasury-Guard/contracts/AIScoreRegistry.sol\":4287:4312  breakdown.innovationScore */\n      0x80\n      dup5\n      add\n      mload\n        /* \"CrossFi-Treasury-Guard/contracts/AIScoreRegistry.sol\":3958:3981  uint256 calculatedScore */\n      0x00\n      swap2\n        /* \"CrossFi-Treasury-Guard/contracts/AIScoreRegistry.sol\":4354:4357  100 */\n      0x64\n      swap2\n        /* \"CrossFi-Treasury-Guard/contracts/AIScoreRegistry.sol\":4287:4340  breakdown.innovationScore * scoringWeights.innovation */\n      tag_323\n      swap2\n        /* \"CrossFi-Treasury-Guard/contracts/AIScoreRegistry.sol\":4315:4340  scoringWeights.innovation */\n      0x0100000000\n      swap1\n      div\n      0xff\n      and\n      swap1\n        /* \"CrossFi-Treasury-Guard/contracts/AIScoreRegistry.sol\":4287:4340  breakdown.innovationScore * scoringWeights.innovation */\n      tag_324\n      jump\t// in\n    tag_323:\n        /* \"CrossFi-Treasury-Guard/contracts/AIScoreRegistry.sol\":4241:4255  scoringWeights */\n      0x06\n        /* \"CrossFi-Treasury-Guard/contracts/AIScoreRegistry.sol\":4241:4270  scoringWeights.teamReputation */\n      sload\n        /* \"CrossFi-Treasury-Guard/contracts/AIScoreRegistry.sol\":4219:4238  breakdown.teamScore */\n      0x60\n      dup8\n      add\n      mload\n        /* \"CrossFi-Treasury-Guard/contracts/AIScoreRegistry.sol\":4219:4270  breakdown.teamScore * scoringWeights.teamReputation */\n      tag_325\n      swap2\n        /* \"CrossFi-Treasury-Guard/contracts/AIScoreRegistry.sol\":4241:4270  scoringWeights.teamReputation */\n      0x01000000\n      swap1\n      div\n      0xff\n      and\n      swap1\n        /* \"CrossFi-Treasury-Guard/contracts/AIScoreRegistry.sol\":4219:4270  breakdown.teamScore * scoringWeights.teamReputation */\n      tag_324\n      jump\t// in\n    tag_325:\n        /* \"CrossFi-Treasury-Guard/contracts/AIScoreRegistry.sol\":4173:4187  scoringWeights */\n      0x06\n        /* \"CrossFi-Treasury-Guard/contracts/AIScoreRegistry.sol\":4173:4202  scoringWeights.riskAssessment */\n      sload\n        /* \"CrossFi-Treasury-Guard/contracts/AIScoreRegistry.sol\":4151:4170  breakdown.riskScore */\n      0x40\n      dup9\n      add\n      mload\n        /* \"CrossFi-Treasury-Guard/contracts/AIScoreRegistry.sol\":4151:4202  breakdown.riskScore * scoringWeights.riskAssessment */\n      tag_326\n      swap2\n        /* \"CrossFi-Treasury-Guard/contracts/AIScoreRegistry.sol\":4173:4202  scoringWeights.riskAssessment */\n      0x010000\n      swap1\n      div\n      0xff\n      and\n      swap1\n        /* \"CrossFi-Treasury-Guard/contracts/AIScoreRegistry.sol\":4151:4202  breakdown.riskScore * scoringWeights.riskAssessment */\n      tag_324\n      jump\t// in\n    tag_326:\n        /* \"CrossFi-Treasury-Guard/contracts/AIScoreRegistry.sol\":4108:4122  scoringWeights */\n      0x06\n        /* \"CrossFi-Treasury-Guard/contracts/AIScoreRegistry.sol\":4108:4134  scoringWeights.feasibility */\n      sload\n        /* \"CrossFi-Treasury-Guard/contracts/AIScoreRegistry.sol\":4079:4105  breakdown.feasibilityScore */\n      0x20\n      dup10\n      add\n      mload\n        /* \"CrossFi-Treasury-Guard/contracts/AIScoreRegistry.sol\":4079:4134  breakdown.feasibilityScore * scoringWeights.feasibility */\n      tag_327\n      swap2\n        /* \"CrossFi-Treasury-Guard/contracts/AIScoreRegistry.sol\":4108:4134  scoringWeights.feasibility */\n      0x0100\n      swap1\n      div\n      0xff\n      and\n      swap1\n        /* \"CrossFi-Treasury-Guard/contracts/AIScoreRegistry.sol\":4079:4134  breakdown.feasibilityScore * scoringWeights.feasibility */\n      tag_324\n      jump\t// in\n    tag_327:\n        /* \"CrossFi-Treasury-Guard/contracts/AIScoreRegistry.sol\":4026:4040  scoringWeights */\n      0x06\n        /* \"CrossFi-Treasury-Guard/contracts/AIScoreRegistry.sol\":4026:4062  scoringWeights.ecosystemContribution */\n      sload\n        /* \"CrossFi-Treasury-Guard/contracts/AIScoreRegistry.sol\":3999:4023  breakdown.ecosystemScore */\n      dup10\n      mload\n        /* \"CrossFi-Treasury-Guard/contracts/AIScoreRegistry.sol\":3999:4062  breakdown.ecosystemScore * scoringWeights.ecosystemContribution */\n      tag_328\n      swap2\n        /* \"CrossFi-Treasury-Guard/contracts/AIScoreRegistry.sol\":4026:4062  scoringWeights.ecosystemContribution */\n      0xff\n      and\n      swap1\n        /* \"CrossFi-Treasury-Guard/contracts/AIScoreRegistry.sol\":3999:4062  breakdown.ecosystemScore * scoringWeights.ecosystemContribution */\n      tag_324\n      jump\t// in\n    tag_328:\n        /* \"CrossFi-Treasury-Guard/contracts/AIScoreRegistry.sol\":3998:4135  (breakdown.ecosystemScore * scoringWeights.ecosystemContribution) +... */\n      tag_329\n      swap2\n      swap1\n      tag_330\n      jump\t// in\n    tag_329:\n        /* \"CrossFi-Treasury-Guard/contracts/AIScoreRegistry.sol\":3998:4203  (breakdown.ecosystemScore * scoringWeights.ecosystemContribution) +... */\n      tag_331\n      swap2\n      swap1\n      tag_330\n      jump\t// in\n    tag_331:\n        /* \"CrossFi-Treasury-Guard/contracts/AIScoreRegistry.sol\":3998:4271  (breakdown.ecosystemScore * scoringWeights.ecosystemContribution) +... */\n      tag_332\n      swap2\n      swap1\n      tag_330\n      jump\t// in\n    tag_332:\n        /* \"CrossFi-Treasury-Guard/contracts/AIScoreRegistry.sol\":3998:4341  (breakdown.ecosystemScore * scoringWeights.ecosystemContribution) +... */\n      tag_333\n      swap2\n      swap1\n      tag_330\n      jump\t// in\n    tag_333:\n        /* \"CrossFi-Treasury-Guard/contracts/AIScoreRegistry.sol\":3984:4357  (... */\n      tag_334\n      swap2\n      swap1\n      tag_335\n      jump\t// in\n    tag_334:\n        /* \"CrossFi-Treasury-Guard/contracts/AIScoreRegistry.sol\":3958:4357  uint256 calculatedScore = (... */\n      0xff\n      and\n      swap1\n      pop\n        /* \"CrossFi-Treasury-Guard/contracts/AIScoreRegistry.sol\":4405:4424  calculatedScore - 5 */\n      tag_336\n        /* \"CrossFi-Treasury-Guard/contracts/AIScoreRegistry.sol\":4423:4424  5 */\n      0x05\n        /* \"CrossFi-Treasury-Guard/contracts/AIScoreRegistry.sol\":3958:4357  uint256 calculatedScore = (... */\n      dup3\n        /* \"CrossFi-Treasury-Guard/contracts/AIScoreRegistry.sol\":4405:4424  calculatedScore - 5 */\n      tag_337\n      jump\t// in\n    tag_336:\n        /* \"CrossFi-Treasury-Guard/contracts/AIScoreRegistry.sol\":4389:4401  overallScore */\n      dup8\n        /* \"CrossFi-Treasury-Guard/contracts/AIScoreRegistry.sol\":4389:4424  overallScore >= calculatedScore - 5 */\n      lt\n      iszero\n        /* \"CrossFi-Treasury-Guard/contracts/AIScoreRegistry.sol\":4389:4463  overallScore >= calculatedScore - 5 && overallScore <= calculatedScore + 5 */\n      dup1\n      iszero\n      tag_338\n      jumpi\n      pop\n        /* \"CrossFi-Treasury-Guard/contracts/AIScoreRegistry.sol\":4444:4463  calculatedScore + 5 */\n      tag_339\n        /* \"CrossFi-Treasury-Guard/contracts/AIScoreRegistry.sol\":4444:4459  calculatedScore */\n      dup2\n        /* \"CrossFi-Treasury-Guard/contracts/AIScoreRegistry.sol\":4462:4463  5 */\n      0x05\n        /* \"CrossFi-Treasury-Guard/contracts/AIScoreRegistry.sol\":4444:4463  calculatedScore + 5 */\n      tag_238\n      jump\t// in\n    tag_339:\n        /* \"CrossFi-Treasury-Guard/contracts/AIScoreRegistry.sol\":4428:4440  overallScore */\n      dup8\n        /* \"CrossFi-Treasury-Guard/contracts/AIScoreRegistry.sol\":4428:4463  overallScore <= calculatedScore + 5 */\n      gt\n      iszero\n        /* \"CrossFi-Treasury-Guard/contracts/AIScoreRegistry.sol\":4389:4463  overallScore >= calculatedScore - 5 && overallScore <= calculatedScore + 5 */\n    tag_338:\n        /* \"CrossFi-Treasury-Guard/contracts/AIScoreRegistry.sol\":4368:4522  require(... */\n      tag_340\n      jumpi\n      mload(0x40)\n      shl(0xe5, 0x461bcd)\n      dup2\n      mstore\n        /* \"#utility.yul\":20700:20702   */\n      0x20\n        /* \"CrossFi-Treasury-Guard/contracts/AIScoreRegistry.sol\":4368:4522  require(... */\n      0x04\n      dup3\n      add\n        /* \"#utility.yul\":20682:20703   */\n      mstore\n        /* \"#utility.yul\":20739:20741   */\n      0x21\n        /* \"#utility.yul\":20719:20737   */\n      0x24\n      dup3\n      add\n        /* \"#utility.yul\":20712:20742   */\n      mstore\n        /* \"#utility.yul\":20778:20812   */\n      0x53636f726520696e636f6e73697374656e74207769746820627265616b646f77\n        /* \"#utility.yul\":20758:20776   */\n      0x44\n      dup3\n      add\n        /* \"#utility.yul\":20751:20813   */\n      mstore\n      shl(0xf9, 0x37)\n        /* \"#utility.yul\":20829:20847   */\n      0x64\n      dup3\n      add\n        /* \"#utility.yul\":20822:20853   */\n      mstore\n        /* \"#utility.yul\":20870:20889   */\n      0x84\n      add\n        /* \"CrossFi-Treasury-Guard/contracts/AIScoreRegistry.sol\":4368:4522  require(... */\n      tag_205\n        /* \"#utility.yul\":20498:20895   */\n      jump\n        /* \"CrossFi-Treasury-Guard/contracts/AIScoreRegistry.sol\":4368:4522  require(... */\n    tag_340:\n        /* \"CrossFi-Treasury-Guard/contracts/AIScoreRegistry.sol\":4556:4877  AIScoreData({... */\n      0x40\n      dup1\n      mload\n      0x0100\n      dup2\n      add\n      dup3\n      mstore\n      dup10\n      dup2\n      mstore\n      0x20\n      dup1\n      dup3\n      add\n      dup11\n      dup2\n      mstore\n      dup3\n      dup5\n      add\n      dup11\n      dup2\n      mstore\n      0x60\n      dup5\n      add\n      dup11\n      swap1\n      mstore\n        /* \"CrossFi-Treasury-Guard/contracts/AIScoreRegistry.sol\":4759:4774  block.timestamp */\n      timestamp\n        /* \"CrossFi-Treasury-Guard/contracts/AIScoreRegistry.sol\":4556:4877  AIScoreData({... */\n      0x80\n      dup6\n      add\n      mstore\n        /* \"CrossFi-Treasury-Guard/contracts/AIScoreRegistry.sol\":4796:4806  msg.sender */\n      caller\n        /* \"CrossFi-Treasury-Guard/contracts/AIScoreRegistry.sol\":4556:4877  AIScoreData({... */\n      0xa0\n      dup6\n      add\n      mstore\n        /* \"CrossFi-Treasury-Guard/contracts/AIScoreRegistry.sol\":4828:4832  true */\n      0x01\n        /* \"CrossFi-Treasury-Guard/contracts/AIScoreRegistry.sol\":4556:4877  AIScoreData({... */\n      0xc0\n      dup6\n      add\n      dup2\n      swap1\n      mstore\n      0xe0\n      dup6\n      add\n      dup11\n      swap1\n      mstore\n      0x00\n        /* \"CrossFi-Treasury-Guard/contracts/AIScoreRegistry.sol\":4533:4553  aiScores[proposalId] */\n      dup15\n      dup2\n      mstore\n        /* \"CrossFi-Treasury-Guard/contracts/AIScoreRegistry.sol\":4533:4541  aiScores */\n      0x03\n        /* \"CrossFi-Treasury-Guard/contracts/AIScoreRegistry.sol\":4533:4553  aiScores[proposalId] */\n      swap1\n      swap5\n      mstore\n      swap5\n      swap1\n      swap3\n      keccak256\n        /* \"CrossFi-Treasury-Guard/contracts/AIScoreRegistry.sol\":4533:4877  aiScores[proposalId] = AIScoreData({... */\n      dup4\n      mload\n      dup2\n      sstore\n      swap1\n      mload\n      swap4\n      dup2\n      add\n      swap4\n      swap1\n      swap4\n      sstore\n      mload\n        /* \"CrossFi-Treasury-Guard/contracts/AIScoreRegistry.sol\":4556:4877  AIScoreData({... */\n      swap1\n      swap2\n        /* \"CrossFi-Treasury-Guard/contracts/AIScoreRegistry.sol\":4533:4553  aiScores[proposalId] */\n      swap1\n        /* \"CrossFi-Treasury-Guard/contracts/AIScoreRegistry.sol\":4533:4877  aiScores[proposalId] = AIScoreData({... */\n      0x02\n      dup3\n      add\n      swap1\n      tag_343\n      swap1\n      dup3\n      tag_246\n      jump\t// in\n    tag_343:\n      pop\n      0x60\n      dup3\n      add\n      mload\n      0x03\n      dup3\n      add\n      swap1\n      tag_344\n      swap1\n      dup3\n      tag_246\n      jump\t// in\n    tag_344:\n      pop\n      0x80\n      dup3\n      dup2\n      add\n      mload\n      0x04\n      dup4\n      add\n      sstore\n      0xa0\n      dup4\n      add\n      mload\n      0x05\n      dup4\n      add\n      dup1\n      sload\n      0xc0\n      dup7\n      add\n      mload\n      iszero\n      iszero\n      shl(0xa0, 0x01)\n      mul\n      not(sub(shl(0xa8, 0x01), 0x01))\n      swap1\n      swap2\n      and\n      sub(shl(0xa0, 0x01), 0x01)\n      swap1\n      swap4\n      and\n      swap3\n      swap1\n      swap3\n      or\n      swap2\n      swap1\n      swap2\n      or\n      swap1\n      sstore\n      0xe0\n      swap1\n      swap3\n      add\n      mload\n      dup1\n      mload\n      0x06\n      swap1\n      swap3\n      add\n      dup1\n      sload\n      0x20\n      dup4\n      add\n      mload\n      0x40\n      dup5\n      add\n      mload\n      0x60\n      dup6\n      add\n      mload\n      swap5\n      swap1\n      swap7\n      add\n      mload\n      0xff\n      swap1\n      dup2\n      and\n      0x0100000000\n      mul\n      not(0xff00000000)\n      swap6\n      dup3\n      and\n      0x01000000\n      mul\n      not(0xff000000)\n      swap9\n      dup4\n      and\n      0x010000\n      mul\n      swap9\n      swap1\n      swap9\n      and\n      not(0xffff0000)\n      swap4\n      dup4\n      and\n      0x0100\n      mul\n      not(0xffff)\n      swap1\n      swap6\n      and\n      swap8\n      swap1\n      swap3\n      and\n      swap7\n      swap1\n      swap7\n      or\n      swap3\n      swap1\n      swap3\n      or\n      and\n      or\n      swap4\n      swap1\n      swap4\n      or\n      and\n      or\n      swap1\n      sstore\n        /* \"CrossFi-Treasury-Guard/contracts/AIScoreRegistry.sol\":4896:4916  totalScoresSubmitted */\n      0x07\n        /* \"CrossFi-Treasury-Guard/contracts/AIScoreRegistry.sol\":4896:4918  totalScoresSubmitted++ */\n      dup1\n      sload\n      swap1\n        /* \"CrossFi-Treasury-Guard/contracts/AIScoreRegistry.sol\":4533:4877  aiScores[proposalId] = AIScoreData({... */\n      0x00\n        /* \"CrossFi-Treasury-Guard/contracts/AIScoreRegistry.sol\":4896:4918  totalScoresSubmitted++ */\n      tag_345\n      dup4\n      tag_278\n      jump\t// in\n    tag_345:\n      swap1\n      swap2\n      sstore\n      pop\n      pop\n        /* \"CrossFi-Treasury-Guard/contracts/AIScoreRegistry.sol\":4945:4955  msg.sender */\n      caller\n        /* \"CrossFi-Treasury-Guard/contracts/AIScoreRegistry.sol\":4928:4956  oracleScoreCount[msg.sender] */\n      0x00\n      swap1\n      dup2\n      mstore\n        /* \"CrossFi-Treasury-Guard/contracts/AIScoreRegistry.sol\":4928:4944  oracleScoreCount */\n      0x08\n        /* \"CrossFi-Treasury-Guard/contracts/AIScoreRegistry.sol\":4928:4956  oracleScoreCount[msg.sender] */\n      0x20\n      mstore\n      0x40\n      dup2\n      keccak256\n        /* \"CrossFi-Treasury-Guard/contracts/AIScoreRegistry.sol\":4928:4958  oracleScoreCount[msg.sender]++ */\n      dup1\n      sload\n      swap2\n      tag_346\n      dup4\n      tag_278\n      jump\t// in\n    tag_346:\n      swap2\n      swap1\n      pop\n      sstore\n      pop\n        /* \"CrossFi-Treasury-Guard/contracts/AIScoreRegistry.sol\":5119:5129  msg.sender */\n      caller\n      sub(shl(0xa0, 0x01), 0x01)\n        /* \"CrossFi-Treasury-Guard/contracts/AIScoreRegistry.sol\":4982:5168  AIScoreSubmitted(... */\n      and\n        /* \"CrossFi-Treasury-Guard/contracts/AIScoreRegistry.sol\":5012:5022  proposalId */\n      dup9\n        /* \"CrossFi-Treasury-Guard/contracts/AIScoreRegistry.sol\":4982:5168  AIScoreSubmitted(... */\n      0x09e8ad66e4736435405704d301d344e9454f286d3feeb2036b1adc6f4900ccbc\n        /* \"CrossFi-Treasury-Guard/contracts/AIScoreRegistry.sol\":5036:5048  overallScore */\n      dup10\n        /* \"CrossFi-Treasury-Guard/contracts/AIScoreRegistry.sol\":5062:5079  justificationIPFS */\n      dup10\n        /* \"CrossFi-Treasury-Guard/contracts/AIScoreRegistry.sol\":5093:5105  modelVersion */\n      dup10\n        /* \"CrossFi-Treasury-Guard/contracts/AIScoreRegistry.sol\":5143:5158  block.timestamp */\n      timestamp\n        /* \"CrossFi-Treasury-Guard/contracts/AIScoreRegistry.sol\":4982:5168  AIScoreSubmitted(... */\n      mload(0x40)\n      tag_347\n      swap5\n      swap4\n      swap3\n      swap2\n      swap1\n      tag_348\n      jump\t// in\n    tag_347:\n      mload(0x40)\n      dup1\n      swap2\n      sub\n      swap1\n      log3\n        /* \"CrossFi-Treasury-Guard/contracts/AIScoreRegistry.sol\":3380:5175  {... */\n      pop\n        /* \"@openzeppelin/contracts/security/ReentrancyGuard.sol\":2303:2323  _nonReentrantAfter() */\n      tag_349\n        /* \"@openzeppelin/contracts/security/ReentrancyGuard.sol\":1716:1717  1 */\n      0x01\n        /* \"@openzeppelin/contracts/security/ReentrancyGuard.sol\":2809:2816  _status */\n      0x02\n        /* \"@openzeppelin/contracts/security/ReentrancyGuard.sol\":2809:2831  _status = _NOT_ENTERED */\n      sstore\n        /* \"@openzeppelin/contracts/security/ReentrancyGuard.sol\":2629:2838  function _nonReentrantAfter() private {... */\n      jump\n        /* \"@openzeppelin/contracts/security/ReentrancyGuard.sol\":2303:2323  _nonReentrantAfter() */\n    tag_349:\n        /* \"CrossFi-Treasury-Guard/contracts/AIScoreRegistry.sol\":2136:2137  _ */\n      pop\n        /* \"CrossFi-Treasury-Guard/contracts/AIScoreRegistry.sol\":1867:1868  _ */\n      pop\n        /* \"CrossFi-Treasury-Guard/contracts/AIScoreRegistry.sol\":3054:5175  function submitAIScore(... */\n      pop\n      pop\n      pop\n      pop\n      pop\n      jump\t// out\n        /* \"CrossFi-Treasury-Guard/contracts/AIScoreRegistry.sol\":10632:10704  function pause() external onlyRole(ADMIN_ROLE) {... */\n    tag_127:\n      0x00\n      dup1\n      mload\n      0x20\n      data_cb864c43dd5d441bb6271f424f11befa622c032dfd374d226e26fbbdb782b8f8\n      dup4\n      codecopy\n      dup2\n      mload\n      swap2\n      mstore\n        /* \"@openzeppelin/contracts/access/AccessControl.sol\":2473:2489  _checkRole(role) */\n      tag_352\n        /* \"@openzeppelin/contracts/access/AccessControl.sol\":2484:2488  role */\n      dup2\n        /* \"@openzeppelin/contracts/access/AccessControl.sol\":2473:2483  _checkRole */\n      tag_252\n        /* \"@openzeppelin/contracts/access/AccessControl.sol\":2473:2489  _checkRole(role) */\n      jump\t// in\n    tag_352:\n        /* \"CrossFi-Treasury-Guard/contracts/AIScoreRegistry.sol\":10689:10697  _pause() */\n      tag_265\n        /* \"CrossFi-Treasury-Guard/contracts/AIScoreRegistry.sol\":10689:10695  _pause */\n      tag_355\n        /* \"CrossFi-Treasury-Guard/contracts/AIScoreRegistry.sol\":10689:10697  _pause() */\n      jump\t// in\n        /* \"CrossFi-Treasury-Guard/contracts/utils/ExtendedAccessControl.sol\":960:1179  function grantMultipleRoles(address account, bytes32[] memory roles) external onlyRole(DEFAULT_ADMIN_ROLE) {... */\n    tag_130:\n        /* \"@openzeppelin/contracts/access/AccessControl.sol\":2241:2245  0x00 */\n      0x00\n        /* \"@openzeppelin/contracts/access/AccessControl.sol\":2473:2489  _checkRole(role) */\n      tag_357\n        /* \"@openzeppelin/contracts/access/AccessControl.sol\":2241:2245  0x00 */\n      dup2\n        /* \"@openzeppelin/contracts/access/AccessControl.sol\":2473:2483  _checkRole */\n      tag_252\n        /* \"@openzeppelin/contracts/access/AccessControl.sol\":2473:2489  _checkRole(role) */\n      jump\t// in\n    tag_357:\n        /* \"CrossFi-Treasury-Guard/contracts/utils/ExtendedAccessControl.sol\":1082:1091  uint256 i */\n      0x00\n        /* \"CrossFi-Treasury-Guard/contracts/utils/ExtendedAccessControl.sol\":1077:1173  for (uint256 i = 0; i < roles.length; i++) {... */\n    tag_359:\n        /* \"CrossFi-Treasury-Guard/contracts/utils/ExtendedAccessControl.sol\":1101:1106  roles */\n      dup3\n        /* \"CrossFi-Treasury-Guard/contracts/utils/ExtendedAccessControl.sol\":1101:1113  roles.length */\n      mload\n        /* \"CrossFi-Treasury-Guard/contracts/utils/ExtendedAccessControl.sol\":1097:1098  i */\n      dup2\n        /* \"CrossFi-Treasury-Guard/contracts/utils/ExtendedAccessControl.sol\":1097:1113  i < roles.length */\n      lt\n        /* \"CrossFi-Treasury-Guard/contracts/utils/ExtendedAccessControl.sol\":1077:1173  for (uint256 i = 0; i < roles.length; i++) {... */\n      iszero\n      tag_254\n      jumpi\n        /* \"CrossFi-Treasury-Guard/contracts/utils/ExtendedAccessControl.sol\":1134:1162  grantRole(roles[i], account) */\n      tag_362\n        /* \"CrossFi-Treasury-Guard/contracts/utils/ExtendedAccessControl.sol\":1144:1149  roles */\n      dup4\n        /* \"CrossFi-Treasury-Guard/contracts/utils/ExtendedAccessControl.sol\":1150:1151  i */\n      dup3\n        /* \"CrossFi-Treasury-Guard/contracts/utils/ExtendedAccessControl.sol\":1144:1152  roles[i] */\n      dup2\n      mload\n      dup2\n      lt\n      tag_364\n      jumpi\n      tag_364\n      tag_276\n      jump\t// in\n    tag_364:\n      0x20\n      mul\n      0x20\n      add\n      add\n      mload\n        /* \"CrossFi-Treasury-Guard/contracts/utils/ExtendedAccessControl.sol\":1154:1161  account */\n      dup6\n        /* \"CrossFi-Treasury-Guard/contracts/utils/ExtendedAccessControl.sol\":1134:1143  grantRole */\n      tag_83\n        /* \"CrossFi-Treasury-Guard/contracts/utils/ExtendedAccessControl.sol\":1134:1162  grantRole(roles[i], account) */\n      jump\t// in\n    tag_362:\n        /* \"CrossFi-Treasury-Guard/contracts/utils/ExtendedAccessControl.sol\":1115:1118  i++ */\n      dup1\n      tag_365\n      dup2\n      tag_278\n      jump\t// in\n    tag_365:\n      swap2\n      pop\n      pop\n        /* \"CrossFi-Treasury-Guard/contracts/utils/ExtendedAccessControl.sol\":1077:1173  for (uint256 i = 0; i < roles.length; i++) {... */\n      jump(tag_359)\n        /* \"@openzeppelin/contracts/access/AccessControl.sol\":2830:2966  function hasRole(bytes32 role, address account) public view virtual returns (bool) {... */\n    tag_133:\n        /* \"@openzeppelin/contracts/access/AccessControl.sol\":2907:2911  bool */\n      0x00\n        /* \"@openzeppelin/contracts/access/AccessControl.sol\":2930:2942  _roles[role] */\n      swap2\n      dup3\n      mstore\n      0x20\n      dup3\n      dup2\n      mstore\n      0x40\n      dup1\n      dup5\n      keccak256\n      sub(shl(0xa0, 0x01), 0x01)\n        /* \"@openzeppelin/contracts/access/AccessControl.sol\":2930:2959  _roles[role].hasRole[account] */\n      swap4\n      swap1\n      swap4\n      and\n      dup5\n      mstore\n      swap2\n      swap1\n      mstore\n      swap1\n      keccak256\n      sload\n      0xff\n      and\n      swap1\n        /* \"@openzeppelin/contracts/access/AccessControl.sol\":2830:2966  function hasRole(bytes32 role, address account) public view virtual returns (bool) {... */\n      jump\t// out\n        /* \"CrossFi-Treasury-Guard/contracts/AIScoreRegistry.sol\":7901:8065  function hasAIScore(uint256 proposalId) external view override validProposalId(proposalId) returns (bool exists) {... */\n    tag_137:\n        /* \"CrossFi-Treasury-Guard/contracts/AIScoreRegistry.sol\":8001:8012  bool exists */\n      0x00\n        /* \"CrossFi-Treasury-Guard/contracts/AIScoreRegistry.sol\":7980:7990  proposalId */\n      dup2\n        /* \"CrossFi-Treasury-Guard/contracts/AIScoreRegistry.sol\":2101:2102  0 */\n      0x00\n        /* \"CrossFi-Treasury-Guard/contracts/AIScoreRegistry.sol\":2088:2098  proposalId */\n      dup2\n        /* \"CrossFi-Treasury-Guard/contracts/AIScoreRegistry.sol\":2088:2102  proposalId > 0 */\n      gt\n        /* \"CrossFi-Treasury-Guard/contracts/AIScoreRegistry.sol\":2080:2126  require(proposalId > 0, \"Invalid proposal ID\") */\n      tag_368\n      jumpi\n      mload(0x40)\n      shl(0xe5, 0x461bcd)\n      dup2\n      mstore\n      0x04\n      add\n      tag_205\n      swap1\n      tag_206\n      jump\t// in\n    tag_368:\n        /* \"CrossFi-Treasury-Guard/contracts/AIScoreRegistry.sol\":8031:8051  aiScores[proposalId] */\n      0x00\n      dup4\n      dup2\n      mstore\n        /* \"CrossFi-Treasury-Guard/contracts/AIScoreRegistry.sol\":8031:8039  aiScores */\n      0x03\n        /* \"CrossFi-Treasury-Guard/contracts/AIScoreRegistry.sol\":8031:8051  aiScores[proposalId] */\n      0x20\n      mstore\n      0x40\n      swap1\n      keccak256\n        /* \"CrossFi-Treasury-Guard/contracts/AIScoreRegistry.sol\":8031:8058  aiScores[proposalId].exists */\n      0x05\n      add\n      sload\n      shl(0xa0, 0x01)\n      swap1\n      div\n      0xff\n      and\n      swap2\n      pop\n        /* \"CrossFi-Treasury-Guard/contracts/AIScoreRegistry.sol\":2136:2137  _ */\n    tag_370:\n        /* \"CrossFi-Treasury-Guard/contracts/AIScoreRegistry.sol\":7901:8065  function hasAIScore(uint256 proposalId) external view override validProposalId(proposalId) returns (bool exists) {... */\n      pop\n      swap2\n      swap1\n      pop\n      jump\t// out\n        /* \"CrossFi-Treasury-Guard/contracts/utils/ExtendedAccessControl.sol\":2250:2610  function getRoleCount(address account) external view returns (uint256 roleCount) {... */\n    tag_150:\n        /* \"CrossFi-Treasury-Guard/contracts/utils/ExtendedAccessControl.sol\":2312:2329  uint256 roleCount */\n      0x00\n        /* \"CrossFi-Treasury-Guard/contracts/utils/ExtendedAccessControl.sol\":2341:2366  bytes32[] memory allRoles */\n      dup1\n        /* \"CrossFi-Treasury-Guard/contracts/utils/ExtendedAccessControl.sol\":2369:2382  getAllRoles() */\n      tag_372\n        /* \"CrossFi-Treasury-Guard/contracts/utils/ExtendedAccessControl.sol\":2369:2380  getAllRoles */\n      tag_192\n        /* \"CrossFi-Treasury-Guard/contracts/utils/ExtendedAccessControl.sol\":2369:2382  getAllRoles() */\n      jump\t// in\n    tag_372:\n        /* \"CrossFi-Treasury-Guard/contracts/utils/ExtendedAccessControl.sol\":2341:2382  bytes32[] memory allRoles = getAllRoles() */\n      swap1\n      pop\n        /* \"CrossFi-Treasury-Guard/contracts/utils/ExtendedAccessControl.sol\":2392:2405  uint256 count */\n      0x00\n        /* \"CrossFi-Treasury-Guard/contracts/utils/ExtendedAccessControl.sol\":2433:2442  uint256 i */\n      dup1\n        /* \"CrossFi-Treasury-Guard/contracts/utils/ExtendedAccessControl.sol\":2428:2573  for (uint256 i = 0; i < allRoles.length; i++) {... */\n    tag_373:\n        /* \"CrossFi-Treasury-Guard/contracts/utils/ExtendedAccessControl.sol\":2452:2460  allRoles */\n      dup3\n        /* \"CrossFi-Treasury-Guard/contracts/utils/ExtendedAccessControl.sol\":2452:2467  allRoles.length */\n      mload\n        /* \"CrossFi-Treasury-Guard/contracts/utils/ExtendedAccessControl.sol\":2448:2449  i */\n      dup2\n        /* \"CrossFi-Treasury-Guard/contracts/utils/ExtendedAccessControl.sol\":2448:2467  i < allRoles.length */\n      lt\n        /* \"CrossFi-Treasury-Guard/contracts/utils/ExtendedAccessControl.sol\":2428:2573  for (uint256 i = 0; i < allRoles.length; i++) {... */\n      iszero\n      tag_374\n      jumpi\n        /* \"CrossFi-Treasury-Guard/contracts/utils/ExtendedAccessControl.sol\":2492:2521  hasRole(allRoles[i], account) */\n      tag_376\n        /* \"CrossFi-Treasury-Guard/contracts/utils/ExtendedAccessControl.sol\":2500:2508  allRoles */\n      dup4\n        /* \"CrossFi-Treasury-Guard/contracts/utils/ExtendedAccessControl.sol\":2509:2510  i */\n      dup3\n        /* \"CrossFi-Treasury-Guard/contracts/utils/ExtendedAccessControl.sol\":2500:2511  allRoles[i] */\n      dup2\n      mload\n      dup2\n      lt\n      tag_378\n      jumpi\n      tag_378\n      tag_276\n      jump\t// in\n    tag_378:\n      0x20\n      mul\n      0x20\n      add\n      add\n      mload\n        /* \"CrossFi-Treasury-Guard/contracts/utils/ExtendedAccessControl.sol\":2513:2520  account */\n      dup7\n        /* \"CrossFi-Treasury-Guard/contracts/utils/ExtendedAccessControl.sol\":2492:2499  hasRole */\n      tag_133\n        /* \"CrossFi-Treasury-Guard/contracts/utils/ExtendedAccessControl.sol\":2492:2521  hasRole(allRoles[i], account) */\n      jump\t// in\n    tag_376:\n        /* \"CrossFi-Treasury-Guard/contracts/utils/ExtendedAccessControl.sol\":2488:2563  if (hasRole(allRoles[i], account)) {... */\n      iszero\n      tag_379\n      jumpi\n        /* \"CrossFi-Treasury-Guard/contracts/utils/ExtendedAccessControl.sol\":2541:2548  count++ */\n      dup2\n      tag_380\n      dup2\n      tag_278\n      jump\t// in\n    tag_380:\n      swap3\n      pop\n      pop\n        /* \"CrossFi-Treasury-Guard/contracts/utils/ExtendedAccessControl.sol\":2488:2563  if (hasRole(allRoles[i], account)) {... */\n    tag_379:\n        /* \"CrossFi-Treasury-Guard/contracts/utils/ExtendedAccessControl.sol\":2469:2472  i++ */\n      dup1\n      tag_381\n      dup2\n      tag_278\n      jump\t// in\n    tag_381:\n      swap2\n      pop\n      pop\n        /* \"CrossFi-Treasury-Guard/contracts/utils/ExtendedAccessControl.sol\":2428:2573  for (uint256 i = 0; i < allRoles.length; i++) {... */\n      jump(tag_373)\n    tag_374:\n      pop\n        /* \"CrossFi-Treasury-Guard/contracts/utils/ExtendedAccessControl.sol\":2598:2603  count */\n      swap4\n        /* \"CrossFi-Treasury-Guard/contracts/utils/ExtendedAccessControl.sol\":2250:2610  function getRoleCount(address account) external view returns (uint256 roleCount) {... */\n      swap3\n      pop\n      pop\n      pop\n      jump\t// out\n        /* \"CrossFi-Treasury-Guard/contracts/AIScoreRegistry.sol\":10249:10626  function removeScore(uint256 proposalId, string memory reason) external onlyRole(DEFAULT_ADMIN_ROLE) {... */\n    tag_155:\n        /* \"@openzeppelin/contracts/access/AccessControl.sol\":2241:2245  0x00 */\n      0x00\n        /* \"@openzeppelin/contracts/access/AccessControl.sol\":2473:2489  _checkRole(role) */\n      tag_383\n        /* \"@openzeppelin/contracts/access/AccessControl.sol\":2241:2245  0x00 */\n      dup2\n        /* \"@openzeppelin/contracts/access/AccessControl.sol\":2473:2483  _checkRole */\n      tag_252\n        /* \"@openzeppelin/contracts/access/AccessControl.sol\":2473:2489  _checkRole(role) */\n      jump\t// in\n    tag_383:\n        /* \"CrossFi-Treasury-Guard/contracts/AIScoreRegistry.sol\":10368:10388  aiScores[proposalId] */\n      0x00\n      dup4\n      dup2\n      mstore\n        /* \"CrossFi-Treasury-Guard/contracts/AIScoreRegistry.sol\":10368:10376  aiScores */\n      0x03\n        /* \"CrossFi-Treasury-Guard/contracts/AIScoreRegistry.sol\":10368:10388  aiScores[proposalId] */\n      0x20\n      mstore\n      0x40\n      swap1\n      keccak256\n        /* \"CrossFi-Treasury-Guard/contracts/AIScoreRegistry.sol\":10368:10395  aiScores[proposalId].exists */\n      0x05\n      add\n      sload\n      shl(0xa0, 0x01)\n      swap1\n      div\n      0xff\n      and\n        /* \"CrossFi-Treasury-Guard/contracts/AIScoreRegistry.sol\":10360:10420  require(aiScores[proposalId].exists, \"Score does not exist\") */\n      tag_385\n      jumpi\n      mload(0x40)\n      shl(0xe5, 0x461bcd)\n      dup2\n      mstore\n      0x04\n      add\n      tag_205\n      swap1\n      tag_233\n      jump\t// in\n    tag_385:\n        /* \"CrossFi-Treasury-Guard/contracts/AIScoreRegistry.sol\":10461:10462  0 */\n      0x00\n        /* \"CrossFi-Treasury-Guard/contracts/AIScoreRegistry.sol\":10444:10450  reason */\n      dup3\n        /* \"CrossFi-Treasury-Guard/contracts/AIScoreRegistry.sol\":10438:10458  bytes(reason).length */\n      mload\n        /* \"CrossFi-Treasury-Guard/contracts/AIScoreRegistry.sol\":10438:10462  bytes(reason).length > 0 */\n      gt\n        /* \"CrossFi-Treasury-Guard/contracts/AIScoreRegistry.sol\":10430:10482  require(bytes(reason).length > 0, \"Reason required\") */\n      tag_387\n      jumpi\n      mload(0x40)\n      shl(0xe5, 0x461bcd)\n      dup2\n      mstore\n        /* \"#utility.yul\":21634:21636   */\n      0x20\n        /* \"CrossFi-Treasury-Guard/contracts/AIScoreRegistry.sol\":10430:10482  require(bytes(reason).length > 0, \"Reason required\") */\n      0x04\n      dup3\n      add\n        /* \"#utility.yul\":21616:21637   */\n      mstore\n        /* \"#utility.yul\":21673:21675   */\n      0x0f\n        /* \"#utility.yul\":21653:21671   */\n      0x24\n      dup3\n      add\n        /* \"#utility.yul\":21646:21676   */\n      mstore\n      shl(0x8a, 0x1499585cdbdb881c995c5d5a5c9959)\n        /* \"#utility.yul\":21692:21710   */\n      0x44\n      dup3\n      add\n        /* \"#utility.yul\":21685:21730   */\n      mstore\n        /* \"#utility.yul\":21747:21765   */\n      0x64\n      add\n        /* \"CrossFi-Treasury-Guard/contracts/AIScoreRegistry.sol\":10430:10482  require(bytes(reason).length > 0, \"Reason required\") */\n      tag_205\n        /* \"#utility.yul\":21432:21771   */\n      jump\n        /* \"CrossFi-Treasury-Guard/contracts/AIScoreRegistry.sol\":10430:10482  require(bytes(reason).length > 0, \"Reason required\") */\n    tag_387:\n        /* \"CrossFi-Treasury-Guard/contracts/AIScoreRegistry.sol\":10508:10528  aiScores[proposalId] */\n      0x00\n      dup4\n      dup2\n      mstore\n        /* \"CrossFi-Treasury-Guard/contracts/AIScoreRegistry.sol\":10508:10516  aiScores */\n      0x03\n        /* \"CrossFi-Treasury-Guard/contracts/AIScoreRegistry.sol\":10508:10528  aiScores[proposalId] */\n      0x20\n      mstore\n      0x40\n      dup2\n      keccak256\n        /* \"CrossFi-Treasury-Guard/contracts/AIScoreRegistry.sol\":10501:10528  delete aiScores[proposalId] */\n      dup2\n      dup2\n      sstore\n      0x01\n      dup2\n      add\n      dup3\n      swap1\n      sstore\n        /* \"CrossFi-Treasury-Guard/contracts/AIScoreRegistry.sol\":10508:10528  aiScores[proposalId] */\n      swap1\n        /* \"CrossFi-Treasury-Guard/contracts/AIScoreRegistry.sol\":10501:10528  delete aiScores[proposalId] */\n      tag_390\n      0x02\n      dup4\n      add\n        /* \"CrossFi-Treasury-Guard/contracts/AIScoreRegistry.sol\":10508:10528  aiScores[proposalId] */\n      dup3\n        /* \"CrossFi-Treasury-Guard/contracts/AIScoreRegistry.sol\":10501:10528  delete aiScores[proposalId] */\n      tag_391\n      jump\t// in\n    tag_390:\n      tag_392\n      0x03\n      dup4\n      add\n      0x00\n      tag_391\n      jump\t// in\n    tag_392:\n      pop\n      0x00\n      0x04\n      dup3\n      add\n      dup2\n      swap1\n      sstore\n      0x05\n      dup3\n      add\n      dup1\n      sload\n      not(sub(shl(0xa8, 0x01), 0x01))\n      and\n      swap1\n      sstore\n      0x06\n      swap1\n      swap2\n      add\n      dup1\n      sload\n      not(0xffffffffff)\n      and\n      swap1\n      sstore\n        /* \"CrossFi-Treasury-Guard/contracts/AIScoreRegistry.sol\":10538:10558  totalScoresSubmitted */\n      0x07\n        /* \"CrossFi-Treasury-Guard/contracts/AIScoreRegistry.sol\":10538:10560  totalScoresSubmitted-- */\n      dup1\n      sload\n      swap2\n      tag_393\n      dup4\n      tag_394\n      jump\t// in\n    tag_393:\n      swap2\n      swap1\n      pop\n      sstore\n      pop\n        /* \"CrossFi-Treasury-Guard/contracts/AIScoreRegistry.sol\":10597:10607  proposalId */\n      dup3\n        /* \"CrossFi-Treasury-Guard/contracts/AIScoreRegistry.sol\":10584:10619  ScoreUpdated(proposalId, 0, reason) */\n      0xd3e8dbbe8ff60a1fae1e5f88e71f27270ed38badc7b26e19922ed94fd12f5fe9\n        /* \"CrossFi-Treasury-Guard/contracts/AIScoreRegistry.sol\":10609:10610  0 */\n      0x00\n        /* \"CrossFi-Treasury-Guard/contracts/AIScoreRegistry.sol\":10612:10618  reason */\n      dup5\n        /* \"CrossFi-Treasury-Guard/contracts/AIScoreRegistry.sol\":10584:10619  ScoreUpdated(proposalId, 0, reason) */\n      mload(0x40)\n      tag_395\n      swap3\n      swap2\n      swap1\n      tag_248\n      jump\t// in\n    tag_395:\n      mload(0x40)\n      dup1\n      swap2\n      sub\n      swap1\n      log2\n        /* \"CrossFi-Treasury-Guard/contracts/AIScoreRegistry.sol\":10249:10626  function removeScore(uint256 proposalId, string memory reason) external onlyRole(DEFAULT_ADMIN_ROLE) {... */\n      pop\n      pop\n      pop\n      jump\t// out\n        /* \"CrossFi-Treasury-Guard/contracts/AIScoreRegistry.sol\":9209:9496  function setSupportedModel(string memory modelVersion, bool supported) external onlyRole(ADMIN_ROLE) {... */\n    tag_159:\n      0x00\n      dup1\n      mload\n      0x20\n      data_cb864c43dd5d441bb6271f424f11befa622c032dfd374d226e26fbbdb782b8f8\n      dup4\n      codecopy\n      dup2\n      mload\n      swap2\n      mstore\n        /* \"@openzeppelin/contracts/access/AccessControl.sol\":2473:2489  _checkRole(role) */\n      tag_398\n        /* \"@openzeppelin/contracts/access/AccessControl.sol\":2484:2488  role */\n      dup2\n        /* \"@openzeppelin/contracts/access/AccessControl.sol\":2473:2483  _checkRole */\n      tag_252\n        /* \"@openzeppelin/contracts/access/AccessControl.sol\":2473:2489  _checkRole(role) */\n      jump\t// in\n    tag_398:\n        /* \"CrossFi-Treasury-Guard/contracts/AIScoreRegistry.sol\":9357:9358  0 */\n      0x00\n        /* \"CrossFi-Treasury-Guard/contracts/AIScoreRegistry.sol\":9334:9346  modelVersion */\n      dup4\n        /* \"CrossFi-Treasury-Guard/contracts/AIScoreRegistry.sol\":9328:9354  bytes(modelVersion).length */\n      mload\n        /* \"CrossFi-Treasury-Guard/contracts/AIScoreRegistry.sol\":9328:9358  bytes(modelVersion).length > 0 */\n      gt\n        /* \"CrossFi-Treasury-Guard/contracts/AIScoreRegistry.sol\":9320:9384  require(bytes(modelVersion).length > 0, \"Invalid model version\") */\n      tag_400\n      jumpi\n      mload(0x40)\n      shl(0xe5, 0x461bcd)\n      dup2\n      mstore\n        /* \"#utility.yul\":22423:22425   */\n      0x20\n        /* \"CrossFi-Treasury-Guard/contracts/AIScoreRegistry.sol\":9320:9384  require(bytes(modelVersion).length > 0, \"Invalid model version\") */\n      0x04\n      dup3\n      add\n        /* \"#utility.yul\":22405:22426   */\n      mstore\n        /* \"#utility.yul\":22462:22464   */\n      0x15\n        /* \"#utility.yul\":22442:22460   */\n      0x24\n      dup3\n      add\n        /* \"#utility.yul\":22435:22465   */\n      mstore\n      shl(0x59, 0x24b73b30b634b21036b7b232b6103b32b939b4b7b7)\n        /* \"#utility.yul\":22481:22499   */\n      0x44\n      dup3\n      add\n        /* \"#utility.yul\":22474:22525   */\n      mstore\n        /* \"#utility.yul\":22542:22560   */\n      0x64\n      add\n        /* \"CrossFi-Treasury-Guard/contracts/AIScoreRegistry.sol\":9320:9384  require(bytes(modelVersion).length > 0, \"Invalid model version\") */\n      tag_205\n        /* \"#utility.yul\":22221:22566   */\n      jump\n        /* \"CrossFi-Treasury-Guard/contracts/AIScoreRegistry.sol\":9320:9384  require(bytes(modelVersion).length > 0, \"Invalid model version\") */\n    tag_400:\n        /* \"CrossFi-Treasury-Guard/contracts/AIScoreRegistry.sol\":9426:9435  supported */\n      dup2\n        /* \"CrossFi-Treasury-Guard/contracts/AIScoreRegistry.sol\":9394:9409  supportedModels */\n      0x05\n        /* \"CrossFi-Treasury-Guard/contracts/AIScoreRegistry.sol\":9410:9422  modelVersion */\n      dup5\n        /* \"CrossFi-Treasury-Guard/contracts/AIScoreRegistry.sol\":9394:9423  supportedModels[modelVersion] */\n      mload(0x40)\n      tag_403\n      swap2\n      swap1\n      tag_309\n      jump\t// in\n    tag_403:\n      swap1\n      dup2\n      mstore\n      mload(0x40)\n      swap1\n      dup2\n      swap1\n      sub\n      0x20\n      add\n      dup2\n      keccak256\n        /* \"CrossFi-Treasury-Guard/contracts/AIScoreRegistry.sol\":9394:9435  supportedModels[modelVersion] = supported */\n      dup1\n      sload\n      swap3\n      iszero\n      iszero\n      not(0xff)\n      swap1\n      swap4\n      and\n      swap3\n      swap1\n      swap3\n      or\n      swap1\n      swap2\n      sstore\n        /* \"CrossFi-Treasury-Guard/contracts/AIScoreRegistry.sol\":9450:9489  ModelSupported(modelVersion, supported) */\n      0x2e5180543742ece2db44ed70b2619f2bf555a29a7bdead994736174f0d90a9b6\n      swap1\n      tag_404\n      swap1\n        /* \"CrossFi-Treasury-Guard/contracts/AIScoreRegistry.sol\":9465:9477  modelVersion */\n      dup6\n      swap1\n        /* \"CrossFi-Treasury-Guard/contracts/AIScoreRegistry.sol\":9479:9488  supported */\n      dup6\n      swap1\n        /* \"CrossFi-Treasury-Guard/contracts/AIScoreRegistry.sol\":9450:9489  ModelSupported(modelVersion, supported) */\n      tag_405\n      jump\t// in\n    tag_404:\n      mload(0x40)\n      dup1\n      swap2\n      sub\n      swap1\n      log1\n        /* \"CrossFi-Treasury-Guard/contracts/AIScoreRegistry.sol\":9209:9496  function setSupportedModel(string memory modelVersion, bool supported) external onlyRole(ADMIN_ROLE) {... */\n      pop\n      pop\n      pop\n      jump\t// out\n        /* \"CrossFi-Treasury-Guard/contracts/AIScoreRegistry.sol\":7484:7743  function getScoringBreakdown(uint256 proposalId) external view validProposalId(proposalId) returns (ScoringBreakdown memory breakdown) {... */\n    tag_173:\n      0x40\n      dup1\n      mload\n      0xa0\n      dup2\n      add\n      dup3\n      mstore\n      0x00\n      dup1\n      dup3\n      mstore\n      0x20\n      dup3\n      add\n      dup2\n      swap1\n      mstore\n      swap2\n      dup2\n      add\n      dup3\n      swap1\n      mstore\n      0x60\n      dup2\n      add\n      dup3\n      swap1\n      mstore\n      0x80\n      dup2\n      add\n      swap2\n      swap1\n      swap2\n      mstore\n        /* \"CrossFi-Treasury-Guard/contracts/AIScoreRegistry.sol\":7563:7573  proposalId */\n      dup2\n        /* \"CrossFi-Treasury-Guard/contracts/AIScoreRegistry.sol\":2101:2102  0 */\n      0x00\n        /* \"CrossFi-Treasury-Guard/contracts/AIScoreRegistry.sol\":2088:2098  proposalId */\n      dup2\n        /* \"CrossFi-Treasury-Guard/contracts/AIScoreRegistry.sol\":2088:2102  proposalId > 0 */\n      gt\n        /* \"CrossFi-Treasury-Guard/contracts/AIScoreRegistry.sol\":2080:2126  require(proposalId > 0, \"Invalid proposal ID\") */\n      tag_410\n      jumpi\n      mload(0x40)\n      shl(0xe5, 0x461bcd)\n      dup2\n      mstore\n      0x04\n      add\n      tag_205\n      swap1\n      tag_206\n      jump\t// in\n    tag_410:\n        /* \"CrossFi-Treasury-Guard/contracts/AIScoreRegistry.sol\":7637:7657  aiScores[proposalId] */\n      0x00\n      dup4\n      dup2\n      mstore\n        /* \"CrossFi-Treasury-Guard/contracts/AIScoreRegistry.sol\":7637:7645  aiScores */\n      0x03\n        /* \"CrossFi-Treasury-Guard/contracts/AIScoreRegistry.sol\":7637:7657  aiScores[proposalId] */\n      0x20\n      mstore\n      0x40\n      swap1\n      keccak256\n        /* \"CrossFi-Treasury-Guard/contracts/AIScoreRegistry.sol\":7637:7664  aiScores[proposalId].exists */\n      0x05\n      add\n      sload\n      shl(0xa0, 0x01)\n      swap1\n      div\n      0xff\n      and\n        /* \"CrossFi-Treasury-Guard/contracts/AIScoreRegistry.sol\":7629:7689  require(aiScores[proposalId].exists, \"Score does not exist\") */\n      tag_413\n      jumpi\n      mload(0x40)\n      shl(0xe5, 0x461bcd)\n      dup2\n      mstore\n      0x04\n      add\n      tag_205\n      swap1\n      tag_233\n      jump\t// in\n    tag_413:\n      pop\n      pop\n        /* \"CrossFi-Treasury-Guard/contracts/AIScoreRegistry.sol\":7706:7726  aiScores[proposalId] */\n      0x00\n      swap1\n      dup2\n      mstore\n        /* \"CrossFi-Treasury-Guard/contracts/AIScoreRegistry.sol\":7706:7714  aiScores */\n      0x03\n        /* \"CrossFi-Treasury-Guard/contracts/AIScoreRegistry.sol\":7706:7726  aiScores[proposalId] */\n      0x20\n      swap1\n      dup2\n      mstore\n      0x40\n      swap2\n      dup3\n      swap1\n      keccak256\n        /* \"CrossFi-Treasury-Guard/contracts/AIScoreRegistry.sol\":7699:7736  return aiScores[proposalId].breakdown */\n      dup3\n      mload\n      0xa0\n      dup2\n      add\n      dup5\n      mstore\n        /* \"CrossFi-Treasury-Guard/contracts/AIScoreRegistry.sol\":7706:7736  aiScores[proposalId].breakdown */\n      0x06\n      swap1\n      swap2\n      add\n        /* \"CrossFi-Treasury-Guard/contracts/AIScoreRegistry.sol\":7699:7736  return aiScores[proposalId].breakdown */\n      sload\n      0xff\n      dup1\n      dup3\n      and\n      dup4\n      mstore\n      0x0100\n      dup3\n      div\n      dup2\n      and\n      swap4\n      dup4\n      add\n      swap4\n      swap1\n      swap4\n      mstore\n      0x010000\n      dup2\n      div\n      dup4\n      and\n      swap4\n      dup3\n      add\n      swap4\n      swap1\n      swap4\n      mstore\n      0x01000000\n      dup4\n      div\n      dup3\n      and\n      0x60\n      dup3\n      add\n      mstore\n      0x0100000000\n      swap1\n      swap3\n      div\n      and\n      0x80\n      dup3\n      add\n      mstore\n      swap1\n        /* \"CrossFi-Treasury-Guard/contracts/AIScoreRegistry.sol\":7484:7743  function getScoringBreakdown(uint256 proposalId) external view validProposalId(proposalId) returns (ScoringBreakdown memory breakdown) {... */\n      jump\t// out\n        /* \"@openzeppelin/contracts/access/AccessControl.sol\":4618:4756  function revokeRole(bytes32 role, address account) public virtual onlyRole(getRoleAdmin(role)) {... */\n    tag_178:\n        /* \"@openzeppelin/contracts/access/AccessControl.sol\":3851:3858  bytes32 */\n      0x00\n        /* \"@openzeppelin/contracts/access/AccessControl.sol\":3877:3889  _roles[role] */\n      dup3\n      dup2\n      mstore\n      0x20\n      dup2\n      swap1\n      mstore\n      0x40\n      swap1\n      keccak256\n        /* \"@openzeppelin/contracts/access/AccessControl.sol\":3877:3899  _roles[role].adminRole */\n      0x01\n      add\n      sload\n        /* \"@openzeppelin/contracts/access/AccessControl.sol\":2473:2489  _checkRole(role) */\n      tag_417\n        /* \"@openzeppelin/contracts/access/AccessControl.sol\":2484:2488  role */\n      dup2\n        /* \"@openzeppelin/contracts/access/AccessControl.sol\":2473:2483  _checkRole */\n      tag_252\n        /* \"@openzeppelin/contracts/access/AccessControl.sol\":2473:2489  _checkRole(role) */\n      jump\t// in\n    tag_417:\n        /* \"@openzeppelin/contracts/access/AccessControl.sol\":4723:4749  _revokeRole(role, account) */\n      tag_254\n        /* \"@openzeppelin/contracts/access/AccessControl.sol\":4735:4739  role */\n      dup4\n        /* \"@openzeppelin/contracts/access/AccessControl.sol\":4741:4748  account */\n      dup4\n        /* \"@openzeppelin/contracts/access/AccessControl.sol\":4723:4734  _revokeRole */\n      tag_261\n        /* \"@openzeppelin/contracts/access/AccessControl.sol\":4723:4749  _revokeRole(role, account) */\n      jump\t// in\n        /* \"CrossFi-Treasury-Guard/contracts/AIScoreRegistry.sol\":8611:9043  function setOracleAuthorization(address oracle, bool authorized) external onlyRole(ADMIN_ROLE) {... */\n    tag_182:\n      0x00\n      dup1\n      mload\n      0x20\n      data_cb864c43dd5d441bb6271f424f11befa622c032dfd374d226e26fbbdb782b8f8\n      dup4\n      codecopy\n      dup2\n      mload\n      swap2\n      mstore\n        /* \"@openzeppelin/contracts/access/AccessControl.sol\":2473:2489  _checkRole(role) */\n      tag_421\n        /* \"@openzeppelin/contracts/access/AccessControl.sol\":2484:2488  role */\n      dup2\n        /* \"@openzeppelin/contracts/access/AccessControl.sol\":2473:2483  _checkRole */\n      tag_252\n        /* \"@openzeppelin/contracts/access/AccessControl.sol\":2473:2489  _checkRole(role) */\n      jump\t// in\n    tag_421:\n      sub(shl(0xa0, 0x01), 0x01)\n        /* \"CrossFi-Treasury-Guard/contracts/AIScoreRegistry.sol\":8724:8744  oracle != address(0) */\n      dup4\n      and\n        /* \"CrossFi-Treasury-Guard/contracts/AIScoreRegistry.sol\":8716:8771  require(oracle != address(0), \"Invalid oracle address\") */\n      tag_423\n      jumpi\n      mload(0x40)\n      shl(0xe5, 0x461bcd)\n      dup2\n      mstore\n        /* \"#utility.yul\":23079:23081   */\n      0x20\n        /* \"CrossFi-Treasury-Guard/contracts/AIScoreRegistry.sol\":8716:8771  require(oracle != address(0), \"Invalid oracle address\") */\n      0x04\n      dup3\n      add\n        /* \"#utility.yul\":23061:23082   */\n      mstore\n        /* \"#utility.yul\":23118:23120   */\n      0x16\n        /* \"#utility.yul\":23098:23116   */\n      0x24\n      dup3\n      add\n        /* \"#utility.yul\":23091:23121   */\n      mstore\n      shl(0x50, 0x496e76616c6964206f7261636c652061646472657373)\n        /* \"#utility.yul\":23137:23155   */\n      0x44\n      dup3\n      add\n        /* \"#utility.yul\":23130:23182   */\n      mstore\n        /* \"#utility.yul\":23199:23217   */\n      0x64\n      add\n        /* \"CrossFi-Treasury-Guard/contracts/AIScoreRegistry.sol\":8716:8771  require(oracle != address(0), \"Invalid oracle address\") */\n      tag_205\n        /* \"#utility.yul\":22877:23223   */\n      jump\n        /* \"CrossFi-Treasury-Guard/contracts/AIScoreRegistry.sol\":8716:8771  require(oracle != address(0), \"Invalid oracle address\") */\n    tag_423:\n      sub(shl(0xa0, 0x01), 0x01)\n        /* \"CrossFi-Treasury-Guard/contracts/AIScoreRegistry.sol\":8781:8806  authorizedOracles[oracle] */\n      dup4\n      and\n      0x00\n      swap1\n      dup2\n      mstore\n        /* \"CrossFi-Treasury-Guard/contracts/AIScoreRegistry.sol\":8781:8798  authorizedOracles */\n      0x04\n        /* \"CrossFi-Treasury-Guard/contracts/AIScoreRegistry.sol\":8781:8806  authorizedOracles[oracle] */\n      0x20\n      mstore\n      0x40\n      swap1\n      keccak256\n        /* \"CrossFi-Treasury-Guard/contracts/AIScoreRegistry.sol\":8781:8819  authorizedOracles[oracle] = authorized */\n      dup1\n      sload\n      not(0xff)\n      and\n      dup4\n      iszero\n      dup1\n      iszero\n      swap2\n      swap1\n      swap2\n      or\n      swap1\n      swap2\n      sstore\n        /* \"CrossFi-Treasury-Guard/contracts/AIScoreRegistry.sol\":8838:8977  if (authorized) {... */\n      tag_426\n      jumpi\n        /* \"CrossFi-Treasury-Guard/contracts/AIScoreRegistry.sol\":8868:8901  grantRole(AI_ORACLE_ROLE, oracle) */\n      tag_427\n      0x00\n      dup1\n      mload\n      0x20\n      data_a33092ec2ea5e84579a4a7f81a8171c84a984183e655ab76a6ea5c0d5344c7b0\n      dup4\n      codecopy\n      dup2\n      mload\n      swap2\n      mstore\n        /* \"CrossFi-Treasury-Guard/contracts/AIScoreRegistry.sol\":8894:8900  oracle */\n      dup5\n        /* \"CrossFi-Treasury-Guard/contracts/AIScoreRegistry.sol\":8868:8877  grantRole */\n      tag_83\n        /* \"CrossFi-Treasury-Guard/contracts/AIScoreRegistry.sol\":8868:8901  grantRole(AI_ORACLE_ROLE, oracle) */\n      jump\t// in\n    tag_427:\n        /* \"CrossFi-Treasury-Guard/contracts/AIScoreRegistry.sol\":8838:8977  if (authorized) {... */\n      jump(tag_429)\n    tag_426:\n        /* \"CrossFi-Treasury-Guard/contracts/AIScoreRegistry.sol\":8932:8966  revokeRole(AI_ORACLE_ROLE, oracle) */\n      tag_429\n      0x00\n      dup1\n      mload\n      0x20\n      data_a33092ec2ea5e84579a4a7f81a8171c84a984183e655ab76a6ea5c0d5344c7b0\n      dup4\n      codecopy\n      dup2\n      mload\n      swap2\n      mstore\n        /* \"CrossFi-Treasury-Guard/contracts/AIScoreRegistry.sol\":8959:8965  oracle */\n      dup5\n        /* \"CrossFi-Treasury-Guard/contracts/AIScoreRegistry.sol\":8932:8942  revokeRole */\n      tag_178\n        /* \"CrossFi-Treasury-Guard/contracts/AIScoreRegistry.sol\":8932:8966  revokeRole(AI_ORACLE_ROLE, oracle) */\n      jump\t// in\n    tag_429:\n        /* \"CrossFi-Treasury-Guard/contracts/AIScoreRegistry.sol\":9017:9023  oracle */\n      dup3\n      sub(shl(0xa0, 0x01), 0x01)\n        /* \"CrossFi-Treasury-Guard/contracts/AIScoreRegistry.sol\":9000:9036  OracleAuthorized(oracle, authorized) */\n      and\n      0x82a8fb1e779ea45ad427cc612e47087f5386a567e49dce488185e40646fa48d5\n        /* \"CrossFi-Treasury-Guard/contracts/AIScoreRegistry.sol\":9025:9035  authorized */\n      dup4\n        /* \"CrossFi-Treasury-Guard/contracts/AIScoreRegistry.sol\":9000:9036  OracleAuthorized(oracle, authorized) */\n      mload(0x40)\n      tag_395\n      swap2\n        /* \"#utility.yul\":566:580   */\n      iszero\n        /* \"#utility.yul\":559:581   */\n      iszero\n        /* \"#utility.yul\":541:582   */\n      dup2\n      mstore\n        /* \"#utility.yul\":529:531   */\n      0x20\n        /* \"#utility.yul\":514:532   */\n      add\n      swap1\n        /* \"#utility.yul\":401:588   */\n      jump\n        /* \"CrossFi-Treasury-Guard/contracts/AIScoreRegistry.sol\":7087:7320  function getDetailedAIScore(uint256 proposalId) external view validProposalId(proposalId) returns (AIScoreData memory) {... */\n    tag_185:\n        /* \"CrossFi-Treasury-Guard/contracts/AIScoreRegistry.sol\":7186:7204  AIScoreData memory */\n      tag_431\n      0x40\n      dup1\n      mload\n      0x0100\n      dup2\n      add\n      dup3\n      mstore\n      0x00\n      dup1\n      dup3\n      mstore\n      0x20\n      dup1\n      dup4\n      add\n      dup3\n      swap1\n      mstore\n      0x60\n      dup4\n      dup6\n      add\n      dup2\n      swap1\n      mstore\n      dup1\n      dup5\n      add\n      dup2\n      swap1\n      mstore\n      0x80\n      dup1\n      dup6\n      add\n      dup5\n      swap1\n      mstore\n      0xa0\n      dup1\n      dup7\n      add\n      dup6\n      swap1\n      mstore\n      0xc0\n      dup7\n      add\n      dup6\n      swap1\n      mstore\n      dup7\n      mload\n      swap1\n      dup2\n      add\n      dup8\n      mstore\n      dup5\n      dup2\n      mstore\n      swap3\n      dup4\n      add\n      dup5\n      swap1\n      mstore\n      swap5\n      dup3\n      add\n      dup4\n      swap1\n      mstore\n      dup2\n      add\n      dup3\n      swap1\n      mstore\n      swap3\n      dup4\n      add\n      mstore\n      swap1\n      0xe0\n      dup3\n      add\n      mstore\n      swap1\n      jump\n    tag_431:\n        /* \"CrossFi-Treasury-Guard/contracts/AIScoreRegistry.sol\":7165:7175  proposalId */\n      dup2\n        /* \"CrossFi-Treasury-Guard/contracts/AIScoreRegistry.sol\":2101:2102  0 */\n      0x00\n        /* \"CrossFi-Treasury-Guard/contracts/AIScoreRegistry.sol\":2088:2098  proposalId */\n      dup2\n        /* \"CrossFi-Treasury-Guard/contracts/AIScoreRegistry.sol\":2088:2102  proposalId > 0 */\n      gt\n        /* \"CrossFi-Treasury-Guard/contracts/AIScoreRegistry.sol\":2080:2126  require(proposalId > 0, \"Invalid proposal ID\") */\n      tag_434\n      jumpi\n      mload(0x40)\n      shl(0xe5, 0x461bcd)\n      dup2\n      mstore\n      0x04\n      add\n      tag_205\n      swap1\n      tag_206\n      jump\t// in\n    tag_434:\n        /* \"CrossFi-Treasury-Guard/contracts/AIScoreRegistry.sol\":7224:7244  aiScores[proposalId] */\n      0x00\n      dup4\n      dup2\n      mstore\n        /* \"CrossFi-Treasury-Guard/contracts/AIScoreRegistry.sol\":7224:7232  aiScores */\n      0x03\n        /* \"CrossFi-Treasury-Guard/contracts/AIScoreRegistry.sol\":7224:7244  aiScores[proposalId] */\n      0x20\n      mstore\n      0x40\n      swap1\n      keccak256\n        /* \"CrossFi-Treasury-Guard/contracts/AIScoreRegistry.sol\":7224:7251  aiScores[proposalId].exists */\n      0x05\n      add\n      sload\n      shl(0xa0, 0x01)\n      swap1\n      div\n      0xff\n      and\n        /* \"CrossFi-Treasury-Guard/contracts/AIScoreRegistry.sol\":7216:7276  require(aiScores[proposalId].exists, \"Score does not exist\") */\n      tag_437\n      jumpi\n      mload(0x40)\n      shl(0xe5, 0x461bcd)\n      dup2\n      mstore\n      0x04\n      add\n      tag_205\n      swap1\n      tag_233\n      jump\t// in\n    tag_437:\n        /* \"CrossFi-Treasury-Guard/contracts/AIScoreRegistry.sol\":7293:7301  aiScores */\n      0x03\n        /* \"CrossFi-Treasury-Guard/contracts/AIScoreRegistry.sol\":7293:7313  aiScores[proposalId] */\n      0x00\n        /* \"CrossFi-Treasury-Guard/contracts/AIScoreRegistry.sol\":7302:7312  proposalId */\n      dup5\n        /* \"CrossFi-Treasury-Guard/contracts/AIScoreRegistry.sol\":7293:7313  aiScores[proposalId] */\n      dup2\n      mstore\n      0x20\n      add\n      swap1\n      dup2\n      mstore\n      0x20\n      add\n      0x00\n      keccak256\n        /* \"CrossFi-Treasury-Guard/contracts/AIScoreRegistry.sol\":7286:7313  return aiScores[proposalId] */\n      mload(0x40)\n      dup1\n      0x0100\n      add\n      0x40\n      mstore\n      swap1\n      dup2\n      0x00\n      dup3\n      add\n      sload\n      dup2\n      mstore\n      0x20\n      add\n      0x01\n      dup3\n      add\n      sload\n      dup2\n      mstore\n      0x20\n      add\n      0x02\n      dup3\n      add\n      dup1\n      sload\n      tag_439\n      swap1\n      tag_209\n      jump\t// in\n    tag_439:\n      dup1\n      0x1f\n      add\n      0x20\n      dup1\n      swap2\n      div\n      mul\n      0x20\n      add\n      mload(0x40)\n      swap1\n      dup2\n      add\n      0x40\n      mstore\n      dup1\n      swap3\n      swap2\n      swap1\n      dup2\n      dup2\n      mstore\n      0x20\n      add\n      dup3\n      dup1\n      sload\n      tag_440\n      swap1\n      tag_209\n      jump\t// in\n    tag_440:\n      dup1\n      iszero\n      tag_441\n      jumpi\n      dup1\n      0x1f\n      lt\n      tag_442\n      jumpi\n      0x0100\n      dup1\n      dup4\n      sload\n      div\n      mul\n      dup4\n      mstore\n      swap2\n      0x20\n      add\n      swap2\n      jump(tag_441)\n    tag_442:\n      dup3\n      add\n      swap2\n      swap1\n      0x00\n      mstore\n      keccak256(0x00, 0x20)\n      swap1\n    tag_443:\n      dup2\n      sload\n      dup2\n      mstore\n      swap1\n      0x01\n      add\n      swap1\n      0x20\n      add\n      dup1\n      dup4\n      gt\n      tag_443\n      jumpi\n      dup3\n      swap1\n      sub\n      0x1f\n      and\n      dup3\n      add\n      swap2\n    tag_441:\n      pop\n      pop\n      pop\n      pop\n      pop\n      dup2\n      mstore\n      0x20\n      add\n      0x03\n      dup3\n      add\n      dup1\n      sload\n      tag_444\n      swap1\n      tag_209\n      jump\t// in\n    tag_444:\n      dup1\n      0x1f\n      add\n      0x20\n      dup1\n      swap2\n      div\n      mul\n      0x20\n      add\n      mload(0x40)\n      swap1\n      dup2\n      add\n      0x40\n      mstore\n      dup1\n      swap3\n      swap2\n      swap1\n      dup2\n      dup2\n      mstore\n      0x20\n      add\n      dup3\n      dup1\n      sload\n      tag_445\n      swap1\n      tag_209\n      jump\t// in\n    tag_445:\n      dup1\n      iszero\n      tag_446\n      jumpi\n      dup1\n      0x1f\n      lt\n      tag_447\n      jumpi\n      0x0100\n      dup1\n      dup4\n      sload\n      div\n      mul\n      dup4\n      mstore\n      swap2\n      0x20\n      add\n      swap2\n      jump(tag_446)\n    tag_447:\n      dup3\n      add\n      swap2\n      swap1\n      0x00\n      mstore\n      keccak256(0x00, 0x20)\n      swap1\n    tag_448:\n      dup2\n      sload\n      dup2\n      mstore\n      swap1\n      0x01\n      add\n      swap1\n      0x20\n      add\n      dup1\n      dup4\n      gt\n      tag_448\n      jumpi\n      dup3\n      swap1\n      sub\n      0x1f\n      and\n      dup3\n      add\n      swap2\n    tag_446:\n      pop\n      pop\n      pop\n      swap2\n      dup4\n      mstore\n      pop\n      pop\n      0x04\n      dup3\n      add\n      sload\n      0x20\n      dup1\n      dup4\n      add\n      swap2\n      swap1\n      swap2\n      mstore\n      0x05\n      dup4\n      add\n      sload\n      sub(shl(0xa0, 0x01), 0x01)\n      dup2\n      and\n      0x40\n      dup1\n      dup6\n      add\n      swap2\n      swap1\n      swap2\n      mstore\n      0xff\n      shl(0xa0, 0x01)\n      swap1\n      swap3\n      div\n      dup3\n      and\n      iszero\n      iszero\n      0x60\n      dup1\n      dup7\n      add\n      swap2\n      swap1\n      swap2\n      mstore\n      dup2\n      mload\n      0xa0\n      dup2\n      add\n      dup4\n      mstore\n      0x06\n      swap1\n      swap7\n      add\n      sload\n      dup1\n      dup5\n      and\n      dup8\n      mstore\n      0x0100\n      dup2\n      div\n      dup5\n      and\n      swap5\n      dup8\n      add\n      swap5\n      swap1\n      swap5\n      mstore\n      0x010000\n      dup5\n      div\n      dup4\n      and\n      swap2\n      dup7\n      add\n      swap2\n      swap1\n      swap2\n      mstore\n      0x01000000\n      dup4\n      div\n      dup3\n      and\n      swap1\n      dup6\n      add\n      mstore\n      0x0100000000\n      swap1\n      swap2\n      div\n      and\n      0x80\n      dup4\n      dup2\n      add\n      swap2\n      swap1\n      swap2\n      mstore\n      add\n      mstore\n      swap2\n      pop\n        /* \"CrossFi-Treasury-Guard/contracts/AIScoreRegistry.sol\":7087:7320  function getDetailedAIScore(uint256 proposalId) external view validProposalId(proposalId) returns (AIScoreData memory) {... */\n      pop\n      swap2\n      swap1\n      pop\n      jump\t// out\n        /* \"CrossFi-Treasury-Guard/contracts/utils/ExtendedAccessControl.sol\":2723:3087  function getAllRoles() public pure returns (bytes32[] memory roles) {... */\n    tag_192:\n        /* \"CrossFi-Treasury-Guard/contracts/utils/ExtendedAccessControl.sol\":2809:2825  new bytes32[](6) */\n      0x40\n      dup1\n      mload\n        /* \"CrossFi-Treasury-Guard/contracts/utils/ExtendedAccessControl.sol\":2823:2824  6 */\n      0x06\n        /* \"CrossFi-Treasury-Guard/contracts/utils/ExtendedAccessControl.sol\":2809:2825  new bytes32[](6) */\n      dup1\n      dup3\n      mstore\n      0xe0\n      dup3\n      add\n      swap1\n      swap3\n      mstore\n        /* \"CrossFi-Treasury-Guard/contracts/utils/ExtendedAccessControl.sol\":2767:2789  bytes32[] memory roles */\n      0x60\n      swap2\n        /* \"CrossFi-Treasury-Guard/contracts/utils/ExtendedAccessControl.sol\":2809:2825  new bytes32[](6) */\n      0x20\n      dup3\n      add\n      0xc0\n      dup1\n      calldatasize\n      dup4\n      calldatacopy\n      add\n      swap1\n      pop\n      pop\n        /* \"CrossFi-Treasury-Guard/contracts/utils/ExtendedAccessControl.sol\":2801:2825  roles = new bytes32[](6) */\n      swap1\n      pop\n        /* \"@openzeppelin/contracts/access/AccessControl.sol\":2241:2245  0x00 */\n      0x00\n        /* \"CrossFi-Treasury-Guard/contracts/utils/ExtendedAccessControl.sol\":2846:2864  DEFAULT_ADMIN_ROLE */\n      dup1\n      shl\n        /* \"CrossFi-Treasury-Guard/contracts/utils/ExtendedAccessControl.sol\":2835:2840  roles */\n      dup2\n        /* \"CrossFi-Treasury-Guard/contracts/utils/ExtendedAccessControl.sol\":2841:2842  0 */\n      0x00\n        /* \"CrossFi-Treasury-Guard/contracts/utils/ExtendedAccessControl.sol\":2835:2843  roles[0] */\n      dup2\n      mload\n      dup2\n      lt\n      tag_455\n      jumpi\n      tag_455\n      tag_276\n      jump\t// in\n    tag_455:\n      0x20\n      mul\n      0x20\n      add\n      add\n        /* \"CrossFi-Treasury-Guard/contracts/utils/ExtendedAccessControl.sol\":2835:2864  roles[0] = DEFAULT_ADMIN_ROLE */\n      dup2\n      dup2\n      mstore\n      pop\n      pop\n      0x00\n      dup1\n      mload\n      0x20\n      data_cb864c43dd5d441bb6271f424f11befa622c032dfd374d226e26fbbdb782b8f8\n      dup4\n      codecopy\n      dup2\n      mload\n      swap2\n      mstore\n        /* \"CrossFi-Treasury-Guard/contracts/utils/ExtendedAccessControl.sol\":2874:2879  roles */\n      dup2\n        /* \"CrossFi-Treasury-Guard/contracts/utils/ExtendedAccessControl.sol\":2880:2881  1 */\n      0x01\n        /* \"CrossFi-Treasury-Guard/contracts/utils/ExtendedAccessControl.sol\":2874:2882  roles[1] */\n      dup2\n      mload\n      dup2\n      lt\n      tag_457\n      jumpi\n      tag_457\n      tag_276\n      jump\t// in\n    tag_457:\n      0x20\n      mul\n      0x20\n      add\n      add\n        /* \"CrossFi-Treasury-Guard/contracts/utils/ExtendedAccessControl.sol\":2874:2895  roles[1] = ADMIN_ROLE */\n      dup2\n      dup2\n      mstore\n      pop\n      pop\n      0x00\n      dup1\n      mload\n      0x20\n      data_a33092ec2ea5e84579a4a7f81a8171c84a984183e655ab76a6ea5c0d5344c7b0\n      dup4\n      codecopy\n      dup2\n      mload\n      swap2\n      mstore\n        /* \"CrossFi-Treasury-Guard/contracts/utils/ExtendedAccessControl.sol\":2905:2910  roles */\n      dup2\n        /* \"CrossFi-Treasury-Guard/contracts/utils/ExtendedAccessControl.sol\":2911:2912  2 */\n      0x02\n        /* \"CrossFi-Treasury-Guard/contracts/utils/ExtendedAccessControl.sol\":2905:2913  roles[2] */\n      dup2\n      mload\n      dup2\n      lt\n      tag_459\n      jumpi\n      tag_459\n      tag_276\n      jump\t// in\n    tag_459:\n      0x20\n      mul\n      0x20\n      add\n      add\n        /* \"CrossFi-Treasury-Guard/contracts/utils/ExtendedAccessControl.sol\":2905:2930  roles[2] = AI_ORACLE_ROLE */\n      dup2\n      dup2\n      mstore\n      pop\n      pop\n        /* \"CrossFi-Treasury-Guard/contracts/utils/ExtendedAccessControl.sol\":494:528  keccak256(\"TREASURY_MANAGER_ROLE\") */\n      0xede9dcdb0ce99dc7cec9c7be9246ad08b37853683ad91569c187b647ddf5e21c\n        /* \"CrossFi-Treasury-Guard/contracts/utils/ExtendedAccessControl.sol\":2940:2945  roles */\n      dup2\n        /* \"CrossFi-Treasury-Guard/contracts/utils/ExtendedAccessControl.sol\":2946:2947  3 */\n      0x03\n        /* \"CrossFi-Treasury-Guard/contracts/utils/ExtendedAccessControl.sol\":2940:2948  roles[3] */\n      dup2\n      mload\n      dup2\n      lt\n      tag_461\n      jumpi\n      tag_461\n      tag_276\n      jump\t// in\n    tag_461:\n      0x20\n      mul\n      0x20\n      add\n      add\n        /* \"CrossFi-Treasury-Guard/contracts/utils/ExtendedAccessControl.sol\":2940:2972  roles[3] = TREASURY_MANAGER_ROLE */\n      dup2\n      dup2\n      mstore\n      pop\n      pop\n        /* \"CrossFi-Treasury-Guard/contracts/utils/ExtendedAccessControl.sol\":584:620  keccak256(\"MILESTONE_APPROVER_ROLE\") */\n      0x58223cdfb69946630d837d40b5c366a584f0217ada7fddd8318f2e08603cfa22\n        /* \"CrossFi-Treasury-Guard/contracts/utils/ExtendedAccessControl.sol\":2982:2987  roles */\n      dup2\n        /* \"CrossFi-Treasury-Guard/contracts/utils/ExtendedAccessControl.sol\":2988:2989  4 */\n      0x04\n        /* \"CrossFi-Treasury-Guard/contracts/utils/ExtendedAccessControl.sol\":2982:2990  roles[4] */\n      dup2\n      mload\n      dup2\n      lt\n      tag_463\n      jumpi\n      tag_463\n      tag_276\n      jump\t// in\n    tag_463:\n      0x20\n      mul\n      0x20\n      add\n      add\n        /* \"CrossFi-Treasury-Guard/contracts/utils/ExtendedAccessControl.sol\":2982:3016  roles[4] = MILESTONE_APPROVER_ROLE */\n      dup2\n      dup2\n      mstore\n      pop\n      pop\n        /* \"CrossFi-Treasury-Guard/contracts/utils/ExtendedAccessControl.sol\":674:708  keccak256(\"DISPUTE_RESOLVER_ROLE\") */\n      0x7b8bb8356a3f32f5c111ff23f050d97f08988e0883529ea7bff3b918887a6e0e\n        /* \"CrossFi-Treasury-Guard/contracts/utils/ExtendedAccessControl.sol\":3026:3031  roles */\n      dup2\n        /* \"CrossFi-Treasury-Guard/contracts/utils/ExtendedAccessControl.sol\":3032:3033  5 */\n      0x05\n        /* \"CrossFi-Treasury-Guard/contracts/utils/ExtendedAccessControl.sol\":3026:3034  roles[5] */\n      dup2\n      mload\n      dup2\n      lt\n      tag_465\n      jumpi\n      tag_465\n      tag_276\n      jump\t// in\n    tag_465:\n      0x20\n      mul\n      0x20\n      add\n      add\n        /* \"CrossFi-Treasury-Guard/contracts/utils/ExtendedAccessControl.sol\":3026:3058  roles[5] = DISPUTE_RESOLVER_ROLE */\n      dup2\n      dup2\n      mstore\n      pop\n      pop\n        /* \"CrossFi-Treasury-Guard/contracts/utils/ExtendedAccessControl.sol\":2723:3087  function getAllRoles() public pure returns (bytes32[] memory roles) {... */\n      swap1\n      jump\t// out\n        /* \"CrossFi-Treasury-Guard/contracts/AIScoreRegistry.sol\":9609:10091  function updateScoringCriteria(ScoringCriteria memory newCriteria) external onlyRole(ADMIN_ROLE) {... */\n    tag_198:\n      0x00\n      dup1\n      mload\n      0x20\n      data_cb864c43dd5d441bb6271f424f11befa622c032dfd374d226e26fbbdb782b8f8\n      dup4\n      codecopy\n      dup2\n      mload\n      swap2\n      mstore\n        /* \"@openzeppelin/contracts/access/AccessControl.sol\":2473:2489  _checkRole(role) */\n      tag_467\n        /* \"@openzeppelin/contracts/access/AccessControl.sol\":2484:2488  role */\n      dup2\n        /* \"@openzeppelin/contracts/access/AccessControl.sol\":2473:2483  _checkRole */\n      tag_252\n        /* \"@openzeppelin/contracts/access/AccessControl.sol\":2473:2489  _checkRole(role) */\n      jump\t// in\n    tag_467:\n        /* \"CrossFi-Treasury-Guard/contracts/AIScoreRegistry.sol\":9909:9931  newCriteria.innovation */\n      0x80\n      dup3\n      add\n      mload\n        /* \"CrossFi-Treasury-Guard/contracts/AIScoreRegistry.sol\":9867:9893  newCriteria.teamReputation */\n      0x60\n      dup4\n      add\n      mload\n        /* \"CrossFi-Treasury-Guard/contracts/AIScoreRegistry.sol\":9825:9851  newCriteria.riskAssessment */\n      0x40\n      dup5\n      add\n      mload\n        /* \"CrossFi-Treasury-Guard/contracts/AIScoreRegistry.sol\":9786:9809  newCriteria.feasibility */\n      0x20\n      dup6\n      add\n      mload\n        /* \"CrossFi-Treasury-Guard/contracts/AIScoreRegistry.sol\":9737:9770  newCriteria.ecosystemContribution */\n      dup6\n      mload\n        /* \"CrossFi-Treasury-Guard/contracts/AIScoreRegistry.sol\":9737:9809  newCriteria.ecosystemContribution + ... */\n      tag_469\n      swap2\n        /* \"CrossFi-Treasury-Guard/contracts/AIScoreRegistry.sol\":9786:9809  newCriteria.feasibility */\n      swap1\n        /* \"CrossFi-Treasury-Guard/contracts/AIScoreRegistry.sol\":9737:9809  newCriteria.ecosystemContribution + ... */\n      tag_330\n      jump\t// in\n    tag_469:\n        /* \"CrossFi-Treasury-Guard/contracts/AIScoreRegistry.sol\":9737:9851  newCriteria.ecosystemContribution + ... */\n      tag_470\n      swap2\n      swap1\n      tag_330\n      jump\t// in\n    tag_470:\n        /* \"CrossFi-Treasury-Guard/contracts/AIScoreRegistry.sol\":9737:9893  newCriteria.ecosystemContribution + ... */\n      tag_471\n      swap2\n      swap1\n      tag_330\n      jump\t// in\n    tag_471:\n        /* \"CrossFi-Treasury-Guard/contracts/AIScoreRegistry.sol\":9737:9931  newCriteria.ecosystemContribution + ... */\n      tag_472\n      swap2\n      swap1\n      tag_330\n      jump\t// in\n    tag_472:\n        /* \"CrossFi-Treasury-Guard/contracts/AIScoreRegistry.sol\":9737:9938  newCriteria.ecosystemContribution + ... */\n      0xff\n      and\n        /* \"CrossFi-Treasury-Guard/contracts/AIScoreRegistry.sol\":9935:9938  100 */\n      0x64\n        /* \"CrossFi-Treasury-Guard/contracts/AIScoreRegistry.sol\":9737:9938  newCriteria.ecosystemContribution + ... */\n      eq\n        /* \"CrossFi-Treasury-Guard/contracts/AIScoreRegistry.sol\":9716:9987  require(... */\n      tag_473\n      jumpi\n      mload(0x40)\n      shl(0xe5, 0x461bcd)\n      dup2\n      mstore\n        /* \"#utility.yul\":23430:23432   */\n      0x20\n        /* \"CrossFi-Treasury-Guard/contracts/AIScoreRegistry.sol\":9716:9987  require(... */\n      0x04\n      dup3\n      add\n        /* \"#utility.yul\":23412:23433   */\n      mstore\n        /* \"#utility.yul\":23469:23471   */\n      0x17\n        /* \"#utility.yul\":23449:23467   */\n      0x24\n      dup3\n      add\n        /* \"#utility.yul\":23442:23472   */\n      mstore\n        /* \"#utility.yul\":23508:23533   */\n      0x57656967687473206d7573742073756d20746f20313030000000000000000000\n        /* \"#utility.yul\":23488:23506   */\n      0x44\n      dup3\n      add\n        /* \"#utility.yul\":23481:23534   */\n      mstore\n        /* \"#utility.yul\":23551:23569   */\n      0x64\n      add\n        /* \"CrossFi-Treasury-Guard/contracts/AIScoreRegistry.sol\":9716:9987  require(... */\n      tag_205\n        /* \"#utility.yul\":23228:23575   */\n      jump\n        /* \"CrossFi-Treasury-Guard/contracts/AIScoreRegistry.sol\":9716:9987  require(... */\n    tag_473:\n        /* \"CrossFi-Treasury-Guard/contracts/AIScoreRegistry.sol\":10006:10034  scoringWeights = newCriteria */\n      dup2\n      mload\n        /* \"CrossFi-Treasury-Guard/contracts/AIScoreRegistry.sol\":10006:10020  scoringWeights */\n      0x06\n        /* \"CrossFi-Treasury-Guard/contracts/AIScoreRegistry.sol\":10006:10034  scoringWeights = newCriteria */\n      dup1\n      sload\n      0x20\n      dup6\n      add\n      mload\n      0x40\n      dup1\n      dup8\n      add\n      mload\n      0x60\n      dup9\n      add\n      mload\n      0x80\n      dup10\n      add\n      mload\n      0xff\n      swap1\n      dup2\n      and\n      0x0100000000\n      mul\n      not(0xff00000000)\n      swap3\n      dup3\n      and\n      0x01000000\n      mul\n      not(0xff000000)\n      swap5\n      dup4\n      and\n      0x010000\n      mul\n      swap5\n      swap1\n      swap5\n      and\n      not(0xffff0000)\n      swap7\n      dup4\n      and\n      0x0100\n      mul\n      not(0xffff)\n      swap1\n      swap9\n      and\n      swap3\n      swap1\n      swap10\n      and\n      swap2\n      swap1\n      swap2\n      or\n      swap6\n      swap1\n      swap6\n      or\n      swap4\n      swap1\n      swap4\n      and\n      swap6\n      swap1\n      swap6\n      or\n      swap5\n      swap1\n      swap5\n      or\n      and\n      or\n      swap1\n      sstore\n        /* \"CrossFi-Treasury-Guard/contracts/AIScoreRegistry.sol\":10049:10084  ScoringCriteriaUpdated(newCriteria) */\n      mload\n      0x90565f56924446477768885e9b20cf4cb9d2183f2ad4313f3e90f1dcaedcc0ae\n      swap1\n      tag_476\n      swap1\n        /* \"CrossFi-Treasury-Guard/contracts/AIScoreRegistry.sol\":10023:10034  newCriteria */\n      dup5\n      swap1\n        /* \"CrossFi-Treasury-Guard/contracts/AIScoreRegistry.sol\":10049:10084  ScoringCriteriaUpdated(newCriteria) */\n      tag_175\n      jump\t// in\n    tag_476:\n      mload(0x40)\n      dup1\n      swap2\n      sub\n      swap1\n      log1\n        /* \"CrossFi-Treasury-Guard/contracts/AIScoreRegistry.sol\":9609:10091  function updateScoringCriteria(ScoringCriteria memory newCriteria) external onlyRole(ADMIN_ROLE) {... */\n      pop\n      pop\n      jump\t// out\n        /* \"@openzeppelin/contracts/security/Pausable.sol\":1767:1873  function _requireNotPaused() internal view virtual {... */\n    tag_229:\n        /* \"@openzeppelin/contracts/security/Pausable.sol\":1685:1692  _paused */\n      and(0xff, sload(0x01))\n        /* \"@openzeppelin/contracts/security/Pausable.sol\":1836:1845  !paused() */\n      iszero\n        /* \"@openzeppelin/contracts/security/Pausable.sol\":1828:1866  require(!paused(), \"Pausable: paused\") */\n      tag_481\n      jumpi\n      mload(0x40)\n      shl(0xe5, 0x461bcd)\n      dup2\n      mstore\n        /* \"#utility.yul\":24057:24059   */\n      0x20\n        /* \"@openzeppelin/contracts/security/Pausable.sol\":1828:1866  require(!paused(), \"Pausable: paused\") */\n      0x04\n      dup3\n      add\n        /* \"#utility.yul\":24039:24060   */\n      mstore\n        /* \"#utility.yul\":24096:24098   */\n      0x10\n        /* \"#utility.yul\":24076:24094   */\n      0x24\n      dup3\n      add\n        /* \"#utility.yul\":24069:24099   */\n      mstore\n      shl(0x82, 0x14185d5cd8589b194e881c185d5cd959)\n        /* \"#utility.yul\":24115:24133   */\n      0x44\n      dup3\n      add\n        /* \"#utility.yul\":24108:24154   */\n      mstore\n        /* \"#utility.yul\":24171:24189   */\n      0x64\n      add\n        /* \"@openzeppelin/contracts/security/Pausable.sol\":1828:1866  require(!paused(), \"Pausable: paused\") */\n      tag_205\n        /* \"#utility.yul\":23855:24195   */\n      jump\n        /* \"@openzeppelin/contracts/security/Pausable.sol\":1828:1866  require(!paused(), \"Pausable: paused\") */\n    tag_481:\n        /* \"@openzeppelin/contracts/security/Pausable.sol\":1767:1873  function _requireNotPaused() internal view virtual {... */\n      jump\t// out\n        /* \"@openzeppelin/contracts/access/AccessControl.sol\":3175:3278  function _checkRole(bytes32 role) internal view virtual {... */\n    tag_252:\n        /* \"@openzeppelin/contracts/access/AccessControl.sol\":3241:3271  _checkRole(role, _msgSender()) */\n      tag_265\n        /* \"@openzeppelin/contracts/access/AccessControl.sol\":3252:3256  role */\n      dup2\n        /* \"@openzeppelin/contracts/utils/Context.sol\":735:745  msg.sender */\n      caller\n        /* \"@openzeppelin/contracts/access/AccessControl.sol\":3241:3251  _checkRole */\n      tag_487\n        /* \"@openzeppelin/contracts/access/AccessControl.sol\":3241:3271  _checkRole(role, _msgSender()) */\n      jump\t// in\n        /* \"@openzeppelin/contracts/access/AccessControl.sol\":6155:6471  function _grantRole(bytes32 role, address account) internal virtual returns (bool) {... */\n    tag_255:\n        /* \"@openzeppelin/contracts/access/AccessControl.sol\":6232:6236  bool */\n      0x00\n        /* \"@openzeppelin/contracts/access/AccessControl.sol\":6253:6275  hasRole(role, account) */\n      tag_489\n        /* \"@openzeppelin/contracts/access/AccessControl.sol\":6261:6265  role */\n      dup4\n        /* \"@openzeppelin/contracts/access/AccessControl.sol\":6267:6274  account */\n      dup4\n        /* \"@openzeppelin/contracts/access/AccessControl.sol\":6253:6260  hasRole */\n      tag_133\n        /* \"@openzeppelin/contracts/access/AccessControl.sol\":6253:6275  hasRole(role, account) */\n      jump\t// in\n    tag_489:\n        /* \"@openzeppelin/contracts/access/AccessControl.sol\":6248:6465  if (!hasRole(role, account)) {... */\n      tag_490\n      jumpi\n        /* \"@openzeppelin/contracts/access/AccessControl.sol\":6291:6297  _roles */\n      0x00\n        /* \"@openzeppelin/contracts/access/AccessControl.sol\":6291:6303  _roles[role] */\n      dup4\n      dup2\n      mstore\n      0x20\n      dup2\n      dup2\n      mstore\n      0x40\n      dup1\n      dup4\n      keccak256\n      sub(shl(0xa0, 0x01), 0x01)\n        /* \"@openzeppelin/contracts/access/AccessControl.sol\":6291:6320  _roles[role].hasRole[account] */\n      dup7\n      and\n      dup5\n      mstore\n      swap1\n      swap2\n      mstore\n      swap1\n      keccak256\n        /* \"@openzeppelin/contracts/access/AccessControl.sol\":6291:6327  _roles[role].hasRole[account] = true */\n      dup1\n      sload\n      not(0xff)\n      and\n        /* \"@openzeppelin/contracts/access/AccessControl.sol\":6323:6327  true */\n      0x01\n        /* \"@openzeppelin/contracts/access/AccessControl.sol\":6291:6327  _roles[role].hasRole[account] = true */\n      or\n      swap1\n      sstore\n        /* \"@openzeppelin/contracts/access/AccessControl.sol\":6373:6385  _msgSender() */\n      tag_491\n        /* \"@openzeppelin/contracts/utils/Context.sol\":735:745  msg.sender */\n      caller\n      swap1\n        /* \"@openzeppelin/contracts/utils/Context.sol\":656:752  function _msgSender() internal view virtual returns (address) {... */\n      jump\n        /* \"@openzeppelin/contracts/access/AccessControl.sol\":6373:6385  _msgSender() */\n    tag_491:\n      sub(shl(0xa0, 0x01), 0x01)\n        /* \"@openzeppelin/contracts/access/AccessControl.sol\":6346:6386  RoleGranted(role, account, _msgSender()) */\n      and\n        /* \"@openzeppelin/contracts/access/AccessControl.sol\":6364:6371  account */\n      dup3\n      sub(shl(0xa0, 0x01), 0x01)\n        /* \"@openzeppelin/contracts/access/AccessControl.sol\":6346:6386  RoleGranted(role, account, _msgSender()) */\n      and\n        /* \"@openzeppelin/contracts/access/AccessControl.sol\":6358:6362  role */\n      dup5\n        /* \"@openzeppelin/contracts/access/AccessControl.sol\":6346:6386  RoleGranted(role, account, _msgSender()) */\n      0x2f8788117e7eff1d82e926ec794901d17c78024a50270940304540a733656f0d\n      mload(0x40)\n      mload(0x40)\n      dup1\n      swap2\n      sub\n      swap1\n      log4\n      pop\n        /* \"@openzeppelin/contracts/access/AccessControl.sol\":6407:6411  true */\n      0x01\n        /* \"@openzeppelin/contracts/access/AccessControl.sol\":6400:6411  return true */\n      jump(tag_201)\n        /* \"@openzeppelin/contracts/access/AccessControl.sol\":6248:6465  if (!hasRole(role, account)) {... */\n    tag_490:\n      pop\n        /* \"@openzeppelin/contracts/access/AccessControl.sol\":6449:6454  false */\n      0x00\n        /* \"@openzeppelin/contracts/access/AccessControl.sol\":6442:6454  return false */\n      jump(tag_201)\n        /* \"@openzeppelin/contracts/access/AccessControl.sol\":6708:7025  function _revokeRole(bytes32 role, address account) internal virtual returns (bool) {... */\n    tag_261:\n        /* \"@openzeppelin/contracts/access/AccessControl.sol\":6786:6790  bool */\n      0x00\n        /* \"@openzeppelin/contracts/access/AccessControl.sol\":6806:6828  hasRole(role, account) */\n      tag_495\n        /* \"@openzeppelin/contracts/access/AccessControl.sol\":6814:6818  role */\n      dup4\n        /* \"@openzeppelin/contracts/access/AccessControl.sol\":6820:6827  account */\n      dup4\n        /* \"@openzeppelin/contracts/access/AccessControl.sol\":6806:6813  hasRole */\n      tag_133\n        /* \"@openzeppelin/contracts/access/AccessControl.sol\":6806:6828  hasRole(role, account) */\n      jump\t// in\n    tag_495:\n        /* \"@openzeppelin/contracts/access/AccessControl.sol\":6802:7019  if (hasRole(role, account)) {... */\n      iszero\n      tag_490\n      jumpi\n        /* \"@openzeppelin/contracts/access/AccessControl.sol\":6876:6881  false */\n      0x00\n        /* \"@openzeppelin/contracts/access/AccessControl.sol\":6844:6856  _roles[role] */\n      dup4\n      dup2\n      mstore\n      0x20\n      dup2\n      dup2\n      mstore\n      0x40\n      dup1\n      dup4\n      keccak256\n      sub(shl(0xa0, 0x01), 0x01)\n        /* \"@openzeppelin/contracts/access/AccessControl.sol\":6844:6873  _roles[role].hasRole[account] */\n      dup7\n      and\n      dup1\n      dup6\n      mstore\n      swap3\n      mstore\n      dup1\n      dup4\n      keccak256\n        /* \"@openzeppelin/contracts/access/AccessControl.sol\":6844:6881  _roles[role].hasRole[account] = false */\n      dup1\n      sload\n      not(0xff)\n      and\n      swap1\n      sstore\n        /* \"@openzeppelin/contracts/access/AccessControl.sol\":6900:6940  RoleRevoked(role, account, _msgSender()) */\n      mload\n        /* \"@openzeppelin/contracts/utils/Context.sol\":735:745  msg.sender */\n      caller\n      swap3\n        /* \"@openzeppelin/contracts/access/AccessControl.sol\":6844:6856  _roles[role] */\n      dup7\n      swap2\n        /* \"@openzeppelin/contracts/access/AccessControl.sol\":6900:6940  RoleRevoked(role, account, _msgSender()) */\n      0xf6391f5c32d9c69d2a47ea670b442974b53935d1edc7fd64eb21e047a839171b\n      swap2\n        /* \"@openzeppelin/contracts/access/AccessControl.sol\":6876:6881  false */\n      swap1\n        /* \"@openzeppelin/contracts/access/AccessControl.sol\":6900:6940  RoleRevoked(role, account, _msgSender()) */\n      log4\n      pop\n        /* \"@openzeppelin/contracts/access/AccessControl.sol\":6961:6965  true */\n      0x01\n        /* \"@openzeppelin/contracts/access/AccessControl.sol\":6954:6965  return true */\n      jump(tag_201)\n        /* \"@openzeppelin/contracts/security/Pausable.sol\":2433:2550  function _unpause() internal virtual whenPaused {... */\n    tag_266:\n        /* \"@openzeppelin/contracts/security/Pausable.sol\":1486:1502  _requirePaused() */\n      tag_500\n        /* \"@openzeppelin/contracts/security/Pausable.sol\":1486:1500  _requirePaused */\n      tag_501\n        /* \"@openzeppelin/contracts/security/Pausable.sol\":1486:1502  _requirePaused() */\n      jump\t// in\n    tag_500:\n        /* \"@openzeppelin/contracts/security/Pausable.sol\":2491:2498  _paused */\n      0x01\n        /* \"@openzeppelin/contracts/security/Pausable.sol\":2491:2506  _paused = false */\n      dup1\n      sload\n      not(0xff)\n      and\n      swap1\n      sstore\n        /* \"@openzeppelin/contracts/security/Pausable.sol\":2521:2543  Unpaused(_msgSender()) */\n      0x5db9ee0a495bf2e6ff9c91a7834c1ba4fdd244a5e8aa4e537bd38aeae4b073aa\n        /* \"@openzeppelin/contracts/utils/Context.sol\":735:745  msg.sender */\n      caller\n        /* \"@openzeppelin/contracts/security/Pausable.sol\":2530:2542  _msgSender() */\n    tag_503:\n        /* \"@openzeppelin/contracts/security/Pausable.sol\":2521:2543  Unpaused(_msgSender()) */\n      mload(0x40)\n      sub(shl(0xa0, 0x01), 0x01)\n        /* \"#utility.yul\":24364:24396   */\n      swap1\n      swap2\n      and\n        /* \"#utility.yul\":24346:24397   */\n      dup2\n      mstore\n        /* \"#utility.yul\":24334:24336   */\n      0x20\n        /* \"#utility.yul\":24319:24337   */\n      add\n        /* \"@openzeppelin/contracts/security/Pausable.sol\":2521:2543  Unpaused(_msgSender()) */\n      mload(0x40)\n      dup1\n      swap2\n      sub\n      swap1\n      log1\n        /* \"@openzeppelin/contracts/security/Pausable.sol\":2433:2550  function _unpause() internal virtual whenPaused {... */\n      jump\t// out\n        /* \"@openzeppelin/contracts/security/ReentrancyGuard.sol\":2336:2623  function _nonReentrantBefore() private {... */\n    tag_303:\n        /* \"@openzeppelin/contracts/security/ReentrancyGuard.sol\":1759:1760  2 */\n      0x02\n        /* \"@openzeppelin/contracts/security/ReentrancyGuard.sol\":2468:2475  _status */\n      dup1\n      sload\n        /* \"@openzeppelin/contracts/security/ReentrancyGuard.sol\":2468:2487  _status != _ENTERED */\n      sub\n        /* \"@openzeppelin/contracts/security/ReentrancyGuard.sol\":2460:2523  require(_status != _ENTERED, \"ReentrancyGuard: reentrant call\") */\n      tag_507\n      jumpi\n      mload(0x40)\n      shl(0xe5, 0x461bcd)\n      dup2\n      mstore\n        /* \"#utility.yul\":24610:24612   */\n      0x20\n        /* \"@openzeppelin/contracts/security/ReentrancyGuard.sol\":2460:2523  require(_status != _ENTERED, \"ReentrancyGuard: reentrant call\") */\n      0x04\n      dup3\n      add\n        /* \"#utility.yul\":24592:24613   */\n      mstore\n        /* \"#utility.yul\":24649:24651   */\n      0x1f\n        /* \"#utility.yul\":24629:24647   */\n      0x24\n      dup3\n      add\n        /* \"#utility.yul\":24622:24652   */\n      mstore\n        /* \"#utility.yul\":24688:24721   */\n      0x5265656e7472616e637947756172643a207265656e7472616e742063616c6c00\n        /* \"#utility.yul\":24668:24686   */\n      0x44\n      dup3\n      add\n        /* \"#utility.yul\":24661:24722   */\n      mstore\n        /* \"#utility.yul\":24739:24757   */\n      0x64\n      add\n        /* \"@openzeppelin/contracts/security/ReentrancyGuard.sol\":2460:2523  require(_status != _ENTERED, \"ReentrancyGuard: reentrant call\") */\n      tag_205\n        /* \"#utility.yul\":24408:24763   */\n      jump\n        /* \"@openzeppelin/contracts/security/ReentrancyGuard.sol\":2460:2523  require(_status != _ENTERED, \"ReentrancyGuard: reentrant call\") */\n    tag_507:\n        /* \"@openzeppelin/contracts/security/ReentrancyGuard.sol\":1759:1760  2 */\n      0x02\n        /* \"@openzeppelin/contracts/security/ReentrancyGuard.sol\":2598:2616  _status = _ENTERED */\n      dup1\n      sstore\n        /* \"@openzeppelin/contracts/security/ReentrancyGuard.sol\":2336:2623  function _nonReentrantBefore() private {... */\n      jump\t// out\n        /* \"@openzeppelin/contracts/security/Pausable.sol\":2186:2301  function _pause() internal virtual whenNotPaused {... */\n    tag_355:\n        /* \"@openzeppelin/contracts/security/Pausable.sol\":1239:1258  _requireNotPaused() */\n      tag_512\n        /* \"@openzeppelin/contracts/security/Pausable.sol\":1239:1256  _requireNotPaused */\n      tag_229\n        /* \"@openzeppelin/contracts/security/Pausable.sol\":1239:1258  _requireNotPaused() */\n      jump\t// in\n    tag_512:\n        /* \"@openzeppelin/contracts/security/Pausable.sol\":2255:2259  true */\n      0x01\n        /* \"@openzeppelin/contracts/security/Pausable.sol\":2245:2259  _paused = true */\n      dup1\n      sload\n      not(0xff)\n      and\n      dup2\n      or\n      swap1\n      sstore\n        /* \"@openzeppelin/contracts/security/Pausable.sol\":2274:2294  Paused(_msgSender()) */\n      0x62e78cea01bee320cd4e420270b5ea74000d11b0c9f74754ebdbfc544b05a258\n        /* \"@openzeppelin/contracts/utils/Context.sol\":735:745  msg.sender */\n      caller\n        /* \"@openzeppelin/contracts/security/Pausable.sol\":2281:2293  _msgSender() */\n      tag_503\n        /* \"@openzeppelin/contracts/utils/Context.sol\":656:752  function _msgSender() internal view virtual returns (address) {... */\n      jump\n        /* \"@openzeppelin/contracts/access/AccessControl.sol\":3408:3605  function _checkRole(bytes32 role, address account) internal view virtual {... */\n    tag_487:\n        /* \"@openzeppelin/contracts/access/AccessControl.sol\":3496:3518  hasRole(role, account) */\n      tag_517\n        /* \"@openzeppelin/contracts/access/AccessControl.sol\":3504:3508  role */\n      dup3\n        /* \"@openzeppelin/contracts/access/AccessControl.sol\":3510:3517  account */\n      dup3\n        /* \"@openzeppelin/contracts/access/AccessControl.sol\":3496:3503  hasRole */\n      tag_133\n        /* \"@openzeppelin/contracts/access/AccessControl.sol\":3496:3518  hasRole(role, account) */\n      jump\t// in\n    tag_517:\n        /* \"@openzeppelin/contracts/access/AccessControl.sol\":3491:3599  if (!hasRole(role, account)) {... */\n      tag_518\n      jumpi\n        /* \"@openzeppelin/contracts/access/AccessControl.sol\":3541:3588  AccessControlUnauthorizedAccount(account, role) */\n      mload(0x40)\n      shl(0xe0, 0xe2517d3f)\n      dup2\n      mstore\n      sub(shl(0xa0, 0x01), 0x01)\n        /* \"#utility.yul\":24960:24992   */\n      dup3\n      and\n        /* \"@openzeppelin/contracts/access/AccessControl.sol\":3541:3588  AccessControlUnauthorizedAccount(account, role) */\n      0x04\n      dup3\n      add\n        /* \"#utility.yul\":24942:24993   */\n      mstore\n        /* \"#utility.yul\":25009:25027   */\n      0x24\n      dup2\n      add\n        /* \"#utility.yul\":25002:25036   */\n      dup4\n      swap1\n      mstore\n        /* \"#utility.yul\":24915:24933   */\n      0x44\n      add\n        /* \"@openzeppelin/contracts/access/AccessControl.sol\":3541:3588  AccessControlUnauthorizedAccount(account, role) */\n      tag_205\n        /* \"#utility.yul\":24768:25042   */\n      jump\n        /* \"@openzeppelin/contracts/access/AccessControl.sol\":3491:3599  if (!hasRole(role, account)) {... */\n    tag_518:\n        /* \"@openzeppelin/contracts/access/AccessControl.sol\":3408:3605  function _checkRole(bytes32 role, address account) internal view virtual {... */\n      pop\n      pop\n      jump\t// out\n        /* \"@openzeppelin/contracts/security/Pausable.sol\":1945:2051  function _requirePaused() internal view virtual {... */\n    tag_501:\n        /* \"@openzeppelin/contracts/security/Pausable.sol\":1685:1692  _paused */\n      and(0xff, sload(0x01))\n        /* \"@openzeppelin/contracts/security/Pausable.sol\":2003:2044  require(paused(), \"Pausable: not paused\") */\n      tag_481\n      jumpi\n      mload(0x40)\n      shl(0xe5, 0x461bcd)\n      dup2\n      mstore\n        /* \"#utility.yul\":25249:25251   */\n      0x20\n        /* \"@openzeppelin/contracts/security/Pausable.sol\":2003:2044  require(paused(), \"Pausable: not paused\") */\n      0x04\n      dup3\n      add\n        /* \"#utility.yul\":25231:25252   */\n      mstore\n        /* \"#utility.yul\":25288:25290   */\n      0x14\n        /* \"#utility.yul\":25268:25286   */\n      0x24\n      dup3\n      add\n        /* \"#utility.yul\":25261:25291   */\n      mstore\n      shl(0x62, 0x14185d5cd8589b194e881b9bdd081c185d5cd959)\n        /* \"#utility.yul\":25307:25325   */\n      0x44\n      dup3\n      add\n        /* \"#utility.yul\":25300:25350   */\n      mstore\n        /* \"#utility.yul\":25367:25385   */\n      0x64\n      add\n        /* \"@openzeppelin/contracts/security/Pausable.sol\":2003:2044  require(paused(), \"Pausable: not paused\") */\n      tag_205\n        /* \"#utility.yul\":25047:25391   */\n      jump\n    tag_391:\n      pop\n      dup1\n      sload\n      tag_526\n      swap1\n      tag_209\n      jump\t// in\n    tag_526:\n      0x00\n      dup3\n      sstore\n      dup1\n      0x1f\n      lt\n      tag_528\n      jumpi\n      pop\n      pop\n      jump\t// out\n    tag_528:\n      0x1f\n      add\n      0x20\n      swap1\n      div\n      swap1\n      0x00\n      mstore\n      keccak256(0x00, 0x20)\n      swap1\n      dup2\n      add\n      swap1\n      tag_265\n      swap2\n      swap1\n    tag_532:\n      dup1\n      dup3\n      gt\n      iszero\n      tag_533\n      jumpi\n      0x00\n      dup2\n      sstore\n      0x01\n      add\n      jump(tag_532)\n    tag_533:\n      pop\n      swap1\n      jump\t// out\n        /* \"#utility.yul\":14:300   */\n    tag_51:\n        /* \"#utility.yul\":72:78   */\n      0x00\n        /* \"#utility.yul\":125:127   */\n      0x20\n        /* \"#utility.yul\":113:122   */\n      dup3\n        /* \"#utility.yul\":104:111   */\n      dup5\n        /* \"#utility.yul\":100:123   */\n      sub\n        /* \"#utility.yul\":96:128   */\n      slt\n        /* \"#utility.yul\":93:145   */\n      iszero\n      tag_550\n      jumpi\n        /* \"#utility.yul\":141:142   */\n      0x00\n        /* \"#utility.yul\":138:139   */\n      dup1\n        /* \"#utility.yul\":131:143   */\n      revert\n        /* \"#utility.yul\":93:145   */\n    tag_550:\n        /* \"#utility.yul\":167:190   */\n      dup2\n      calldataload\n      not(sub(shl(0xe0, 0x01), 0x01))\n        /* \"#utility.yul\":219:251   */\n      dup2\n      and\n        /* \"#utility.yul\":209:252   */\n      dup2\n      eq\n        /* \"#utility.yul\":199:270   */\n      tag_551\n      jumpi\n        /* \"#utility.yul\":266:267   */\n      0x00\n        /* \"#utility.yul\":263:264   */\n      dup1\n        /* \"#utility.yul\":256:268   */\n      revert\n        /* \"#utility.yul\":199:270   */\n    tag_551:\n        /* \"#utility.yul\":289:294   */\n      swap4\n        /* \"#utility.yul\":14:300   */\n      swap3\n      pop\n      pop\n      pop\n      jump\t// out\n        /* \"#utility.yul\":593:773   */\n    tag_57:\n        /* \"#utility.yul\":652:658   */\n      0x00\n        /* \"#utility.yul\":705:707   */\n      0x20\n        /* \"#utility.yul\":693:702   */\n      dup3\n        /* \"#utility.yul\":684:691   */\n      dup5\n        /* \"#utility.yul\":680:703   */\n      sub\n        /* \"#utility.yul\":676:708   */\n      slt\n        /* \"#utility.yul\":673:725   */\n      iszero\n      tag_555\n      jumpi\n        /* \"#utility.yul\":721:722   */\n      0x00\n        /* \"#utility.yul\":718:719   */\n      dup1\n        /* \"#utility.yul\":711:723   */\n      revert\n        /* \"#utility.yul\":673:725   */\n    tag_555:\n      pop\n        /* \"#utility.yul\":744:767   */\n      calldataload\n      swap2\n        /* \"#utility.yul\":593:773   */\n      swap1\n      pop\n      jump\t// out\n        /* \"#utility.yul\":778:1028   */\n    tag_535:\n        /* \"#utility.yul\":863:864   */\n      0x00\n        /* \"#utility.yul\":873:986   */\n    tag_557:\n        /* \"#utility.yul\":887:893   */\n      dup4\n        /* \"#utility.yul\":884:885   */\n      dup2\n        /* \"#utility.yul\":881:894   */\n      lt\n        /* \"#utility.yul\":873:986   */\n      iszero\n      tag_559\n      jumpi\n        /* \"#utility.yul\":963:974   */\n      dup2\n      dup2\n      add\n        /* \"#utility.yul\":957:975   */\n      mload\n        /* \"#utility.yul\":944:955   */\n      dup4\n      dup3\n      add\n        /* \"#utility.yul\":937:976   */\n      mstore\n        /* \"#utility.yul\":909:911   */\n      0x20\n        /* \"#utility.yul\":902:912   */\n      add\n        /* \"#utility.yul\":873:986   */\n      jump(tag_557)\n    tag_559:\n      pop\n      pop\n        /* \"#utility.yul\":1020:1021   */\n      0x00\n        /* \"#utility.yul\":1002:1018   */\n      swap2\n      add\n        /* \"#utility.yul\":995:1022   */\n      mstore\n        /* \"#utility.yul\":778:1028   */\n      jump\t// out\n        /* \"#utility.yul\":1033:1304   */\n    tag_536:\n        /* \"#utility.yul\":1075:1078   */\n      0x00\n        /* \"#utility.yul\":1113:1118   */\n      dup2\n        /* \"#utility.yul\":1107:1119   */\n      mload\n        /* \"#utility.yul\":1140:1146   */\n      dup1\n        /* \"#utility.yul\":1135:1138   */\n      dup5\n        /* \"#utility.yul\":1128:1147   */\n      mstore\n        /* \"#utility.yul\":1156:1232   */\n      tag_561\n        /* \"#utility.yul\":1225:1231   */\n      dup2\n        /* \"#utility.yul\":1218:1222   */\n      0x20\n        /* \"#utility.yul\":1213:1216   */\n      dup7\n        /* \"#utility.yul\":1209:1223   */\n      add\n        /* \"#utility.yul\":1202:1206   */\n      0x20\n        /* \"#utility.yul\":1195:1200   */\n      dup7\n        /* \"#utility.yul\":1191:1207   */\n      add\n        /* \"#utility.yul\":1156:1232   */\n      tag_535\n      jump\t// in\n    tag_561:\n        /* \"#utility.yul\":1286:1288   */\n      0x1f\n        /* \"#utility.yul\":1265:1280   */\n      add\n      not(0x1f)\n        /* \"#utility.yul\":1261:1290   */\n      and\n        /* \"#utility.yul\":1252:1291   */\n      swap3\n      swap1\n      swap3\n      add\n        /* \"#utility.yul\":1293:1297   */\n      0x20\n        /* \"#utility.yul\":1248:1298   */\n      add\n      swap3\n        /* \"#utility.yul\":1033:1304   */\n      swap2\n      pop\n      pop\n      jump\t// out\n        /* \"#utility.yul\":1309:1681   */\n    tag_60:\n        /* \"#utility.yul\":1508:1514   */\n      dup4\n        /* \"#utility.yul\":1497:1506   */\n      dup2\n        /* \"#utility.yul\":1490:1515   */\n      mstore\n        /* \"#utility.yul\":1551:1553   */\n      0x60\n        /* \"#utility.yul\":1546:1548   */\n      0x20\n        /* \"#utility.yul\":1535:1544   */\n      dup3\n        /* \"#utility.yul\":1531:1549   */\n      add\n        /* \"#utility.yul\":1524:1554   */\n      mstore\n        /* \"#utility.yul\":1471:1475   */\n      0x00\n        /* \"#utility.yul\":1571:1616   */\n      tag_563\n        /* \"#utility.yul\":1612:1614   */\n      0x60\n        /* \"#utility.yul\":1601:1610   */\n      dup4\n        /* \"#utility.yul\":1597:1615   */\n      add\n        /* \"#utility.yul\":1589:1595   */\n      dup6\n        /* \"#utility.yul\":1571:1616   */\n      tag_536\n      jump\t// in\n    tag_563:\n        /* \"#utility.yul\":1563:1616   */\n      swap1\n      pop\n        /* \"#utility.yul\":1666:1672   */\n      dup3\n        /* \"#utility.yul\":1659:1673   */\n      iszero\n        /* \"#utility.yul\":1652:1674   */\n      iszero\n        /* \"#utility.yul\":1647:1649   */\n      0x40\n        /* \"#utility.yul\":1636:1645   */\n      dup4\n        /* \"#utility.yul\":1632:1650   */\n      add\n        /* \"#utility.yul\":1625:1675   */\n      mstore\n        /* \"#utility.yul\":1309:1681   */\n      swap5\n      swap4\n      pop\n      pop\n      pop\n      pop\n      jump\t// out\n        /* \"#utility.yul\":2235:2362   */\n    tag_452:\n        /* \"#utility.yul\":2296:2306   */\n      0x4e487b71\n        /* \"#utility.yul\":2291:2294   */\n      0xe0\n        /* \"#utility.yul\":2287:2307   */\n      shl\n        /* \"#utility.yul\":2284:2285   */\n      0x00\n        /* \"#utility.yul\":2277:2308   */\n      mstore\n        /* \"#utility.yul\":2327:2331   */\n      0x41\n        /* \"#utility.yul\":2324:2325   */\n      0x04\n        /* \"#utility.yul\":2317:2332   */\n      mstore\n        /* \"#utility.yul\":2351:2355   */\n      0x24\n        /* \"#utility.yul\":2348:2349   */\n      0x00\n        /* \"#utility.yul\":2341:2356   */\n      revert\n        /* \"#utility.yul\":2367:2642   */\n    tag_537:\n        /* \"#utility.yul\":2438:2440   */\n      0x40\n        /* \"#utility.yul\":2432:2441   */\n      mload\n        /* \"#utility.yul\":2503:2505   */\n      0x1f\n        /* \"#utility.yul\":2484:2497   */\n      dup3\n      add\n      not(0x1f)\n        /* \"#utility.yul\":2480:2507   */\n      and\n        /* \"#utility.yul\":2468:2508   */\n      dup2\n      add\n        /* \"#utility.yul\":2538:2556   */\n      0xffffffffffffffff\n        /* \"#utility.yul\":2523:2557   */\n      dup2\n      gt\n        /* \"#utility.yul\":2559:2581   */\n      dup3\n      dup3\n      lt\n        /* \"#utility.yul\":2520:2582   */\n      or\n        /* \"#utility.yul\":2517:2605   */\n      iszero\n      tag_571\n      jumpi\n        /* \"#utility.yul\":2585:2603   */\n      tag_571\n      tag_452\n      jump\t// in\n    tag_571:\n        /* \"#utility.yul\":2621:2623   */\n      0x40\n        /* \"#utility.yul\":2614:2636   */\n      mstore\n        /* \"#utility.yul\":2367:2642   */\n      swap2\n      swap1\n      pop\n      jump\t// out\n        /* \"#utility.yul\":2647:3178   */\n    tag_538:\n        /* \"#utility.yul\":2690:2695   */\n      0x00\n        /* \"#utility.yul\":2743:2746   */\n      dup3\n        /* \"#utility.yul\":2736:2740   */\n      0x1f\n        /* \"#utility.yul\":2728:2734   */\n      dup4\n        /* \"#utility.yul\":2724:2741   */\n      add\n        /* \"#utility.yul\":2720:2747   */\n      slt\n        /* \"#utility.yul\":2710:2765   */\n      tag_573\n      jumpi\n        /* \"#utility.yul\":2761:2762   */\n      0x00\n        /* \"#utility.yul\":2758:2759   */\n      dup1\n        /* \"#utility.yul\":2751:2763   */\n      revert\n        /* \"#utility.yul\":2710:2765   */\n    tag_573:\n        /* \"#utility.yul\":2797:2803   */\n      dup2\n        /* \"#utility.yul\":2784:2804   */\n      calldataload\n        /* \"#utility.yul\":2823:2841   */\n      0xffffffffffffffff\n        /* \"#utility.yul\":2819:2821   */\n      dup2\n        /* \"#utility.yul\":2816:2842   */\n      gt\n        /* \"#utility.yul\":2813:2865   */\n      iszero\n      tag_575\n      jumpi\n        /* \"#utility.yul\":2845:2863   */\n      tag_575\n      tag_452\n      jump\t// in\n    tag_575:\n        /* \"#utility.yul\":2889:2944   */\n      tag_576\n        /* \"#utility.yul\":2932:2934   */\n      0x1f\n        /* \"#utility.yul\":2913:2926   */\n      dup3\n      add\n      not(0x1f)\n        /* \"#utility.yul\":2909:2936   */\n      and\n        /* \"#utility.yul\":2938:2942   */\n      0x20\n        /* \"#utility.yul\":2905:2943   */\n      add\n        /* \"#utility.yul\":2889:2944   */\n      tag_537\n      jump\t// in\n    tag_576:\n        /* \"#utility.yul\":2969:2971   */\n      dup2\n        /* \"#utility.yul\":2960:2967   */\n      dup2\n        /* \"#utility.yul\":2953:2972   */\n      mstore\n        /* \"#utility.yul\":3015:3018   */\n      dup5\n        /* \"#utility.yul\":3008:3012   */\n      0x20\n        /* \"#utility.yul\":3003:3005   */\n      dup4\n        /* \"#utility.yul\":2995:3001   */\n      dup7\n        /* \"#utility.yul\":2991:3006   */\n      add\n        /* \"#utility.yul\":2987:3013   */\n      add\n        /* \"#utility.yul\":2984:3019   */\n      gt\n        /* \"#utility.yul\":2981:3036   */\n      iszero\n      tag_577\n      jumpi\n        /* \"#utility.yul\":3032:3033   */\n      0x00\n        /* \"#utility.yul\":3029:3030   */\n      dup1\n        /* \"#utility.yul\":3022:3034   */\n      revert\n        /* \"#utility.yul\":2981:3036   */\n    tag_577:\n        /* \"#utility.yul\":3097:3099   */\n      dup2\n        /* \"#utility.yul\":3090:3094   */\n      0x20\n        /* \"#utility.yul\":3082:3088   */\n      dup6\n        /* \"#utility.yul\":3078:3095   */\n      add\n        /* \"#utility.yul\":3071:3075   */\n      0x20\n        /* \"#utility.yul\":3062:3069   */\n      dup4\n        /* \"#utility.yul\":3058:3076   */\n      add\n        /* \"#utility.yul\":3045:3100   */\n      calldatacopy\n        /* \"#utility.yul\":3145:3146   */\n      0x00\n        /* \"#utility.yul\":3120:3136   */\n      swap2\n      dup2\n      add\n        /* \"#utility.yul\":3138:3142   */\n      0x20\n        /* \"#utility.yul\":3116:3143   */\n      add\n        /* \"#utility.yul\":3109:3147   */\n      swap2\n      swap1\n      swap2\n      mstore\n        /* \"#utility.yul\":3124:3131   */\n      swap4\n        /* \"#utility.yul\":2647:3178   */\n      swap3\n      pop\n      pop\n      pop\n      jump\t// out\n        /* \"#utility.yul\":3183:3863   */\n    tag_73:\n        /* \"#utility.yul\":3289:3295   */\n      0x00\n        /* \"#utility.yul\":3297:3303   */\n      dup1\n        /* \"#utility.yul\":3305:3311   */\n      0x00\n        /* \"#utility.yul\":3313:3319   */\n      dup1\n        /* \"#utility.yul\":3366:3369   */\n      0x80\n        /* \"#utility.yul\":3354:3363   */\n      dup6\n        /* \"#utility.yul\":3345:3352   */\n      dup8\n        /* \"#utility.yul\":3341:3364   */\n      sub\n        /* \"#utility.yul\":3337:3370   */\n      slt\n        /* \"#utility.yul\":3334:3387   */\n      iszero\n      tag_579\n      jumpi\n        /* \"#utility.yul\":3383:3384   */\n      0x00\n        /* \"#utility.yul\":3380:3381   */\n      dup1\n        /* \"#utility.yul\":3373:3385   */\n      revert\n        /* \"#utility.yul\":3334:3387   */\n    tag_579:\n        /* \"#utility.yul\":3419:3428   */\n      dup5\n        /* \"#utility.yul\":3406:3429   */\n      calldataload\n        /* \"#utility.yul\":3396:3429   */\n      swap4\n      pop\n        /* \"#utility.yul\":3476:3478   */\n      0x20\n        /* \"#utility.yul\":3465:3474   */\n      dup6\n        /* \"#utility.yul\":3461:3479   */\n      add\n        /* \"#utility.yul\":3448:3480   */\n      calldataload\n        /* \"#utility.yul\":3438:3480   */\n      swap3\n      pop\n        /* \"#utility.yul\":3531:3533   */\n      0x40\n        /* \"#utility.yul\":3520:3529   */\n      dup6\n        /* \"#utility.yul\":3516:3534   */\n      add\n        /* \"#utility.yul\":3503:3535   */\n      calldataload\n        /* \"#utility.yul\":3554:3572   */\n      0xffffffffffffffff\n        /* \"#utility.yul\":3595:3597   */\n      dup1\n        /* \"#utility.yul\":3587:3593   */\n      dup3\n        /* \"#utility.yul\":3584:3598   */\n      gt\n        /* \"#utility.yul\":3581:3615   */\n      iszero\n      tag_580\n      jumpi\n        /* \"#utility.yul\":3611:3612   */\n      0x00\n        /* \"#utility.yul\":3608:3609   */\n      dup1\n        /* \"#utility.yul\":3601:3613   */\n      revert\n        /* \"#utility.yul\":3581:3615   */\n    tag_580:\n        /* \"#utility.yul\":3634:3684   */\n      tag_581\n        /* \"#utility.yul\":3676:3683   */\n      dup9\n        /* \"#utility.yul\":3667:3673   */\n      dup4\n        /* \"#utility.yul\":3656:3665   */\n      dup10\n        /* \"#utility.yul\":3652:3674   */\n      add\n        /* \"#utility.yul\":3634:3684   */\n      tag_538\n      jump\t// in\n    tag_581:\n        /* \"#utility.yul\":3624:3684   */\n      swap4\n      pop\n        /* \"#utility.yul\":3737:3739   */\n      0x60\n        /* \"#utility.yul\":3726:3735   */\n      dup8\n        /* \"#utility.yul\":3722:3740   */\n      add\n        /* \"#utility.yul\":3709:3741   */\n      calldataload\n        /* \"#utility.yul\":3693:3741   */\n      swap2\n      pop\n        /* \"#utility.yul\":3766:3768   */\n      dup1\n        /* \"#utility.yul\":3756:3764   */\n      dup3\n        /* \"#utility.yul\":3753:3769   */\n      gt\n        /* \"#utility.yul\":3750:3786   */\n      iszero\n      tag_582\n      jumpi\n        /* \"#utility.yul\":3782:3783   */\n      0x00\n        /* \"#utility.yul\":3779:3780   */\n      dup1\n        /* \"#utility.yul\":3772:3784   */\n      revert\n        /* \"#utility.yul\":3750:3786   */\n    tag_582:\n      pop\n        /* \"#utility.yul\":3805:3857   */\n      tag_583\n        /* \"#utility.yul\":3849:3856   */\n      dup8\n        /* \"#utility.yul\":3838:3846   */\n      dup3\n        /* \"#utility.yul\":3827:3836   */\n      dup9\n        /* \"#utility.yul\":3823:3847   */\n      add\n        /* \"#utility.yul\":3805:3857   */\n      tag_538\n      jump\t// in\n    tag_583:\n        /* \"#utility.yul\":3795:3857   */\n      swap2\n      pop\n      pop\n        /* \"#utility.yul\":3183:3863   */\n      swap3\n      swap6\n      swap2\n      swap5\n      pop\n      swap3\n      pop\n      jump\t// out\n        /* \"#utility.yul\":3868:4190   */\n    tag_77:\n        /* \"#utility.yul\":3937:3943   */\n      0x00\n        /* \"#utility.yul\":3990:3992   */\n      0x20\n        /* \"#utility.yul\":3978:3987   */\n      dup3\n        /* \"#utility.yul\":3969:3976   */\n      dup5\n        /* \"#utility.yul\":3965:3988   */\n      sub\n        /* \"#utility.yul\":3961:3993   */\n      slt\n        /* \"#utility.yul\":3958:4010   */\n      iszero\n      tag_585\n      jumpi\n        /* \"#utility.yul\":4006:4007   */\n      0x00\n        /* \"#utility.yul\":4003:4004   */\n      dup1\n        /* \"#utility.yul\":3996:4008   */\n      revert\n        /* \"#utility.yul\":3958:4010   */\n    tag_585:\n        /* \"#utility.yul\":4046:4055   */\n      dup2\n        /* \"#utility.yul\":4033:4056   */\n      calldataload\n        /* \"#utility.yul\":4079:4097   */\n      0xffffffffffffffff\n        /* \"#utility.yul\":4071:4077   */\n      dup2\n        /* \"#utility.yul\":4068:4098   */\n      gt\n        /* \"#utility.yul\":4065:4115   */\n      iszero\n      tag_586\n      jumpi\n        /* \"#utility.yul\":4111:4112   */\n      0x00\n        /* \"#utility.yul\":4108:4109   */\n      dup1\n        /* \"#utility.yul\":4101:4113   */\n      revert\n        /* \"#utility.yul\":4065:4115   */\n    tag_586:\n        /* \"#utility.yul\":4134:4184   */\n      tag_587\n        /* \"#utility.yul\":4176:4183   */\n      dup5\n        /* \"#utility.yul\":4167:4173   */\n      dup3\n        /* \"#utility.yul\":4156:4165   */\n      dup6\n        /* \"#utility.yul\":4152:4174   */\n      add\n        /* \"#utility.yul\":4134:4184   */\n      tag_538\n      jump\t// in\n    tag_587:\n        /* \"#utility.yul\":4124:4184   */\n      swap5\n        /* \"#utility.yul\":3868:4190   */\n      swap4\n      pop\n      pop\n      pop\n      pop\n      jump\t// out\n        /* \"#utility.yul\":4195:4368   */\n    tag_539:\n        /* \"#utility.yul\":4263:4283   */\n      dup1\n      calldataload\n      sub(shl(0xa0, 0x01), 0x01)\n        /* \"#utility.yul\":4312:4343   */\n      dup2\n      and\n        /* \"#utility.yul\":4302:4344   */\n      dup2\n      eq\n        /* \"#utility.yul\":4292:4362   */\n      tag_589\n      jumpi\n        /* \"#utility.yul\":4358:4359   */\n      0x00\n        /* \"#utility.yul\":4355:4356   */\n      dup1\n        /* \"#utility.yul\":4348:4360   */\n      revert\n        /* \"#utility.yul\":4292:4362   */\n    tag_589:\n        /* \"#utility.yul\":4195:4368   */\n      swap2\n      swap1\n      pop\n      jump\t// out\n        /* \"#utility.yul\":4373:4627   */\n    tag_82:\n        /* \"#utility.yul\":4441:4447   */\n      0x00\n        /* \"#utility.yul\":4449:4455   */\n      dup1\n        /* \"#utility.yul\":4502:4504   */\n      0x40\n        /* \"#utility.yul\":4490:4499   */\n      dup4\n        /* \"#utility.yul\":4481:4488   */\n      dup6\n        /* \"#utility.yul\":4477:4500   */\n      sub\n        /* \"#utility.yul\":4473:4505   */\n      slt\n        /* \"#utility.yul\":4470:4522   */\n      iszero\n      tag_591\n      jumpi\n        /* \"#utility.yul\":4518:4519   */\n      0x00\n        /* \"#utility.yul\":4515:4516   */\n      dup1\n        /* \"#utility.yul\":4508:4520   */\n      revert\n        /* \"#utility.yul\":4470:4522   */\n    tag_591:\n        /* \"#utility.yul\":4554:4563   */\n      dup3\n        /* \"#utility.yul\":4541:4564   */\n      calldataload\n        /* \"#utility.yul\":4531:4564   */\n      swap2\n      pop\n        /* \"#utility.yul\":4583:4621   */\n      tag_592\n        /* \"#utility.yul\":4617:4619   */\n      0x20\n        /* \"#utility.yul\":4606:4615   */\n      dup5\n        /* \"#utility.yul\":4602:4620   */\n      add\n        /* \"#utility.yul\":4583:4621   */\n      tag_539\n      jump\t// in\n    tag_592:\n        /* \"#utility.yul\":4573:4621   */\n      swap1\n      pop\n        /* \"#utility.yul\":4373:4627   */\n      swap3\n      pop\n      swap3\n      swap1\n      pop\n      jump\t// out\n        /* \"#utility.yul\":5135:6155   */\n    tag_101:\n        /* \"#utility.yul\":5228:5234   */\n      0x00\n        /* \"#utility.yul\":5236:5242   */\n      dup1\n        /* \"#utility.yul\":5289:5291   */\n      0x40\n        /* \"#utility.yul\":5277:5286   */\n      dup4\n        /* \"#utility.yul\":5268:5275   */\n      dup6\n        /* \"#utility.yul\":5264:5287   */\n      sub\n        /* \"#utility.yul\":5260:5292   */\n      slt\n        /* \"#utility.yul\":5257:5309   */\n      iszero\n      tag_595\n      jumpi\n        /* \"#utility.yul\":5305:5306   */\n      0x00\n        /* \"#utility.yul\":5302:5303   */\n      dup1\n        /* \"#utility.yul\":5295:5307   */\n      revert\n        /* \"#utility.yul\":5257:5309   */\n    tag_595:\n        /* \"#utility.yul\":5328:5357   */\n      tag_596\n        /* \"#utility.yul\":5347:5356   */\n      dup4\n        /* \"#utility.yul\":5328:5357   */\n      tag_539\n      jump\t// in\n    tag_596:\n        /* \"#utility.yul\":5318:5357   */\n      swap2\n      pop\n        /* \"#utility.yul\":5376:5378   */\n      0x20\n        /* \"#utility.yul\":5429:5431   */\n      dup1\n        /* \"#utility.yul\":5418:5427   */\n      dup5\n        /* \"#utility.yul\":5414:5432   */\n      add\n        /* \"#utility.yul\":5401:5433   */\n      calldataload\n        /* \"#utility.yul\":5452:5470   */\n      0xffffffffffffffff\n        /* \"#utility.yul\":5493:5495   */\n      dup1\n        /* \"#utility.yul\":5485:5491   */\n      dup3\n        /* \"#utility.yul\":5482:5496   */\n      gt\n        /* \"#utility.yul\":5479:5513   */\n      iszero\n      tag_597\n      jumpi\n        /* \"#utility.yul\":5509:5510   */\n      0x00\n        /* \"#utility.yul\":5506:5507   */\n      dup1\n        /* \"#utility.yul\":5499:5511   */\n      revert\n        /* \"#utility.yul\":5479:5513   */\n    tag_597:\n        /* \"#utility.yul\":5547:5553   */\n      dup2\n        /* \"#utility.yul\":5536:5545   */\n      dup7\n        /* \"#utility.yul\":5532:5554   */\n      add\n        /* \"#utility.yul\":5522:5554   */\n      swap2\n      pop\n        /* \"#utility.yul\":5592:5599   */\n      dup7\n        /* \"#utility.yul\":5585:5589   */\n      0x1f\n        /* \"#utility.yul\":5581:5583   */\n      dup4\n        /* \"#utility.yul\":5577:5590   */\n      add\n        /* \"#utility.yul\":5573:5600   */\n      slt\n        /* \"#utility.yul\":5563:5618   */\n      tag_598\n      jumpi\n        /* \"#utility.yul\":5614:5615   */\n      0x00\n        /* \"#utility.yul\":5611:5612   */\n      dup1\n        /* \"#utility.yul\":5604:5616   */\n      revert\n        /* \"#utility.yul\":5563:5618   */\n    tag_598:\n        /* \"#utility.yul\":5650:5652   */\n      dup2\n        /* \"#utility.yul\":5637:5653   */\n      calldataload\n        /* \"#utility.yul\":5672:5674   */\n      dup2\n        /* \"#utility.yul\":5668:5670   */\n      dup2\n        /* \"#utility.yul\":5665:5675   */\n      gt\n        /* \"#utility.yul\":5662:5698   */\n      iszero\n      tag_600\n      jumpi\n        /* \"#utility.yul\":5678:5696   */\n      tag_600\n      tag_452\n      jump\t// in\n    tag_600:\n        /* \"#utility.yul\":5724:5726   */\n      dup1\n        /* \"#utility.yul\":5721:5722   */\n      0x05\n        /* \"#utility.yul\":5717:5727   */\n      shl\n        /* \"#utility.yul\":5707:5727   */\n      swap2\n      pop\n        /* \"#utility.yul\":5747:5775   */\n      tag_601\n        /* \"#utility.yul\":5771:5773   */\n      dup5\n        /* \"#utility.yul\":5767:5769   */\n      dup4\n        /* \"#utility.yul\":5763:5774   */\n      add\n        /* \"#utility.yul\":5747:5775   */\n      tag_537\n      jump\t// in\n    tag_601:\n        /* \"#utility.yul\":5809:5824   */\n      dup2\n      dup2\n      mstore\n        /* \"#utility.yul\":5879:5890   */\n      swap2\n      dup4\n      add\n        /* \"#utility.yul\":5875:5895   */\n      dup5\n      add\n      swap2\n        /* \"#utility.yul\":5840:5852   */\n      dup5\n      dup2\n      add\n      swap1\n        /* \"#utility.yul\":5907:5926   */\n      dup10\n      dup5\n      gt\n        /* \"#utility.yul\":5904:5943   */\n      iszero\n      tag_602\n      jumpi\n        /* \"#utility.yul\":5939:5940   */\n      0x00\n        /* \"#utility.yul\":5936:5937   */\n      dup1\n        /* \"#utility.yul\":5929:5941   */\n      revert\n        /* \"#utility.yul\":5904:5943   */\n    tag_602:\n        /* \"#utility.yul\":5963:5974   */\n      swap4\n      dup6\n      add\n      swap4\n        /* \"#utility.yul\":5983:6125   */\n    tag_603:\n        /* \"#utility.yul\":5999:6005   */\n      dup4\n        /* \"#utility.yul\":5994:5997   */\n      dup6\n        /* \"#utility.yul\":5991:6006   */\n      lt\n        /* \"#utility.yul\":5983:6125   */\n      iszero\n      tag_605\n      jumpi\n        /* \"#utility.yul\":6065:6082   */\n      dup5\n      calldataload\n        /* \"#utility.yul\":6053:6083   */\n      dup3\n      mstore\n        /* \"#utility.yul\":6016:6028   */\n      swap4\n      dup6\n      add\n      swap4\n        /* \"#utility.yul\":6103:6115   */\n      swap1\n      dup6\n      add\n      swap1\n        /* \"#utility.yul\":5983:6125   */\n      jump(tag_603)\n    tag_605:\n        /* \"#utility.yul\":6144:6149   */\n      dup1\n        /* \"#utility.yul\":6134:6149   */\n      swap7\n      pop\n      pop\n      pop\n      pop\n      pop\n      pop\n      pop\n        /* \"#utility.yul\":5135:6155   */\n      swap3\n      pop\n      swap3\n      swap1\n      pop\n      jump\t// out\n        /* \"#utility.yul\":6160:6346   */\n    tag_108:\n        /* \"#utility.yul\":6219:6225   */\n      0x00\n        /* \"#utility.yul\":6272:6274   */\n      0x20\n        /* \"#utility.yul\":6260:6269   */\n      dup3\n        /* \"#utility.yul\":6251:6258   */\n      dup5\n        /* \"#utility.yul\":6247:6270   */\n      sub\n        /* \"#utility.yul\":6243:6275   */\n      slt\n        /* \"#utility.yul\":6240:6292   */\n      iszero\n      tag_607\n      jumpi\n        /* \"#utility.yul\":6288:6289   */\n      0x00\n        /* \"#utility.yul\":6285:6286   */\n      dup1\n        /* \"#utility.yul\":6278:6290   */\n      revert\n        /* \"#utility.yul\":6240:6292   */\n    tag_607:\n        /* \"#utility.yul\":6311:6340   */\n      tag_551\n        /* \"#utility.yul\":6330:6339   */\n      dup3\n        /* \"#utility.yul\":6311:6340   */\n      tag_539\n      jump\t// in\n        /* \"#utility.yul\":6351:6507   */\n    tag_540:\n        /* \"#utility.yul\":6417:6437   */\n      dup1\n      calldataload\n        /* \"#utility.yul\":6477:6481   */\n      0xff\n        /* \"#utility.yul\":6466:6482   */\n      dup2\n      and\n        /* \"#utility.yul\":6456:6483   */\n      dup2\n      eq\n        /* \"#utility.yul\":6446:6501   */\n      tag_589\n      jumpi\n        /* \"#utility.yul\":6497:6498   */\n      0x00\n        /* \"#utility.yul\":6494:6495   */\n      dup1\n        /* \"#utility.yul\":6487:6499   */\n      revert\n        /* \"#utility.yul\":6512:7213   */\n    tag_541:\n        /* \"#utility.yul\":6575:6580   */\n      0x00\n        /* \"#utility.yul\":6623:6627   */\n      0xa0\n        /* \"#utility.yul\":6611:6620   */\n      dup3\n        /* \"#utility.yul\":6606:6609   */\n      dup5\n        /* \"#utility.yul\":6602:6621   */\n      sub\n        /* \"#utility.yul\":6598:6628   */\n      slt\n        /* \"#utility.yul\":6595:6645   */\n      iszero\n      tag_612\n      jumpi\n        /* \"#utility.yul\":6641:6642   */\n      0x00\n        /* \"#utility.yul\":6638:6639   */\n      dup1\n        /* \"#utility.yul\":6631:6643   */\n      revert\n        /* \"#utility.yul\":6595:6645   */\n    tag_612:\n        /* \"#utility.yul\":6674:6676   */\n      0x40\n        /* \"#utility.yul\":6668:6677   */\n      mload\n        /* \"#utility.yul\":6716:6720   */\n      0xa0\n        /* \"#utility.yul\":6708:6714   */\n      dup2\n        /* \"#utility.yul\":6704:6721   */\n      add\n        /* \"#utility.yul\":6787:6793   */\n      dup2\n        /* \"#utility.yul\":6775:6785   */\n      dup2\n        /* \"#utility.yul\":6772:6794   */\n      lt\n        /* \"#utility.yul\":6751:6769   */\n      0xffffffffffffffff\n        /* \"#utility.yul\":6739:6749   */\n      dup3\n        /* \"#utility.yul\":6736:6770   */\n      gt\n        /* \"#utility.yul\":6733:6795   */\n      or\n        /* \"#utility.yul\":6730:6818   */\n      iszero\n      tag_614\n      jumpi\n        /* \"#utility.yul\":6798:6816   */\n      tag_614\n      tag_452\n      jump\t// in\n    tag_614:\n        /* \"#utility.yul\":6834:6836   */\n      0x40\n        /* \"#utility.yul\":6827:6849   */\n      mstore\n        /* \"#utility.yul\":6867:6873   */\n      swap1\n      pop\n      dup1\n        /* \"#utility.yul\":6897:6924   */\n      tag_615\n        /* \"#utility.yul\":6914:6923   */\n      dup4\n        /* \"#utility.yul\":6897:6924   */\n      tag_540\n      jump\t// in\n    tag_615:\n        /* \"#utility.yul\":6889:6895   */\n      dup2\n        /* \"#utility.yul\":6882:6925   */\n      mstore\n        /* \"#utility.yul\":6958:6994   */\n      tag_616\n        /* \"#utility.yul\":6990:6992   */\n      0x20\n        /* \"#utility.yul\":6979:6988   */\n      dup5\n        /* \"#utility.yul\":6975:6993   */\n      add\n        /* \"#utility.yul\":6958:6994   */\n      tag_540\n      jump\t// in\n    tag_616:\n        /* \"#utility.yul\":6953:6955   */\n      0x20\n        /* \"#utility.yul\":6945:6951   */\n      dup3\n        /* \"#utility.yul\":6941:6956   */\n      add\n        /* \"#utility.yul\":6934:6995   */\n      mstore\n        /* \"#utility.yul\":7028:7064   */\n      tag_617\n        /* \"#utility.yul\":7060:7062   */\n      0x40\n        /* \"#utility.yul\":7049:7058   */\n      dup5\n        /* \"#utility.yul\":7045:7063   */\n      add\n        /* \"#utility.yul\":7028:7064   */\n      tag_540\n      jump\t// in\n    tag_617:\n        /* \"#utility.yul\":7023:7025   */\n      0x40\n        /* \"#utility.yul\":7015:7021   */\n      dup3\n        /* \"#utility.yul\":7011:7026   */\n      add\n        /* \"#utility.yul\":7004:7065   */\n      mstore\n        /* \"#utility.yul\":7098:7134   */\n      tag_618\n        /* \"#utility.yul\":7130:7132   */\n      0x60\n        /* \"#utility.yul\":7119:7128   */\n      dup5\n        /* \"#utility.yul\":7115:7133   */\n      add\n        /* \"#utility.yul\":7098:7134   */\n      tag_540\n      jump\t// in\n    tag_618:\n        /* \"#utility.yul\":7093:7095   */\n      0x60\n        /* \"#utility.yul\":7085:7091   */\n      dup3\n        /* \"#utility.yul\":7081:7096   */\n      add\n        /* \"#utility.yul\":7074:7135   */\n      mstore\n        /* \"#utility.yul\":7169:7206   */\n      tag_619\n        /* \"#utility.yul\":7201:7204   */\n      0x80\n        /* \"#utility.yul\":7190:7199   */\n      dup5\n        /* \"#utility.yul\":7186:7205   */\n      add\n        /* \"#utility.yul\":7169:7206   */\n      tag_540\n      jump\t// in\n    tag_619:\n        /* \"#utility.yul\":7163:7166   */\n      0x80\n        /* \"#utility.yul\":7155:7161   */\n      dup3\n        /* \"#utility.yul\":7151:7167   */\n      add\n        /* \"#utility.yul\":7144:7207   */\n      mstore\n      pop\n        /* \"#utility.yul\":6512:7213   */\n      swap3\n      swap2\n      pop\n      pop\n      jump\t// out\n        /* \"#utility.yul\":7218:8032   */\n    tag_117:\n        /* \"#utility.yul\":7367:7373   */\n      0x00\n        /* \"#utility.yul\":7375:7381   */\n      dup1\n        /* \"#utility.yul\":7383:7389   */\n      0x00\n        /* \"#utility.yul\":7391:7397   */\n      dup1\n        /* \"#utility.yul\":7399:7405   */\n      0x00\n        /* \"#utility.yul\":7452:7455   */\n      0x0120\n        /* \"#utility.yul\":7440:7449   */\n      dup7\n        /* \"#utility.yul\":7431:7438   */\n      dup9\n        /* \"#utility.yul\":7427:7450   */\n      sub\n        /* \"#utility.yul\":7423:7456   */\n      slt\n        /* \"#utility.yul\":7420:7473   */\n      iszero\n      tag_621\n      jumpi\n        /* \"#utility.yul\":7469:7470   */\n      0x00\n        /* \"#utility.yul\":7466:7467   */\n      dup1\n        /* \"#utility.yul\":7459:7471   */\n      revert\n        /* \"#utility.yul\":7420:7473   */\n    tag_621:\n        /* \"#utility.yul\":7505:7514   */\n      dup6\n        /* \"#utility.yul\":7492:7515   */\n      calldataload\n        /* \"#utility.yul\":7482:7515   */\n      swap5\n      pop\n        /* \"#utility.yul\":7562:7564   */\n      0x20\n        /* \"#utility.yul\":7551:7560   */\n      dup7\n        /* \"#utility.yul\":7547:7565   */\n      add\n        /* \"#utility.yul\":7534:7566   */\n      calldataload\n        /* \"#utility.yul\":7524:7566   */\n      swap4\n      pop\n        /* \"#utility.yul\":7617:7619   */\n      0x40\n        /* \"#utility.yul\":7606:7615   */\n      dup7\n        /* \"#utility.yul\":7602:7620   */\n      add\n        /* \"#utility.yul\":7589:7621   */\n      calldataload\n        /* \"#utility.yul\":7640:7658   */\n      0xffffffffffffffff\n        /* \"#utility.yul\":7681:7683   */\n      dup1\n        /* \"#utility.yul\":7673:7679   */\n      dup3\n        /* \"#utility.yul\":7670:7684   */\n      gt\n        /* \"#utility.yul\":7667:7701   */\n      iszero\n      tag_622\n      jumpi\n        /* \"#utility.yul\":7697:7698   */\n      0x00\n        /* \"#utility.yul\":7694:7695   */\n      dup1\n        /* \"#utility.yul\":7687:7699   */\n      revert\n        /* \"#utility.yul\":7667:7701   */\n    tag_622:\n        /* \"#utility.yul\":7720:7770   */\n      tag_623\n        /* \"#utility.yul\":7762:7769   */\n      dup10\n        /* \"#utility.yul\":7753:7759   */\n      dup4\n        /* \"#utility.yul\":7742:7751   */\n      dup11\n        /* \"#utility.yul\":7738:7760   */\n      add\n        /* \"#utility.yul\":7720:7770   */\n      tag_538\n      jump\t// in\n    tag_623:\n        /* \"#utility.yul\":7710:7770   */\n      swap5\n      pop\n        /* \"#utility.yul\":7823:7825   */\n      0x60\n        /* \"#utility.yul\":7812:7821   */\n      dup9\n        /* \"#utility.yul\":7808:7826   */\n      add\n        /* \"#utility.yul\":7795:7827   */\n      calldataload\n        /* \"#utility.yul\":7779:7827   */\n      swap2\n      pop\n        /* \"#utility.yul\":7852:7854   */\n      dup1\n        /* \"#utility.yul\":7842:7850   */\n      dup3\n        /* \"#utility.yul\":7839:7855   */\n      gt\n        /* \"#utility.yul\":7836:7872   */\n      iszero\n      tag_624\n      jumpi\n        /* \"#utility.yul\":7868:7869   */\n      0x00\n        /* \"#utility.yul\":7865:7866   */\n      dup1\n        /* \"#utility.yul\":7858:7870   */\n      revert\n        /* \"#utility.yul\":7836:7872   */\n    tag_624:\n      pop\n        /* \"#utility.yul\":7891:7943   */\n      tag_625\n        /* \"#utility.yul\":7935:7942   */\n      dup9\n        /* \"#utility.yul\":7924:7932   */\n      dup3\n        /* \"#utility.yul\":7913:7922   */\n      dup10\n        /* \"#utility.yul\":7909:7933   */\n      add\n        /* \"#utility.yul\":7891:7943   */\n      tag_538\n      jump\t// in\n    tag_625:\n        /* \"#utility.yul\":7881:7943   */\n      swap3\n      pop\n      pop\n        /* \"#utility.yul\":7962:8026   */\n      tag_626\n        /* \"#utility.yul\":8018:8025   */\n      dup8\n        /* \"#utility.yul\":8012:8015   */\n      0x80\n        /* \"#utility.yul\":8001:8010   */\n      dup9\n        /* \"#utility.yul\":7997:8016   */\n      add\n        /* \"#utility.yul\":7962:8026   */\n      tag_541\n      jump\t// in\n    tag_626:\n        /* \"#utility.yul\":7952:8026   */\n      swap1\n      pop\n        /* \"#utility.yul\":7218:8032   */\n      swap3\n      swap6\n      pop\n      swap3\n      swap6\n      swap1\n      swap4\n      pop\n      jump\t// out\n        /* \"#utility.yul\":8037:8427   */\n    tag_154:\n        /* \"#utility.yul\":8115:8121   */\n      0x00\n        /* \"#utility.yul\":8123:8129   */\n      dup1\n        /* \"#utility.yul\":8176:8178   */\n      0x40\n        /* \"#utility.yul\":8164:8173   */\n      dup4\n        /* \"#utility.yul\":8155:8162   */\n      dup6\n        /* \"#utility.yul\":8151:8174   */\n      sub\n        /* \"#utility.yul\":8147:8179   */\n      slt\n        /* \"#utility.yul\":8144:8196   */\n      iszero\n      tag_628\n      jumpi\n        /* \"#utility.yul\":8192:8193   */\n      0x00\n        /* \"#utility.yul\":8189:8190   */\n      dup1\n        /* \"#utility.yul\":8182:8194   */\n      revert\n        /* \"#utility.yul\":8144:8196   */\n    tag_628:\n        /* \"#utility.yul\":8228:8237   */\n      dup3\n        /* \"#utility.yul\":8215:8238   */\n      calldataload\n        /* \"#utility.yul\":8205:8238   */\n      swap2\n      pop\n        /* \"#utility.yul\":8289:8291   */\n      0x20\n        /* \"#utility.yul\":8278:8287   */\n      dup4\n        /* \"#utility.yul\":8274:8292   */\n      add\n        /* \"#utility.yul\":8261:8293   */\n      calldataload\n        /* \"#utility.yul\":8316:8334   */\n      0xffffffffffffffff\n        /* \"#utility.yul\":8308:8314   */\n      dup2\n        /* \"#utility.yul\":8305:8335   */\n      gt\n        /* \"#utility.yul\":8302:8352   */\n      iszero\n      tag_629\n      jumpi\n        /* \"#utility.yul\":8348:8349   */\n      0x00\n        /* \"#utility.yul\":8345:8346   */\n      dup1\n        /* \"#utility.yul\":8338:8350   */\n      revert\n        /* \"#utility.yul\":8302:8352   */\n    tag_629:\n        /* \"#utility.yul\":8371:8421   */\n      tag_630\n        /* \"#utility.yul\":8413:8420   */\n      dup6\n        /* \"#utility.yul\":8404:8410   */\n      dup3\n        /* \"#utility.yul\":8393:8402   */\n      dup7\n        /* \"#utility.yul\":8389:8411   */\n      add\n        /* \"#utility.yul\":8371:8421   */\n      tag_538\n      jump\t// in\n    tag_630:\n        /* \"#utility.yul\":8361:8421   */\n      swap2\n      pop\n      pop\n        /* \"#utility.yul\":8037:8427   */\n      swap3\n      pop\n      swap3\n      swap1\n      pop\n      jump\t// out\n        /* \"#utility.yul\":8432:8592   */\n    tag_542:\n        /* \"#utility.yul\":8497:8517   */\n      dup1\n      calldataload\n        /* \"#utility.yul\":8553:8566   */\n      dup1\n      iszero\n        /* \"#utility.yul\":8546:8567   */\n      iszero\n        /* \"#utility.yul\":8536:8568   */\n      dup2\n      eq\n        /* \"#utility.yul\":8526:8586   */\n      tag_589\n      jumpi\n        /* \"#utility.yul\":8582:8583   */\n      0x00\n        /* \"#utility.yul\":8579:8580   */\n      dup1\n        /* \"#utility.yul\":8572:8584   */\n      revert\n        /* \"#utility.yul\":8597:8987   */\n    tag_158:\n        /* \"#utility.yul\":8672:8678   */\n      0x00\n        /* \"#utility.yul\":8680:8686   */\n      dup1\n        /* \"#utility.yul\":8733:8735   */\n      0x40\n        /* \"#utility.yul\":8721:8730   */\n      dup4\n        /* \"#utility.yul\":8712:8719   */\n      dup6\n        /* \"#utility.yul\":8708:8731   */\n      sub\n        /* \"#utility.yul\":8704:8736   */\n      slt\n        /* \"#utility.yul\":8701:8753   */\n      iszero\n      tag_634\n      jumpi\n        /* \"#utility.yul\":8749:8750   */\n      0x00\n        /* \"#utility.yul\":8746:8747   */\n      dup1\n        /* \"#utility.yul\":8739:8751   */\n      revert\n        /* \"#utility.yul\":8701:8753   */\n    tag_634:\n        /* \"#utility.yul\":8789:8798   */\n      dup3\n        /* \"#utility.yul\":8776:8799   */\n      calldataload\n        /* \"#utility.yul\":8822:8840   */\n      0xffffffffffffffff\n        /* \"#utility.yul\":8814:8820   */\n      dup2\n        /* \"#utility.yul\":8811:8841   */\n      gt\n        /* \"#utility.yul\":8808:8858   */\n      iszero\n      tag_635\n      jumpi\n        /* \"#utility.yul\":8854:8855   */\n      0x00\n        /* \"#utility.yul\":8851:8852   */\n      dup1\n        /* \"#utility.yul\":8844:8856   */\n      revert\n        /* \"#utility.yul\":8808:8858   */\n    tag_635:\n        /* \"#utility.yul\":8877:8927   */\n      tag_636\n        /* \"#utility.yul\":8919:8926   */\n      dup6\n        /* \"#utility.yul\":8910:8916   */\n      dup3\n        /* \"#utility.yul\":8899:8908   */\n      dup7\n        /* \"#utility.yul\":8895:8917   */\n      add\n        /* \"#utility.yul\":8877:8927   */\n      tag_538\n      jump\t// in\n    tag_636:\n        /* \"#utility.yul\":8867:8927   */\n      swap3\n      pop\n      pop\n        /* \"#utility.yul\":8946:8981   */\n      tag_592\n        /* \"#utility.yul\":8977:8979   */\n      0x20\n        /* \"#utility.yul\":8966:8975   */\n      dup5\n        /* \"#utility.yul\":8962:8980   */\n      add\n        /* \"#utility.yul\":8946:8981   */\n      tag_542\n      jump\t// in\n        /* \"#utility.yul\":9640:9914   */\n    tag_175:\n        /* \"#utility.yul\":9842:9845   */\n      0xa0\n        /* \"#utility.yul\":9827:9846   */\n      dup2\n      add\n        /* \"#utility.yul\":9855:9908   */\n      tag_201\n        /* \"#utility.yul\":9831:9840   */\n      dup3\n        /* \"#utility.yul\":9890:9896   */\n      dup5\n        /* \"#utility.yul\":9355:9359   */\n      0xff\n        /* \"#utility.yul\":9347:9352   */\n      dup2\n        /* \"#utility.yul\":9341:9353   */\n      mload\n        /* \"#utility.yul\":9337:9360   */\n      and\n        /* \"#utility.yul\":9332:9335   */\n      dup3\n        /* \"#utility.yul\":9325:9361   */\n      mstore\n        /* \"#utility.yul\":9422:9426   */\n      0xff\n        /* \"#utility.yul\":9414:9418   */\n      0x20\n        /* \"#utility.yul\":9407:9412   */\n      dup3\n        /* \"#utility.yul\":9403:9419   */\n      add\n        /* \"#utility.yul\":9397:9420   */\n      mload\n        /* \"#utility.yul\":9393:9427   */\n      and\n        /* \"#utility.yul\":9386:9390   */\n      0x20\n        /* \"#utility.yul\":9381:9384   */\n      dup4\n        /* \"#utility.yul\":9377:9391   */\n      add\n        /* \"#utility.yul\":9370:9428   */\n      mstore\n        /* \"#utility.yul\":9489:9493   */\n      0xff\n        /* \"#utility.yul\":9481:9485   */\n      0x40\n        /* \"#utility.yul\":9474:9479   */\n      dup3\n        /* \"#utility.yul\":9470:9486   */\n      add\n        /* \"#utility.yul\":9464:9487   */\n      mload\n        /* \"#utility.yul\":9460:9494   */\n      and\n        /* \"#utility.yul\":9453:9457   */\n      0x40\n        /* \"#utility.yul\":9448:9451   */\n      dup4\n        /* \"#utility.yul\":9444:9458   */\n      add\n        /* \"#utility.yul\":9437:9495   */\n      mstore\n        /* \"#utility.yul\":9556:9560   */\n      0xff\n        /* \"#utility.yul\":9548:9552   */\n      0x60\n        /* \"#utility.yul\":9541:9546   */\n      dup3\n        /* \"#utility.yul\":9537:9553   */\n      add\n        /* \"#utility.yul\":9531:9554   */\n      mload\n        /* \"#utility.yul\":9527:9561   */\n      and\n        /* \"#utility.yul\":9520:9524   */\n      0x60\n        /* \"#utility.yul\":9515:9518   */\n      dup4\n        /* \"#utility.yul\":9511:9525   */\n      add\n        /* \"#utility.yul\":9504:9562   */\n      mstore\n        /* \"#utility.yul\":9623:9627   */\n      0xff\n        /* \"#utility.yul\":9615:9619   */\n      0x80\n        /* \"#utility.yul\":9608:9613   */\n      dup3\n        /* \"#utility.yul\":9604:9620   */\n      add\n        /* \"#utility.yul\":9598:9621   */\n      mload\n        /* \"#utility.yul\":9594:9628   */\n      and\n        /* \"#utility.yul\":9587:9591   */\n      0x80\n        /* \"#utility.yul\":9582:9585   */\n      dup4\n        /* \"#utility.yul\":9578:9592   */\n      add\n        /* \"#utility.yul\":9571:9629   */\n      mstore\n      pop\n      pop\n        /* \"#utility.yul\":9255:9635   */\n      jump\n        /* \"#utility.yul\":9919:10173   */\n    tag_181:\n        /* \"#utility.yul\":9984:9990   */\n      0x00\n        /* \"#utility.yul\":9992:9998   */\n      dup1\n        /* \"#utility.yul\":10045:10047   */\n      0x40\n        /* \"#utility.yul\":10033:10042   */\n      dup4\n        /* \"#utility.yul\":10024:10031   */\n      dup6\n        /* \"#utility.yul\":10020:10043   */\n      sub\n        /* \"#utility.yul\":10016:10048   */\n      slt\n        /* \"#utility.yul\":10013:10065   */\n      iszero\n      tag_643\n      jumpi\n        /* \"#utility.yul\":10061:10062   */\n      0x00\n        /* \"#utility.yul\":10058:10059   */\n      dup1\n        /* \"#utility.yul\":10051:10063   */\n      revert\n        /* \"#utility.yul\":10013:10065   */\n    tag_643:\n        /* \"#utility.yul\":10084:10113   */\n      tag_644\n        /* \"#utility.yul\":10103:10112   */\n      dup4\n        /* \"#utility.yul\":10084:10113   */\n      tag_539\n      jump\t// in\n    tag_644:\n        /* \"#utility.yul\":10074:10113   */\n      swap2\n      pop\n        /* \"#utility.yul\":10132:10167   */\n      tag_592\n        /* \"#utility.yul\":10163:10165   */\n      0x20\n        /* \"#utility.yul\":10152:10161   */\n      dup5\n        /* \"#utility.yul\":10148:10166   */\n      add\n        /* \"#utility.yul\":10132:10167   */\n      tag_542\n      jump\t// in\n        /* \"#utility.yul\":10178:11261   */\n    tag_187:\n        /* \"#utility.yul\":10363:10365   */\n      0x20\n        /* \"#utility.yul\":10352:10361   */\n      dup2\n        /* \"#utility.yul\":10345:10366   */\n      mstore\n        /* \"#utility.yul\":10408:10414   */\n      dup2\n        /* \"#utility.yul\":10402:10415   */\n      mload\n        /* \"#utility.yul\":10397:10399   */\n      0x20\n        /* \"#utility.yul\":10386:10395   */\n      dup3\n        /* \"#utility.yul\":10382:10400   */\n      add\n        /* \"#utility.yul\":10375:10416   */\n      mstore\n        /* \"#utility.yul\":10470:10472   */\n      0x20\n        /* \"#utility.yul\":10462:10468   */\n      dup3\n        /* \"#utility.yul\":10458:10473   */\n      add\n        /* \"#utility.yul\":10452:10474   */\n      mload\n        /* \"#utility.yul\":10447:10449   */\n      0x40\n        /* \"#utility.yul\":10436:10445   */\n      dup3\n        /* \"#utility.yul\":10432:10450   */\n      add\n        /* \"#utility.yul\":10425:10475   */\n      mstore\n        /* \"#utility.yul\":10326:10330   */\n      0x00\n        /* \"#utility.yul\":10522:10524   */\n      0x40\n        /* \"#utility.yul\":10514:10520   */\n      dup4\n        /* \"#utility.yul\":10510:10525   */\n      add\n        /* \"#utility.yul\":10504:10526   */\n      mload\n        /* \"#utility.yul\":10562:10568   */\n      0x0180\n        /* \"#utility.yul\":10557:10559   */\n      0x60\n        /* \"#utility.yul\":10546:10555   */\n      dup5\n        /* \"#utility.yul\":10542:10560   */\n      add\n        /* \"#utility.yul\":10535:10569   */\n      mstore\n        /* \"#utility.yul\":10592:10644   */\n      tag_647\n        /* \"#utility.yul\":10639:10642   */\n      0x01a0\n        /* \"#utility.yul\":10628:10637   */\n      dup5\n        /* \"#utility.yul\":10624:10643   */\n      add\n        /* \"#utility.yul\":10610:10622   */\n      dup3\n        /* \"#utility.yul\":10592:10644   */\n      tag_536\n      jump\t// in\n    tag_647:\n        /* \"#utility.yul\":10578:10644   */\n      swap1\n      pop\n        /* \"#utility.yul\":10693:10695   */\n      0x60\n        /* \"#utility.yul\":10685:10691   */\n      dup5\n        /* \"#utility.yul\":10681:10696   */\n      add\n        /* \"#utility.yul\":10675:10697   */\n      mload\n        /* \"#utility.yul\":10766:10768   */\n      0x1f\n        /* \"#utility.yul\":10762:10769   */\n      not\n        /* \"#utility.yul\":10750:10759   */\n      dup5\n        /* \"#utility.yul\":10742:10748   */\n      dup4\n        /* \"#utility.yul\":10738:10760   */\n      sub\n        /* \"#utility.yul\":10734:10770   */\n      add\n        /* \"#utility.yul\":10728:10731   */\n      0x80\n        /* \"#utility.yul\":10717:10726   */\n      dup6\n        /* \"#utility.yul\":10713:10732   */\n      add\n        /* \"#utility.yul\":10706:10771   */\n      mstore\n        /* \"#utility.yul\":10794:10835   */\n      tag_648\n        /* \"#utility.yul\":10828:10834   */\n      dup3\n        /* \"#utility.yul\":10812:10826   */\n      dup3\n        /* \"#utility.yul\":10794:10835   */\n      tag_536\n      jump\t// in\n    tag_648:\n        /* \"#utility.yul\":10780:10835   */\n      swap2\n      pop\n      pop\n        /* \"#utility.yul\":10890:10893   */\n      0x80\n        /* \"#utility.yul\":10882:10888   */\n      dup5\n        /* \"#utility.yul\":10878:10894   */\n      add\n        /* \"#utility.yul\":10872:10895   */\n      mload\n        /* \"#utility.yul\":10866:10869   */\n      0xa0\n        /* \"#utility.yul\":10855:10864   */\n      dup5\n        /* \"#utility.yul\":10851:10870   */\n      add\n        /* \"#utility.yul\":10844:10896   */\n      mstore\n        /* \"#utility.yul\":10979:10980   */\n      0x01\n        /* \"#utility.yul\":10975:10976   */\n      dup1\n        /* \"#utility.yul\":10970:10973   */\n      0xa0\n        /* \"#utility.yul\":10966:10977   */\n      shl\n        /* \"#utility.yul\":10962:10981   */\n      sub\n        /* \"#utility.yul\":10955:10958   */\n      0xa0\n        /* \"#utility.yul\":10947:10953   */\n      dup6\n        /* \"#utility.yul\":10943:10959   */\n      add\n        /* \"#utility.yul\":10937:10960   */\n      mload\n        /* \"#utility.yul\":10933:10982   */\n      and\n        /* \"#utility.yul\":10927:10930   */\n      0xc0\n        /* \"#utility.yul\":10916:10925   */\n      dup5\n        /* \"#utility.yul\":10912:10931   */\n      add\n        /* \"#utility.yul\":10905:10983   */\n      mstore\n        /* \"#utility.yul\":11032:11035   */\n      0xc0\n        /* \"#utility.yul\":11024:11030   */\n      dup5\n        /* \"#utility.yul\":11020:11036   */\n      add\n        /* \"#utility.yul\":11014:11037   */\n      mload\n        /* \"#utility.yul\":11046:11098   */\n      tag_649\n        /* \"#utility.yul\":11093:11096   */\n      0xe0\n        /* \"#utility.yul\":11082:11091   */\n      dup6\n        /* \"#utility.yul\":11078:11097   */\n      add\n        /* \"#utility.yul\":11062:11076   */\n      dup3\n        /* \"#utility.yul\":375:388   */\n      iszero\n        /* \"#utility.yul\":368:389   */\n      iszero\n        /* \"#utility.yul\":356:390   */\n      swap1\n      mstore\n        /* \"#utility.yul\":305:396   */\n      jump\n        /* \"#utility.yul\":11046:11098   */\n    tag_649:\n      pop\n        /* \"#utility.yul\":11147:11150   */\n      0xe0\n        /* \"#utility.yul\":11135:11151   */\n      dup5\n      add\n        /* \"#utility.yul\":11129:11152   */\n      mload\n        /* \"#utility.yul\":9341:9353   */\n      dup1\n      mload\n        /* \"#utility.yul\":9355:9359   */\n      0xff\n        /* \"#utility.yul\":9337:9360   */\n      swap1\n      dup2\n      and\n        /* \"#utility.yul\":11227:11230   */\n      0x0100\n        /* \"#utility.yul\":11212:11231   */\n      dup7\n      add\n        /* \"#utility.yul\":9325:9361   */\n      mstore\n        /* \"#utility.yul\":9414:9418   */\n      0x20\n        /* \"#utility.yul\":9403:9419   */\n      dup3\n      add\n        /* \"#utility.yul\":9397:9420   */\n      mload\n        /* \"#utility.yul\":9393:9427   */\n      dup2\n      and\n        /* \"#utility.yul\":9377:9391   */\n      0x0120\n      dup7\n      add\n        /* \"#utility.yul\":9370:9428   */\n      mstore\n        /* \"#utility.yul\":9481:9485   */\n      0x40\n        /* \"#utility.yul\":9470:9486   */\n      dup3\n      add\n        /* \"#utility.yul\":9464:9487   */\n      mload\n        /* \"#utility.yul\":9460:9494   */\n      dup2\n      and\n        /* \"#utility.yul\":9444:9458   */\n      0x0140\n      dup7\n      add\n        /* \"#utility.yul\":9437:9495   */\n      mstore\n        /* \"#utility.yul\":9548:9552   */\n      0x60\n        /* \"#utility.yul\":9537:9553   */\n      dup3\n      add\n        /* \"#utility.yul\":9531:9554   */\n      mload\n        /* \"#utility.yul\":9527:9561   */\n      dup2\n      and\n        /* \"#utility.yul\":9511:9525   */\n      0x0160\n      dup7\n      add\n        /* \"#utility.yul\":9504:9562   */\n      mstore\n        /* \"#utility.yul\":9615:9619   */\n      0x80\n        /* \"#utility.yul\":9604:9620   */\n      dup3\n      add\n        /* \"#utility.yul\":9598:9621   */\n      mload\n        /* \"#utility.yul\":9594:9628   */\n      and\n        /* \"#utility.yul\":9578:9592   */\n      0x0180\n      dup6\n      add\n        /* \"#utility.yul\":9571:9629   */\n      mstore\n        /* \"#utility.yul\":11161:11232   */\n      tag_374\n        /* \"#utility.yul\":9255:9635   */\n      jump\n        /* \"#utility.yul\":11266:11898   */\n    tag_194:\n        /* \"#utility.yul\":11437:11439   */\n      0x20\n        /* \"#utility.yul\":11489:11510   */\n      dup1\n      dup3\n      mstore\n        /* \"#utility.yul\":11559:11572   */\n      dup3\n      mload\n        /* \"#utility.yul\":11462:11480   */\n      dup3\n      dup3\n      add\n        /* \"#utility.yul\":11581:11603   */\n      dup2\n      swap1\n      mstore\n        /* \"#utility.yul\":11408:11412   */\n      0x00\n      swap2\n        /* \"#utility.yul\":11437:11439   */\n      swap1\n        /* \"#utility.yul\":11660:11675   */\n      dup5\n      dup3\n      add\n      swap1\n        /* \"#utility.yul\":11634:11636   */\n      0x40\n        /* \"#utility.yul\":11619:11637   */\n      dup6\n      add\n      swap1\n        /* \"#utility.yul\":11408:11412   */\n      dup5\n        /* \"#utility.yul\":11703:11872   */\n    tag_652:\n        /* \"#utility.yul\":11717:11723   */\n      dup2\n        /* \"#utility.yul\":11714:11715   */\n      dup2\n        /* \"#utility.yul\":11711:11724   */\n      lt\n        /* \"#utility.yul\":11703:11872   */\n      iszero\n      tag_654\n      jumpi\n        /* \"#utility.yul\":11778:11791   */\n      dup4\n      mload\n        /* \"#utility.yul\":11766:11792   */\n      dup4\n      mstore\n        /* \"#utility.yul\":11847:11862   */\n      swap3\n      dup5\n      add\n      swap3\n        /* \"#utility.yul\":11812:11824   */\n      swap2\n      dup5\n      add\n      swap2\n        /* \"#utility.yul\":11739:11740   */\n      0x01\n        /* \"#utility.yul\":11732:11741   */\n      add\n        /* \"#utility.yul\":11703:11872   */\n      jump(tag_652)\n    tag_654:\n      pop\n        /* \"#utility.yul\":11889:11892   */\n      swap1\n      swap7\n        /* \"#utility.yul\":11266:11898   */\n      swap6\n      pop\n      pop\n      pop\n      pop\n      pop\n      pop\n      jump\t// out\n        /* \"#utility.yul\":11903:12147   */\n    tag_197:\n        /* \"#utility.yul\":11994:12000   */\n      0x00\n        /* \"#utility.yul\":12047:12050   */\n      0xa0\n        /* \"#utility.yul\":12035:12044   */\n      dup3\n        /* \"#utility.yul\":12026:12033   */\n      dup5\n        /* \"#utility.yul\":12022:12045   */\n      sub\n        /* \"#utility.yul\":12018:12051   */\n      slt\n        /* \"#utility.yul\":12015:12068   */\n      iszero\n      tag_656\n      jumpi\n        /* \"#utility.yul\":12064:12065   */\n      0x00\n        /* \"#utility.yul\":12061:12062   */\n      dup1\n        /* \"#utility.yul\":12054:12066   */\n      revert\n        /* \"#utility.yul\":12015:12068   */\n    tag_656:\n        /* \"#utility.yul\":12087:12141   */\n      tag_551\n        /* \"#utility.yul\":12133:12140   */\n      dup4\n        /* \"#utility.yul\":12122:12131   */\n      dup4\n        /* \"#utility.yul\":12087:12141   */\n      tag_541\n      jump\t// in\n        /* \"#utility.yul\":12152:12495   */\n    tag_206:\n        /* \"#utility.yul\":12354:12356   */\n      0x20\n        /* \"#utility.yul\":12336:12357   */\n      dup1\n      dup3\n      mstore\n        /* \"#utility.yul\":12393:12395   */\n      0x13\n        /* \"#utility.yul\":12373:12391   */\n      swap1\n      dup3\n      add\n        /* \"#utility.yul\":12366:12396   */\n      mstore\n      shl(0x6a, 0x125b9d985b1a59081c1c9bdc1bdcd85b081251)\n        /* \"#utility.yul\":12427:12429   */\n      0x40\n        /* \"#utility.yul\":12412:12430   */\n      dup3\n      add\n        /* \"#utility.yul\":12405:12454   */\n      mstore\n        /* \"#utility.yul\":12486:12488   */\n      0x60\n        /* \"#utility.yul\":12471:12489   */\n      add\n      swap1\n        /* \"#utility.yul\":12152:12495   */\n      jump\t// out\n        /* \"#utility.yul\":12500:12880   */\n    tag_209:\n        /* \"#utility.yul\":12579:12580   */\n      0x01\n        /* \"#utility.yul\":12575:12587   */\n      dup2\n      dup2\n      shr\n      swap1\n        /* \"#utility.yul\":12622:12634   */\n      dup3\n      and\n      dup1\n        /* \"#utility.yul\":12643:12704   */\n      tag_660\n      jumpi\n        /* \"#utility.yul\":12697:12701   */\n      0x7f\n        /* \"#utility.yul\":12689:12695   */\n      dup3\n        /* \"#utility.yul\":12685:12702   */\n      and\n        /* \"#utility.yul\":12675:12702   */\n      swap2\n      pop\n        /* \"#utility.yul\":12643:12704   */\n    tag_660:\n        /* \"#utility.yul\":12750:12752   */\n      0x20\n        /* \"#utility.yul\":12742:12748   */\n      dup3\n        /* \"#utility.yul\":12739:12753   */\n      lt\n        /* \"#utility.yul\":12719:12737   */\n      dup2\n        /* \"#utility.yul\":12716:12754   */\n      sub\n        /* \"#utility.yul\":12713:12874   */\n      tag_370\n      jumpi\n        /* \"#utility.yul\":12796:12806   */\n      0x4e487b71\n        /* \"#utility.yul\":12791:12794   */\n      0xe0\n        /* \"#utility.yul\":12787:12807   */\n      shl\n        /* \"#utility.yul\":12784:12785   */\n      0x00\n        /* \"#utility.yul\":12777:12808   */\n      mstore\n        /* \"#utility.yul\":12831:12835   */\n      0x22\n        /* \"#utility.yul\":12828:12829   */\n      0x04\n        /* \"#utility.yul\":12821:12836   */\n      mstore\n        /* \"#utility.yul\":12859:12863   */\n      0x24\n        /* \"#utility.yul\":12856:12857   */\n      0x00\n        /* \"#utility.yul\":12849:12864   */\n      revert\n        /* \"#utility.yul\":13582:13926   */\n    tag_233:\n        /* \"#utility.yul\":13784:13786   */\n      0x20\n        /* \"#utility.yul\":13766:13787   */\n      dup1\n      dup3\n      mstore\n        /* \"#utility.yul\":13823:13825   */\n      0x14\n        /* \"#utility.yul\":13803:13821   */\n      swap1\n      dup3\n      add\n        /* \"#utility.yul\":13796:13826   */\n      mstore\n      shl(0x62, 0x14d8dbdc9948191bd95cc81b9bdd08195e1a5cdd)\n        /* \"#utility.yul\":13857:13859   */\n      0x40\n        /* \"#utility.yul\":13842:13860   */\n      dup3\n      add\n        /* \"#utility.yul\":13835:13885   */\n      mstore\n        /* \"#utility.yul\":13917:13919   */\n      0x60\n        /* \"#utility.yul\":13902:13920   */\n      add\n      swap1\n        /* \"#utility.yul\":13582:13926   */\n      jump\t// out\n        /* \"#utility.yul\":14279:14406   */\n    tag_544:\n        /* \"#utility.yul\":14340:14350   */\n      0x4e487b71\n        /* \"#utility.yul\":14335:14338   */\n      0xe0\n        /* \"#utility.yul\":14331:14351   */\n      shl\n        /* \"#utility.yul\":14328:14329   */\n      0x00\n        /* \"#utility.yul\":14321:14352   */\n      mstore\n        /* \"#utility.yul\":14371:14375   */\n      0x11\n        /* \"#utility.yul\":14368:14369   */\n      0x04\n        /* \"#utility.yul\":14361:14376   */\n      mstore\n        /* \"#utility.yul\":14395:14399   */\n      0x24\n        /* \"#utility.yul\":14392:14393   */\n      0x00\n        /* \"#utility.yul\":14385:14400   */\n      revert\n        /* \"#utility.yul\":14411:14536   */\n    tag_238:\n        /* \"#utility.yul\":14476:14485   */\n      dup1\n      dup3\n      add\n        /* \"#utility.yul\":14497:14507   */\n      dup1\n      dup3\n      gt\n        /* \"#utility.yul\":14494:14530   */\n      iszero\n      tag_201\n      jumpi\n        /* \"#utility.yul\":14510:14528   */\n      tag_201\n      tag_544\n      jump\t// in\n        /* \"#utility.yul\":15368:15913   */\n    tag_546:\n        /* \"#utility.yul\":15470:15472   */\n      0x1f\n        /* \"#utility.yul\":15465:15468   */\n      dup3\n        /* \"#utility.yul\":15462:15473   */\n      gt\n        /* \"#utility.yul\":15459:15907   */\n      iszero\n      tag_260\n      jumpi\n        /* \"#utility.yul\":15506:15507   */\n      0x00\n        /* \"#utility.yul\":15531:15536   */\n      dup2\n        /* \"#utility.yul\":15527:15529   */\n      dup2\n        /* \"#utility.yul\":15520:15537   */\n      mstore\n        /* \"#utility.yul\":15576:15580   */\n      0x20\n        /* \"#utility.yul\":15572:15574   */\n      dup2\n        /* \"#utility.yul\":15562:15581   */\n      keccak256\n        /* \"#utility.yul\":15646:15648   */\n      0x1f\n        /* \"#utility.yul\":15634:15644   */\n      dup6\n        /* \"#utility.yul\":15630:15649   */\n      add\n        /* \"#utility.yul\":15627:15628   */\n      0x05\n        /* \"#utility.yul\":15623:15650   */\n      shr\n        /* \"#utility.yul\":15617:15621   */\n      dup2\n        /* \"#utility.yul\":15613:15651   */\n      add\n        /* \"#utility.yul\":15682:15686   */\n      0x20\n        /* \"#utility.yul\":15670:15680   */\n      dup7\n        /* \"#utility.yul\":15667:15687   */\n      lt\n        /* \"#utility.yul\":15664:15711   */\n      iszero\n      tag_675\n      jumpi\n      pop\n        /* \"#utility.yul\":15705:15709   */\n      dup1\n        /* \"#utility.yul\":15664:15711   */\n    tag_675:\n        /* \"#utility.yul\":15760:15762   */\n      0x1f\n        /* \"#utility.yul\":15755:15758   */\n      dup6\n        /* \"#utility.yul\":15751:15763   */\n      add\n        /* \"#utility.yul\":15748:15749   */\n      0x05\n        /* \"#utility.yul\":15744:15764   */\n      shr\n        /* \"#utility.yul\":15738:15742   */\n      dup3\n        /* \"#utility.yul\":15734:15765   */\n      add\n        /* \"#utility.yul\":15724:15765   */\n      swap2\n      pop\n        /* \"#utility.yul\":15815:15897   */\n    tag_676:\n        /* \"#utility.yul\":15833:15835   */\n      dup2\n        /* \"#utility.yul\":15826:15831   */\n      dup2\n        /* \"#utility.yul\":15823:15836   */\n      lt\n        /* \"#utility.yul\":15815:15897   */\n      iszero\n      tag_678\n      jumpi\n        /* \"#utility.yul\":15878:15895   */\n      dup3\n      dup2\n      sstore\n        /* \"#utility.yul\":15859:15860   */\n      0x01\n        /* \"#utility.yul\":15848:15861   */\n      add\n        /* \"#utility.yul\":15815:15897   */\n      jump(tag_676)\n    tag_678:\n        /* \"#utility.yul\":15819:15822   */\n      pop\n      pop\n      pop\n        /* \"#utility.yul\":15368:15913   */\n      pop\n      pop\n      pop\n      jump\t// out\n        /* \"#utility.yul\":16089:17441   */\n    tag_246:\n        /* \"#utility.yul\":16215:16218   */\n      dup2\n        /* \"#utility.yul\":16209:16219   */\n      mload\n        /* \"#utility.yul\":16242:16260   */\n      0xffffffffffffffff\n        /* \"#utility.yul\":16234:16240   */\n      dup2\n        /* \"#utility.yul\":16231:16261   */\n      gt\n        /* \"#utility.yul\":16228:16284   */\n      iszero\n      tag_682\n      jumpi\n        /* \"#utility.yul\":16264:16282   */\n      tag_682\n      tag_452\n      jump\t// in\n    tag_682:\n        /* \"#utility.yul\":16293:16390   */\n      tag_683\n        /* \"#utility.yul\":16383:16389   */\n      dup2\n        /* \"#utility.yul\":16343:16381   */\n      tag_684\n        /* \"#utility.yul\":16375:16379   */\n      dup5\n        /* \"#utility.yul\":16369:16380   */\n      sload\n        /* \"#utility.yul\":16343:16381   */\n      tag_209\n      jump\t// in\n    tag_684:\n        /* \"#utility.yul\":16337:16341   */\n      dup5\n        /* \"#utility.yul\":16293:16390   */\n      tag_546\n      jump\t// in\n    tag_683:\n        /* \"#utility.yul\":16445:16449   */\n      0x20\n      dup1\n        /* \"#utility.yul\":16509:16511   */\n      0x1f\n        /* \"#utility.yul\":16498:16512   */\n      dup4\n      gt\n        /* \"#utility.yul\":16526:16527   */\n      0x01\n        /* \"#utility.yul\":16521:17184   */\n      dup2\n      eq\n      tag_686\n      jumpi\n        /* \"#utility.yul\":17228:17229   */\n      0x00\n        /* \"#utility.yul\":17245:17251   */\n      dup5\n        /* \"#utility.yul\":17242:17331   */\n      iszero\n      tag_687\n      jumpi\n      pop\n        /* \"#utility.yul\":17297:17316   */\n      dup6\n      dup4\n      add\n        /* \"#utility.yul\":17291:17317   */\n      mload\n        /* \"#utility.yul\":17242:17331   */\n    tag_687:\n      not(0x00)\n        /* \"#utility.yul\":16046:16047   */\n      0x03\n        /* \"#utility.yul\":16042:16053   */\n      dup7\n      swap1\n      shl\n        /* \"#utility.yul\":16038:16062   */\n      shr\n        /* \"#utility.yul\":16034:16063   */\n      not\n        /* \"#utility.yul\":16024:16064   */\n      and\n        /* \"#utility.yul\":16070:16071   */\n      0x01\n        /* \"#utility.yul\":16066:16077   */\n      dup6\n      swap1\n      shl\n        /* \"#utility.yul\":16021:16078   */\n      or\n        /* \"#utility.yul\":17344:17425   */\n      dup6\n      sstore\n        /* \"#utility.yul\":16491:17435   */\n      jump(tag_678)\n        /* \"#utility.yul\":16521:17184   */\n    tag_686:\n        /* \"#utility.yul\":15315:15316   */\n      0x00\n        /* \"#utility.yul\":15308:15322   */\n      dup6\n      dup2\n      mstore\n        /* \"#utility.yul\":15352:15356   */\n      0x20\n        /* \"#utility.yul\":15339:15357   */\n      dup2\n      keccak256\n      not(0x1f)\n        /* \"#utility.yul\":16557:16577   */\n      dup7\n      and\n      swap2\n        /* \"#utility.yul\":16675:16911   */\n    tag_690:\n        /* \"#utility.yul\":16689:16696   */\n      dup3\n        /* \"#utility.yul\":16686:16687   */\n      dup2\n        /* \"#utility.yul\":16683:16697   */\n      lt\n        /* \"#utility.yul\":16675:16911   */\n      iszero\n      tag_692\n      jumpi\n        /* \"#utility.yul\":16778:16797   */\n      dup9\n      dup7\n      add\n        /* \"#utility.yul\":16772:16798   */\n      mload\n        /* \"#utility.yul\":16757:16799   */\n      dup3\n      sstore\n        /* \"#utility.yul\":16870:16897   */\n      swap5\n      dup5\n      add\n      swap5\n        /* \"#utility.yul\":16838:16839   */\n      0x01\n        /* \"#utility.yul\":16826:16840   */\n      swap1\n      swap2\n      add\n      swap1\n        /* \"#utility.yul\":16705:16724   */\n      dup5\n      add\n        /* \"#utility.yul\":16675:16911   */\n      jump(tag_690)\n    tag_692:\n        /* \"#utility.yul\":16679:16682   */\n      pop\n        /* \"#utility.yul\":16939:16945   */\n      dup6\n        /* \"#utility.yul\":16930:16937   */\n      dup3\n        /* \"#utility.yul\":16927:16946   */\n      lt\n        /* \"#utility.yul\":16924:17125   */\n      iszero\n      tag_693\n      jumpi\n        /* \"#utility.yul\":17000:17019   */\n      dup8\n      dup6\n      add\n        /* \"#utility.yul\":16994:17020   */\n      mload\n      not(0x00)\n        /* \"#utility.yul\":17083:17084   */\n      0x03\n        /* \"#utility.yul\":17079:17093   */\n      dup9\n      swap1\n      shl\n        /* \"#utility.yul\":17095:17098   */\n      0xf8\n        /* \"#utility.yul\":17075:17099   */\n      and\n        /* \"#utility.yul\":17071:17108   */\n      shr\n        /* \"#utility.yul\":17067:17109   */\n      not\n        /* \"#utility.yul\":17052:17110   */\n      and\n        /* \"#utility.yul\":17037:17111   */\n      dup2\n      sstore\n        /* \"#utility.yul\":16924:17125   */\n    tag_693:\n      pop\n      pop\n      pop\n      pop\n      pop\n        /* \"#utility.yul\":17171:17172   */\n      0x01\n        /* \"#utility.yul\":17155:17169   */\n      swap1\n      dup2\n      shl\n        /* \"#utility.yul\":17151:17173   */\n      add\n        /* \"#utility.yul\":17138:17174   */\n      swap1\n      sstore\n      pop\n        /* \"#utility.yul\":16089:17441   */\n      jump\t// out\n        /* \"#utility.yul\":17446:17737   */\n    tag_248:\n        /* \"#utility.yul\":17623:17629   */\n      dup3\n        /* \"#utility.yul\":17612:17621   */\n      dup2\n        /* \"#utility.yul\":17605:17630   */\n      mstore\n        /* \"#utility.yul\":17666:17668   */\n      0x40\n        /* \"#utility.yul\":17661:17663   */\n      0x20\n        /* \"#utility.yul\":17650:17659   */\n      dup3\n        /* \"#utility.yul\":17646:17664   */\n      add\n        /* \"#utility.yul\":17639:17669   */\n      mstore\n        /* \"#utility.yul\":17586:17590   */\n      0x00\n        /* \"#utility.yul\":17686:17731   */\n      tag_587\n        /* \"#utility.yul\":17727:17729   */\n      0x40\n        /* \"#utility.yul\":17716:17725   */\n      dup4\n        /* \"#utility.yul\":17712:17730   */\n      add\n        /* \"#utility.yul\":17704:17710   */\n      dup5\n        /* \"#utility.yul\":17686:17731   */\n      tag_536\n      jump\t// in\n        /* \"#utility.yul\":17742:17869   */\n    tag_276:\n        /* \"#utility.yul\":17803:17813   */\n      0x4e487b71\n        /* \"#utility.yul\":17798:17801   */\n      0xe0\n        /* \"#utility.yul\":17794:17814   */\n      shl\n        /* \"#utility.yul\":17791:17792   */\n      0x00\n        /* \"#utility.yul\":17784:17815   */\n      mstore\n        /* \"#utility.yul\":17834:17838   */\n      0x32\n        /* \"#utility.yul\":17831:17832   */\n      0x04\n        /* \"#utility.yul\":17824:17839   */\n      mstore\n        /* \"#utility.yul\":17858:17862   */\n      0x24\n        /* \"#utility.yul\":17855:17856   */\n      0x00\n        /* \"#utility.yul\":17848:17863   */\n      revert\n        /* \"#utility.yul\":17874:18009   */\n    tag_278:\n        /* \"#utility.yul\":17913:17916   */\n      0x00\n        /* \"#utility.yul\":17934:17951   */\n      0x01\n      dup3\n      add\n        /* \"#utility.yul\":17931:17974   */\n      tag_699\n      jumpi\n        /* \"#utility.yul\":17954:17972   */\n      tag_699\n      tag_544\n      jump\t// in\n    tag_699:\n      pop\n        /* \"#utility.yul\":18001:18002   */\n      0x01\n        /* \"#utility.yul\":17990:18003   */\n      add\n      swap1\n        /* \"#utility.yul\":17874:18009   */\n      jump\t// out\n        /* \"#utility.yul\":18370:18659   */\n    tag_309:\n        /* \"#utility.yul\":18501:18504   */\n      0x00\n        /* \"#utility.yul\":18539:18545   */\n      dup3\n        /* \"#utility.yul\":18533:18546   */\n      mload\n        /* \"#utility.yul\":18555:18621   */\n      tag_702\n        /* \"#utility.yul\":18614:18620   */\n      dup2\n        /* \"#utility.yul\":18609:18612   */\n      dup5\n        /* \"#utility.yul\":18602:18606   */\n      0x20\n        /* \"#utility.yul\":18594:18600   */\n      dup8\n        /* \"#utility.yul\":18590:18607   */\n      add\n        /* \"#utility.yul\":18555:18621   */\n      tag_535\n      jump\t// in\n    tag_702:\n        /* \"#utility.yul\":18637:18653   */\n      swap2\n      swap1\n      swap2\n      add\n      swap3\n        /* \"#utility.yul\":18370:18659   */\n      swap2\n      pop\n      pop\n      jump\t// out\n        /* \"#utility.yul\":19715:19940   */\n    tag_324:\n        /* \"#utility.yul\":19819:19823   */\n      0xff\n        /* \"#utility.yul\":19798:19810   */\n      dup2\n      dup2\n      and\n        /* \"#utility.yul\":19812:19824   */\n      dup4\n      dup3\n      and\n        /* \"#utility.yul\":19794:19825   */\n      mul\n        /* \"#utility.yul\":19845:19867   */\n      swap1\n      dup2\n      and\n      swap1\n        /* \"#utility.yul\":19886:19910   */\n      dup2\n      dup2\n      eq\n        /* \"#utility.yul\":19876:19934   */\n      tag_708\n      jumpi\n        /* \"#utility.yul\":19914:19932   */\n      tag_708\n      tag_544\n      jump\t// in\n    tag_708:\n        /* \"#utility.yul\":19876:19934   */\n      pop\n        /* \"#utility.yul\":19715:19940   */\n      swap3\n      swap2\n      pop\n      pop\n      jump\t// out\n        /* \"#utility.yul\":19945:20093   */\n    tag_330:\n        /* \"#utility.yul\":20033:20037   */\n      0xff\n        /* \"#utility.yul\":20012:20024   */\n      dup2\n      dup2\n      and\n        /* \"#utility.yul\":20026:20038   */\n      dup4\n      dup3\n      and\n        /* \"#utility.yul\":20008:20039   */\n      add\n      swap1\n        /* \"#utility.yul\":20051:20064   */\n      dup2\n      gt\n        /* \"#utility.yul\":20048:20087   */\n      iszero\n      tag_201\n      jumpi\n        /* \"#utility.yul\":20067:20085   */\n      tag_201\n      tag_544\n      jump\t// in\n        /* \"#utility.yul\":20098:20360   */\n    tag_335:\n        /* \"#utility.yul\":20136:20137   */\n      0x00\n        /* \"#utility.yul\":20170:20174   */\n      0xff\n        /* \"#utility.yul\":20167:20168   */\n      dup4\n        /* \"#utility.yul\":20163:20175   */\n      and\n        /* \"#utility.yul\":20194:20197   */\n      dup1\n        /* \"#utility.yul\":20184:20318   */\n      tag_713\n      jumpi\n        /* \"#utility.yul\":20240:20250   */\n      0x4e487b71\n        /* \"#utility.yul\":20235:20238   */\n      0xe0\n        /* \"#utility.yul\":20231:20251   */\n      shl\n        /* \"#utility.yul\":20228:20229   */\n      0x00\n        /* \"#utility.yul\":20221:20252   */\n      mstore\n        /* \"#utility.yul\":20275:20279   */\n      0x12\n        /* \"#utility.yul\":20272:20273   */\n      0x04\n        /* \"#utility.yul\":20265:20280   */\n      mstore\n        /* \"#utility.yul\":20303:20307   */\n      0x24\n        /* \"#utility.yul\":20300:20301   */\n      0x00\n        /* \"#utility.yul\":20293:20308   */\n      revert\n        /* \"#utility.yul\":20184:20318   */\n    tag_713:\n        /* \"#utility.yul\":20350:20353   */\n      dup1\n        /* \"#utility.yul\":20343:20347   */\n      0xff\n        /* \"#utility.yul\":20340:20341   */\n      dup5\n        /* \"#utility.yul\":20336:20348   */\n      and\n        /* \"#utility.yul\":20332:20354   */\n      div\n        /* \"#utility.yul\":20327:20354   */\n      swap2\n      pop\n      pop\n        /* \"#utility.yul\":20098:20360   */\n      swap3\n      swap2\n      pop\n      pop\n      jump\t// out\n        /* \"#utility.yul\":20365:20493   */\n    tag_337:\n        /* \"#utility.yul\":20432:20441   */\n      dup2\n      dup2\n      sub\n        /* \"#utility.yul\":20453:20464   */\n      dup2\n      dup2\n      gt\n        /* \"#utility.yul\":20450:20487   */\n      iszero\n      tag_201\n      jumpi\n        /* \"#utility.yul\":20467:20485   */\n      tag_201\n      tag_544\n      jump\t// in\n        /* \"#utility.yul\":20900:21427   */\n    tag_348:\n        /* \"#utility.yul\":21153:21159   */\n      dup5\n        /* \"#utility.yul\":21142:21151   */\n      dup2\n        /* \"#utility.yul\":21135:21160   */\n      mstore\n        /* \"#utility.yul\":21196:21199   */\n      0x80\n        /* \"#utility.yul\":21191:21193   */\n      0x20\n        /* \"#utility.yul\":21180:21189   */\n      dup3\n        /* \"#utility.yul\":21176:21194   */\n      add\n        /* \"#utility.yul\":21169:21200   */\n      mstore\n        /* \"#utility.yul\":21116:21120   */\n      0x00\n        /* \"#utility.yul\":21223:21269   */\n      tag_719\n        /* \"#utility.yul\":21264:21267   */\n      0x80\n        /* \"#utility.yul\":21253:21262   */\n      dup4\n        /* \"#utility.yul\":21249:21268   */\n      add\n        /* \"#utility.yul\":21241:21247   */\n      dup7\n        /* \"#utility.yul\":21223:21269   */\n      tag_536\n      jump\t// in\n    tag_719:\n        /* \"#utility.yul\":21317:21326   */\n      dup3\n        /* \"#utility.yul\":21309:21315   */\n      dup2\n        /* \"#utility.yul\":21305:21327   */\n      sub\n        /* \"#utility.yul\":21300:21302   */\n      0x40\n        /* \"#utility.yul\":21289:21298   */\n      dup5\n        /* \"#utility.yul\":21285:21303   */\n      add\n        /* \"#utility.yul\":21278:21328   */\n      mstore\n        /* \"#utility.yul\":21345:21378   */\n      tag_720\n        /* \"#utility.yul\":21371:21377   */\n      dup2\n        /* \"#utility.yul\":21363:21369   */\n      dup7\n        /* \"#utility.yul\":21345:21378   */\n      tag_536\n      jump\t// in\n    tag_720:\n        /* \"#utility.yul\":21337:21378   */\n      swap2\n      pop\n      pop\n        /* \"#utility.yul\":21414:21420   */\n      dup3\n        /* \"#utility.yul\":21409:21411   */\n      0x60\n        /* \"#utility.yul\":21398:21407   */\n      dup4\n        /* \"#utility.yul\":21394:21412   */\n      add\n        /* \"#utility.yul\":21387:21421   */\n      mstore\n        /* \"#utility.yul\":20900:21427   */\n      swap6\n      swap5\n      pop\n      pop\n      pop\n      pop\n      pop\n      jump\t// out\n        /* \"#utility.yul\":21776:21912   */\n    tag_394:\n        /* \"#utility.yul\":21815:21818   */\n      0x00\n        /* \"#utility.yul\":21843:21848   */\n      dup2\n        /* \"#utility.yul\":21833:21872   */\n      tag_724\n      jumpi\n        /* \"#utility.yul\":21852:21870   */\n      tag_724\n      tag_544\n      jump\t// in\n    tag_724:\n      pop\n      not(0x00)\n        /* \"#utility.yul\":21888:21906   */\n      add\n      swap1\n        /* \"#utility.yul\":21776:21912   */\n      jump\t// out\n        /* \"#utility.yul\":22571:22872   */\n    tag_405:\n        /* \"#utility.yul\":22742:22744   */\n      0x40\n        /* \"#utility.yul\":22731:22740   */\n      dup2\n        /* \"#utility.yul\":22724:22745   */\n      mstore\n        /* \"#utility.yul\":22705:22709   */\n      0x00\n        /* \"#utility.yul\":22762:22807   */\n      tag_729\n        /* \"#utility.yul\":22803:22805   */\n      0x40\n        /* \"#utility.yul\":22792:22801   */\n      dup4\n        /* \"#utility.yul\":22788:22806   */\n      add\n        /* \"#utility.yul\":22780:22786   */\n      dup6\n        /* \"#utility.yul\":22762:22807   */\n      tag_536\n      jump\t// in\n    tag_729:\n        /* \"#utility.yul\":22754:22807   */\n      swap1\n      pop\n        /* \"#utility.yul\":22857:22863   */\n      dup3\n        /* \"#utility.yul\":22850:22864   */\n      iszero\n        /* \"#utility.yul\":22843:22865   */\n      iszero\n        /* \"#utility.yul\":22838:22840   */\n      0x20\n        /* \"#utility.yul\":22827:22836   */\n      dup4\n        /* \"#utility.yul\":22823:22841   */\n      add\n        /* \"#utility.yul\":22816:22866   */\n      mstore\n        /* \"#utility.yul\":22571:22872   */\n      swap4\n      swap3\n      pop\n      pop\n      pop\n      jump\t// out\n    stop\n    data_a33092ec2ea5e84579a4a7f81a8171c84a984183e655ab76a6ea5c0d5344c7b0 482648e7878e9fa54c0a2f67ffd22d00ebc37cf7a03e060e428d2ab0cd6735cc\n    data_cb864c43dd5d441bb6271f424f11befa622c032dfd374d226e26fbbdb782b8f8 a49807205ce4d355092ef5a8a18f56e8913cf4a201fbe287825b095693c21775\n\n    auxdata: 0xa26469706673582212202827ecd50a525cd6b10675f9849ddba10548dbeb2e9cd48d3e93b294c561738264736f6c63430008140033\n}\n",
				"bytecode": {
					"linkReferences": {},
					"object": "60806040523480156200001157600080fd5b506200001f60003362000135565b506001805460ff191681556002556200003a60003362000135565b50620000677fa49807205ce4d355092ef5a8a18f56e8913cf4a201fbe287825b095693c217753362000135565b50620000947f482648e7878e9fa54c0a2f67ffd22d00ebc37cf7a03e060e428d2ab0cd6735cc3362000135565b506040805160a08101825260198082526020820152601481830152600f606082018190526080909101526006805464ffffffffff1916640f0f14191917905580516411d4150b4d60da1b815260058082018190528251918290036025018220805460ff19908116600190811790925567436c617564652d3360c01b8452600884019290925292519182900360280190912080549091169091179055620001e4565b6000828152602081815260408083206001600160a01b038516845290915281205460ff16620001da576000838152602081815260408083206001600160a01b03861684529091529020805460ff19166001179055620001913390565b6001600160a01b0316826001600160a01b0316847f2f8788117e7eff1d82e926ec794901d17c78024a50270940304540a733656f0d60405160405180910390a4506001620001de565b5060005b92915050565b6128d880620001f46000396000f3fe608060405234801561001057600080fd5b506004361061023d5760003560e01c80638456cb591161013b578063bfe42a37116100b8578063d5c1a1e11161007c578063d5c1a1e1146105b7578063ea535940146105ca578063ebdf690f146105ea578063f2bcac3d14610611578063ff8dea011461062657600080fd5b8063bfe42a37146104f7578063c601f7af1461051e578063c772a8a614610533578063cfe85a2f14610584578063d547741f146105a457600080fd5b8063a217fddf116100ff578063a217fddf1461033f578063a91ad18e146104b4578063aca5a8a7146104be578063b8a956d3146104d1578063ba340773146104e457600080fd5b80638456cb591461044c57806391b9f9d81461045457806391d148541461046757806396caac0a1461047a578063a02d72fb1461048d57600080fd5b80633f4ba83a116101c957806361c992a31161018d57806361c992a3146103ce57806368ca78f9146103f15780637092b0bc146104045780637131f0251461041757806375b238fc1461043757600080fd5b80633f4ba83a1461033757806340b892701461033f5780634da89fbd146103475780634fe9d1f5146103b05780635c975abb146103c357600080fd5b80632b116373116102105780632b116373146102c55780632ed49cf7146102da5780632f2ff15d1461030857806336568abe1461031b5780633a1e017f1461032e57600080fd5b806301ffc9a7146102425780630311b82d1461026a578063248a9ca31461028c57806327ff6223146102bd575b600080fd5b610255610250366004611e8f565b610639565b60405190151581526020015b60405180910390f35b61027d610278366004611ec0565b610670565b60405161026193929190611f29565b6102af61029a366004611ec0565b60009081526020819052604090206001015490565b604051908152602001610261565b6102af606481565b6102d86102d336600461200b565b610765565b005b6102556102e8366004612082565b805160208183018101805160058252928201919093012091525460ff1681565b6102d86103163660046120db565b6109f0565b6102d86103293660046120db565b610a1b565b6102af60075481565b6102d8610a53565b6102af600081565b60065461037c9060ff808216916101008104821691620100008204811691630100000081048216916401000000009091041685565b6040805160ff968716815294861660208601529285169284019290925283166060830152909116608082015260a001610261565b6102d86103be366004612107565b610a76565b60015460ff16610255565b6102556103dc3660046121c0565b60046020526000908152604090205460ff1681565b6102556103ff366004612107565b610ac2565b6102d861041236600461227d565b610b1d565b6102af6104253660046121c0565b60086020526000908152604090205481565b6102af60008051602061288383398151915281565b6102d86110b5565b6102d8610462366004612107565b6110d5565b6102556104753660046120db565b611121565b610255610488366004611ec0565b61114a565b6102af7f58223cdfb69946630d837d40b5c366a584f0217ada7fddd8318f2e08603cfa2281565b6102af62278d0081565b6102af6104cc3660046121c0565b611192565b6102d86104df366004612307565b6111fc565b6102d86104f236600461235e565b611336565b6102af7f7b8bb8356a3f32f5c111ff23f050d97f08988e0883529ea7bff3b918887a6e0e81565b6102af60008051602061286383398151915281565b61056f6105413660046121c0565b6001600160a01b0316600090815260086020908152604080832054600490925290912054909160ff90911690565b60408051928352901515602083015201610261565b610597610592366004611ec0565b611405565b60405161026191906123a3565b6102d86105b23660046120db565b6114ef565b6102d86105c53660046123eb565b611514565b6105dd6105d8366004611ec0565b61161a565b6040516102619190612415565b6102af7fede9dcdb0ce99dc7cec9c7be9246ad08b37853683ad91569c187b647ddf5e21c81565b6106196118c8565b60405161026191906124e1565b6102d8610634366004612525565b611a2d565b60006001600160e01b03198216637965db0b60e01b148061066a57506301ffc9a760e01b6001600160e01b03198316145b92915050565b60006060600083600081116106a05760405162461bcd60e51b815260040161069790612541565b60405180910390fd5b6000858152600360205260409020600181015460058201546002830180549091600160a01b900460ff169082906106d69061256e565b80601f01602080910402602001604051908101604052809291908181526020018280546107029061256e565b801561074f5780601f106107245761010080835404028352916020019161074f565b820191906000526020600020905b81548152906001019060200180831161073257829003601f168201915b5050505050915094509450945050509193909250565b3360009081526004602052604090205460ff166107bc5760405162461bcd60e51b81526020600482015260156024820152744e6f7420617574686f72697a6564206f7261636c6560581b6044820152606401610697565b83600081116107dd5760405162461bcd60e51b815260040161069790612541565b8360648111156108245760405162461bcd60e51b815260206004820152601260248201527153636f7265206f7574206f662072616e676560701b6044820152606401610697565b61082c611b88565b600086815260036020526040902060050154600160a01b900460ff166108645760405162461bcd60e51b8152600401610697906125a2565b6000868152600360205260409020600501546001600160a01b031633146108c35760405162461bcd60e51b81526020600482015260136024820152724e6f74206f726967696e616c206f7261636c6560681b6044820152606401610697565b6000868152600360205260409020600401546108e39062278d00906125e6565b42111561092a5760405162461bcd60e51b8152602060048201526015602482015274155c19185d19481c195c9a5bd908195e1c1a5c9959605a1b6044820152606401610697565b60008351116109745760405162461bcd60e51b8152602060048201526016602482015275155c19185d19481c99585cdbdb881c995c5d5a5c995960521b6044820152606401610697565b6000868152600360205260409020600181018690556002016109968582612647565b5060008681526003602052604090819020426004909101555186907fd3e8dbbe8ff60a1fae1e5f88e71f27270ed38badc7b26e19922ed94fd12f5fe9906109e09088908790612707565b60405180910390a2505050505050565b600082815260208190526040902060010154610a0b81611bd0565b610a158383611bda565b50505050565b6001600160a01b0381163314610a445760405163334bd91960e11b815260040160405180910390fd5b610a4e8282611c6c565b505050565b600080516020612883833981519152610a6b81611bd0565b610a73611cd7565b50565b6000610a8181611bd0565b60005b8251811015610a1557610ab0838281518110610aa257610aa2612720565b6020026020010151856114ef565b80610aba81612736565b915050610a84565b6000805b8251811015610b1357610af2838281518110610ae457610ae4612720565b602002602001015185611121565b15610b0157600191505061066a565b80610b0b81612736565b915050610ac6565b5060009392505050565b3360009081526004602052604090205460ff16610b745760405162461bcd60e51b81526020600482015260156024820152744e6f7420617574686f72697a6564206f7261636c6560581b6044820152606401610697565b8460008111610b955760405162461bcd60e51b815260040161069790612541565b846064811115610bdc5760405162461bcd60e51b815260206004820152601260248201527153636f7265206f7574206f662072616e676560701b6044820152606401610697565b610be4611b88565b610bec611d29565b6000855111610c3d5760405162461bcd60e51b815260206004820152601b60248201527f4a757374696669636174696f6e204950465320726571756972656400000000006044820152606401610697565b600584604051610c4d919061274f565b9081526040519081900360200190205460ff16610ca35760405162461bcd60e51b8152602060048201526014602482015273155b9cdd5c1c1bdc9d1959081052481b5bd9195b60621b6044820152606401610697565b600087815260036020526040902060050154600160a01b900460ff1615610d035760405162461bcd60e51b815260206004820152601460248201527353636f726520616c72656164792065786973747360601b6044820152606401610697565b6064836000015160ff1611158015610d2357506064836020015160ff1611155b8015610d3757506064836040015160ff1611155b8015610d4b57506064836060015160ff1611155b8015610d5f57506064836080015160ff1611155b610dab5760405162461bcd60e51b815260206004820152601860248201527f496e76616c696420627265616b646f776e2073636f72657300000000000000006044820152606401610697565b6006546080840151600091606491610dce91640100000000900460ff169061276b565b6006546060870151610dea916301000000900460ff169061276b565b6006546040880151610e059162010000900460ff169061276b565b6006546020890151610e1f91610100900460ff169061276b565b6006548951610e319160ff169061276b565b610e3b919061278e565b610e45919061278e565b610e4f919061278e565b610e59919061278e565b610e6391906127a7565b60ff169050610e736005826127d7565b8710158015610e8c5750610e888160056125e6565b8711155b610ee25760405162461bcd60e51b815260206004820152602160248201527f53636f726520696e636f6e73697374656e74207769746820627265616b646f776044820152603760f91b6064820152608401610697565b604080516101008101825289815260208082018a81528284018a8152606084018a90524260808501523360a0850152600160c0850181905260e085018a905260008e815260039094529490922083518155905193810193909355519091906002820190610f4f9082612647565b5060608201516003820190610f649082612647565b50608082810151600483015560a083015160058301805460c08601511515600160a01b026001600160a81b03199091166001600160a01b039093169290921791909117905560e090920151805160069092018054602083015160408401516060850151949096015160ff9081166401000000000264ff000000001995821663010000000263ff0000001998831662010000029890981663ffff0000199383166101000261ffff19909516979092169690961792909217161793909317161790556007805490600061103483612736565b909155505033600090815260086020526040812080549161105483612736565b9190505550336001600160a01b0316887f09e8ad66e4736435405704d301d344e9454f286d3feeb2036b1adc6f4900ccbc8989894260405161109994939291906127ea565b60405180910390a3506110ac6001600255565b50505050505050565b6000805160206128838339815191526110cd81611bd0565b610a73611d80565b60006110e081611bd0565b60005b8251811015610a155761110f83828151811061110157611101612720565b6020026020010151856109f0565b8061111981612736565b9150506110e3565b6000918252602082815260408084206001600160a01b0393909316845291905290205460ff1690565b6000816000811161116d5760405162461bcd60e51b815260040161069790612541565b600083815260036020526040902060050154600160a01b900460ff1691505b50919050565b60008061119d6118c8565b90506000805b82518110156111f4576111cf8382815181106111c1576111c1612720565b602002602001015186611121565b156111e257816111de81612736565b9250505b806111ec81612736565b9150506111a3565b509392505050565b600061120781611bd0565b600083815260036020526040902060050154600160a01b900460ff1661123f5760405162461bcd60e51b8152600401610697906125a2565b60008251116112825760405162461bcd60e51b815260206004820152600f60248201526e1499585cdbdb881c995c5d5a5c9959608a1b6044820152606401610697565b600083815260036020526040812081815560018101829055906112a86002830182611e41565b6112b6600383016000611e41565b506000600482018190556005820180546001600160a81b03191690556006909101805464ffffffffff1916905560078054916112f183612827565b9190505550827fd3e8dbbe8ff60a1fae1e5f88e71f27270ed38badc7b26e19922ed94fd12f5fe9600084604051611329929190612707565b60405180910390a2505050565b60008051602061288383398151915261134e81611bd0565b60008351116113975760405162461bcd60e51b815260206004820152601560248201527424b73b30b634b21036b7b232b6103b32b939b4b7b760591b6044820152606401610697565b816005846040516113a8919061274f565b908152604051908190036020018120805492151560ff19909316929092179091557f2e5180543742ece2db44ed70b2619f2bf555a29a7bdead994736174f0d90a9b6906113f8908590859061283e565b60405180910390a1505050565b6040805160a08101825260008082526020820181905291810182905260608101829052608081019190915281600081116114515760405162461bcd60e51b815260040161069790612541565b600083815260036020526040902060050154600160a01b900460ff166114895760405162461bcd60e51b8152600401610697906125a2565b5050600090815260036020908152604091829020825160a08101845260069091015460ff80821683526101008204811693830193909352620100008104831693820193909352630100000083048216606082015264010000000090920416608082015290565b60008281526020819052604090206001015461150a81611bd0565b610a158383611c6c565b60008051602061288383398151915261152c81611bd0565b6001600160a01b03831661157b5760405162461bcd60e51b8152602060048201526016602482015275496e76616c6964206f7261636c65206164647265737360501b6044820152606401610697565b6001600160a01b0383166000908152600460205260409020805460ff191683158015919091179091556115c5576115c0600080516020612863833981519152846109f0565b6115dd565b6115dd600080516020612863833981519152846114ef565b826001600160a01b03167f82a8fb1e779ea45ad427cc612e47087f5386a567e49dce488185e40646fa48d583604051611329911515815260200190565b6116826040805161010081018252600080825260208083018290526060838501819052808401819052608080850184905260a080860185905260c08601859052865190810187528481529283018490529482018390528101829052928301529060e082015290565b81600081116116a35760405162461bcd60e51b815260040161069790612541565b600083815260036020526040902060050154600160a01b900460ff166116db5760405162461bcd60e51b8152600401610697906125a2565b6003600084815260200190815260200160002060405180610100016040529081600082015481526020016001820154815260200160028201805461171e9061256e565b80601f016020809104026020016040519081016040528092919081815260200182805461174a9061256e565b80156117975780601f1061176c57610100808354040283529160200191611797565b820191906000526020600020905b81548152906001019060200180831161177a57829003601f168201915b505050505081526020016003820180546117b09061256e565b80601f01602080910402602001604051908101604052809291908181526020018280546117dc9061256e565b80156118295780601f106117fe57610100808354040283529160200191611829565b820191906000526020600020905b81548152906001019060200180831161180c57829003601f168201915b5050509183525050600482015460208083019190915260058301546001600160a01b03811660408085019190915260ff600160a01b90920482161515606080860191909152815160a0810183526006909601548084168752610100810484169487019490945262010000840483169186019190915263010000008304821690850152640100000000909104166080838101919091520152915050919050565b60408051600680825260e082019092526060916020820160c0803683370190505090506000801b8160008151811061190257611902612720565b6020026020010181815250506000805160206128838339815191528160018151811061193057611930612720565b6020026020010181815250506000805160206128638339815191528160028151811061195e5761195e612720565b6020026020010181815250507fede9dcdb0ce99dc7cec9c7be9246ad08b37853683ad91569c187b647ddf5e21c8160038151811061199e5761199e612720565b6020026020010181815250507f58223cdfb69946630d837d40b5c366a584f0217ada7fddd8318f2e08603cfa22816004815181106119de576119de612720565b6020026020010181815250507f7b8bb8356a3f32f5c111ff23f050d97f08988e0883529ea7bff3b918887a6e0e81600581518110611a1e57611a1e612720565b60200260200101818152505090565b600080516020612883833981519152611a4581611bd0565b60808201516060830151604084015160208501518551611a65919061278e565b611a6f919061278e565b611a79919061278e565b611a83919061278e565b60ff16606414611ad55760405162461bcd60e51b815260206004820152601760248201527f57656967687473206d7573742073756d20746f203130300000000000000000006044820152606401610697565b81516006805460208501516040808701516060880151608089015160ff9081166401000000000264ff000000001992821663010000000263ff0000001994831662010000029490941663ffff0000199683166101000261ffff1990981692909916919091179590951793909316959095179490941716179055517f90565f56924446477768885e9b20cf4cb9d2183f2ad4313f3e90f1dcaedcc0ae90611b7c9084906123a3565b60405180910390a15050565b60015460ff1615611bce5760405162461bcd60e51b815260206004820152601060248201526f14185d5cd8589b194e881c185d5cd95960821b6044820152606401610697565b565b610a738133611dbb565b6000611be68383611121565b611c64576000838152602081815260408083206001600160a01b03861684529091529020805460ff19166001179055611c1c3390565b6001600160a01b0316826001600160a01b0316847f2f8788117e7eff1d82e926ec794901d17c78024a50270940304540a733656f0d60405160405180910390a450600161066a565b50600061066a565b6000611c788383611121565b15611c64576000838152602081815260408083206001600160a01b0386168085529252808320805460ff1916905551339286917ff6391f5c32d9c69d2a47ea670b442974b53935d1edc7fd64eb21e047a839171b9190a450600161066a565b611cdf611df8565b6001805460ff191690557f5db9ee0a495bf2e6ff9c91a7834c1ba4fdd244a5e8aa4e537bd38aeae4b073aa335b6040516001600160a01b03909116815260200160405180910390a1565b6002805403611d7a5760405162461bcd60e51b815260206004820152601f60248201527f5265656e7472616e637947756172643a207265656e7472616e742063616c6c006044820152606401610697565b60028055565b611d88611b88565b6001805460ff1916811790557f62e78cea01bee320cd4e420270b5ea74000d11b0c9f74754ebdbfc544b05a25833611d0c565b611dc58282611121565b611df45760405163e2517d3f60e01b81526001600160a01b038216600482015260248101839052604401610697565b5050565b60015460ff16611bce5760405162461bcd60e51b815260206004820152601460248201527314185d5cd8589b194e881b9bdd081c185d5cd95960621b6044820152606401610697565b508054611e4d9061256e565b6000825580601f10611e5d575050565b601f016020900490600052602060002090810190610a7391905b80821115611e8b5760008155600101611e77565b5090565b600060208284031215611ea157600080fd5b81356001600160e01b031981168114611eb957600080fd5b9392505050565b600060208284031215611ed257600080fd5b5035919050565b60005b83811015611ef4578181015183820152602001611edc565b50506000910152565b60008151808452611f15816020860160208601611ed9565b601f01601f19169290920160200192915050565b838152606060208201526000611f426060830185611efd565b90508215156040830152949350505050565b634e487b7160e01b600052604160045260246000fd5b604051601f8201601f1916810167ffffffffffffffff81118282101715611f9357611f93611f54565b604052919050565b600082601f830112611fac57600080fd5b813567ffffffffffffffff811115611fc657611fc6611f54565b611fd9601f8201601f1916602001611f6a565b818152846020838601011115611fee57600080fd5b816020850160208301376000918101602001919091529392505050565b6000806000806080858703121561202157600080fd5b8435935060208501359250604085013567ffffffffffffffff8082111561204757600080fd5b61205388838901611f9b565b9350606087013591508082111561206957600080fd5b5061207687828801611f9b565b91505092959194509250565b60006020828403121561209457600080fd5b813567ffffffffffffffff8111156120ab57600080fd5b6120b784828501611f9b565b949350505050565b80356001600160a01b03811681146120d657600080fd5b919050565b600080604083850312156120ee57600080fd5b823591506120fe602084016120bf565b90509250929050565b6000806040838503121561211a57600080fd5b612123836120bf565b915060208084013567ffffffffffffffff8082111561214157600080fd5b818601915086601f83011261215557600080fd5b81358181111561216757612167611f54565b8060051b9150612178848301611f6a565b818152918301840191848101908984111561219257600080fd5b938501935b838510156121b057843582529385019390850190612197565b8096505050505050509250929050565b6000602082840312156121d257600080fd5b611eb9826120bf565b803560ff811681146120d657600080fd5b600060a082840312156121fe57600080fd5b60405160a0810181811067ffffffffffffffff8211171561222157612221611f54565b604052905080612230836121db565b815261223e602084016121db565b602082015261224f604084016121db565b6040820152612260606084016121db565b6060820152612271608084016121db565b60808201525092915050565b6000806000806000610120868803121561229657600080fd5b8535945060208601359350604086013567ffffffffffffffff808211156122bc57600080fd5b6122c889838a01611f9b565b945060608801359150808211156122de57600080fd5b506122eb88828901611f9b565b9250506122fb87608088016121ec565b90509295509295909350565b6000806040838503121561231a57600080fd5b82359150602083013567ffffffffffffffff81111561233857600080fd5b61234485828601611f9b565b9150509250929050565b803580151581146120d657600080fd5b6000806040838503121561237157600080fd5b823567ffffffffffffffff81111561238857600080fd5b61239485828601611f9b565b9250506120fe6020840161234e565b60a0810161066a828460ff815116825260ff602082015116602083015260ff604082015116604083015260ff606082015116606083015260ff60808201511660808301525050565b600080604083850312156123fe57600080fd5b612407836120bf565b91506120fe6020840161234e565b6020815281516020820152602082015160408201526000604083015161018060608401526124476101a0840182611efd565b90506060840151601f198483030160808501526124648282611efd565b915050608084015160a084015260018060a01b0360a08501511660c084015260c084015161249660e085018215159052565b5060e0840151805160ff9081166101008601526020820151811661012086015260408201518116610140860152606082015181166101608601526080820151166101808501526111f4565b6020808252825182820181905260009190848201906040850190845b81811015612519578351835292840192918401916001016124fd565b50909695505050505050565b600060a0828403121561253757600080fd5b611eb983836121ec565b602080825260139082015272125b9d985b1a59081c1c9bdc1bdcd85b081251606a1b604082015260600190565b600181811c9082168061258257607f821691505b60208210810361118c57634e487b7160e01b600052602260045260246000fd5b60208082526014908201527314d8dbdc9948191bd95cc81b9bdd08195e1a5cdd60621b604082015260600190565b634e487b7160e01b600052601160045260246000fd5b8082018082111561066a5761066a6125d0565b601f821115610a4e57600081815260208120601f850160051c810160208610156126205750805b601f850160051c820191505b8181101561263f5782815560010161262c565b505050505050565b815167ffffffffffffffff81111561266157612661611f54565b6126758161266f845461256e565b846125f9565b602080601f8311600181146126aa57600084156126925750858301515b600019600386901b1c1916600185901b17855561263f565b600085815260208120601f198616915b828110156126d9578886015182559484019460019091019084016126ba565b50858210156126f75787850151600019600388901b60f8161c191681555b5050505050600190811b01905550565b8281526040602082015260006120b76040830184611efd565b634e487b7160e01b600052603260045260246000fd5b600060018201612748576127486125d0565b5060010190565b60008251612761818460208701611ed9565b9190910192915050565b60ff8181168382160290811690818114612787576127876125d0565b5092915050565b60ff818116838216019081111561066a5761066a6125d0565b600060ff8316806127c857634e487b7160e01b600052601260045260246000fd5b8060ff84160491505092915050565b8181038181111561066a5761066a6125d0565b8481526080602082015260006128036080830186611efd565b82810360408401526128158186611efd565b91505082606083015295945050505050565b600081612836576128366125d0565b506000190190565b6040815260006128516040830185611efd565b90508215156020830152939250505056fe482648e7878e9fa54c0a2f67ffd22d00ebc37cf7a03e060e428d2ab0cd6735cca49807205ce4d355092ef5a8a18f56e8913cf4a201fbe287825b095693c21775a26469706673582212202827ecd50a525cd6b10675f9849ddba10548dbeb2e9cd48d3e93b294c561738264736f6c63430008140033",
					"opcodes": "PUSH1 0x80 PUSH1 0x40 MSTORE CALLVALUE DUP1 ISZERO PUSH3 0x11 JUMPI PUSH1 0x0 DUP1 REVERT JUMPDEST POP PUSH3 0x1F PUSH1 0x0 CALLER PUSH3 0x135 JUMP JUMPDEST POP PUSH1 0x1 DUP1 SLOAD PUSH1 0xFF NOT AND DUP2 SSTORE PUSH1 0x2 SSTORE PUSH3 0x3A PUSH1 0x0 CALLER PUSH3 0x135 JUMP JUMPDEST POP PUSH3 0x67 PUSH32 0xA49807205CE4D355092EF5A8A18F56E8913CF4A201FBE287825B095693C21775 CALLER PUSH3 0x135 JUMP JUMPDEST POP PUSH3 0x94 PUSH32 0x482648E7878E9FA54C0A2F67FFD22D00EBC37CF7A03E060E428D2AB0CD6735CC CALLER PUSH3 0x135 JUMP JUMPDEST POP PUSH1 0x40 DUP1 MLOAD PUSH1 0xA0 DUP2 ADD DUP3 MSTORE PUSH1 0x19 DUP1 DUP3 MSTORE PUSH1 0x20 DUP3 ADD MSTORE PUSH1 0x14 DUP2 DUP4 ADD MSTORE PUSH1 0xF PUSH1 0x60 DUP3 ADD DUP2 SWAP1 MSTORE PUSH1 0x80 SWAP1 SWAP2 ADD MSTORE PUSH1 0x6 DUP1 SLOAD PUSH5 0xFFFFFFFFFF NOT AND PUSH5 0xF0F141919 OR SWAP1 SSTORE DUP1 MLOAD PUSH5 0x11D4150B4D PUSH1 0xDA SHL DUP2 MSTORE PUSH1 0x5 DUP1 DUP3 ADD DUP2 SWAP1 MSTORE DUP3 MLOAD SWAP2 DUP3 SWAP1 SUB PUSH1 0x25 ADD DUP3 KECCAK256 DUP1 SLOAD PUSH1 0xFF NOT SWAP1 DUP2 AND PUSH1 0x1 SWAP1 DUP2 OR SWAP1 SWAP3 SSTORE PUSH8 0x436C617564652D33 PUSH1 0xC0 SHL DUP5 MSTORE PUSH1 0x8 DUP5 ADD SWAP3 SWAP1 SWAP3 MSTORE SWAP3 MLOAD SWAP2 DUP3 SWAP1 SUB PUSH1 0x28 ADD SWAP1 SWAP2 KECCAK256 DUP1 SLOAD SWAP1 SWAP2 AND SWAP1 SWAP2 OR SWAP1 SSTORE PUSH3 0x1E4 JUMP JUMPDEST PUSH1 0x0 DUP3 DUP2 MSTORE PUSH1 0x20 DUP2 DUP2 MSTORE PUSH1 0x40 DUP1 DUP4 KECCAK256 PUSH1 0x1 PUSH1 0x1 PUSH1 0xA0 SHL SUB DUP6 AND DUP5 MSTORE SWAP1 SWAP2 MSTORE DUP2 KECCAK256 SLOAD PUSH1 0xFF AND PUSH3 0x1DA JUMPI PUSH1 0x0 DUP4 DUP2 MSTORE PUSH1 0x20 DUP2 DUP2 MSTORE PUSH1 0x40 DUP1 DUP4 KECCAK256 PUSH1 0x1 PUSH1 0x1 PUSH1 0xA0 SHL SUB DUP7 AND DUP5 MSTORE SWAP1 SWAP2 MSTORE SWAP1 KECCAK256 DUP1 SLOAD PUSH1 0xFF NOT AND PUSH1 0x1 OR SWAP1 SSTORE PUSH3 0x191 CALLER SWAP1 JUMP JUMPDEST PUSH1 0x1 PUSH1 0x1 PUSH1 0xA0 SHL SUB AND DUP3 PUSH1 0x1 PUSH1 0x1 PUSH1 0xA0 SHL SUB AND DUP5 PUSH32 0x2F8788117E7EFF1D82E926EC794901D17C78024A50270940304540A733656F0D PUSH1 0x40 MLOAD PUSH1 0x40 MLOAD DUP1 SWAP2 SUB SWAP1 LOG4 POP PUSH1 0x1 PUSH3 0x1DE JUMP JUMPDEST POP PUSH1 0x0 JUMPDEST SWAP3 SWAP2 POP POP JUMP JUMPDEST PUSH2 0x28D8 DUP1 PUSH3 0x1F4 PUSH1 0x0 CODECOPY PUSH1 0x0 RETURN INVALID PUSH1 0x80 PUSH1 0x40 MSTORE CALLVALUE DUP1 ISZERO PUSH2 0x10 JUMPI PUSH1 0x0 DUP1 REVERT JUMPDEST POP PUSH1 0x4 CALLDATASIZE LT PUSH2 0x23D JUMPI PUSH1 0x0 CALLDATALOAD PUSH1 0xE0 SHR DUP1 PUSH4 0x8456CB59 GT PUSH2 0x13B JUMPI DUP1 PUSH4 0xBFE42A37 GT PUSH2 0xB8 JUMPI DUP1 PUSH4 0xD5C1A1E1 GT PUSH2 0x7C JUMPI DUP1 PUSH4 0xD5C1A1E1 EQ PUSH2 0x5B7 JUMPI DUP1 PUSH4 0xEA535940 EQ PUSH2 0x5CA JUMPI DUP1 PUSH4 0xEBDF690F EQ PUSH2 0x5EA JUMPI DUP1 PUSH4 0xF2BCAC3D EQ PUSH2 0x611 JUMPI DUP1 PUSH4 0xFF8DEA01 EQ PUSH2 0x626 JUMPI PUSH1 0x0 DUP1 REVERT JUMPDEST DUP1 PUSH4 0xBFE42A37 EQ PUSH2 0x4F7 JUMPI DUP1 PUSH4 0xC601F7AF EQ PUSH2 0x51E JUMPI DUP1 PUSH4 0xC772A8A6 EQ PUSH2 0x533 JUMPI DUP1 PUSH4 0xCFE85A2F EQ PUSH2 0x584 JUMPI DUP1 PUSH4 0xD547741F EQ PUSH2 0x5A4 JUMPI PUSH1 0x0 DUP1 REVERT JUMPDEST DUP1 PUSH4 0xA217FDDF GT PUSH2 0xFF JUMPI DUP1 PUSH4 0xA217FDDF EQ PUSH2 0x33F JUMPI DUP1 PUSH4 0xA91AD18E EQ PUSH2 0x4B4 JUMPI DUP1 PUSH4 0xACA5A8A7 EQ PUSH2 0x4BE JUMPI DUP1 PUSH4 0xB8A956D3 EQ PUSH2 0x4D1 JUMPI DUP1 PUSH4 0xBA340773 EQ PUSH2 0x4E4 JUMPI PUSH1 0x0 DUP1 REVERT JUMPDEST DUP1 PUSH4 0x8456CB59 EQ PUSH2 0x44C JUMPI DUP1 PUSH4 0x91B9F9D8 EQ PUSH2 0x454 JUMPI DUP1 PUSH4 0x91D14854 EQ PUSH2 0x467 JUMPI DUP1 PUSH4 0x96CAAC0A EQ PUSH2 0x47A JUMPI DUP1 PUSH4 0xA02D72FB EQ PUSH2 0x48D JUMPI PUSH1 0x0 DUP1 REVERT JUMPDEST DUP1 PUSH4 0x3F4BA83A GT PUSH2 0x1C9 JUMPI DUP1 PUSH4 0x61C992A3 GT PUSH2 0x18D JUMPI DUP1 PUSH4 0x61C992A3 EQ PUSH2 0x3CE JUMPI DUP1 PUSH4 0x68CA78F9 EQ PUSH2 0x3F1 JUMPI DUP1 PUSH4 0x7092B0BC EQ PUSH2 0x404 JUMPI DUP1 PUSH4 0x7131F025 EQ PUSH2 0x417 JUMPI DUP1 PUSH4 0x75B238FC EQ PUSH2 0x437 JUMPI PUSH1 0x0 DUP1 REVERT JUMPDEST DUP1 PUSH4 0x3F4BA83A EQ PUSH2 0x337 JUMPI DUP1 PUSH4 0x40B89270 EQ PUSH2 0x33F JUMPI DUP1 PUSH4 0x4DA89FBD EQ PUSH2 0x347 JUMPI DUP1 PUSH4 0x4FE9D1F5 EQ PUSH2 0x3B0 JUMPI DUP1 PUSH4 0x5C975ABB EQ PUSH2 0x3C3 JUMPI PUSH1 0x0 DUP1 REVERT JUMPDEST DUP1 PUSH4 0x2B116373 GT PUSH2 0x210 JUMPI DUP1 PUSH4 0x2B116373 EQ PUSH2 0x2C5 JUMPI DUP1 PUSH4 0x2ED49CF7 EQ PUSH2 0x2DA JUMPI DUP1 PUSH4 0x2F2FF15D EQ PUSH2 0x308 JUMPI DUP1 PUSH4 0x36568ABE EQ PUSH2 0x31B JUMPI DUP1 PUSH4 0x3A1E017F EQ PUSH2 0x32E JUMPI PUSH1 0x0 DUP1 REVERT JUMPDEST DUP1 PUSH4 0x1FFC9A7 EQ PUSH2 0x242 JUMPI DUP1 PUSH4 0x311B82D EQ PUSH2 0x26A JUMPI DUP1 PUSH4 0x248A9CA3 EQ PUSH2 0x28C JUMPI DUP1 PUSH4 0x27FF6223 EQ PUSH2 0x2BD JUMPI JUMPDEST PUSH1 0x0 DUP1 REVERT JUMPDEST PUSH2 0x255 PUSH2 0x250 CALLDATASIZE PUSH1 0x4 PUSH2 0x1E8F JUMP JUMPDEST PUSH2 0x639 JUMP JUMPDEST PUSH1 0x40 MLOAD SWAP1 ISZERO ISZERO DUP2 MSTORE PUSH1 0x20 ADD JUMPDEST PUSH1 0x40 MLOAD DUP1 SWAP2 SUB SWAP1 RETURN JUMPDEST PUSH2 0x27D PUSH2 0x278 CALLDATASIZE PUSH1 0x4 PUSH2 0x1EC0 JUMP JUMPDEST PUSH2 0x670 JUMP JUMPDEST PUSH1 0x40 MLOAD PUSH2 0x261 SWAP4 SWAP3 SWAP2 SWAP1 PUSH2 0x1F29 JUMP JUMPDEST PUSH2 0x2AF PUSH2 0x29A CALLDATASIZE PUSH1 0x4 PUSH2 0x1EC0 JUMP JUMPDEST PUSH1 0x0 SWAP1 DUP2 MSTORE PUSH1 0x20 DUP2 SWAP1 MSTORE PUSH1 0x40 SWAP1 KECCAK256 PUSH1 0x1 ADD SLOAD SWAP1 JUMP JUMPDEST PUSH1 0x40 MLOAD SWAP1 DUP2 MSTORE PUSH1 0x20 ADD PUSH2 0x261 JUMP JUMPDEST PUSH2 0x2AF PUSH1 0x64 DUP2 JUMP JUMPDEST PUSH2 0x2D8 PUSH2 0x2D3 CALLDATASIZE PUSH1 0x4 PUSH2 0x200B JUMP JUMPDEST PUSH2 0x765 JUMP JUMPDEST STOP JUMPDEST PUSH2 0x255 PUSH2 0x2E8 CALLDATASIZE PUSH1 0x4 PUSH2 0x2082 JUMP JUMPDEST DUP1 MLOAD PUSH1 0x20 DUP2 DUP4 ADD DUP2 ADD DUP1 MLOAD PUSH1 0x5 DUP3 MSTORE SWAP3 DUP3 ADD SWAP2 SWAP1 SWAP4 ADD KECCAK256 SWAP2 MSTORE SLOAD PUSH1 0xFF AND DUP2 JUMP JUMPDEST PUSH2 0x2D8 PUSH2 0x316 CALLDATASIZE PUSH1 0x4 PUSH2 0x20DB JUMP JUMPDEST PUSH2 0x9F0 JUMP JUMPDEST PUSH2 0x2D8 PUSH2 0x329 CALLDATASIZE PUSH1 0x4 PUSH2 0x20DB JUMP JUMPDEST PUSH2 0xA1B JUMP JUMPDEST PUSH2 0x2AF PUSH1 0x7 SLOAD DUP2 JUMP JUMPDEST PUSH2 0x2D8 PUSH2 0xA53 JUMP JUMPDEST PUSH2 0x2AF PUSH1 0x0 DUP2 JUMP JUMPDEST PUSH1 0x6 SLOAD PUSH2 0x37C SWAP1 PUSH1 0xFF DUP1 DUP3 AND SWAP2 PUSH2 0x100 DUP2 DIV DUP3 AND SWAP2 PUSH3 0x10000 DUP3 DIV DUP2 AND SWAP2 PUSH4 0x1000000 DUP2 DIV DUP3 AND SWAP2 PUSH5 0x100000000 SWAP1 SWAP2 DIV AND DUP6 JUMP JUMPDEST PUSH1 0x40 DUP1 MLOAD PUSH1 0xFF SWAP7 DUP8 AND DUP2 MSTORE SWAP5 DUP7 AND PUSH1 0x20 DUP7 ADD MSTORE SWAP3 DUP6 AND SWAP3 DUP5 ADD SWAP3 SWAP1 SWAP3 MSTORE DUP4 AND PUSH1 0x60 DUP4 ADD MSTORE SWAP1 SWAP2 AND PUSH1 0x80 DUP3 ADD MSTORE PUSH1 0xA0 ADD PUSH2 0x261 JUMP JUMPDEST PUSH2 0x2D8 PUSH2 0x3BE CALLDATASIZE PUSH1 0x4 PUSH2 0x2107 JUMP JUMPDEST PUSH2 0xA76 JUMP JUMPDEST PUSH1 0x1 SLOAD PUSH1 0xFF AND PUSH2 0x255 JUMP JUMPDEST PUSH2 0x255 PUSH2 0x3DC CALLDATASIZE PUSH1 0x4 PUSH2 0x21C0 JUMP JUMPDEST PUSH1 0x4 PUSH1 0x20 MSTORE PUSH1 0x0 SWAP1 DUP2 MSTORE PUSH1 0x40 SWAP1 KECCAK256 SLOAD PUSH1 0xFF AND DUP2 JUMP JUMPDEST PUSH2 0x255 PUSH2 0x3FF CALLDATASIZE PUSH1 0x4 PUSH2 0x2107 JUMP JUMPDEST PUSH2 0xAC2 JUMP JUMPDEST PUSH2 0x2D8 PUSH2 0x412 CALLDATASIZE PUSH1 0x4 PUSH2 0x227D JUMP JUMPDEST PUSH2 0xB1D JUMP JUMPDEST PUSH2 0x2AF PUSH2 0x425 CALLDATASIZE PUSH1 0x4 PUSH2 0x21C0 JUMP JUMPDEST PUSH1 0x8 PUSH1 0x20 MSTORE PUSH1 0x0 SWAP1 DUP2 MSTORE PUSH1 0x40 SWAP1 KECCAK256 SLOAD DUP2 JUMP JUMPDEST PUSH2 0x2AF PUSH1 0x0 DUP1 MLOAD PUSH1 0x20 PUSH2 0x2883 DUP4 CODECOPY DUP2 MLOAD SWAP2 MSTORE DUP2 JUMP JUMPDEST PUSH2 0x2D8 PUSH2 0x10B5 JUMP JUMPDEST PUSH2 0x2D8 PUSH2 0x462 CALLDATASIZE PUSH1 0x4 PUSH2 0x2107 JUMP JUMPDEST PUSH2 0x10D5 JUMP JUMPDEST PUSH2 0x255 PUSH2 0x475 CALLDATASIZE PUSH1 0x4 PUSH2 0x20DB JUMP JUMPDEST PUSH2 0x1121 JUMP JUMPDEST PUSH2 0x255 PUSH2 0x488 CALLDATASIZE PUSH1 0x4 PUSH2 0x1EC0 JUMP JUMPDEST PUSH2 0x114A JUMP JUMPDEST PUSH2 0x2AF PUSH32 0x58223CDFB69946630D837D40B5C366A584F0217ADA7FDDD8318F2E08603CFA22 DUP2 JUMP JUMPDEST PUSH2 0x2AF PUSH3 0x278D00 DUP2 JUMP JUMPDEST PUSH2 0x2AF PUSH2 0x4CC CALLDATASIZE PUSH1 0x4 PUSH2 0x21C0 JUMP JUMPDEST PUSH2 0x1192 JUMP JUMPDEST PUSH2 0x2D8 PUSH2 0x4DF CALLDATASIZE PUSH1 0x4 PUSH2 0x2307 JUMP JUMPDEST PUSH2 0x11FC JUMP JUMPDEST PUSH2 0x2D8 PUSH2 0x4F2 CALLDATASIZE PUSH1 0x4 PUSH2 0x235E JUMP JUMPDEST PUSH2 0x1336 JUMP JUMPDEST PUSH2 0x2AF PUSH32 0x7B8BB8356A3F32F5C111FF23F050D97F08988E0883529EA7BFF3B918887A6E0E DUP2 JUMP JUMPDEST PUSH2 0x2AF PUSH1 0x0 DUP1 MLOAD PUSH1 0x20 PUSH2 0x2863 DUP4 CODECOPY DUP2 MLOAD SWAP2 MSTORE DUP2 JUMP JUMPDEST PUSH2 0x56F PUSH2 0x541 CALLDATASIZE PUSH1 0x4 PUSH2 0x21C0 JUMP JUMPDEST PUSH1 0x1 PUSH1 0x1 PUSH1 0xA0 SHL SUB AND PUSH1 0x0 SWAP1 DUP2 MSTORE PUSH1 0x8 PUSH1 0x20 SWAP1 DUP2 MSTORE PUSH1 0x40 DUP1 DUP4 KECCAK256 SLOAD PUSH1 0x4 SWAP1 SWAP3 MSTORE SWAP1 SWAP2 KECCAK256 SLOAD SWAP1 SWAP2 PUSH1 0xFF SWAP1 SWAP2 AND SWAP1 JUMP JUMPDEST PUSH1 0x40 DUP1 MLOAD SWAP3 DUP4 MSTORE SWAP1 ISZERO ISZERO PUSH1 0x20 DUP4 ADD MSTORE ADD PUSH2 0x261 JUMP JUMPDEST PUSH2 0x597 PUSH2 0x592 CALLDATASIZE PUSH1 0x4 PUSH2 0x1EC0 JUMP JUMPDEST PUSH2 0x1405 JUMP JUMPDEST PUSH1 0x40 MLOAD PUSH2 0x261 SWAP2 SWAP1 PUSH2 0x23A3 JUMP JUMPDEST PUSH2 0x2D8 PUSH2 0x5B2 CALLDATASIZE PUSH1 0x4 PUSH2 0x20DB JUMP JUMPDEST PUSH2 0x14EF JUMP JUMPDEST PUSH2 0x2D8 PUSH2 0x5C5 CALLDATASIZE PUSH1 0x4 PUSH2 0x23EB JUMP JUMPDEST PUSH2 0x1514 JUMP JUMPDEST PUSH2 0x5DD PUSH2 0x5D8 CALLDATASIZE PUSH1 0x4 PUSH2 0x1EC0 JUMP JUMPDEST PUSH2 0x161A JUMP JUMPDEST PUSH1 0x40 MLOAD PUSH2 0x261 SWAP2 SWAP1 PUSH2 0x2415 JUMP JUMPDEST PUSH2 0x2AF PUSH32 0xEDE9DCDB0CE99DC7CEC9C7BE9246AD08B37853683AD91569C187B647DDF5E21C DUP2 JUMP JUMPDEST PUSH2 0x619 PUSH2 0x18C8 JUMP JUMPDEST PUSH1 0x40 MLOAD PUSH2 0x261 SWAP2 SWAP1 PUSH2 0x24E1 JUMP JUMPDEST PUSH2 0x2D8 PUSH2 0x634 CALLDATASIZE PUSH1 0x4 PUSH2 0x2525 JUMP JUMPDEST PUSH2 0x1A2D JUMP JUMPDEST PUSH1 0x0 PUSH1 0x1 PUSH1 0x1 PUSH1 0xE0 SHL SUB NOT DUP3 AND PUSH4 0x7965DB0B PUSH1 0xE0 SHL EQ DUP1 PUSH2 0x66A JUMPI POP PUSH4 0x1FFC9A7 PUSH1 0xE0 SHL PUSH1 0x1 PUSH1 0x1 PUSH1 0xE0 SHL SUB NOT DUP4 AND EQ JUMPDEST SWAP3 SWAP2 POP POP JUMP JUMPDEST PUSH1 0x0 PUSH1 0x60 PUSH1 0x0 DUP4 PUSH1 0x0 DUP2 GT PUSH2 0x6A0 JUMPI PUSH1 0x40 MLOAD PUSH3 0x461BCD PUSH1 0xE5 SHL DUP2 MSTORE PUSH1 0x4 ADD PUSH2 0x697 SWAP1 PUSH2 0x2541 JUMP JUMPDEST PUSH1 0x40 MLOAD DUP1 SWAP2 SUB SWAP1 REVERT JUMPDEST PUSH1 0x0 DUP6 DUP2 MSTORE PUSH1 0x3 PUSH1 0x20 MSTORE PUSH1 0x40 SWAP1 KECCAK256 PUSH1 0x1 DUP2 ADD SLOAD PUSH1 0x5 DUP3 ADD SLOAD PUSH1 0x2 DUP4 ADD DUP1 SLOAD SWAP1 SWAP2 PUSH1 0x1 PUSH1 0xA0 SHL SWAP1 DIV PUSH1 0xFF AND SWAP1 DUP3 SWAP1 PUSH2 0x6D6 SWAP1 PUSH2 0x256E JUMP JUMPDEST DUP1 PUSH1 0x1F ADD PUSH1 0x20 DUP1 SWAP2 DIV MUL PUSH1 0x20 ADD PUSH1 0x40 MLOAD SWAP1 DUP2 ADD PUSH1 0x40 MSTORE DUP1 SWAP3 SWAP2 SWAP1 DUP2 DUP2 MSTORE PUSH1 0x20 ADD DUP3 DUP1 SLOAD PUSH2 0x702 SWAP1 PUSH2 0x256E JUMP JUMPDEST DUP1 ISZERO PUSH2 0x74F JUMPI DUP1 PUSH1 0x1F LT PUSH2 0x724 JUMPI PUSH2 0x100 DUP1 DUP4 SLOAD DIV MUL DUP4 MSTORE SWAP2 PUSH1 0x20 ADD SWAP2 PUSH2 0x74F JUMP JUMPDEST DUP3 ADD SWAP2 SWAP1 PUSH1 0x0 MSTORE PUSH1 0x20 PUSH1 0x0 KECCAK256 SWAP1 JUMPDEST DUP2 SLOAD DUP2 MSTORE SWAP1 PUSH1 0x1 ADD SWAP1 PUSH1 0x20 ADD DUP1 DUP4 GT PUSH2 0x732 JUMPI DUP3 SWAP1 SUB PUSH1 0x1F AND DUP3 ADD SWAP2 JUMPDEST POP POP POP POP POP SWAP2 POP SWAP5 POP SWAP5 POP SWAP5 POP POP POP SWAP2 SWAP4 SWAP1 SWAP3 POP JUMP JUMPDEST CALLER PUSH1 0x0 SWAP1 DUP2 MSTORE PUSH1 0x4 PUSH1 0x20 MSTORE PUSH1 0x40 SWAP1 KECCAK256 SLOAD PUSH1 0xFF AND PUSH2 0x7BC JUMPI PUSH1 0x40 MLOAD PUSH3 0x461BCD PUSH1 0xE5 SHL DUP2 MSTORE PUSH1 0x20 PUSH1 0x4 DUP3 ADD MSTORE PUSH1 0x15 PUSH1 0x24 DUP3 ADD MSTORE PUSH21 0x4E6F7420617574686F72697A6564206F7261636C65 PUSH1 0x58 SHL PUSH1 0x44 DUP3 ADD MSTORE PUSH1 0x64 ADD PUSH2 0x697 JUMP JUMPDEST DUP4 PUSH1 0x0 DUP2 GT PUSH2 0x7DD JUMPI PUSH1 0x40 MLOAD PUSH3 0x461BCD PUSH1 0xE5 SHL DUP2 MSTORE PUSH1 0x4 ADD PUSH2 0x697 SWAP1 PUSH2 0x2541 JUMP JUMPDEST DUP4 PUSH1 0x64 DUP2 GT ISZERO PUSH2 0x824 JUMPI PUSH1 0x40 MLOAD PUSH3 0x461BCD PUSH1 0xE5 SHL DUP2 MSTORE PUSH1 0x20 PUSH1 0x4 DUP3 ADD MSTORE PUSH1 0x12 PUSH1 0x24 DUP3 ADD MSTORE PUSH18 0x53636F7265206F7574206F662072616E6765 PUSH1 0x70 SHL PUSH1 0x44 DUP3 ADD MSTORE PUSH1 0x64 ADD PUSH2 0x697 JUMP JUMPDEST PUSH2 0x82C PUSH2 0x1B88 JUMP JUMPDEST PUSH1 0x0 DUP7 DUP2 MSTORE PUSH1 0x3 PUSH1 0x20 MSTORE PUSH1 0x40 SWAP1 KECCAK256 PUSH1 0x5 ADD SLOAD PUSH1 0x1 PUSH1 0xA0 SHL SWAP1 DIV PUSH1 0xFF AND PUSH2 0x864 JUMPI PUSH1 0x40 MLOAD PUSH3 0x461BCD PUSH1 0xE5 SHL DUP2 MSTORE PUSH1 0x4 ADD PUSH2 0x697 SWAP1 PUSH2 0x25A2 JUMP JUMPDEST PUSH1 0x0 DUP7 DUP2 MSTORE PUSH1 0x3 PUSH1 0x20 MSTORE PUSH1 0x40 SWAP1 KECCAK256 PUSH1 0x5 ADD SLOAD PUSH1 0x1 PUSH1 0x1 PUSH1 0xA0 SHL SUB AND CALLER EQ PUSH2 0x8C3 JUMPI PUSH1 0x40 MLOAD PUSH3 0x461BCD PUSH1 0xE5 SHL DUP2 MSTORE PUSH1 0x20 PUSH1 0x4 DUP3 ADD MSTORE PUSH1 0x13 PUSH1 0x24 DUP3 ADD MSTORE PUSH19 0x4E6F74206F726967696E616C206F7261636C65 PUSH1 0x68 SHL PUSH1 0x44 DUP3 ADD MSTORE PUSH1 0x64 ADD PUSH2 0x697 JUMP JUMPDEST PUSH1 0x0 DUP7 DUP2 MSTORE PUSH1 0x3 PUSH1 0x20 MSTORE PUSH1 0x40 SWAP1 KECCAK256 PUSH1 0x4 ADD SLOAD PUSH2 0x8E3 SWAP1 PUSH3 0x278D00 SWAP1 PUSH2 0x25E6 JUMP JUMPDEST TIMESTAMP GT ISZERO PUSH2 0x92A JUMPI PUSH1 0x40 MLOAD PUSH3 0x461BCD PUSH1 0xE5 SHL DUP2 MSTORE PUSH1 0x20 PUSH1 0x4 DUP3 ADD MSTORE PUSH1 0x15 PUSH1 0x24 DUP3 ADD MSTORE PUSH21 0x155C19185D19481C195C9A5BD908195E1C1A5C9959 PUSH1 0x5A SHL PUSH1 0x44 DUP3 ADD MSTORE PUSH1 0x64 ADD PUSH2 0x697 JUMP JUMPDEST PUSH1 0x0 DUP4 MLOAD GT PUSH2 0x974 JUMPI PUSH1 0x40 MLOAD PUSH3 0x461BCD PUSH1 0xE5 SHL DUP2 MSTORE PUSH1 0x20 PUSH1 0x4 DUP3 ADD MSTORE PUSH1 0x16 PUSH1 0x24 DUP3 ADD MSTORE PUSH22 0x155C19185D19481C99585CDBDB881C995C5D5A5C9959 PUSH1 0x52 SHL PUSH1 0x44 DUP3 ADD MSTORE PUSH1 0x64 ADD PUSH2 0x697 JUMP JUMPDEST PUSH1 0x0 DUP7 DUP2 MSTORE PUSH1 0x3 PUSH1 0x20 MSTORE PUSH1 0x40 SWAP1 KECCAK256 PUSH1 0x1 DUP2 ADD DUP7 SWAP1 SSTORE PUSH1 0x2 ADD PUSH2 0x996 DUP6 DUP3 PUSH2 0x2647 JUMP JUMPDEST POP PUSH1 0x0 DUP7 DUP2 MSTORE PUSH1 0x3 PUSH1 0x20 MSTORE PUSH1 0x40 SWAP1 DUP2 SWAP1 KECCAK256 TIMESTAMP PUSH1 0x4 SWAP1 SWAP2 ADD SSTORE MLOAD DUP7 SWAP1 PUSH32 0xD3E8DBBE8FF60A1FAE1E5F88E71F27270ED38BADC7B26E19922ED94FD12F5FE9 SWAP1 PUSH2 0x9E0 SWAP1 DUP9 SWAP1 DUP8 SWAP1 PUSH2 0x2707 JUMP JUMPDEST PUSH1 0x40 MLOAD DUP1 SWAP2 SUB SWAP1 LOG2 POP POP POP POP POP POP JUMP JUMPDEST PUSH1 0x0 DUP3 DUP2 MSTORE PUSH1 0x20 DUP2 SWAP1 MSTORE PUSH1 0x40 SWAP1 KECCAK256 PUSH1 0x1 ADD SLOAD PUSH2 0xA0B DUP2 PUSH2 0x1BD0 JUMP JUMPDEST PUSH2 0xA15 DUP4 DUP4 PUSH2 0x1BDA JUMP JUMPDEST POP POP POP POP JUMP JUMPDEST PUSH1 0x1 PUSH1 0x1 PUSH1 0xA0 SHL SUB DUP2 AND CALLER EQ PUSH2 0xA44 JUMPI PUSH1 0x40 MLOAD PUSH4 0x334BD919 PUSH1 0xE1 SHL DUP2 MSTORE PUSH1 0x4 ADD PUSH1 0x40 MLOAD DUP1 SWAP2 SUB SWAP1 REVERT JUMPDEST PUSH2 0xA4E DUP3 DUP3 PUSH2 0x1C6C JUMP JUMPDEST POP POP POP JUMP JUMPDEST PUSH1 0x0 DUP1 MLOAD PUSH1 0x20 PUSH2 0x2883 DUP4 CODECOPY DUP2 MLOAD SWAP2 MSTORE PUSH2 0xA6B DUP2 PUSH2 0x1BD0 JUMP JUMPDEST PUSH2 0xA73 PUSH2 0x1CD7 JUMP JUMPDEST POP JUMP JUMPDEST PUSH1 0x0 PUSH2 0xA81 DUP2 PUSH2 0x1BD0 JUMP JUMPDEST PUSH1 0x0 JUMPDEST DUP3 MLOAD DUP2 LT ISZERO PUSH2 0xA15 JUMPI PUSH2 0xAB0 DUP4 DUP3 DUP2 MLOAD DUP2 LT PUSH2 0xAA2 JUMPI PUSH2 0xAA2 PUSH2 0x2720 JUMP JUMPDEST PUSH1 0x20 MUL PUSH1 0x20 ADD ADD MLOAD DUP6 PUSH2 0x14EF JUMP JUMPDEST DUP1 PUSH2 0xABA DUP2 PUSH2 0x2736 JUMP JUMPDEST SWAP2 POP POP PUSH2 0xA84 JUMP JUMPDEST PUSH1 0x0 DUP1 JUMPDEST DUP3 MLOAD DUP2 LT ISZERO PUSH2 0xB13 JUMPI PUSH2 0xAF2 DUP4 DUP3 DUP2 MLOAD DUP2 LT PUSH2 0xAE4 JUMPI PUSH2 0xAE4 PUSH2 0x2720 JUMP JUMPDEST PUSH1 0x20 MUL PUSH1 0x20 ADD ADD MLOAD DUP6 PUSH2 0x1121 JUMP JUMPDEST ISZERO PUSH2 0xB01 JUMPI PUSH1 0x1 SWAP2 POP POP PUSH2 0x66A JUMP JUMPDEST DUP1 PUSH2 0xB0B DUP2 PUSH2 0x2736 JUMP JUMPDEST SWAP2 POP POP PUSH2 0xAC6 JUMP JUMPDEST POP PUSH1 0x0 SWAP4 SWAP3 POP POP POP JUMP JUMPDEST CALLER PUSH1 0x0 SWAP1 DUP2 MSTORE PUSH1 0x4 PUSH1 0x20 MSTORE PUSH1 0x40 SWAP1 KECCAK256 SLOAD PUSH1 0xFF AND PUSH2 0xB74 JUMPI PUSH1 0x40 MLOAD PUSH3 0x461BCD PUSH1 0xE5 SHL DUP2 MSTORE PUSH1 0x20 PUSH1 0x4 DUP3 ADD MSTORE PUSH1 0x15 PUSH1 0x24 DUP3 ADD MSTORE PUSH21 0x4E6F7420617574686F72697A6564206F7261636C65 PUSH1 0x58 SHL PUSH1 0x44 DUP3 ADD MSTORE PUSH1 0x64 ADD PUSH2 0x697 JUMP JUMPDEST DUP5 PUSH1 0x0 DUP2 GT PUSH2 0xB95 JUMPI PUSH1 0x40 MLOAD PUSH3 0x461BCD PUSH1 0xE5 SHL DUP2 MSTORE PUSH1 0x4 ADD PUSH2 0x697 SWAP1 PUSH2 0x2541 JUMP JUMPDEST DUP5 PUSH1 0x64 DUP2 GT ISZERO PUSH2 0xBDC JUMPI PUSH1 0x40 MLOAD PUSH3 0x461BCD PUSH1 0xE5 SHL DUP2 MSTORE PUSH1 0x20 PUSH1 0x4 DUP3 ADD MSTORE PUSH1 0x12 PUSH1 0x24 DUP3 ADD MSTORE PUSH18 0x53636F7265206F7574206F662072616E6765 PUSH1 0x70 SHL PUSH1 0x44 DUP3 ADD MSTORE PUSH1 0x64 ADD PUSH2 0x697 JUMP JUMPDEST PUSH2 0xBE4 PUSH2 0x1B88 JUMP JUMPDEST PUSH2 0xBEC PUSH2 0x1D29 JUMP JUMPDEST PUSH1 0x0 DUP6 MLOAD GT PUSH2 0xC3D JUMPI PUSH1 0x40 MLOAD PUSH3 0x461BCD PUSH1 0xE5 SHL DUP2 MSTORE PUSH1 0x20 PUSH1 0x4 DUP3 ADD MSTORE PUSH1 0x1B PUSH1 0x24 DUP3 ADD MSTORE PUSH32 0x4A757374696669636174696F6E20495046532072657175697265640000000000 PUSH1 0x44 DUP3 ADD MSTORE PUSH1 0x64 ADD PUSH2 0x697 JUMP JUMPDEST PUSH1 0x5 DUP5 PUSH1 0x40 MLOAD PUSH2 0xC4D SWAP2 SWAP1 PUSH2 0x274F JUMP JUMPDEST SWAP1 DUP2 MSTORE PUSH1 0x40 MLOAD SWAP1 DUP2 SWAP1 SUB PUSH1 0x20 ADD SWAP1 KECCAK256 SLOAD PUSH1 0xFF AND PUSH2 0xCA3 JUMPI PUSH1 0x40 MLOAD PUSH3 0x461BCD PUSH1 0xE5 SHL DUP2 MSTORE PUSH1 0x20 PUSH1 0x4 DUP3 ADD MSTORE PUSH1 0x14 PUSH1 0x24 DUP3 ADD MSTORE PUSH20 0x155B9CDD5C1C1BDC9D1959081052481B5BD9195B PUSH1 0x62 SHL PUSH1 0x44 DUP3 ADD MSTORE PUSH1 0x64 ADD PUSH2 0x697 JUMP JUMPDEST PUSH1 0x0 DUP8 DUP2 MSTORE PUSH1 0x3 PUSH1 0x20 MSTORE PUSH1 0x40 SWAP1 KECCAK256 PUSH1 0x5 ADD SLOAD PUSH1 0x1 PUSH1 0xA0 SHL SWAP1 DIV PUSH1 0xFF AND ISZERO PUSH2 0xD03 JUMPI PUSH1 0x40 MLOAD PUSH3 0x461BCD PUSH1 0xE5 SHL DUP2 MSTORE PUSH1 0x20 PUSH1 0x4 DUP3 ADD MSTORE PUSH1 0x14 PUSH1 0x24 DUP3 ADD MSTORE PUSH20 0x53636F726520616C726561647920657869737473 PUSH1 0x60 SHL PUSH1 0x44 DUP3 ADD MSTORE PUSH1 0x64 ADD PUSH2 0x697 JUMP JUMPDEST PUSH1 0x64 DUP4 PUSH1 0x0 ADD MLOAD PUSH1 0xFF AND GT ISZERO DUP1 ISZERO PUSH2 0xD23 JUMPI POP PUSH1 0x64 DUP4 PUSH1 0x20 ADD MLOAD PUSH1 0xFF AND GT ISZERO JUMPDEST DUP1 ISZERO PUSH2 0xD37 JUMPI POP PUSH1 0x64 DUP4 PUSH1 0x40 ADD MLOAD PUSH1 0xFF AND GT ISZERO JUMPDEST DUP1 ISZERO PUSH2 0xD4B JUMPI POP PUSH1 0x64 DUP4 PUSH1 0x60 ADD MLOAD PUSH1 0xFF AND GT ISZERO JUMPDEST DUP1 ISZERO PUSH2 0xD5F JUMPI POP PUSH1 0x64 DUP4 PUSH1 0x80 ADD MLOAD PUSH1 0xFF AND GT ISZERO JUMPDEST PUSH2 0xDAB JUMPI PUSH1 0x40 MLOAD PUSH3 0x461BCD PUSH1 0xE5 SHL DUP2 MSTORE PUSH1 0x20 PUSH1 0x4 DUP3 ADD MSTORE PUSH1 0x18 PUSH1 0x24 DUP3 ADD MSTORE PUSH32 0x496E76616C696420627265616B646F776E2073636F7265730000000000000000 PUSH1 0x44 DUP3 ADD MSTORE PUSH1 0x64 ADD PUSH2 0x697 JUMP JUMPDEST PUSH1 0x6 SLOAD PUSH1 0x80 DUP5 ADD MLOAD PUSH1 0x0 SWAP2 PUSH1 0x64 SWAP2 PUSH2 0xDCE SWAP2 PUSH5 0x100000000 SWAP1 DIV PUSH1 0xFF AND SWAP1 PUSH2 0x276B JUMP JUMPDEST PUSH1 0x6 SLOAD PUSH1 0x60 DUP8 ADD MLOAD PUSH2 0xDEA SWAP2 PUSH4 0x1000000 SWAP1 DIV PUSH1 0xFF AND SWAP1 PUSH2 0x276B JUMP JUMPDEST PUSH1 0x6 SLOAD PUSH1 0x40 DUP9 ADD MLOAD PUSH2 0xE05 SWAP2 PUSH3 0x10000 SWAP1 DIV PUSH1 0xFF AND SWAP1 PUSH2 0x276B JUMP JUMPDEST PUSH1 0x6 SLOAD PUSH1 0x20 DUP10 ADD MLOAD PUSH2 0xE1F SWAP2 PUSH2 0x100 SWAP1 DIV PUSH1 0xFF AND SWAP1 PUSH2 0x276B JUMP JUMPDEST PUSH1 0x6 SLOAD DUP10 MLOAD PUSH2 0xE31 SWAP2 PUSH1 0xFF AND SWAP1 PUSH2 0x276B JUMP JUMPDEST PUSH2 0xE3B SWAP2 SWAP1 PUSH2 0x278E JUMP JUMPDEST PUSH2 0xE45 SWAP2 SWAP1 PUSH2 0x278E JUMP JUMPDEST PUSH2 0xE4F SWAP2 SWAP1 PUSH2 0x278E JUMP JUMPDEST PUSH2 0xE59 SWAP2 SWAP1 PUSH2 0x278E JUMP JUMPDEST PUSH2 0xE63 SWAP2 SWAP1 PUSH2 0x27A7 JUMP JUMPDEST PUSH1 0xFF AND SWAP1 POP PUSH2 0xE73 PUSH1 0x5 DUP3 PUSH2 0x27D7 JUMP JUMPDEST DUP8 LT ISZERO DUP1 ISZERO PUSH2 0xE8C JUMPI POP PUSH2 0xE88 DUP2 PUSH1 0x5 PUSH2 0x25E6 JUMP JUMPDEST DUP8 GT ISZERO JUMPDEST PUSH2 0xEE2 JUMPI PUSH1 0x40 MLOAD PUSH3 0x461BCD PUSH1 0xE5 SHL DUP2 MSTORE PUSH1 0x20 PUSH1 0x4 DUP3 ADD MSTORE PUSH1 0x21 PUSH1 0x24 DUP3 ADD MSTORE PUSH32 0x53636F726520696E636F6E73697374656E74207769746820627265616B646F77 PUSH1 0x44 DUP3 ADD MSTORE PUSH1 0x37 PUSH1 0xF9 SHL PUSH1 0x64 DUP3 ADD MSTORE PUSH1 0x84 ADD PUSH2 0x697 JUMP JUMPDEST PUSH1 0x40 DUP1 MLOAD PUSH2 0x100 DUP2 ADD DUP3 MSTORE DUP10 DUP2 MSTORE PUSH1 0x20 DUP1 DUP3 ADD DUP11 DUP2 MSTORE DUP3 DUP5 ADD DUP11 DUP2 MSTORE PUSH1 0x60 DUP5 ADD DUP11 SWAP1 MSTORE TIMESTAMP PUSH1 0x80 DUP6 ADD MSTORE CALLER PUSH1 0xA0 DUP6 ADD MSTORE PUSH1 0x1 PUSH1 0xC0 DUP6 ADD DUP2 SWAP1 MSTORE PUSH1 0xE0 DUP6 ADD DUP11 SWAP1 MSTORE PUSH1 0x0 DUP15 DUP2 MSTORE PUSH1 0x3 SWAP1 SWAP5 MSTORE SWAP5 SWAP1 SWAP3 KECCAK256 DUP4 MLOAD DUP2 SSTORE SWAP1 MLOAD SWAP4 DUP2 ADD SWAP4 SWAP1 SWAP4 SSTORE MLOAD SWAP1 SWAP2 SWAP1 PUSH1 0x2 DUP3 ADD SWAP1 PUSH2 0xF4F SWAP1 DUP3 PUSH2 0x2647 JUMP JUMPDEST POP PUSH1 0x60 DUP3 ADD MLOAD PUSH1 0x3 DUP3 ADD SWAP1 PUSH2 0xF64 SWAP1 DUP3 PUSH2 0x2647 JUMP JUMPDEST POP PUSH1 0x80 DUP3 DUP2 ADD MLOAD PUSH1 0x4 DUP4 ADD SSTORE PUSH1 0xA0 DUP4 ADD MLOAD PUSH1 0x5 DUP4 ADD DUP1 SLOAD PUSH1 0xC0 DUP7 ADD MLOAD ISZERO ISZERO PUSH1 0x1 PUSH1 0xA0 SHL MUL PUSH1 0x1 PUSH1 0x1 PUSH1 0xA8 SHL SUB NOT SWAP1 SWAP2 AND PUSH1 0x1 PUSH1 0x1 PUSH1 0xA0 SHL SUB SWAP1 SWAP4 AND SWAP3 SWAP1 SWAP3 OR SWAP2 SWAP1 SWAP2 OR SWAP1 SSTORE PUSH1 0xE0 SWAP1 SWAP3 ADD MLOAD DUP1 MLOAD PUSH1 0x6 SWAP1 SWAP3 ADD DUP1 SLOAD PUSH1 0x20 DUP4 ADD MLOAD PUSH1 0x40 DUP5 ADD MLOAD PUSH1 0x60 DUP6 ADD MLOAD SWAP5 SWAP1 SWAP7 ADD MLOAD PUSH1 0xFF SWAP1 DUP2 AND PUSH5 0x100000000 MUL PUSH5 0xFF00000000 NOT SWAP6 DUP3 AND PUSH4 0x1000000 MUL PUSH4 0xFF000000 NOT SWAP9 DUP4 AND PUSH3 0x10000 MUL SWAP9 SWAP1 SWAP9 AND PUSH4 0xFFFF0000 NOT SWAP4 DUP4 AND PUSH2 0x100 MUL PUSH2 0xFFFF NOT SWAP1 SWAP6 AND SWAP8 SWAP1 SWAP3 AND SWAP7 SWAP1 SWAP7 OR SWAP3 SWAP1 SWAP3 OR AND OR SWAP4 SWAP1 SWAP4 OR AND OR SWAP1 SSTORE PUSH1 0x7 DUP1 SLOAD SWAP1 PUSH1 0x0 PUSH2 0x1034 DUP4 PUSH2 0x2736 JUMP JUMPDEST SWAP1 SWAP2 SSTORE POP POP CALLER PUSH1 0x0 SWAP1 DUP2 MSTORE PUSH1 0x8 PUSH1 0x20 MSTORE PUSH1 0x40 DUP2 KECCAK256 DUP1 SLOAD SWAP2 PUSH2 0x1054 DUP4 PUSH2 0x2736 JUMP JUMPDEST SWAP2 SWAP1 POP SSTORE POP CALLER PUSH1 0x1 PUSH1 0x1 PUSH1 0xA0 SHL SUB AND DUP9 PUSH32 0x9E8AD66E4736435405704D301D344E9454F286D3FEEB2036B1ADC6F4900CCBC DUP10 DUP10 DUP10 TIMESTAMP PUSH1 0x40 MLOAD PUSH2 0x1099 SWAP5 SWAP4 SWAP3 SWAP2 SWAP1 PUSH2 0x27EA JUMP JUMPDEST PUSH1 0x40 MLOAD DUP1 SWAP2 SUB SWAP1 LOG3 POP PUSH2 0x10AC PUSH1 0x1 PUSH1 0x2 SSTORE JUMP JUMPDEST POP POP POP POP POP POP POP JUMP JUMPDEST PUSH1 0x0 DUP1 MLOAD PUSH1 0x20 PUSH2 0x2883 DUP4 CODECOPY DUP2 MLOAD SWAP2 MSTORE PUSH2 0x10CD DUP2 PUSH2 0x1BD0 JUMP JUMPDEST PUSH2 0xA73 PUSH2 0x1D80 JUMP JUMPDEST PUSH1 0x0 PUSH2 0x10E0 DUP2 PUSH2 0x1BD0 JUMP JUMPDEST PUSH1 0x0 JUMPDEST DUP3 MLOAD DUP2 LT ISZERO PUSH2 0xA15 JUMPI PUSH2 0x110F DUP4 DUP3 DUP2 MLOAD DUP2 LT PUSH2 0x1101 JUMPI PUSH2 0x1101 PUSH2 0x2720 JUMP JUMPDEST PUSH1 0x20 MUL PUSH1 0x20 ADD ADD MLOAD DUP6 PUSH2 0x9F0 JUMP JUMPDEST DUP1 PUSH2 0x1119 DUP2 PUSH2 0x2736 JUMP JUMPDEST SWAP2 POP POP PUSH2 0x10E3 JUMP JUMPDEST PUSH1 0x0 SWAP2 DUP3 MSTORE PUSH1 0x20 DUP3 DUP2 MSTORE PUSH1 0x40 DUP1 DUP5 KECCAK256 PUSH1 0x1 PUSH1 0x1 PUSH1 0xA0 SHL SUB SWAP4 SWAP1 SWAP4 AND DUP5 MSTORE SWAP2 SWAP1 MSTORE SWAP1 KECCAK256 SLOAD PUSH1 0xFF AND SWAP1 JUMP JUMPDEST PUSH1 0x0 DUP2 PUSH1 0x0 DUP2 GT PUSH2 0x116D JUMPI PUSH1 0x40 MLOAD PUSH3 0x461BCD PUSH1 0xE5 SHL DUP2 MSTORE PUSH1 0x4 ADD PUSH2 0x697 SWAP1 PUSH2 0x2541 JUMP JUMPDEST PUSH1 0x0 DUP4 DUP2 MSTORE PUSH1 0x3 PUSH1 0x20 MSTORE PUSH1 0x40 SWAP1 KECCAK256 PUSH1 0x5 ADD SLOAD PUSH1 0x1 PUSH1 0xA0 SHL SWAP1 DIV PUSH1 0xFF AND SWAP2 POP JUMPDEST POP SWAP2 SWAP1 POP JUMP JUMPDEST PUSH1 0x0 DUP1 PUSH2 0x119D PUSH2 0x18C8 JUMP JUMPDEST SWAP1 POP PUSH1 0x0 DUP1 JUMPDEST DUP3 MLOAD DUP2 LT ISZERO PUSH2 0x11F4 JUMPI PUSH2 0x11CF DUP4 DUP3 DUP2 MLOAD DUP2 LT PUSH2 0x11C1 JUMPI PUSH2 0x11C1 PUSH2 0x2720 JUMP JUMPDEST PUSH1 0x20 MUL PUSH1 0x20 ADD ADD MLOAD DUP7 PUSH2 0x1121 JUMP JUMPDEST ISZERO PUSH2 0x11E2 JUMPI DUP2 PUSH2 0x11DE DUP2 PUSH2 0x2736 JUMP JUMPDEST SWAP3 POP POP JUMPDEST DUP1 PUSH2 0x11EC DUP2 PUSH2 0x2736 JUMP JUMPDEST SWAP2 POP POP PUSH2 0x11A3 JUMP JUMPDEST POP SWAP4 SWAP3 POP POP POP JUMP JUMPDEST PUSH1 0x0 PUSH2 0x1207 DUP2 PUSH2 0x1BD0 JUMP JUMPDEST PUSH1 0x0 DUP4 DUP2 MSTORE PUSH1 0x3 PUSH1 0x20 MSTORE PUSH1 0x40 SWAP1 KECCAK256 PUSH1 0x5 ADD SLOAD PUSH1 0x1 PUSH1 0xA0 SHL SWAP1 DIV PUSH1 0xFF AND PUSH2 0x123F JUMPI PUSH1 0x40 MLOAD PUSH3 0x461BCD PUSH1 0xE5 SHL DUP2 MSTORE PUSH1 0x4 ADD PUSH2 0x697 SWAP1 PUSH2 0x25A2 JUMP JUMPDEST PUSH1 0x0 DUP3 MLOAD GT PUSH2 0x1282 JUMPI PUSH1 0x40 MLOAD PUSH3 0x461BCD PUSH1 0xE5 SHL DUP2 MSTORE PUSH1 0x20 PUSH1 0x4 DUP3 ADD MSTORE PUSH1 0xF PUSH1 0x24 DUP3 ADD MSTORE PUSH15 0x1499585CDBDB881C995C5D5A5C9959 PUSH1 0x8A SHL PUSH1 0x44 DUP3 ADD MSTORE PUSH1 0x64 ADD PUSH2 0x697 JUMP JUMPDEST PUSH1 0x0 DUP4 DUP2 MSTORE PUSH1 0x3 PUSH1 0x20 MSTORE PUSH1 0x40 DUP2 KECCAK256 DUP2 DUP2 SSTORE PUSH1 0x1 DUP2 ADD DUP3 SWAP1 SSTORE SWAP1 PUSH2 0x12A8 PUSH1 0x2 DUP4 ADD DUP3 PUSH2 0x1E41 JUMP JUMPDEST PUSH2 0x12B6 PUSH1 0x3 DUP4 ADD PUSH1 0x0 PUSH2 0x1E41 JUMP JUMPDEST POP PUSH1 0x0 PUSH1 0x4 DUP3 ADD DUP2 SWAP1 SSTORE PUSH1 0x5 DUP3 ADD DUP1 SLOAD PUSH1 0x1 PUSH1 0x1 PUSH1 0xA8 SHL SUB NOT AND SWAP1 SSTORE PUSH1 0x6 SWAP1 SWAP2 ADD DUP1 SLOAD PUSH5 0xFFFFFFFFFF NOT AND SWAP1 SSTORE PUSH1 0x7 DUP1 SLOAD SWAP2 PUSH2 0x12F1 DUP4 PUSH2 0x2827 JUMP JUMPDEST SWAP2 SWAP1 POP SSTORE POP DUP3 PUSH32 0xD3E8DBBE8FF60A1FAE1E5F88E71F27270ED38BADC7B26E19922ED94FD12F5FE9 PUSH1 0x0 DUP5 PUSH1 0x40 MLOAD PUSH2 0x1329 SWAP3 SWAP2 SWAP1 PUSH2 0x2707 JUMP JUMPDEST PUSH1 0x40 MLOAD DUP1 SWAP2 SUB SWAP1 LOG2 POP POP POP JUMP JUMPDEST PUSH1 0x0 DUP1 MLOAD PUSH1 0x20 PUSH2 0x2883 DUP4 CODECOPY DUP2 MLOAD SWAP2 MSTORE PUSH2 0x134E DUP2 PUSH2 0x1BD0 JUMP JUMPDEST PUSH1 0x0 DUP4 MLOAD GT PUSH2 0x1397 JUMPI PUSH1 0x40 MLOAD PUSH3 0x461BCD PUSH1 0xE5 SHL DUP2 MSTORE PUSH1 0x20 PUSH1 0x4 DUP3 ADD MSTORE PUSH1 0x15 PUSH1 0x24 DUP3 ADD MSTORE PUSH21 0x24B73B30B634B21036B7B232B6103B32B939B4B7B7 PUSH1 0x59 SHL PUSH1 0x44 DUP3 ADD MSTORE PUSH1 0x64 ADD PUSH2 0x697 JUMP JUMPDEST DUP2 PUSH1 0x5 DUP5 PUSH1 0x40 MLOAD PUSH2 0x13A8 SWAP2 SWAP1 PUSH2 0x274F JUMP JUMPDEST SWAP1 DUP2 MSTORE PUSH1 0x40 MLOAD SWAP1 DUP2 SWAP1 SUB PUSH1 0x20 ADD DUP2 KECCAK256 DUP1 SLOAD SWAP3 ISZERO ISZERO PUSH1 0xFF NOT SWAP1 SWAP4 AND SWAP3 SWAP1 SWAP3 OR SWAP1 SWAP2 SSTORE PUSH32 0x2E5180543742ECE2DB44ED70B2619F2BF555A29A7BDEAD994736174F0D90A9B6 SWAP1 PUSH2 0x13F8 SWAP1 DUP6 SWAP1 DUP6 SWAP1 PUSH2 0x283E JUMP JUMPDEST PUSH1 0x40 MLOAD DUP1 SWAP2 SUB SWAP1 LOG1 POP POP POP JUMP JUMPDEST PUSH1 0x40 DUP1 MLOAD PUSH1 0xA0 DUP2 ADD DUP3 MSTORE PUSH1 0x0 DUP1 DUP3 MSTORE PUSH1 0x20 DUP3 ADD DUP2 SWAP1 MSTORE SWAP2 DUP2 ADD DUP3 SWAP1 MSTORE PUSH1 0x60 DUP2 ADD DUP3 SWAP1 MSTORE PUSH1 0x80 DUP2 ADD SWAP2 SWAP1 SWAP2 MSTORE DUP2 PUSH1 0x0 DUP2 GT PUSH2 0x1451 JUMPI PUSH1 0x40 MLOAD PUSH3 0x461BCD PUSH1 0xE5 SHL DUP2 MSTORE PUSH1 0x4 ADD PUSH2 0x697 SWAP1 PUSH2 0x2541 JUMP JUMPDEST PUSH1 0x0 DUP4 DUP2 MSTORE PUSH1 0x3 PUSH1 0x20 MSTORE PUSH1 0x40 SWAP1 KECCAK256 PUSH1 0x5 ADD SLOAD PUSH1 0x1 PUSH1 0xA0 SHL SWAP1 DIV PUSH1 0xFF AND PUSH2 0x1489 JUMPI PUSH1 0x40 MLOAD PUSH3 0x461BCD PUSH1 0xE5 SHL DUP2 MSTORE PUSH1 0x4 ADD PUSH2 0x697 SWAP1 PUSH2 0x25A2 JUMP JUMPDEST POP POP PUSH1 0x0 SWAP1 DUP2 MSTORE PUSH1 0x3 PUSH1 0x20 SWAP1 DUP2 MSTORE PUSH1 0x40 SWAP2 DUP3 SWAP1 KECCAK256 DUP3 MLOAD PUSH1 0xA0 DUP2 ADD DUP5 MSTORE PUSH1 0x6 SWAP1 SWAP2 ADD SLOAD PUSH1 0xFF DUP1 DUP3 AND DUP4 MSTORE PUSH2 0x100 DUP3 DIV DUP2 AND SWAP4 DUP4 ADD SWAP4 SWAP1 SWAP4 MSTORE PUSH3 0x10000 DUP2 DIV DUP4 AND SWAP4 DUP3 ADD SWAP4 SWAP1 SWAP4 MSTORE PUSH4 0x1000000 DUP4 DIV DUP3 AND PUSH1 0x60 DUP3 ADD MSTORE PUSH5 0x100000000 SWAP1 SWAP3 DIV AND PUSH1 0x80 DUP3 ADD MSTORE SWAP1 JUMP JUMPDEST PUSH1 0x0 DUP3 DUP2 MSTORE PUSH1 0x20 DUP2 SWAP1 MSTORE PUSH1 0x40 SWAP1 KECCAK256 PUSH1 0x1 ADD SLOAD PUSH2 0x150A DUP2 PUSH2 0x1BD0 JUMP JUMPDEST PUSH2 0xA15 DUP4 DUP4 PUSH2 0x1C6C JUMP JUMPDEST PUSH1 0x0 DUP1 MLOAD PUSH1 0x20 PUSH2 0x2883 DUP4 CODECOPY DUP2 MLOAD SWAP2 MSTORE PUSH2 0x152C DUP2 PUSH2 0x1BD0 JUMP JUMPDEST PUSH1 0x1 PUSH1 0x1 PUSH1 0xA0 SHL SUB DUP4 AND PUSH2 0x157B JUMPI PUSH1 0x40 MLOAD PUSH3 0x461BCD PUSH1 0xE5 SHL DUP2 MSTORE PUSH1 0x20 PUSH1 0x4 DUP3 ADD MSTORE PUSH1 0x16 PUSH1 0x24 DUP3 ADD MSTORE PUSH22 0x496E76616C6964206F7261636C652061646472657373 PUSH1 0x50 SHL PUSH1 0x44 DUP3 ADD MSTORE PUSH1 0x64 ADD PUSH2 0x697 JUMP JUMPDEST PUSH1 0x1 PUSH1 0x1 PUSH1 0xA0 SHL SUB DUP4 AND PUSH1 0x0 SWAP1 DUP2 MSTORE PUSH1 0x4 PUSH1 0x20 MSTORE PUSH1 0x40 SWAP1 KECCAK256 DUP1 SLOAD PUSH1 0xFF NOT AND DUP4 ISZERO DUP1 ISZERO SWAP2 SWAP1 SWAP2 OR SWAP1 SWAP2 SSTORE PUSH2 0x15C5 JUMPI PUSH2 0x15C0 PUSH1 0x0 DUP1 MLOAD PUSH1 0x20 PUSH2 0x2863 DUP4 CODECOPY DUP2 MLOAD SWAP2 MSTORE DUP5 PUSH2 0x9F0 JUMP JUMPDEST PUSH2 0x15DD JUMP JUMPDEST PUSH2 0x15DD PUSH1 0x0 DUP1 MLOAD PUSH1 0x20 PUSH2 0x2863 DUP4 CODECOPY DUP2 MLOAD SWAP2 MSTORE DUP5 PUSH2 0x14EF JUMP JUMPDEST DUP3 PUSH1 0x1 PUSH1 0x1 PUSH1 0xA0 SHL SUB AND PUSH32 0x82A8FB1E779EA45AD427CC612E47087F5386A567E49DCE488185E40646FA48D5 DUP4 PUSH1 0x40 MLOAD PUSH2 0x1329 SWAP2 ISZERO ISZERO DUP2 MSTORE PUSH1 0x20 ADD SWAP1 JUMP JUMPDEST PUSH2 0x1682 PUSH1 0x40 DUP1 MLOAD PUSH2 0x100 DUP2 ADD DUP3 MSTORE PUSH1 0x0 DUP1 DUP3 MSTORE PUSH1 0x20 DUP1 DUP4 ADD DUP3 SWAP1 MSTORE PUSH1 0x60 DUP4 DUP6 ADD DUP2 SWAP1 MSTORE DUP1 DUP5 ADD DUP2 SWAP1 MSTORE PUSH1 0x80 DUP1 DUP6 ADD DUP5 SWAP1 MSTORE PUSH1 0xA0 DUP1 DUP7 ADD DUP6 SWAP1 MSTORE PUSH1 0xC0 DUP7 ADD DUP6 SWAP1 MSTORE DUP7 MLOAD SWAP1 DUP2 ADD DUP8 MSTORE DUP5 DUP2 MSTORE SWAP3 DUP4 ADD DUP5 SWAP1 MSTORE SWAP5 DUP3 ADD DUP4 SWAP1 MSTORE DUP2 ADD DUP3 SWAP1 MSTORE SWAP3 DUP4 ADD MSTORE SWAP1 PUSH1 0xE0 DUP3 ADD MSTORE SWAP1 JUMP JUMPDEST DUP2 PUSH1 0x0 DUP2 GT PUSH2 0x16A3 JUMPI PUSH1 0x40 MLOAD PUSH3 0x461BCD PUSH1 0xE5 SHL DUP2 MSTORE PUSH1 0x4 ADD PUSH2 0x697 SWAP1 PUSH2 0x2541 JUMP JUMPDEST PUSH1 0x0 DUP4 DUP2 MSTORE PUSH1 0x3 PUSH1 0x20 MSTORE PUSH1 0x40 SWAP1 KECCAK256 PUSH1 0x5 ADD SLOAD PUSH1 0x1 PUSH1 0xA0 SHL SWAP1 DIV PUSH1 0xFF AND PUSH2 0x16DB JUMPI PUSH1 0x40 MLOAD PUSH3 0x461BCD PUSH1 0xE5 SHL DUP2 MSTORE PUSH1 0x4 ADD PUSH2 0x697 SWAP1 PUSH2 0x25A2 JUMP JUMPDEST PUSH1 0x3 PUSH1 0x0 DUP5 DUP2 MSTORE PUSH1 0x20 ADD SWAP1 DUP2 MSTORE PUSH1 0x20 ADD PUSH1 0x0 KECCAK256 PUSH1 0x40 MLOAD DUP1 PUSH2 0x100 ADD PUSH1 0x40 MSTORE SWAP1 DUP2 PUSH1 0x0 DUP3 ADD SLOAD DUP2 MSTORE PUSH1 0x20 ADD PUSH1 0x1 DUP3 ADD SLOAD DUP2 MSTORE PUSH1 0x20 ADD PUSH1 0x2 DUP3 ADD DUP1 SLOAD PUSH2 0x171E SWAP1 PUSH2 0x256E JUMP JUMPDEST DUP1 PUSH1 0x1F ADD PUSH1 0x20 DUP1 SWAP2 DIV MUL PUSH1 0x20 ADD PUSH1 0x40 MLOAD SWAP1 DUP2 ADD PUSH1 0x40 MSTORE DUP1 SWAP3 SWAP2 SWAP1 DUP2 DUP2 MSTORE PUSH1 0x20 ADD DUP3 DUP1 SLOAD PUSH2 0x174A SWAP1 PUSH2 0x256E JUMP JUMPDEST DUP1 ISZERO PUSH2 0x1797 JUMPI DUP1 PUSH1 0x1F LT PUSH2 0x176C JUMPI PUSH2 0x100 DUP1 DUP4 SLOAD DIV MUL DUP4 MSTORE SWAP2 PUSH1 0x20 ADD SWAP2 PUSH2 0x1797 JUMP JUMPDEST DUP3 ADD SWAP2 SWAP1 PUSH1 0x0 MSTORE PUSH1 0x20 PUSH1 0x0 KECCAK256 SWAP1 JUMPDEST DUP2 SLOAD DUP2 MSTORE SWAP1 PUSH1 0x1 ADD SWAP1 PUSH1 0x20 ADD DUP1 DUP4 GT PUSH2 0x177A JUMPI DUP3 SWAP1 SUB PUSH1 0x1F AND DUP3 ADD SWAP2 JUMPDEST POP POP POP POP POP DUP2 MSTORE PUSH1 0x20 ADD PUSH1 0x3 DUP3 ADD DUP1 SLOAD PUSH2 0x17B0 SWAP1 PUSH2 0x256E JUMP JUMPDEST DUP1 PUSH1 0x1F ADD PUSH1 0x20 DUP1 SWAP2 DIV MUL PUSH1 0x20 ADD PUSH1 0x40 MLOAD SWAP1 DUP2 ADD PUSH1 0x40 MSTORE DUP1 SWAP3 SWAP2 SWAP1 DUP2 DUP2 MSTORE PUSH1 0x20 ADD DUP3 DUP1 SLOAD PUSH2 0x17DC SWAP1 PUSH2 0x256E JUMP JUMPDEST DUP1 ISZERO PUSH2 0x1829 JUMPI DUP1 PUSH1 0x1F LT PUSH2 0x17FE JUMPI PUSH2 0x100 DUP1 DUP4 SLOAD DIV MUL DUP4 MSTORE SWAP2 PUSH1 0x20 ADD SWAP2 PUSH2 0x1829 JUMP JUMPDEST DUP3 ADD SWAP2 SWAP1 PUSH1 0x0 MSTORE PUSH1 0x20 PUSH1 0x0 KECCAK256 SWAP1 JUMPDEST DUP2 SLOAD DUP2 MSTORE SWAP1 PUSH1 0x1 ADD SWAP1 PUSH1 0x20 ADD DUP1 DUP4 GT PUSH2 0x180C JUMPI DUP3 SWAP1 SUB PUSH1 0x1F AND DUP3 ADD SWAP2 JUMPDEST POP POP POP SWAP2 DUP4 MSTORE POP POP PUSH1 0x4 DUP3 ADD SLOAD PUSH1 0x20 DUP1 DUP4 ADD SWAP2 SWAP1 SWAP2 MSTORE PUSH1 0x5 DUP4 ADD SLOAD PUSH1 0x1 PUSH1 0x1 PUSH1 0xA0 SHL SUB DUP2 AND PUSH1 0x40 DUP1 DUP6 ADD SWAP2 SWAP1 SWAP2 MSTORE PUSH1 0xFF PUSH1 0x1 PUSH1 0xA0 SHL SWAP1 SWAP3 DIV DUP3 AND ISZERO ISZERO PUSH1 0x60 DUP1 DUP7 ADD SWAP2 SWAP1 SWAP2 MSTORE DUP2 MLOAD PUSH1 0xA0 DUP2 ADD DUP4 MSTORE PUSH1 0x6 SWAP1 SWAP7 ADD SLOAD DUP1 DUP5 AND DUP8 MSTORE PUSH2 0x100 DUP2 DIV DUP5 AND SWAP5 DUP8 ADD SWAP5 SWAP1 SWAP5 MSTORE PUSH3 0x10000 DUP5 DIV DUP4 AND SWAP2 DUP7 ADD SWAP2 SWAP1 SWAP2 MSTORE PUSH4 0x1000000 DUP4 DIV DUP3 AND SWAP1 DUP6 ADD MSTORE PUSH5 0x100000000 SWAP1 SWAP2 DIV AND PUSH1 0x80 DUP4 DUP2 ADD SWAP2 SWAP1 SWAP2 MSTORE ADD MSTORE SWAP2 POP POP SWAP2 SWAP1 POP JUMP JUMPDEST PUSH1 0x40 DUP1 MLOAD PUSH1 0x6 DUP1 DUP3 MSTORE PUSH1 0xE0 DUP3 ADD SWAP1 SWAP3 MSTORE PUSH1 0x60 SWAP2 PUSH1 0x20 DUP3 ADD PUSH1 0xC0 DUP1 CALLDATASIZE DUP4 CALLDATACOPY ADD SWAP1 POP POP SWAP1 POP PUSH1 0x0 DUP1 SHL DUP2 PUSH1 0x0 DUP2 MLOAD DUP2 LT PUSH2 0x1902 JUMPI PUSH2 0x1902 PUSH2 0x2720 JUMP JUMPDEST PUSH1 0x20 MUL PUSH1 0x20 ADD ADD DUP2 DUP2 MSTORE POP POP PUSH1 0x0 DUP1 MLOAD PUSH1 0x20 PUSH2 0x2883 DUP4 CODECOPY DUP2 MLOAD SWAP2 MSTORE DUP2 PUSH1 0x1 DUP2 MLOAD DUP2 LT PUSH2 0x1930 JUMPI PUSH2 0x1930 PUSH2 0x2720 JUMP JUMPDEST PUSH1 0x20 MUL PUSH1 0x20 ADD ADD DUP2 DUP2 MSTORE POP POP PUSH1 0x0 DUP1 MLOAD PUSH1 0x20 PUSH2 0x2863 DUP4 CODECOPY DUP2 MLOAD SWAP2 MSTORE DUP2 PUSH1 0x2 DUP2 MLOAD DUP2 LT PUSH2 0x195E JUMPI PUSH2 0x195E PUSH2 0x2720 JUMP JUMPDEST PUSH1 0x20 MUL PUSH1 0x20 ADD ADD DUP2 DUP2 MSTORE POP POP PUSH32 0xEDE9DCDB0CE99DC7CEC9C7BE9246AD08B37853683AD91569C187B647DDF5E21C DUP2 PUSH1 0x3 DUP2 MLOAD DUP2 LT PUSH2 0x199E JUMPI PUSH2 0x199E PUSH2 0x2720 JUMP JUMPDEST PUSH1 0x20 MUL PUSH1 0x20 ADD ADD DUP2 DUP2 MSTORE POP POP PUSH32 0x58223CDFB69946630D837D40B5C366A584F0217ADA7FDDD8318F2E08603CFA22 DUP2 PUSH1 0x4 DUP2 MLOAD DUP2 LT PUSH2 0x19DE JUMPI PUSH2 0x19DE PUSH2 0x2720 JUMP JUMPDEST PUSH1 0x20 MUL PUSH1 0x20 ADD ADD DUP2 DUP2 MSTORE POP POP PUSH32 0x7B8BB8356A3F32F5C111FF23F050D97F08988E0883529EA7BFF3B918887A6E0E DUP2 PUSH1 0x5 DUP2 MLOAD DUP2 LT PUSH2 0x1A1E JUMPI PUSH2 0x1A1E PUSH2 0x2720 JUMP JUMPDEST PUSH1 0x20 MUL PUSH1 0x20 ADD ADD DUP2 DUP2 MSTORE POP POP SWAP1 JUMP JUMPDEST PUSH1 0x0 DUP1 MLOAD PUSH1 0x20 PUSH2 0x2883 DUP4 CODECOPY DUP2 MLOAD SWAP2 MSTORE PUSH2 0x1A45 DUP2 PUSH2 0x1BD0 JUMP JUMPDEST PUSH1 0x80 DUP3 ADD MLOAD PUSH1 0x60 DUP4 ADD MLOAD PUSH1 0x40 DUP5 ADD MLOAD PUSH1 0x20 DUP6 ADD MLOAD DUP6 MLOAD PUSH2 0x1A65 SWAP2 SWAP1 PUSH2 0x278E JUMP JUMPDEST PUSH2 0x1A6F SWAP2 SWAP1 PUSH2 0x278E JUMP JUMPDEST PUSH2 0x1A79 SWAP2 SWAP1 PUSH2 0x278E JUMP JUMPDEST PUSH2 0x1A83 SWAP2 SWAP1 PUSH2 0x278E JUMP JUMPDEST PUSH1 0xFF AND PUSH1 0x64 EQ PUSH2 0x1AD5 JUMPI PUSH1 0x40 MLOAD PUSH3 0x461BCD PUSH1 0xE5 SHL DUP2 MSTORE PUSH1 0x20 PUSH1 0x4 DUP3 ADD MSTORE PUSH1 0x17 PUSH1 0x24 DUP3 ADD MSTORE PUSH32 0x57656967687473206D7573742073756D20746F20313030000000000000000000 PUSH1 0x44 DUP3 ADD MSTORE PUSH1 0x64 ADD PUSH2 0x697 JUMP JUMPDEST DUP2 MLOAD PUSH1 0x6 DUP1 SLOAD PUSH1 0x20 DUP6 ADD MLOAD PUSH1 0x40 DUP1 DUP8 ADD MLOAD PUSH1 0x60 DUP9 ADD MLOAD PUSH1 0x80 DUP10 ADD MLOAD PUSH1 0xFF SWAP1 DUP2 AND PUSH5 0x100000000 MUL PUSH5 0xFF00000000 NOT SWAP3 DUP3 AND PUSH4 0x1000000 MUL PUSH4 0xFF000000 NOT SWAP5 DUP4 AND PUSH3 0x10000 MUL SWAP5 SWAP1 SWAP5 AND PUSH4 0xFFFF0000 NOT SWAP7 DUP4 AND PUSH2 0x100 MUL PUSH2 0xFFFF NOT SWAP1 SWAP9 AND SWAP3 SWAP1 SWAP10 AND SWAP2 SWAP1 SWAP2 OR SWAP6 SWAP1 SWAP6 OR SWAP4 SWAP1 SWAP4 AND SWAP6 SWAP1 SWAP6 OR SWAP5 SWAP1 SWAP5 OR AND OR SWAP1 SSTORE MLOAD PUSH32 0x90565F56924446477768885E9B20CF4CB9D2183F2AD4313F3E90F1DCAEDCC0AE SWAP1 PUSH2 0x1B7C SWAP1 DUP5 SWAP1 PUSH2 0x23A3 JUMP JUMPDEST PUSH1 0x40 MLOAD DUP1 SWAP2 SUB SWAP1 LOG1 POP POP JUMP JUMPDEST PUSH1 0x1 SLOAD PUSH1 0xFF AND ISZERO PUSH2 0x1BCE JUMPI PUSH1 0x40 MLOAD PUSH3 0x461BCD PUSH1 0xE5 SHL DUP2 MSTORE PUSH1 0x20 PUSH1 0x4 DUP3 ADD MSTORE PUSH1 0x10 PUSH1 0x24 DUP3 ADD MSTORE PUSH16 0x14185D5CD8589B194E881C185D5CD959 PUSH1 0x82 SHL PUSH1 0x44 DUP3 ADD MSTORE PUSH1 0x64 ADD PUSH2 0x697 JUMP JUMPDEST JUMP JUMPDEST PUSH2 0xA73 DUP2 CALLER PUSH2 0x1DBB JUMP JUMPDEST PUSH1 0x0 PUSH2 0x1BE6 DUP4 DUP4 PUSH2 0x1121 JUMP JUMPDEST PUSH2 0x1C64 JUMPI PUSH1 0x0 DUP4 DUP2 MSTORE PUSH1 0x20 DUP2 DUP2 MSTORE PUSH1 0x40 DUP1 DUP4 KECCAK256 PUSH1 0x1 PUSH1 0x1 PUSH1 0xA0 SHL SUB DUP7 AND DUP5 MSTORE SWAP1 SWAP2 MSTORE SWAP1 KECCAK256 DUP1 SLOAD PUSH1 0xFF NOT AND PUSH1 0x1 OR SWAP1 SSTORE PUSH2 0x1C1C CALLER SWAP1 JUMP JUMPDEST PUSH1 0x1 PUSH1 0x1 PUSH1 0xA0 SHL SUB AND DUP3 PUSH1 0x1 PUSH1 0x1 PUSH1 0xA0 SHL SUB AND DUP5 PUSH32 0x2F8788117E7EFF1D82E926EC794901D17C78024A50270940304540A733656F0D PUSH1 0x40 MLOAD PUSH1 0x40 MLOAD DUP1 SWAP2 SUB SWAP1 LOG4 POP PUSH1 0x1 PUSH2 0x66A JUMP JUMPDEST POP PUSH1 0x0 PUSH2 0x66A JUMP JUMPDEST PUSH1 0x0 PUSH2 0x1C78 DUP4 DUP4 PUSH2 0x1121 JUMP JUMPDEST ISZERO PUSH2 0x1C64 JUMPI PUSH1 0x0 DUP4 DUP2 MSTORE PUSH1 0x20 DUP2 DUP2 MSTORE PUSH1 0x40 DUP1 DUP4 KECCAK256 PUSH1 0x1 PUSH1 0x1 PUSH1 0xA0 SHL SUB DUP7 AND DUP1 DUP6 MSTORE SWAP3 MSTORE DUP1 DUP4 KECCAK256 DUP1 SLOAD PUSH1 0xFF NOT AND SWAP1 SSTORE MLOAD CALLER SWAP3 DUP7 SWAP2 PUSH32 0xF6391F5C32D9C69D2A47EA670B442974B53935D1EDC7FD64EB21E047A839171B SWAP2 SWAP1 LOG4 POP PUSH1 0x1 PUSH2 0x66A JUMP JUMPDEST PUSH2 0x1CDF PUSH2 0x1DF8 JUMP JUMPDEST PUSH1 0x1 DUP1 SLOAD PUSH1 0xFF NOT AND SWAP1 SSTORE PUSH32 0x5DB9EE0A495BF2E6FF9C91A7834C1BA4FDD244A5E8AA4E537BD38AEAE4B073AA CALLER JUMPDEST PUSH1 0x40 MLOAD PUSH1 0x1 PUSH1 0x1 PUSH1 0xA0 SHL SUB SWAP1 SWAP2 AND DUP2 MSTORE PUSH1 0x20 ADD PUSH1 0x40 MLOAD DUP1 SWAP2 SUB SWAP1 LOG1 JUMP JUMPDEST PUSH1 0x2 DUP1 SLOAD SUB PUSH2 0x1D7A JUMPI PUSH1 0x40 MLOAD PUSH3 0x461BCD PUSH1 0xE5 SHL DUP2 MSTORE PUSH1 0x20 PUSH1 0x4 DUP3 ADD MSTORE PUSH1 0x1F PUSH1 0x24 DUP3 ADD MSTORE PUSH32 0x5265656E7472616E637947756172643A207265656E7472616E742063616C6C00 PUSH1 0x44 DUP3 ADD MSTORE PUSH1 0x64 ADD PUSH2 0x697 JUMP JUMPDEST PUSH1 0x2 DUP1 SSTORE JUMP JUMPDEST PUSH2 0x1D88 PUSH2 0x1B88 JUMP JUMPDEST PUSH1 0x1 DUP1 SLOAD PUSH1 0xFF NOT AND DUP2 OR SWAP1 SSTORE PUSH32 0x62E78CEA01BEE320CD4E420270B5EA74000D11B0C9F74754EBDBFC544B05A258 CALLER PUSH2 0x1D0C JUMP JUMPDEST PUSH2 0x1DC5 DUP3 DUP3 PUSH2 0x1121 JUMP JUMPDEST PUSH2 0x1DF4 JUMPI PUSH1 0x40 MLOAD PUSH4 0xE2517D3F PUSH1 0xE0 SHL DUP2 MSTORE PUSH1 0x1 PUSH1 0x1 PUSH1 0xA0 SHL SUB DUP3 AND PUSH1 0x4 DUP3 ADD MSTORE PUSH1 0x24 DUP2 ADD DUP4 SWAP1 MSTORE PUSH1 0x44 ADD PUSH2 0x697 JUMP JUMPDEST POP POP JUMP JUMPDEST PUSH1 0x1 SLOAD PUSH1 0xFF AND PUSH2 0x1BCE JUMPI PUSH1 0x40 MLOAD PUSH3 0x461BCD PUSH1 0xE5 SHL DUP2 MSTORE PUSH1 0x20 PUSH1 0x4 DUP3 ADD MSTORE PUSH1 0x14 PUSH1 0x24 DUP3 ADD MSTORE PUSH20 0x14185D5CD8589B194E881B9BDD081C185D5CD959 PUSH1 0x62 SHL PUSH1 0x44 DUP3 ADD MSTORE PUSH1 0x64 ADD PUSH2 0x697 JUMP JUMPDEST POP DUP1 SLOAD PUSH2 0x1E4D SWAP1 PUSH2 0x256E JUMP JUMPDEST PUSH1 0x0 DUP3 SSTORE DUP1 PUSH1 0x1F LT PUSH2 0x1E5D JUMPI POP POP JUMP JUMPDEST PUSH1 0x1F ADD PUSH1 0x20 SWAP1 DIV SWAP1 PUSH1 0x0 MSTORE PUSH1 0x20 PUSH1 0x0 KECCAK256 SWAP1 DUP2 ADD SWAP1 PUSH2 0xA73 SWAP2 SWAP1 JUMPDEST DUP1 DUP3 GT ISZERO PUSH2 0x1E8B JUMPI PUSH1 0x0 DUP2 SSTORE PUSH1 0x1 ADD PUSH2 0x1E77 JUMP JUMPDEST POP SWAP1 JUMP JUMPDEST PUSH1 0x0 PUSH1 0x20 DUP3 DUP5 SUB SLT ISZERO PUSH2 0x1EA1 JUMPI PUSH1 0x0 DUP1 REVERT JUMPDEST DUP2 CALLDATALOAD PUSH1 0x1 PUSH1 0x1 PUSH1 0xE0 SHL SUB NOT DUP2 AND DUP2 EQ PUSH2 0x1EB9 JUMPI PUSH1 0x0 DUP1 REVERT JUMPDEST SWAP4 SWAP3 POP POP POP JUMP JUMPDEST PUSH1 0x0 PUSH1 0x20 DUP3 DUP5 SUB SLT ISZERO PUSH2 0x1ED2 JUMPI PUSH1 0x0 DUP1 REVERT JUMPDEST POP CALLDATALOAD SWAP2 SWAP1 POP JUMP JUMPDEST PUSH1 0x0 JUMPDEST DUP4 DUP2 LT ISZERO PUSH2 0x1EF4 JUMPI DUP2 DUP2 ADD MLOAD DUP4 DUP3 ADD MSTORE PUSH1 0x20 ADD PUSH2 0x1EDC JUMP JUMPDEST POP POP PUSH1 0x0 SWAP2 ADD MSTORE JUMP JUMPDEST PUSH1 0x0 DUP2 MLOAD DUP1 DUP5 MSTORE PUSH2 0x1F15 DUP2 PUSH1 0x20 DUP7 ADD PUSH1 0x20 DUP7 ADD PUSH2 0x1ED9 JUMP JUMPDEST PUSH1 0x1F ADD PUSH1 0x1F NOT AND SWAP3 SWAP1 SWAP3 ADD PUSH1 0x20 ADD SWAP3 SWAP2 POP POP JUMP JUMPDEST DUP4 DUP2 MSTORE PUSH1 0x60 PUSH1 0x20 DUP3 ADD MSTORE PUSH1 0x0 PUSH2 0x1F42 PUSH1 0x60 DUP4 ADD DUP6 PUSH2 0x1EFD JUMP JUMPDEST SWAP1 POP DUP3 ISZERO ISZERO PUSH1 0x40 DUP4 ADD MSTORE SWAP5 SWAP4 POP POP POP POP JUMP JUMPDEST PUSH4 0x4E487B71 PUSH1 0xE0 SHL PUSH1 0x0 MSTORE PUSH1 0x41 PUSH1 0x4 MSTORE PUSH1 0x24 PUSH1 0x0 REVERT JUMPDEST PUSH1 0x40 MLOAD PUSH1 0x1F DUP3 ADD PUSH1 0x1F NOT AND DUP2 ADD PUSH8 0xFFFFFFFFFFFFFFFF DUP2 GT DUP3 DUP3 LT OR ISZERO PUSH2 0x1F93 JUMPI PUSH2 0x1F93 PUSH2 0x1F54 JUMP JUMPDEST PUSH1 0x40 MSTORE SWAP2 SWAP1 POP JUMP JUMPDEST PUSH1 0x0 DUP3 PUSH1 0x1F DUP4 ADD SLT PUSH2 0x1FAC JUMPI PUSH1 0x0 DUP1 REVERT JUMPDEST DUP2 CALLDATALOAD PUSH8 0xFFFFFFFFFFFFFFFF DUP2 GT ISZERO PUSH2 0x1FC6 JUMPI PUSH2 0x1FC6 PUSH2 0x1F54 JUMP JUMPDEST PUSH2 0x1FD9 PUSH1 0x1F DUP3 ADD PUSH1 0x1F NOT AND PUSH1 0x20 ADD PUSH2 0x1F6A JUMP JUMPDEST DUP2 DUP2 MSTORE DUP5 PUSH1 0x20 DUP4 DUP7 ADD ADD GT ISZERO PUSH2 0x1FEE JUMPI PUSH1 0x0 DUP1 REVERT JUMPDEST DUP2 PUSH1 0x20 DUP6 ADD PUSH1 0x20 DUP4 ADD CALLDATACOPY PUSH1 0x0 SWAP2 DUP2 ADD PUSH1 0x20 ADD SWAP2 SWAP1 SWAP2 MSTORE SWAP4 SWAP3 POP POP POP JUMP JUMPDEST PUSH1 0x0 DUP1 PUSH1 0x0 DUP1 PUSH1 0x80 DUP6 DUP8 SUB SLT ISZERO PUSH2 0x2021 JUMPI PUSH1 0x0 DUP1 REVERT JUMPDEST DUP5 CALLDATALOAD SWAP4 POP PUSH1 0x20 DUP6 ADD CALLDATALOAD SWAP3 POP PUSH1 0x40 DUP6 ADD CALLDATALOAD PUSH8 0xFFFFFFFFFFFFFFFF DUP1 DUP3 GT ISZERO PUSH2 0x2047 JUMPI PUSH1 0x0 DUP1 REVERT JUMPDEST PUSH2 0x2053 DUP9 DUP4 DUP10 ADD PUSH2 0x1F9B JUMP JUMPDEST SWAP4 POP PUSH1 0x60 DUP8 ADD CALLDATALOAD SWAP2 POP DUP1 DUP3 GT ISZERO PUSH2 0x2069 JUMPI PUSH1 0x0 DUP1 REVERT JUMPDEST POP PUSH2 0x2076 DUP8 DUP3 DUP9 ADD PUSH2 0x1F9B JUMP JUMPDEST SWAP2 POP POP SWAP3 SWAP6 SWAP2 SWAP5 POP SWAP3 POP JUMP JUMPDEST PUSH1 0x0 PUSH1 0x20 DUP3 DUP5 SUB SLT ISZERO PUSH2 0x2094 JUMPI PUSH1 0x0 DUP1 REVERT JUMPDEST DUP2 CALLDATALOAD PUSH8 0xFFFFFFFFFFFFFFFF DUP2 GT ISZERO PUSH2 0x20AB JUMPI PUSH1 0x0 DUP1 REVERT JUMPDEST PUSH2 0x20B7 DUP5 DUP3 DUP6 ADD PUSH2 0x1F9B JUMP JUMPDEST SWAP5 SWAP4 POP POP POP POP JUMP JUMPDEST DUP1 CALLDATALOAD PUSH1 0x1 PUSH1 0x1 PUSH1 0xA0 SHL SUB DUP2 AND DUP2 EQ PUSH2 0x20D6 JUMPI PUSH1 0x0 DUP1 REVERT JUMPDEST SWAP2 SWAP1 POP JUMP JUMPDEST PUSH1 0x0 DUP1 PUSH1 0x40 DUP4 DUP6 SUB SLT ISZERO PUSH2 0x20EE JUMPI PUSH1 0x0 DUP1 REVERT JUMPDEST DUP3 CALLDATALOAD SWAP2 POP PUSH2 0x20FE PUSH1 0x20 DUP5 ADD PUSH2 0x20BF JUMP JUMPDEST SWAP1 POP SWAP3 POP SWAP3 SWAP1 POP JUMP JUMPDEST PUSH1 0x0 DUP1 PUSH1 0x40 DUP4 DUP6 SUB SLT ISZERO PUSH2 0x211A JUMPI PUSH1 0x0 DUP1 REVERT JUMPDEST PUSH2 0x2123 DUP4 PUSH2 0x20BF JUMP JUMPDEST SWAP2 POP PUSH1 0x20 DUP1 DUP5 ADD CALLDATALOAD PUSH8 0xFFFFFFFFFFFFFFFF DUP1 DUP3 GT ISZERO PUSH2 0x2141 JUMPI PUSH1 0x0 DUP1 REVERT JUMPDEST DUP2 DUP7 ADD SWAP2 POP DUP7 PUSH1 0x1F DUP4 ADD SLT PUSH2 0x2155 JUMPI PUSH1 0x0 DUP1 REVERT JUMPDEST DUP2 CALLDATALOAD DUP2 DUP2 GT ISZERO PUSH2 0x2167 JUMPI PUSH2 0x2167 PUSH2 0x1F54 JUMP JUMPDEST DUP1 PUSH1 0x5 SHL SWAP2 POP PUSH2 0x2178 DUP5 DUP4 ADD PUSH2 0x1F6A JUMP JUMPDEST DUP2 DUP2 MSTORE SWAP2 DUP4 ADD DUP5 ADD SWAP2 DUP5 DUP2 ADD SWAP1 DUP10 DUP5 GT ISZERO PUSH2 0x2192 JUMPI PUSH1 0x0 DUP1 REVERT JUMPDEST SWAP4 DUP6 ADD SWAP4 JUMPDEST DUP4 DUP6 LT ISZERO PUSH2 0x21B0 JUMPI DUP5 CALLDATALOAD DUP3 MSTORE SWAP4 DUP6 ADD SWAP4 SWAP1 DUP6 ADD SWAP1 PUSH2 0x2197 JUMP JUMPDEST DUP1 SWAP7 POP POP POP POP POP POP POP SWAP3 POP SWAP3 SWAP1 POP JUMP JUMPDEST PUSH1 0x0 PUSH1 0x20 DUP3 DUP5 SUB SLT ISZERO PUSH2 0x21D2 JUMPI PUSH1 0x0 DUP1 REVERT JUMPDEST PUSH2 0x1EB9 DUP3 PUSH2 0x20BF JUMP JUMPDEST DUP1 CALLDATALOAD PUSH1 0xFF DUP2 AND DUP2 EQ PUSH2 0x20D6 JUMPI PUSH1 0x0 DUP1 REVERT JUMPDEST PUSH1 0x0 PUSH1 0xA0 DUP3 DUP5 SUB SLT ISZERO PUSH2 0x21FE JUMPI PUSH1 0x0 DUP1 REVERT JUMPDEST PUSH1 0x40 MLOAD PUSH1 0xA0 DUP2 ADD DUP2 DUP2 LT PUSH8 0xFFFFFFFFFFFFFFFF DUP3 GT OR ISZERO PUSH2 0x2221 JUMPI PUSH2 0x2221 PUSH2 0x1F54 JUMP JUMPDEST PUSH1 0x40 MSTORE SWAP1 POP DUP1 PUSH2 0x2230 DUP4 PUSH2 0x21DB JUMP JUMPDEST DUP2 MSTORE PUSH2 0x223E PUSH1 0x20 DUP5 ADD PUSH2 0x21DB JUMP JUMPDEST PUSH1 0x20 DUP3 ADD MSTORE PUSH2 0x224F PUSH1 0x40 DUP5 ADD PUSH2 0x21DB JUMP JUMPDEST PUSH1 0x40 DUP3 ADD MSTORE PUSH2 0x2260 PUSH1 0x60 DUP5 ADD PUSH2 0x21DB JUMP JUMPDEST PUSH1 0x60 DUP3 ADD MSTORE PUSH2 0x2271 PUSH1 0x80 DUP5 ADD PUSH2 0x21DB JUMP JUMPDEST PUSH1 0x80 DUP3 ADD MSTORE POP SWAP3 SWAP2 POP POP JUMP JUMPDEST PUSH1 0x0 DUP1 PUSH1 0x0 DUP1 PUSH1 0x0 PUSH2 0x120 DUP7 DUP9 SUB SLT ISZERO PUSH2 0x2296 JUMPI PUSH1 0x0 DUP1 REVERT JUMPDEST DUP6 CALLDATALOAD SWAP5 POP PUSH1 0x20 DUP7 ADD CALLDATALOAD SWAP4 POP PUSH1 0x40 DUP7 ADD CALLDATALOAD PUSH8 0xFFFFFFFFFFFFFFFF DUP1 DUP3 GT ISZERO PUSH2 0x22BC JUMPI PUSH1 0x0 DUP1 REVERT JUMPDEST PUSH2 0x22C8 DUP10 DUP4 DUP11 ADD PUSH2 0x1F9B JUMP JUMPDEST SWAP5 POP PUSH1 0x60 DUP9 ADD CALLDATALOAD SWAP2 POP DUP1 DUP3 GT ISZERO PUSH2 0x22DE JUMPI PUSH1 0x0 DUP1 REVERT JUMPDEST POP PUSH2 0x22EB DUP9 DUP3 DUP10 ADD PUSH2 0x1F9B JUMP JUMPDEST SWAP3 POP POP PUSH2 0x22FB DUP8 PUSH1 0x80 DUP9 ADD PUSH2 0x21EC JUMP JUMPDEST SWAP1 POP SWAP3 SWAP6 POP SWAP3 SWAP6 SWAP1 SWAP4 POP JUMP JUMPDEST PUSH1 0x0 DUP1 PUSH1 0x40 DUP4 DUP6 SUB SLT ISZERO PUSH2 0x231A JUMPI PUSH1 0x0 DUP1 REVERT JUMPDEST DUP3 CALLDATALOAD SWAP2 POP PUSH1 0x20 DUP4 ADD CALLDATALOAD PUSH8 0xFFFFFFFFFFFFFFFF DUP2 GT ISZERO PUSH2 0x2338 JUMPI PUSH1 0x0 DUP1 REVERT JUMPDEST PUSH2 0x2344 DUP6 DUP3 DUP7 ADD PUSH2 0x1F9B JUMP JUMPDEST SWAP2 POP POP SWAP3 POP SWAP3 SWAP1 POP JUMP JUMPDEST DUP1 CALLDATALOAD DUP1 ISZERO ISZERO DUP2 EQ PUSH2 0x20D6 JUMPI PUSH1 0x0 DUP1 REVERT JUMPDEST PUSH1 0x0 DUP1 PUSH1 0x40 DUP4 DUP6 SUB SLT ISZERO PUSH2 0x2371 JUMPI PUSH1 0x0 DUP1 REVERT JUMPDEST DUP3 CALLDATALOAD PUSH8 0xFFFFFFFFFFFFFFFF DUP2 GT ISZERO PUSH2 0x2388 JUMPI PUSH1 0x0 DUP1 REVERT JUMPDEST PUSH2 0x2394 DUP6 DUP3 DUP7 ADD PUSH2 0x1F9B JUMP JUMPDEST SWAP3 POP POP PUSH2 0x20FE PUSH1 0x20 DUP5 ADD PUSH2 0x234E JUMP JUMPDEST PUSH1 0xA0 DUP2 ADD PUSH2 0x66A DUP3 DUP5 PUSH1 0xFF DUP2 MLOAD AND DUP3 MSTORE PUSH1 0xFF PUSH1 0x20 DUP3 ADD MLOAD AND PUSH1 0x20 DUP4 ADD MSTORE PUSH1 0xFF PUSH1 0x40 DUP3 ADD MLOAD AND PUSH1 0x40 DUP4 ADD MSTORE PUSH1 0xFF PUSH1 0x60 DUP3 ADD MLOAD AND PUSH1 0x60 DUP4 ADD MSTORE PUSH1 0xFF PUSH1 0x80 DUP3 ADD MLOAD AND PUSH1 0x80 DUP4 ADD MSTORE POP POP JUMP JUMPDEST PUSH1 0x0 DUP1 PUSH1 0x40 DUP4 DUP6 SUB SLT ISZERO PUSH2 0x23FE JUMPI PUSH1 0x0 DUP1 REVERT JUMPDEST PUSH2 0x2407 DUP4 PUSH2 0x20BF JUMP JUMPDEST SWAP2 POP PUSH2 0x20FE PUSH1 0x20 DUP5 ADD PUSH2 0x234E JUMP JUMPDEST PUSH1 0x20 DUP2 MSTORE DUP2 MLOAD PUSH1 0x20 DUP3 ADD MSTORE PUSH1 0x20 DUP3 ADD MLOAD PUSH1 0x40 DUP3 ADD MSTORE PUSH1 0x0 PUSH1 0x40 DUP4 ADD MLOAD PUSH2 0x180 PUSH1 0x60 DUP5 ADD MSTORE PUSH2 0x2447 PUSH2 0x1A0 DUP5 ADD DUP3 PUSH2 0x1EFD JUMP JUMPDEST SWAP1 POP PUSH1 0x60 DUP5 ADD MLOAD PUSH1 0x1F NOT DUP5 DUP4 SUB ADD PUSH1 0x80 DUP6 ADD MSTORE PUSH2 0x2464 DUP3 DUP3 PUSH2 0x1EFD JUMP JUMPDEST SWAP2 POP POP PUSH1 0x80 DUP5 ADD MLOAD PUSH1 0xA0 DUP5 ADD MSTORE PUSH1 0x1 DUP1 PUSH1 0xA0 SHL SUB PUSH1 0xA0 DUP6 ADD MLOAD AND PUSH1 0xC0 DUP5 ADD MSTORE PUSH1 0xC0 DUP5 ADD MLOAD PUSH2 0x2496 PUSH1 0xE0 DUP6 ADD DUP3 ISZERO ISZERO SWAP1 MSTORE JUMP JUMPDEST POP PUSH1 0xE0 DUP5 ADD MLOAD DUP1 MLOAD PUSH1 0xFF SWAP1 DUP2 AND PUSH2 0x100 DUP7 ADD MSTORE PUSH1 0x20 DUP3 ADD MLOAD DUP2 AND PUSH2 0x120 DUP7 ADD MSTORE PUSH1 0x40 DUP3 ADD MLOAD DUP2 AND PUSH2 0x140 DUP7 ADD MSTORE PUSH1 0x60 DUP3 ADD MLOAD DUP2 AND PUSH2 0x160 DUP7 ADD MSTORE PUSH1 0x80 DUP3 ADD MLOAD AND PUSH2 0x180 DUP6 ADD MSTORE PUSH2 0x11F4 JUMP JUMPDEST PUSH1 0x20 DUP1 DUP3 MSTORE DUP3 MLOAD DUP3 DUP3 ADD DUP2 SWAP1 MSTORE PUSH1 0x0 SWAP2 SWAP1 DUP5 DUP3 ADD SWAP1 PUSH1 0x40 DUP6 ADD SWAP1 DUP5 JUMPDEST DUP2 DUP2 LT ISZERO PUSH2 0x2519 JUMPI DUP4 MLOAD DUP4 MSTORE SWAP3 DUP5 ADD SWAP3 SWAP2 DUP5 ADD SWAP2 PUSH1 0x1 ADD PUSH2 0x24FD JUMP JUMPDEST POP SWAP1 SWAP7 SWAP6 POP POP POP POP POP POP JUMP JUMPDEST PUSH1 0x0 PUSH1 0xA0 DUP3 DUP5 SUB SLT ISZERO PUSH2 0x2537 JUMPI PUSH1 0x0 DUP1 REVERT JUMPDEST PUSH2 0x1EB9 DUP4 DUP4 PUSH2 0x21EC JUMP JUMPDEST PUSH1 0x20 DUP1 DUP3 MSTORE PUSH1 0x13 SWAP1 DUP3 ADD MSTORE PUSH19 0x125B9D985B1A59081C1C9BDC1BDCD85B081251 PUSH1 0x6A SHL PUSH1 0x40 DUP3 ADD MSTORE PUSH1 0x60 ADD SWAP1 JUMP JUMPDEST PUSH1 0x1 DUP2 DUP2 SHR SWAP1 DUP3 AND DUP1 PUSH2 0x2582 JUMPI PUSH1 0x7F DUP3 AND SWAP2 POP JUMPDEST PUSH1 0x20 DUP3 LT DUP2 SUB PUSH2 0x118C JUMPI PUSH4 0x4E487B71 PUSH1 0xE0 SHL PUSH1 0x0 MSTORE PUSH1 0x22 PUSH1 0x4 MSTORE PUSH1 0x24 PUSH1 0x0 REVERT JUMPDEST PUSH1 0x20 DUP1 DUP3 MSTORE PUSH1 0x14 SWAP1 DUP3 ADD MSTORE PUSH20 0x14D8DBDC9948191BD95CC81B9BDD08195E1A5CDD PUSH1 0x62 SHL PUSH1 0x40 DUP3 ADD MSTORE PUSH1 0x60 ADD SWAP1 JUMP JUMPDEST PUSH4 0x4E487B71 PUSH1 0xE0 SHL PUSH1 0x0 MSTORE PUSH1 0x11 PUSH1 0x4 MSTORE PUSH1 0x24 PUSH1 0x0 REVERT JUMPDEST DUP1 DUP3 ADD DUP1 DUP3 GT ISZERO PUSH2 0x66A JUMPI PUSH2 0x66A PUSH2 0x25D0 JUMP JUMPDEST PUSH1 0x1F DUP3 GT ISZERO PUSH2 0xA4E JUMPI PUSH1 0x0 DUP2 DUP2 MSTORE PUSH1 0x20 DUP2 KECCAK256 PUSH1 0x1F DUP6 ADD PUSH1 0x5 SHR DUP2 ADD PUSH1 0x20 DUP7 LT ISZERO PUSH2 0x2620 JUMPI POP DUP1 JUMPDEST PUSH1 0x1F DUP6 ADD PUSH1 0x5 SHR DUP3 ADD SWAP2 POP JUMPDEST DUP2 DUP2 LT ISZERO PUSH2 0x263F JUMPI DUP3 DUP2 SSTORE PUSH1 0x1 ADD PUSH2 0x262C JUMP JUMPDEST POP POP POP POP POP POP JUMP JUMPDEST DUP2 MLOAD PUSH8 0xFFFFFFFFFFFFFFFF DUP2 GT ISZERO PUSH2 0x2661 JUMPI PUSH2 0x2661 PUSH2 0x1F54 JUMP JUMPDEST PUSH2 0x2675 DUP2 PUSH2 0x266F DUP5 SLOAD PUSH2 0x256E JUMP JUMPDEST DUP5 PUSH2 0x25F9 JUMP JUMPDEST PUSH1 0x20 DUP1 PUSH1 0x1F DUP4 GT PUSH1 0x1 DUP2 EQ PUSH2 0x26AA JUMPI PUSH1 0x0 DUP5 ISZERO PUSH2 0x2692 JUMPI POP DUP6 DUP4 ADD MLOAD JUMPDEST PUSH1 0x0 NOT PUSH1 0x3 DUP7 SWAP1 SHL SHR NOT AND PUSH1 0x1 DUP6 SWAP1 SHL OR DUP6 SSTORE PUSH2 0x263F JUMP JUMPDEST PUSH1 0x0 DUP6 DUP2 MSTORE PUSH1 0x20 DUP2 KECCAK256 PUSH1 0x1F NOT DUP7 AND SWAP2 JUMPDEST DUP3 DUP2 LT ISZERO PUSH2 0x26D9 JUMPI DUP9 DUP7 ADD MLOAD DUP3 SSTORE SWAP5 DUP5 ADD SWAP5 PUSH1 0x1 SWAP1 SWAP2 ADD SWAP1 DUP5 ADD PUSH2 0x26BA JUMP JUMPDEST POP DUP6 DUP3 LT ISZERO PUSH2 0x26F7 JUMPI DUP8 DUP6 ADD MLOAD PUSH1 0x0 NOT PUSH1 0x3 DUP9 SWAP1 SHL PUSH1 0xF8 AND SHR NOT AND DUP2 SSTORE JUMPDEST POP POP POP POP POP PUSH1 0x1 SWAP1 DUP2 SHL ADD SWAP1 SSTORE POP JUMP JUMPDEST DUP3 DUP2 MSTORE PUSH1 0x40 PUSH1 0x20 DUP3 ADD MSTORE PUSH1 0x0 PUSH2 0x20B7 PUSH1 0x40 DUP4 ADD DUP5 PUSH2 0x1EFD JUMP JUMPDEST PUSH4 0x4E487B71 PUSH1 0xE0 SHL PUSH1 0x0 MSTORE PUSH1 0x32 PUSH1 0x4 MSTORE PUSH1 0x24 PUSH1 0x0 REVERT JUMPDEST PUSH1 0x0 PUSH1 0x1 DUP3 ADD PUSH2 0x2748 JUMPI PUSH2 0x2748 PUSH2 0x25D0 JUMP JUMPDEST POP PUSH1 0x1 ADD SWAP1 JUMP JUMPDEST PUSH1 0x0 DUP3 MLOAD PUSH2 0x2761 DUP2 DUP5 PUSH1 0x20 DUP8 ADD PUSH2 0x1ED9 JUMP JUMPDEST SWAP2 SWAP1 SWAP2 ADD SWAP3 SWAP2 POP POP JUMP JUMPDEST PUSH1 0xFF DUP2 DUP2 AND DUP4 DUP3 AND MUL SWAP1 DUP2 AND SWAP1 DUP2 DUP2 EQ PUSH2 0x2787 JUMPI PUSH2 0x2787 PUSH2 0x25D0 JUMP JUMPDEST POP SWAP3 SWAP2 POP POP JUMP JUMPDEST PUSH1 0xFF DUP2 DUP2 AND DUP4 DUP3 AND ADD SWAP1 DUP2 GT ISZERO PUSH2 0x66A JUMPI PUSH2 0x66A PUSH2 0x25D0 JUMP JUMPDEST PUSH1 0x0 PUSH1 0xFF DUP4 AND DUP1 PUSH2 0x27C8 JUMPI PUSH4 0x4E487B71 PUSH1 0xE0 SHL PUSH1 0x0 MSTORE PUSH1 0x12 PUSH1 0x4 MSTORE PUSH1 0x24 PUSH1 0x0 REVERT JUMPDEST DUP1 PUSH1 0xFF DUP5 AND DIV SWAP2 POP POP SWAP3 SWAP2 POP POP JUMP JUMPDEST DUP2 DUP2 SUB DUP2 DUP2 GT ISZERO PUSH2 0x66A JUMPI PUSH2 0x66A PUSH2 0x25D0 JUMP JUMPDEST DUP5 DUP2 MSTORE PUSH1 0x80 PUSH1 0x20 DUP3 ADD MSTORE PUSH1 0x0 PUSH2 0x2803 PUSH1 0x80 DUP4 ADD DUP7 PUSH2 0x1EFD JUMP JUMPDEST DUP3 DUP2 SUB PUSH1 0x40 DUP5 ADD MSTORE PUSH2 0x2815 DUP2 DUP7 PUSH2 0x1EFD JUMP JUMPDEST SWAP2 POP POP DUP3 PUSH1 0x60 DUP4 ADD MSTORE SWAP6 SWAP5 POP POP POP POP POP JUMP JUMPDEST PUSH1 0x0 DUP2 PUSH2 0x2836 JUMPI PUSH2 0x2836 PUSH2 0x25D0 JUMP JUMPDEST POP PUSH1 0x0 NOT ADD SWAP1 JUMP JUMPDEST PUSH1 0x40 DUP2 MSTORE PUSH1 0x0 PUSH2 0x2851 PUSH1 0x40 DUP4 ADD DUP6 PUSH2 0x1EFD JUMP JUMPDEST SWAP1 POP DUP3 ISZERO ISZERO PUSH1 0x20 DUP4 ADD MSTORE SWAP4 SWAP3 POP POP POP JUMP INVALID BASEFEE 0x26 BASEFEE 0xE7 DUP8 DUP15 SWAP16 0xA5 0x4C EXP 0x2F PUSH8 0xFFD22D00EBC37CF7 LOG0 RETURNDATACOPY MOD 0xE TIMESTAMP DUP14 0x2A 0xB0 0xCD PUSH8 0x35CCA49807205CE4 0xD3 SSTORE MULMOD 0x2E CREATE2 0xA8 LOG1 DUP16 JUMP 0xE8 SWAP2 EXTCODECOPY DELEGATECALL LOG2 ADD 0xFB 0xE2 DUP8 DUP3 JUMPDEST MULMOD JUMP SWAP4 0xC2 OR PUSH22 0xA26469706673582212202827ECD50A525CD6B10675F9 DUP5 SWAP14 0xDB LOG1 SDIV BASEFEE 0xDB 0xEB 0x2E SWAP13 0xD4 DUP14 RETURNDATACOPY SWAP4 0xB2 SWAP5 0xC5 PUSH2 0x7382 PUSH5 0x736F6C6343 STOP ADDMOD EQ STOP CALLER "
				},
				"gasEstimates": {
					"creation": {
						"codeDepositCost": "2091200",
						"executionCost": "infinite",
						"totalCost": "infinite"
					},
					"external": {
						"ADMIN_ROLE()": "infinite",
						"AI_ORACLE_ROLE()": "infinite",
						"DEFAULT_ADMIN_ROLE()": "240",
						"DISPUTE_RESOLVER_ROLE()": "240",
						"MAX_SCORE()": "308",
						"MILESTONE_APPROVER_ROLE()": "329",
						"MIN_SCORE()": "263",
						"SCORE_VALIDITY_PERIOD()": "262",
						"TREASURY_MANAGER_ROLE()": "283",
						"authorizedOracles(address)": "2565",
						"getAIScore(uint256)": "infinite",
						"getAllRoles()": "infinite",
						"getDetailedAIScore(uint256)": "infinite",
						"getOracleStats(address)": "4837",
						"getRoleAdmin(bytes32)": "2538",
						"getRoleCount(address)": "infinite",
						"getScoringBreakdown(uint256)": "5335",
						"grantMultipleRoles(address,bytes32[])": "infinite",
						"grantRole(bytes32,address)": "infinite",
						"hasAIScore(uint256)": "2628",
						"hasAnyRole(address,bytes32[])": "infinite",
						"hasRole(bytes32,address)": "2741",
						"oracleScoreCount(address)": "2630",
						"pause()": "infinite",
						"paused()": "2427",
						"removeScore(uint256,string)": "infinite",
						"renounceRole(bytes32,address)": "29135",
						"revokeMultipleRoles(address,bytes32[])": "infinite",
						"revokeRole(bytes32,address)": "infinite",
						"scoringWeights()": "2594",
						"setOracleAuthorization(address,bool)": "infinite",
						"setSupportedModel(string,bool)": "infinite",
						"submitAIScore(uint256,uint256,string,string,(uint8,uint8,uint8,uint8,uint8))": "infinite",
						"supportedModels(string)": "infinite",
						"supportsInterface(bytes4)": "473",
						"totalScoresSubmitted()": "2429",
						"unpause()": "infinite",
						"updateAIScore(uint256,uint256,string,string)": "infinite",
						"updateScoringCriteria((uint8,uint8,uint8,uint8,uint8))": "infinite"
					}
				},
				"methodIdentifiers": {
					"ADMIN_ROLE()": "75b238fc",
					"AI_ORACLE_ROLE()": "c601f7af",
					"DEFAULT_ADMIN_ROLE()": "a217fddf",
					"DISPUTE_RESOLVER_ROLE()": "bfe42a37",
					"MAX_SCORE()": "27ff6223",
					"MILESTONE_APPROVER_ROLE()": "a02d72fb",
					"MIN_SCORE()": "40b89270",
					"SCORE_VALIDITY_PERIOD()": "a91ad18e",
					"TREASURY_MANAGER_ROLE()": "ebdf690f",
					"authorizedOracles(address)": "61c992a3",
					"getAIScore(uint256)": "0311b82d",
					"getAllRoles()": "f2bcac3d",
					"getDetailedAIScore(uint256)": "ea535940",
					"getOracleStats(address)": "c772a8a6",
					"getRoleAdmin(bytes32)": "248a9ca3",
					"getRoleCount(address)": "aca5a8a7",
					"getScoringBreakdown(uint256)": "cfe85a2f",
					"grantMultipleRoles(address,bytes32[])": "91b9f9d8",
					"grantRole(bytes32,address)": "2f2ff15d",
					"hasAIScore(uint256)": "96caac0a",
					"hasAnyRole(address,bytes32[])": "68ca78f9",
					"hasRole(bytes32,address)": "91d14854",
					"oracleScoreCount(address)": "7131f025",
					"pause()": "8456cb59",
					"paused()": "5c975abb",
					"removeScore(uint256,string)": "b8a956d3",
					"renounceRole(bytes32,address)": "36568abe",
					"revokeMultipleRoles(address,bytes32[])": "4fe9d1f5",
					"revokeRole(bytes32,address)": "d547741f",
					"scoringWeights()": "4da89fbd",
					"setOracleAuthorization(address,bool)": "d5c1a1e1",
					"setSupportedModel(string,bool)": "ba340773",
					"submitAIScore(uint256,uint256,string,string,(uint8,uint8,uint8,uint8,uint8))": "7092b0bc",
					"supportedModels(string)": "2ed49cf7",
					"supportsInterface(bytes4)": "01ffc9a7",
					"totalScoresSubmitted()": "3a1e017f",
					"unpause()": "3f4ba83a",
					"updateAIScore(uint256,uint256,string,string)": "2b116373",
					"updateScoringCriteria((uint8,uint8,uint8,uint8,uint8))": "ff8dea01"
				}
			},
			"storageLayout": {
				"storage": [
					{
						"astId": 27,
						"contract": "CrossFi-Treasury-Guard/contracts/AIScoreRegistry.sol:AIScoreRegistry",
						"label": "_roles",
						"offset": 0,
						"slot": "0",
						"type": "t_mapping(t_bytes32,t_struct(RoleData)22_storage)"
					},
					{
						"astId": 397,
						"contract": "CrossFi-Treasury-Guard/contracts/AIScoreRegistry.sol:AIScoreRegistry",
						"label": "_paused",
						"offset": 0,
						"slot": "1",
						"type": "t_bool"
					},
					{
						"astId": 498,
						"contract": "CrossFi-Treasury-Guard/contracts/AIScoreRegistry.sol:AIScoreRegistry",
						"label": "_status",
						"offset": 0,
						"slot": "2",
						"type": "t_uint256"
					},
					{
						"astId": 667,
						"contract": "CrossFi-Treasury-Guard/contracts/AIScoreRegistry.sol:AIScoreRegistry",
						"label": "aiScores",
						"offset": 0,
						"slot": "3",
						"type": "t_mapping(t_uint256,t_struct(AIScoreData)662_storage)"
					},
					{
						"astId": 671,
						"contract": "CrossFi-Treasury-Guard/contracts/AIScoreRegistry.sol:AIScoreRegistry",
						"label": "authorizedOracles",
						"offset": 0,
						"slot": "4",
						"type": "t_mapping(t_address,t_bool)"
					},
					{
						"astId": 675,
						"contract": "CrossFi-Treasury-Guard/contracts/AIScoreRegistry.sol:AIScoreRegistry",
						"label": "supportedModels",
						"offset": 0,
						"slot": "5",
						"type": "t_mapping(t_string_memory_ptr,t_bool)"
					},
					{
						"astId": 678,
						"contract": "CrossFi-Treasury-Guard/contracts/AIScoreRegistry.sol:AIScoreRegistry",
						"label": "scoringWeights",
						"offset": 0,
						"slot": "6",
						"type": "t_struct(ScoringCriteria)644_storage"
					},
					{
						"astId": 689,
						"contract": "CrossFi-Treasury-Guard/contracts/AIScoreRegistry.sol:AIScoreRegistry",
						"label": "totalScoresSubmitted",
						"offset": 0,
						"slot": "7",
						"type": "t_uint256"
					},
					{
						"astId": 693,
						"contract": "CrossFi-Treasury-Guard/contracts/AIScoreRegistry.sol:AIScoreRegistry",
						"label": "oracleScoreCount",
						"offset": 0,
						"slot": "8",
						"type": "t_mapping(t_address,t_uint256)"
					}
				],
				"types": {
					"t_address": {
						"encoding": "inplace",
						"label": "address",
						"numberOfBytes": "20"
					},
					"t_bool": {
						"encoding": "inplace",
						"label": "bool",
						"numberOfBytes": "1"
					},
					"t_bytes32": {
						"encoding": "inplace",
						"label": "bytes32",
						"numberOfBytes": "32"
					},
					"t_mapping(t_address,t_bool)": {
						"encoding": "mapping",
						"key": "t_address",
						"label": "mapping(address => bool)",
						"numberOfBytes": "32",
						"value": "t_bool"
					},
					"t_mapping(t_address,t_uint256)": {
						"encoding": "mapping",
						"key": "t_address",
						"label": "mapping(address => uint256)",
						"numberOfBytes": "32",
						"value": "t_uint256"
					},
					"t_mapping(t_bytes32,t_struct(RoleData)22_storage)": {
						"encoding": "mapping",
						"key": "t_bytes32",
						"label": "mapping(bytes32 => struct AccessControl.RoleData)",
						"numberOfBytes": "32",
						"value": "t_struct(RoleData)22_storage"
					},
					"t_mapping(t_string_memory_ptr,t_bool)": {
						"encoding": "mapping",
						"key": "t_string_memory_ptr",
						"label": "mapping(string => bool)",
						"numberOfBytes": "32",
						"value": "t_bool"
					},
					"t_mapping(t_uint256,t_struct(AIScoreData)662_storage)": {
						"encoding": "mapping",
						"key": "t_uint256",
						"label": "mapping(uint256 => struct AIScoreRegistry.AIScoreData)",
						"numberOfBytes": "32",
						"value": "t_struct(AIScoreData)662_storage"
					},
					"t_string_memory_ptr": {
						"encoding": "bytes",
						"label": "string",
						"numberOfBytes": "32"
					},
					"t_string_storage": {
						"encoding": "bytes",
						"label": "string",
						"numberOfBytes": "32"
					},
					"t_struct(AIScoreData)662_storage": {
						"encoding": "inplace",
						"label": "struct AIScoreRegistry.AIScoreData",
						"members": [
							{
								"astId": 646,
								"contract": "CrossFi-Treasury-Guard/contracts/AIScoreRegistry.sol:AIScoreRegistry",
								"label": "proposalId",
								"offset": 0,
								"slot": "0",
								"type": "t_uint256"
							},
							{
								"astId": 648,
								"contract": "CrossFi-Treasury-Guard/contracts/AIScoreRegistry.sol:AIScoreRegistry",
								"label": "overallScore",
								"offset": 0,
								"slot": "1",
								"type": "t_uint256"
							},
							{
								"astId": 650,
								"contract": "CrossFi-Treasury-Guard/contracts/AIScoreRegistry.sol:AIScoreRegistry",
								"label": "justificationIPFS",
								"offset": 0,
								"slot": "2",
								"type": "t_string_storage"
							},
							{
								"astId": 652,
								"contract": "CrossFi-Treasury-Guard/contracts/AIScoreRegistry.sol:AIScoreRegistry",
								"label": "modelVersion",
								"offset": 0,
								"slot": "3",
								"type": "t_string_storage"
							},
							{
								"astId": 654,
								"contract": "CrossFi-Treasury-Guard/contracts/AIScoreRegistry.sol:AIScoreRegistry",
								"label": "timestamp",
								"offset": 0,
								"slot": "4",
								"type": "t_uint256"
							},
							{
								"astId": 656,
								"contract": "CrossFi-Treasury-Guard/contracts/AIScoreRegistry.sol:AIScoreRegistry",
								"label": "oracle",
								"offset": 0,
								"slot": "5",
								"type": "t_address"
							},
							{
								"astId": 658,
								"contract": "CrossFi-Treasury-Guard/contracts/AIScoreRegistry.sol:AIScoreRegistry",
								"label": "exists",
								"offset": 20,
								"slot": "5",
								"type": "t_bool"
							},
							{
								"astId": 661,
								"contract": "CrossFi-Treasury-Guard/contracts/AIScoreRegistry.sol:AIScoreRegistry",
								"label": "breakdown",
								"offset": 0,
								"slot": "6",
								"type": "t_struct(ScoringBreakdown)1394_storage"
							}
						],
						"numberOfBytes": "224"
					},
					"t_struct(RoleData)22_storage": {
						"encoding": "inplace",
						"label": "struct AccessControl.RoleData",
						"members": [
							{
								"astId": 19,
								"contract": "CrossFi-Treasury-Guard/contracts/AIScoreRegistry.sol:AIScoreRegistry",
								"label": "hasRole",
								"offset": 0,
								"slot": "0",
								"type": "t_mapping(t_address,t_bool)"
							},
							{
								"astId": 21,
								"contract": "CrossFi-Treasury-Guard/contracts/AIScoreRegistry.sol:AIScoreRegistry",
								"label": "adminRole",
								"offset": 0,
								"slot": "1",
								"type": "t_bytes32"
							}
						],
						"numberOfBytes": "64"
					},
					"t_struct(ScoringBreakdown)1394_storage": {
						"encoding": "inplace",
						"label": "struct IAIScoreRegistry.ScoringBreakdown",
						"members": [
							{
								"astId": 1385,
								"contract": "CrossFi-Treasury-Guard/contracts/AIScoreRegistry.sol:AIScoreRegistry",
								"label": "ecosystemScore",
								"offset": 0,
								"slot": "0",
								"type": "t_uint8"
							},
							{
								"astId": 1387,
								"contract": "CrossFi-Treasury-Guard/contracts/AIScoreRegistry.sol:AIScoreRegistry",
								"label": "feasibilityScore",
								"offset": 1,
								"slot": "0",
								"type": "t_uint8"
							},
							{
								"astId": 1389,
								"contract": "CrossFi-Treasury-Guard/contracts/AIScoreRegistry.sol:AIScoreRegistry",
								"label": "riskScore",
								"offset": 2,
								"slot": "0",
								"type": "t_uint8"
							},
							{
								"astId": 1391,
								"contract": "CrossFi-Treasury-Guard/contracts/AIScoreRegistry.sol:AIScoreRegistry",
								"label": "teamScore",
								"offset": 3,
								"slot": "0",
								"type": "t_uint8"
							},
							{
								"astId": 1393,
								"contract": "CrossFi-Treasury-Guard/contracts/AIScoreRegistry.sol:AIScoreRegistry",
								"label": "innovationScore",
								"offset": 4,
								"slot": "0",
								"type": "t_uint8"
							}
						],
						"numberOfBytes": "32"
					},
					"t_struct(ScoringCriteria)644_storage": {
						"encoding": "inplace",
						"label": "struct AIScoreRegistry.ScoringCriteria",
						"members": [
							{
								"astId": 635,
								"contract": "CrossFi-Treasury-Guard/contracts/AIScoreRegistry.sol:AIScoreRegistry",
								"label": "ecosystemContribution",
								"offset": 0,
								"slot": "0",
								"type": "t_uint8"
							},
							{
								"astId": 637,
								"contract": "CrossFi-Treasury-Guard/contracts/AIScoreRegistry.sol:AIScoreRegistry",
								"label": "feasibility",
								"offset": 1,
								"slot": "0",
								"type": "t_uint8"
							},
							{
								"astId": 639,
								"contract": "CrossFi-Treasury-Guard/contracts/AIScoreRegistry.sol:AIScoreRegistry",
								"label": "riskAssessment",
								"offset": 2,
								"slot": "0",
								"type": "t_uint8"
							},
							{
								"astId": 641,
								"contract": "CrossFi-Treasury-Guard/contracts/AIScoreRegistry.sol:AIScoreRegistry",
								"label": "teamReputation",
								"offset": 3,
								"slot": "0",
								"type": "t_uint8"
							},
							{
								"astId": 643,
								"contract": "CrossFi-Treasury-Guard/contracts/AIScoreRegistry.sol:AIScoreRegistry",
								"label": "innovation",
								"offset": 4,
								"slot": "0",
								"type": "t_uint8"
							}
						],
						"numberOfBytes": "32"
					},
					"t_uint256": {
						"encoding": "inplace",
						"label": "uint256",
						"numberOfBytes": "32"
					},
					"t_uint8": {
						"encoding": "inplace",
						"label": "uint8",
						"numberOfBytes": "1"
					}
				}
			},
			"userdoc": {
				"kind": "user",
				"methods": {},
				"version": 1
			}
		}
	}
}