{
	"CrossFi-Treasury-Guard/contracts/utils/ExtendedAccessControl.sol": {
		"ExtendedAccessControl": {
			"abi": [
				{
					"inputs": [],
					"stateMutability": "nonpayable",
					"type": "constructor"
				},
				{
					"inputs": [],
					"name": "AccessControlBadConfirmation",
					"type": "error"
				},
				{
					"inputs": [
						{
							"internalType": "address",
							"name": "account",
							"type": "address"
						},
						{
							"internalType": "bytes32",
							"name": "neededRole",
							"type": "bytes32"
						}
					],
					"name": "AccessControlUnauthorizedAccount",
					"type": "error"
				},
				{
					"anonymous": false,
					"inputs": [
						{
							"indexed": true,
							"internalType": "bytes32",
							"name": "role",
							"type": "bytes32"
						},
						{
							"indexed": true,
							"internalType": "bytes32",
							"name": "previousAdminRole",
							"type": "bytes32"
						},
						{
							"indexed": true,
							"internalType": "bytes32",
							"name": "newAdminRole",
							"type": "bytes32"
						}
					],
					"name": "RoleAdminChanged",
					"type": "event"
				},
				{
					"anonymous": false,
					"inputs": [
						{
							"indexed": true,
							"internalType": "bytes32",
							"name": "role",
							"type": "bytes32"
						},
						{
							"indexed": true,
							"internalType": "address",
							"name": "account",
							"type": "address"
						},
						{
							"indexed": true,
							"internalType": "address",
							"name": "sender",
							"type": "address"
						}
					],
					"name": "RoleGranted",
					"type": "event"
				},
				{
					"anonymous": false,
					"inputs": [
						{
							"indexed": true,
							"internalType": "bytes32",
							"name": "role",
							"type": "bytes32"
						},
						{
							"indexed": true,
							"internalType": "address",
							"name": "account",
							"type": "address"
						},
						{
							"indexed": true,
							"internalType": "address",
							"name": "sender",
							"type": "address"
						}
					],
					"name": "RoleRevoked",
					"type": "event"
				},
				{
					"inputs": [],
					"name": "ADMIN_ROLE",
					"outputs": [
						{
							"internalType": "bytes32",
							"name": "",
							"type": "bytes32"
						}
					],
					"stateMutability": "view",
					"type": "function"
				},
				{
					"inputs": [],
					"name": "AI_ORACLE_ROLE",
					"outputs": [
						{
							"internalType": "bytes32",
							"name": "",
							"type": "bytes32"
						}
					],
					"stateMutability": "view",
					"type": "function"
				},
				{
					"inputs": [],
					"name": "DEFAULT_ADMIN_ROLE",
					"outputs": [
						{
							"internalType": "bytes32",
							"name": "",
							"type": "bytes32"
						}
					],
					"stateMutability": "view",
					"type": "function"
				},
				{
					"inputs": [],
					"name": "DISPUTE_RESOLVER_ROLE",
					"outputs": [
						{
							"internalType": "bytes32",
							"name": "",
							"type": "bytes32"
						}
					],
					"stateMutability": "view",
					"type": "function"
				},
				{
					"inputs": [],
					"name": "MILESTONE_APPROVER_ROLE",
					"outputs": [
						{
							"internalType": "bytes32",
							"name": "",
							"type": "bytes32"
						}
					],
					"stateMutability": "view",
					"type": "function"
				},
				{
					"inputs": [],
					"name": "TREASURY_MANAGER_ROLE",
					"outputs": [
						{
							"internalType": "bytes32",
							"name": "",
							"type": "bytes32"
						}
					],
					"stateMutability": "view",
					"type": "function"
				},
				{
					"inputs": [],
					"name": "getAllRoles",
					"outputs": [
						{
							"internalType": "bytes32[]",
							"name": "roles",
							"type": "bytes32[]"
						}
					],
					"stateMutability": "pure",
					"type": "function"
				},
				{
					"inputs": [
						{
							"internalType": "bytes32",
							"name": "role",
							"type": "bytes32"
						}
					],
					"name": "getRoleAdmin",
					"outputs": [
						{
							"internalType": "bytes32",
							"name": "",
							"type": "bytes32"
						}
					],
					"stateMutability": "view",
					"type": "function"
				},
				{
					"inputs": [
						{
							"internalType": "address",
							"name": "account",
							"type": "address"
						}
					],
					"name": "getRoleCount",
					"outputs": [
						{
							"internalType": "uint256",
							"name": "roleCount",
							"type": "uint256"
						}
					],
					"stateMutability": "view",
					"type": "function"
				},
				{
					"inputs": [
						{
							"internalType": "address",
							"name": "account",
							"type": "address"
						},
						{
							"internalType": "bytes32[]",
							"name": "roles",
							"type": "bytes32[]"
						}
					],
					"name": "grantMultipleRoles",
					"outputs": [],
					"stateMutability": "nonpayable",
					"type": "function"
				},
				{
					"inputs": [
						{
							"internalType": "bytes32",
							"name": "role",
							"type": "bytes32"
						},
						{
							"internalType": "address",
							"name": "account",
							"type": "address"
						}
					],
					"name": "grantRole",
					"outputs": [],
					"stateMutability": "nonpayable",
					"type": "function"
				},
				{
					"inputs": [
						{
							"internalType": "address",
							"name": "account",
							"type": "address"
						},
						{
							"internalType": "bytes32[]",
							"name": "roles",
							"type": "bytes32[]"
						}
					],
					"name": "hasAnyRole",
					"outputs": [
						{
							"internalType": "bool",
							"name": "",
							"type": "bool"
						}
					],
					"stateMutability": "view",
					"type": "function"
				},
				{
					"inputs": [
						{
							"internalType": "bytes32",
							"name": "role",
							"type": "bytes32"
						},
						{
							"internalType": "address",
							"name": "account",
							"type": "address"
						}
					],
					"name": "hasRole",
					"outputs": [
						{
							"internalType": "bool",
							"name": "",
							"type": "bool"
						}
					],
					"stateMutability": "view",
					"type": "function"
				},
				{
					"inputs": [
						{
							"internalType": "bytes32",
							"name": "role",
							"type": "bytes32"
						},
						{
							"internalType": "address",
							"name": "callerConfirmation",
							"type": "address"
						}
					],
					"name": "renounceRole",
					"outputs": [],
					"stateMutability": "nonpayable",
					"type": "function"
				},
				{
					"inputs": [
						{
							"internalType": "address",
							"name": "account",
							"type": "address"
						},
						{
							"internalType": "bytes32[]",
							"name": "roles",
							"type": "bytes32[]"
						}
					],
					"name": "revokeMultipleRoles",
					"outputs": [],
					"stateMutability": "nonpayable",
					"type": "function"
				},
				{
					"inputs": [
						{
							"internalType": "bytes32",
							"name": "role",
							"type": "bytes32"
						},
						{
							"internalType": "address",
							"name": "account",
							"type": "address"
						}
					],
					"name": "revokeRole",
					"outputs": [],
					"stateMutability": "nonpayable",
					"type": "function"
				},
				{
					"inputs": [
						{
							"internalType": "bytes4",
							"name": "interfaceId",
							"type": "bytes4"
						}
					],
					"name": "supportsInterface",
					"outputs": [
						{
							"internalType": "bool",
							"name": "",
							"type": "bool"
						}
					],
					"stateMutability": "view",
					"type": "function"
				}
			],
			"devdoc": {
				"details": "Extended access control with custom roles for CrossFi Treasury Guard",
				"errors": {
					"AccessControlBadConfirmation()": [
						{
							"details": "The caller of a function is not the expected one. NOTE: Don't confuse with {AccessControlUnauthorizedAccount}."
						}
					],
					"AccessControlUnauthorizedAccount(address,bytes32)": [
						{
							"details": "The `account` is missing a role."
						}
					]
				},
				"events": {
					"RoleAdminChanged(bytes32,bytes32,bytes32)": {
						"details": "Emitted when `newAdminRole` is set as ``role``'s admin role, replacing `previousAdminRole` `DEFAULT_ADMIN_ROLE` is the starting admin for all roles, despite {RoleAdminChanged} not being emitted to signal this."
					},
					"RoleGranted(bytes32,address,address)": {
						"details": "Emitted when `account` is granted `role`. `sender` is the account that originated the contract call. This account bears the admin role (for the granted role). Expected in cases where the role was granted using the internal {AccessControl-_grantRole}."
					},
					"RoleRevoked(bytes32,address,address)": {
						"details": "Emitted when `account` is revoked `role`. `sender` is the account that originated the contract call:   - if using `revokeRole`, it is the admin role bearer   - if using `renounceRole`, it is the role bearer (i.e. `account`)"
					}
				},
				"kind": "dev",
				"methods": {
					"getAllRoles()": {
						"details": "Get all available roles",
						"returns": {
							"roles": "Array of all role identifiers"
						}
					},
					"getRoleAdmin(bytes32)": {
						"details": "Returns the admin role that controls `role`. See {grantRole} and {revokeRole}. To change a role's admin, use {_setRoleAdmin}."
					},
					"getRoleCount(address)": {
						"details": "Get all roles for an account",
						"params": {
							"account": "Account to check"
						},
						"returns": {
							"roleCount": "Number of roles the account has"
						}
					},
					"grantMultipleRoles(address,bytes32[])": {
						"details": "Grant multiple roles to an account",
						"params": {
							"account": "Account to grant roles to",
							"roles": "Array of role identifiers"
						}
					},
					"grantRole(bytes32,address)": {
						"details": "Grants `role` to `account`. If `account` had not been already granted `role`, emits a {RoleGranted} event. Requirements: - the caller must have ``role``'s admin role. May emit a {RoleGranted} event."
					},
					"hasAnyRole(address,bytes32[])": {
						"details": "Check if account has any of the specified roles",
						"params": {
							"account": "Account to check",
							"roles": "Array of role identifiers"
						},
						"returns": {
							"_0": "hasAnyRole True if account has at least one of the roles"
						}
					},
					"hasRole(bytes32,address)": {
						"details": "Returns `true` if `account` has been granted `role`."
					},
					"renounceRole(bytes32,address)": {
						"details": "Revokes `role` from the calling account. Roles are often managed via {grantRole} and {revokeRole}: this function's purpose is to provide a mechanism for accounts to lose their privileges if they are compromised (such as when a trusted device is misplaced). If the calling account had been revoked `role`, emits a {RoleRevoked} event. Requirements: - the caller must be `callerConfirmation`. May emit a {RoleRevoked} event."
					},
					"revokeMultipleRoles(address,bytes32[])": {
						"details": "Revoke multiple roles from an account",
						"params": {
							"account": "Account to revoke roles from",
							"roles": "Array of role identifiers"
						}
					},
					"revokeRole(bytes32,address)": {
						"details": "Revokes `role` from `account`. If `account` had been granted `role`, emits a {RoleRevoked} event. Requirements: - the caller must have ``role``'s admin role. May emit a {RoleRevoked} event."
					},
					"supportsInterface(bytes4)": {
						"details": "Returns true if this contract implements the interface defined by `interfaceId`. See the corresponding https://eips.ethereum.org/EIPS/eip-165#how-interfaces-are-identified[ERC section] to learn more about how these ids are created. This function call must use less than 30 000 gas."
					}
				},
				"title": "AccessControl",
				"version": 1
			},
			"evm": {
				"assembly": "    /* \"CrossFi-Treasury-Guard/contracts/utils/ExtendedAccessControl.sol\":227:3089  contract ExtendedAccessControl is AccessControl {... */\n  mstore(0x40, 0x80)\n    /* \"CrossFi-Treasury-Guard/contracts/utils/ExtendedAccessControl.sol\":719:793  constructor() {... */\n  callvalue\n  dup1\n  iszero\n  tag_1\n  jumpi\n  0x00\n  dup1\n  revert\ntag_1:\n  pop\n    /* \"CrossFi-Treasury-Guard/contracts/utils/ExtendedAccessControl.sol\":744:786  _grantRole(DEFAULT_ADMIN_ROLE, msg.sender) */\n  tag_4\n    /* \"@openzeppelin/contracts/access/AccessControl.sol\":2241:2245  0x00 */\n  0x00\n    /* \"CrossFi-Treasury-Guard/contracts/utils/ExtendedAccessControl.sol\":775:785  msg.sender */\n  caller\n    /* \"CrossFi-Treasury-Guard/contracts/utils/ExtendedAccessControl.sol\":744:754  _grantRole */\n  tag_5\n    /* \"CrossFi-Treasury-Guard/contracts/utils/ExtendedAccessControl.sol\":744:786  _grantRole(DEFAULT_ADMIN_ROLE, msg.sender) */\n  jump\t// in\ntag_4:\n  pop\n    /* \"CrossFi-Treasury-Guard/contracts/utils/ExtendedAccessControl.sol\":227:3089  contract ExtendedAccessControl is AccessControl {... */\n  jump(tag_6)\n    /* \"@openzeppelin/contracts/access/AccessControl.sol\":6155:6471  function _grantRole(bytes32 role, address account) internal virtual returns (bool) {... */\ntag_5:\n    /* \"@openzeppelin/contracts/access/AccessControl.sol\":6232:6236  bool */\n  0x00\n    /* \"@openzeppelin/contracts/access/AccessControl.sol\":2930:2942  _roles[role] */\n  dup3\n  dup2\n  mstore\n  0x20\n  dup2\n  dup2\n  mstore\n  0x40\n  dup1\n  dup4\n  keccak256\n  sub(shl(0xa0, 0x01), 0x01)\n    /* \"@openzeppelin/contracts/access/AccessControl.sol\":2930:2959  _roles[role].hasRole[account] */\n  dup6\n  and\n  dup5\n  mstore\n  swap1\n  swap2\n  mstore\n  dup2\n  keccak256\n  sload\n  0xff\n  and\n    /* \"@openzeppelin/contracts/access/AccessControl.sol\":6248:6465  if (!hasRole(role, account)) {... */\n  tag_10\n  jumpi\n    /* \"@openzeppelin/contracts/access/AccessControl.sol\":6291:6297  _roles */\n  0x00\n    /* \"@openzeppelin/contracts/access/AccessControl.sol\":6291:6303  _roles[role] */\n  dup4\n  dup2\n  mstore\n  0x20\n  dup2\n  dup2\n  mstore\n  0x40\n  dup1\n  dup4\n  keccak256\n  sub(shl(0xa0, 0x01), 0x01)\n    /* \"@openzeppelin/contracts/access/AccessControl.sol\":6291:6320  _roles[role].hasRole[account] */\n  dup7\n  and\n  dup5\n  mstore\n  swap1\n  swap2\n  mstore\n  swap1\n  keccak256\n    /* \"@openzeppelin/contracts/access/AccessControl.sol\":6291:6327  _roles[role].hasRole[account] = true */\n  dup1\n  sload\n  not(0xff)\n  and\n    /* \"@openzeppelin/contracts/access/AccessControl.sol\":6323:6327  true */\n  0x01\n    /* \"@openzeppelin/contracts/access/AccessControl.sol\":6291:6327  _roles[role].hasRole[account] = true */\n  or\n  swap1\n  sstore\n    /* \"@openzeppelin/contracts/access/AccessControl.sol\":6373:6385  _msgSender() */\n  tag_11\n    /* \"@openzeppelin/contracts/utils/Context.sol\":735:745  msg.sender */\n  caller\n  swap1\n    /* \"@openzeppelin/contracts/utils/Context.sol\":656:752  function _msgSender() internal view virtual returns (address) {... */\n  jump\n    /* \"@openzeppelin/contracts/access/AccessControl.sol\":6373:6385  _msgSender() */\ntag_11:\n  sub(shl(0xa0, 0x01), 0x01)\n    /* \"@openzeppelin/contracts/access/AccessControl.sol\":6346:6386  RoleGranted(role, account, _msgSender()) */\n  and\n    /* \"@openzeppelin/contracts/access/AccessControl.sol\":6364:6371  account */\n  dup3\n  sub(shl(0xa0, 0x01), 0x01)\n    /* \"@openzeppelin/contracts/access/AccessControl.sol\":6346:6386  RoleGranted(role, account, _msgSender()) */\n  and\n    /* \"@openzeppelin/contracts/access/AccessControl.sol\":6358:6362  role */\n  dup5\n    /* \"@openzeppelin/contracts/access/AccessControl.sol\":6346:6386  RoleGranted(role, account, _msgSender()) */\n  0x2f8788117e7eff1d82e926ec794901d17c78024a50270940304540a733656f0d\n  mload(0x40)\n  mload(0x40)\n  dup1\n  swap2\n  sub\n  swap1\n  log4\n  pop\n    /* \"@openzeppelin/contracts/access/AccessControl.sol\":6407:6411  true */\n  0x01\n    /* \"@openzeppelin/contracts/access/AccessControl.sol\":6400:6411  return true */\n  jump(tag_13)\n    /* \"@openzeppelin/contracts/access/AccessControl.sol\":6248:6465  if (!hasRole(role, account)) {... */\ntag_10:\n  pop\n    /* \"@openzeppelin/contracts/access/AccessControl.sol\":6449:6454  false */\n  0x00\n    /* \"@openzeppelin/contracts/access/AccessControl.sol\":6248:6465  if (!hasRole(role, account)) {... */\ntag_13:\n    /* \"@openzeppelin/contracts/access/AccessControl.sol\":6155:6471  function _grantRole(bytes32 role, address account) internal virtual returns (bool) {... */\n  swap3\n  swap2\n  pop\n  pop\n  jump\t// out\n    /* \"CrossFi-Treasury-Guard/contracts/utils/ExtendedAccessControl.sol\":227:3089  contract ExtendedAccessControl is AccessControl {... */\ntag_6:\n  dataSize(sub_0)\n  dup1\n  dataOffset(sub_0)\n  0x00\n  codecopy\n  0x00\n  return\nstop\n\nsub_0: assembly {\n        /* \"CrossFi-Treasury-Guard/contracts/utils/ExtendedAccessControl.sol\":227:3089  contract ExtendedAccessControl is AccessControl {... */\n      mstore(0x40, 0x80)\n      callvalue\n      dup1\n      iszero\n      tag_1\n      jumpi\n      0x00\n      dup1\n      revert\n    tag_1:\n      pop\n      jumpi(tag_2, lt(calldatasize, 0x04))\n      shr(0xe0, calldataload(0x00))\n      dup1\n      0x91d14854\n      gt\n      tag_20\n      jumpi\n      dup1\n      0xbfe42a37\n      gt\n      tag_21\n      jumpi\n      dup1\n      0xbfe42a37\n      eq\n      tag_15\n      jumpi\n      dup1\n      0xc601f7af\n      eq\n      tag_16\n      jumpi\n      dup1\n      0xd547741f\n      eq\n      tag_17\n      jumpi\n      dup1\n      0xebdf690f\n      eq\n      tag_18\n      jumpi\n      dup1\n      0xf2bcac3d\n      eq\n      tag_19\n      jumpi\n      0x00\n      dup1\n      revert\n    tag_21:\n      dup1\n      0x91d14854\n      eq\n      tag_11\n      jumpi\n      dup1\n      0xa02d72fb\n      eq\n      tag_12\n      jumpi\n      dup1\n      0xa217fddf\n      eq\n      tag_13\n      jumpi\n      dup1\n      0xaca5a8a7\n      eq\n      tag_14\n      jumpi\n      0x00\n      dup1\n      revert\n    tag_20:\n      dup1\n      0x4fe9d1f5\n      gt\n      tag_22\n      jumpi\n      dup1\n      0x4fe9d1f5\n      eq\n      tag_7\n      jumpi\n      dup1\n      0x68ca78f9\n      eq\n      tag_8\n      jumpi\n      dup1\n      0x75b238fc\n      eq\n      tag_9\n      jumpi\n      dup1\n      0x91b9f9d8\n      eq\n      tag_10\n      jumpi\n      0x00\n      dup1\n      revert\n    tag_22:\n      dup1\n      0x01ffc9a7\n      eq\n      tag_3\n      jumpi\n      dup1\n      0x248a9ca3\n      eq\n      tag_4\n      jumpi\n      dup1\n      0x2f2ff15d\n      eq\n      tag_5\n      jumpi\n      dup1\n      0x36568abe\n      eq\n      tag_6\n      jumpi\n    tag_2:\n      0x00\n      dup1\n      revert\n        /* \"@openzeppelin/contracts/access/AccessControl.sol\":2541:2743  function supportsInterface(bytes4 interfaceId) public view virtual override returns (bool) {... */\n    tag_3:\n      tag_23\n      tag_24\n      calldatasize\n      0x04\n      tag_25\n      jump\t// in\n    tag_24:\n      tag_26\n      jump\t// in\n    tag_23:\n      mload(0x40)\n        /* \"#utility.yul\":470:484   */\n      swap1\n      iszero\n        /* \"#utility.yul\":463:485   */\n      iszero\n        /* \"#utility.yul\":445:486   */\n      dup2\n      mstore\n        /* \"#utility.yul\":433:435   */\n      0x20\n        /* \"#utility.yul\":418:436   */\n      add\n        /* \"@openzeppelin/contracts/access/AccessControl.sol\":2541:2743  function supportsInterface(bytes4 interfaceId) public view virtual override returns (bool) {... */\n    tag_27:\n      mload(0x40)\n      dup1\n      swap2\n      sub\n      swap1\n      return\n        /* \"@openzeppelin/contracts/access/AccessControl.sol\":3786:3906  function getRoleAdmin(bytes32 role) public view virtual returns (bytes32) {... */\n    tag_4:\n      tag_29\n      tag_30\n      calldatasize\n      0x04\n      tag_31\n      jump\t// in\n    tag_30:\n        /* \"@openzeppelin/contracts/access/AccessControl.sol\":3851:3858  bytes32 */\n      0x00\n        /* \"@openzeppelin/contracts/access/AccessControl.sol\":3877:3889  _roles[role] */\n      swap1\n      dup2\n      mstore\n      0x20\n      dup2\n      swap1\n      mstore\n      0x40\n      swap1\n      keccak256\n        /* \"@openzeppelin/contracts/access/AccessControl.sol\":3877:3899  _roles[role].adminRole */\n      0x01\n      add\n      sload\n      swap1\n        /* \"@openzeppelin/contracts/access/AccessControl.sol\":3786:3906  function getRoleAdmin(bytes32 role) public view virtual returns (bytes32) {... */\n      jump\n    tag_29:\n      mload(0x40)\n        /* \"#utility.yul\":828:853   */\n      swap1\n      dup2\n      mstore\n        /* \"#utility.yul\":816:818   */\n      0x20\n        /* \"#utility.yul\":801:819   */\n      add\n        /* \"@openzeppelin/contracts/access/AccessControl.sol\":3786:3906  function getRoleAdmin(bytes32 role) public view virtual returns (bytes32) {... */\n      tag_27\n        /* \"#utility.yul\":682:859   */\n      jump\n        /* \"@openzeppelin/contracts/access/AccessControl.sol\":4202:4338  function grantRole(bytes32 role, address account) public virtual onlyRole(getRoleAdmin(role)) {... */\n    tag_5:\n      tag_35\n      tag_36\n      calldatasize\n      0x04\n      tag_37\n      jump\t// in\n    tag_36:\n      tag_38\n      jump\t// in\n    tag_35:\n      stop\n        /* \"@openzeppelin/contracts/access/AccessControl.sol\":5304:5549  function renounceRole(bytes32 role, address callerConfirmation) public virtual {... */\n    tag_6:\n      tag_35\n      tag_40\n      calldatasize\n      0x04\n      tag_37\n      jump\t// in\n    tag_40:\n      tag_41\n      jump\t// in\n        /* \"CrossFi-Treasury-Guard/contracts/utils/ExtendedAccessControl.sol\":1352:1573  function revokeMultipleRoles(address account, bytes32[] memory roles) external onlyRole(DEFAULT_ADMIN_ROLE) {... */\n    tag_7:\n      tag_35\n      tag_43\n      calldatasize\n      0x04\n      tag_44\n      jump\t// in\n    tag_43:\n      tag_45\n      jump\t// in\n        /* \"CrossFi-Treasury-Guard/contracts/utils/ExtendedAccessControl.sol\":1816:2087  function hasAnyRole(address account, bytes32[] memory roles) external view returns (bool) {... */\n    tag_8:\n      tag_23\n      tag_47\n      calldatasize\n      0x04\n      tag_44\n      jump\t// in\n    tag_47:\n      tag_48\n      jump\t// in\n        /* \"CrossFi-Treasury-Guard/contracts/utils/ExtendedAccessControl.sol\":306:366  bytes32 public constant ADMIN_ROLE = keccak256(\"ADMIN_ROLE\") */\n    tag_9:\n      tag_29\n        /* \"CrossFi-Treasury-Guard/contracts/utils/ExtendedAccessControl.sol\":343:366  keccak256(\"ADMIN_ROLE\") */\n      0xa49807205ce4d355092ef5a8a18f56e8913cf4a201fbe287825b095693c21775\n        /* \"CrossFi-Treasury-Guard/contracts/utils/ExtendedAccessControl.sol\":306:366  bytes32 public constant ADMIN_ROLE = keccak256(\"ADMIN_ROLE\") */\n      dup2\n      jump\n        /* \"CrossFi-Treasury-Guard/contracts/utils/ExtendedAccessControl.sol\":960:1179  function grantMultipleRoles(address account, bytes32[] memory roles) external onlyRole(DEFAULT_ADMIN_ROLE) {... */\n    tag_10:\n      tag_35\n      tag_54\n      calldatasize\n      0x04\n      tag_44\n      jump\t// in\n    tag_54:\n      tag_55\n      jump\t// in\n        /* \"@openzeppelin/contracts/access/AccessControl.sol\":2830:2966  function hasRole(bytes32 role, address account) public view virtual returns (bool) {... */\n    tag_11:\n      tag_23\n      tag_57\n      calldatasize\n      0x04\n      tag_37\n      jump\t// in\n    tag_57:\n      tag_58\n      jump\t// in\n        /* \"CrossFi-Treasury-Guard/contracts/utils/ExtendedAccessControl.sol\":534:620  bytes32 public constant MILESTONE_APPROVER_ROLE = keccak256(\"MILESTONE_APPROVER_ROLE\") */\n    tag_12:\n      tag_29\n        /* \"CrossFi-Treasury-Guard/contracts/utils/ExtendedAccessControl.sol\":584:620  keccak256(\"MILESTONE_APPROVER_ROLE\") */\n      0x58223cdfb69946630d837d40b5c366a584f0217ada7fddd8318f2e08603cfa22\n        /* \"CrossFi-Treasury-Guard/contracts/utils/ExtendedAccessControl.sol\":534:620  bytes32 public constant MILESTONE_APPROVER_ROLE = keccak256(\"MILESTONE_APPROVER_ROLE\") */\n      dup2\n      jump\n        /* \"@openzeppelin/contracts/access/AccessControl.sol\":2196:2245  bytes32 public constant DEFAULT_ADMIN_ROLE = 0x00 */\n    tag_13:\n      tag_29\n        /* \"@openzeppelin/contracts/access/AccessControl.sol\":2241:2245  0x00 */\n      0x00\n        /* \"@openzeppelin/contracts/access/AccessControl.sol\":2196:2245  bytes32 public constant DEFAULT_ADMIN_ROLE = 0x00 */\n      dup2\n      jump\n        /* \"CrossFi-Treasury-Guard/contracts/utils/ExtendedAccessControl.sol\":2250:2610  function getRoleCount(address account) external view returns (uint256 roleCount) {... */\n    tag_14:\n      tag_29\n      tag_67\n      calldatasize\n      0x04\n      tag_68\n      jump\t// in\n    tag_67:\n      tag_69\n      jump\t// in\n        /* \"CrossFi-Treasury-Guard/contracts/utils/ExtendedAccessControl.sol\":626:708  bytes32 public constant DISPUTE_RESOLVER_ROLE = keccak256(\"DISPUTE_RESOLVER_ROLE\") */\n    tag_15:\n      tag_29\n        /* \"CrossFi-Treasury-Guard/contracts/utils/ExtendedAccessControl.sol\":674:708  keccak256(\"DISPUTE_RESOLVER_ROLE\") */\n      0x7b8bb8356a3f32f5c111ff23f050d97f08988e0883529ea7bff3b918887a6e0e\n        /* \"CrossFi-Treasury-Guard/contracts/utils/ExtendedAccessControl.sol\":626:708  bytes32 public constant DISPUTE_RESOLVER_ROLE = keccak256(\"DISPUTE_RESOLVER_ROLE\") */\n      dup2\n      jump\n        /* \"CrossFi-Treasury-Guard/contracts/utils/ExtendedAccessControl.sol\":372:440  bytes32 public constant AI_ORACLE_ROLE = keccak256(\"AI_ORACLE_ROLE\") */\n    tag_16:\n      tag_29\n        /* \"CrossFi-Treasury-Guard/contracts/utils/ExtendedAccessControl.sol\":413:440  keccak256(\"AI_ORACLE_ROLE\") */\n      0x482648e7878e9fa54c0a2f67ffd22d00ebc37cf7a03e060e428d2ab0cd6735cc\n        /* \"CrossFi-Treasury-Guard/contracts/utils/ExtendedAccessControl.sol\":372:440  bytes32 public constant AI_ORACLE_ROLE = keccak256(\"AI_ORACLE_ROLE\") */\n      dup2\n      jump\n        /* \"@openzeppelin/contracts/access/AccessControl.sol\":4618:4756  function revokeRole(bytes32 role, address account) public virtual onlyRole(getRoleAdmin(role)) {... */\n    tag_17:\n      tag_35\n      tag_79\n      calldatasize\n      0x04\n      tag_37\n      jump\t// in\n    tag_79:\n      tag_80\n      jump\t// in\n        /* \"CrossFi-Treasury-Guard/contracts/utils/ExtendedAccessControl.sol\":446:528  bytes32 public constant TREASURY_MANAGER_ROLE = keccak256(\"TREASURY_MANAGER_ROLE\") */\n    tag_18:\n      tag_29\n        /* \"CrossFi-Treasury-Guard/contracts/utils/ExtendedAccessControl.sol\":494:528  keccak256(\"TREASURY_MANAGER_ROLE\") */\n      0xede9dcdb0ce99dc7cec9c7be9246ad08b37853683ad91569c187b647ddf5e21c\n        /* \"CrossFi-Treasury-Guard/contracts/utils/ExtendedAccessControl.sol\":446:528  bytes32 public constant TREASURY_MANAGER_ROLE = keccak256(\"TREASURY_MANAGER_ROLE\") */\n      dup2\n      jump\n        /* \"CrossFi-Treasury-Guard/contracts/utils/ExtendedAccessControl.sol\":2723:3087  function getAllRoles() public pure returns (bytes32[] memory roles) {... */\n    tag_19:\n      tag_84\n      tag_85\n      jump\t// in\n    tag_84:\n      mload(0x40)\n      tag_27\n      swap2\n      swap1\n      tag_87\n      jump\t// in\n        /* \"@openzeppelin/contracts/access/AccessControl.sol\":2541:2743  function supportsInterface(bytes4 interfaceId) public view virtual override returns (bool) {... */\n    tag_26:\n        /* \"@openzeppelin/contracts/access/AccessControl.sol\":2626:2630  bool */\n      0x00\n      not(sub(shl(0xe0, 0x01), 0x01))\n        /* \"@openzeppelin/contracts/access/AccessControl.sol\":2649:2696  interfaceId == type(IAccessControl).interfaceId */\n      dup3\n      and\n      shl(0xe0, 0x7965db0b)\n      eq\n      dup1\n        /* \"@openzeppelin/contracts/access/AccessControl.sol\":2649:2736  interfaceId == type(IAccessControl).interfaceId || super.supportsInterface(interfaceId) */\n      tag_90\n      jumpi\n      pop\n      shl(0xe0, 0x01ffc9a7)\n      not(sub(shl(0xe0, 0x01), 0x01))\n        /* \"@openzeppelin/contracts/utils/introspection/ERC165.sol\":829:869  interfaceId == type(IERC165).interfaceId */\n      dup4\n      and\n      eq\n        /* \"@openzeppelin/contracts/access/AccessControl.sol\":2700:2736  super.supportsInterface(interfaceId) */\n    tag_90:\n        /* \"@openzeppelin/contracts/access/AccessControl.sol\":2642:2736  return interfaceId == type(IAccessControl).interfaceId || super.supportsInterface(interfaceId) */\n      swap3\n        /* \"@openzeppelin/contracts/access/AccessControl.sol\":2541:2743  function supportsInterface(bytes4 interfaceId) public view virtual override returns (bool) {... */\n      swap2\n      pop\n      pop\n      jump\t// out\n        /* \"@openzeppelin/contracts/access/AccessControl.sol\":4202:4338  function grantRole(bytes32 role, address account) public virtual onlyRole(getRoleAdmin(role)) {... */\n    tag_38:\n        /* \"@openzeppelin/contracts/access/AccessControl.sol\":3851:3858  bytes32 */\n      0x00\n        /* \"@openzeppelin/contracts/access/AccessControl.sol\":3877:3889  _roles[role] */\n      dup3\n      dup2\n      mstore\n      0x20\n      dup2\n      swap1\n      mstore\n      0x40\n      swap1\n      keccak256\n        /* \"@openzeppelin/contracts/access/AccessControl.sol\":3877:3899  _roles[role].adminRole */\n      0x01\n      add\n      sload\n        /* \"@openzeppelin/contracts/access/AccessControl.sol\":2473:2489  _checkRole(role) */\n      tag_95\n        /* \"@openzeppelin/contracts/access/AccessControl.sol\":2484:2488  role */\n      dup2\n        /* \"@openzeppelin/contracts/access/AccessControl.sol\":2473:2483  _checkRole */\n      tag_96\n        /* \"@openzeppelin/contracts/access/AccessControl.sol\":2473:2489  _checkRole(role) */\n      jump\t// in\n    tag_95:\n        /* \"@openzeppelin/contracts/access/AccessControl.sol\":4306:4331  _grantRole(role, account) */\n      tag_98\n        /* \"@openzeppelin/contracts/access/AccessControl.sol\":4317:4321  role */\n      dup4\n        /* \"@openzeppelin/contracts/access/AccessControl.sol\":4323:4330  account */\n      dup4\n        /* \"@openzeppelin/contracts/access/AccessControl.sol\":4306:4316  _grantRole */\n      tag_99\n        /* \"@openzeppelin/contracts/access/AccessControl.sol\":4306:4331  _grantRole(role, account) */\n      jump\t// in\n    tag_98:\n      pop\n        /* \"@openzeppelin/contracts/access/AccessControl.sol\":4202:4338  function grantRole(bytes32 role, address account) public virtual onlyRole(getRoleAdmin(role)) {... */\n      pop\n      pop\n      pop\n      jump\t// out\n        /* \"@openzeppelin/contracts/access/AccessControl.sol\":5304:5549  function renounceRole(bytes32 role, address callerConfirmation) public virtual {... */\n    tag_41:\n      sub(shl(0xa0, 0x01), 0x01)\n        /* \"@openzeppelin/contracts/access/AccessControl.sol\":5397:5431  callerConfirmation != _msgSender() */\n      dup2\n      and\n        /* \"@openzeppelin/contracts/utils/Context.sol\":735:745  msg.sender */\n      caller\n        /* \"@openzeppelin/contracts/access/AccessControl.sol\":5397:5431  callerConfirmation != _msgSender() */\n      eq\n        /* \"@openzeppelin/contracts/access/AccessControl.sol\":5393:5495  if (callerConfirmation != _msgSender()) {... */\n      tag_103\n      jumpi\n        /* \"@openzeppelin/contracts/access/AccessControl.sol\":5454:5484  AccessControlBadConfirmation() */\n      mload(0x40)\n      shl(0xe1, 0x334bd919)\n      dup2\n      mstore\n      0x04\n      add\n      mload(0x40)\n      dup1\n      swap2\n      sub\n      swap1\n      revert\n        /* \"@openzeppelin/contracts/access/AccessControl.sol\":5393:5495  if (callerConfirmation != _msgSender()) {... */\n    tag_103:\n        /* \"@openzeppelin/contracts/access/AccessControl.sol\":5505:5542  _revokeRole(role, callerConfirmation) */\n      tag_104\n        /* \"@openzeppelin/contracts/access/AccessControl.sol\":5517:5521  role */\n      dup3\n        /* \"@openzeppelin/contracts/access/AccessControl.sol\":5523:5541  callerConfirmation */\n      dup3\n        /* \"@openzeppelin/contracts/access/AccessControl.sol\":5505:5516  _revokeRole */\n      tag_105\n        /* \"@openzeppelin/contracts/access/AccessControl.sol\":5505:5542  _revokeRole(role, callerConfirmation) */\n      jump\t// in\n    tag_104:\n      pop\n        /* \"@openzeppelin/contracts/access/AccessControl.sol\":5304:5549  function renounceRole(bytes32 role, address callerConfirmation) public virtual {... */\n      pop\n      pop\n      jump\t// out\n        /* \"CrossFi-Treasury-Guard/contracts/utils/ExtendedAccessControl.sol\":1352:1573  function revokeMultipleRoles(address account, bytes32[] memory roles) external onlyRole(DEFAULT_ADMIN_ROLE) {... */\n    tag_45:\n        /* \"@openzeppelin/contracts/access/AccessControl.sol\":2241:2245  0x00 */\n      0x00\n        /* \"@openzeppelin/contracts/access/AccessControl.sol\":2473:2489  _checkRole(role) */\n      tag_107\n        /* \"@openzeppelin/contracts/access/AccessControl.sol\":2241:2245  0x00 */\n      dup2\n        /* \"@openzeppelin/contracts/access/AccessControl.sol\":2473:2483  _checkRole */\n      tag_96\n        /* \"@openzeppelin/contracts/access/AccessControl.sol\":2473:2489  _checkRole(role) */\n      jump\t// in\n    tag_107:\n        /* \"CrossFi-Treasury-Guard/contracts/utils/ExtendedAccessControl.sol\":1475:1484  uint256 i */\n      0x00\n        /* \"CrossFi-Treasury-Guard/contracts/utils/ExtendedAccessControl.sol\":1470:1567  for (uint256 i = 0; i < roles.length; i++) {... */\n    tag_109:\n        /* \"CrossFi-Treasury-Guard/contracts/utils/ExtendedAccessControl.sol\":1494:1499  roles */\n      dup3\n        /* \"CrossFi-Treasury-Guard/contracts/utils/ExtendedAccessControl.sol\":1494:1506  roles.length */\n      mload\n        /* \"CrossFi-Treasury-Guard/contracts/utils/ExtendedAccessControl.sol\":1490:1491  i */\n      dup2\n        /* \"CrossFi-Treasury-Guard/contracts/utils/ExtendedAccessControl.sol\":1490:1506  i < roles.length */\n      lt\n        /* \"CrossFi-Treasury-Guard/contracts/utils/ExtendedAccessControl.sol\":1470:1567  for (uint256 i = 0; i < roles.length; i++) {... */\n      iszero\n      tag_98\n      jumpi\n        /* \"CrossFi-Treasury-Guard/contracts/utils/ExtendedAccessControl.sol\":1527:1556  revokeRole(roles[i], account) */\n      tag_112\n        /* \"CrossFi-Treasury-Guard/contracts/utils/ExtendedAccessControl.sol\":1538:1543  roles */\n      dup4\n        /* \"CrossFi-Treasury-Guard/contracts/utils/ExtendedAccessControl.sol\":1544:1545  i */\n      dup3\n        /* \"CrossFi-Treasury-Guard/contracts/utils/ExtendedAccessControl.sol\":1538:1546  roles[i] */\n      dup2\n      mload\n      dup2\n      lt\n      tag_114\n      jumpi\n      tag_114\n      tag_115\n      jump\t// in\n    tag_114:\n      0x20\n      mul\n      0x20\n      add\n      add\n      mload\n        /* \"CrossFi-Treasury-Guard/contracts/utils/ExtendedAccessControl.sol\":1548:1555  account */\n      dup6\n        /* \"CrossFi-Treasury-Guard/contracts/utils/ExtendedAccessControl.sol\":1527:1537  revokeRole */\n      tag_80\n        /* \"CrossFi-Treasury-Guard/contracts/utils/ExtendedAccessControl.sol\":1527:1556  revokeRole(roles[i], account) */\n      jump\t// in\n    tag_112:\n        /* \"CrossFi-Treasury-Guard/contracts/utils/ExtendedAccessControl.sol\":1508:1511  i++ */\n      dup1\n      tag_116\n      dup2\n      tag_117\n      jump\t// in\n    tag_116:\n      swap2\n      pop\n      pop\n        /* \"CrossFi-Treasury-Guard/contracts/utils/ExtendedAccessControl.sol\":1470:1567  for (uint256 i = 0; i < roles.length; i++) {... */\n      jump(tag_109)\n        /* \"CrossFi-Treasury-Guard/contracts/utils/ExtendedAccessControl.sol\":1816:2087  function hasAnyRole(address account, bytes32[] memory roles) external view returns (bool) {... */\n    tag_48:\n        /* \"CrossFi-Treasury-Guard/contracts/utils/ExtendedAccessControl.sol\":1900:1904  bool */\n      0x00\n      dup1\n        /* \"CrossFi-Treasury-Guard/contracts/utils/ExtendedAccessControl.sol\":1916:2059  for (uint256 i = 0; i < roles.length; i++) {... */\n    tag_119:\n        /* \"CrossFi-Treasury-Guard/contracts/utils/ExtendedAccessControl.sol\":1940:1945  roles */\n      dup3\n        /* \"CrossFi-Treasury-Guard/contracts/utils/ExtendedAccessControl.sol\":1940:1952  roles.length */\n      mload\n        /* \"CrossFi-Treasury-Guard/contracts/utils/ExtendedAccessControl.sol\":1936:1937  i */\n      dup2\n        /* \"CrossFi-Treasury-Guard/contracts/utils/ExtendedAccessControl.sol\":1936:1952  i < roles.length */\n      lt\n        /* \"CrossFi-Treasury-Guard/contracts/utils/ExtendedAccessControl.sol\":1916:2059  for (uint256 i = 0; i < roles.length; i++) {... */\n      iszero\n      tag_120\n      jumpi\n        /* \"CrossFi-Treasury-Guard/contracts/utils/ExtendedAccessControl.sol\":1977:2003  hasRole(roles[i], account) */\n      tag_122\n        /* \"CrossFi-Treasury-Guard/contracts/utils/ExtendedAccessControl.sol\":1985:1990  roles */\n      dup4\n        /* \"CrossFi-Treasury-Guard/contracts/utils/ExtendedAccessControl.sol\":1991:1992  i */\n      dup3\n        /* \"CrossFi-Treasury-Guard/contracts/utils/ExtendedAccessControl.sol\":1985:1993  roles[i] */\n      dup2\n      mload\n      dup2\n      lt\n      tag_124\n      jumpi\n      tag_124\n      tag_115\n      jump\t// in\n    tag_124:\n      0x20\n      mul\n      0x20\n      add\n      add\n      mload\n        /* \"CrossFi-Treasury-Guard/contracts/utils/ExtendedAccessControl.sol\":1995:2002  account */\n      dup6\n        /* \"CrossFi-Treasury-Guard/contracts/utils/ExtendedAccessControl.sol\":1977:1984  hasRole */\n      tag_58\n        /* \"CrossFi-Treasury-Guard/contracts/utils/ExtendedAccessControl.sol\":1977:2003  hasRole(roles[i], account) */\n      jump\t// in\n    tag_122:\n        /* \"CrossFi-Treasury-Guard/contracts/utils/ExtendedAccessControl.sol\":1973:2049  if (hasRole(roles[i], account)) {... */\n      iszero\n      tag_125\n      jumpi\n        /* \"CrossFi-Treasury-Guard/contracts/utils/ExtendedAccessControl.sol\":2030:2034  true */\n      0x01\n        /* \"CrossFi-Treasury-Guard/contracts/utils/ExtendedAccessControl.sol\":2023:2034  return true */\n      swap2\n      pop\n      pop\n      jump(tag_90)\n        /* \"CrossFi-Treasury-Guard/contracts/utils/ExtendedAccessControl.sol\":1973:2049  if (hasRole(roles[i], account)) {... */\n    tag_125:\n        /* \"CrossFi-Treasury-Guard/contracts/utils/ExtendedAccessControl.sol\":1954:1957  i++ */\n      dup1\n      tag_126\n      dup2\n      tag_117\n      jump\t// in\n    tag_126:\n      swap2\n      pop\n      pop\n        /* \"CrossFi-Treasury-Guard/contracts/utils/ExtendedAccessControl.sol\":1916:2059  for (uint256 i = 0; i < roles.length; i++) {... */\n      jump(tag_119)\n    tag_120:\n      pop\n        /* \"CrossFi-Treasury-Guard/contracts/utils/ExtendedAccessControl.sol\":2075:2080  false */\n      0x00\n      swap4\n        /* \"CrossFi-Treasury-Guard/contracts/utils/ExtendedAccessControl.sol\":1816:2087  function hasAnyRole(address account, bytes32[] memory roles) external view returns (bool) {... */\n      swap3\n      pop\n      pop\n      pop\n      jump\t// out\n        /* \"CrossFi-Treasury-Guard/contracts/utils/ExtendedAccessControl.sol\":960:1179  function grantMultipleRoles(address account, bytes32[] memory roles) external onlyRole(DEFAULT_ADMIN_ROLE) {... */\n    tag_55:\n        /* \"@openzeppelin/contracts/access/AccessControl.sol\":2241:2245  0x00 */\n      0x00\n        /* \"@openzeppelin/contracts/access/AccessControl.sol\":2473:2489  _checkRole(role) */\n      tag_128\n        /* \"@openzeppelin/contracts/access/AccessControl.sol\":2241:2245  0x00 */\n      dup2\n        /* \"@openzeppelin/contracts/access/AccessControl.sol\":2473:2483  _checkRole */\n      tag_96\n        /* \"@openzeppelin/contracts/access/AccessControl.sol\":2473:2489  _checkRole(role) */\n      jump\t// in\n    tag_128:\n        /* \"CrossFi-Treasury-Guard/contracts/utils/ExtendedAccessControl.sol\":1082:1091  uint256 i */\n      0x00\n        /* \"CrossFi-Treasury-Guard/contracts/utils/ExtendedAccessControl.sol\":1077:1173  for (uint256 i = 0; i < roles.length; i++) {... */\n    tag_130:\n        /* \"CrossFi-Treasury-Guard/contracts/utils/ExtendedAccessControl.sol\":1101:1106  roles */\n      dup3\n        /* \"CrossFi-Treasury-Guard/contracts/utils/ExtendedAccessControl.sol\":1101:1113  roles.length */\n      mload\n        /* \"CrossFi-Treasury-Guard/contracts/utils/ExtendedAccessControl.sol\":1097:1098  i */\n      dup2\n        /* \"CrossFi-Treasury-Guard/contracts/utils/ExtendedAccessControl.sol\":1097:1113  i < roles.length */\n      lt\n        /* \"CrossFi-Treasury-Guard/contracts/utils/ExtendedAccessControl.sol\":1077:1173  for (uint256 i = 0; i < roles.length; i++) {... */\n      iszero\n      tag_98\n      jumpi\n        /* \"CrossFi-Treasury-Guard/contracts/utils/ExtendedAccessControl.sol\":1134:1162  grantRole(roles[i], account) */\n      tag_133\n        /* \"CrossFi-Treasury-Guard/contracts/utils/ExtendedAccessControl.sol\":1144:1149  roles */\n      dup4\n        /* \"CrossFi-Treasury-Guard/contracts/utils/ExtendedAccessControl.sol\":1150:1151  i */\n      dup3\n        /* \"CrossFi-Treasury-Guard/contracts/utils/ExtendedAccessControl.sol\":1144:1152  roles[i] */\n      dup2\n      mload\n      dup2\n      lt\n      tag_135\n      jumpi\n      tag_135\n      tag_115\n      jump\t// in\n    tag_135:\n      0x20\n      mul\n      0x20\n      add\n      add\n      mload\n        /* \"CrossFi-Treasury-Guard/contracts/utils/ExtendedAccessControl.sol\":1154:1161  account */\n      dup6\n        /* \"CrossFi-Treasury-Guard/contracts/utils/ExtendedAccessControl.sol\":1134:1143  grantRole */\n      tag_38\n        /* \"CrossFi-Treasury-Guard/contracts/utils/ExtendedAccessControl.sol\":1134:1162  grantRole(roles[i], account) */\n      jump\t// in\n    tag_133:\n        /* \"CrossFi-Treasury-Guard/contracts/utils/ExtendedAccessControl.sol\":1115:1118  i++ */\n      dup1\n      tag_136\n      dup2\n      tag_117\n      jump\t// in\n    tag_136:\n      swap2\n      pop\n      pop\n        /* \"CrossFi-Treasury-Guard/contracts/utils/ExtendedAccessControl.sol\":1077:1173  for (uint256 i = 0; i < roles.length; i++) {... */\n      jump(tag_130)\n        /* \"@openzeppelin/contracts/access/AccessControl.sol\":2830:2966  function hasRole(bytes32 role, address account) public view virtual returns (bool) {... */\n    tag_58:\n        /* \"@openzeppelin/contracts/access/AccessControl.sol\":2907:2911  bool */\n      0x00\n        /* \"@openzeppelin/contracts/access/AccessControl.sol\":2930:2942  _roles[role] */\n      swap2\n      dup3\n      mstore\n      0x20\n      dup3\n      dup2\n      mstore\n      0x40\n      dup1\n      dup5\n      keccak256\n      sub(shl(0xa0, 0x01), 0x01)\n        /* \"@openzeppelin/contracts/access/AccessControl.sol\":2930:2959  _roles[role].hasRole[account] */\n      swap4\n      swap1\n      swap4\n      and\n      dup5\n      mstore\n      swap2\n      swap1\n      mstore\n      swap1\n      keccak256\n      sload\n      0xff\n      and\n      swap1\n        /* \"@openzeppelin/contracts/access/AccessControl.sol\":2830:2966  function hasRole(bytes32 role, address account) public view virtual returns (bool) {... */\n      jump\t// out\n        /* \"CrossFi-Treasury-Guard/contracts/utils/ExtendedAccessControl.sol\":2250:2610  function getRoleCount(address account) external view returns (uint256 roleCount) {... */\n    tag_69:\n        /* \"CrossFi-Treasury-Guard/contracts/utils/ExtendedAccessControl.sol\":2312:2329  uint256 roleCount */\n      0x00\n        /* \"CrossFi-Treasury-Guard/contracts/utils/ExtendedAccessControl.sol\":2341:2366  bytes32[] memory allRoles */\n      dup1\n        /* \"CrossFi-Treasury-Guard/contracts/utils/ExtendedAccessControl.sol\":2369:2382  getAllRoles() */\n      tag_139\n        /* \"CrossFi-Treasury-Guard/contracts/utils/ExtendedAccessControl.sol\":2369:2380  getAllRoles */\n      tag_85\n        /* \"CrossFi-Treasury-Guard/contracts/utils/ExtendedAccessControl.sol\":2369:2382  getAllRoles() */\n      jump\t// in\n    tag_139:\n        /* \"CrossFi-Treasury-Guard/contracts/utils/ExtendedAccessControl.sol\":2341:2382  bytes32[] memory allRoles = getAllRoles() */\n      swap1\n      pop\n        /* \"CrossFi-Treasury-Guard/contracts/utils/ExtendedAccessControl.sol\":2392:2405  uint256 count */\n      0x00\n        /* \"CrossFi-Treasury-Guard/contracts/utils/ExtendedAccessControl.sol\":2433:2442  uint256 i */\n      dup1\n        /* \"CrossFi-Treasury-Guard/contracts/utils/ExtendedAccessControl.sol\":2428:2573  for (uint256 i = 0; i < allRoles.length; i++) {... */\n    tag_140:\n        /* \"CrossFi-Treasury-Guard/contracts/utils/ExtendedAccessControl.sol\":2452:2460  allRoles */\n      dup3\n        /* \"CrossFi-Treasury-Guard/contracts/utils/ExtendedAccessControl.sol\":2452:2467  allRoles.length */\n      mload\n        /* \"CrossFi-Treasury-Guard/contracts/utils/ExtendedAccessControl.sol\":2448:2449  i */\n      dup2\n        /* \"CrossFi-Treasury-Guard/contracts/utils/ExtendedAccessControl.sol\":2448:2467  i < allRoles.length */\n      lt\n        /* \"CrossFi-Treasury-Guard/contracts/utils/ExtendedAccessControl.sol\":2428:2573  for (uint256 i = 0; i < allRoles.length; i++) {... */\n      iszero\n      tag_141\n      jumpi\n        /* \"CrossFi-Treasury-Guard/contracts/utils/ExtendedAccessControl.sol\":2492:2521  hasRole(allRoles[i], account) */\n      tag_143\n        /* \"CrossFi-Treasury-Guard/contracts/utils/ExtendedAccessControl.sol\":2500:2508  allRoles */\n      dup4\n        /* \"CrossFi-Treasury-Guard/contracts/utils/ExtendedAccessControl.sol\":2509:2510  i */\n      dup3\n        /* \"CrossFi-Treasury-Guard/contracts/utils/ExtendedAccessControl.sol\":2500:2511  allRoles[i] */\n      dup2\n      mload\n      dup2\n      lt\n      tag_145\n      jumpi\n      tag_145\n      tag_115\n      jump\t// in\n    tag_145:\n      0x20\n      mul\n      0x20\n      add\n      add\n      mload\n        /* \"CrossFi-Treasury-Guard/contracts/utils/ExtendedAccessControl.sol\":2513:2520  account */\n      dup7\n        /* \"CrossFi-Treasury-Guard/contracts/utils/ExtendedAccessControl.sol\":2492:2499  hasRole */\n      tag_58\n        /* \"CrossFi-Treasury-Guard/contracts/utils/ExtendedAccessControl.sol\":2492:2521  hasRole(allRoles[i], account) */\n      jump\t// in\n    tag_143:\n        /* \"CrossFi-Treasury-Guard/contracts/utils/ExtendedAccessControl.sol\":2488:2563  if (hasRole(allRoles[i], account)) {... */\n      iszero\n      tag_146\n      jumpi\n        /* \"CrossFi-Treasury-Guard/contracts/utils/ExtendedAccessControl.sol\":2541:2548  count++ */\n      dup2\n      tag_147\n      dup2\n      tag_117\n      jump\t// in\n    tag_147:\n      swap3\n      pop\n      pop\n        /* \"CrossFi-Treasury-Guard/contracts/utils/ExtendedAccessControl.sol\":2488:2563  if (hasRole(allRoles[i], account)) {... */\n    tag_146:\n        /* \"CrossFi-Treasury-Guard/contracts/utils/ExtendedAccessControl.sol\":2469:2472  i++ */\n      dup1\n      tag_148\n      dup2\n      tag_117\n      jump\t// in\n    tag_148:\n      swap2\n      pop\n      pop\n        /* \"CrossFi-Treasury-Guard/contracts/utils/ExtendedAccessControl.sol\":2428:2573  for (uint256 i = 0; i < allRoles.length; i++) {... */\n      jump(tag_140)\n    tag_141:\n      pop\n        /* \"CrossFi-Treasury-Guard/contracts/utils/ExtendedAccessControl.sol\":2598:2603  count */\n      swap4\n        /* \"CrossFi-Treasury-Guard/contracts/utils/ExtendedAccessControl.sol\":2250:2610  function getRoleCount(address account) external view returns (uint256 roleCount) {... */\n      swap3\n      pop\n      pop\n      pop\n      jump\t// out\n        /* \"@openzeppelin/contracts/access/AccessControl.sol\":4618:4756  function revokeRole(bytes32 role, address account) public virtual onlyRole(getRoleAdmin(role)) {... */\n    tag_80:\n        /* \"@openzeppelin/contracts/access/AccessControl.sol\":3851:3858  bytes32 */\n      0x00\n        /* \"@openzeppelin/contracts/access/AccessControl.sol\":3877:3889  _roles[role] */\n      dup3\n      dup2\n      mstore\n      0x20\n      dup2\n      swap1\n      mstore\n      0x40\n      swap1\n      keccak256\n        /* \"@openzeppelin/contracts/access/AccessControl.sol\":3877:3899  _roles[role].adminRole */\n      0x01\n      add\n      sload\n        /* \"@openzeppelin/contracts/access/AccessControl.sol\":2473:2489  _checkRole(role) */\n      tag_151\n        /* \"@openzeppelin/contracts/access/AccessControl.sol\":2484:2488  role */\n      dup2\n        /* \"@openzeppelin/contracts/access/AccessControl.sol\":2473:2483  _checkRole */\n      tag_96\n        /* \"@openzeppelin/contracts/access/AccessControl.sol\":2473:2489  _checkRole(role) */\n      jump\t// in\n    tag_151:\n        /* \"@openzeppelin/contracts/access/AccessControl.sol\":4723:4749  _revokeRole(role, account) */\n      tag_98\n        /* \"@openzeppelin/contracts/access/AccessControl.sol\":4735:4739  role */\n      dup4\n        /* \"@openzeppelin/contracts/access/AccessControl.sol\":4741:4748  account */\n      dup4\n        /* \"@openzeppelin/contracts/access/AccessControl.sol\":4723:4734  _revokeRole */\n      tag_105\n        /* \"@openzeppelin/contracts/access/AccessControl.sol\":4723:4749  _revokeRole(role, account) */\n      jump\t// in\n        /* \"CrossFi-Treasury-Guard/contracts/utils/ExtendedAccessControl.sol\":2723:3087  function getAllRoles() public pure returns (bytes32[] memory roles) {... */\n    tag_85:\n        /* \"CrossFi-Treasury-Guard/contracts/utils/ExtendedAccessControl.sol\":2809:2825  new bytes32[](6) */\n      0x40\n      dup1\n      mload\n        /* \"CrossFi-Treasury-Guard/contracts/utils/ExtendedAccessControl.sol\":2823:2824  6 */\n      0x06\n        /* \"CrossFi-Treasury-Guard/contracts/utils/ExtendedAccessControl.sol\":2809:2825  new bytes32[](6) */\n      dup1\n      dup3\n      mstore\n      0xe0\n      dup3\n      add\n      swap1\n      swap3\n      mstore\n        /* \"CrossFi-Treasury-Guard/contracts/utils/ExtendedAccessControl.sol\":2767:2789  bytes32[] memory roles */\n      0x60\n      swap2\n        /* \"CrossFi-Treasury-Guard/contracts/utils/ExtendedAccessControl.sol\":2809:2825  new bytes32[](6) */\n      0x20\n      dup3\n      add\n      0xc0\n      dup1\n      calldatasize\n      dup4\n      calldatacopy\n      add\n      swap1\n      pop\n      pop\n        /* \"CrossFi-Treasury-Guard/contracts/utils/ExtendedAccessControl.sol\":2801:2825  roles = new bytes32[](6) */\n      swap1\n      pop\n        /* \"@openzeppelin/contracts/access/AccessControl.sol\":2241:2245  0x00 */\n      0x00\n        /* \"CrossFi-Treasury-Guard/contracts/utils/ExtendedAccessControl.sol\":2846:2864  DEFAULT_ADMIN_ROLE */\n      dup1\n      shl\n        /* \"CrossFi-Treasury-Guard/contracts/utils/ExtendedAccessControl.sol\":2835:2840  roles */\n      dup2\n        /* \"CrossFi-Treasury-Guard/contracts/utils/ExtendedAccessControl.sol\":2841:2842  0 */\n      0x00\n        /* \"CrossFi-Treasury-Guard/contracts/utils/ExtendedAccessControl.sol\":2835:2843  roles[0] */\n      dup2\n      mload\n      dup2\n      lt\n      tag_160\n      jumpi\n      tag_160\n      tag_115\n      jump\t// in\n    tag_160:\n      0x20\n      mul\n      0x20\n      add\n      add\n        /* \"CrossFi-Treasury-Guard/contracts/utils/ExtendedAccessControl.sol\":2835:2864  roles[0] = DEFAULT_ADMIN_ROLE */\n      dup2\n      dup2\n      mstore\n      pop\n      pop\n        /* \"CrossFi-Treasury-Guard/contracts/utils/ExtendedAccessControl.sol\":343:366  keccak256(\"ADMIN_ROLE\") */\n      0xa49807205ce4d355092ef5a8a18f56e8913cf4a201fbe287825b095693c21775\n        /* \"CrossFi-Treasury-Guard/contracts/utils/ExtendedAccessControl.sol\":2874:2879  roles */\n      dup2\n        /* \"CrossFi-Treasury-Guard/contracts/utils/ExtendedAccessControl.sol\":2880:2881  1 */\n      0x01\n        /* \"CrossFi-Treasury-Guard/contracts/utils/ExtendedAccessControl.sol\":2874:2882  roles[1] */\n      dup2\n      mload\n      dup2\n      lt\n      tag_162\n      jumpi\n      tag_162\n      tag_115\n      jump\t// in\n    tag_162:\n      0x20\n      mul\n      0x20\n      add\n      add\n        /* \"CrossFi-Treasury-Guard/contracts/utils/ExtendedAccessControl.sol\":2874:2895  roles[1] = ADMIN_ROLE */\n      dup2\n      dup2\n      mstore\n      pop\n      pop\n        /* \"CrossFi-Treasury-Guard/contracts/utils/ExtendedAccessControl.sol\":413:440  keccak256(\"AI_ORACLE_ROLE\") */\n      0x482648e7878e9fa54c0a2f67ffd22d00ebc37cf7a03e060e428d2ab0cd6735cc\n        /* \"CrossFi-Treasury-Guard/contracts/utils/ExtendedAccessControl.sol\":2905:2910  roles */\n      dup2\n        /* \"CrossFi-Treasury-Guard/contracts/utils/ExtendedAccessControl.sol\":2911:2912  2 */\n      0x02\n        /* \"CrossFi-Treasury-Guard/contracts/utils/ExtendedAccessControl.sol\":2905:2913  roles[2] */\n      dup2\n      mload\n      dup2\n      lt\n      tag_164\n      jumpi\n      tag_164\n      tag_115\n      jump\t// in\n    tag_164:\n      0x20\n      mul\n      0x20\n      add\n      add\n        /* \"CrossFi-Treasury-Guard/contracts/utils/ExtendedAccessControl.sol\":2905:2930  roles[2] = AI_ORACLE_ROLE */\n      dup2\n      dup2\n      mstore\n      pop\n      pop\n        /* \"CrossFi-Treasury-Guard/contracts/utils/ExtendedAccessControl.sol\":494:528  keccak256(\"TREASURY_MANAGER_ROLE\") */\n      0xede9dcdb0ce99dc7cec9c7be9246ad08b37853683ad91569c187b647ddf5e21c\n        /* \"CrossFi-Treasury-Guard/contracts/utils/ExtendedAccessControl.sol\":2940:2945  roles */\n      dup2\n        /* \"CrossFi-Treasury-Guard/contracts/utils/ExtendedAccessControl.sol\":2946:2947  3 */\n      0x03\n        /* \"CrossFi-Treasury-Guard/contracts/utils/ExtendedAccessControl.sol\":2940:2948  roles[3] */\n      dup2\n      mload\n      dup2\n      lt\n      tag_166\n      jumpi\n      tag_166\n      tag_115\n      jump\t// in\n    tag_166:\n      0x20\n      mul\n      0x20\n      add\n      add\n        /* \"CrossFi-Treasury-Guard/contracts/utils/ExtendedAccessControl.sol\":2940:2972  roles[3] = TREASURY_MANAGER_ROLE */\n      dup2\n      dup2\n      mstore\n      pop\n      pop\n        /* \"CrossFi-Treasury-Guard/contracts/utils/ExtendedAccessControl.sol\":584:620  keccak256(\"MILESTONE_APPROVER_ROLE\") */\n      0x58223cdfb69946630d837d40b5c366a584f0217ada7fddd8318f2e08603cfa22\n        /* \"CrossFi-Treasury-Guard/contracts/utils/ExtendedAccessControl.sol\":2982:2987  roles */\n      dup2\n        /* \"CrossFi-Treasury-Guard/contracts/utils/ExtendedAccessControl.sol\":2988:2989  4 */\n      0x04\n        /* \"CrossFi-Treasury-Guard/contracts/utils/ExtendedAccessControl.sol\":2982:2990  roles[4] */\n      dup2\n      mload\n      dup2\n      lt\n      tag_168\n      jumpi\n      tag_168\n      tag_115\n      jump\t// in\n    tag_168:\n      0x20\n      mul\n      0x20\n      add\n      add\n        /* \"CrossFi-Treasury-Guard/contracts/utils/ExtendedAccessControl.sol\":2982:3016  roles[4] = MILESTONE_APPROVER_ROLE */\n      dup2\n      dup2\n      mstore\n      pop\n      pop\n        /* \"CrossFi-Treasury-Guard/contracts/utils/ExtendedAccessControl.sol\":674:708  keccak256(\"DISPUTE_RESOLVER_ROLE\") */\n      0x7b8bb8356a3f32f5c111ff23f050d97f08988e0883529ea7bff3b918887a6e0e\n        /* \"CrossFi-Treasury-Guard/contracts/utils/ExtendedAccessControl.sol\":3026:3031  roles */\n      dup2\n        /* \"CrossFi-Treasury-Guard/contracts/utils/ExtendedAccessControl.sol\":3032:3033  5 */\n      0x05\n        /* \"CrossFi-Treasury-Guard/contracts/utils/ExtendedAccessControl.sol\":3026:3034  roles[5] */\n      dup2\n      mload\n      dup2\n      lt\n      tag_170\n      jumpi\n      tag_170\n      tag_115\n      jump\t// in\n    tag_170:\n      0x20\n      mul\n      0x20\n      add\n      add\n        /* \"CrossFi-Treasury-Guard/contracts/utils/ExtendedAccessControl.sol\":3026:3058  roles[5] = DISPUTE_RESOLVER_ROLE */\n      dup2\n      dup2\n      mstore\n      pop\n      pop\n        /* \"CrossFi-Treasury-Guard/contracts/utils/ExtendedAccessControl.sol\":2723:3087  function getAllRoles() public pure returns (bytes32[] memory roles) {... */\n      swap1\n      jump\t// out\n        /* \"@openzeppelin/contracts/access/AccessControl.sol\":3175:3278  function _checkRole(bytes32 role) internal view virtual {... */\n    tag_96:\n        /* \"@openzeppelin/contracts/access/AccessControl.sol\":3241:3271  _checkRole(role, _msgSender()) */\n      tag_173\n        /* \"@openzeppelin/contracts/access/AccessControl.sol\":3252:3256  role */\n      dup2\n        /* \"@openzeppelin/contracts/utils/Context.sol\":735:745  msg.sender */\n      caller\n        /* \"@openzeppelin/contracts/access/AccessControl.sol\":3241:3251  _checkRole */\n      tag_175\n        /* \"@openzeppelin/contracts/access/AccessControl.sol\":3241:3271  _checkRole(role, _msgSender()) */\n      jump\t// in\n    tag_173:\n        /* \"@openzeppelin/contracts/access/AccessControl.sol\":3175:3278  function _checkRole(bytes32 role) internal view virtual {... */\n      pop\n      jump\t// out\n        /* \"@openzeppelin/contracts/access/AccessControl.sol\":6155:6471  function _grantRole(bytes32 role, address account) internal virtual returns (bool) {... */\n    tag_99:\n        /* \"@openzeppelin/contracts/access/AccessControl.sol\":6232:6236  bool */\n      0x00\n        /* \"@openzeppelin/contracts/access/AccessControl.sol\":6253:6275  hasRole(role, account) */\n      tag_177\n        /* \"@openzeppelin/contracts/access/AccessControl.sol\":6261:6265  role */\n      dup4\n        /* \"@openzeppelin/contracts/access/AccessControl.sol\":6267:6274  account */\n      dup4\n        /* \"@openzeppelin/contracts/access/AccessControl.sol\":6253:6260  hasRole */\n      tag_58\n        /* \"@openzeppelin/contracts/access/AccessControl.sol\":6253:6275  hasRole(role, account) */\n      jump\t// in\n    tag_177:\n        /* \"@openzeppelin/contracts/access/AccessControl.sol\":6248:6465  if (!hasRole(role, account)) {... */\n      tag_178\n      jumpi\n        /* \"@openzeppelin/contracts/access/AccessControl.sol\":6291:6297  _roles */\n      0x00\n        /* \"@openzeppelin/contracts/access/AccessControl.sol\":6291:6303  _roles[role] */\n      dup4\n      dup2\n      mstore\n      0x20\n      dup2\n      dup2\n      mstore\n      0x40\n      dup1\n      dup4\n      keccak256\n      sub(shl(0xa0, 0x01), 0x01)\n        /* \"@openzeppelin/contracts/access/AccessControl.sol\":6291:6320  _roles[role].hasRole[account] */\n      dup7\n      and\n      dup5\n      mstore\n      swap1\n      swap2\n      mstore\n      swap1\n      keccak256\n        /* \"@openzeppelin/contracts/access/AccessControl.sol\":6291:6327  _roles[role].hasRole[account] = true */\n      dup1\n      sload\n      not(0xff)\n      and\n        /* \"@openzeppelin/contracts/access/AccessControl.sol\":6323:6327  true */\n      0x01\n        /* \"@openzeppelin/contracts/access/AccessControl.sol\":6291:6327  _roles[role].hasRole[account] = true */\n      or\n      swap1\n      sstore\n        /* \"@openzeppelin/contracts/access/AccessControl.sol\":6373:6385  _msgSender() */\n      tag_179\n        /* \"@openzeppelin/contracts/utils/Context.sol\":735:745  msg.sender */\n      caller\n      swap1\n        /* \"@openzeppelin/contracts/utils/Context.sol\":656:752  function _msgSender() internal view virtual returns (address) {... */\n      jump\n        /* \"@openzeppelin/contracts/access/AccessControl.sol\":6373:6385  _msgSender() */\n    tag_179:\n      sub(shl(0xa0, 0x01), 0x01)\n        /* \"@openzeppelin/contracts/access/AccessControl.sol\":6346:6386  RoleGranted(role, account, _msgSender()) */\n      and\n        /* \"@openzeppelin/contracts/access/AccessControl.sol\":6364:6371  account */\n      dup3\n      sub(shl(0xa0, 0x01), 0x01)\n        /* \"@openzeppelin/contracts/access/AccessControl.sol\":6346:6386  RoleGranted(role, account, _msgSender()) */\n      and\n        /* \"@openzeppelin/contracts/access/AccessControl.sol\":6358:6362  role */\n      dup5\n        /* \"@openzeppelin/contracts/access/AccessControl.sol\":6346:6386  RoleGranted(role, account, _msgSender()) */\n      0x2f8788117e7eff1d82e926ec794901d17c78024a50270940304540a733656f0d\n      mload(0x40)\n      mload(0x40)\n      dup1\n      swap2\n      sub\n      swap1\n      log4\n      pop\n        /* \"@openzeppelin/contracts/access/AccessControl.sol\":6407:6411  true */\n      0x01\n        /* \"@openzeppelin/contracts/access/AccessControl.sol\":6400:6411  return true */\n      jump(tag_90)\n        /* \"@openzeppelin/contracts/access/AccessControl.sol\":6248:6465  if (!hasRole(role, account)) {... */\n    tag_178:\n      pop\n        /* \"@openzeppelin/contracts/access/AccessControl.sol\":6449:6454  false */\n      0x00\n        /* \"@openzeppelin/contracts/access/AccessControl.sol\":6442:6454  return false */\n      jump(tag_90)\n        /* \"@openzeppelin/contracts/access/AccessControl.sol\":6708:7025  function _revokeRole(bytes32 role, address account) internal virtual returns (bool) {... */\n    tag_105:\n        /* \"@openzeppelin/contracts/access/AccessControl.sol\":6786:6790  bool */\n      0x00\n        /* \"@openzeppelin/contracts/access/AccessControl.sol\":6806:6828  hasRole(role, account) */\n      tag_183\n        /* \"@openzeppelin/contracts/access/AccessControl.sol\":6814:6818  role */\n      dup4\n        /* \"@openzeppelin/contracts/access/AccessControl.sol\":6820:6827  account */\n      dup4\n        /* \"@openzeppelin/contracts/access/AccessControl.sol\":6806:6813  hasRole */\n      tag_58\n        /* \"@openzeppelin/contracts/access/AccessControl.sol\":6806:6828  hasRole(role, account) */\n      jump\t// in\n    tag_183:\n        /* \"@openzeppelin/contracts/access/AccessControl.sol\":6802:7019  if (hasRole(role, account)) {... */\n      iszero\n      tag_178\n      jumpi\n        /* \"@openzeppelin/contracts/access/AccessControl.sol\":6876:6881  false */\n      0x00\n        /* \"@openzeppelin/contracts/access/AccessControl.sol\":6844:6856  _roles[role] */\n      dup4\n      dup2\n      mstore\n      0x20\n      dup2\n      dup2\n      mstore\n      0x40\n      dup1\n      dup4\n      keccak256\n      sub(shl(0xa0, 0x01), 0x01)\n        /* \"@openzeppelin/contracts/access/AccessControl.sol\":6844:6873  _roles[role].hasRole[account] */\n      dup7\n      and\n      dup1\n      dup6\n      mstore\n      swap3\n      mstore\n      dup1\n      dup4\n      keccak256\n        /* \"@openzeppelin/contracts/access/AccessControl.sol\":6844:6881  _roles[role].hasRole[account] = false */\n      dup1\n      sload\n      not(0xff)\n      and\n      swap1\n      sstore\n        /* \"@openzeppelin/contracts/access/AccessControl.sol\":6900:6940  RoleRevoked(role, account, _msgSender()) */\n      mload\n        /* \"@openzeppelin/contracts/utils/Context.sol\":735:745  msg.sender */\n      caller\n      swap3\n        /* \"@openzeppelin/contracts/access/AccessControl.sol\":6844:6856  _roles[role] */\n      dup7\n      swap2\n        /* \"@openzeppelin/contracts/access/AccessControl.sol\":6900:6940  RoleRevoked(role, account, _msgSender()) */\n      0xf6391f5c32d9c69d2a47ea670b442974b53935d1edc7fd64eb21e047a839171b\n      swap2\n        /* \"@openzeppelin/contracts/access/AccessControl.sol\":6876:6881  false */\n      swap1\n        /* \"@openzeppelin/contracts/access/AccessControl.sol\":6900:6940  RoleRevoked(role, account, _msgSender()) */\n      log4\n      pop\n        /* \"@openzeppelin/contracts/access/AccessControl.sol\":6961:6965  true */\n      0x01\n        /* \"@openzeppelin/contracts/access/AccessControl.sol\":6954:6965  return true */\n      jump(tag_90)\n        /* \"@openzeppelin/contracts/access/AccessControl.sol\":3408:3605  function _checkRole(bytes32 role, address account) internal view virtual {... */\n    tag_175:\n        /* \"@openzeppelin/contracts/access/AccessControl.sol\":3496:3518  hasRole(role, account) */\n      tag_188\n        /* \"@openzeppelin/contracts/access/AccessControl.sol\":3504:3508  role */\n      dup3\n        /* \"@openzeppelin/contracts/access/AccessControl.sol\":3510:3517  account */\n      dup3\n        /* \"@openzeppelin/contracts/access/AccessControl.sol\":3496:3503  hasRole */\n      tag_58\n        /* \"@openzeppelin/contracts/access/AccessControl.sol\":3496:3518  hasRole(role, account) */\n      jump\t// in\n    tag_188:\n        /* \"@openzeppelin/contracts/access/AccessControl.sol\":3491:3599  if (!hasRole(role, account)) {... */\n      tag_189\n      jumpi\n        /* \"@openzeppelin/contracts/access/AccessControl.sol\":3541:3588  AccessControlUnauthorizedAccount(account, role) */\n      mload(0x40)\n      shl(0xe0, 0xe2517d3f)\n      dup2\n      mstore\n      sub(shl(0xa0, 0x01), 0x01)\n        /* \"#utility.yul\":4198:4230   */\n      dup3\n      and\n        /* \"@openzeppelin/contracts/access/AccessControl.sol\":3541:3588  AccessControlUnauthorizedAccount(account, role) */\n      0x04\n      dup3\n      add\n        /* \"#utility.yul\":4180:4231   */\n      mstore\n        /* \"#utility.yul\":4247:4265   */\n      0x24\n      dup2\n      add\n        /* \"#utility.yul\":4240:4274   */\n      dup4\n      swap1\n      mstore\n        /* \"#utility.yul\":4153:4171   */\n      0x44\n      add\n        /* \"@openzeppelin/contracts/access/AccessControl.sol\":3541:3588  AccessControlUnauthorizedAccount(account, role) */\n      mload(0x40)\n      dup1\n      swap2\n      sub\n      swap1\n      revert\n        /* \"@openzeppelin/contracts/access/AccessControl.sol\":3491:3599  if (!hasRole(role, account)) {... */\n    tag_189:\n        /* \"@openzeppelin/contracts/access/AccessControl.sol\":3408:3605  function _checkRole(bytes32 role, address account) internal view virtual {... */\n      pop\n      pop\n      jump\t// out\n        /* \"#utility.yul\":14:300   */\n    tag_25:\n        /* \"#utility.yul\":72:78   */\n      0x00\n        /* \"#utility.yul\":125:127   */\n      0x20\n        /* \"#utility.yul\":113:122   */\n      dup3\n        /* \"#utility.yul\":104:111   */\n      dup5\n        /* \"#utility.yul\":100:123   */\n      sub\n        /* \"#utility.yul\":96:128   */\n      slt\n        /* \"#utility.yul\":93:145   */\n      iszero\n      tag_195\n      jumpi\n        /* \"#utility.yul\":141:142   */\n      0x00\n        /* \"#utility.yul\":138:139   */\n      dup1\n        /* \"#utility.yul\":131:143   */\n      revert\n        /* \"#utility.yul\":93:145   */\n    tag_195:\n        /* \"#utility.yul\":167:190   */\n      dup2\n      calldataload\n      not(sub(shl(0xe0, 0x01), 0x01))\n        /* \"#utility.yul\":219:251   */\n      dup2\n      and\n        /* \"#utility.yul\":209:252   */\n      dup2\n      eq\n        /* \"#utility.yul\":199:270   */\n      tag_196\n      jumpi\n        /* \"#utility.yul\":266:267   */\n      0x00\n        /* \"#utility.yul\":263:264   */\n      dup1\n        /* \"#utility.yul\":256:268   */\n      revert\n        /* \"#utility.yul\":199:270   */\n    tag_196:\n        /* \"#utility.yul\":289:294   */\n      swap4\n        /* \"#utility.yul\":14:300   */\n      swap3\n      pop\n      pop\n      pop\n      jump\t// out\n        /* \"#utility.yul\":497:677   */\n    tag_31:\n        /* \"#utility.yul\":556:562   */\n      0x00\n        /* \"#utility.yul\":609:611   */\n      0x20\n        /* \"#utility.yul\":597:606   */\n      dup3\n        /* \"#utility.yul\":588:595   */\n      dup5\n        /* \"#utility.yul\":584:607   */\n      sub\n        /* \"#utility.yul\":580:612   */\n      slt\n        /* \"#utility.yul\":577:629   */\n      iszero\n      tag_199\n      jumpi\n        /* \"#utility.yul\":625:626   */\n      0x00\n        /* \"#utility.yul\":622:623   */\n      dup1\n        /* \"#utility.yul\":615:627   */\n      revert\n        /* \"#utility.yul\":577:629   */\n    tag_199:\n      pop\n        /* \"#utility.yul\":648:671   */\n      calldataload\n      swap2\n        /* \"#utility.yul\":497:677   */\n      swap1\n      pop\n      jump\t// out\n        /* \"#utility.yul\":864:1037   */\n    tag_192:\n        /* \"#utility.yul\":932:952   */\n      dup1\n      calldataload\n      sub(shl(0xa0, 0x01), 0x01)\n        /* \"#utility.yul\":981:1012   */\n      dup2\n      and\n        /* \"#utility.yul\":971:1013   */\n      dup2\n      eq\n        /* \"#utility.yul\":961:1031   */\n      tag_202\n      jumpi\n        /* \"#utility.yul\":1027:1028   */\n      0x00\n        /* \"#utility.yul\":1024:1025   */\n      dup1\n        /* \"#utility.yul\":1017:1029   */\n      revert\n        /* \"#utility.yul\":961:1031   */\n    tag_202:\n        /* \"#utility.yul\":864:1037   */\n      swap2\n      swap1\n      pop\n      jump\t// out\n        /* \"#utility.yul\":1042:1296   */\n    tag_37:\n        /* \"#utility.yul\":1110:1116   */\n      0x00\n        /* \"#utility.yul\":1118:1124   */\n      dup1\n        /* \"#utility.yul\":1171:1173   */\n      0x40\n        /* \"#utility.yul\":1159:1168   */\n      dup4\n        /* \"#utility.yul\":1150:1157   */\n      dup6\n        /* \"#utility.yul\":1146:1169   */\n      sub\n        /* \"#utility.yul\":1142:1174   */\n      slt\n        /* \"#utility.yul\":1139:1191   */\n      iszero\n      tag_204\n      jumpi\n        /* \"#utility.yul\":1187:1188   */\n      0x00\n        /* \"#utility.yul\":1184:1185   */\n      dup1\n        /* \"#utility.yul\":1177:1189   */\n      revert\n        /* \"#utility.yul\":1139:1191   */\n    tag_204:\n        /* \"#utility.yul\":1223:1232   */\n      dup3\n        /* \"#utility.yul\":1210:1233   */\n      calldataload\n        /* \"#utility.yul\":1200:1233   */\n      swap2\n      pop\n        /* \"#utility.yul\":1252:1290   */\n      tag_205\n        /* \"#utility.yul\":1286:1288   */\n      0x20\n        /* \"#utility.yul\":1275:1284   */\n      dup5\n        /* \"#utility.yul\":1271:1289   */\n      add\n        /* \"#utility.yul\":1252:1290   */\n      tag_192\n      jump\t// in\n    tag_205:\n        /* \"#utility.yul\":1242:1290   */\n      swap1\n      pop\n        /* \"#utility.yul\":1042:1296   */\n      swap3\n      pop\n      swap3\n      swap1\n      pop\n      jump\t// out\n        /* \"#utility.yul\":1301:1428   */\n    tag_157:\n        /* \"#utility.yul\":1362:1372   */\n      0x4e487b71\n        /* \"#utility.yul\":1357:1360   */\n      0xe0\n        /* \"#utility.yul\":1353:1373   */\n      shl\n        /* \"#utility.yul\":1350:1351   */\n      0x00\n        /* \"#utility.yul\":1343:1374   */\n      mstore\n        /* \"#utility.yul\":1393:1397   */\n      0x41\n        /* \"#utility.yul\":1390:1391   */\n      0x04\n        /* \"#utility.yul\":1383:1398   */\n      mstore\n        /* \"#utility.yul\":1417:1421   */\n      0x24\n        /* \"#utility.yul\":1414:1415   */\n      0x00\n        /* \"#utility.yul\":1407:1422   */\n      revert\n        /* \"#utility.yul\":1433:2622   */\n    tag_44:\n        /* \"#utility.yul\":1526:1532   */\n      0x00\n        /* \"#utility.yul\":1534:1540   */\n      dup1\n        /* \"#utility.yul\":1587:1589   */\n      0x40\n        /* \"#utility.yul\":1575:1584   */\n      dup4\n        /* \"#utility.yul\":1566:1573   */\n      dup6\n        /* \"#utility.yul\":1562:1585   */\n      sub\n        /* \"#utility.yul\":1558:1590   */\n      slt\n        /* \"#utility.yul\":1555:1607   */\n      iszero\n      tag_208\n      jumpi\n        /* \"#utility.yul\":1603:1604   */\n      0x00\n        /* \"#utility.yul\":1600:1601   */\n      dup1\n        /* \"#utility.yul\":1593:1605   */\n      revert\n        /* \"#utility.yul\":1555:1607   */\n    tag_208:\n        /* \"#utility.yul\":1626:1655   */\n      tag_209\n        /* \"#utility.yul\":1645:1654   */\n      dup4\n        /* \"#utility.yul\":1626:1655   */\n      tag_192\n      jump\t// in\n    tag_209:\n        /* \"#utility.yul\":1616:1655   */\n      swap2\n      pop\n        /* \"#utility.yul\":1674:1676   */\n      0x20\n        /* \"#utility.yul\":1727:1729   */\n      dup1\n        /* \"#utility.yul\":1716:1725   */\n      dup5\n        /* \"#utility.yul\":1712:1730   */\n      add\n        /* \"#utility.yul\":1699:1731   */\n      calldataload\n        /* \"#utility.yul\":1750:1768   */\n      0xffffffffffffffff\n        /* \"#utility.yul\":1791:1793   */\n      dup1\n        /* \"#utility.yul\":1783:1789   */\n      dup3\n        /* \"#utility.yul\":1780:1794   */\n      gt\n        /* \"#utility.yul\":1777:1811   */\n      iszero\n      tag_210\n      jumpi\n        /* \"#utility.yul\":1807:1808   */\n      0x00\n        /* \"#utility.yul\":1804:1805   */\n      dup1\n        /* \"#utility.yul\":1797:1809   */\n      revert\n        /* \"#utility.yul\":1777:1811   */\n    tag_210:\n        /* \"#utility.yul\":1845:1851   */\n      dup2\n        /* \"#utility.yul\":1834:1843   */\n      dup7\n        /* \"#utility.yul\":1830:1852   */\n      add\n        /* \"#utility.yul\":1820:1852   */\n      swap2\n      pop\n        /* \"#utility.yul\":1890:1897   */\n      dup7\n        /* \"#utility.yul\":1883:1887   */\n      0x1f\n        /* \"#utility.yul\":1879:1881   */\n      dup4\n        /* \"#utility.yul\":1875:1888   */\n      add\n        /* \"#utility.yul\":1871:1898   */\n      slt\n        /* \"#utility.yul\":1861:1916   */\n      tag_211\n      jumpi\n        /* \"#utility.yul\":1912:1913   */\n      0x00\n        /* \"#utility.yul\":1909:1910   */\n      dup1\n        /* \"#utility.yul\":1902:1914   */\n      revert\n        /* \"#utility.yul\":1861:1916   */\n    tag_211:\n        /* \"#utility.yul\":1948:1950   */\n      dup2\n        /* \"#utility.yul\":1935:1951   */\n      calldataload\n        /* \"#utility.yul\":1970:1972   */\n      dup2\n        /* \"#utility.yul\":1966:1968   */\n      dup2\n        /* \"#utility.yul\":1963:1973   */\n      gt\n        /* \"#utility.yul\":1960:1996   */\n      iszero\n      tag_213\n      jumpi\n        /* \"#utility.yul\":1976:1994   */\n      tag_213\n      tag_157\n      jump\t// in\n    tag_213:\n        /* \"#utility.yul\":2022:2024   */\n      dup1\n        /* \"#utility.yul\":2019:2020   */\n      0x05\n        /* \"#utility.yul\":2015:2025   */\n      shl\n        /* \"#utility.yul\":2054:2056   */\n      0x40\n        /* \"#utility.yul\":2048:2057   */\n      mload\n        /* \"#utility.yul\":2117:2119   */\n      0x1f\n        /* \"#utility.yul\":2113:2120   */\n      not\n        /* \"#utility.yul\":2108:2110   */\n      0x3f\n        /* \"#utility.yul\":2104:2106   */\n      dup4\n        /* \"#utility.yul\":2100:2111   */\n      add\n        /* \"#utility.yul\":2096:2121   */\n      and\n        /* \"#utility.yul\":2088:2094   */\n      dup2\n        /* \"#utility.yul\":2084:2122   */\n      add\n        /* \"#utility.yul\":2172:2178   */\n      dup2\n        /* \"#utility.yul\":2160:2170   */\n      dup2\n        /* \"#utility.yul\":2157:2179   */\n      lt\n        /* \"#utility.yul\":2152:2154   */\n      dup6\n        /* \"#utility.yul\":2140:2150   */\n      dup3\n        /* \"#utility.yul\":2137:2155   */\n      gt\n        /* \"#utility.yul\":2134:2180   */\n      or\n        /* \"#utility.yul\":2131:2203   */\n      iszero\n      tag_215\n      jumpi\n        /* \"#utility.yul\":2183:2201   */\n      tag_215\n      tag_157\n      jump\t// in\n    tag_215:\n        /* \"#utility.yul\":2219:2221   */\n      0x40\n        /* \"#utility.yul\":2212:2234   */\n      mstore\n        /* \"#utility.yul\":2269:2287   */\n      swap2\n      dup3\n      mstore\n        /* \"#utility.yul\":2303:2318   */\n      dup5\n      dup3\n      add\n      swap3\n      pop\n        /* \"#utility.yul\":2345:2356   */\n      dup4\n      dup2\n      add\n        /* \"#utility.yul\":2341:2361   */\n      dup6\n      add\n      swap2\n        /* \"#utility.yul\":2373:2392   */\n      dup10\n      dup4\n      gt\n        /* \"#utility.yul\":2370:2409   */\n      iszero\n      tag_216\n      jumpi\n        /* \"#utility.yul\":2405:2406   */\n      0x00\n        /* \"#utility.yul\":2402:2403   */\n      dup1\n        /* \"#utility.yul\":2395:2407   */\n      revert\n        /* \"#utility.yul\":2370:2409   */\n    tag_216:\n        /* \"#utility.yul\":2429:2440   */\n      swap4\n      dup6\n      add\n      swap4\n        /* \"#utility.yul\":2449:2591   */\n    tag_217:\n        /* \"#utility.yul\":2465:2471   */\n      dup3\n        /* \"#utility.yul\":2460:2463   */\n      dup6\n        /* \"#utility.yul\":2457:2472   */\n      lt\n        /* \"#utility.yul\":2449:2591   */\n      iszero\n      tag_219\n      jumpi\n        /* \"#utility.yul\":2531:2548   */\n      dup5\n      calldataload\n        /* \"#utility.yul\":2519:2549   */\n      dup5\n      mstore\n        /* \"#utility.yul\":2482:2494   */\n      swap4\n      dup6\n      add\n      swap4\n        /* \"#utility.yul\":2569:2581   */\n      swap3\n      dup6\n      add\n      swap3\n        /* \"#utility.yul\":2449:2591   */\n      jump(tag_217)\n    tag_219:\n        /* \"#utility.yul\":2610:2616   */\n      dup1\n        /* \"#utility.yul\":2600:2616   */\n      swap7\n      pop\n      pop\n      pop\n      pop\n      pop\n      pop\n      pop\n        /* \"#utility.yul\":1433:2622   */\n      swap3\n      pop\n      swap3\n      swap1\n      pop\n      jump\t// out\n        /* \"#utility.yul\":2627:2813   */\n    tag_68:\n        /* \"#utility.yul\":2686:2692   */\n      0x00\n        /* \"#utility.yul\":2739:2741   */\n      0x20\n        /* \"#utility.yul\":2727:2736   */\n      dup3\n        /* \"#utility.yul\":2718:2725   */\n      dup5\n        /* \"#utility.yul\":2714:2737   */\n      sub\n        /* \"#utility.yul\":2710:2742   */\n      slt\n        /* \"#utility.yul\":2707:2759   */\n      iszero\n      tag_221\n      jumpi\n        /* \"#utility.yul\":2755:2756   */\n      0x00\n        /* \"#utility.yul\":2752:2753   */\n      dup1\n        /* \"#utility.yul\":2745:2757   */\n      revert\n        /* \"#utility.yul\":2707:2759   */\n    tag_221:\n        /* \"#utility.yul\":2778:2807   */\n      tag_196\n        /* \"#utility.yul\":2797:2806   */\n      dup3\n        /* \"#utility.yul\":2778:2807   */\n      tag_192\n      jump\t// in\n        /* \"#utility.yul\":3000:3632   */\n    tag_87:\n        /* \"#utility.yul\":3171:3173   */\n      0x20\n        /* \"#utility.yul\":3223:3244   */\n      dup1\n      dup3\n      mstore\n        /* \"#utility.yul\":3293:3306   */\n      dup3\n      mload\n        /* \"#utility.yul\":3196:3214   */\n      dup3\n      dup3\n      add\n        /* \"#utility.yul\":3315:3337   */\n      dup2\n      swap1\n      mstore\n        /* \"#utility.yul\":3142:3146   */\n      0x00\n      swap2\n        /* \"#utility.yul\":3171:3173   */\n      swap1\n        /* \"#utility.yul\":3394:3409   */\n      dup5\n      dup3\n      add\n      swap1\n        /* \"#utility.yul\":3368:3370   */\n      0x40\n        /* \"#utility.yul\":3353:3371   */\n      dup6\n      add\n      swap1\n        /* \"#utility.yul\":3142:3146   */\n      dup5\n        /* \"#utility.yul\":3437:3606   */\n    tag_225:\n        /* \"#utility.yul\":3451:3457   */\n      dup2\n        /* \"#utility.yul\":3448:3449   */\n      dup2\n        /* \"#utility.yul\":3445:3458   */\n      lt\n        /* \"#utility.yul\":3437:3606   */\n      iszero\n      tag_227\n      jumpi\n        /* \"#utility.yul\":3512:3525   */\n      dup4\n      mload\n        /* \"#utility.yul\":3500:3526   */\n      dup4\n      mstore\n        /* \"#utility.yul\":3581:3596   */\n      swap3\n      dup5\n      add\n      swap3\n        /* \"#utility.yul\":3546:3558   */\n      swap2\n      dup5\n      add\n      swap2\n        /* \"#utility.yul\":3473:3474   */\n      0x01\n        /* \"#utility.yul\":3466:3475   */\n      add\n        /* \"#utility.yul\":3437:3606   */\n      jump(tag_225)\n    tag_227:\n      pop\n        /* \"#utility.yul\":3623:3626   */\n      swap1\n      swap7\n        /* \"#utility.yul\":3000:3632   */\n      swap6\n      pop\n      pop\n      pop\n      pop\n      pop\n      pop\n      jump\t// out\n        /* \"#utility.yul\":3637:3764   */\n    tag_115:\n        /* \"#utility.yul\":3698:3708   */\n      0x4e487b71\n        /* \"#utility.yul\":3693:3696   */\n      0xe0\n        /* \"#utility.yul\":3689:3709   */\n      shl\n        /* \"#utility.yul\":3686:3687   */\n      0x00\n        /* \"#utility.yul\":3679:3710   */\n      mstore\n        /* \"#utility.yul\":3729:3733   */\n      0x32\n        /* \"#utility.yul\":3726:3727   */\n      0x04\n        /* \"#utility.yul\":3719:3734   */\n      mstore\n        /* \"#utility.yul\":3753:3757   */\n      0x24\n        /* \"#utility.yul\":3750:3751   */\n      0x00\n        /* \"#utility.yul\":3743:3758   */\n      revert\n        /* \"#utility.yul\":3769:4001   */\n    tag_117:\n        /* \"#utility.yul\":3808:3811   */\n      0x00\n        /* \"#utility.yul\":3829:3846   */\n      0x01\n      dup3\n      add\n        /* \"#utility.yul\":3826:3966   */\n      tag_230\n      jumpi\n        /* \"#utility.yul\":3888:3898   */\n      0x4e487b71\n        /* \"#utility.yul\":3883:3886   */\n      0xe0\n        /* \"#utility.yul\":3879:3899   */\n      shl\n        /* \"#utility.yul\":3876:3877   */\n      0x00\n        /* \"#utility.yul\":3869:3900   */\n      mstore\n        /* \"#utility.yul\":3923:3927   */\n      0x11\n        /* \"#utility.yul\":3920:3921   */\n      0x04\n        /* \"#utility.yul\":3913:3928   */\n      mstore\n        /* \"#utility.yul\":3951:3955   */\n      0x24\n        /* \"#utility.yul\":3948:3949   */\n      0x00\n        /* \"#utility.yul\":3941:3956   */\n      revert\n        /* \"#utility.yul\":3826:3966   */\n    tag_230:\n      pop\n        /* \"#utility.yul\":3993:3994   */\n      0x01\n        /* \"#utility.yul\":3982:3995   */\n      add\n      swap1\n        /* \"#utility.yul\":3769:4001   */\n      jump\t// out\n\n    auxdata: 0xa264697066735822122082139c2b2b562ea8c4f51329d6aab03634e445b72a0ae15dc2fc0d53bade4b8c64736f6c63430008140033\n}\n",
				"bytecode": {
					"linkReferences": {},
					"object": "608060405234801561001057600080fd5b5061001c600033610022565b506100ce565b6000828152602081815260408083206001600160a01b038516845290915281205460ff166100c4576000838152602081815260408083206001600160a01b03861684529091529020805460ff1916600117905561007c3390565b6001600160a01b0316826001600160a01b0316847f2f8788117e7eff1d82e926ec794901d17c78024a50270940304540a733656f0d60405160405180910390a45060016100c8565b5060005b92915050565b610a47806100dd6000396000f3fe608060405234801561001057600080fd5b506004361061010b5760003560e01c806391d14854116100a2578063bfe42a3711610071578063bfe42a3714610246578063c601f7af1461026d578063d547741f14610294578063ebdf690f146102a7578063f2bcac3d146102ce57600080fd5b806391d14854146101f1578063a02d72fb14610204578063a217fddf1461022b578063aca5a8a71461023357600080fd5b80634fe9d1f5116100de5780634fe9d1f51461019157806368ca78f9146101a457806375b238fc146101b757806391b9f9d8146101de57600080fd5b806301ffc9a714610110578063248a9ca3146101385780632f2ff15d1461016957806336568abe1461017e575b600080fd5b61012361011e3660046107fc565b6102e3565b60405190151581526020015b60405180910390f35b61015b61014636600461082d565b60009081526020819052604090206001015490565b60405190815260200161012f565b61017c610177366004610862565b61031a565b005b61017c61018c366004610862565b610345565b61017c61019f3660046108a4565b61037d565b6101236101b23660046108a4565b6103c9565b61015b7fa49807205ce4d355092ef5a8a18f56e8913cf4a201fbe287825b095693c2177581565b61017c6101ec3660046108a4565b610424565b6101236101ff366004610862565b610470565b61015b7f58223cdfb69946630d837d40b5c366a584f0217ada7fddd8318f2e08603cfa2281565b61015b600081565b61015b610241366004610975565b610499565b61015b7f7b8bb8356a3f32f5c111ff23f050d97f08988e0883529ea7bff3b918887a6e0e81565b61015b7f482648e7878e9fa54c0a2f67ffd22d00ebc37cf7a03e060e428d2ab0cd6735cc81565b61017c6102a2366004610862565b610503565b61015b7fede9dcdb0ce99dc7cec9c7be9246ad08b37853683ad91569c187b647ddf5e21c81565b6102d6610528565b60405161012f9190610990565b60006001600160e01b03198216637965db0b60e01b148061031457506301ffc9a760e01b6001600160e01b03198316145b92915050565b600082815260208190526040902060010154610335816106b1565b61033f83836106be565b50505050565b6001600160a01b038116331461036e5760405163334bd91960e11b815260040160405180910390fd5b6103788282610750565b505050565b6000610388816106b1565b60005b825181101561033f576103b78382815181106103a9576103a96109d4565b602002602001015185610503565b806103c1816109ea565b91505061038b565b6000805b825181101561041a576103f98382815181106103eb576103eb6109d4565b602002602001015185610470565b15610408576001915050610314565b80610412816109ea565b9150506103cd565b5060009392505050565b600061042f816106b1565b60005b825181101561033f5761045e838281518110610450576104506109d4565b60200260200101518561031a565b80610468816109ea565b915050610432565b6000918252602082815260408084206001600160a01b0393909316845291905290205460ff1690565b6000806104a4610528565b90506000805b82518110156104fb576104d68382815181106104c8576104c86109d4565b602002602001015186610470565b156104e957816104e5816109ea565b9250505b806104f3816109ea565b9150506104aa565b509392505050565b60008281526020819052604090206001015461051e816106b1565b61033f8383610750565b60408051600680825260e082019092526060916020820160c0803683370190505090506000801b81600081518110610562576105626109d4565b6020026020010181815250507fa49807205ce4d355092ef5a8a18f56e8913cf4a201fbe287825b095693c21775816001815181106105a2576105a26109d4565b6020026020010181815250507f482648e7878e9fa54c0a2f67ffd22d00ebc37cf7a03e060e428d2ab0cd6735cc816002815181106105e2576105e26109d4565b6020026020010181815250507fede9dcdb0ce99dc7cec9c7be9246ad08b37853683ad91569c187b647ddf5e21c81600381518110610622576106226109d4565b6020026020010181815250507f58223cdfb69946630d837d40b5c366a584f0217ada7fddd8318f2e08603cfa2281600481518110610662576106626109d4565b6020026020010181815250507f7b8bb8356a3f32f5c111ff23f050d97f08988e0883529ea7bff3b918887a6e0e816005815181106106a2576106a26109d4565b60200260200101818152505090565b6106bb81336107bb565b50565b60006106ca8383610470565b610748576000838152602081815260408083206001600160a01b03861684529091529020805460ff191660011790556107003390565b6001600160a01b0316826001600160a01b0316847f2f8788117e7eff1d82e926ec794901d17c78024a50270940304540a733656f0d60405160405180910390a4506001610314565b506000610314565b600061075c8383610470565b15610748576000838152602081815260408083206001600160a01b0386168085529252808320805460ff1916905551339286917ff6391f5c32d9c69d2a47ea670b442974b53935d1edc7fd64eb21e047a839171b9190a4506001610314565b6107c58282610470565b6107f85760405163e2517d3f60e01b81526001600160a01b03821660048201526024810183905260440160405180910390fd5b5050565b60006020828403121561080e57600080fd5b81356001600160e01b03198116811461082657600080fd5b9392505050565b60006020828403121561083f57600080fd5b5035919050565b80356001600160a01b038116811461085d57600080fd5b919050565b6000806040838503121561087557600080fd5b8235915061088560208401610846565b90509250929050565b634e487b7160e01b600052604160045260246000fd5b600080604083850312156108b757600080fd5b6108c083610846565b915060208084013567ffffffffffffffff808211156108de57600080fd5b818601915086601f8301126108f257600080fd5b8135818111156109045761090461088e565b8060051b604051601f19603f830116810181811085821117156109295761092961088e565b60405291825284820192508381018501918983111561094757600080fd5b938501935b828510156109655784358452938501939285019261094c565b8096505050505050509250929050565b60006020828403121561098757600080fd5b61082682610846565b6020808252825182820181905260009190848201906040850190845b818110156109c8578351835292840192918401916001016109ac565b50909695505050505050565b634e487b7160e01b600052603260045260246000fd5b600060018201610a0a57634e487b7160e01b600052601160045260246000fd5b506001019056fea264697066735822122082139c2b2b562ea8c4f51329d6aab03634e445b72a0ae15dc2fc0d53bade4b8c64736f6c63430008140033",
					"opcodes": "PUSH1 0x80 PUSH1 0x40 MSTORE CALLVALUE DUP1 ISZERO PUSH2 0x10 JUMPI PUSH1 0x0 DUP1 REVERT JUMPDEST POP PUSH2 0x1C PUSH1 0x0 CALLER PUSH2 0x22 JUMP JUMPDEST POP PUSH2 0xCE JUMP JUMPDEST PUSH1 0x0 DUP3 DUP2 MSTORE PUSH1 0x20 DUP2 DUP2 MSTORE PUSH1 0x40 DUP1 DUP4 KECCAK256 PUSH1 0x1 PUSH1 0x1 PUSH1 0xA0 SHL SUB DUP6 AND DUP5 MSTORE SWAP1 SWAP2 MSTORE DUP2 KECCAK256 SLOAD PUSH1 0xFF AND PUSH2 0xC4 JUMPI PUSH1 0x0 DUP4 DUP2 MSTORE PUSH1 0x20 DUP2 DUP2 MSTORE PUSH1 0x40 DUP1 DUP4 KECCAK256 PUSH1 0x1 PUSH1 0x1 PUSH1 0xA0 SHL SUB DUP7 AND DUP5 MSTORE SWAP1 SWAP2 MSTORE SWAP1 KECCAK256 DUP1 SLOAD PUSH1 0xFF NOT AND PUSH1 0x1 OR SWAP1 SSTORE PUSH2 0x7C CALLER SWAP1 JUMP JUMPDEST PUSH1 0x1 PUSH1 0x1 PUSH1 0xA0 SHL SUB AND DUP3 PUSH1 0x1 PUSH1 0x1 PUSH1 0xA0 SHL SUB AND DUP5 PUSH32 0x2F8788117E7EFF1D82E926EC794901D17C78024A50270940304540A733656F0D PUSH1 0x40 MLOAD PUSH1 0x40 MLOAD DUP1 SWAP2 SUB SWAP1 LOG4 POP PUSH1 0x1 PUSH2 0xC8 JUMP JUMPDEST POP PUSH1 0x0 JUMPDEST SWAP3 SWAP2 POP POP JUMP JUMPDEST PUSH2 0xA47 DUP1 PUSH2 0xDD PUSH1 0x0 CODECOPY PUSH1 0x0 RETURN INVALID PUSH1 0x80 PUSH1 0x40 MSTORE CALLVALUE DUP1 ISZERO PUSH2 0x10 JUMPI PUSH1 0x0 DUP1 REVERT JUMPDEST POP PUSH1 0x4 CALLDATASIZE LT PUSH2 0x10B JUMPI PUSH1 0x0 CALLDATALOAD PUSH1 0xE0 SHR DUP1 PUSH4 0x91D14854 GT PUSH2 0xA2 JUMPI DUP1 PUSH4 0xBFE42A37 GT PUSH2 0x71 JUMPI DUP1 PUSH4 0xBFE42A37 EQ PUSH2 0x246 JUMPI DUP1 PUSH4 0xC601F7AF EQ PUSH2 0x26D JUMPI DUP1 PUSH4 0xD547741F EQ PUSH2 0x294 JUMPI DUP1 PUSH4 0xEBDF690F EQ PUSH2 0x2A7 JUMPI DUP1 PUSH4 0xF2BCAC3D EQ PUSH2 0x2CE JUMPI PUSH1 0x0 DUP1 REVERT JUMPDEST DUP1 PUSH4 0x91D14854 EQ PUSH2 0x1F1 JUMPI DUP1 PUSH4 0xA02D72FB EQ PUSH2 0x204 JUMPI DUP1 PUSH4 0xA217FDDF EQ PUSH2 0x22B JUMPI DUP1 PUSH4 0xACA5A8A7 EQ PUSH2 0x233 JUMPI PUSH1 0x0 DUP1 REVERT JUMPDEST DUP1 PUSH4 0x4FE9D1F5 GT PUSH2 0xDE JUMPI DUP1 PUSH4 0x4FE9D1F5 EQ PUSH2 0x191 JUMPI DUP1 PUSH4 0x68CA78F9 EQ PUSH2 0x1A4 JUMPI DUP1 PUSH4 0x75B238FC EQ PUSH2 0x1B7 JUMPI DUP1 PUSH4 0x91B9F9D8 EQ PUSH2 0x1DE JUMPI PUSH1 0x0 DUP1 REVERT JUMPDEST DUP1 PUSH4 0x1FFC9A7 EQ PUSH2 0x110 JUMPI DUP1 PUSH4 0x248A9CA3 EQ PUSH2 0x138 JUMPI DUP1 PUSH4 0x2F2FF15D EQ PUSH2 0x169 JUMPI DUP1 PUSH4 0x36568ABE EQ PUSH2 0x17E JUMPI JUMPDEST PUSH1 0x0 DUP1 REVERT JUMPDEST PUSH2 0x123 PUSH2 0x11E CALLDATASIZE PUSH1 0x4 PUSH2 0x7FC JUMP JUMPDEST PUSH2 0x2E3 JUMP JUMPDEST PUSH1 0x40 MLOAD SWAP1 ISZERO ISZERO DUP2 MSTORE PUSH1 0x20 ADD JUMPDEST PUSH1 0x40 MLOAD DUP1 SWAP2 SUB SWAP1 RETURN JUMPDEST PUSH2 0x15B PUSH2 0x146 CALLDATASIZE PUSH1 0x4 PUSH2 0x82D JUMP JUMPDEST PUSH1 0x0 SWAP1 DUP2 MSTORE PUSH1 0x20 DUP2 SWAP1 MSTORE PUSH1 0x40 SWAP1 KECCAK256 PUSH1 0x1 ADD SLOAD SWAP1 JUMP JUMPDEST PUSH1 0x40 MLOAD SWAP1 DUP2 MSTORE PUSH1 0x20 ADD PUSH2 0x12F JUMP JUMPDEST PUSH2 0x17C PUSH2 0x177 CALLDATASIZE PUSH1 0x4 PUSH2 0x862 JUMP JUMPDEST PUSH2 0x31A JUMP JUMPDEST STOP JUMPDEST PUSH2 0x17C PUSH2 0x18C CALLDATASIZE PUSH1 0x4 PUSH2 0x862 JUMP JUMPDEST PUSH2 0x345 JUMP JUMPDEST PUSH2 0x17C PUSH2 0x19F CALLDATASIZE PUSH1 0x4 PUSH2 0x8A4 JUMP JUMPDEST PUSH2 0x37D JUMP JUMPDEST PUSH2 0x123 PUSH2 0x1B2 CALLDATASIZE PUSH1 0x4 PUSH2 0x8A4 JUMP JUMPDEST PUSH2 0x3C9 JUMP JUMPDEST PUSH2 0x15B PUSH32 0xA49807205CE4D355092EF5A8A18F56E8913CF4A201FBE287825B095693C21775 DUP2 JUMP JUMPDEST PUSH2 0x17C PUSH2 0x1EC CALLDATASIZE PUSH1 0x4 PUSH2 0x8A4 JUMP JUMPDEST PUSH2 0x424 JUMP JUMPDEST PUSH2 0x123 PUSH2 0x1FF CALLDATASIZE PUSH1 0x4 PUSH2 0x862 JUMP JUMPDEST PUSH2 0x470 JUMP JUMPDEST PUSH2 0x15B PUSH32 0x58223CDFB69946630D837D40B5C366A584F0217ADA7FDDD8318F2E08603CFA22 DUP2 JUMP JUMPDEST PUSH2 0x15B PUSH1 0x0 DUP2 JUMP JUMPDEST PUSH2 0x15B PUSH2 0x241 CALLDATASIZE PUSH1 0x4 PUSH2 0x975 JUMP JUMPDEST PUSH2 0x499 JUMP JUMPDEST PUSH2 0x15B PUSH32 0x7B8BB8356A3F32F5C111FF23F050D97F08988E0883529EA7BFF3B918887A6E0E DUP2 JUMP JUMPDEST PUSH2 0x15B PUSH32 0x482648E7878E9FA54C0A2F67FFD22D00EBC37CF7A03E060E428D2AB0CD6735CC DUP2 JUMP JUMPDEST PUSH2 0x17C PUSH2 0x2A2 CALLDATASIZE PUSH1 0x4 PUSH2 0x862 JUMP JUMPDEST PUSH2 0x503 JUMP JUMPDEST PUSH2 0x15B PUSH32 0xEDE9DCDB0CE99DC7CEC9C7BE9246AD08B37853683AD91569C187B647DDF5E21C DUP2 JUMP JUMPDEST PUSH2 0x2D6 PUSH2 0x528 JUMP JUMPDEST PUSH1 0x40 MLOAD PUSH2 0x12F SWAP2 SWAP1 PUSH2 0x990 JUMP JUMPDEST PUSH1 0x0 PUSH1 0x1 PUSH1 0x1 PUSH1 0xE0 SHL SUB NOT DUP3 AND PUSH4 0x7965DB0B PUSH1 0xE0 SHL EQ DUP1 PUSH2 0x314 JUMPI POP PUSH4 0x1FFC9A7 PUSH1 0xE0 SHL PUSH1 0x1 PUSH1 0x1 PUSH1 0xE0 SHL SUB NOT DUP4 AND EQ JUMPDEST SWAP3 SWAP2 POP POP JUMP JUMPDEST PUSH1 0x0 DUP3 DUP2 MSTORE PUSH1 0x20 DUP2 SWAP1 MSTORE PUSH1 0x40 SWAP1 KECCAK256 PUSH1 0x1 ADD SLOAD PUSH2 0x335 DUP2 PUSH2 0x6B1 JUMP JUMPDEST PUSH2 0x33F DUP4 DUP4 PUSH2 0x6BE JUMP JUMPDEST POP POP POP POP JUMP JUMPDEST PUSH1 0x1 PUSH1 0x1 PUSH1 0xA0 SHL SUB DUP2 AND CALLER EQ PUSH2 0x36E JUMPI PUSH1 0x40 MLOAD PUSH4 0x334BD919 PUSH1 0xE1 SHL DUP2 MSTORE PUSH1 0x4 ADD PUSH1 0x40 MLOAD DUP1 SWAP2 SUB SWAP1 REVERT JUMPDEST PUSH2 0x378 DUP3 DUP3 PUSH2 0x750 JUMP JUMPDEST POP POP POP JUMP JUMPDEST PUSH1 0x0 PUSH2 0x388 DUP2 PUSH2 0x6B1 JUMP JUMPDEST PUSH1 0x0 JUMPDEST DUP3 MLOAD DUP2 LT ISZERO PUSH2 0x33F JUMPI PUSH2 0x3B7 DUP4 DUP3 DUP2 MLOAD DUP2 LT PUSH2 0x3A9 JUMPI PUSH2 0x3A9 PUSH2 0x9D4 JUMP JUMPDEST PUSH1 0x20 MUL PUSH1 0x20 ADD ADD MLOAD DUP6 PUSH2 0x503 JUMP JUMPDEST DUP1 PUSH2 0x3C1 DUP2 PUSH2 0x9EA JUMP JUMPDEST SWAP2 POP POP PUSH2 0x38B JUMP JUMPDEST PUSH1 0x0 DUP1 JUMPDEST DUP3 MLOAD DUP2 LT ISZERO PUSH2 0x41A JUMPI PUSH2 0x3F9 DUP4 DUP3 DUP2 MLOAD DUP2 LT PUSH2 0x3EB JUMPI PUSH2 0x3EB PUSH2 0x9D4 JUMP JUMPDEST PUSH1 0x20 MUL PUSH1 0x20 ADD ADD MLOAD DUP6 PUSH2 0x470 JUMP JUMPDEST ISZERO PUSH2 0x408 JUMPI PUSH1 0x1 SWAP2 POP POP PUSH2 0x314 JUMP JUMPDEST DUP1 PUSH2 0x412 DUP2 PUSH2 0x9EA JUMP JUMPDEST SWAP2 POP POP PUSH2 0x3CD JUMP JUMPDEST POP PUSH1 0x0 SWAP4 SWAP3 POP POP POP JUMP JUMPDEST PUSH1 0x0 PUSH2 0x42F DUP2 PUSH2 0x6B1 JUMP JUMPDEST PUSH1 0x0 JUMPDEST DUP3 MLOAD DUP2 LT ISZERO PUSH2 0x33F JUMPI PUSH2 0x45E DUP4 DUP3 DUP2 MLOAD DUP2 LT PUSH2 0x450 JUMPI PUSH2 0x450 PUSH2 0x9D4 JUMP JUMPDEST PUSH1 0x20 MUL PUSH1 0x20 ADD ADD MLOAD DUP6 PUSH2 0x31A JUMP JUMPDEST DUP1 PUSH2 0x468 DUP2 PUSH2 0x9EA JUMP JUMPDEST SWAP2 POP POP PUSH2 0x432 JUMP JUMPDEST PUSH1 0x0 SWAP2 DUP3 MSTORE PUSH1 0x20 DUP3 DUP2 MSTORE PUSH1 0x40 DUP1 DUP5 KECCAK256 PUSH1 0x1 PUSH1 0x1 PUSH1 0xA0 SHL SUB SWAP4 SWAP1 SWAP4 AND DUP5 MSTORE SWAP2 SWAP1 MSTORE SWAP1 KECCAK256 SLOAD PUSH1 0xFF AND SWAP1 JUMP JUMPDEST PUSH1 0x0 DUP1 PUSH2 0x4A4 PUSH2 0x528 JUMP JUMPDEST SWAP1 POP PUSH1 0x0 DUP1 JUMPDEST DUP3 MLOAD DUP2 LT ISZERO PUSH2 0x4FB JUMPI PUSH2 0x4D6 DUP4 DUP3 DUP2 MLOAD DUP2 LT PUSH2 0x4C8 JUMPI PUSH2 0x4C8 PUSH2 0x9D4 JUMP JUMPDEST PUSH1 0x20 MUL PUSH1 0x20 ADD ADD MLOAD DUP7 PUSH2 0x470 JUMP JUMPDEST ISZERO PUSH2 0x4E9 JUMPI DUP2 PUSH2 0x4E5 DUP2 PUSH2 0x9EA JUMP JUMPDEST SWAP3 POP POP JUMPDEST DUP1 PUSH2 0x4F3 DUP2 PUSH2 0x9EA JUMP JUMPDEST SWAP2 POP POP PUSH2 0x4AA JUMP JUMPDEST POP SWAP4 SWAP3 POP POP POP JUMP JUMPDEST PUSH1 0x0 DUP3 DUP2 MSTORE PUSH1 0x20 DUP2 SWAP1 MSTORE PUSH1 0x40 SWAP1 KECCAK256 PUSH1 0x1 ADD SLOAD PUSH2 0x51E DUP2 PUSH2 0x6B1 JUMP JUMPDEST PUSH2 0x33F DUP4 DUP4 PUSH2 0x750 JUMP JUMPDEST PUSH1 0x40 DUP1 MLOAD PUSH1 0x6 DUP1 DUP3 MSTORE PUSH1 0xE0 DUP3 ADD SWAP1 SWAP3 MSTORE PUSH1 0x60 SWAP2 PUSH1 0x20 DUP3 ADD PUSH1 0xC0 DUP1 CALLDATASIZE DUP4 CALLDATACOPY ADD SWAP1 POP POP SWAP1 POP PUSH1 0x0 DUP1 SHL DUP2 PUSH1 0x0 DUP2 MLOAD DUP2 LT PUSH2 0x562 JUMPI PUSH2 0x562 PUSH2 0x9D4 JUMP JUMPDEST PUSH1 0x20 MUL PUSH1 0x20 ADD ADD DUP2 DUP2 MSTORE POP POP PUSH32 0xA49807205CE4D355092EF5A8A18F56E8913CF4A201FBE287825B095693C21775 DUP2 PUSH1 0x1 DUP2 MLOAD DUP2 LT PUSH2 0x5A2 JUMPI PUSH2 0x5A2 PUSH2 0x9D4 JUMP JUMPDEST PUSH1 0x20 MUL PUSH1 0x20 ADD ADD DUP2 DUP2 MSTORE POP POP PUSH32 0x482648E7878E9FA54C0A2F67FFD22D00EBC37CF7A03E060E428D2AB0CD6735CC DUP2 PUSH1 0x2 DUP2 MLOAD DUP2 LT PUSH2 0x5E2 JUMPI PUSH2 0x5E2 PUSH2 0x9D4 JUMP JUMPDEST PUSH1 0x20 MUL PUSH1 0x20 ADD ADD DUP2 DUP2 MSTORE POP POP PUSH32 0xEDE9DCDB0CE99DC7CEC9C7BE9246AD08B37853683AD91569C187B647DDF5E21C DUP2 PUSH1 0x3 DUP2 MLOAD DUP2 LT PUSH2 0x622 JUMPI PUSH2 0x622 PUSH2 0x9D4 JUMP JUMPDEST PUSH1 0x20 MUL PUSH1 0x20 ADD ADD DUP2 DUP2 MSTORE POP POP PUSH32 0x58223CDFB69946630D837D40B5C366A584F0217ADA7FDDD8318F2E08603CFA22 DUP2 PUSH1 0x4 DUP2 MLOAD DUP2 LT PUSH2 0x662 JUMPI PUSH2 0x662 PUSH2 0x9D4 JUMP JUMPDEST PUSH1 0x20 MUL PUSH1 0x20 ADD ADD DUP2 DUP2 MSTORE POP POP PUSH32 0x7B8BB8356A3F32F5C111FF23F050D97F08988E0883529EA7BFF3B918887A6E0E DUP2 PUSH1 0x5 DUP2 MLOAD DUP2 LT PUSH2 0x6A2 JUMPI PUSH2 0x6A2 PUSH2 0x9D4 JUMP JUMPDEST PUSH1 0x20 MUL PUSH1 0x20 ADD ADD DUP2 DUP2 MSTORE POP POP SWAP1 JUMP JUMPDEST PUSH2 0x6BB DUP2 CALLER PUSH2 0x7BB JUMP JUMPDEST POP JUMP JUMPDEST PUSH1 0x0 PUSH2 0x6CA DUP4 DUP4 PUSH2 0x470 JUMP JUMPDEST PUSH2 0x748 JUMPI PUSH1 0x0 DUP4 DUP2 MSTORE PUSH1 0x20 DUP2 DUP2 MSTORE PUSH1 0x40 DUP1 DUP4 KECCAK256 PUSH1 0x1 PUSH1 0x1 PUSH1 0xA0 SHL SUB DUP7 AND DUP5 MSTORE SWAP1 SWAP2 MSTORE SWAP1 KECCAK256 DUP1 SLOAD PUSH1 0xFF NOT AND PUSH1 0x1 OR SWAP1 SSTORE PUSH2 0x700 CALLER SWAP1 JUMP JUMPDEST PUSH1 0x1 PUSH1 0x1 PUSH1 0xA0 SHL SUB AND DUP3 PUSH1 0x1 PUSH1 0x1 PUSH1 0xA0 SHL SUB AND DUP5 PUSH32 0x2F8788117E7EFF1D82E926EC794901D17C78024A50270940304540A733656F0D PUSH1 0x40 MLOAD PUSH1 0x40 MLOAD DUP1 SWAP2 SUB SWAP1 LOG4 POP PUSH1 0x1 PUSH2 0x314 JUMP JUMPDEST POP PUSH1 0x0 PUSH2 0x314 JUMP JUMPDEST PUSH1 0x0 PUSH2 0x75C DUP4 DUP4 PUSH2 0x470 JUMP JUMPDEST ISZERO PUSH2 0x748 JUMPI PUSH1 0x0 DUP4 DUP2 MSTORE PUSH1 0x20 DUP2 DUP2 MSTORE PUSH1 0x40 DUP1 DUP4 KECCAK256 PUSH1 0x1 PUSH1 0x1 PUSH1 0xA0 SHL SUB DUP7 AND DUP1 DUP6 MSTORE SWAP3 MSTORE DUP1 DUP4 KECCAK256 DUP1 SLOAD PUSH1 0xFF NOT AND SWAP1 SSTORE MLOAD CALLER SWAP3 DUP7 SWAP2 PUSH32 0xF6391F5C32D9C69D2A47EA670B442974B53935D1EDC7FD64EB21E047A839171B SWAP2 SWAP1 LOG4 POP PUSH1 0x1 PUSH2 0x314 JUMP JUMPDEST PUSH2 0x7C5 DUP3 DUP3 PUSH2 0x470 JUMP JUMPDEST PUSH2 0x7F8 JUMPI PUSH1 0x40 MLOAD PUSH4 0xE2517D3F PUSH1 0xE0 SHL DUP2 MSTORE PUSH1 0x1 PUSH1 0x1 PUSH1 0xA0 SHL SUB DUP3 AND PUSH1 0x4 DUP3 ADD MSTORE PUSH1 0x24 DUP2 ADD DUP4 SWAP1 MSTORE PUSH1 0x44 ADD PUSH1 0x40 MLOAD DUP1 SWAP2 SUB SWAP1 REVERT JUMPDEST POP POP JUMP JUMPDEST PUSH1 0x0 PUSH1 0x20 DUP3 DUP5 SUB SLT ISZERO PUSH2 0x80E JUMPI PUSH1 0x0 DUP1 REVERT JUMPDEST DUP2 CALLDATALOAD PUSH1 0x1 PUSH1 0x1 PUSH1 0xE0 SHL SUB NOT DUP2 AND DUP2 EQ PUSH2 0x826 JUMPI PUSH1 0x0 DUP1 REVERT JUMPDEST SWAP4 SWAP3 POP POP POP JUMP JUMPDEST PUSH1 0x0 PUSH1 0x20 DUP3 DUP5 SUB SLT ISZERO PUSH2 0x83F JUMPI PUSH1 0x0 DUP1 REVERT JUMPDEST POP CALLDATALOAD SWAP2 SWAP1 POP JUMP JUMPDEST DUP1 CALLDATALOAD PUSH1 0x1 PUSH1 0x1 PUSH1 0xA0 SHL SUB DUP2 AND DUP2 EQ PUSH2 0x85D JUMPI PUSH1 0x0 DUP1 REVERT JUMPDEST SWAP2 SWAP1 POP JUMP JUMPDEST PUSH1 0x0 DUP1 PUSH1 0x40 DUP4 DUP6 SUB SLT ISZERO PUSH2 0x875 JUMPI PUSH1 0x0 DUP1 REVERT JUMPDEST DUP3 CALLDATALOAD SWAP2 POP PUSH2 0x885 PUSH1 0x20 DUP5 ADD PUSH2 0x846 JUMP JUMPDEST SWAP1 POP SWAP3 POP SWAP3 SWAP1 POP JUMP JUMPDEST PUSH4 0x4E487B71 PUSH1 0xE0 SHL PUSH1 0x0 MSTORE PUSH1 0x41 PUSH1 0x4 MSTORE PUSH1 0x24 PUSH1 0x0 REVERT JUMPDEST PUSH1 0x0 DUP1 PUSH1 0x40 DUP4 DUP6 SUB SLT ISZERO PUSH2 0x8B7 JUMPI PUSH1 0x0 DUP1 REVERT JUMPDEST PUSH2 0x8C0 DUP4 PUSH2 0x846 JUMP JUMPDEST SWAP2 POP PUSH1 0x20 DUP1 DUP5 ADD CALLDATALOAD PUSH8 0xFFFFFFFFFFFFFFFF DUP1 DUP3 GT ISZERO PUSH2 0x8DE JUMPI PUSH1 0x0 DUP1 REVERT JUMPDEST DUP2 DUP7 ADD SWAP2 POP DUP7 PUSH1 0x1F DUP4 ADD SLT PUSH2 0x8F2 JUMPI PUSH1 0x0 DUP1 REVERT JUMPDEST DUP2 CALLDATALOAD DUP2 DUP2 GT ISZERO PUSH2 0x904 JUMPI PUSH2 0x904 PUSH2 0x88E JUMP JUMPDEST DUP1 PUSH1 0x5 SHL PUSH1 0x40 MLOAD PUSH1 0x1F NOT PUSH1 0x3F DUP4 ADD AND DUP2 ADD DUP2 DUP2 LT DUP6 DUP3 GT OR ISZERO PUSH2 0x929 JUMPI PUSH2 0x929 PUSH2 0x88E JUMP JUMPDEST PUSH1 0x40 MSTORE SWAP2 DUP3 MSTORE DUP5 DUP3 ADD SWAP3 POP DUP4 DUP2 ADD DUP6 ADD SWAP2 DUP10 DUP4 GT ISZERO PUSH2 0x947 JUMPI PUSH1 0x0 DUP1 REVERT JUMPDEST SWAP4 DUP6 ADD SWAP4 JUMPDEST DUP3 DUP6 LT ISZERO PUSH2 0x965 JUMPI DUP5 CALLDATALOAD DUP5 MSTORE SWAP4 DUP6 ADD SWAP4 SWAP3 DUP6 ADD SWAP3 PUSH2 0x94C JUMP JUMPDEST DUP1 SWAP7 POP POP POP POP POP POP POP SWAP3 POP SWAP3 SWAP1 POP JUMP JUMPDEST PUSH1 0x0 PUSH1 0x20 DUP3 DUP5 SUB SLT ISZERO PUSH2 0x987 JUMPI PUSH1 0x0 DUP1 REVERT JUMPDEST PUSH2 0x826 DUP3 PUSH2 0x846 JUMP JUMPDEST PUSH1 0x20 DUP1 DUP3 MSTORE DUP3 MLOAD DUP3 DUP3 ADD DUP2 SWAP1 MSTORE PUSH1 0x0 SWAP2 SWAP1 DUP5 DUP3 ADD SWAP1 PUSH1 0x40 DUP6 ADD SWAP1 DUP5 JUMPDEST DUP2 DUP2 LT ISZERO PUSH2 0x9C8 JUMPI DUP4 MLOAD DUP4 MSTORE SWAP3 DUP5 ADD SWAP3 SWAP2 DUP5 ADD SWAP2 PUSH1 0x1 ADD PUSH2 0x9AC JUMP JUMPDEST POP SWAP1 SWAP7 SWAP6 POP POP POP POP POP POP JUMP JUMPDEST PUSH4 0x4E487B71 PUSH1 0xE0 SHL PUSH1 0x0 MSTORE PUSH1 0x32 PUSH1 0x4 MSTORE PUSH1 0x24 PUSH1 0x0 REVERT JUMPDEST PUSH1 0x0 PUSH1 0x1 DUP3 ADD PUSH2 0xA0A JUMPI PUSH4 0x4E487B71 PUSH1 0xE0 SHL PUSH1 0x0 MSTORE PUSH1 0x11 PUSH1 0x4 MSTORE PUSH1 0x24 PUSH1 0x0 REVERT JUMPDEST POP PUSH1 0x1 ADD SWAP1 JUMP INVALID LOG2 PUSH5 0x6970667358 0x22 SLT KECCAK256 DUP3 SGT SWAP13 0x2B 0x2B JUMP 0x2E 0xA8 0xC4 CREATE2 SGT 0x29 0xD6 0xAA 0xB0 CALLDATASIZE CALLVALUE 0xE4 GASLIMIT 0xB7 0x2A EXP 0xE1 0x5D 0xC2 0xFC 0xD MSTORE8 0xBA 0xDE 0x4B DUP13 PUSH5 0x736F6C6343 STOP ADDMOD EQ STOP CALLER "
				},
				"gasEstimates": {
					"creation": {
						"codeDepositCost": "526200",
						"executionCost": "29245",
						"totalCost": "555445"
					},
					"external": {
						"ADMIN_ROLE()": "262",
						"AI_ORACLE_ROLE()": "239",
						"DEFAULT_ADMIN_ROLE()": "262",
						"DISPUTE_RESOLVER_ROLE()": "217",
						"MILESTONE_APPROVER_ROLE()": "240",
						"TREASURY_MANAGER_ROLE()": "283",
						"getAllRoles()": "infinite",
						"getRoleAdmin(bytes32)": "2493",
						"getRoleCount(address)": "infinite",
						"grantMultipleRoles(address,bytes32[])": "infinite",
						"grantRole(bytes32,address)": "infinite",
						"hasAnyRole(address,bytes32[])": "infinite",
						"hasRole(bytes32,address)": "2674",
						"renounceRole(bytes32,address)": "29113",
						"revokeMultipleRoles(address,bytes32[])": "infinite",
						"revokeRole(bytes32,address)": "infinite",
						"supportsInterface(bytes4)": "450"
					}
				},
				"methodIdentifiers": {
					"ADMIN_ROLE()": "75b238fc",
					"AI_ORACLE_ROLE()": "c601f7af",
					"DEFAULT_ADMIN_ROLE()": "a217fddf",
					"DISPUTE_RESOLVER_ROLE()": "bfe42a37",
					"MILESTONE_APPROVER_ROLE()": "a02d72fb",
					"TREASURY_MANAGER_ROLE()": "ebdf690f",
					"getAllRoles()": "f2bcac3d",
					"getRoleAdmin(bytes32)": "248a9ca3",
					"getRoleCount(address)": "aca5a8a7",
					"grantMultipleRoles(address,bytes32[])": "91b9f9d8",
					"grantRole(bytes32,address)": "2f2ff15d",
					"hasAnyRole(address,bytes32[])": "68ca78f9",
					"hasRole(bytes32,address)": "91d14854",
					"renounceRole(bytes32,address)": "36568abe",
					"revokeMultipleRoles(address,bytes32[])": "4fe9d1f5",
					"revokeRole(bytes32,address)": "d547741f",
					"supportsInterface(bytes4)": "01ffc9a7"
				}
			},
			"storageLayout": {
				"storage": [
					{
						"astId": 27,
						"contract": "CrossFi-Treasury-Guard/contracts/utils/ExtendedAccessControl.sol:ExtendedAccessControl",
						"label": "_roles",
						"offset": 0,
						"slot": "0",
						"type": "t_mapping(t_bytes32,t_struct(RoleData)22_storage)"
					}
				],
				"types": {
					"t_address": {
						"encoding": "inplace",
						"label": "address",
						"numberOfBytes": "20"
					},
					"t_bool": {
						"encoding": "inplace",
						"label": "bool",
						"numberOfBytes": "1"
					},
					"t_bytes32": {
						"encoding": "inplace",
						"label": "bytes32",
						"numberOfBytes": "32"
					},
					"t_mapping(t_address,t_bool)": {
						"encoding": "mapping",
						"key": "t_address",
						"label": "mapping(address => bool)",
						"numberOfBytes": "32",
						"value": "t_bool"
					},
					"t_mapping(t_bytes32,t_struct(RoleData)22_storage)": {
						"encoding": "mapping",
						"key": "t_bytes32",
						"label": "mapping(bytes32 => struct AccessControl.RoleData)",
						"numberOfBytes": "32",
						"value": "t_struct(RoleData)22_storage"
					},
					"t_struct(RoleData)22_storage": {
						"encoding": "inplace",
						"label": "struct AccessControl.RoleData",
						"members": [
							{
								"astId": 19,
								"contract": "CrossFi-Treasury-Guard/contracts/utils/ExtendedAccessControl.sol:ExtendedAccessControl",
								"label": "hasRole",
								"offset": 0,
								"slot": "0",
								"type": "t_mapping(t_address,t_bool)"
							},
							{
								"astId": 21,
								"contract": "CrossFi-Treasury-Guard/contracts/utils/ExtendedAccessControl.sol:ExtendedAccessControl",
								"label": "adminRole",
								"offset": 0,
								"slot": "1",
								"type": "t_bytes32"
							}
						],
						"numberOfBytes": "64"
					}
				}
			},
			"userdoc": {
				"kind": "user",
				"methods": {},
				"version": 1
			}
		}
	}
}