{
	"CrossFi-Treasury-Guard/contracts/AIScoreRegistry.sol": {
		"AIScoreRegistry": {
			"abi": [
				{
					"inputs": [],
					"stateMutability": "nonpayable",
					"type": "constructor"
				},
				{
					"inputs": [],
					"name": "AccessControlBadConfirmation",
					"type": "error"
				},
				{
					"inputs": [
						{
							"internalType": "address",
							"name": "account",
							"type": "address"
						},
						{
							"internalType": "bytes32",
							"name": "neededRole",
							"type": "bytes32"
						}
					],
					"name": "AccessControlUnauthorizedAccount",
					"type": "error"
				},
				{
					"anonymous": false,
					"inputs": [
						{
							"indexed": true,
							"internalType": "uint256",
							"name": "proposalId",
							"type": "uint256"
						},
						{
							"indexed": false,
							"internalType": "uint256",
							"name": "overallScore",
							"type": "uint256"
						},
						{
							"indexed": false,
							"internalType": "string",
							"name": "justificationIPFS",
							"type": "string"
						},
						{
							"indexed": false,
							"internalType": "string",
							"name": "modelVersion",
							"type": "string"
						},
						{
							"indexed": true,
							"internalType": "address",
							"name": "oracle",
							"type": "address"
						},
						{
							"indexed": false,
							"internalType": "uint256",
							"name": "timestamp",
							"type": "uint256"
						}
					],
					"name": "AIScoreSubmitted",
					"type": "event"
				},
				{
					"anonymous": false,
					"inputs": [
						{
							"indexed": false,
							"internalType": "string",
							"name": "modelVersion",
							"type": "string"
						},
						{
							"indexed": false,
							"internalType": "bool",
							"name": "supported",
							"type": "bool"
						}
					],
					"name": "ModelSupported",
					"type": "event"
				},
				{
					"anonymous": false,
					"inputs": [
						{
							"indexed": true,
							"internalType": "address",
							"name": "oracle",
							"type": "address"
						},
						{
							"indexed": false,
							"internalType": "bool",
							"name": "authorized",
							"type": "bool"
						}
					],
					"name": "OracleAuthorized",
					"type": "event"
				},
				{
					"anonymous": false,
					"inputs": [
						{
							"indexed": false,
							"internalType": "address",
							"name": "account",
							"type": "address"
						}
					],
					"name": "Paused",
					"type": "event"
				},
				{
					"anonymous": false,
					"inputs": [
						{
							"indexed": true,
							"internalType": "bytes32",
							"name": "role",
							"type": "bytes32"
						},
						{
							"indexed": true,
							"internalType": "bytes32",
							"name": "previousAdminRole",
							"type": "bytes32"
						},
						{
							"indexed": true,
							"internalType": "bytes32",
							"name": "newAdminRole",
							"type": "bytes32"
						}
					],
					"name": "RoleAdminChanged",
					"type": "event"
				},
				{
					"anonymous": false,
					"inputs": [
						{
							"indexed": true,
							"internalType": "bytes32",
							"name": "role",
							"type": "bytes32"
						},
						{
							"indexed": true,
							"internalType": "address",
							"name": "account",
							"type": "address"
						},
						{
							"indexed": true,
							"internalType": "address",
							"name": "sender",
							"type": "address"
						}
					],
					"name": "RoleGranted",
					"type": "event"
				},
				{
					"anonymous": false,
					"inputs": [
						{
							"indexed": true,
							"internalType": "bytes32",
							"name": "role",
							"type": "bytes32"
						},
						{
							"indexed": true,
							"internalType": "address",
							"name": "account",
							"type": "address"
						},
						{
							"indexed": true,
							"internalType": "address",
							"name": "sender",
							"type": "address"
						}
					],
					"name": "RoleRevoked",
					"type": "event"
				},
				{
					"anonymous": false,
					"inputs": [
						{
							"indexed": true,
							"internalType": "uint256",
							"name": "proposalId",
							"type": "uint256"
						},
						{
							"indexed": false,
							"internalType": "uint256",
							"name": "newScore",
							"type": "uint256"
						},
						{
							"indexed": false,
							"internalType": "string",
							"name": "reason",
							"type": "string"
						}
					],
					"name": "ScoreUpdated",
					"type": "event"
				},
				{
					"anonymous": false,
					"inputs": [
						{
							"components": [
								{
									"internalType": "uint8",
									"name": "ecosystemContribution",
									"type": "uint8"
								},
								{
									"internalType": "uint8",
									"name": "feasibility",
									"type": "uint8"
								},
								{
									"internalType": "uint8",
									"name": "riskAssessment",
									"type": "uint8"
								},
								{
									"internalType": "uint8",
									"name": "teamReputation",
									"type": "uint8"
								},
								{
									"internalType": "uint8",
									"name": "innovation",
									"type": "uint8"
								}
							],
							"indexed": false,
							"internalType": "struct AIScoreRegistry.ScoringCriteria",
							"name": "newCriteria",
							"type": "tuple"
						}
					],
					"name": "ScoringCriteriaUpdated",
					"type": "event"
				},
				{
					"anonymous": false,
					"inputs": [
						{
							"indexed": false,
							"internalType": "address",
							"name": "account",
							"type": "address"
						}
					],
					"name": "Unpaused",
					"type": "event"
				},
				{
					"inputs": [],
					"name": "ADMIN_ROLE",
					"outputs": [
						{
							"internalType": "bytes32",
							"name": "",
							"type": "bytes32"
						}
					],
					"stateMutability": "view",
					"type": "function"
				},
				{
					"inputs": [],
					"name": "AI_ORACLE_ROLE",
					"outputs": [
						{
							"internalType": "bytes32",
							"name": "",
							"type": "bytes32"
						}
					],
					"stateMutability": "view",
					"type": "function"
				},
				{
					"inputs": [],
					"name": "DEFAULT_ADMIN_ROLE",
					"outputs": [
						{
							"internalType": "bytes32",
							"name": "",
							"type": "bytes32"
						}
					],
					"stateMutability": "view",
					"type": "function"
				},
				{
					"inputs": [],
					"name": "DISPUTE_RESOLVER_ROLE",
					"outputs": [
						{
							"internalType": "bytes32",
							"name": "",
							"type": "bytes32"
						}
					],
					"stateMutability": "view",
					"type": "function"
				},
				{
					"inputs": [],
					"name": "MAX_SCORE",
					"outputs": [
						{
							"internalType": "uint256",
							"name": "",
							"type": "uint256"
						}
					],
					"stateMutability": "view",
					"type": "function"
				},
				{
					"inputs": [],
					"name": "MILESTONE_APPROVER_ROLE",
					"outputs": [
						{
							"internalType": "bytes32",
							"name": "",
							"type": "bytes32"
						}
					],
					"stateMutability": "view",
					"type": "function"
				},
				{
					"inputs": [],
					"name": "MIN_SCORE",
					"outputs": [
						{
							"internalType": "uint256",
							"name": "",
							"type": "uint256"
						}
					],
					"stateMutability": "view",
					"type": "function"
				},
				{
					"inputs": [],
					"name": "SCORE_VALIDITY_PERIOD",
					"outputs": [
						{
							"internalType": "uint256",
							"name": "",
							"type": "uint256"
						}
					],
					"stateMutability": "view",
					"type": "function"
				},
				{
					"inputs": [],
					"name": "TREASURY_MANAGER_ROLE",
					"outputs": [
						{
							"internalType": "bytes32",
							"name": "",
							"type": "bytes32"
						}
					],
					"stateMutability": "view",
					"type": "function"
				},
				{
					"inputs": [
						{
							"internalType": "address",
							"name": "",
							"type": "address"
						}
					],
					"name": "authorizedOracles",
					"outputs": [
						{
							"internalType": "bool",
							"name": "",
							"type": "bool"
						}
					],
					"stateMutability": "view",
					"type": "function"
				},
				{
					"inputs": [
						{
							"internalType": "uint256",
							"name": "proposalId",
							"type": "uint256"
						}
					],
					"name": "getAIScore",
					"outputs": [
						{
							"internalType": "uint256",
							"name": "score",
							"type": "uint256"
						},
						{
							"internalType": "string",
							"name": "justification",
							"type": "string"
						},
						{
							"internalType": "bool",
							"name": "exists",
							"type": "bool"
						}
					],
					"stateMutability": "view",
					"type": "function"
				},
				{
					"inputs": [],
					"name": "getAllRoles",
					"outputs": [
						{
							"internalType": "bytes32[]",
							"name": "roles",
							"type": "bytes32[]"
						}
					],
					"stateMutability": "pure",
					"type": "function"
				},
				{
					"inputs": [
						{
							"internalType": "uint256",
							"name": "proposalId",
							"type": "uint256"
						}
					],
					"name": "getDetailedAIScore",
					"outputs": [
						{
							"components": [
								{
									"internalType": "uint256",
									"name": "proposalId",
									"type": "uint256"
								},
								{
									"internalType": "uint256",
									"name": "overallScore",
									"type": "uint256"
								},
								{
									"internalType": "string",
									"name": "justificationIPFS",
									"type": "string"
								},
								{
									"internalType": "string",
									"name": "modelVersion",
									"type": "string"
								},
								{
									"internalType": "uint256",
									"name": "timestamp",
									"type": "uint256"
								},
								{
									"internalType": "address",
									"name": "oracle",
									"type": "address"
								},
								{
									"internalType": "bool",
									"name": "exists",
									"type": "bool"
								},
								{
									"components": [
										{
											"internalType": "uint8",
											"name": "ecosystemScore",
											"type": "uint8"
										},
										{
											"internalType": "uint8",
											"name": "feasibilityScore",
											"type": "uint8"
										},
										{
											"internalType": "uint8",
											"name": "riskScore",
											"type": "uint8"
										},
										{
											"internalType": "uint8",
											"name": "teamScore",
											"type": "uint8"
										},
										{
											"internalType": "uint8",
											"name": "innovationScore",
											"type": "uint8"
										}
									],
									"internalType": "struct IAIScoreRegistry.ScoringBreakdown",
									"name": "breakdown",
									"type": "tuple"
								}
							],
							"internalType": "struct AIScoreRegistry.AIScoreData",
							"name": "",
							"type": "tuple"
						}
					],
					"stateMutability": "view",
					"type": "function"
				},
				{
					"inputs": [
						{
							"internalType": "address",
							"name": "oracle",
							"type": "address"
						}
					],
					"name": "getOracleStats",
					"outputs": [
						{
							"internalType": "uint256",
							"name": "scoreCount",
							"type": "uint256"
						},
						{
							"internalType": "bool",
							"name": "isAuthorized",
							"type": "bool"
						}
					],
					"stateMutability": "view",
					"type": "function"
				},
				{
					"inputs": [
						{
							"internalType": "bytes32",
							"name": "role",
							"type": "bytes32"
						}
					],
					"name": "getRoleAdmin",
					"outputs": [
						{
							"internalType": "bytes32",
							"name": "",
							"type": "bytes32"
						}
					],
					"stateMutability": "view",
					"type": "function"
				},
				{
					"inputs": [
						{
							"internalType": "address",
							"name": "account",
							"type": "address"
						}
					],
					"name": "getRoleCount",
					"outputs": [
						{
							"internalType": "uint256",
							"name": "roleCount",
							"type": "uint256"
						}
					],
					"stateMutability": "view",
					"type": "function"
				},
				{
					"inputs": [
						{
							"internalType": "uint256",
							"name": "proposalId",
							"type": "uint256"
						}
					],
					"name": "getScoringBreakdown",
					"outputs": [
						{
							"components": [
								{
									"internalType": "uint8",
									"name": "ecosystemScore",
									"type": "uint8"
								},
								{
									"internalType": "uint8",
									"name": "feasibilityScore",
									"type": "uint8"
								},
								{
									"internalType": "uint8",
									"name": "riskScore",
									"type": "uint8"
								},
								{
									"internalType": "uint8",
									"name": "teamScore",
									"type": "uint8"
								},
								{
									"internalType": "uint8",
									"name": "innovationScore",
									"type": "uint8"
								}
							],
							"internalType": "struct IAIScoreRegistry.ScoringBreakdown",
							"name": "breakdown",
							"type": "tuple"
						}
					],
					"stateMutability": "view",
					"type": "function"
				},
				{
					"inputs": [
						{
							"internalType": "address",
							"name": "account",
							"type": "address"
						},
						{
							"internalType": "bytes32[]",
							"name": "roles",
							"type": "bytes32[]"
						}
					],
					"name": "grantMultipleRoles",
					"outputs": [],
					"stateMutability": "nonpayable",
					"type": "function"
				},
				{
					"inputs": [
						{
							"internalType": "bytes32",
							"name": "role",
							"type": "bytes32"
						},
						{
							"internalType": "address",
							"name": "account",
							"type": "address"
						}
					],
					"name": "grantRole",
					"outputs": [],
					"stateMutability": "nonpayable",
					"type": "function"
				},
				{
					"inputs": [
						{
							"internalType": "uint256",
							"name": "proposalId",
							"type": "uint256"
						}
					],
					"name": "hasAIScore",
					"outputs": [
						{
							"internalType": "bool",
							"name": "exists",
							"type": "bool"
						}
					],
					"stateMutability": "view",
					"type": "function"
				},
				{
					"inputs": [
						{
							"internalType": "address",
							"name": "account",
							"type": "address"
						},
						{
							"internalType": "bytes32[]",
							"name": "roles",
							"type": "bytes32[]"
						}
					],
					"name": "hasAnyRole",
					"outputs": [
						{
							"internalType": "bool",
							"name": "",
							"type": "bool"
						}
					],
					"stateMutability": "view",
					"type": "function"
				},
				{
					"inputs": [
						{
							"internalType": "bytes32",
							"name": "role",
							"type": "bytes32"
						},
						{
							"internalType": "address",
							"name": "account",
							"type": "address"
						}
					],
					"name": "hasRole",
					"outputs": [
						{
							"internalType": "bool",
							"name": "",
							"type": "bool"
						}
					],
					"stateMutability": "view",
					"type": "function"
				},
				{
					"inputs": [
						{
							"internalType": "address",
							"name": "",
							"type": "address"
						}
					],
					"name": "oracleScoreCount",
					"outputs": [
						{
							"internalType": "uint256",
							"name": "",
							"type": "uint256"
						}
					],
					"stateMutability": "view",
					"type": "function"
				},
				{
					"inputs": [],
					"name": "pause",
					"outputs": [],
					"stateMutability": "nonpayable",
					"type": "function"
				},
				{
					"inputs": [],
					"name": "paused",
					"outputs": [
						{
							"internalType": "bool",
							"name": "",
							"type": "bool"
						}
					],
					"stateMutability": "view",
					"type": "function"
				},
				{
					"inputs": [
						{
							"internalType": "uint256",
							"name": "proposalId",
							"type": "uint256"
						},
						{
							"internalType": "string",
							"name": "reason",
							"type": "string"
						}
					],
					"name": "removeScore",
					"outputs": [],
					"stateMutability": "nonpayable",
					"type": "function"
				},
				{
					"inputs": [
						{
							"internalType": "bytes32",
							"name": "role",
							"type": "bytes32"
						},
						{
							"internalType": "address",
							"name": "callerConfirmation",
							"type": "address"
						}
					],
					"name": "renounceRole",
					"outputs": [],
					"stateMutability": "nonpayable",
					"type": "function"
				},
				{
					"inputs": [
						{
							"internalType": "address",
							"name": "account",
							"type": "address"
						},
						{
							"internalType": "bytes32[]",
							"name": "roles",
							"type": "bytes32[]"
						}
					],
					"name": "revokeMultipleRoles",
					"outputs": [],
					"stateMutability": "nonpayable",
					"type": "function"
				},
				{
					"inputs": [
						{
							"internalType": "bytes32",
							"name": "role",
							"type": "bytes32"
						},
						{
							"internalType": "address",
							"name": "account",
							"type": "address"
						}
					],
					"name": "revokeRole",
					"outputs": [],
					"stateMutability": "nonpayable",
					"type": "function"
				},
				{
					"inputs": [],
					"name": "scoringWeights",
					"outputs": [
						{
							"internalType": "uint8",
							"name": "ecosystemContribution",
							"type": "uint8"
						},
						{
							"internalType": "uint8",
							"name": "feasibility",
							"type": "uint8"
						},
						{
							"internalType": "uint8",
							"name": "riskAssessment",
							"type": "uint8"
						},
						{
							"internalType": "uint8",
							"name": "teamReputation",
							"type": "uint8"
						},
						{
							"internalType": "uint8",
							"name": "innovation",
							"type": "uint8"
						}
					],
					"stateMutability": "view",
					"type": "function"
				},
				{
					"inputs": [
						{
							"internalType": "address",
							"name": "oracle",
							"type": "address"
						},
						{
							"internalType": "bool",
							"name": "authorized",
							"type": "bool"
						}
					],
					"name": "setOracleAuthorization",
					"outputs": [],
					"stateMutability": "nonpayable",
					"type": "function"
				},
				{
					"inputs": [
						{
							"internalType": "string",
							"name": "modelVersion",
							"type": "string"
						},
						{
							"internalType": "bool",
							"name": "supported",
							"type": "bool"
						}
					],
					"name": "setSupportedModel",
					"outputs": [],
					"stateMutability": "nonpayable",
					"type": "function"
				},
				{
					"inputs": [
						{
							"internalType": "uint256",
							"name": "proposalId",
							"type": "uint256"
						},
						{
							"internalType": "uint256",
							"name": "overallScore",
							"type": "uint256"
						},
						{
							"internalType": "string",
							"name": "justificationIPFS",
							"type": "string"
						},
						{
							"internalType": "string",
							"name": "modelVersion",
							"type": "string"
						},
						{
							"components": [
								{
									"internalType": "uint8",
									"name": "ecosystemScore",
									"type": "uint8"
								},
								{
									"internalType": "uint8",
									"name": "feasibilityScore",
									"type": "uint8"
								},
								{
									"internalType": "uint8",
									"name": "riskScore",
									"type": "uint8"
								},
								{
									"internalType": "uint8",
									"name": "teamScore",
									"type": "uint8"
								},
								{
									"internalType": "uint8",
									"name": "innovationScore",
									"type": "uint8"
								}
							],
							"internalType": "struct IAIScoreRegistry.ScoringBreakdown",
							"name": "breakdown",
							"type": "tuple"
						}
					],
					"name": "submitAIScore",
					"outputs": [],
					"stateMutability": "nonpayable",
					"type": "function"
				},
				{
					"inputs": [
						{
							"internalType": "string",
							"name": "",
							"type": "string"
						}
					],
					"name": "supportedModels",
					"outputs": [
						{
							"internalType": "bool",
							"name": "",
							"type": "bool"
						}
					],
					"stateMutability": "view",
					"type": "function"
				},
				{
					"inputs": [
						{
							"internalType": "bytes4",
							"name": "interfaceId",
							"type": "bytes4"
						}
					],
					"name": "supportsInterface",
					"outputs": [
						{
							"internalType": "bool",
							"name": "",
							"type": "bool"
						}
					],
					"stateMutability": "view",
					"type": "function"
				},
				{
					"inputs": [],
					"name": "totalScoresSubmitted",
					"outputs": [
						{
							"internalType": "uint256",
							"name": "",
							"type": "uint256"
						}
					],
					"stateMutability": "view",
					"type": "function"
				},
				{
					"inputs": [],
					"name": "unpause",
					"outputs": [],
					"stateMutability": "nonpayable",
					"type": "function"
				},
				{
					"inputs": [
						{
							"internalType": "uint256",
							"name": "proposalId",
							"type": "uint256"
						},
						{
							"internalType": "uint256",
							"name": "newScore",
							"type": "uint256"
						},
						{
							"internalType": "string",
							"name": "newJustificationIPFS",
							"type": "string"
						},
						{
							"internalType": "string",
							"name": "reason",
							"type": "string"
						}
					],
					"name": "updateAIScore",
					"outputs": [],
					"stateMutability": "nonpayable",
					"type": "function"
				},
				{
					"inputs": [
						{
							"components": [
								{
									"internalType": "uint8",
									"name": "ecosystemContribution",
									"type": "uint8"
								},
								{
									"internalType": "uint8",
									"name": "feasibility",
									"type": "uint8"
								},
								{
									"internalType": "uint8",
									"name": "riskAssessment",
									"type": "uint8"
								},
								{
									"internalType": "uint8",
									"name": "teamReputation",
									"type": "uint8"
								},
								{
									"internalType": "uint8",
									"name": "innovation",
									"type": "uint8"
								}
							],
							"internalType": "struct AIScoreRegistry.ScoringCriteria",
							"name": "newCriteria",
							"type": "tuple"
						}
					],
					"name": "updateScoringCriteria",
					"outputs": [],
					"stateMutability": "nonpayable",
					"type": "function"
				}
			],
			"devdoc": {
				"author": "CrossFi Treasury Guard Team",
				"details": "Stores AI-generated scores and IPFS CIDs for proposal analysis",
				"errors": {
					"AccessControlBadConfirmation()": [
						{
							"details": "The caller of a function is not the expected one. NOTE: Don't confuse with {AccessControlUnauthorizedAccount}."
						}
					],
					"AccessControlUnauthorizedAccount(address,bytes32)": [
						{
							"details": "The `account` is missing a role."
						}
					]
				},
				"events": {
					"Paused(address)": {
						"details": "Emitted when the pause is triggered by `account`."
					},
					"RoleAdminChanged(bytes32,bytes32,bytes32)": {
						"details": "Emitted when `newAdminRole` is set as ``role``'s admin role, replacing `previousAdminRole` `DEFAULT_ADMIN_ROLE` is the starting admin for all roles, despite {RoleAdminChanged} not being emitted to signal this."
					},
					"RoleGranted(bytes32,address,address)": {
						"details": "Emitted when `account` is granted `role`. `sender` is the account that originated the contract call. This account bears the admin role (for the granted role). Expected in cases where the role was granted using the internal {AccessControl-_grantRole}."
					},
					"RoleRevoked(bytes32,address,address)": {
						"details": "Emitted when `account` is revoked `role`. `sender` is the account that originated the contract call:   - if using `revokeRole`, it is the admin role bearer   - if using `renounceRole`, it is the role bearer (i.e. `account`)"
					},
					"Unpaused(address)": {
						"details": "Emitted when the pause is lifted by `account`."
					}
				},
				"kind": "dev",
				"methods": {
					"getAIScore(uint256)": {
						"details": "Get AI score for a proposal",
						"params": {
							"proposalId": "The proposal ID"
						},
						"returns": {
							"exists": "Whether score exists",
							"justification": "IPFS CID for detailed analysis",
							"score": "Overall AI score"
						}
					},
					"getAllRoles()": {
						"details": "Get all available roles",
						"returns": {
							"roles": "Array of all role identifiers"
						}
					},
					"getDetailedAIScore(uint256)": {
						"details": "Get detailed AI score data",
						"params": {
							"proposalId": "The proposal ID"
						},
						"returns": {
							"_0": "Complete AI score data structure"
						}
					},
					"getOracleStats(address)": {
						"details": "Get oracle statistics",
						"params": {
							"oracle": "Oracle address"
						},
						"returns": {
							"isAuthorized": "Whether oracle is authorized",
							"scoreCount": "Number of scores submitted by oracle"
						}
					},
					"getRoleAdmin(bytes32)": {
						"details": "Returns the admin role that controls `role`. See {grantRole} and {revokeRole}. To change a role's admin, use {_setRoleAdmin}."
					},
					"getRoleCount(address)": {
						"details": "Get all roles for an account",
						"params": {
							"account": "Account to check"
						},
						"returns": {
							"roleCount": "Number of roles the account has"
						}
					},
					"getScoringBreakdown(uint256)": {
						"details": "Get scoring breakdown for a proposal",
						"params": {
							"proposalId": "The proposal ID"
						},
						"returns": {
							"breakdown": "Detailed scoring breakdown"
						}
					},
					"grantMultipleRoles(address,bytes32[])": {
						"details": "Grant multiple roles to an account",
						"params": {
							"account": "Account to grant roles to",
							"roles": "Array of role identifiers"
						}
					},
					"grantRole(bytes32,address)": {
						"details": "Grants `role` to `account`. If `account` had not been already granted `role`, emits a {RoleGranted} event. Requirements: - the caller must have ``role``'s admin role. May emit a {RoleGranted} event."
					},
					"hasAIScore(uint256)": {
						"details": "Check if AI score exists for a proposal",
						"params": {
							"proposalId": "The proposal ID"
						},
						"returns": {
							"exists": "Whether score exists"
						}
					},
					"hasAnyRole(address,bytes32[])": {
						"details": "Check if account has any of the specified roles",
						"params": {
							"account": "Account to check",
							"roles": "Array of role identifiers"
						},
						"returns": {
							"_0": "hasAnyRole True if account has at least one of the roles"
						}
					},
					"hasRole(bytes32,address)": {
						"details": "Returns `true` if `account` has been granted `role`."
					},
					"paused()": {
						"details": "Returns true if the contract is paused, and false otherwise."
					},
					"removeScore(uint256,string)": {
						"details": "Emergency function to remove invalid score",
						"params": {
							"proposalId": "The proposal ID",
							"reason": "Reason for removal"
						}
					},
					"renounceRole(bytes32,address)": {
						"details": "Revokes `role` from the calling account. Roles are often managed via {grantRole} and {revokeRole}: this function's purpose is to provide a mechanism for accounts to lose their privileges if they are compromised (such as when a trusted device is misplaced). If the calling account had been revoked `role`, emits a {RoleRevoked} event. Requirements: - the caller must be `callerConfirmation`. May emit a {RoleRevoked} event."
					},
					"revokeMultipleRoles(address,bytes32[])": {
						"details": "Revoke multiple roles from an account",
						"params": {
							"account": "Account to revoke roles from",
							"roles": "Array of role identifiers"
						}
					},
					"revokeRole(bytes32,address)": {
						"details": "Revokes `role` from `account`. If `account` had been granted `role`, emits a {RoleRevoked} event. Requirements: - the caller must have ``role``'s admin role. May emit a {RoleRevoked} event."
					},
					"setOracleAuthorization(address,bool)": {
						"details": "Authorize or deauthorize an AI oracle",
						"params": {
							"authorized": "Authorization status",
							"oracle": "Oracle address"
						}
					},
					"setSupportedModel(string,bool)": {
						"details": "Add or remove supported AI model",
						"params": {
							"modelVersion": "Model version string",
							"supported": "Whether model is supported"
						}
					},
					"submitAIScore(uint256,uint256,string,string,(uint8,uint8,uint8,uint8,uint8))": {
						"details": "Submit AI-generated score for a proposal",
						"params": {
							"breakdown": "Detailed scoring breakdown",
							"justificationIPFS": "IPFS CID containing detailed analysis",
							"modelVersion": "AI model version used",
							"overallScore": "Overall AI score (0-100)",
							"proposalId": "The proposal ID"
						}
					},
					"supportsInterface(bytes4)": {
						"details": "Returns true if this contract implements the interface defined by `interfaceId`. See the corresponding https://eips.ethereum.org/EIPS/eip-165#how-interfaces-are-identified[ERC section] to learn more about how these ids are created. This function call must use less than 30 000 gas."
					},
					"updateAIScore(uint256,uint256,string,string)": {
						"details": "Update existing AI score (only within validity period)",
						"params": {
							"newJustificationIPFS": "New IPFS CID for updated analysis",
							"newScore": "New overall score",
							"proposalId": "The proposal ID",
							"reason": "Reason for score update"
						}
					},
					"updateScoringCriteria((uint8,uint8,uint8,uint8,uint8))": {
						"details": "Update scoring criteria weights",
						"params": {
							"newCriteria": "New scoring criteria"
						}
					}
				},
				"title": "AIScoreRegistry",
				"version": 1
			},
			"evm": {
				"assembly": "    /* \"CrossFi-Treasury-Guard/contracts/AIScoreRegistry.sol\":410:10788  contract AIScoreRegistry is IAIScoreRegistry, ExtendedAccessControl, Pausable, ReentrancyGuard {... */\n  0x40\n  0x80\n  dup2\n  mstore\n  jumpi(tag_4, callvalue)\n    /* \"CrossFi-Treasury-Guard/contracts/utils/ExtendedAccessControl.sol\":744:786  _grantRole(DEFAULT_ADMIN_ROLE, msg.sender) */\n  tag_6\n    /* \"CrossFi-Treasury-Guard/contracts/utils/ExtendedAccessControl.sol\":775:785  msg.sender */\n  caller\n    /* \"CrossFi-Treasury-Guard/contracts/utils/ExtendedAccessControl.sol\":744:786  _grantRole(DEFAULT_ADMIN_ROLE, msg.sender) */\n  tag_1\n  jump\t// in\ntag_6:\n  pop\n    /* \"CrossFi-Treasury-Guard/contracts/utils/ExtendedAccessControl.sol\":413:440  keccak256(\"AI_ORACLE_ROLE\") */\n  not(0xff)\n  dup1\n    /* \"@openzeppelin/contracts/security/Pausable.sol\":996:1011  _paused = false */\n  0x01\n    /* \"CrossFi-Treasury-Guard/contracts/utils/ExtendedAccessControl.sol\":413:440  keccak256(\"AI_ORACLE_ROLE\") */\n  sload\n  and\n    /* \"@openzeppelin/contracts/security/Pausable.sol\":996:1011  _paused = false */\n  0x01\n    /* \"CrossFi-Treasury-Guard/contracts/utils/ExtendedAccessControl.sol\":413:440  keccak256(\"AI_ORACLE_ROLE\") */\n  sstore\n    /* \"@openzeppelin/contracts/security/Pausable.sol\":996:1011  _paused = false */\n  0x01\n    /* \"@openzeppelin/contracts/security/ReentrancyGuard.sol\":1821:1843  _status = _NOT_ENTERED */\n  0x02\n    /* \"@openzeppelin/contracts/security/ReentrancyGuard.sol\":1716:1717  1 */\n  sstore\n    /* \"CrossFi-Treasury-Guard/contracts/AIScoreRegistry.sol\":2174:2216  _grantRole(DEFAULT_ADMIN_ROLE, msg.sender) */\n  tag_7\n    /* \"CrossFi-Treasury-Guard/contracts/utils/ExtendedAccessControl.sol\":775:785  msg.sender */\n  caller\n    /* \"CrossFi-Treasury-Guard/contracts/AIScoreRegistry.sol\":2174:2216  _grantRole(DEFAULT_ADMIN_ROLE, msg.sender) */\n  tag_1\n  jump\t// in\ntag_7:\n  pop\n    /* \"CrossFi-Treasury-Guard/contracts/AIScoreRegistry.sol\":2226:2260  _grantRole(ADMIN_ROLE, msg.sender) */\n  tag_8\n    /* \"CrossFi-Treasury-Guard/contracts/utils/ExtendedAccessControl.sol\":775:785  msg.sender */\n  caller\n    /* \"CrossFi-Treasury-Guard/contracts/AIScoreRegistry.sol\":2226:2260  _grantRole(ADMIN_ROLE, msg.sender) */\n  tag_2\n  jump\t// in\ntag_8:\n  pop\n    /* \"CrossFi-Treasury-Guard/contracts/AIScoreRegistry.sol\":2270:2308  _grantRole(AI_ORACLE_ROLE, msg.sender) */\n  tag_9\n    /* \"CrossFi-Treasury-Guard/contracts/utils/ExtendedAccessControl.sol\":775:785  msg.sender */\n  caller\n    /* \"CrossFi-Treasury-Guard/contracts/AIScoreRegistry.sol\":2270:2308  _grantRole(AI_ORACLE_ROLE, msg.sender) */\n  tag_3\n  jump\t// in\ntag_9:\n  pop\n    /* \"CrossFi-Treasury-Guard/contracts/AIScoreRegistry.sol\":410:10788  contract AIScoreRegistry is IAIScoreRegistry, ExtendedAccessControl, Pausable, ReentrancyGuard {... */\n  dup2\n  mload\n    /* \"CrossFi-Treasury-Guard/contracts/utils/ExtendedAccessControl.sol\":413:440  keccak256(\"AI_ORACLE_ROLE\") */\n  0xa0\n  dup2\n  add\n  sub(shl(0x40, 0x01), 0x01)\n  dup2\n  gt\n  dup3\n  dup3\n  lt\n  or\n  tag_10\n  jumpi\n    /* \"CrossFi-Treasury-Guard/contracts/AIScoreRegistry.sol\":2537:2539  15 */\n  0x0f\n    /* \"CrossFi-Treasury-Guard/contracts/utils/ExtendedAccessControl.sol\":413:440  keccak256(\"AI_ORACLE_ROLE\") */\n  swap2\n    /* \"CrossFi-Treasury-Guard/contracts/AIScoreRegistry.sol\":2391:2578  ScoringCriteria({... */\n  0x80\n    /* \"CrossFi-Treasury-Guard/contracts/utils/ExtendedAccessControl.sol\":413:440  keccak256(\"AI_ORACLE_ROLE\") */\n  swap2\n  dup6\n  mstore\n    /* \"CrossFi-Treasury-Guard/contracts/AIScoreRegistry.sol\":2444:2446  25 */\n  0x19\n    /* \"CrossFi-Treasury-Guard/contracts/utils/ExtendedAccessControl.sol\":413:440  keccak256(\"AI_ORACLE_ROLE\") */\n  dup2\n  mstore\n    /* \"CrossFi-Treasury-Guard/contracts/AIScoreRegistry.sol\":2444:2446  25 */\n  0x19\n    /* \"CrossFi-Treasury-Guard/contracts/AIScoreRegistry.sol\":2391:2578  ScoringCriteria({... */\n  0x20\n  dup3\n  add\n    /* \"CrossFi-Treasury-Guard/contracts/utils/ExtendedAccessControl.sol\":413:440  keccak256(\"AI_ORACLE_ROLE\") */\n  mstore\n    /* \"CrossFi-Treasury-Guard/contracts/AIScoreRegistry.sol\":2505:2507  20 */\n  0x14\n    /* \"CrossFi-Treasury-Guard/contracts/AIScoreRegistry.sol\":2391:2578  ScoringCriteria({... */\n  dup6\n  dup3\n  add\n    /* \"CrossFi-Treasury-Guard/contracts/utils/ExtendedAccessControl.sol\":413:440  keccak256(\"AI_ORACLE_ROLE\") */\n  mstore\n    /* \"CrossFi-Treasury-Guard/contracts/AIScoreRegistry.sol\":2391:2578  ScoringCriteria({... */\n  dup3\n  0x60\n  dup3\n  add\n    /* \"CrossFi-Treasury-Guard/contracts/utils/ExtendedAccessControl.sol\":413:440  keccak256(\"AI_ORACLE_ROLE\") */\n  mstore\n    /* \"CrossFi-Treasury-Guard/contracts/AIScoreRegistry.sol\":2391:2578  ScoringCriteria({... */\n  add\n    /* \"CrossFi-Treasury-Guard/contracts/utils/ExtendedAccessControl.sol\":413:440  keccak256(\"AI_ORACLE_ROLE\") */\n  mstore\n  0x0f0f141919\n  not(0xffffffffff)\n    /* \"CrossFi-Treasury-Guard/contracts/AIScoreRegistry.sol\":2374:2578  scoringWeights = ScoringCriteria({... */\n  0x06\n    /* \"CrossFi-Treasury-Guard/contracts/utils/ExtendedAccessControl.sol\":413:440  keccak256(\"AI_ORACLE_ROLE\") */\n  sload\n  and\n  or\n    /* \"CrossFi-Treasury-Guard/contracts/AIScoreRegistry.sol\":2374:2578  scoringWeights = ScoringCriteria({... */\n  0x06\n    /* \"CrossFi-Treasury-Guard/contracts/utils/ExtendedAccessControl.sol\":413:440  keccak256(\"AI_ORACLE_ROLE\") */\n  sstore\n  0x25\n    /* \"CrossFi-Treasury-Guard/contracts/AIScoreRegistry.sol\":410:10788  contract AIScoreRegistry is IAIScoreRegistry, ExtendedAccessControl, Pausable, ReentrancyGuard {... */\n  dup3\n  mload\n  shl(0xda, 0x11d4150b4d)\n    /* \"CrossFi-Treasury-Guard/contracts/utils/ExtendedAccessControl.sol\":413:440  keccak256(\"AI_ORACLE_ROLE\") */\n  dup2\n  mstore\n    /* \"CrossFi-Treasury-Guard/contracts/AIScoreRegistry.sol\":2633:2648  supportedModels */\n  0x05\n    /* \"CrossFi-Treasury-Guard/contracts/utils/ExtendedAccessControl.sol\":413:440  keccak256(\"AI_ORACLE_ROLE\") */\n  dup1\n  dup3\n  add\n  mstore\n  keccak256\n    /* \"@openzeppelin/contracts/security/Pausable.sol\":996:1011  _paused = false */\n  0x01\n    /* \"CrossFi-Treasury-Guard/contracts/utils/ExtendedAccessControl.sol\":413:440  keccak256(\"AI_ORACLE_ROLE\") */\n  dup3\n  dup3\n  sload\n  and\n  or\n  swap1\n  sstore\n    /* \"@openzeppelin/contracts/security/Pausable.sol\":996:1011  _paused = false */\n  0x01\n    /* \"CrossFi-Treasury-Guard/contracts/utils/ExtendedAccessControl.sol\":413:440  keccak256(\"AI_ORACLE_ROLE\") */\n  0x28\n    /* \"CrossFi-Treasury-Guard/contracts/AIScoreRegistry.sol\":410:10788  contract AIScoreRegistry is IAIScoreRegistry, ExtendedAccessControl, Pausable, ReentrancyGuard {... */\n  dup4\n  mload\n  shl(0xc0, 0x436c617564652d33)\n    /* \"CrossFi-Treasury-Guard/contracts/utils/ExtendedAccessControl.sol\":413:440  keccak256(\"AI_ORACLE_ROLE\") */\n  dup2\n  mstore\n    /* \"CrossFi-Treasury-Guard/contracts/AIScoreRegistry.sol\":2633:2648  supportedModels */\n  0x05\n    /* \"CrossFi-Treasury-Guard/contracts/utils/ExtendedAccessControl.sol\":413:440  keccak256(\"AI_ORACLE_ROLE\") */\n  0x08\n  dup3\n  add\n  mstore\n  keccak256\n  swap2\n  dup3\n  sload\n  and\n  or\n  swap1\n  sstore\n    /* \"CrossFi-Treasury-Guard/contracts/AIScoreRegistry.sol\":410:10788  contract AIScoreRegistry is IAIScoreRegistry, ExtendedAccessControl, Pausable, ReentrancyGuard {... */\n  mload\n  dataSize(sub_0)\n  swap1\n  dup2\n  dataOffset(sub_0)\n  dup3\n  codecopy\n  return\n    /* \"CrossFi-Treasury-Guard/contracts/utils/ExtendedAccessControl.sol\":413:440  keccak256(\"AI_ORACLE_ROLE\") */\ntag_10:\n  shl(0xe0, 0x4e487b71)\n    /* \"@openzeppelin/contracts/access/AccessControl.sol\":2241:2245  0x00 */\n  0x00\n    /* \"CrossFi-Treasury-Guard/contracts/utils/ExtendedAccessControl.sol\":413:440  keccak256(\"AI_ORACLE_ROLE\") */\n  mstore\n  mstore(0x04, 0x41)\n  0x24\n    /* \"@openzeppelin/contracts/access/AccessControl.sol\":2241:2245  0x00 */\n  0x00\n    /* \"CrossFi-Treasury-Guard/contracts/utils/ExtendedAccessControl.sol\":413:440  keccak256(\"AI_ORACLE_ROLE\") */\n  revert\n    /* \"CrossFi-Treasury-Guard/contracts/AIScoreRegistry.sol\":410:10788  contract AIScoreRegistry is IAIScoreRegistry, ExtendedAccessControl, Pausable, ReentrancyGuard {... */\ntag_4:\n  0x00\n  dup1\n  revert\n    /* \"@openzeppelin/contracts/access/AccessControl.sol\":6155:6471  function _grantRole(bytes32 role, address account) internal virtual returns (bool) {... */\ntag_1:\n  sub(shl(0xa0, 0x01), 0x01)\n    /* \"CrossFi-Treasury-Guard/contracts/AIScoreRegistry.sol\":410:10788  contract AIScoreRegistry is IAIScoreRegistry, ExtendedAccessControl, Pausable, ReentrancyGuard {... */\n  and\n    /* \"@openzeppelin/contracts/access/AccessControl.sol\":2241:2245  0x00 */\n  0x00\n    /* \"CrossFi-Treasury-Guard/contracts/AIScoreRegistry.sol\":410:10788  contract AIScoreRegistry is IAIScoreRegistry, ExtendedAccessControl, Pausable, ReentrancyGuard {... */\n  dup2\n  dup2\n  mstore\n  mstore(0x20, 0xad3228b676f7d3cd4284a5443f17f1962b36e491b30a40b2405849e597ba5fb5)\n  0x40\n  dup2\n  keccak256\n  sload\n    /* \"@openzeppelin/contracts/access/AccessControl.sol\":2241:2245  0x00 */\n  swap1\n  swap2\n    /* \"CrossFi-Treasury-Guard/contracts/AIScoreRegistry.sol\":410:10788  contract AIScoreRegistry is IAIScoreRegistry, ExtendedAccessControl, Pausable, ReentrancyGuard {... */\n  swap1\n    /* \"CrossFi-Treasury-Guard/contracts/utils/ExtendedAccessControl.sol\":413:440  keccak256(\"AI_ORACLE_ROLE\") */\n  0xff\n  and\n  tag_12\n  jumpi\n    /* \"CrossFi-Treasury-Guard/contracts/AIScoreRegistry.sol\":410:10788  contract AIScoreRegistry is IAIScoreRegistry, ExtendedAccessControl, Pausable, ReentrancyGuard {... */\n  dup2\n  dup1\n  mstore\n  dup2\n  0x20\n  mstore\n  0x40\n  dup3\n  keccak256\n  dup2\n  dup4\n  mstore\n  0x20\n  mstore\n  0x40\n  dup3\n  keccak256\n    /* \"CrossFi-Treasury-Guard/contracts/utils/ExtendedAccessControl.sol\":413:440  keccak256(\"AI_ORACLE_ROLE\") */\n  0x01\n  not(0xff)\n  dup3\n  sload\n  and\n  or\n  swap1\n  sstore\n    /* \"@openzeppelin/contracts/utils/Context.sol\":735:745  msg.sender */\n  caller\n    /* \"@openzeppelin/contracts/access/AccessControl.sol\":6346:6386  RoleGranted(role, account, _msgSender()) */\n  swap2\n  0x00\n  dup1\n  mload\n  0x20\n  data_01400fe2f234cf888b5e4c66700c7903f33f31bfc9675e51cb0119f915eb534d\n  dup4\n  codecopy\n  dup2\n  mload\n  swap2\n  mstore\n  dup2\n  dup1\n  log4\n    /* \"CrossFi-Treasury-Guard/contracts/utils/ExtendedAccessControl.sol\":413:440  keccak256(\"AI_ORACLE_ROLE\") */\n  0x01\n    /* \"@openzeppelin/contracts/access/AccessControl.sol\":6400:6411  return true */\n  swap1\n  jump\t// out\n    /* \"@openzeppelin/contracts/access/AccessControl.sol\":6248:6465  if (!hasRole(role, account)) {... */\ntag_12:\n    /* \"@openzeppelin/contracts/access/AccessControl.sol\":6442:6454  return false */\n  pop\n  swap1\n  jump\t// out\n    /* \"@openzeppelin/contracts/access/AccessControl.sol\":6155:6471  function _grantRole(bytes32 role, address account) internal virtual returns (bool) {... */\ntag_2:\n  sub(shl(0xa0, 0x01), 0x01)\n    /* \"CrossFi-Treasury-Guard/contracts/AIScoreRegistry.sol\":410:10788  contract AIScoreRegistry is IAIScoreRegistry, ExtendedAccessControl, Pausable, ReentrancyGuard {... */\n  and\n    /* \"@openzeppelin/contracts/access/AccessControl.sol\":2930:2936  _roles */\n  0x00\n    /* \"CrossFi-Treasury-Guard/contracts/AIScoreRegistry.sol\":410:10788  contract AIScoreRegistry is IAIScoreRegistry, ExtendedAccessControl, Pausable, ReentrancyGuard {... */\n  dup2\n  dup2\n  mstore\n  mstore(0x20, 0x7d7ffb7a348e1c6a02869081a26547b49160dd3df72d1d75a570eb9b698292ec)\n  0x40\n  dup2\n  keccak256\n  sload\n    /* \"@openzeppelin/contracts/access/AccessControl.sol\":2930:2936  _roles */\n  swap1\n  swap2\n    /* \"CrossFi-Treasury-Guard/contracts/AIScoreRegistry.sol\":410:10788  contract AIScoreRegistry is IAIScoreRegistry, ExtendedAccessControl, Pausable, ReentrancyGuard {... */\n  swap1\n    /* \"CrossFi-Treasury-Guard/contracts/utils/ExtendedAccessControl.sol\":343:366  keccak256(\"ADMIN_ROLE\") */\n  0xa49807205ce4d355092ef5a8a18f56e8913cf4a201fbe287825b095693c21775\n  swap1\n    /* \"CrossFi-Treasury-Guard/contracts/utils/ExtendedAccessControl.sol\":413:440  keccak256(\"AI_ORACLE_ROLE\") */\n  0xff\n  and\n  tag_14\n  jumpi\n    /* \"CrossFi-Treasury-Guard/contracts/AIScoreRegistry.sol\":410:10788  contract AIScoreRegistry is IAIScoreRegistry, ExtendedAccessControl, Pausable, ReentrancyGuard {... */\n  dup1\n  dup4\n  mstore\n  dup3\n  0x20\n  mstore\n  0x40\n  dup4\n  keccak256\n  dup3\n  dup5\n  mstore\n  0x20\n  mstore\n  0x40\n  dup4\n  keccak256\n    /* \"CrossFi-Treasury-Guard/contracts/utils/ExtendedAccessControl.sol\":413:440  keccak256(\"AI_ORACLE_ROLE\") */\n  0x01\n  not(0xff)\n  dup3\n  sload\n  and\n  or\n  swap1\n  sstore\n  0x00\n  dup1\n  mload\n  0x20\n  data_01400fe2f234cf888b5e4c66700c7903f33f31bfc9675e51cb0119f915eb534d\n  dup4\n  codecopy\n  dup2\n  mload\n  swap2\n  mstore\n    /* \"@openzeppelin/contracts/utils/Context.sol\":735:745  msg.sender */\n  caller\n    /* \"@openzeppelin/contracts/access/AccessControl.sol\":6346:6386  RoleGranted(role, account, _msgSender()) */\n  swap4\n  dup1\n  log4\n    /* \"CrossFi-Treasury-Guard/contracts/utils/ExtendedAccessControl.sol\":413:440  keccak256(\"AI_ORACLE_ROLE\") */\n  0x01\n    /* \"@openzeppelin/contracts/access/AccessControl.sol\":6400:6411  return true */\n  swap1\n  jump\t// out\n    /* \"@openzeppelin/contracts/access/AccessControl.sol\":6248:6465  if (!hasRole(role, account)) {... */\ntag_14:\n    /* \"@openzeppelin/contracts/access/AccessControl.sol\":6442:6454  return false */\n  pop\n  pop\n  swap1\n  jump\t// out\n    /* \"@openzeppelin/contracts/access/AccessControl.sol\":6155:6471  function _grantRole(bytes32 role, address account) internal virtual returns (bool) {... */\ntag_3:\n  sub(shl(0xa0, 0x01), 0x01)\n    /* \"CrossFi-Treasury-Guard/contracts/AIScoreRegistry.sol\":410:10788  contract AIScoreRegistry is IAIScoreRegistry, ExtendedAccessControl, Pausable, ReentrancyGuard {... */\n  and\n    /* \"@openzeppelin/contracts/access/AccessControl.sol\":2930:2936  _roles */\n  0x00\n    /* \"CrossFi-Treasury-Guard/contracts/AIScoreRegistry.sol\":410:10788  contract AIScoreRegistry is IAIScoreRegistry, ExtendedAccessControl, Pausable, ReentrancyGuard {... */\n  dup2\n  dup2\n  mstore\n  mstore(0x20, 0xc1c604b5add75b59252bca1e4e4ec4ab21f3921b1ddcf7a43abe69724bce555d)\n  0x40\n  dup2\n  keccak256\n  sload\n    /* \"@openzeppelin/contracts/access/AccessControl.sol\":2930:2936  _roles */\n  swap1\n  swap2\n    /* \"CrossFi-Treasury-Guard/contracts/AIScoreRegistry.sol\":410:10788  contract AIScoreRegistry is IAIScoreRegistry, ExtendedAccessControl, Pausable, ReentrancyGuard {... */\n  swap1\n    /* \"CrossFi-Treasury-Guard/contracts/utils/ExtendedAccessControl.sol\":413:440  keccak256(\"AI_ORACLE_ROLE\") */\n  0x482648e7878e9fa54c0a2f67ffd22d00ebc37cf7a03e060e428d2ab0cd6735cc\n  swap1\n  0xff\n  and\n  tag_14\n  jumpi\n    /* \"CrossFi-Treasury-Guard/contracts/AIScoreRegistry.sol\":410:10788  contract AIScoreRegistry is IAIScoreRegistry, ExtendedAccessControl, Pausable, ReentrancyGuard {... */\n  dup1\n  dup4\n  mstore\n  dup3\n  0x20\n  mstore\n  0x40\n  dup4\n  keccak256\n  dup3\n  dup5\n  mstore\n  0x20\n  mstore\n  0x40\n  dup4\n  keccak256\n    /* \"CrossFi-Treasury-Guard/contracts/utils/ExtendedAccessControl.sol\":413:440  keccak256(\"AI_ORACLE_ROLE\") */\n  0x01\n  not(0xff)\n  dup3\n  sload\n  and\n  or\n  swap1\n  sstore\n  0x00\n  dup1\n  mload\n  0x20\n  data_01400fe2f234cf888b5e4c66700c7903f33f31bfc9675e51cb0119f915eb534d\n  dup4\n  codecopy\n  dup2\n  mload\n  swap2\n  mstore\n    /* \"@openzeppelin/contracts/utils/Context.sol\":735:745  msg.sender */\n  caller\n    /* \"@openzeppelin/contracts/access/AccessControl.sol\":6346:6386  RoleGranted(role, account, _msgSender()) */\n  swap4\n  dup1\n  log4\n    /* \"CrossFi-Treasury-Guard/contracts/utils/ExtendedAccessControl.sol\":413:440  keccak256(\"AI_ORACLE_ROLE\") */\n  0x01\n    /* \"@openzeppelin/contracts/access/AccessControl.sol\":6400:6411  return true */\n  swap1\n  jump\t// out\nstop\ndata_01400fe2f234cf888b5e4c66700c7903f33f31bfc9675e51cb0119f915eb534d 2f8788117e7eff1d82e926ec794901d17c78024a50270940304540a733656f0d\n\nsub_0: assembly {\n        /* \"CrossFi-Treasury-Guard/contracts/AIScoreRegistry.sol\":410:10788  contract AIScoreRegistry is IAIScoreRegistry, ExtendedAccessControl, Pausable, ReentrancyGuard {... */\n      0x80\n      dup1\n      0x40\n      mstore\n      jumpi(tag_38, iszero(lt(calldatasize, 0x04)))\n      0x00\n      dup1\n      revert\n    tag_38:\n      shr(0xe0, calldataload(0x00))\n      swap1\n      dup2\n      0x01ffc9a7\n      eq\n      tag_40\n      jumpi\n      pop\n      dup1\n      0x0311b82d\n      eq\n      tag_42\n      jumpi\n      dup1\n      0x248a9ca3\n      eq\n      tag_44\n      jumpi\n      dup1\n      0x27ff6223\n      eq\n      tag_46\n      jumpi\n      dup1\n      0x2b116373\n      eq\n      tag_48\n      jumpi\n      dup1\n      0x2ed49cf7\n      eq\n      tag_50\n      jumpi\n      dup1\n      0x2f2ff15d\n      eq\n      tag_52\n      jumpi\n      dup1\n      0x36568abe\n      eq\n      tag_54\n      jumpi\n      dup1\n      0x3a1e017f\n      eq\n      tag_56\n      jumpi\n      dup1\n      0x3f4ba83a\n      eq\n      tag_58\n      jumpi\n      dup1\n      0x40b89270\n      eq\n      tag_88\n      jumpi\n      dup1\n      0x4da89fbd\n      eq\n      tag_62\n      jumpi\n      dup1\n      0x4fe9d1f5\n      eq\n      tag_64\n      jumpi\n      dup1\n      0x5c975abb\n      eq\n      tag_66\n      jumpi\n      dup1\n      0x61c992a3\n      eq\n      tag_68\n      jumpi\n      dup1\n      0x68ca78f9\n      eq\n      tag_70\n      jumpi\n      dup1\n      0x7092b0bc\n      eq\n      tag_72\n      jumpi\n      dup1\n      0x7131f025\n      eq\n      tag_74\n      jumpi\n      dup1\n      0x75b238fc\n      eq\n      tag_76\n      jumpi\n      dup1\n      0x8456cb59\n      eq\n      tag_78\n      jumpi\n      dup1\n      0x91b9f9d8\n      eq\n      tag_80\n      jumpi\n      dup1\n      0x91d14854\n      eq\n      tag_82\n      jumpi\n      dup1\n      0x96caac0a\n      eq\n      tag_84\n      jumpi\n      dup1\n      0xa02d72fb\n      eq\n      tag_86\n      jumpi\n      dup1\n      0xa217fddf\n      eq\n      tag_88\n      jumpi\n      dup1\n      0xa91ad18e\n      eq\n      tag_90\n      jumpi\n      dup1\n      0xaca5a8a7\n      eq\n      tag_92\n      jumpi\n      dup1\n      0xb8a956d3\n      eq\n      tag_94\n      jumpi\n      dup1\n      0xba340773\n      eq\n      tag_96\n      jumpi\n      dup1\n      0xbfe42a37\n      eq\n      tag_98\n      jumpi\n      dup1\n      0xc601f7af\n      eq\n      tag_100\n      jumpi\n      dup1\n      0xc772a8a6\n      eq\n      tag_102\n      jumpi\n      dup1\n      0xcfe85a2f\n      eq\n      tag_104\n      jumpi\n      dup1\n      0xd547741f\n      eq\n      tag_106\n      jumpi\n      dup1\n      0xd5c1a1e1\n      eq\n      tag_108\n      jumpi\n      dup1\n      0xea535940\n      eq\n      tag_110\n      jumpi\n      dup1\n      0xebdf690f\n      eq\n      tag_112\n      jumpi\n      dup1\n      0xf2bcac3d\n      eq\n      tag_114\n      jumpi\n      0xff8dea01\n      eq\n      tag_116\n      jumpi\n      0x00\n      dup1\n      revert\n    tag_116:\n      jumpi(tag_131, callvalue)\n      jumpi(tag_131, slt(add(not(0x03), calldatasize), 0xa0))\n      mload(0x40)\n      tag_122\n      dup2\n      tag_4\n      jump\t// in\n    tag_122:\n      0xff\n      calldataload(0x04)\n      dup2\n      dup2\n      and\n      dup2\n      sub\n      tag_131\n      jumpi\n      dup3\n      mstore\n      calldataload(0x24)\n      swap2\n      dup2\n      dup4\n      and\n      dup4\n      sub\n      tag_131\n      jumpi\n      0x20\n      dup2\n      add\n      swap3\n      dup4\n      mstore\n      calldataload(0x44)\n      swap3\n      dup3\n      dup5\n      and\n      dup5\n      sub\n      tag_131\n      jumpi\n      0x40\n      dup3\n      add\n      swap4\n      dup5\n      mstore\n      calldataload(0x64)\n      dup4\n      dup2\n      and\n      dup2\n      sub\n      tag_131\n      jumpi\n      0x60\n      dup4\n      add\n      swap1\n      dup2\n      mstore\n      calldataload(0x84)\n      swap1\n      dup5\n      dup3\n      and\n      dup3\n      sub\n      tag_131\n      jumpi\n      0x80\n      dup5\n      add\n      swap2\n      dup3\n      mstore\n        /* \"@openzeppelin/contracts/access/AccessControl.sol\":2484:2488  role */\n      tag_133\n      tag_13\n      jump\t// in\n    tag_133:\n        /* \"CrossFi-Treasury-Guard/contracts/AIScoreRegistry.sol\":410:10788  contract AIScoreRegistry is IAIScoreRegistry, ExtendedAccessControl, Pausable, ReentrancyGuard {... */\n      0x64\n      dup6\n        /* \"CrossFi-Treasury-Guard/contracts/AIScoreRegistry.sol\":9737:9931  newCriteria.ecosystemContribution + ... */\n      tag_134\n        /* \"CrossFi-Treasury-Guard/contracts/AIScoreRegistry.sol\":9737:9893  newCriteria.ecosystemContribution + ... */\n      tag_135\n        /* \"CrossFi-Treasury-Guard/contracts/AIScoreRegistry.sol\":9737:9851  newCriteria.ecosystemContribution + ... */\n      tag_136\n        /* \"CrossFi-Treasury-Guard/contracts/AIScoreRegistry.sol\":9737:9809  newCriteria.ecosystemContribution + ... */\n      tag_137\n        /* \"CrossFi-Treasury-Guard/contracts/AIScoreRegistry.sol\":410:10788  contract AIScoreRegistry is IAIScoreRegistry, ExtendedAccessControl, Pausable, ReentrancyGuard {... */\n      dup5\n      dup11\n      mload\n      and\n      dup6\n      dup11\n      mload\n      and\n        /* \"CrossFi-Treasury-Guard/contracts/AIScoreRegistry.sol\":9737:9809  newCriteria.ecosystemContribution + ... */\n      swap1\n      tag_25\n      jump\t// in\n    tag_137:\n        /* \"CrossFi-Treasury-Guard/contracts/AIScoreRegistry.sol\":410:10788  contract AIScoreRegistry is IAIScoreRegistry, ExtendedAccessControl, Pausable, ReentrancyGuard {... */\n      dup5\n      dup13\n      mload\n      and\n        /* \"CrossFi-Treasury-Guard/contracts/AIScoreRegistry.sol\":9737:9851  newCriteria.ecosystemContribution + ... */\n      swap1\n      tag_25\n      jump\t// in\n    tag_136:\n        /* \"CrossFi-Treasury-Guard/contracts/AIScoreRegistry.sol\":410:10788  contract AIScoreRegistry is IAIScoreRegistry, ExtendedAccessControl, Pausable, ReentrancyGuard {... */\n      dup4\n      dup7\n      mload\n      and\n        /* \"CrossFi-Treasury-Guard/contracts/AIScoreRegistry.sol\":9737:9893  newCriteria.ecosystemContribution + ... */\n      swap1\n      tag_25\n      jump\t// in\n    tag_135:\n        /* \"CrossFi-Treasury-Guard/contracts/AIScoreRegistry.sol\":410:10788  contract AIScoreRegistry is IAIScoreRegistry, ExtendedAccessControl, Pausable, ReentrancyGuard {... */\n      dup3\n      dup7\n      mload\n      and\n        /* \"CrossFi-Treasury-Guard/contracts/AIScoreRegistry.sol\":9737:9931  newCriteria.ecosystemContribution + ... */\n      swap1\n      tag_25\n      jump\t// in\n    tag_134:\n        /* \"CrossFi-Treasury-Guard/contracts/AIScoreRegistry.sol\":410:10788  contract AIScoreRegistry is IAIScoreRegistry, ExtendedAccessControl, Pausable, ReentrancyGuard {... */\n      and\n        /* \"CrossFi-Treasury-Guard/contracts/AIScoreRegistry.sol\":9737:9938  newCriteria.ecosystemContribution + ... */\n      sub\n        /* \"CrossFi-Treasury-Guard/contracts/AIScoreRegistry.sol\":410:10788  contract AIScoreRegistry is IAIScoreRegistry, ExtendedAccessControl, Pausable, ReentrancyGuard {... */\n      tag_138\n      jumpi\n        /* \"CrossFi-Treasury-Guard/contracts/AIScoreRegistry.sol\":10049:10084  ScoringCriteriaUpdated(newCriteria) */\n      0x90565f56924446477768885e9b20cf4cb9d2183f2ad4313f3e90f1dcaedcc0ae\n        /* \"CrossFi-Treasury-Guard/contracts/AIScoreRegistry.sol\":410:10788  contract AIScoreRegistry is IAIScoreRegistry, ExtendedAccessControl, Pausable, ReentrancyGuard {... */\n      swap6\n      0xa0\n      swap6\n      dup6\n      mload\n      and\n      0xff00000000\n      0xff000000\n      0xff0000\n      0xff00\n        /* \"CrossFi-Treasury-Guard/contracts/AIScoreRegistry.sol\":10006:10034  scoringWeights = newCriteria */\n      0x06\n        /* \"CrossFi-Treasury-Guard/contracts/AIScoreRegistry.sol\":410:10788  contract AIScoreRegistry is IAIScoreRegistry, ExtendedAccessControl, Pausable, ReentrancyGuard {... */\n      sload\n      swap9\n      mload\n      0x08\n      shl\n      and\n      swap5\n      mload\n      0x10\n      shl\n      and\n      swap5\n      mload\n      0x18\n      shl\n      and\n      swap5\n      mload\n      0x20\n      shl\n      and\n      swap5\n      not(0xffffffffff)\n      and\n      or\n      or\n      or\n      or\n      or\n        /* \"CrossFi-Treasury-Guard/contracts/AIScoreRegistry.sol\":10006:10034  scoringWeights = newCriteria */\n      0x06\n        /* \"CrossFi-Treasury-Guard/contracts/AIScoreRegistry.sol\":410:10788  contract AIScoreRegistry is IAIScoreRegistry, ExtendedAccessControl, Pausable, ReentrancyGuard {... */\n      sstore\n      tag_140\n      mload(0x40)\n      dup1\n      swap3\n      tag_11\n      jump\t// in\n    tag_140:\n        /* \"CrossFi-Treasury-Guard/contracts/AIScoreRegistry.sol\":10049:10084  ScoringCriteriaUpdated(newCriteria) */\n      log1\n        /* \"CrossFi-Treasury-Guard/contracts/AIScoreRegistry.sol\":410:10788  contract AIScoreRegistry is IAIScoreRegistry, ExtendedAccessControl, Pausable, ReentrancyGuard {... */\n      stop\n    tag_138:\n      mload(0x40)\n      shl(0xe5, 0x461bcd)\n      dup2\n      mstore\n      0x20\n      0x04\n      dup3\n      add\n      mstore\n      0x17\n      0x24\n      dup3\n      add\n      mstore\n      0x57656967687473206d7573742073756d20746f20313030000000000000000000\n      0x44\n      dup3\n      add\n      mstore\n      0x64\n      swap1\n      revert\n    tag_131:\n      0x00\n      dup1\n      revert\n    tag_114:\n      jumpi(tag_131, callvalue)\n      jumpi(tag_131, slt(add(not(0x03), calldatasize), 0x00))\n      tag_145\n      tag_37\n      jump\t// in\n    tag_145:\n      mload(0x40)\n      dup1\n      swap2\n      0x20\n      dup1\n      dup4\n      add\n      dup2\n      dup5\n      mstore\n      dup3\n      mload\n      dup1\n      swap2\n      mstore\n      dup2\n      0x40\n      dup6\n      add\n      swap4\n      add\n      swap2\n      0x00\n    tag_146:\n      dup3\n      dup2\n      lt\n      tag_147\n      jumpi\n      pop\n      pop\n      pop\n      pop\n      sub\n      swap1\n      return\n    tag_147:\n      dup4\n      mload\n      dup6\n      mstore\n      dup7\n      swap6\n      pop\n      swap4\n      dup2\n      add\n      swap4\n      swap3\n      dup2\n      add\n      swap3\n      0x01\n      add\n      jump(tag_146)\n    tag_112:\n      jumpi(tag_131, callvalue)\n      jumpi(tag_131, slt(add(not(0x03), calldatasize), 0x00))\n      0x20\n      mload(0x40)\n        /* \"CrossFi-Treasury-Guard/contracts/utils/ExtendedAccessControl.sol\":494:528  keccak256(\"TREASURY_MANAGER_ROLE\") */\n      0xede9dcdb0ce99dc7cec9c7be9246ad08b37853683ad91569c187b647ddf5e21c\n        /* \"CrossFi-Treasury-Guard/contracts/AIScoreRegistry.sol\":410:10788  contract AIScoreRegistry is IAIScoreRegistry, ExtendedAccessControl, Pausable, ReentrancyGuard {... */\n      dup2\n      mstore\n      return\n    tag_110:\n      jumpi(tag_131, callvalue)\n      0x20\n      dup1\n      add(calldatasize, not(0x03))\n      slt\n      tag_131\n      jumpi\n      calldataload(0x04)\n      mload(0x40)\n      tag_157\n      dup2\n      tag_3\n      jump\t// in\n    tag_157:\n      0x00\n      dup2\n      mstore\n      0x00\n      dup4\n      dup3\n      add\n      mstore\n      0x60\n      0x40\n      dup3\n      add\n      mstore\n      0x60\n      dup1\n      dup3\n      add\n      mstore\n      0x00\n      0x80\n      dup3\n      add\n      mstore\n      0x00\n      0xa0\n      dup3\n      add\n      mstore\n      0x00\n      0xc0\n      dup3\n      add\n      mstore\n      0xe0\n      tag_158\n      tag_32\n      jump\t// in\n    tag_158:\n      swap2\n      add\n      mstore\n        /* \"CrossFi-Treasury-Guard/contracts/AIScoreRegistry.sol\":2080:2126  require(proposalId > 0, \"Invalid proposal ID\") */\n      tag_159\n        /* \"CrossFi-Treasury-Guard/contracts/AIScoreRegistry.sol\":2088:2102  proposalId > 0 */\n      dup2\n      iszero\n      iszero\n        /* \"CrossFi-Treasury-Guard/contracts/AIScoreRegistry.sol\":2080:2126  require(proposalId > 0, \"Invalid proposal ID\") */\n      tag_22\n      jump\t// in\n    tag_159:\n        /* \"CrossFi-Treasury-Guard/contracts/AIScoreRegistry.sol\":410:10788  contract AIScoreRegistry is IAIScoreRegistry, ExtendedAccessControl, Pausable, ReentrancyGuard {... */\n      dup1\n      0x00\n      mstore\n      0x03\n      dup3\n      mstore\n        /* \"CrossFi-Treasury-Guard/contracts/AIScoreRegistry.sol\":7216:7276  require(aiScores[proposalId].exists, \"Score does not exist\") */\n      tag_160\n        /* \"CrossFi-Treasury-Guard/contracts/AIScoreRegistry.sol\":410:10788  contract AIScoreRegistry is IAIScoreRegistry, ExtendedAccessControl, Pausable, ReentrancyGuard {... */\n      0xff\n        /* \"CrossFi-Treasury-Guard/contracts/AIScoreRegistry.sol\":7224:7251  aiScores[proposalId].exists */\n      0x05\n        /* \"CrossFi-Treasury-Guard/contracts/AIScoreRegistry.sol\":410:10788  contract AIScoreRegistry is IAIScoreRegistry, ExtendedAccessControl, Pausable, ReentrancyGuard {... */\n      keccak256(0x00, 0x40)\n        /* \"CrossFi-Treasury-Guard/contracts/AIScoreRegistry.sol\":7224:7251  aiScores[proposalId].exists */\n      add\n        /* \"CrossFi-Treasury-Guard/contracts/AIScoreRegistry.sol\":410:10788  contract AIScoreRegistry is IAIScoreRegistry, ExtendedAccessControl, Pausable, ReentrancyGuard {... */\n      sload\n      0xa0\n      shr\n      and\n        /* \"CrossFi-Treasury-Guard/contracts/AIScoreRegistry.sol\":7216:7276  require(aiScores[proposalId].exists, \"Score does not exist\") */\n      tag_30\n      jump\t// in\n    tag_160:\n        /* \"CrossFi-Treasury-Guard/contracts/AIScoreRegistry.sol\":410:10788  contract AIScoreRegistry is IAIScoreRegistry, ExtendedAccessControl, Pausable, ReentrancyGuard {... */\n      0x00\n      mstore\n      0x03\n      dup2\n      mstore\n      keccak256(0x00, 0x40)\n      swap1\n      mload(0x40)\n      swap2\n      tag_161\n      dup4\n      tag_3\n      jump\t// in\n    tag_161:\n      dup1\n      sload\n      dup4\n      mstore\n      tag_162\n      0x01\n      dup3\n      add\n      sload\n      dup4\n      dup6\n      add\n      swap1\n      dup2\n      mstore\n      tag_163\n      0x02\n      dup5\n      add\n      tag_31\n      jump\t// in\n    tag_163:\n      0x40\n      dup7\n      add\n      swap1\n      dup2\n      mstore\n      dup6\n      tag_164\n      0x03\n      dup7\n      add\n      tag_31\n      jump\t// in\n    tag_164:\n      swap5\n      0x60\n      dup3\n      add\n      swap6\n      dup7\n      mstore\n      tag_165\n      0x04\n      dup3\n      add\n      sload\n      swap7\n      0x80\n      dup5\n      add\n      swap8\n      dup9\n      mstore\n      tag_166\n        /* \"CrossFi-Treasury-Guard/contracts/AIScoreRegistry.sol\":7224:7251  aiScores[proposalId].exists */\n      0x05\n        /* \"CrossFi-Treasury-Guard/contracts/AIScoreRegistry.sol\":410:10788  contract AIScoreRegistry is IAIScoreRegistry, ExtendedAccessControl, Pausable, ReentrancyGuard {... */\n      dup5\n      add\n      sload\n      swap6\n      tag_167\n      0x06\n      0xa0\n      dup9\n      add\n      swap7\n      0xff\n      0xc0\n      0x01\n      dup1\n      0xa0\n      shl\n      sub\n      swap11\n      dup12\n      dup14\n      and\n      dup12\n      mstore\n      add\n      swap11\n      0xa0\n      shr\n      and\n      iszero\n      iszero\n      dup11\n      mstore\n      add\n      tag_33\n      jump\t// in\n    tag_167:\n      swap8\n      0xe0\n      dup14\n      add\n      swap9\n      dup10\n      mstore\n      dup12\n      mload(0x40)\n      swap14\n      dup15\n      swap14\n      dup15\n      mstore\n      mload\n      swap1\n      dup14\n      add\n      mstore\n      mload\n      0x40\n      dup13\n      add\n      mstore\n      mload\n      0x0180\n      0x60\n      dup13\n      add\n      mstore\n      0x01a0\n      dup12\n      add\n      swap1\n      tag_2\n      jump\t// in\n    tag_166:\n      swap1\n      mload\n      dup10\n      dup3\n      sub\n      not(0x1f)\n      add\n      0x80\n      dup12\n      add\n      mstore\n      tag_2\n      jump\t// in\n    tag_165:\n      swap6\n      mload\n      0xa0\n      dup9\n      add\n      mstore\n      mload\n      and\n      0xc0\n      dup7\n      add\n      mstore\n      mload\n      iszero\n      iszero\n      0xe0\n      dup6\n      add\n      mstore\n      mload\n      0x0100\n      dup5\n      add\n      swap1\n      tag_11\n      jump\t// in\n    tag_162:\n      sub\n      swap1\n      return\n    tag_108:\n      jumpi(tag_131, callvalue)\n      jumpi(tag_131, slt(add(not(0x03), calldatasize), 0x40))\n      tag_172\n      tag_8\n      jump\t// in\n    tag_172:\n      tag_173\n      tag_10\n      jump\t// in\n    tag_173:\n        /* \"@openzeppelin/contracts/access/AccessControl.sol\":2484:2488  role */\n      tag_174\n      tag_13\n      jump\t// in\n    tag_174:\n      sub(shl(0xa0, 0x01), 0x01)\n        /* \"CrossFi-Treasury-Guard/contracts/AIScoreRegistry.sol\":410:10788  contract AIScoreRegistry is IAIScoreRegistry, ExtendedAccessControl, Pausable, ReentrancyGuard {... */\n      dup3\n      and\n      swap2\n        /* \"CrossFi-Treasury-Guard/contracts/AIScoreRegistry.sol\":8724:8744  oracle != address(0) */\n      dup3\n      iszero\n        /* \"CrossFi-Treasury-Guard/contracts/AIScoreRegistry.sol\":410:10788  contract AIScoreRegistry is IAIScoreRegistry, ExtendedAccessControl, Pausable, ReentrancyGuard {... */\n      tag_175\n      jumpi\n        /* \"CrossFi-Treasury-Guard/contracts/AIScoreRegistry.sol\":9000:9036  OracleAuthorized(oracle, authorized) */\n      0x82a8fb1e779ea45ad427cc612e47087f5386a567e49dce488185e40646fa48d5\n        /* \"CrossFi-Treasury-Guard/contracts/AIScoreRegistry.sol\":410:10788  contract AIScoreRegistry is IAIScoreRegistry, ExtendedAccessControl, Pausable, ReentrancyGuard {... */\n      swap2\n      0x20\n      swap2\n      dup5\n      0x00\n      mstore\n      0x04\n      dup4\n      mstore\n        /* \"CrossFi-Treasury-Guard/contracts/AIScoreRegistry.sol\":8781:8819  authorizedOracles[oracle] = authorized */\n      tag_177\n        /* \"CrossFi-Treasury-Guard/contracts/AIScoreRegistry.sol\":410:10788  contract AIScoreRegistry is IAIScoreRegistry, ExtendedAccessControl, Pausable, ReentrancyGuard {... */\n      dup3\n      keccak256(0x00, 0x40)\n      swap1\n      0xff\n      dup1\n      not\n      dup4\n      sload\n      and\n      swap2\n      iszero\n      iszero\n      and\n      or\n      swap1\n      sstore\n      jump\n        /* \"CrossFi-Treasury-Guard/contracts/AIScoreRegistry.sol\":8781:8819  authorizedOracles[oracle] = authorized */\n    tag_177:\n        /* \"CrossFi-Treasury-Guard/contracts/AIScoreRegistry.sol\":8838:8977  if (authorized) {... */\n      dup2\n      iszero\n      tag_178\n      jumpi\n        /* \"@openzeppelin/contracts/access/AccessControl.sol\":4306:4331  _grantRole(role, account) */\n      tag_180\n        /* \"CrossFi-Treasury-Guard/contracts/AIScoreRegistry.sol\":410:10788  contract AIScoreRegistry is IAIScoreRegistry, ExtendedAccessControl, Pausable, ReentrancyGuard {... */\n      swap1\n      0x00\n      dup1\n      mload\n      0x20\n      data_a33092ec2ea5e84579a4a7f81a8171c84a984183e655ab76a6ea5c0d5344c7b0\n      dup4\n      codecopy\n      dup2\n      mload\n      swap2\n      mstore\n      0x00\n      mstore\n      0x00\n      dup5\n      mstore\n        /* \"@openzeppelin/contracts/access/AccessControl.sol\":2484:2488  role */\n      tag_181\n        /* \"CrossFi-Treasury-Guard/contracts/AIScoreRegistry.sol\":410:10788  contract AIScoreRegistry is IAIScoreRegistry, ExtendedAccessControl, Pausable, ReentrancyGuard {... */\n      0x01\n      keccak256(0x00, 0x40)\n        /* \"@openzeppelin/contracts/access/AccessControl.sol\":3877:3899  _roles[role].adminRole */\n      add\n        /* \"CrossFi-Treasury-Guard/contracts/AIScoreRegistry.sol\":410:10788  contract AIScoreRegistry is IAIScoreRegistry, ExtendedAccessControl, Pausable, ReentrancyGuard {... */\n      sload\n        /* \"@openzeppelin/contracts/access/AccessControl.sol\":2484:2488  role */\n      tag_15\n      jump\t// in\n    tag_181:\n        /* \"@openzeppelin/contracts/access/AccessControl.sol\":4306:4331  _grantRole(role, account) */\n      tag_17\n      jump\t// in\n    tag_180:\n      pop\n        /* \"CrossFi-Treasury-Guard/contracts/AIScoreRegistry.sol\":8838:8977  if (authorized) {... */\n    tag_182:\n        /* \"CrossFi-Treasury-Guard/contracts/AIScoreRegistry.sol\":410:10788  contract AIScoreRegistry is IAIScoreRegistry, ExtendedAccessControl, Pausable, ReentrancyGuard {... */\n      mload(0x40)\n      swap1\n      iszero\n      iszero\n      dup2\n      mstore\n        /* \"CrossFi-Treasury-Guard/contracts/AIScoreRegistry.sol\":9000:9036  OracleAuthorized(oracle, authorized) */\n      log2\n        /* \"CrossFi-Treasury-Guard/contracts/AIScoreRegistry.sol\":410:10788  contract AIScoreRegistry is IAIScoreRegistry, ExtendedAccessControl, Pausable, ReentrancyGuard {... */\n      stop\n        /* \"CrossFi-Treasury-Guard/contracts/AIScoreRegistry.sol\":8838:8977  if (authorized) {... */\n    tag_178:\n        /* \"@openzeppelin/contracts/access/AccessControl.sol\":4723:4749  _revokeRole(role, account) */\n      tag_183\n        /* \"CrossFi-Treasury-Guard/contracts/AIScoreRegistry.sol\":410:10788  contract AIScoreRegistry is IAIScoreRegistry, ExtendedAccessControl, Pausable, ReentrancyGuard {... */\n      swap1\n      0x00\n      dup1\n      mload\n      0x20\n      data_a33092ec2ea5e84579a4a7f81a8171c84a984183e655ab76a6ea5c0d5344c7b0\n      dup4\n      codecopy\n      dup2\n      mload\n      swap2\n      mstore\n      0x00\n      mstore\n      0x00\n      dup5\n      mstore\n        /* \"@openzeppelin/contracts/access/AccessControl.sol\":2484:2488  role */\n      tag_184\n        /* \"CrossFi-Treasury-Guard/contracts/AIScoreRegistry.sol\":410:10788  contract AIScoreRegistry is IAIScoreRegistry, ExtendedAccessControl, Pausable, ReentrancyGuard {... */\n      0x01\n      keccak256(0x00, 0x40)\n        /* \"@openzeppelin/contracts/access/AccessControl.sol\":3877:3899  _roles[role].adminRole */\n      add\n        /* \"CrossFi-Treasury-Guard/contracts/AIScoreRegistry.sol\":410:10788  contract AIScoreRegistry is IAIScoreRegistry, ExtendedAccessControl, Pausable, ReentrancyGuard {... */\n      sload\n        /* \"@openzeppelin/contracts/access/AccessControl.sol\":2484:2488  role */\n      tag_15\n      jump\t// in\n    tag_184:\n        /* \"@openzeppelin/contracts/access/AccessControl.sol\":4723:4749  _revokeRole(role, account) */\n      tag_19\n      jump\t// in\n    tag_183:\n      pop\n        /* \"CrossFi-Treasury-Guard/contracts/AIScoreRegistry.sol\":8838:8977  if (authorized) {... */\n      jump(tag_182)\n        /* \"CrossFi-Treasury-Guard/contracts/AIScoreRegistry.sol\":410:10788  contract AIScoreRegistry is IAIScoreRegistry, ExtendedAccessControl, Pausable, ReentrancyGuard {... */\n    tag_175:\n      mload(0x40)\n      shl(0xe5, 0x461bcd)\n      dup2\n      mstore\n      0x20\n      0x04\n      dup3\n      add\n      mstore\n      0x16\n      0x24\n      dup3\n      add\n      mstore\n      shl(0x50, 0x496e76616c6964206f7261636c652061646472657373)\n      0x44\n      dup3\n      add\n      mstore\n      0x64\n      swap1\n      revert\n    tag_106:\n      jumpi(tag_131, callvalue)\n      jumpi(tag_131, slt(add(not(0x03), calldatasize), 0x40))\n        /* \"@openzeppelin/contracts/access/AccessControl.sol\":4723:4749  _revokeRole(role, account) */\n      tag_189\n        /* \"CrossFi-Treasury-Guard/contracts/AIScoreRegistry.sol\":410:10788  contract AIScoreRegistry is IAIScoreRegistry, ExtendedAccessControl, Pausable, ReentrancyGuard {... */\n      calldataload(0x04)\n      tag_190\n      tag_7\n      jump\t// in\n    tag_190:\n      swap1\n      dup1\n      0x00\n      mstore\n      mstore(0x20, 0x00)\n        /* \"@openzeppelin/contracts/access/AccessControl.sol\":2484:2488  role */\n      tag_191\n        /* \"CrossFi-Treasury-Guard/contracts/AIScoreRegistry.sol\":410:10788  contract AIScoreRegistry is IAIScoreRegistry, ExtendedAccessControl, Pausable, ReentrancyGuard {... */\n      0x01\n      keccak256(0x00, 0x40)\n        /* \"@openzeppelin/contracts/access/AccessControl.sol\":3877:3899  _roles[role].adminRole */\n      add\n        /* \"CrossFi-Treasury-Guard/contracts/AIScoreRegistry.sol\":410:10788  contract AIScoreRegistry is IAIScoreRegistry, ExtendedAccessControl, Pausable, ReentrancyGuard {... */\n      sload\n        /* \"@openzeppelin/contracts/access/AccessControl.sol\":2484:2488  role */\n      tag_15\n      jump\t// in\n    tag_191:\n        /* \"@openzeppelin/contracts/access/AccessControl.sol\":4723:4749  _revokeRole(role, account) */\n      tag_20\n      jump\t// in\n    tag_189:\n        /* \"CrossFi-Treasury-Guard/contracts/AIScoreRegistry.sol\":410:10788  contract AIScoreRegistry is IAIScoreRegistry, ExtendedAccessControl, Pausable, ReentrancyGuard {... */\n      stop\n    tag_104:\n      jumpi(tag_131, callvalue)\n      jumpi(tag_131, slt(add(not(0x03), calldatasize), 0x20))\n      calldataload(0x04)\n      tag_196\n      tag_32\n      jump\t// in\n    tag_196:\n      pop\n        /* \"CrossFi-Treasury-Guard/contracts/AIScoreRegistry.sol\":2080:2126  require(proposalId > 0, \"Invalid proposal ID\") */\n      tag_197\n        /* \"CrossFi-Treasury-Guard/contracts/AIScoreRegistry.sol\":2088:2102  proposalId > 0 */\n      dup2\n      iszero\n      iszero\n        /* \"CrossFi-Treasury-Guard/contracts/AIScoreRegistry.sol\":2080:2126  require(proposalId > 0, \"Invalid proposal ID\") */\n      tag_22\n      jump\t// in\n    tag_197:\n        /* \"CrossFi-Treasury-Guard/contracts/AIScoreRegistry.sol\":410:10788  contract AIScoreRegistry is IAIScoreRegistry, ExtendedAccessControl, Pausable, ReentrancyGuard {... */\n      dup1\n      0x00\n      mstore\n      mstore(0x20, 0x03)\n        /* \"CrossFi-Treasury-Guard/contracts/AIScoreRegistry.sol\":7629:7689  require(aiScores[proposalId].exists, \"Score does not exist\") */\n      tag_198\n        /* \"CrossFi-Treasury-Guard/contracts/AIScoreRegistry.sol\":410:10788  contract AIScoreRegistry is IAIScoreRegistry, ExtendedAccessControl, Pausable, ReentrancyGuard {... */\n      0xff\n        /* \"CrossFi-Treasury-Guard/contracts/AIScoreRegistry.sol\":7637:7664  aiScores[proposalId].exists */\n      0x05\n        /* \"CrossFi-Treasury-Guard/contracts/AIScoreRegistry.sol\":410:10788  contract AIScoreRegistry is IAIScoreRegistry, ExtendedAccessControl, Pausable, ReentrancyGuard {... */\n      keccak256(0x00, 0x40)\n        /* \"CrossFi-Treasury-Guard/contracts/AIScoreRegistry.sol\":7637:7664  aiScores[proposalId].exists */\n      add\n        /* \"CrossFi-Treasury-Guard/contracts/AIScoreRegistry.sol\":410:10788  contract AIScoreRegistry is IAIScoreRegistry, ExtendedAccessControl, Pausable, ReentrancyGuard {... */\n      sload\n      0xa0\n      shr\n      and\n        /* \"CrossFi-Treasury-Guard/contracts/AIScoreRegistry.sol\":7629:7689  require(aiScores[proposalId].exists, \"Score does not exist\") */\n      tag_30\n      jump\t// in\n    tag_198:\n        /* \"CrossFi-Treasury-Guard/contracts/AIScoreRegistry.sol\":410:10788  contract AIScoreRegistry is IAIScoreRegistry, ExtendedAccessControl, Pausable, ReentrancyGuard {... */\n      0x00\n      mstore\n      mstore(0x20, 0x03)\n      0xa0\n      tag_199\n        /* \"CrossFi-Treasury-Guard/contracts/AIScoreRegistry.sol\":7706:7736  aiScores[proposalId].breakdown */\n      0x06\n        /* \"CrossFi-Treasury-Guard/contracts/AIScoreRegistry.sol\":410:10788  contract AIScoreRegistry is IAIScoreRegistry, ExtendedAccessControl, Pausable, ReentrancyGuard {... */\n      keccak256(0x00, 0x40)\n        /* \"CrossFi-Treasury-Guard/contracts/AIScoreRegistry.sol\":7706:7736  aiScores[proposalId].breakdown */\n      add\n        /* \"CrossFi-Treasury-Guard/contracts/AIScoreRegistry.sol\":410:10788  contract AIScoreRegistry is IAIScoreRegistry, ExtendedAccessControl, Pausable, ReentrancyGuard {... */\n      tag_33\n      jump\t// in\n    tag_199:\n      tag_200\n      mload(0x40)\n      dup1\n      swap3\n      tag_11\n      jump\t// in\n    tag_200:\n      return\n    tag_102:\n      jumpi(tag_131, callvalue)\n      jumpi(tag_131, slt(add(not(0x03), calldatasize), 0x20))\n      sub(shl(0xa0, 0x01), 0x01)\n      tag_205\n      tag_8\n      jump\t// in\n    tag_205:\n      and\n      0x00\n      mstore\n        /* \"CrossFi-Treasury-Guard/contracts/AIScoreRegistry.sol\":8397:8413  oracleScoreCount */\n      0x08\n        /* \"CrossFi-Treasury-Guard/contracts/AIScoreRegistry.sol\":410:10788  contract AIScoreRegistry is IAIScoreRegistry, ExtendedAccessControl, Pausable, ReentrancyGuard {... */\n      0x20\n      mstore\n      0x40\n      dup1\n      0x00\n      keccak256\n      sload\n      mstore(0x20, 0x04)\n      0xff\n      dup3\n      0x00\n      keccak256\n      sload\n      and\n      dup3\n      mload\n      swap2\n      dup3\n      mstore\n      iszero\n      iszero\n      0x20\n      dup3\n      add\n      mstore\n      return\n    tag_100:\n      jumpi(tag_131, callvalue)\n      jumpi(tag_131, slt(add(not(0x03), calldatasize), 0x00))\n      0x20\n      mload(0x40)\n      0x00\n      dup1\n      mload\n      0x20\n      data_a33092ec2ea5e84579a4a7f81a8171c84a984183e655ab76a6ea5c0d5344c7b0\n      dup4\n      codecopy\n      dup2\n      mload\n      swap2\n      mstore\n      dup2\n      mstore\n      return\n    tag_98:\n      jumpi(tag_131, callvalue)\n      jumpi(tag_131, slt(add(not(0x03), calldatasize), 0x00))\n      0x20\n      mload(0x40)\n        /* \"CrossFi-Treasury-Guard/contracts/utils/ExtendedAccessControl.sol\":674:708  keccak256(\"DISPUTE_RESOLVER_ROLE\") */\n      0x7b8bb8356a3f32f5c111ff23f050d97f08988e0883529ea7bff3b918887a6e0e\n        /* \"CrossFi-Treasury-Guard/contracts/AIScoreRegistry.sol\":410:10788  contract AIScoreRegistry is IAIScoreRegistry, ExtendedAccessControl, Pausable, ReentrancyGuard {... */\n      dup2\n      mstore\n      return\n    tag_96:\n      jumpi(tag_131, callvalue)\n      jumpi(tag_131, slt(add(not(0x03), calldatasize), 0x40))\n      calldataload(0x04)\n      sub(shl(0x40, 0x01), 0x01)\n      dup2\n      gt\n      tag_131\n      jumpi\n      tag_220\n      swap1\n      calldatasize\n      swap1\n      0x04\n      add\n      tag_6\n      jump\t// in\n    tag_220:\n      tag_221\n      tag_10\n      jump\t// in\n    tag_221:\n        /* \"@openzeppelin/contracts/access/AccessControl.sol\":2484:2488  role */\n      tag_222\n      tag_13\n      jump\t// in\n    tag_222:\n        /* \"CrossFi-Treasury-Guard/contracts/AIScoreRegistry.sol\":410:10788  contract AIScoreRegistry is IAIScoreRegistry, ExtendedAccessControl, Pausable, ReentrancyGuard {... */\n      dup2\n      mload\n        /* \"CrossFi-Treasury-Guard/contracts/AIScoreRegistry.sol\":9328:9358  bytes(modelVersion).length > 0 */\n      iszero\n        /* \"CrossFi-Treasury-Guard/contracts/AIScoreRegistry.sol\":410:10788  contract AIScoreRegistry is IAIScoreRegistry, ExtendedAccessControl, Pausable, ReentrancyGuard {... */\n      tag_223\n      jumpi\n        /* \"CrossFi-Treasury-Guard/contracts/AIScoreRegistry.sol\":9450:9489  ModelSupported(modelVersion, supported) */\n      0x2e5180543742ece2db44ed70b2619f2bf555a29a7bdead994736174f0d90a9b6\n        /* \"CrossFi-Treasury-Guard/contracts/AIScoreRegistry.sol\":410:10788  contract AIScoreRegistry is IAIScoreRegistry, ExtendedAccessControl, Pausable, ReentrancyGuard {... */\n      swap2\n      dup2\n        /* \"CrossFi-Treasury-Guard/contracts/AIScoreRegistry.sol\":9394:9435  supportedModels[modelVersion] = supported */\n      tag_225\n        /* \"CrossFi-Treasury-Guard/contracts/AIScoreRegistry.sol\":410:10788  contract AIScoreRegistry is IAIScoreRegistry, ExtendedAccessControl, Pausable, ReentrancyGuard {... */\n      tag_226\n      swap4\n      mload(0x40)\n      0x20\n      dup2\n      dup7\n      mload\n      tag_227\n      dup2\n      dup4\n      dup6\n      dup12\n      add\n      tag_1\n      jump\t// in\n    tag_227:\n      dup2\n      add\n        /* \"CrossFi-Treasury-Guard/contracts/AIScoreRegistry.sol\":9394:9409  supportedModels */\n      0x05\n        /* \"CrossFi-Treasury-Guard/contracts/AIScoreRegistry.sol\":410:10788  contract AIScoreRegistry is IAIScoreRegistry, ExtendedAccessControl, Pausable, ReentrancyGuard {... */\n      dup2\n      mstore\n      sub\n      add\n      swap1\n      keccak256\n      swap1\n      0xff\n      dup1\n      not\n      dup4\n      sload\n      and\n      swap2\n      iszero\n      iszero\n      and\n      or\n      swap1\n      sstore\n      jump\n        /* \"CrossFi-Treasury-Guard/contracts/AIScoreRegistry.sol\":9394:9435  supportedModels[modelVersion] = supported */\n    tag_225:\n        /* \"CrossFi-Treasury-Guard/contracts/AIScoreRegistry.sol\":410:10788  contract AIScoreRegistry is IAIScoreRegistry, ExtendedAccessControl, Pausable, ReentrancyGuard {... */\n      mload(0x40)\n      swap3\n      dup4\n      swap3\n      0x40\n      dup5\n      mstore\n      0x40\n      dup5\n      add\n      swap1\n      tag_2\n      jump\t// in\n    tag_226:\n      swap1\n      iszero\n      iszero\n      0x20\n      dup4\n      add\n      mstore\n        /* \"CrossFi-Treasury-Guard/contracts/AIScoreRegistry.sol\":9450:9489  ModelSupported(modelVersion, supported) */\n      sub\n      swap1\n      log1\n        /* \"CrossFi-Treasury-Guard/contracts/AIScoreRegistry.sol\":410:10788  contract AIScoreRegistry is IAIScoreRegistry, ExtendedAccessControl, Pausable, ReentrancyGuard {... */\n      stop\n    tag_223:\n      mload(0x40)\n      shl(0xe5, 0x461bcd)\n      dup2\n      mstore\n      0x20\n      0x04\n      dup3\n      add\n      mstore\n      0x15\n      0x24\n      dup3\n      add\n      mstore\n      shl(0x59, 0x24b73b30b634b21036b7b232b6103b32b939b4b7b7)\n      0x44\n      dup3\n      add\n      mstore\n      0x64\n      swap1\n      revert\n    tag_94:\n      jumpi(tag_131, callvalue)\n      jumpi(tag_131, slt(add(not(0x03), calldatasize), 0x40))\n      calldataload(0x04)\n      calldataload(0x24)\n      sub(shl(0x40, 0x01), 0x01)\n      dup2\n      gt\n      tag_131\n      jumpi\n      tag_234\n      swap1\n      calldatasize\n      swap1\n      0x04\n      add\n      tag_6\n      jump\t// in\n    tag_234:\n        /* \"@openzeppelin/contracts/access/AccessControl.sol\":2484:2488  role */\n      tag_235\n      tag_14\n      jump\t// in\n    tag_235:\n        /* \"CrossFi-Treasury-Guard/contracts/AIScoreRegistry.sol\":410:10788  contract AIScoreRegistry is IAIScoreRegistry, ExtendedAccessControl, Pausable, ReentrancyGuard {... */\n      dup2\n      0x00\n      mstore\n      mstore(0x20, 0x03)\n        /* \"CrossFi-Treasury-Guard/contracts/AIScoreRegistry.sol\":10360:10420  require(aiScores[proposalId].exists, \"Score does not exist\") */\n      tag_236\n        /* \"CrossFi-Treasury-Guard/contracts/AIScoreRegistry.sol\":410:10788  contract AIScoreRegistry is IAIScoreRegistry, ExtendedAccessControl, Pausable, ReentrancyGuard {... */\n      0xff\n        /* \"CrossFi-Treasury-Guard/contracts/AIScoreRegistry.sol\":10368:10395  aiScores[proposalId].exists */\n      0x05\n        /* \"CrossFi-Treasury-Guard/contracts/AIScoreRegistry.sol\":410:10788  contract AIScoreRegistry is IAIScoreRegistry, ExtendedAccessControl, Pausable, ReentrancyGuard {... */\n      keccak256(0x00, 0x40)\n        /* \"CrossFi-Treasury-Guard/contracts/AIScoreRegistry.sol\":10368:10395  aiScores[proposalId].exists */\n      add\n        /* \"CrossFi-Treasury-Guard/contracts/AIScoreRegistry.sol\":410:10788  contract AIScoreRegistry is IAIScoreRegistry, ExtendedAccessControl, Pausable, ReentrancyGuard {... */\n      sload\n      0xa0\n      shr\n      and\n        /* \"CrossFi-Treasury-Guard/contracts/AIScoreRegistry.sol\":10360:10420  require(aiScores[proposalId].exists, \"Score does not exist\") */\n      tag_30\n      jump\t// in\n    tag_236:\n        /* \"CrossFi-Treasury-Guard/contracts/AIScoreRegistry.sol\":410:10788  contract AIScoreRegistry is IAIScoreRegistry, ExtendedAccessControl, Pausable, ReentrancyGuard {... */\n      dup1\n      mload\n        /* \"CrossFi-Treasury-Guard/contracts/AIScoreRegistry.sol\":10438:10462  bytes(reason).length > 0 */\n      iszero\n        /* \"CrossFi-Treasury-Guard/contracts/AIScoreRegistry.sol\":410:10788  contract AIScoreRegistry is IAIScoreRegistry, ExtendedAccessControl, Pausable, ReentrancyGuard {... */\n      tag_237\n      jumpi\n      dup2\n      0x00\n      mstore\n      mstore(0x20, 0x03)\n      0x00\n      0x06\n      0x40\n      dup3\n      keccak256\n      dup3\n      dup2\n      sstore\n      dup3\n      0x01\n      dup3\n      add\n      sstore\n      tag_239\n      0x02\n      dup3\n      add\n      tag_34\n      jump\t// in\n    tag_239:\n      tag_240\n      0x03\n      dup3\n      add\n      tag_34\n      jump\t// in\n    tag_240:\n      dup3\n      0x04\n      dup3\n      add\n      sstore\n      dup3\n        /* \"CrossFi-Treasury-Guard/contracts/AIScoreRegistry.sol\":10368:10395  aiScores[proposalId].exists */\n      0x05\n        /* \"CrossFi-Treasury-Guard/contracts/AIScoreRegistry.sol\":410:10788  contract AIScoreRegistry is IAIScoreRegistry, ExtendedAccessControl, Pausable, ReentrancyGuard {... */\n      dup3\n      add\n      sstore\n      add\n      sstore\n        /* \"CrossFi-Treasury-Guard/contracts/AIScoreRegistry.sol\":10538:10560  totalScoresSubmitted-- */\n      0x07\n        /* \"CrossFi-Treasury-Guard/contracts/AIScoreRegistry.sol\":410:10788  contract AIScoreRegistry is IAIScoreRegistry, ExtendedAccessControl, Pausable, ReentrancyGuard {... */\n      sload\n      dup1\n      iszero\n      tag_241\n      jumpi\n        /* \"CrossFi-Treasury-Guard/contracts/AIScoreRegistry.sol\":10584:10619  ScoreUpdated(proposalId, 0, reason) */\n      0xd3e8dbbe8ff60a1fae1e5f88e71f27270ed38badc7b26e19922ed94fd12f5fe9\n        /* \"CrossFi-Treasury-Guard/contracts/AIScoreRegistry.sol\":410:10788  contract AIScoreRegistry is IAIScoreRegistry, ExtendedAccessControl, Pausable, ReentrancyGuard {... */\n      swap2\n      tag_243\n      swap2\n      not(0x00)\n      add\n        /* \"CrossFi-Treasury-Guard/contracts/AIScoreRegistry.sol\":10538:10560  totalScoresSubmitted-- */\n      0x07\n        /* \"CrossFi-Treasury-Guard/contracts/AIScoreRegistry.sol\":410:10788  contract AIScoreRegistry is IAIScoreRegistry, ExtendedAccessControl, Pausable, ReentrancyGuard {... */\n      sstore\n      mload(0x40)\n      swap2\n      dup3\n      swap2\n      0x00\n      dup4\n      mstore\n      0x40\n      0x20\n      dup5\n      add\n      mstore\n      0x40\n      dup4\n      add\n      swap1\n      tag_2\n      jump\t// in\n    tag_243:\n        /* \"CrossFi-Treasury-Guard/contracts/AIScoreRegistry.sol\":10584:10619  ScoreUpdated(proposalId, 0, reason) */\n      sub\n      swap1\n      log2\n        /* \"CrossFi-Treasury-Guard/contracts/AIScoreRegistry.sol\":410:10788  contract AIScoreRegistry is IAIScoreRegistry, ExtendedAccessControl, Pausable, ReentrancyGuard {... */\n      stop\n    tag_241:\n      mstore(0x00, shl(0xe0, 0x4e487b71))\n      mstore(0x04, 0x11)\n      revert(0x00, 0x24)\n    tag_237:\n      mload(0x40)\n      shl(0xe5, 0x461bcd)\n      dup2\n      mstore\n      0x20\n      0x04\n      dup3\n      add\n      mstore\n      0x0f\n      0x24\n      dup3\n      add\n      mstore\n      shl(0x8a, 0x1499585cdbdb881c995c5d5a5c9959)\n      0x44\n      dup3\n      add\n      mstore\n      0x64\n      swap1\n      revert\n    tag_92:\n      jumpi(tag_131, callvalue)\n      jumpi(tag_131, slt(add(not(0x03), calldatasize), 0x20))\n      tag_248\n      tag_8\n      jump\t// in\n    tag_248:\n        /* \"CrossFi-Treasury-Guard/contracts/utils/ExtendedAccessControl.sol\":2369:2382  getAllRoles() */\n      tag_249\n      tag_37\n      jump\t// in\n    tag_249:\n        /* \"CrossFi-Treasury-Guard/contracts/AIScoreRegistry.sol\":410:10788  contract AIScoreRegistry is IAIScoreRegistry, ExtendedAccessControl, Pausable, ReentrancyGuard {... */\n      0x00\n        /* \"CrossFi-Treasury-Guard/contracts/utils/ExtendedAccessControl.sol\":2433:2446  uint256 i = 0 */\n      swap2\n        /* \"CrossFi-Treasury-Guard/contracts/AIScoreRegistry.sol\":410:10788  contract AIScoreRegistry is IAIScoreRegistry, ExtendedAccessControl, Pausable, ReentrancyGuard {... */\n      0x00\n        /* \"CrossFi-Treasury-Guard/contracts/utils/ExtendedAccessControl.sol\":2469:2472  i++ */\n    tag_250:\n        /* \"CrossFi-Treasury-Guard/contracts/AIScoreRegistry.sol\":410:10788  contract AIScoreRegistry is IAIScoreRegistry, ExtendedAccessControl, Pausable, ReentrancyGuard {... */\n      dup3\n      mload\n        /* \"CrossFi-Treasury-Guard/contracts/utils/ExtendedAccessControl.sol\":2448:2467  i < allRoles.length */\n      dup2\n      lt\n      iszero\n      tag_251\n      jumpi\n        /* \"CrossFi-Treasury-Guard/contracts/utils/ExtendedAccessControl.sol\":2492:2521  hasRole(allRoles[i], account) */\n      tag_253\n        /* \"CrossFi-Treasury-Guard/contracts/utils/ExtendedAccessControl.sol\":2500:2511  allRoles[i] */\n      dup3\n      tag_254\n      dup4\n      dup7\n      tag_35\n      jump\t// in\n    tag_254:\n        /* \"CrossFi-Treasury-Guard/contracts/AIScoreRegistry.sol\":410:10788  contract AIScoreRegistry is IAIScoreRegistry, ExtendedAccessControl, Pausable, ReentrancyGuard {... */\n      mload\n        /* \"@openzeppelin/contracts/access/AccessControl.sol\":2930:2936  _roles */\n      0x00\n        /* \"CrossFi-Treasury-Guard/contracts/AIScoreRegistry.sol\":410:10788  contract AIScoreRegistry is IAIScoreRegistry, ExtendedAccessControl, Pausable, ReentrancyGuard {... */\n      mstore\n        /* \"@openzeppelin/contracts/access/AccessControl.sol\":2930:2936  _roles */\n      0x00\n        /* \"CrossFi-Treasury-Guard/contracts/AIScoreRegistry.sol\":410:10788  contract AIScoreRegistry is IAIScoreRegistry, ExtendedAccessControl, Pausable, ReentrancyGuard {... */\n      0x20\n      mstore\n      0x40\n        /* \"@openzeppelin/contracts/access/AccessControl.sol\":2930:2936  _roles */\n      0x00\n        /* \"CrossFi-Treasury-Guard/contracts/AIScoreRegistry.sol\":410:10788  contract AIScoreRegistry is IAIScoreRegistry, ExtendedAccessControl, Pausable, ReentrancyGuard {... */\n      keccak256\n      swap1\n      0x01\n      dup1\n      0xa0\n      shl\n      sub\n      and\n        /* \"@openzeppelin/contracts/access/AccessControl.sol\":2930:2936  _roles */\n      0x00\n        /* \"CrossFi-Treasury-Guard/contracts/AIScoreRegistry.sol\":410:10788  contract AIScoreRegistry is IAIScoreRegistry, ExtendedAccessControl, Pausable, ReentrancyGuard {... */\n      mstore\n      0x20\n      mstore\n      0xff\n      0x40\n        /* \"@openzeppelin/contracts/access/AccessControl.sol\":2930:2936  _roles */\n      0x00\n        /* \"CrossFi-Treasury-Guard/contracts/AIScoreRegistry.sol\":410:10788  contract AIScoreRegistry is IAIScoreRegistry, ExtendedAccessControl, Pausable, ReentrancyGuard {... */\n      keccak256\n      sload\n      and\n        /* \"@openzeppelin/contracts/access/AccessControl.sol\":2830:2966  function hasRole(bytes32 role, address account) public view virtual returns (bool) {... */\n      swap1\n      jump\n        /* \"CrossFi-Treasury-Guard/contracts/utils/ExtendedAccessControl.sol\":2492:2521  hasRole(allRoles[i], account) */\n    tag_253:\n        /* \"CrossFi-Treasury-Guard/contracts/utils/ExtendedAccessControl.sol\":2488:2563  if (hasRole(allRoles[i], account)) {... */\n      tag_255\n      jumpi\n        /* \"CrossFi-Treasury-Guard/contracts/utils/ExtendedAccessControl.sol\":2469:2472  i++ */\n    tag_256:\n      tag_257\n      swap1\n      tag_28\n      jump\t// in\n    tag_257:\n        /* \"CrossFi-Treasury-Guard/contracts/utils/ExtendedAccessControl.sol\":2433:2446  uint256 i = 0 */\n      jump(tag_250)\n        /* \"CrossFi-Treasury-Guard/contracts/utils/ExtendedAccessControl.sol\":2488:2563  if (hasRole(allRoles[i], account)) {... */\n    tag_255:\n        /* \"CrossFi-Treasury-Guard/contracts/utils/ExtendedAccessControl.sol\":2541:2548  count++ */\n      swap3\n      tag_258\n        /* \"CrossFi-Treasury-Guard/contracts/utils/ExtendedAccessControl.sol\":2469:2472  i++ */\n      tag_257\n        /* \"CrossFi-Treasury-Guard/contracts/utils/ExtendedAccessControl.sol\":2541:2548  count++ */\n      swap2\n      tag_28\n      jump\t// in\n    tag_258:\n        /* \"CrossFi-Treasury-Guard/contracts/utils/ExtendedAccessControl.sol\":2488:2563  if (hasRole(allRoles[i], account)) {... */\n      swap4\n      swap1\n      pop\n      jump(tag_256)\n        /* \"CrossFi-Treasury-Guard/contracts/utils/ExtendedAccessControl.sol\":2448:2467  i < allRoles.length */\n    tag_251:\n        /* \"CrossFi-Treasury-Guard/contracts/AIScoreRegistry.sol\":410:10788  contract AIScoreRegistry is IAIScoreRegistry, ExtendedAccessControl, Pausable, ReentrancyGuard {... */\n      0x20\n        /* \"CrossFi-Treasury-Guard/contracts/utils/ExtendedAccessControl.sol\":2448:2467  i < allRoles.length */\n      dup5\n        /* \"CrossFi-Treasury-Guard/contracts/AIScoreRegistry.sol\":410:10788  contract AIScoreRegistry is IAIScoreRegistry, ExtendedAccessControl, Pausable, ReentrancyGuard {... */\n      mload(0x40)\n      swap1\n      dup2\n      mstore\n      return\n    tag_90:\n      jumpi(tag_131, callvalue)\n      jumpi(tag_131, slt(add(not(0x03), calldatasize), 0x00))\n      0x20\n      mload(0x40)\n        /* \"CrossFi-Treasury-Guard/contracts/AIScoreRegistry.sol\":1353:1360  30 days */\n      0x278d00\n        /* \"CrossFi-Treasury-Guard/contracts/AIScoreRegistry.sol\":410:10788  contract AIScoreRegistry is IAIScoreRegistry, ExtendedAccessControl, Pausable, ReentrancyGuard {... */\n      dup2\n      mstore\n      return\n    tag_88:\n      jumpi(tag_131, callvalue)\n      jumpi(tag_131, slt(add(not(0x03), calldatasize), 0x00))\n      0x20\n      mload(0x40)\n      0x00\n      dup2\n      mstore\n      return\n    tag_86:\n      jumpi(tag_131, callvalue)\n      jumpi(tag_131, slt(add(not(0x03), calldatasize), 0x00))\n      0x20\n      mload(0x40)\n        /* \"CrossFi-Treasury-Guard/contracts/utils/ExtendedAccessControl.sol\":584:620  keccak256(\"MILESTONE_APPROVER_ROLE\") */\n      0x58223cdfb69946630d837d40b5c366a584f0217ada7fddd8318f2e08603cfa22\n        /* \"CrossFi-Treasury-Guard/contracts/AIScoreRegistry.sol\":410:10788  contract AIScoreRegistry is IAIScoreRegistry, ExtendedAccessControl, Pausable, ReentrancyGuard {... */\n      dup2\n      mstore\n      return\n    tag_84:\n      jumpi(tag_131, callvalue)\n      jumpi(tag_131, slt(add(not(0x03), calldatasize), 0x20))\n      calldataload(0x04)\n        /* \"CrossFi-Treasury-Guard/contracts/AIScoreRegistry.sol\":2080:2126  require(proposalId > 0, \"Invalid proposal ID\") */\n      tag_275\n        /* \"CrossFi-Treasury-Guard/contracts/AIScoreRegistry.sol\":2088:2102  proposalId > 0 */\n      dup2\n      iszero\n      iszero\n        /* \"CrossFi-Treasury-Guard/contracts/AIScoreRegistry.sol\":2080:2126  require(proposalId > 0, \"Invalid proposal ID\") */\n      tag_22\n      jump\t// in\n    tag_275:\n        /* \"CrossFi-Treasury-Guard/contracts/AIScoreRegistry.sol\":410:10788  contract AIScoreRegistry is IAIScoreRegistry, ExtendedAccessControl, Pausable, ReentrancyGuard {... */\n      0x00\n      mstore\n      mstore(0x20, 0x03)\n      0x20\n      0xff\n        /* \"CrossFi-Treasury-Guard/contracts/AIScoreRegistry.sol\":8031:8058  aiScores[proposalId].exists */\n      0x05\n        /* \"CrossFi-Treasury-Guard/contracts/AIScoreRegistry.sol\":410:10788  contract AIScoreRegistry is IAIScoreRegistry, ExtendedAccessControl, Pausable, ReentrancyGuard {... */\n      keccak256(0x00, 0x40)\n        /* \"CrossFi-Treasury-Guard/contracts/AIScoreRegistry.sol\":8031:8058  aiScores[proposalId].exists */\n      add\n        /* \"CrossFi-Treasury-Guard/contracts/AIScoreRegistry.sol\":410:10788  contract AIScoreRegistry is IAIScoreRegistry, ExtendedAccessControl, Pausable, ReentrancyGuard {... */\n      sload\n      0xa0\n      shr\n      and\n      mload(0x40)\n      swap1\n      iszero\n      iszero\n      dup2\n      mstore\n      return\n    tag_82:\n      jumpi(tag_131, callvalue)\n      jumpi(tag_131, slt(add(not(0x03), calldatasize), 0x40))\n      tag_280\n      tag_7\n      jump\t// in\n    tag_280:\n      mstore(0x00, calldataload(0x04))\n      mstore(0x20, 0x00)\n      keccak256(0x00, 0x40)\n      swap1\n      0x01\n      dup1\n      0xa0\n      shl\n      sub\n      and\n      0x00\n      mstore\n      0x20\n      mstore\n      0x20\n      and(sload(keccak256(0x00, 0x40)), 0xff)\n      mload(0x40)\n      swap1\n      iszero\n      iszero\n      dup2\n      mstore\n      return\n    tag_80:\n      jumpi(tag_131, callvalue)\n      tag_283\n      calldatasize\n      tag_9\n      jump\t// in\n    tag_283:\n        /* \"@openzeppelin/contracts/access/AccessControl.sol\":2484:2488  role */\n      tag_284\n      tag_14\n      jump\t// in\n    tag_284:\n        /* \"CrossFi-Treasury-Guard/contracts/AIScoreRegistry.sol\":410:10788  contract AIScoreRegistry is IAIScoreRegistry, ExtendedAccessControl, Pausable, ReentrancyGuard {... */\n      0x00\n        /* \"CrossFi-Treasury-Guard/contracts/utils/ExtendedAccessControl.sol\":1115:1118  i++ */\n    tag_285:\n        /* \"CrossFi-Treasury-Guard/contracts/AIScoreRegistry.sol\":410:10788  contract AIScoreRegistry is IAIScoreRegistry, ExtendedAccessControl, Pausable, ReentrancyGuard {... */\n      dup2\n      mload\n        /* \"CrossFi-Treasury-Guard/contracts/utils/ExtendedAccessControl.sol\":1097:1113  i < roles.length */\n      dup2\n      lt\n      iszero\n      tag_189\n      jumpi\n        /* \"CrossFi-Treasury-Guard/contracts/utils/ExtendedAccessControl.sol\":1144:1152  roles[i] */\n      dup1\n        /* \"@openzeppelin/contracts/access/AccessControl.sol\":4306:4331  _grantRole(role, account) */\n      tag_288\n        /* \"CrossFi-Treasury-Guard/contracts/utils/ExtendedAccessControl.sol\":1144:1152  roles[i] */\n      dup5\n      tag_289\n        /* \"CrossFi-Treasury-Guard/contracts/utils/ExtendedAccessControl.sol\":1115:1118  i++ */\n      tag_290\n        /* \"CrossFi-Treasury-Guard/contracts/utils/ExtendedAccessControl.sol\":1144:1152  roles[i] */\n      swap5\n      dup7\n      tag_35\n      jump\t// in\n    tag_289:\n        /* \"CrossFi-Treasury-Guard/contracts/AIScoreRegistry.sol\":410:10788  contract AIScoreRegistry is IAIScoreRegistry, ExtendedAccessControl, Pausable, ReentrancyGuard {... */\n      mload\n      dup1\n      0x00\n      mstore\n      mstore(0x20, 0x00)\n        /* \"@openzeppelin/contracts/access/AccessControl.sol\":2484:2488  role */\n      tag_291\n        /* \"@openzeppelin/contracts/access/AccessControl.sol\":3877:3899  _roles[role].adminRole */\n      0x01\n        /* \"CrossFi-Treasury-Guard/contracts/AIScoreRegistry.sol\":410:10788  contract AIScoreRegistry is IAIScoreRegistry, ExtendedAccessControl, Pausable, ReentrancyGuard {... */\n      keccak256(0x00, 0x40)\n        /* \"@openzeppelin/contracts/access/AccessControl.sol\":3877:3899  _roles[role].adminRole */\n      add\n        /* \"CrossFi-Treasury-Guard/contracts/AIScoreRegistry.sol\":410:10788  contract AIScoreRegistry is IAIScoreRegistry, ExtendedAccessControl, Pausable, ReentrancyGuard {... */\n      sload\n        /* \"@openzeppelin/contracts/access/AccessControl.sol\":2484:2488  role */\n      tag_15\n      jump\t// in\n    tag_291:\n        /* \"@openzeppelin/contracts/access/AccessControl.sol\":4306:4331  _grantRole(role, account) */\n      tag_18\n      jump\t// in\n    tag_288:\n      pop\n        /* \"CrossFi-Treasury-Guard/contracts/utils/ExtendedAccessControl.sol\":1115:1118  i++ */\n      tag_28\n      jump\t// in\n    tag_290:\n        /* \"CrossFi-Treasury-Guard/contracts/utils/ExtendedAccessControl.sol\":1082:1095  uint256 i = 0 */\n      jump(tag_285)\n        /* \"CrossFi-Treasury-Guard/contracts/AIScoreRegistry.sol\":410:10788  contract AIScoreRegistry is IAIScoreRegistry, ExtendedAccessControl, Pausable, ReentrancyGuard {... */\n    tag_78:\n      jumpi(tag_131, callvalue)\n      jumpi(tag_131, slt(add(not(0x03), calldatasize), 0x00))\n        /* \"@openzeppelin/contracts/access/AccessControl.sol\":2484:2488  role */\n      tag_296\n      tag_13\n      jump\t// in\n    tag_296:\n        /* \"@openzeppelin/contracts/security/Pausable.sol\":1204:1276  modifier whenNotPaused() {... */\n      tag_297\n      tag_29\n      jump\t// in\n    tag_297:\n        /* \"@openzeppelin/contracts/security/Pausable.sol\":2255:2259  true */\n      0x01\n        /* \"CrossFi-Treasury-Guard/contracts/AIScoreRegistry.sol\":410:10788  contract AIScoreRegistry is IAIScoreRegistry, ExtendedAccessControl, Pausable, ReentrancyGuard {... */\n      not(0xff)\n      dup2\n      sload\n      and\n      or\n        /* \"@openzeppelin/contracts/security/Pausable.sol\":2255:2259  true */\n      0x01\n        /* \"CrossFi-Treasury-Guard/contracts/AIScoreRegistry.sol\":410:10788  contract AIScoreRegistry is IAIScoreRegistry, ExtendedAccessControl, Pausable, ReentrancyGuard {... */\n      sstore\n        /* \"@openzeppelin/contracts/security/Pausable.sol\":2274:2294  Paused(_msgSender()) */\n      0x62e78cea01bee320cd4e420270b5ea74000d11b0c9f74754ebdbfc544b05a258\n        /* \"CrossFi-Treasury-Guard/contracts/AIScoreRegistry.sol\":410:10788  contract AIScoreRegistry is IAIScoreRegistry, ExtendedAccessControl, Pausable, ReentrancyGuard {... */\n      0x20\n      mload(0x40)\n        /* \"@openzeppelin/contracts/utils/Context.sol\":735:745  msg.sender */\n      caller\n        /* \"CrossFi-Treasury-Guard/contracts/AIScoreRegistry.sol\":410:10788  contract AIScoreRegistry is IAIScoreRegistry, ExtendedAccessControl, Pausable, ReentrancyGuard {... */\n      dup2\n      mstore\n        /* \"@openzeppelin/contracts/security/Pausable.sol\":2274:2294  Paused(_msgSender()) */\n      log1\n        /* \"CrossFi-Treasury-Guard/contracts/AIScoreRegistry.sol\":410:10788  contract AIScoreRegistry is IAIScoreRegistry, ExtendedAccessControl, Pausable, ReentrancyGuard {... */\n      stop\n    tag_76:\n      jumpi(tag_131, callvalue)\n      jumpi(tag_131, slt(add(not(0x03), calldatasize), 0x00))\n      0x20\n      mload(0x40)\n        /* \"CrossFi-Treasury-Guard/contracts/utils/ExtendedAccessControl.sol\":343:366  keccak256(\"ADMIN_ROLE\") */\n      0xa49807205ce4d355092ef5a8a18f56e8913cf4a201fbe287825b095693c21775\n        /* \"CrossFi-Treasury-Guard/contracts/AIScoreRegistry.sol\":410:10788  contract AIScoreRegistry is IAIScoreRegistry, ExtendedAccessControl, Pausable, ReentrancyGuard {... */\n      dup2\n      mstore\n      return\n    tag_74:\n      jumpi(tag_131, callvalue)\n      jumpi(tag_131, slt(add(not(0x03), calldatasize), 0x20))\n      sub(shl(0xa0, 0x01), 0x01)\n      tag_306\n      tag_8\n      jump\t// in\n    tag_306:\n      and\n      0x00\n      mstore\n        /* \"CrossFi-Treasury-Guard/contracts/AIScoreRegistry.sol\":1408:1459  mapping(address => uint256) public oracleScoreCount */\n      0x08\n        /* \"CrossFi-Treasury-Guard/contracts/AIScoreRegistry.sol\":410:10788  contract AIScoreRegistry is IAIScoreRegistry, ExtendedAccessControl, Pausable, ReentrancyGuard {... */\n      0x20\n      mstore\n      0x20\n      sload(keccak256(0x00, 0x40))\n      mload(0x40)\n      swap1\n      dup2\n      mstore\n      return\n    tag_72:\n      jumpi(tag_131, callvalue)\n      jumpi(tag_131, slt(add(not(0x03), calldatasize), 0x0120))\n      0x44\n      dup1\n      calldataload\n      sub(shl(0x40, 0x01), 0x01)\n      dup2\n      gt\n      tag_131\n      jumpi\n      tag_313\n      swap1\n      calldatasize\n      swap1\n      0x04\n      add\n      tag_6\n      jump\t// in\n    tag_313:\n      calldataload(0x64)\n      sub(shl(0x40, 0x01), 0x01)\n      dup2\n      gt\n      tag_131\n      jumpi\n      tag_316\n      swap1\n      calldatasize\n      swap1\n      0x04\n      add\n      tag_6\n      jump\t// in\n    tag_316:\n      jumpi(tag_131, slt(add(not(0x83), calldatasize), 0xa0))\n      mload(0x40)\n      swap3\n      tag_319\n      dup5\n      tag_4\n      jump\t// in\n    tag_319:\n      calldataload(0x84)\n      0xff\n      dup2\n      and\n      dup2\n      sub\n      tag_131\n      jumpi\n      dup5\n      mstore\n      calldataload(0xa4)\n      0xff\n      dup2\n      and\n      dup2\n      sub\n      tag_131\n      jumpi\n      0x20\n      dup6\n      add\n      mstore\n      calldataload(0xc4)\n      0xff\n      dup2\n      and\n      dup2\n      sub\n      tag_131\n      jumpi\n      0x40\n      dup6\n      add\n      mstore\n      calldataload(0xe4)\n      0xff\n      dup2\n      and\n      dup2\n      sub\n      tag_131\n      jumpi\n      0x60\n      dup6\n      add\n      mstore\n      calldataload(0x0104)\n      0xff\n      dup2\n      and\n      dup2\n      sub\n      tag_131\n      jumpi\n      0x80\n      dup6\n      add\n      mstore\n        /* \"CrossFi-Treasury-Guard/contracts/AIScoreRegistry.sol\":1820:1830  msg.sender */\n      caller\n        /* \"CrossFi-Treasury-Guard/contracts/AIScoreRegistry.sol\":410:10788  contract AIScoreRegistry is IAIScoreRegistry, ExtendedAccessControl, Pausable, ReentrancyGuard {... */\n      0x00\n      mstore\n      mstore(0x20, 0x04)\n        /* \"CrossFi-Treasury-Guard/contracts/AIScoreRegistry.sol\":1794:1857  require(authorizedOracles[msg.sender], \"Not authorized oracle\") */\n      tag_330\n        /* \"CrossFi-Treasury-Guard/contracts/AIScoreRegistry.sol\":410:10788  contract AIScoreRegistry is IAIScoreRegistry, ExtendedAccessControl, Pausable, ReentrancyGuard {... */\n      and(sload(keccak256(0x00, 0x40)), 0xff)\n        /* \"CrossFi-Treasury-Guard/contracts/AIScoreRegistry.sol\":1794:1857  require(authorizedOracles[msg.sender], \"Not authorized oracle\") */\n      tag_21\n      jump\t// in\n    tag_330:\n        /* \"CrossFi-Treasury-Guard/contracts/AIScoreRegistry.sol\":2080:2126  require(proposalId > 0, \"Invalid proposal ID\") */\n      tag_331\n        /* \"CrossFi-Treasury-Guard/contracts/AIScoreRegistry.sol\":410:10788  contract AIScoreRegistry is IAIScoreRegistry, ExtendedAccessControl, Pausable, ReentrancyGuard {... */\n      calldataload(0x04)\n        /* \"CrossFi-Treasury-Guard/contracts/AIScoreRegistry.sol\":2088:2102  proposalId > 0 */\n      iszero\n      iszero\n        /* \"CrossFi-Treasury-Guard/contracts/AIScoreRegistry.sol\":2080:2126  require(proposalId > 0, \"Invalid proposal ID\") */\n      tag_22\n      jump\t// in\n    tag_331:\n        /* \"CrossFi-Treasury-Guard/contracts/AIScoreRegistry.sol\":1926:1997  require(score >= MIN_SCORE && score <= MAX_SCORE, \"Score out of range\") */\n      tag_332\n        /* \"CrossFi-Treasury-Guard/contracts/AIScoreRegistry.sol\":410:10788  contract AIScoreRegistry is IAIScoreRegistry, ExtendedAccessControl, Pausable, ReentrancyGuard {... */\n      0x64\n      calldataload(0x24)\n        /* \"CrossFi-Treasury-Guard/contracts/AIScoreRegistry.sol\":1956:1974  score <= MAX_SCORE */\n      gt\n      iszero\n        /* \"CrossFi-Treasury-Guard/contracts/AIScoreRegistry.sol\":1926:1997  require(score >= MIN_SCORE && score <= MAX_SCORE, \"Score out of range\") */\n      tag_23\n      jump\t// in\n    tag_332:\n        /* \"@openzeppelin/contracts/security/Pausable.sol\":1204:1276  modifier whenNotPaused() {... */\n      tag_333\n      tag_29\n      jump\t// in\n    tag_333:\n        /* \"@openzeppelin/contracts/security/ReentrancyGuard.sol\":2468:2475  _status */\n      0x02\n        /* \"CrossFi-Treasury-Guard/contracts/AIScoreRegistry.sol\":410:10788  contract AIScoreRegistry is IAIScoreRegistry, ExtendedAccessControl, Pausable, ReentrancyGuard {... */\n      dup1\n      sload\n        /* \"@openzeppelin/contracts/security/ReentrancyGuard.sol\":2468:2487  _status != _ENTERED */\n      eq\n        /* \"@openzeppelin/contracts/security/ReentrancyGuard.sol\":1759:1760  2 */\n      tag_334\n      jumpi\n        /* \"@openzeppelin/contracts/security/ReentrancyGuard.sol\":2468:2475  _status */\n      0x02\n        /* \"CrossFi-Treasury-Guard/contracts/AIScoreRegistry.sol\":410:10788  contract AIScoreRegistry is IAIScoreRegistry, ExtendedAccessControl, Pausable, ReentrancyGuard {... */\n      dup1\n      sstore\n      dup3\n      mload\n        /* \"CrossFi-Treasury-Guard/contracts/AIScoreRegistry.sol\":3398:3433  bytes(justificationIPFS).length > 0 */\n      iszero\n        /* \"CrossFi-Treasury-Guard/contracts/AIScoreRegistry.sol\":410:10788  contract AIScoreRegistry is IAIScoreRegistry, ExtendedAccessControl, Pausable, ReentrancyGuard {... */\n      tag_336\n      jumpi\n      0xff\n      mload(0x40)\n      0x20\n      dup2\n      dup6\n      mload\n      tag_338\n      dup2\n      dup4\n      dup6\n      dup11\n      add\n      tag_1\n      jump\t// in\n    tag_338:\n      dup2\n      add\n        /* \"CrossFi-Treasury-Guard/contracts/AIScoreRegistry.sol\":3483:3498  supportedModels */\n      0x05\n        /* \"CrossFi-Treasury-Guard/contracts/AIScoreRegistry.sol\":410:10788  contract AIScoreRegistry is IAIScoreRegistry, ExtendedAccessControl, Pausable, ReentrancyGuard {... */\n      dup2\n      mstore\n      sub\n      add\n      swap1\n      keccak256\n      sload\n      and\n      iszero\n      tag_339\n      jumpi\n      mstore(0x00, calldataload(0x04))\n      mstore(0x20, 0x03)\n      0xff\n        /* \"CrossFi-Treasury-Guard/contracts/AIScoreRegistry.sol\":3483:3498  supportedModels */\n      0x05\n        /* \"CrossFi-Treasury-Guard/contracts/AIScoreRegistry.sol\":410:10788  contract AIScoreRegistry is IAIScoreRegistry, ExtendedAccessControl, Pausable, ReentrancyGuard {... */\n      keccak256(0x00, 0x40)\n        /* \"CrossFi-Treasury-Guard/contracts/AIScoreRegistry.sol\":3556:3583  aiScores[proposalId].exists */\n      add\n        /* \"CrossFi-Treasury-Guard/contracts/AIScoreRegistry.sol\":410:10788  contract AIScoreRegistry is IAIScoreRegistry, ExtendedAccessControl, Pausable, ReentrancyGuard {... */\n      sload\n      0xa0\n      shr\n      and\n      tag_341\n      jumpi\n      0x64\n      0xff\n      dup6\n      mload\n      and\n        /* \"CrossFi-Treasury-Guard/contracts/AIScoreRegistry.sol\":3685:3716  breakdown.ecosystemScore <= 100 */\n      gt\n      iszero\n        /* \"CrossFi-Treasury-Guard/contracts/AIScoreRegistry.sol\":3685:3765  breakdown.ecosystemScore <= 100 &&... */\n      dup1\n      tag_343\n      jumpi\n        /* \"CrossFi-Treasury-Guard/contracts/AIScoreRegistry.sol\":410:10788  contract AIScoreRegistry is IAIScoreRegistry, ExtendedAccessControl, Pausable, ReentrancyGuard {... */\n    tag_344:\n        /* \"CrossFi-Treasury-Guard/contracts/AIScoreRegistry.sol\":3685:3807  breakdown.ecosystemScore <= 100 &&... */\n      dup1\n      tag_345\n      jumpi\n        /* \"CrossFi-Treasury-Guard/contracts/AIScoreRegistry.sol\":410:10788  contract AIScoreRegistry is IAIScoreRegistry, ExtendedAccessControl, Pausable, ReentrancyGuard {... */\n    tag_346:\n        /* \"CrossFi-Treasury-Guard/contracts/AIScoreRegistry.sol\":3685:3849  breakdown.ecosystemScore <= 100 &&... */\n      dup1\n      tag_347\n      jumpi\n        /* \"CrossFi-Treasury-Guard/contracts/AIScoreRegistry.sol\":410:10788  contract AIScoreRegistry is IAIScoreRegistry, ExtendedAccessControl, Pausable, ReentrancyGuard {... */\n    tag_348:\n        /* \"CrossFi-Treasury-Guard/contracts/AIScoreRegistry.sol\":3685:3897  breakdown.ecosystemScore <= 100 &&... */\n      dup1\n      tag_349\n      jumpi\n        /* \"CrossFi-Treasury-Guard/contracts/AIScoreRegistry.sol\":410:10788  contract AIScoreRegistry is IAIScoreRegistry, ExtendedAccessControl, Pausable, ReentrancyGuard {... */\n    tag_350:\n      iszero\n      tag_351\n      jumpi\n      0xff\n      0x64\n      dup2\n        /* \"CrossFi-Treasury-Guard/contracts/AIScoreRegistry.sol\":3998:4341  (breakdown.ecosystemScore * scoringWeights.ecosystemContribution) +... */\n      tag_353\n        /* \"CrossFi-Treasury-Guard/contracts/AIScoreRegistry.sol\":410:10788  contract AIScoreRegistry is IAIScoreRegistry, ExtendedAccessControl, Pausable, ReentrancyGuard {... */\n      dup2\n      dup9\n      mload\n      and\n        /* \"CrossFi-Treasury-Guard/contracts/AIScoreRegistry.sol\":4287:4340  breakdown.innovationScore * scoringWeights.innovation */\n      tag_360\n        /* \"CrossFi-Treasury-Guard/contracts/AIScoreRegistry.sol\":3998:4271  (breakdown.ecosystemScore * scoringWeights.ecosystemContribution) +... */\n      tag_355\n        /* \"CrossFi-Treasury-Guard/contracts/AIScoreRegistry.sol\":410:10788  contract AIScoreRegistry is IAIScoreRegistry, ExtendedAccessControl, Pausable, ReentrancyGuard {... */\n      dup11\n        /* \"CrossFi-Treasury-Guard/contracts/AIScoreRegistry.sol\":4219:4270  breakdown.teamScore * scoringWeights.teamReputation */\n      tag_360\n        /* \"CrossFi-Treasury-Guard/contracts/AIScoreRegistry.sol\":410:10788  contract AIScoreRegistry is IAIScoreRegistry, ExtendedAccessControl, Pausable, ReentrancyGuard {... */\n      dup7\n      0x60\n        /* \"CrossFi-Treasury-Guard/contracts/AIScoreRegistry.sol\":3998:4203  (breakdown.ecosystemScore * scoringWeights.ecosystemContribution) +... */\n      tag_357\n        /* \"CrossFi-Treasury-Guard/contracts/AIScoreRegistry.sol\":3998:4135  (breakdown.ecosystemScore * scoringWeights.ecosystemContribution) +... */\n      tag_358\n        /* \"CrossFi-Treasury-Guard/contracts/AIScoreRegistry.sol\":3999:4062  breakdown.ecosystemScore * scoringWeights.ecosystemContribution */\n      tag_359\n        /* \"CrossFi-Treasury-Guard/contracts/AIScoreRegistry.sol\":4026:4040  scoringWeights */\n      0x06\n        /* \"CrossFi-Treasury-Guard/contracts/AIScoreRegistry.sol\":410:10788  contract AIScoreRegistry is IAIScoreRegistry, ExtendedAccessControl, Pausable, ReentrancyGuard {... */\n      sload\n      swap10\n      dup6\n      dup12\n      and\n        /* \"CrossFi-Treasury-Guard/contracts/AIScoreRegistry.sol\":3999:4062  breakdown.ecosystemScore * scoringWeights.ecosystemContribution */\n      swap1\n      tag_24\n      jump\t// in\n    tag_359:\n        /* \"CrossFi-Treasury-Guard/contracts/AIScoreRegistry.sol\":4079:4134  breakdown.feasibilityScore * scoringWeights.feasibility */\n      tag_360\n        /* \"CrossFi-Treasury-Guard/contracts/AIScoreRegistry.sol\":410:10788  contract AIScoreRegistry is IAIScoreRegistry, ExtendedAccessControl, Pausable, ReentrancyGuard {... */\n      dup6\n      0x20\n      dup10\n      add\n      mload\n      and\n      dup7\n      dup13\n      0x08\n      shr\n      and\n        /* \"CrossFi-Treasury-Guard/contracts/AIScoreRegistry.sol\":4079:4134  breakdown.feasibilityScore * scoringWeights.feasibility */\n      swap1\n      tag_24\n      jump\t// in\n    tag_360:\n        /* \"CrossFi-Treasury-Guard/contracts/AIScoreRegistry.sol\":3998:4135  (breakdown.ecosystemScore * scoringWeights.ecosystemContribution) +... */\n      swap1\n      tag_25\n      jump\t// in\n    tag_358:\n        /* \"CrossFi-Treasury-Guard/contracts/AIScoreRegistry.sol\":4151:4202  breakdown.riskScore * scoringWeights.riskAssessment */\n      tag_360\n        /* \"CrossFi-Treasury-Guard/contracts/AIScoreRegistry.sol\":410:10788  contract AIScoreRegistry is IAIScoreRegistry, ExtendedAccessControl, Pausable, ReentrancyGuard {... */\n      dup5\n      0x40\n      dup9\n      add\n      mload\n      and\n      dup6\n      dup12\n      0x10\n      shr\n      and\n        /* \"CrossFi-Treasury-Guard/contracts/AIScoreRegistry.sol\":4151:4202  breakdown.riskScore * scoringWeights.riskAssessment */\n      swap1\n      tag_24\n      jump\t// in\n        /* \"CrossFi-Treasury-Guard/contracts/AIScoreRegistry.sol\":3998:4203  (breakdown.ecosystemScore * scoringWeights.ecosystemContribution) +... */\n    tag_357:\n        /* \"CrossFi-Treasury-Guard/contracts/AIScoreRegistry.sol\":410:10788  contract AIScoreRegistry is IAIScoreRegistry, ExtendedAccessControl, Pausable, ReentrancyGuard {... */\n      swap4\n      add\n      mload\n      and\n      dup8\n      dup7\n      0x18\n      shr\n      and\n        /* \"CrossFi-Treasury-Guard/contracts/AIScoreRegistry.sol\":4219:4270  breakdown.teamScore * scoringWeights.teamReputation */\n      swap1\n      tag_24\n      jump\t// in\n        /* \"CrossFi-Treasury-Guard/contracts/AIScoreRegistry.sol\":3998:4271  (breakdown.ecosystemScore * scoringWeights.ecosystemContribution) +... */\n    tag_355:\n        /* \"CrossFi-Treasury-Guard/contracts/AIScoreRegistry.sol\":410:10788  contract AIScoreRegistry is IAIScoreRegistry, ExtendedAccessControl, Pausable, ReentrancyGuard {... */\n      swap2\n      dup5\n      dup1\n      0x80\n      dup14\n      add\n      mload\n      and\n      swap2\n      0x20\n      shr\n      and\n        /* \"CrossFi-Treasury-Guard/contracts/AIScoreRegistry.sol\":4287:4340  breakdown.innovationScore * scoringWeights.innovation */\n      swap1\n      tag_24\n      jump\t// in\n        /* \"CrossFi-Treasury-Guard/contracts/AIScoreRegistry.sol\":3998:4341  (breakdown.ecosystemScore * scoringWeights.ecosystemContribution) +... */\n    tag_353:\n        /* \"CrossFi-Treasury-Guard/contracts/AIScoreRegistry.sol\":410:10788  contract AIScoreRegistry is IAIScoreRegistry, ExtendedAccessControl, Pausable, ReentrancyGuard {... */\n      and\n      div\n      and\n      not(0x04)\n      dup2\n      add\n      dup2\n      dup2\n      gt\n      tag_241\n      jumpi\n      calldataload(0x24)\n        /* \"CrossFi-Treasury-Guard/contracts/AIScoreRegistry.sol\":4389:4424  overallScore >= calculatedScore - 5 */\n      lt\n      iszero\n        /* \"CrossFi-Treasury-Guard/contracts/AIScoreRegistry.sol\":4389:4463  overallScore >= calculatedScore - 5 && overallScore <= calculatedScore + 5 */\n      swap1\n      dup2\n      tag_364\n      jumpi\n        /* \"CrossFi-Treasury-Guard/contracts/AIScoreRegistry.sol\":410:10788  contract AIScoreRegistry is IAIScoreRegistry, ExtendedAccessControl, Pausable, ReentrancyGuard {... */\n    tag_365:\n      pop\n      iszero\n      tag_366\n      jumpi\n      pop\n      mload(0x40)\n      swap3\n      tag_368\n      dup5\n      tag_3\n      jump\t// in\n    tag_368:\n      calldataload(0x04)\n      dup5\n      mstore\n      calldataload(0x24)\n      0x20\n        /* \"CrossFi-Treasury-Guard/contracts/AIScoreRegistry.sol\":4556:4877  AIScoreData({... */\n      dup6\n      add\n        /* \"CrossFi-Treasury-Guard/contracts/AIScoreRegistry.sol\":410:10788  contract AIScoreRegistry is IAIScoreRegistry, ExtendedAccessControl, Pausable, ReentrancyGuard {... */\n      mstore\n        /* \"CrossFi-Treasury-Guard/contracts/AIScoreRegistry.sol\":4556:4877  AIScoreData({... */\n      dup3\n        /* \"CrossFi-Treasury-Guard/contracts/AIScoreRegistry.sol\":410:10788  contract AIScoreRegistry is IAIScoreRegistry, ExtendedAccessControl, Pausable, ReentrancyGuard {... */\n      0x40\n        /* \"CrossFi-Treasury-Guard/contracts/AIScoreRegistry.sol\":4556:4877  AIScoreData({... */\n      dup6\n      add\n        /* \"CrossFi-Treasury-Guard/contracts/AIScoreRegistry.sol\":410:10788  contract AIScoreRegistry is IAIScoreRegistry, ExtendedAccessControl, Pausable, ReentrancyGuard {... */\n      mstore\n        /* \"CrossFi-Treasury-Guard/contracts/AIScoreRegistry.sol\":4556:4877  AIScoreData({... */\n      dup2\n        /* \"CrossFi-Treasury-Guard/contracts/AIScoreRegistry.sol\":410:10788  contract AIScoreRegistry is IAIScoreRegistry, ExtendedAccessControl, Pausable, ReentrancyGuard {... */\n      0x60\n        /* \"CrossFi-Treasury-Guard/contracts/AIScoreRegistry.sol\":4556:4877  AIScoreData({... */\n      dup6\n      add\n        /* \"CrossFi-Treasury-Guard/contracts/AIScoreRegistry.sol\":410:10788  contract AIScoreRegistry is IAIScoreRegistry, ExtendedAccessControl, Pausable, ReentrancyGuard {... */\n      mstore\n        /* \"CrossFi-Treasury-Guard/contracts/AIScoreRegistry.sol\":4759:4774  block.timestamp */\n      timestamp\n        /* \"CrossFi-Treasury-Guard/contracts/AIScoreRegistry.sol\":410:10788  contract AIScoreRegistry is IAIScoreRegistry, ExtendedAccessControl, Pausable, ReentrancyGuard {... */\n      0x80\n        /* \"CrossFi-Treasury-Guard/contracts/AIScoreRegistry.sol\":4556:4877  AIScoreData({... */\n      dup6\n      add\n        /* \"CrossFi-Treasury-Guard/contracts/AIScoreRegistry.sol\":410:10788  contract AIScoreRegistry is IAIScoreRegistry, ExtendedAccessControl, Pausable, ReentrancyGuard {... */\n      mstore\n        /* \"CrossFi-Treasury-Guard/contracts/AIScoreRegistry.sol\":1820:1830  msg.sender */\n      caller\n        /* \"CrossFi-Treasury-Guard/contracts/AIScoreRegistry.sol\":410:10788  contract AIScoreRegistry is IAIScoreRegistry, ExtendedAccessControl, Pausable, ReentrancyGuard {... */\n      0xa0\n        /* \"CrossFi-Treasury-Guard/contracts/AIScoreRegistry.sol\":4556:4877  AIScoreData({... */\n      dup6\n      add\n        /* \"CrossFi-Treasury-Guard/contracts/AIScoreRegistry.sol\":410:10788  contract AIScoreRegistry is IAIScoreRegistry, ExtendedAccessControl, Pausable, ReentrancyGuard {... */\n      mstore\n      0x01\n        /* \"CrossFi-Treasury-Guard/contracts/AIScoreRegistry.sol\":4556:4877  AIScoreData({... */\n      0xc0\n      dup6\n      add\n        /* \"CrossFi-Treasury-Guard/contracts/AIScoreRegistry.sol\":410:10788  contract AIScoreRegistry is IAIScoreRegistry, ExtendedAccessControl, Pausable, ReentrancyGuard {... */\n      mstore\n      0xe0\n        /* \"CrossFi-Treasury-Guard/contracts/AIScoreRegistry.sol\":4556:4877  AIScoreData({... */\n      dup5\n      add\n        /* \"CrossFi-Treasury-Guard/contracts/AIScoreRegistry.sol\":410:10788  contract AIScoreRegistry is IAIScoreRegistry, ExtendedAccessControl, Pausable, ReentrancyGuard {... */\n      mstore\n      mstore(0x00, calldataload(0x04))\n      mstore(0x20, 0x03)\n      keccak256(0x00, 0x40)\n      swap3\n      dup1\n      mload\n      dup5\n      sstore\n      0x20\n        /* \"CrossFi-Treasury-Guard/contracts/AIScoreRegistry.sol\":4556:4877  AIScoreData({... */\n      dup2\n      add\n        /* \"CrossFi-Treasury-Guard/contracts/AIScoreRegistry.sol\":410:10788  contract AIScoreRegistry is IAIScoreRegistry, ExtendedAccessControl, Pausable, ReentrancyGuard {... */\n      mload\n      0x01\n      dup6\n      add\n      sstore\n      0x40\n        /* \"CrossFi-Treasury-Guard/contracts/AIScoreRegistry.sol\":4556:4877  AIScoreData({... */\n      dup2\n      add\n        /* \"CrossFi-Treasury-Guard/contracts/AIScoreRegistry.sol\":410:10788  contract AIScoreRegistry is IAIScoreRegistry, ExtendedAccessControl, Pausable, ReentrancyGuard {... */\n      mload\n      dup1\n      mload\n      swap1\n      sub(shl(0x40, 0x01), 0x01)\n      dup3\n      gt\n      tag_379\n      jumpi\n      dup2\n      swap1\n      tag_371\n        /* \"@openzeppelin/contracts/security/ReentrancyGuard.sol\":2468:2475  _status */\n      0x02\n        /* \"CrossFi-Treasury-Guard/contracts/AIScoreRegistry.sol\":410:10788  contract AIScoreRegistry is IAIScoreRegistry, ExtendedAccessControl, Pausable, ReentrancyGuard {... */\n      dup9\n      add\n      sload\n      tag_26\n      jump\t// in\n    tag_371:\n      0x1f\n      dup2\n      gt\n      tag_372\n      jumpi\n    tag_373:\n      pop\n      0x20\n      swap1\n      0x1f\n      dup4\n      gt\n      0x01\n      eq\n      tag_374\n      jumpi\n      0x00\n      swap3\n      tag_376\n      jumpi\n    tag_377:\n      pop\n      pop\n      dup2\n      0x01\n      shl\n      swap2\n      not(0x00)\n      swap1\n      0x03\n      shl\n      shr\n      not\n      and\n      or\n        /* \"@openzeppelin/contracts/security/ReentrancyGuard.sol\":2468:2475  _status */\n      0x02\n        /* \"CrossFi-Treasury-Guard/contracts/AIScoreRegistry.sol\":410:10788  contract AIScoreRegistry is IAIScoreRegistry, ExtendedAccessControl, Pausable, ReentrancyGuard {... */\n      dup6\n      add\n      sstore\n    tag_378:\n      0x60\n        /* \"CrossFi-Treasury-Guard/contracts/AIScoreRegistry.sol\":4556:4877  AIScoreData({... */\n      dup2\n      add\n        /* \"CrossFi-Treasury-Guard/contracts/AIScoreRegistry.sol\":410:10788  contract AIScoreRegistry is IAIScoreRegistry, ExtendedAccessControl, Pausable, ReentrancyGuard {... */\n      mload\n      dup1\n      mload\n      swap1\n      sub(shl(0x40, 0x01), 0x01)\n      dup3\n      gt\n      tag_379\n      jumpi\n      tag_381\n      0x03\n      dup8\n      add\n      sload\n      tag_26\n      jump\t// in\n    tag_381:\n      0x1f\n      dup2\n      gt\n      tag_382\n      jumpi\n    tag_383:\n      pop\n      0x20\n      swap1\n      0x1f\n      dup4\n      gt\n      0x01\n      eq\n      tag_384\n      jumpi\n      swap6\n      dup3\n      0xe0\n      swap4\n        /* \"CrossFi-Treasury-Guard/contracts/AIScoreRegistry.sol\":4026:4040  scoringWeights */\n      0x06\n        /* \"CrossFi-Treasury-Guard/contracts/AIScoreRegistry.sol\":410:10788  contract AIScoreRegistry is IAIScoreRegistry, ExtendedAccessControl, Pausable, ReentrancyGuard {... */\n      swap4\n      tag_386\n      swap9\n      swap10\n      0x00\n      swap3\n      tag_387\n      jumpi\n    tag_388:\n      pop\n      pop\n      dup2\n      0x01\n      shl\n      swap2\n      not(0x00)\n      swap1\n      0x03\n      shl\n      shr\n      not\n      and\n      or\n      0x03\n      dup3\n      add\n      sstore\n    tag_389:\n      0x80\n        /* \"CrossFi-Treasury-Guard/contracts/AIScoreRegistry.sol\":4556:4877  AIScoreData({... */\n      dup5\n      add\n        /* \"CrossFi-Treasury-Guard/contracts/AIScoreRegistry.sol\":410:10788  contract AIScoreRegistry is IAIScoreRegistry, ExtendedAccessControl, Pausable, ReentrancyGuard {... */\n      mload\n      0x04\n      dup3\n      add\n      sstore\n        /* \"CrossFi-Treasury-Guard/contracts/AIScoreRegistry.sol\":3483:3498  supportedModels */\n      0x05\n        /* \"CrossFi-Treasury-Guard/contracts/AIScoreRegistry.sol\":410:10788  contract AIScoreRegistry is IAIScoreRegistry, ExtendedAccessControl, Pausable, ReentrancyGuard {... */\n      dup2\n      add\n      0x01\n      dup1\n      0xa0\n      shl\n      sub\n      0xa0\n        /* \"CrossFi-Treasury-Guard/contracts/AIScoreRegistry.sol\":4556:4877  AIScoreData({... */\n      dup7\n      add\n        /* \"CrossFi-Treasury-Guard/contracts/AIScoreRegistry.sol\":410:10788  contract AIScoreRegistry is IAIScoreRegistry, ExtendedAccessControl, Pausable, ReentrancyGuard {... */\n      mload\n      and\n      dup2\n      sload\n      swap1\n      shl(0xa0, 0xff)\n        /* \"CrossFi-Treasury-Guard/contracts/AIScoreRegistry.sol\":4556:4877  AIScoreData({... */\n      0xc0\n      dup9\n      add\n        /* \"CrossFi-Treasury-Guard/contracts/AIScoreRegistry.sol\":410:10788  contract AIScoreRegistry is IAIScoreRegistry, ExtendedAccessControl, Pausable, ReentrancyGuard {... */\n      mload\n      iszero\n      iszero\n      0xa0\n      shl\n      and\n      swap2\n      shl(0xa8, 0xffffffffffffffffffffff)\n      and\n      or\n      or\n      swap1\n      sstore\n      add\n        /* \"CrossFi-Treasury-Guard/contracts/AIScoreRegistry.sol\":4556:4877  AIScoreData({... */\n      swap2\n      add\n        /* \"CrossFi-Treasury-Guard/contracts/AIScoreRegistry.sol\":410:10788  contract AIScoreRegistry is IAIScoreRegistry, ExtendedAccessControl, Pausable, ReentrancyGuard {... */\n      mload\n      0xff\n      dup2\n      mload\n      and\n      swap1\n      dup3\n      sload\n      swap2\n      0xff00\n      0x20\n      dup4\n      add\n      mload\n      0x08\n      shl\n      and\n      0xff0000\n      0x40\n      dup5\n      add\n      mload\n      0x10\n      shl\n      and\n      swap2\n      0xff00000000\n      0x80\n      0xff000000\n      0x60\n      dup8\n      add\n      mload\n      0x18\n      shl\n      and\n      swap6\n      add\n      mload\n      0x20\n      shl\n      and\n      swap5\n      not(0xffffffffff)\n      and\n      or\n      or\n      or\n      or\n      or\n      swap1\n      sstore\n        /* \"CrossFi-Treasury-Guard/contracts/AIScoreRegistry.sol\":4896:4918  totalScoresSubmitted++ */\n      tag_390\n      0x07\n        /* \"CrossFi-Treasury-Guard/contracts/AIScoreRegistry.sol\":410:10788  contract AIScoreRegistry is IAIScoreRegistry, ExtendedAccessControl, Pausable, ReentrancyGuard {... */\n      sload\n        /* \"CrossFi-Treasury-Guard/contracts/AIScoreRegistry.sol\":4896:4918  totalScoresSubmitted++ */\n      tag_28\n      jump\t// in\n    tag_390:\n      0x07\n        /* \"CrossFi-Treasury-Guard/contracts/AIScoreRegistry.sol\":410:10788  contract AIScoreRegistry is IAIScoreRegistry, ExtendedAccessControl, Pausable, ReentrancyGuard {... */\n      sstore\n        /* \"CrossFi-Treasury-Guard/contracts/AIScoreRegistry.sol\":1820:1830  msg.sender */\n      caller\n        /* \"CrossFi-Treasury-Guard/contracts/AIScoreRegistry.sol\":410:10788  contract AIScoreRegistry is IAIScoreRegistry, ExtendedAccessControl, Pausable, ReentrancyGuard {... */\n      0x00\n      mstore\n      mstore(0x20, 0x08)\n      keccak256(0x00, 0x40)\n        /* \"CrossFi-Treasury-Guard/contracts/AIScoreRegistry.sol\":4928:4958  oracleScoreCount[msg.sender]++ */\n      tag_391\n        /* \"CrossFi-Treasury-Guard/contracts/AIScoreRegistry.sol\":410:10788  contract AIScoreRegistry is IAIScoreRegistry, ExtendedAccessControl, Pausable, ReentrancyGuard {... */\n      dup2\n      sload\n        /* \"CrossFi-Treasury-Guard/contracts/AIScoreRegistry.sol\":4928:4958  oracleScoreCount[msg.sender]++ */\n      tag_28\n      jump\t// in\n    tag_391:\n        /* \"CrossFi-Treasury-Guard/contracts/AIScoreRegistry.sol\":410:10788  contract AIScoreRegistry is IAIScoreRegistry, ExtendedAccessControl, Pausable, ReentrancyGuard {... */\n      swap1\n      sstore\n      tag_392\n      mload(0x40)\n      swap4\n      calldataload(0x24)\n      dup6\n      mstore\n      0x80\n      0x20\n      dup7\n      add\n      mstore\n      0x80\n      dup6\n      add\n      swap1\n      tag_2\n      jump\t// in\n    tag_392:\n      swap1\n      dup4\n      dup3\n      sub\n      0x40\n      dup6\n      add\n      mstore\n      tag_2\n      jump\t// in\n    tag_386:\n        /* \"CrossFi-Treasury-Guard/contracts/AIScoreRegistry.sol\":4759:4774  block.timestamp */\n      timestamp\n        /* \"CrossFi-Treasury-Guard/contracts/AIScoreRegistry.sol\":410:10788  contract AIScoreRegistry is IAIScoreRegistry, ExtendedAccessControl, Pausable, ReentrancyGuard {... */\n      0x60\n      dup4\n      add\n      mstore\n        /* \"CrossFi-Treasury-Guard/contracts/AIScoreRegistry.sol\":4982:5168  AIScoreSubmitted(... */\n      0x09e8ad66e4736435405704d301d344e9454f286d3feeb2036b1adc6f4900ccbc\n        /* \"CrossFi-Treasury-Guard/contracts/AIScoreRegistry.sol\":1820:1830  msg.sender */\n      caller\n        /* \"CrossFi-Treasury-Guard/contracts/AIScoreRegistry.sol\":410:10788  contract AIScoreRegistry is IAIScoreRegistry, ExtendedAccessControl, Pausable, ReentrancyGuard {... */\n      swap3\n      dup1\n      calldataload(0x04)\n        /* \"CrossFi-Treasury-Guard/contracts/AIScoreRegistry.sol\":4982:5168  AIScoreSubmitted(... */\n      swap4\n      sub\n      swap1\n      log3\n        /* \"CrossFi-Treasury-Guard/contracts/AIScoreRegistry.sol\":410:10788  contract AIScoreRegistry is IAIScoreRegistry, ExtendedAccessControl, Pausable, ReentrancyGuard {... */\n      0x01\n        /* \"@openzeppelin/contracts/security/ReentrancyGuard.sol\":2468:2475  _status */\n      0x02\n        /* \"CrossFi-Treasury-Guard/contracts/AIScoreRegistry.sol\":410:10788  contract AIScoreRegistry is IAIScoreRegistry, ExtendedAccessControl, Pausable, ReentrancyGuard {... */\n      sstore\n      stop\n    tag_387:\n      add\n      mload\n      swap1\n      pop\n      dup10\n      dup1\n      jump(tag_388)\n    tag_384:\n      swap1\n      0x03\n      dup8\n      add\n      0x00\n      mstore\n      keccak256(0x00, 0x20)\n      swap2\n      0x00\n    tag_393:\n      not(0x1f)\n      dup6\n      and\n      dup2\n      lt\n      tag_394\n      jumpi\n      pop\n      dup4\n        /* \"CrossFi-Treasury-Guard/contracts/AIScoreRegistry.sol\":4026:4040  scoringWeights */\n      0x06\n        /* \"CrossFi-Treasury-Guard/contracts/AIScoreRegistry.sol\":410:10788  contract AIScoreRegistry is IAIScoreRegistry, ExtendedAccessControl, Pausable, ReentrancyGuard {... */\n      swap4\n      tag_386\n      swap9\n      swap10\n      swap4\n      0x01\n      swap4\n      0xe0\n      swap8\n      not(0x1f)\n      dup2\n      and\n      lt\n      tag_396\n      jumpi\n    tag_397:\n      pop\n      pop\n      pop\n      dup2\n      shl\n      add\n      0x03\n      dup3\n      add\n      sstore\n      jump(tag_389)\n    tag_396:\n      add\n      mload\n      not(0x00)\n      0xf8\n      dup5\n      0x03\n      shl\n      and\n      shr\n      not\n      and\n      swap1\n      sstore\n      dup10\n      dup1\n      dup1\n      jump(tag_397)\n    tag_394:\n      swap2\n      swap3\n      0x20\n      0x01\n      dup2\n      swap3\n      dup7\n      dup6\n      add\n      mload\n      dup2\n      sstore\n      add\n      swap5\n      add\n      swap3\n      add\n      jump(tag_393)\n    tag_382:\n      tag_398\n      swap1\n      0x03\n      dup9\n      add\n      0x00\n      mstore\n      keccak256(0x00, 0x20)\n      0x1f\n      dup6\n      add\n        /* \"CrossFi-Treasury-Guard/contracts/AIScoreRegistry.sol\":3483:3498  supportedModels */\n      0x05\n        /* \"CrossFi-Treasury-Guard/contracts/AIScoreRegistry.sol\":410:10788  contract AIScoreRegistry is IAIScoreRegistry, ExtendedAccessControl, Pausable, ReentrancyGuard {... */\n      shr\n      dup2\n      add\n      swap2\n      0x20\n      dup7\n      lt\n      tag_399\n      jumpi\n    tag_400:\n      0x1f\n      add\n        /* \"CrossFi-Treasury-Guard/contracts/AIScoreRegistry.sol\":3483:3498  supportedModels */\n      0x05\n        /* \"CrossFi-Treasury-Guard/contracts/AIScoreRegistry.sol\":410:10788  contract AIScoreRegistry is IAIScoreRegistry, ExtendedAccessControl, Pausable, ReentrancyGuard {... */\n      shr\n      add\n      swap1\n      tag_27\n      jump\t// in\n    tag_398:\n      dup7\n      jump(tag_383)\n    tag_399:\n      swap1\n      swap2\n      pop\n      dup2\n      swap1\n      jump(tag_400)\n    tag_379:\n      mstore(0x00, shl(0xe0, 0x4e487b71))\n      mstore(0x04, 0x41)\n      revert(0x00, 0x24)\n    tag_376:\n      add\n      mload\n      swap1\n      pop\n      dup7\n      dup1\n      jump(tag_377)\n    tag_374:\n      swap3\n      pop\n        /* \"@openzeppelin/contracts/security/ReentrancyGuard.sol\":2468:2475  _status */\n      0x02\n        /* \"CrossFi-Treasury-Guard/contracts/AIScoreRegistry.sol\":410:10788  contract AIScoreRegistry is IAIScoreRegistry, ExtendedAccessControl, Pausable, ReentrancyGuard {... */\n      dup8\n      add\n      0x00\n      mstore\n      keccak256(0x00, 0x20)\n      swap1\n      0x00\n      swap4\n    tag_401:\n      not(0x1f)\n      dup5\n      and\n      dup6\n      lt\n      tag_402\n      jumpi\n      0x01\n      swap5\n      pop\n      dup4\n      not(0x1f)\n      dup2\n      and\n      lt\n      tag_404\n      jumpi\n    tag_405:\n      pop\n      pop\n      pop\n      dup2\n      shl\n      add\n        /* \"@openzeppelin/contracts/security/ReentrancyGuard.sol\":2468:2475  _status */\n      0x02\n        /* \"CrossFi-Treasury-Guard/contracts/AIScoreRegistry.sol\":410:10788  contract AIScoreRegistry is IAIScoreRegistry, ExtendedAccessControl, Pausable, ReentrancyGuard {... */\n      dup6\n      add\n      sstore\n      jump(tag_378)\n    tag_404:\n      add\n      mload\n      not(0x00)\n      0xf8\n      dup5\n      0x03\n      shl\n      and\n      shr\n      not\n      and\n      swap1\n      sstore\n      dup7\n      dup1\n      dup1\n      jump(tag_405)\n    tag_402:\n      dup2\n      dup2\n      add\n      mload\n      dup4\n      sstore\n      0x20\n      swap5\n      dup6\n      add\n      swap5\n      0x01\n      swap1\n      swap4\n      add\n      swap3\n      swap1\n      swap2\n      add\n      swap1\n      jump(tag_401)\n    tag_372:\n      tag_406\n      swap1\n        /* \"@openzeppelin/contracts/security/ReentrancyGuard.sol\":2468:2475  _status */\n      0x02\n        /* \"CrossFi-Treasury-Guard/contracts/AIScoreRegistry.sol\":410:10788  contract AIScoreRegistry is IAIScoreRegistry, ExtendedAccessControl, Pausable, ReentrancyGuard {... */\n      dup10\n      add\n      0x00\n      mstore\n      keccak256(0x00, 0x20)\n      0x1f\n      dup6\n      add\n        /* \"CrossFi-Treasury-Guard/contracts/AIScoreRegistry.sol\":3483:3498  supportedModels */\n      0x05\n        /* \"CrossFi-Treasury-Guard/contracts/AIScoreRegistry.sol\":410:10788  contract AIScoreRegistry is IAIScoreRegistry, ExtendedAccessControl, Pausable, ReentrancyGuard {... */\n      shr\n      dup2\n      add\n      swap2\n      0x20\n      dup7\n      lt\n      tag_399\n      jumpi\n      0x1f\n      add\n        /* \"CrossFi-Treasury-Guard/contracts/AIScoreRegistry.sol\":3483:3498  supportedModels */\n      0x05\n        /* \"CrossFi-Treasury-Guard/contracts/AIScoreRegistry.sol\":410:10788  contract AIScoreRegistry is IAIScoreRegistry, ExtendedAccessControl, Pausable, ReentrancyGuard {... */\n      shr\n      add\n      swap1\n      tag_27\n      jump\t// in\n    tag_406:\n      dup8\n      jump(tag_373)\n    tag_366:\n      0x84\n      swap1\n      0x53636f726520696e636f6e73697374656e74207769746820627265616b646f77\n      mload(0x40)\n      swap2\n      shl(0xe5, 0x461bcd)\n      dup4\n      mstore\n      0x20\n      0x04\n      dup5\n      add\n      mstore\n      0x21\n      0x24\n      dup5\n      add\n      mstore\n      dup3\n      add\n      mstore\n      shl(0xf9, 0x37)\n      0x64\n      dup3\n      add\n      mstore\n      revert\n        /* \"CrossFi-Treasury-Guard/contracts/AIScoreRegistry.sol\":4389:4463  overallScore >= calculatedScore - 5 && overallScore <= calculatedScore + 5 */\n    tag_364:\n        /* \"CrossFi-Treasury-Guard/contracts/AIScoreRegistry.sol\":410:10788  contract AIScoreRegistry is IAIScoreRegistry, ExtendedAccessControl, Pausable, ReentrancyGuard {... */\n      swap1\n      pop\n        /* \"CrossFi-Treasury-Guard/contracts/AIScoreRegistry.sol\":3483:3498  supportedModels */\n      0x05\n        /* \"CrossFi-Treasury-Guard/contracts/AIScoreRegistry.sol\":410:10788  contract AIScoreRegistry is IAIScoreRegistry, ExtendedAccessControl, Pausable, ReentrancyGuard {... */\n      dup2\n      add\n      dup1\n      swap2\n      gt\n      tag_241\n      jumpi\n      calldataload(0x24)\n        /* \"CrossFi-Treasury-Guard/contracts/AIScoreRegistry.sol\":4428:4463  overallScore <= calculatedScore + 5 */\n      gt\n      iszero\n        /* \"CrossFi-Treasury-Guard/contracts/AIScoreRegistry.sol\":4389:4463  overallScore >= calculatedScore - 5 && overallScore <= calculatedScore + 5 */\n      dup6\n      jump(tag_365)\n        /* \"CrossFi-Treasury-Guard/contracts/AIScoreRegistry.sol\":410:10788  contract AIScoreRegistry is IAIScoreRegistry, ExtendedAccessControl, Pausable, ReentrancyGuard {... */\n    tag_351:\n      0x64\n      swap1\n      0x496e76616c696420627265616b646f776e2073636f7265730000000000000000\n      mload(0x40)\n      swap2\n      shl(0xe5, 0x461bcd)\n      dup4\n      mstore\n      0x20\n      0x04\n      dup5\n      add\n      mstore\n      0x18\n      0x24\n      dup5\n      add\n      mstore\n      dup3\n      add\n      mstore\n      revert\n        /* \"CrossFi-Treasury-Guard/contracts/AIScoreRegistry.sol\":3685:3897  breakdown.ecosystemScore <= 100 &&... */\n    tag_349:\n        /* \"CrossFi-Treasury-Guard/contracts/AIScoreRegistry.sol\":410:10788  contract AIScoreRegistry is IAIScoreRegistry, ExtendedAccessControl, Pausable, ReentrancyGuard {... */\n      pop\n      0x64\n      0xff\n      0x80\n      dup7\n      add\n      mload\n      and\n        /* \"CrossFi-Treasury-Guard/contracts/AIScoreRegistry.sol\":3865:3897  breakdown.innovationScore <= 100 */\n      gt\n      iszero\n        /* \"CrossFi-Treasury-Guard/contracts/AIScoreRegistry.sol\":3685:3897  breakdown.ecosystemScore <= 100 &&... */\n      jump(tag_350)\n        /* \"CrossFi-Treasury-Guard/contracts/AIScoreRegistry.sol\":3685:3849  breakdown.ecosystemScore <= 100 &&... */\n    tag_347:\n        /* \"CrossFi-Treasury-Guard/contracts/AIScoreRegistry.sol\":410:10788  contract AIScoreRegistry is IAIScoreRegistry, ExtendedAccessControl, Pausable, ReentrancyGuard {... */\n      pop\n      0x64\n      0xff\n      0x60\n      dup7\n      add\n      mload\n      and\n        /* \"CrossFi-Treasury-Guard/contracts/AIScoreRegistry.sol\":3823:3849  breakdown.teamScore <= 100 */\n      gt\n      iszero\n        /* \"CrossFi-Treasury-Guard/contracts/AIScoreRegistry.sol\":3685:3849  breakdown.ecosystemScore <= 100 &&... */\n      jump(tag_348)\n        /* \"CrossFi-Treasury-Guard/contracts/AIScoreRegistry.sol\":3685:3807  breakdown.ecosystemScore <= 100 &&... */\n    tag_345:\n        /* \"CrossFi-Treasury-Guard/contracts/AIScoreRegistry.sol\":410:10788  contract AIScoreRegistry is IAIScoreRegistry, ExtendedAccessControl, Pausable, ReentrancyGuard {... */\n      pop\n      0x64\n      0xff\n      0x40\n      dup7\n      add\n      mload\n      and\n        /* \"CrossFi-Treasury-Guard/contracts/AIScoreRegistry.sol\":3781:3807  breakdown.riskScore <= 100 */\n      gt\n      iszero\n        /* \"CrossFi-Treasury-Guard/contracts/AIScoreRegistry.sol\":3685:3807  breakdown.ecosystemScore <= 100 &&... */\n      jump(tag_346)\n        /* \"CrossFi-Treasury-Guard/contracts/AIScoreRegistry.sol\":3685:3765  breakdown.ecosystemScore <= 100 &&... */\n    tag_343:\n        /* \"CrossFi-Treasury-Guard/contracts/AIScoreRegistry.sol\":410:10788  contract AIScoreRegistry is IAIScoreRegistry, ExtendedAccessControl, Pausable, ReentrancyGuard {... */\n      pop\n      0x64\n      0xff\n      0x20\n      dup7\n      add\n      mload\n      and\n        /* \"CrossFi-Treasury-Guard/contracts/AIScoreRegistry.sol\":3732:3765  breakdown.feasibilityScore <= 100 */\n      gt\n      iszero\n        /* \"CrossFi-Treasury-Guard/contracts/AIScoreRegistry.sol\":3685:3765  breakdown.ecosystemScore <= 100 &&... */\n      jump(tag_344)\n        /* \"CrossFi-Treasury-Guard/contracts/AIScoreRegistry.sol\":410:10788  contract AIScoreRegistry is IAIScoreRegistry, ExtendedAccessControl, Pausable, ReentrancyGuard {... */\n    tag_341:\n      0x64\n      swap1\n      shl(0x60, 0x53636f726520616c726561647920657869737473)\n      mload(0x40)\n      swap2\n      shl(0xe5, 0x461bcd)\n      dup4\n      mstore\n      0x20\n      0x04\n      dup5\n      add\n      mstore\n      0x14\n      0x24\n      dup5\n      add\n      mstore\n      dup3\n      add\n      mstore\n      revert\n    tag_339:\n      0x64\n      swap1\n      shl(0x62, 0x155b9cdd5c1c1bdc9d1959081052481b5bd9195b)\n      mload(0x40)\n      swap2\n      shl(0xe5, 0x461bcd)\n      dup4\n      mstore\n      0x20\n      0x04\n      dup5\n      add\n      mstore\n      0x14\n      0x24\n      dup5\n      add\n      mstore\n      dup3\n      add\n      mstore\n      revert\n    tag_336:\n      0x64\n      swap1\n      0x4a757374696669636174696f6e20495046532072657175697265640000000000\n      mload(0x40)\n      swap2\n      shl(0xe5, 0x461bcd)\n      dup4\n      mstore\n      0x20\n      0x04\n      dup5\n      add\n      mstore\n      0x1b\n      0x24\n      dup5\n      add\n      mstore\n      dup3\n      add\n      mstore\n      revert\n        /* \"@openzeppelin/contracts/security/ReentrancyGuard.sol\":1759:1760  2 */\n    tag_334:\n        /* \"CrossFi-Treasury-Guard/contracts/AIScoreRegistry.sol\":410:10788  contract AIScoreRegistry is IAIScoreRegistry, ExtendedAccessControl, Pausable, ReentrancyGuard {... */\n      0x64\n      swap1\n        /* \"@openzeppelin/contracts/security/ReentrancyGuard.sol\":1759:1760  2 */\n      0x5265656e7472616e637947756172643a207265656e7472616e742063616c6c00\n        /* \"CrossFi-Treasury-Guard/contracts/AIScoreRegistry.sol\":410:10788  contract AIScoreRegistry is IAIScoreRegistry, ExtendedAccessControl, Pausable, ReentrancyGuard {... */\n      mload(0x40)\n      swap2\n      shl(0xe5, 0x461bcd)\n        /* \"@openzeppelin/contracts/security/ReentrancyGuard.sol\":1759:1760  2 */\n      dup4\n      mstore\n        /* \"CrossFi-Treasury-Guard/contracts/AIScoreRegistry.sol\":410:10788  contract AIScoreRegistry is IAIScoreRegistry, ExtendedAccessControl, Pausable, ReentrancyGuard {... */\n      0x20\n      0x04\n        /* \"@openzeppelin/contracts/security/ReentrancyGuard.sol\":1759:1760  2 */\n      dup5\n      add\n      mstore\n      0x1f\n        /* \"CrossFi-Treasury-Guard/contracts/AIScoreRegistry.sol\":410:10788  contract AIScoreRegistry is IAIScoreRegistry, ExtendedAccessControl, Pausable, ReentrancyGuard {... */\n      0x24\n        /* \"@openzeppelin/contracts/security/ReentrancyGuard.sol\":1759:1760  2 */\n      dup5\n      add\n        /* \"CrossFi-Treasury-Guard/contracts/AIScoreRegistry.sol\":410:10788  contract AIScoreRegistry is IAIScoreRegistry, ExtendedAccessControl, Pausable, ReentrancyGuard {... */\n      mstore\n      dup3\n      add\n        /* \"@openzeppelin/contracts/security/ReentrancyGuard.sol\":1759:1760  2 */\n      mstore\n      revert\n        /* \"CrossFi-Treasury-Guard/contracts/AIScoreRegistry.sol\":410:10788  contract AIScoreRegistry is IAIScoreRegistry, ExtendedAccessControl, Pausable, ReentrancyGuard {... */\n    tag_70:\n      jumpi(tag_131, callvalue)\n      0x20\n      tag_413\n      tag_414\n      calldatasize\n      tag_9\n      jump\t// in\n    tag_414:\n      swap1\n      tag_36\n      jump\t// in\n    tag_413:\n      mload(0x40)\n      swap1\n      iszero\n      iszero\n      dup2\n      mstore\n      return\n    tag_68:\n      jumpi(tag_131, callvalue)\n      jumpi(tag_131, slt(add(not(0x03), calldatasize), 0x20))\n      sub(shl(0xa0, 0x01), 0x01)\n      tag_419\n      tag_8\n      jump\t// in\n    tag_419:\n      and\n      0x00\n      mstore\n      mstore(0x20, 0x04)\n      0x20\n      and(sload(keccak256(0x00, 0x40)), 0xff)\n      mload(0x40)\n      swap1\n      iszero\n      iszero\n      dup2\n      mstore\n      return\n    tag_66:\n      jumpi(tag_131, callvalue)\n      jumpi(tag_131, slt(add(not(0x03), calldatasize), 0x00))\n      0x20\n      0xff\n        /* \"@openzeppelin/contracts/security/Pausable.sol\":1685:1692  _paused */\n      0x01\n        /* \"CrossFi-Treasury-Guard/contracts/AIScoreRegistry.sol\":410:10788  contract AIScoreRegistry is IAIScoreRegistry, ExtendedAccessControl, Pausable, ReentrancyGuard {... */\n      sload\n      and\n      mload(0x40)\n      swap1\n      iszero\n      iszero\n      dup2\n      mstore\n      return\n    tag_64:\n      jumpi(tag_131, callvalue)\n      tag_426\n      calldatasize\n      tag_9\n      jump\t// in\n    tag_426:\n        /* \"@openzeppelin/contracts/access/AccessControl.sol\":2484:2488  role */\n      tag_427\n      tag_14\n      jump\t// in\n    tag_427:\n        /* \"CrossFi-Treasury-Guard/contracts/AIScoreRegistry.sol\":410:10788  contract AIScoreRegistry is IAIScoreRegistry, ExtendedAccessControl, Pausable, ReentrancyGuard {... */\n      0x00\n        /* \"CrossFi-Treasury-Guard/contracts/utils/ExtendedAccessControl.sol\":1508:1511  i++ */\n    tag_428:\n        /* \"CrossFi-Treasury-Guard/contracts/AIScoreRegistry.sol\":410:10788  contract AIScoreRegistry is IAIScoreRegistry, ExtendedAccessControl, Pausable, ReentrancyGuard {... */\n      dup2\n      mload\n        /* \"CrossFi-Treasury-Guard/contracts/utils/ExtendedAccessControl.sol\":1490:1506  i < roles.length */\n      dup2\n      lt\n      iszero\n      tag_189\n      jumpi\n        /* \"CrossFi-Treasury-Guard/contracts/utils/ExtendedAccessControl.sol\":1538:1546  roles[i] */\n      dup1\n        /* \"@openzeppelin/contracts/access/AccessControl.sol\":4723:4749  _revokeRole(role, account) */\n      tag_288\n        /* \"CrossFi-Treasury-Guard/contracts/utils/ExtendedAccessControl.sol\":1538:1546  roles[i] */\n      dup5\n      tag_432\n        /* \"CrossFi-Treasury-Guard/contracts/utils/ExtendedAccessControl.sol\":1508:1511  i++ */\n      tag_433\n        /* \"CrossFi-Treasury-Guard/contracts/utils/ExtendedAccessControl.sol\":1538:1546  roles[i] */\n      swap5\n      dup7\n      tag_35\n      jump\t// in\n    tag_432:\n        /* \"CrossFi-Treasury-Guard/contracts/AIScoreRegistry.sol\":410:10788  contract AIScoreRegistry is IAIScoreRegistry, ExtendedAccessControl, Pausable, ReentrancyGuard {... */\n      mload\n      dup1\n      0x00\n      mstore\n      mstore(0x20, 0x00)\n        /* \"@openzeppelin/contracts/access/AccessControl.sol\":2484:2488  role */\n      tag_191\n        /* \"@openzeppelin/contracts/access/AccessControl.sol\":3877:3899  _roles[role].adminRole */\n      0x01\n        /* \"CrossFi-Treasury-Guard/contracts/AIScoreRegistry.sol\":410:10788  contract AIScoreRegistry is IAIScoreRegistry, ExtendedAccessControl, Pausable, ReentrancyGuard {... */\n      keccak256(0x00, 0x40)\n        /* \"@openzeppelin/contracts/access/AccessControl.sol\":3877:3899  _roles[role].adminRole */\n      add\n        /* \"CrossFi-Treasury-Guard/contracts/AIScoreRegistry.sol\":410:10788  contract AIScoreRegistry is IAIScoreRegistry, ExtendedAccessControl, Pausable, ReentrancyGuard {... */\n      sload\n        /* \"@openzeppelin/contracts/access/AccessControl.sol\":2484:2488  role */\n      tag_15\n      jump\t// in\n        /* \"CrossFi-Treasury-Guard/contracts/utils/ExtendedAccessControl.sol\":1508:1511  i++ */\n    tag_433:\n        /* \"CrossFi-Treasury-Guard/contracts/utils/ExtendedAccessControl.sol\":1475:1488  uint256 i = 0 */\n      jump(tag_428)\n        /* \"CrossFi-Treasury-Guard/contracts/AIScoreRegistry.sol\":410:10788  contract AIScoreRegistry is IAIScoreRegistry, ExtendedAccessControl, Pausable, ReentrancyGuard {... */\n    tag_62:\n      jumpi(tag_131, callvalue)\n      jumpi(tag_131, slt(add(not(0x03), calldatasize), 0x00))\n      0xa0\n        /* \"CrossFi-Treasury-Guard/contracts/AIScoreRegistry.sol\":1174:1211  ScoringCriteria public scoringWeights */\n      0x06\n        /* \"CrossFi-Treasury-Guard/contracts/AIScoreRegistry.sol\":410:10788  contract AIScoreRegistry is IAIScoreRegistry, ExtendedAccessControl, Pausable, ReentrancyGuard {... */\n      sload\n      0xff\n      mload(0x40)\n      swap2\n      dup2\n      dup2\n      and\n      dup4\n      mstore\n      dup2\n      dup2\n      0x08\n      shr\n      and\n      0x20\n      dup5\n      add\n      mstore\n      dup2\n      dup2\n      0x10\n      shr\n      and\n      0x40\n      dup5\n      add\n      mstore\n      dup2\n      dup2\n      0x18\n      shr\n      and\n      0x60\n      dup5\n      add\n      mstore\n      0x20\n      shr\n      and\n      0x80\n      dup3\n      add\n      mstore\n      return\n    tag_58:\n      jumpi(tag_131, callvalue)\n      jumpi(tag_131, slt(add(not(0x03), calldatasize), 0x00))\n        /* \"@openzeppelin/contracts/access/AccessControl.sol\":2484:2488  role */\n      tag_447\n      tag_13\n      jump\t// in\n    tag_447:\n        /* \"@openzeppelin/contracts/security/Pausable.sol\":1685:1692  _paused */\n      0x01\n        /* \"CrossFi-Treasury-Guard/contracts/AIScoreRegistry.sol\":410:10788  contract AIScoreRegistry is IAIScoreRegistry, ExtendedAccessControl, Pausable, ReentrancyGuard {... */\n      sload\n      0xff\n      dup2\n      and\n      iszero\n      tag_448\n      jumpi\n      not(0xff)\n      and\n        /* \"@openzeppelin/contracts/security/Pausable.sol\":1685:1692  _paused */\n      0x01\n        /* \"CrossFi-Treasury-Guard/contracts/AIScoreRegistry.sol\":410:10788  contract AIScoreRegistry is IAIScoreRegistry, ExtendedAccessControl, Pausable, ReentrancyGuard {... */\n      sstore\n        /* \"@openzeppelin/contracts/security/Pausable.sol\":2521:2543  Unpaused(_msgSender()) */\n      0x5db9ee0a495bf2e6ff9c91a7834c1ba4fdd244a5e8aa4e537bd38aeae4b073aa\n        /* \"CrossFi-Treasury-Guard/contracts/AIScoreRegistry.sol\":410:10788  contract AIScoreRegistry is IAIScoreRegistry, ExtendedAccessControl, Pausable, ReentrancyGuard {... */\n      0x20\n      mload(0x40)\n        /* \"@openzeppelin/contracts/utils/Context.sol\":735:745  msg.sender */\n      caller\n        /* \"CrossFi-Treasury-Guard/contracts/AIScoreRegistry.sol\":410:10788  contract AIScoreRegistry is IAIScoreRegistry, ExtendedAccessControl, Pausable, ReentrancyGuard {... */\n      dup2\n      mstore\n        /* \"@openzeppelin/contracts/security/Pausable.sol\":2521:2543  Unpaused(_msgSender()) */\n      log1\n        /* \"CrossFi-Treasury-Guard/contracts/AIScoreRegistry.sol\":410:10788  contract AIScoreRegistry is IAIScoreRegistry, ExtendedAccessControl, Pausable, ReentrancyGuard {... */\n      stop\n    tag_448:\n      mload(0x40)\n      shl(0xe5, 0x461bcd)\n      dup2\n      mstore\n      0x20\n      0x04\n      dup3\n      add\n      mstore\n      0x14\n      0x24\n      dup3\n      add\n      mstore\n      shl(0x62, 0x14185d5cd8589b194e881b9bdd081c185d5cd959)\n      0x44\n      dup3\n      add\n      mstore\n      0x64\n      swap1\n      revert\n    tag_56:\n      jumpi(tag_131, callvalue)\n      jumpi(tag_131, slt(add(not(0x03), calldatasize), 0x00))\n      0x20\n        /* \"CrossFi-Treasury-Guard/contracts/AIScoreRegistry.sol\":1367:1402  uint256 public totalScoresSubmitted */\n      0x07\n        /* \"CrossFi-Treasury-Guard/contracts/AIScoreRegistry.sol\":410:10788  contract AIScoreRegistry is IAIScoreRegistry, ExtendedAccessControl, Pausable, ReentrancyGuard {... */\n      sload\n      mload(0x40)\n      swap1\n      dup2\n      mstore\n      return\n    tag_54:\n      jumpi(tag_131, callvalue)\n      jumpi(tag_131, slt(add(not(0x03), calldatasize), 0x40))\n      tag_458\n      tag_7\n      jump\t// in\n    tag_458:\n        /* \"@openzeppelin/contracts/utils/Context.sol\":735:745  msg.sender */\n      caller\n      sub(shl(0xa0, 0x01), 0x01)\n        /* \"CrossFi-Treasury-Guard/contracts/AIScoreRegistry.sol\":410:10788  contract AIScoreRegistry is IAIScoreRegistry, ExtendedAccessControl, Pausable, ReentrancyGuard {... */\n      dup3\n      and\n        /* \"@openzeppelin/contracts/access/AccessControl.sol\":5397:5431  callerConfirmation != _msgSender() */\n      sub\n        /* \"@openzeppelin/contracts/access/AccessControl.sol\":5393:5495  if (callerConfirmation != _msgSender()) {... */\n      tag_459\n      jumpi\n        /* \"@openzeppelin/contracts/access/AccessControl.sol\":5505:5542  _revokeRole(role, callerConfirmation) */\n      tag_189\n        /* \"CrossFi-Treasury-Guard/contracts/AIScoreRegistry.sol\":410:10788  contract AIScoreRegistry is IAIScoreRegistry, ExtendedAccessControl, Pausable, ReentrancyGuard {... */\n      swap1\n      calldataload(0x04)\n        /* \"@openzeppelin/contracts/access/AccessControl.sol\":5505:5542  _revokeRole(role, callerConfirmation) */\n      tag_20\n      jump\t// in\n        /* \"@openzeppelin/contracts/access/AccessControl.sol\":5393:5495  if (callerConfirmation != _msgSender()) {... */\n    tag_459:\n        /* \"CrossFi-Treasury-Guard/contracts/AIScoreRegistry.sol\":410:10788  contract AIScoreRegistry is IAIScoreRegistry, ExtendedAccessControl, Pausable, ReentrancyGuard {... */\n      mload(0x40)\n      shl(0xe1, 0x334bd919)\n        /* \"@openzeppelin/contracts/access/AccessControl.sol\":5454:5484  AccessControlBadConfirmation() */\n      dup2\n      mstore\n        /* \"CrossFi-Treasury-Guard/contracts/AIScoreRegistry.sol\":410:10788  contract AIScoreRegistry is IAIScoreRegistry, ExtendedAccessControl, Pausable, ReentrancyGuard {... */\n      0x04\n      swap1\n        /* \"@openzeppelin/contracts/access/AccessControl.sol\":5454:5484  AccessControlBadConfirmation() */\n      revert\n        /* \"CrossFi-Treasury-Guard/contracts/AIScoreRegistry.sol\":410:10788  contract AIScoreRegistry is IAIScoreRegistry, ExtendedAccessControl, Pausable, ReentrancyGuard {... */\n    tag_52:\n      jumpi(tag_131, callvalue)\n      jumpi(tag_131, slt(add(not(0x03), calldatasize), 0x40))\n        /* \"@openzeppelin/contracts/access/AccessControl.sol\":4306:4331  _grantRole(role, account) */\n      tag_189\n        /* \"CrossFi-Treasury-Guard/contracts/AIScoreRegistry.sol\":410:10788  contract AIScoreRegistry is IAIScoreRegistry, ExtendedAccessControl, Pausable, ReentrancyGuard {... */\n      calldataload(0x04)\n      tag_467\n      tag_7\n      jump\t// in\n    tag_467:\n      swap1\n      dup1\n      0x00\n      mstore\n      mstore(0x20, 0x00)\n        /* \"@openzeppelin/contracts/access/AccessControl.sol\":2484:2488  role */\n      tag_291\n        /* \"CrossFi-Treasury-Guard/contracts/AIScoreRegistry.sol\":410:10788  contract AIScoreRegistry is IAIScoreRegistry, ExtendedAccessControl, Pausable, ReentrancyGuard {... */\n      0x01\n      keccak256(0x00, 0x40)\n        /* \"@openzeppelin/contracts/access/AccessControl.sol\":3877:3899  _roles[role].adminRole */\n      add\n        /* \"CrossFi-Treasury-Guard/contracts/AIScoreRegistry.sol\":410:10788  contract AIScoreRegistry is IAIScoreRegistry, ExtendedAccessControl, Pausable, ReentrancyGuard {... */\n      sload\n        /* \"@openzeppelin/contracts/access/AccessControl.sol\":2484:2488  role */\n      tag_15\n      jump\t// in\n        /* \"CrossFi-Treasury-Guard/contracts/AIScoreRegistry.sol\":410:10788  contract AIScoreRegistry is IAIScoreRegistry, ExtendedAccessControl, Pausable, ReentrancyGuard {... */\n    tag_50:\n      jumpi(tag_131, callvalue)\n      jumpi(tag_131, slt(add(not(0x03), calldatasize), 0x20))\n      calldataload(0x04)\n      sub(shl(0x40, 0x01), 0x01)\n      dup2\n      gt\n      tag_131\n      jumpi\n      0xff\n      tag_475\n      0x20\n      tag_476\n      dup2\n      swap5\n      calldatasize\n      swap1\n      0x04\n      add\n      tag_6\n      jump\t// in\n    tag_476:\n      dup2\n      mload(0x40)\n      swap4\n      dup3\n      dup6\n      dup1\n      swap5\n      mload\n      swap4\n      dup5\n      swap3\n      add\n      tag_1\n      jump\t// in\n    tag_475:\n      dup2\n      add\n        /* \"CrossFi-Treasury-Guard/contracts/AIScoreRegistry.sol\":1117:1163  mapping(string => bool) public supportedModels */\n      0x05\n        /* \"CrossFi-Treasury-Guard/contracts/AIScoreRegistry.sol\":410:10788  contract AIScoreRegistry is IAIScoreRegistry, ExtendedAccessControl, Pausable, ReentrancyGuard {... */\n      dup2\n      mstore\n      sub\n      add\n      swap1\n      keccak256\n      sload\n      and\n      mload(0x40)\n      swap1\n      iszero\n      iszero\n      dup2\n      mstore\n      return\n    tag_48:\n      jumpi(tag_131, callvalue)\n      jumpi(tag_131, slt(add(not(0x03), calldatasize), 0x80))\n      sub(shl(0x40, 0x01), 0x01)\n      calldataload(0x04)\n      0x24\n      dup1\n      calldataload\n      calldataload(0x44)\n      dup5\n      dup2\n      gt\n      tag_131\n      jumpi\n      tag_483\n      swap1\n      calldatasize\n      swap1\n      0x04\n      add\n      tag_6\n      jump\t// in\n    tag_483:\n      calldataload(0x64)\n      dup6\n      dup2\n      gt\n      tag_131\n      jumpi\n      tag_486\n      swap1\n      calldatasize\n      swap1\n      0x04\n      add\n      tag_6\n      jump\t// in\n    tag_486:\n        /* \"CrossFi-Treasury-Guard/contracts/AIScoreRegistry.sol\":1820:1830  msg.sender */\n      swap1\n      caller\n        /* \"CrossFi-Treasury-Guard/contracts/AIScoreRegistry.sol\":410:10788  contract AIScoreRegistry is IAIScoreRegistry, ExtendedAccessControl, Pausable, ReentrancyGuard {... */\n      0x00\n      mstore\n      0x20\n      swap4\n      0x04\n      dup6\n      mstore\n        /* \"CrossFi-Treasury-Guard/contracts/AIScoreRegistry.sol\":1794:1857  require(authorizedOracles[msg.sender], \"Not authorized oracle\") */\n      tag_487\n        /* \"CrossFi-Treasury-Guard/contracts/AIScoreRegistry.sol\":410:10788  contract AIScoreRegistry is IAIScoreRegistry, ExtendedAccessControl, Pausable, ReentrancyGuard {... */\n      and(sload(keccak256(0x00, 0x40)), 0xff)\n        /* \"CrossFi-Treasury-Guard/contracts/AIScoreRegistry.sol\":1794:1857  require(authorizedOracles[msg.sender], \"Not authorized oracle\") */\n      tag_21\n      jump\t// in\n    tag_487:\n        /* \"CrossFi-Treasury-Guard/contracts/AIScoreRegistry.sol\":2080:2126  require(proposalId > 0, \"Invalid proposal ID\") */\n      tag_488\n        /* \"CrossFi-Treasury-Guard/contracts/AIScoreRegistry.sol\":2088:2102  proposalId > 0 */\n      dup7\n      iszero\n      iszero\n        /* \"CrossFi-Treasury-Guard/contracts/AIScoreRegistry.sol\":2080:2126  require(proposalId > 0, \"Invalid proposal ID\") */\n      tag_22\n      jump\t// in\n    tag_488:\n        /* \"CrossFi-Treasury-Guard/contracts/AIScoreRegistry.sol\":1926:1997  require(score >= MIN_SCORE && score <= MAX_SCORE, \"Score out of range\") */\n      tag_489\n        /* \"CrossFi-Treasury-Guard/contracts/AIScoreRegistry.sol\":410:10788  contract AIScoreRegistry is IAIScoreRegistry, ExtendedAccessControl, Pausable, ReentrancyGuard {... */\n      0x64\n        /* \"CrossFi-Treasury-Guard/contracts/AIScoreRegistry.sol\":1956:1974  score <= MAX_SCORE */\n      dup6\n      gt\n      iszero\n        /* \"CrossFi-Treasury-Guard/contracts/AIScoreRegistry.sol\":1926:1997  require(score >= MIN_SCORE && score <= MAX_SCORE, \"Score out of range\") */\n      tag_23\n      jump\t// in\n    tag_489:\n        /* \"@openzeppelin/contracts/security/Pausable.sol\":1204:1276  modifier whenNotPaused() {... */\n      tag_490\n      tag_29\n      jump\t// in\n    tag_490:\n        /* \"CrossFi-Treasury-Guard/contracts/AIScoreRegistry.sol\":410:10788  contract AIScoreRegistry is IAIScoreRegistry, ExtendedAccessControl, Pausable, ReentrancyGuard {... */\n      dup6\n      0x00\n      mstore\n      0x03\n      swap2\n      dup3\n      dup7\n      mstore\n        /* \"CrossFi-Treasury-Guard/contracts/AIScoreRegistry.sol\":5721:5781  require(aiScores[proposalId].exists, \"Score does not exist\") */\n      tag_491\n        /* \"CrossFi-Treasury-Guard/contracts/AIScoreRegistry.sol\":410:10788  contract AIScoreRegistry is IAIScoreRegistry, ExtendedAccessControl, Pausable, ReentrancyGuard {... */\n      0xff\n        /* \"CrossFi-Treasury-Guard/contracts/AIScoreRegistry.sol\":5729:5756  aiScores[proposalId].exists */\n      0x05\n        /* \"CrossFi-Treasury-Guard/contracts/AIScoreRegistry.sol\":410:10788  contract AIScoreRegistry is IAIScoreRegistry, ExtendedAccessControl, Pausable, ReentrancyGuard {... */\n      keccak256(0x00, 0x40)\n        /* \"CrossFi-Treasury-Guard/contracts/AIScoreRegistry.sol\":5729:5756  aiScores[proposalId].exists */\n      add\n        /* \"CrossFi-Treasury-Guard/contracts/AIScoreRegistry.sol\":410:10788  contract AIScoreRegistry is IAIScoreRegistry, ExtendedAccessControl, Pausable, ReentrancyGuard {... */\n      sload\n      0xa0\n      shr\n      and\n        /* \"CrossFi-Treasury-Guard/contracts/AIScoreRegistry.sol\":5721:5781  require(aiScores[proposalId].exists, \"Score does not exist\") */\n      tag_30\n      jump\t// in\n    tag_491:\n        /* \"CrossFi-Treasury-Guard/contracts/AIScoreRegistry.sol\":410:10788  contract AIScoreRegistry is IAIScoreRegistry, ExtendedAccessControl, Pausable, ReentrancyGuard {... */\n      dup7\n      0x00\n      mstore\n      dup3\n      dup7\n      mstore\n        /* \"CrossFi-Treasury-Guard/contracts/AIScoreRegistry.sol\":1820:1830  msg.sender */\n      caller\n        /* \"CrossFi-Treasury-Guard/contracts/AIScoreRegistry.sol\":410:10788  contract AIScoreRegistry is IAIScoreRegistry, ExtendedAccessControl, Pausable, ReentrancyGuard {... */\n      0x01\n      dup1\n      0xa0\n      shl\n      sub\n        /* \"CrossFi-Treasury-Guard/contracts/AIScoreRegistry.sol\":5729:5756  aiScores[proposalId].exists */\n      0x05\n        /* \"CrossFi-Treasury-Guard/contracts/AIScoreRegistry.sol\":410:10788  contract AIScoreRegistry is IAIScoreRegistry, ExtendedAccessControl, Pausable, ReentrancyGuard {... */\n      keccak256(0x00, 0x40)\n        /* \"CrossFi-Treasury-Guard/contracts/AIScoreRegistry.sol\":5799:5826  aiScores[proposalId].oracle */\n      add\n        /* \"CrossFi-Treasury-Guard/contracts/AIScoreRegistry.sol\":410:10788  contract AIScoreRegistry is IAIScoreRegistry, ExtendedAccessControl, Pausable, ReentrancyGuard {... */\n      sload\n      and\n        /* \"CrossFi-Treasury-Guard/contracts/AIScoreRegistry.sol\":5799:5840  aiScores[proposalId].oracle == msg.sender */\n      sub\n        /* \"CrossFi-Treasury-Guard/contracts/AIScoreRegistry.sol\":410:10788  contract AIScoreRegistry is IAIScoreRegistry, ExtendedAccessControl, Pausable, ReentrancyGuard {... */\n      tag_492\n      jumpi\n      dup7\n      0x00\n      mstore\n      dup3\n      dup7\n      mstore\n      0x04\n      keccak256(0x00, 0x40)\n        /* \"CrossFi-Treasury-Guard/contracts/AIScoreRegistry.sol\":5914:5944  aiScores[proposalId].timestamp */\n      add\n        /* \"CrossFi-Treasury-Guard/contracts/AIScoreRegistry.sol\":410:10788  contract AIScoreRegistry is IAIScoreRegistry, ExtendedAccessControl, Pausable, ReentrancyGuard {... */\n      sload\n        /* \"CrossFi-Treasury-Guard/contracts/AIScoreRegistry.sol\":1353:1360  30 days */\n      0x278d00\n        /* \"CrossFi-Treasury-Guard/contracts/AIScoreRegistry.sol\":410:10788  contract AIScoreRegistry is IAIScoreRegistry, ExtendedAccessControl, Pausable, ReentrancyGuard {... */\n      dup2\n      add\n      dup1\n      swap2\n      gt\n      tag_494\n      jumpi\n        /* \"CrossFi-Treasury-Guard/contracts/AIScoreRegistry.sol\":5895:5910  block.timestamp */\n      timestamp\n        /* \"CrossFi-Treasury-Guard/contracts/AIScoreRegistry.sol\":5895:5968  block.timestamp <= aiScores[proposalId].timestamp + SCORE_VALIDITY_PERIOD */\n      gt\n        /* \"CrossFi-Treasury-Guard/contracts/AIScoreRegistry.sol\":410:10788  contract AIScoreRegistry is IAIScoreRegistry, ExtendedAccessControl, Pausable, ReentrancyGuard {... */\n      tag_496\n      jumpi\n      dup4\n      mload\n        /* \"CrossFi-Treasury-Guard/contracts/AIScoreRegistry.sol\":6033:6057  bytes(reason).length > 0 */\n      iszero\n        /* \"CrossFi-Treasury-Guard/contracts/AIScoreRegistry.sol\":410:10788  contract AIScoreRegistry is IAIScoreRegistry, ExtendedAccessControl, Pausable, ReentrancyGuard {... */\n      tag_498\n      jumpi\n      dup7\n      0x00\n      mstore\n      dup3\n      dup7\n      mstore\n      keccak256(0x00, 0x40)\n      swap1\n        /* \"CrossFi-Treasury-Guard/contracts/AIScoreRegistry.sol\":6157:6195  aiScores[proposalId].justificationIPFS */\n      0x02\n        /* \"CrossFi-Treasury-Guard/contracts/AIScoreRegistry.sol\":410:10788  contract AIScoreRegistry is IAIScoreRegistry, ExtendedAccessControl, Pausable, ReentrancyGuard {... */\n      0x01\n        /* \"CrossFi-Treasury-Guard/contracts/AIScoreRegistry.sol\":6103:6136  aiScores[proposalId].overallScore */\n      swap3\n      dup8\n      dup5\n      dup3\n      add\n        /* \"CrossFi-Treasury-Guard/contracts/AIScoreRegistry.sol\":410:10788  contract AIScoreRegistry is IAIScoreRegistry, ExtendedAccessControl, Pausable, ReentrancyGuard {... */\n      sstore\n        /* \"CrossFi-Treasury-Guard/contracts/AIScoreRegistry.sol\":6157:6195  aiScores[proposalId].justificationIPFS */\n      add\n        /* \"CrossFi-Treasury-Guard/contracts/AIScoreRegistry.sol\":410:10788  contract AIScoreRegistry is IAIScoreRegistry, ExtendedAccessControl, Pausable, ReentrancyGuard {... */\n      swap3\n      dup2\n      mload\n      swap10\n      dup11\n      gt\n      tag_500\n      jumpi\n      pop\n      tag_502\n      dup4\n      sload\n      tag_26\n      jump\t// in\n    tag_502:\n      0x1f\n      dup2\n      gt\n      tag_503\n      jumpi\n    tag_504:\n      pop\n      dup7\n      swap1\n      0x1f\n      dup11\n      gt\n      0x01\n      eq\n      tag_505\n      jumpi\n      swap9\n      dup1\n      tag_243\n      swap7\n      swap6\n      swap5\n      swap4\n      dup2\n      swap4\n        /* \"CrossFi-Treasury-Guard/contracts/AIScoreRegistry.sol\":6300:6342  ScoreUpdated(proposalId, newScore, reason) */\n      0xd3e8dbbe8ff60a1fae1e5f88e71f27270ed38badc7b26e19922ed94fd12f5fe9\n        /* \"CrossFi-Treasury-Guard/contracts/AIScoreRegistry.sol\":410:10788  contract AIScoreRegistry is IAIScoreRegistry, ExtendedAccessControl, Pausable, ReentrancyGuard {... */\n      swap12\n      swap13\n      0x00\n      swap5\n      tag_508\n      jumpi\n    tag_509:\n      pop\n      pop\n      shl\n      swap2\n      not(0x00)\n      swap1\n      dup6\n      shl\n      shr\n      not\n      and\n      or\n      swap1\n      sstore\n    tag_510:\n      dup7\n      0x00\n      mstore\n      dup5\n      mstore\n        /* \"CrossFi-Treasury-Guard/contracts/AIScoreRegistry.sol\":5895:5910  block.timestamp */\n      timestamp\n        /* \"CrossFi-Treasury-Guard/contracts/AIScoreRegistry.sol\":410:10788  contract AIScoreRegistry is IAIScoreRegistry, ExtendedAccessControl, Pausable, ReentrancyGuard {... */\n      0x04\n      keccak256(0x00, 0x40)\n        /* \"CrossFi-Treasury-Guard/contracts/AIScoreRegistry.sol\":6228:6258  aiScores[proposalId].timestamp */\n      add\n        /* \"CrossFi-Treasury-Guard/contracts/AIScoreRegistry.sol\":410:10788  contract AIScoreRegistry is IAIScoreRegistry, ExtendedAccessControl, Pausable, ReentrancyGuard {... */\n      sstore\n      0x40\n      dup1\n      mload\n      swap5\n      dup6\n      swap5\n      dup6\n      mstore\n      dup5\n      add\n      mstore\n      0x40\n      dup4\n      add\n      swap1\n      tag_2\n      jump\t// in\n    tag_508:\n      add\n      mload\n      swap3\n      pop\n      dup13\n      dup1\n      jump(tag_509)\n    tag_505:\n      swap9\n      swap1\n      not(0x1f)\n      dup3\n      and\n      swap10\n      dup5\n      0x00\n      mstore\n      dup9\n      0x00\n      keccak256\n      swap11\n      0x00\n    tag_511:\n      dup2\n      dup2\n      lt\n      tag_512\n      jumpi\n      pop\n      swap2\n        /* \"CrossFi-Treasury-Guard/contracts/AIScoreRegistry.sol\":6300:6342  ScoreUpdated(proposalId, newScore, reason) */\n      0xd3e8dbbe8ff60a1fae1e5f88e71f27270ed38badc7b26e19922ed94fd12f5fe9\n        /* \"CrossFi-Treasury-Guard/contracts/AIScoreRegistry.sol\":410:10788  contract AIScoreRegistry is IAIScoreRegistry, ExtendedAccessControl, Pausable, ReentrancyGuard {... */\n      swap11\n      swap12\n      swap2\n      dup5\n      tag_243\n      swap10\n      swap9\n      swap8\n      swap7\n      swap6\n      swap5\n      lt\n      tag_514\n      jumpi\n    tag_515:\n      pop\n      pop\n      pop\n      dup2\n      shl\n      add\n      swap1\n      sstore\n      jump(tag_510)\n    tag_514:\n      add\n      mload\n      not(0x00)\n      dup4\n      dup8\n      shl\n      0xf8\n      and\n      shr\n      not\n      and\n      swap1\n      sstore\n      dup11\n      dup1\n      dup1\n      jump(tag_515)\n    tag_512:\n      dup4\n      dup4\n      add\n      mload\n      dup14\n      sstore\n      swap12\n      dup6\n      add\n      swap12\n      swap3\n      dup11\n      add\n      swap3\n      dup11\n      add\n      jump(tag_511)\n    tag_503:\n      tag_516\n      swap1\n      dup5\n      0x00\n      mstore\n      dup9\n      0x00\n      keccak256\n      0x1f\n      dup13\n      add\n        /* \"CrossFi-Treasury-Guard/contracts/AIScoreRegistry.sol\":5729:5756  aiScores[proposalId].exists */\n      0x05\n        /* \"CrossFi-Treasury-Guard/contracts/AIScoreRegistry.sol\":410:10788  contract AIScoreRegistry is IAIScoreRegistry, ExtendedAccessControl, Pausable, ReentrancyGuard {... */\n      shr\n      dup2\n      add\n      swap2\n      dup11\n      dup14\n      lt\n      tag_399\n      jumpi\n      0x1f\n      add\n        /* \"CrossFi-Treasury-Guard/contracts/AIScoreRegistry.sol\":5729:5756  aiScores[proposalId].exists */\n      0x05\n        /* \"CrossFi-Treasury-Guard/contracts/AIScoreRegistry.sol\":410:10788  contract AIScoreRegistry is IAIScoreRegistry, ExtendedAccessControl, Pausable, ReentrancyGuard {... */\n      shr\n      add\n      swap1\n      tag_27\n      jump\t// in\n    tag_516:\n      dup10\n      jump(tag_504)\n    tag_500:\n      shl(0xe0, 0x4e487b71)\n      0x00\n      swap1\n      dup2\n      mstore\n      mstore(0x04, 0x41)\n      revert\n    tag_498:\n      mload(0x40)\n      shl(0xe5, 0x461bcd)\n      dup2\n      mstore\n      0x04\n      dup2\n      add\n      dup8\n      swap1\n      mstore\n      0x16\n      dup2\n      dup5\n      add\n      mstore\n      shl(0x52, 0x155c19185d19481c99585cdbdb881c995c5d5a5c9959)\n      0x44\n      dup3\n      add\n      mstore\n      0x64\n      swap1\n      revert\n    tag_496:\n      mload(0x40)\n      shl(0xe5, 0x461bcd)\n      dup2\n      mstore\n      0x04\n      dup2\n      add\n      dup8\n      swap1\n      mstore\n      0x15\n      dup2\n      dup5\n      add\n      mstore\n      shl(0x5a, 0x155c19185d19481c195c9a5bd908195e1c1a5c9959)\n      0x44\n      dup3\n      add\n      mstore\n      0x64\n      swap1\n      revert\n    tag_494:\n      dup3\n      mstore(0x00, shl(0xe0, 0x4e487b71))\n      mstore(0x04, 0x11)\n      0x00\n      revert\n    tag_492:\n      mload(0x40)\n      shl(0xe5, 0x461bcd)\n      dup2\n      mstore\n      0x04\n      dup2\n      add\n      dup8\n      swap1\n      mstore\n      0x13\n      dup2\n      dup5\n      add\n      mstore\n      shl(0x68, 0x4e6f74206f726967696e616c206f7261636c65)\n      0x44\n      dup3\n      add\n      mstore\n      0x64\n      swap1\n      revert\n    tag_46:\n      jumpi(tag_131, callvalue)\n      jumpi(tag_131, slt(add(not(0x03), calldatasize), 0x00))\n      0x20\n      mload(0x40)\n        /* \"CrossFi-Treasury-Guard/contracts/AIScoreRegistry.sol\":1296:1299  100 */\n      0x64\n        /* \"CrossFi-Treasury-Guard/contracts/AIScoreRegistry.sol\":410:10788  contract AIScoreRegistry is IAIScoreRegistry, ExtendedAccessControl, Pausable, ReentrancyGuard {... */\n      dup2\n      mstore\n      return\n    tag_44:\n      jumpi(tag_131, callvalue)\n      jumpi(tag_131, slt(add(not(0x03), calldatasize), 0x20))\n      mstore(0x00, calldataload(0x04))\n      mstore(0x20, 0x00)\n      0x20\n      0x01\n      keccak256(0x00, 0x40)\n        /* \"@openzeppelin/contracts/access/AccessControl.sol\":3877:3899  _roles[role].adminRole */\n      add\n        /* \"CrossFi-Treasury-Guard/contracts/AIScoreRegistry.sol\":410:10788  contract AIScoreRegistry is IAIScoreRegistry, ExtendedAccessControl, Pausable, ReentrancyGuard {... */\n      sload\n      mload(0x40)\n      swap1\n      dup2\n      mstore\n      return\n    tag_42:\n      jumpi(tag_131, callvalue)\n      jumpi(tag_131, slt(add(not(0x03), calldatasize), 0x20))\n      calldataload(0x04)\n        /* \"CrossFi-Treasury-Guard/contracts/AIScoreRegistry.sol\":2080:2126  require(proposalId > 0, \"Invalid proposal ID\") */\n      tag_531\n        /* \"CrossFi-Treasury-Guard/contracts/AIScoreRegistry.sol\":2088:2102  proposalId > 0 */\n      dup2\n      iszero\n      iszero\n        /* \"CrossFi-Treasury-Guard/contracts/AIScoreRegistry.sol\":2080:2126  require(proposalId > 0, \"Invalid proposal ID\") */\n      tag_22\n      jump\t// in\n    tag_531:\n        /* \"CrossFi-Treasury-Guard/contracts/AIScoreRegistry.sol\":410:10788  contract AIScoreRegistry is IAIScoreRegistry, ExtendedAccessControl, Pausable, ReentrancyGuard {... */\n      0x00\n      mstore\n      mstore(0x20, 0x03)\n      keccak256(0x00, 0x40)\n      0x01\n        /* \"CrossFi-Treasury-Guard/contracts/AIScoreRegistry.sol\":6860:6882  scoreData.overallScore */\n      dup2\n      add\n        /* \"CrossFi-Treasury-Guard/contracts/AIScoreRegistry.sol\":410:10788  contract AIScoreRegistry is IAIScoreRegistry, ExtendedAccessControl, Pausable, ReentrancyGuard {... */\n      sload\n      tag_532\n        /* \"CrossFi-Treasury-Guard/contracts/AIScoreRegistry.sol\":6884:6911  scoreData.justificationIPFS */\n      0x02\n        /* \"CrossFi-Treasury-Guard/contracts/AIScoreRegistry.sol\":410:10788  contract AIScoreRegistry is IAIScoreRegistry, ExtendedAccessControl, Pausable, ReentrancyGuard {... */\n      0xff\n        /* \"CrossFi-Treasury-Guard/contracts/AIScoreRegistry.sol\":6913:6929  scoreData.exists */\n      0x05\n      dup6\n      add\n        /* \"CrossFi-Treasury-Guard/contracts/AIScoreRegistry.sol\":410:10788  contract AIScoreRegistry is IAIScoreRegistry, ExtendedAccessControl, Pausable, ReentrancyGuard {... */\n      sload\n      0xa0\n      shr\n      and\n        /* \"CrossFi-Treasury-Guard/contracts/AIScoreRegistry.sol\":6884:6911  scoreData.justificationIPFS */\n      swap4\n      add\n        /* \"CrossFi-Treasury-Guard/contracts/AIScoreRegistry.sol\":410:10788  contract AIScoreRegistry is IAIScoreRegistry, ExtendedAccessControl, Pausable, ReentrancyGuard {... */\n      tag_31\n      jump\t// in\n    tag_532:\n      swap2\n      tag_533\n      mload(0x40)\n      swap4\n      dup5\n      swap4\n      dup5\n      mstore\n      0x60\n      0x20\n      dup6\n      add\n      mstore\n      0x60\n      dup5\n      add\n      swap1\n      tag_2\n      jump\t// in\n    tag_533:\n      swap1\n      iszero\n      iszero\n      0x40\n      dup4\n      add\n      mstore\n      sub\n      swap1\n      return\n    tag_40:\n      jumpi(tag_131, callvalue)\n      jumpi(tag_131, slt(add(not(0x03), calldatasize), 0x20))\n      calldataload(0x04)\n      swap1\n      shl(0xe0, 0xffffffff)\n      dup3\n      and\n      dup1\n      swap3\n      sub\n      tag_131\n      jumpi\n      0x20\n      swap2\n      shl(0xe0, 0x7965db0b)\n        /* \"@openzeppelin/contracts/access/AccessControl.sol\":2649:2696  interfaceId == type(IAccessControl).interfaceId */\n      dup2\n      eq\n      swap1\n        /* \"@openzeppelin/contracts/access/AccessControl.sol\":2649:2736  interfaceId == type(IAccessControl).interfaceId || super.supportsInterface(interfaceId) */\n      dup2\n      iszero\n      tag_540\n      jumpi\n        /* \"CrossFi-Treasury-Guard/contracts/AIScoreRegistry.sol\":410:10788  contract AIScoreRegistry is IAIScoreRegistry, ExtendedAccessControl, Pausable, ReentrancyGuard {... */\n    tag_541:\n      pop\n      iszero\n      iszero\n      dup2\n      mstore\n      return\n        /* \"@openzeppelin/contracts/access/AccessControl.sol\":2649:2736  interfaceId == type(IAccessControl).interfaceId || super.supportsInterface(interfaceId) */\n    tag_540:\n      shl(0xe0, 0x01ffc9a7)\n        /* \"@openzeppelin/contracts/utils/introspection/ERC165.sol\":829:869  interfaceId == type(IERC165).interfaceId */\n      eq\n      swap1\n      pop\n        /* \"@openzeppelin/contracts/access/AccessControl.sol\":2649:2736  interfaceId == type(IAccessControl).interfaceId || super.supportsInterface(interfaceId) */\n      dup4\n      jump(tag_541)\n        /* \"CrossFi-Treasury-Guard/contracts/AIScoreRegistry.sol\":410:10788  contract AIScoreRegistry is IAIScoreRegistry, ExtendedAccessControl, Pausable, ReentrancyGuard {... */\n    tag_1:\n      0x00\n    tag_542:\n      dup4\n      dup2\n      lt\n      tag_543\n      jumpi\n      pop\n      pop\n      0x00\n      swap2\n      add\n      mstore\n      jump\t// out\n    tag_543:\n      dup2\n      dup2\n      add\n      mload\n      dup4\n      dup3\n      add\n      mstore\n      0x20\n      add\n      jump(tag_542)\n    tag_2:\n      swap1\n      0x20\n      swap2\n      tag_545\n      dup2\n      mload\n      dup1\n      swap3\n      dup2\n      dup6\n      mstore\n      dup6\n      dup1\n      dup7\n      add\n      swap2\n      add\n      tag_1\n      jump\t// in\n    tag_545:\n      0x1f\n      add\n      not(0x1f)\n      and\n      add\n      add\n      swap1\n      jump\t// out\n    tag_3:\n      0x0100\n      dup2\n      add\n      swap1\n      dup2\n      lt\n      sub(shl(0x40, 0x01), 0x01)\n      dup3\n      gt\n      or\n      tag_379\n      jumpi\n      0x40\n      mstore\n      jump\t// out\n    tag_4:\n      0xa0\n      dup2\n      add\n      swap1\n      dup2\n      lt\n      sub(shl(0x40, 0x01), 0x01)\n      dup3\n      gt\n      or\n      tag_379\n      jumpi\n      0x40\n      mstore\n      jump\t// out\n    tag_5:\n      swap1\n      0x1f\n      dup1\n      not\n      swap2\n      add\n      and\n      dup2\n      add\n      swap1\n      dup2\n      lt\n      sub(shl(0x40, 0x01), 0x01)\n      dup3\n      gt\n      or\n      tag_379\n      jumpi\n      0x40\n      mstore\n      jump\t// out\n    tag_6:\n      dup2\n      0x1f\n      dup3\n      add\n      slt\n      iszero\n      tag_131\n      jumpi\n      dup1\n      calldataload\n      swap1\n      sub(shl(0x40, 0x01), 0x01)\n      dup3\n      gt\n      tag_379\n      jumpi\n      mload(0x40)\n      swap3\n      tag_556\n      0x1f\n      dup5\n      add\n      not(0x1f)\n      and\n      0x20\n      add\n      dup6\n      tag_5\n      jump\t// in\n    tag_556:\n      dup3\n      dup5\n      mstore\n      0x20\n      dup4\n      dup4\n      add\n      add\n      gt\n      tag_131\n      jumpi\n      dup2\n      0x00\n      swap3\n      0x20\n      dup1\n      swap4\n      add\n      dup4\n      dup7\n      add\n      calldatacopy\n      dup4\n      add\n      add\n      mstore\n      swap1\n      jump\t// out\n    tag_7:\n      calldataload(0x24)\n      swap1\n      sub(shl(0xa0, 0x01), 0x01)\n      dup3\n      and\n      dup3\n      sub\n      tag_131\n      jumpi\n      jump\t// out\n    tag_8:\n      calldataload(0x04)\n      swap1\n      sub(shl(0xa0, 0x01), 0x01)\n      dup3\n      and\n      dup3\n      sub\n      tag_131\n      jumpi\n      jump\t// out\n    tag_9:\n      swap1\n      0x40\n      not(0x03)\n      dup4\n      add\n      slt\n      tag_131\n      jumpi\n      calldataload(0x04)\n      sub(shl(0xa0, 0x01), 0x01)\n      dup2\n      and\n      dup2\n      sub\n      tag_131\n      jumpi\n      swap2\n      calldataload(0x24)\n      swap1\n      sub(shl(0x40, 0x01), 0x01)\n      swap1\n      dup2\n      dup4\n      gt\n      tag_131\n      jumpi\n      dup1\n      0x23\n      dup5\n      add\n      slt\n      iszero\n      tag_131\n      jumpi\n      dup3\n      0x04\n      add\n      calldataload\n      swap2\n      dup3\n      gt\n      tag_379\n      jumpi\n      dup2\n      0x05\n      shl\n      mload(0x40)\n      swap4\n      0x20\n      swap4\n      tag_573\n      dup6\n      dup5\n      add\n      dup8\n      tag_5\n      jump\t// in\n    tag_573:\n      dup6\n      mstore\n      0x24\n      dup5\n      dup7\n      add\n      swap3\n      dup3\n      add\n      add\n      swap3\n      dup4\n      gt\n      tag_131\n      jumpi\n      0x24\n      add\n      swap1\n    tag_576:\n      dup3\n      dup3\n      lt\n      tag_577\n      jumpi\n      pop\n      pop\n      pop\n      pop\n      swap1\n      jump\t// out\n    tag_577:\n      dup2\n      calldataload\n      dup2\n      mstore\n      swap1\n      dup4\n      add\n      swap1\n      dup4\n      add\n      jump(tag_576)\n    tag_10:\n      calldataload(0x24)\n      swap1\n      dup2\n      iszero\n      iszero\n      dup3\n      sub\n      tag_131\n      jumpi\n      jump\t// out\n    tag_11:\n      0xff\n      0x80\n      dup1\n      swap3\n      dup3\n      dup2\n      mload\n      and\n      dup6\n      mstore\n      dup3\n      0x20\n      dup3\n      add\n      mload\n      and\n      0x20\n      dup7\n      add\n      mstore\n      dup3\n      0x40\n      dup3\n      add\n      mload\n      and\n      0x40\n      dup7\n      add\n      mstore\n      dup3\n      0x60\n      dup3\n      add\n      mload\n      and\n      0x60\n      dup7\n      add\n      mstore\n      add\n      mload\n      and\n      swap2\n      add\n      mstore\n      jump\t// out\n        /* \"@openzeppelin/contracts/access/AccessControl.sol\":3175:3278  function _checkRole(bytes32 role) internal view virtual {... */\n    tag_13:\n        /* \"@openzeppelin/contracts/utils/Context.sol\":735:745  msg.sender */\n      caller\n        /* \"@openzeppelin/contracts/access/AccessControl.sol\":2930:2936  _roles */\n      0x00\n        /* \"CrossFi-Treasury-Guard/contracts/AIScoreRegistry.sol\":410:10788  contract AIScoreRegistry is IAIScoreRegistry, ExtendedAccessControl, Pausable, ReentrancyGuard {... */\n      swap1\n      dup2\n      mstore\n      mstore(0x20, 0x7d7ffb7a348e1c6a02869081a26547b49160dd3df72d1d75a570eb9b698292ec)\n      0x40\n      swap1\n      keccak256\n      sload\n        /* \"CrossFi-Treasury-Guard/contracts/utils/ExtendedAccessControl.sol\":343:366  keccak256(\"ADMIN_ROLE\") */\n      0xa49807205ce4d355092ef5a8a18f56e8913cf4a201fbe287825b095693c21775\n      swap1\n        /* \"CrossFi-Treasury-Guard/contracts/AIScoreRegistry.sol\":410:10788  contract AIScoreRegistry is IAIScoreRegistry, ExtendedAccessControl, Pausable, ReentrancyGuard {... */\n      0xff\n      and\n        /* \"@openzeppelin/contracts/access/AccessControl.sol\":3495:3518  !hasRole(role, account) */\n      iszero\n        /* \"@openzeppelin/contracts/access/AccessControl.sol\":3491:3599  if (!hasRole(role, account)) {... */\n      tag_581\n      jumpi\n        /* \"@openzeppelin/contracts/access/AccessControl.sol\":3175:3278  function _checkRole(bytes32 role) internal view virtual {... */\n      pop\n      jump\t// out\n        /* \"@openzeppelin/contracts/access/AccessControl.sol\":3491:3599  if (!hasRole(role, account)) {... */\n    tag_581:\n        /* \"CrossFi-Treasury-Guard/contracts/AIScoreRegistry.sol\":410:10788  contract AIScoreRegistry is IAIScoreRegistry, ExtendedAccessControl, Pausable, ReentrancyGuard {... */\n      0x44\n      swap1\n      mload(0x40)\n        /* \"@openzeppelin/contracts/access/AccessControl.sol\":3541:3588  AccessControlUnauthorizedAccount(account, role) */\n      swap1\n      shl(0xe0, 0xe2517d3f)\n      dup3\n      mstore\n        /* \"@openzeppelin/contracts/utils/Context.sol\":735:745  msg.sender */\n      caller\n        /* \"@openzeppelin/contracts/access/AccessControl.sol\":3541:3588  AccessControlUnauthorizedAccount(account, role) */\n      0x04\n      dup4\n      add\n        /* \"CrossFi-Treasury-Guard/contracts/AIScoreRegistry.sol\":410:10788  contract AIScoreRegistry is IAIScoreRegistry, ExtendedAccessControl, Pausable, ReentrancyGuard {... */\n      mstore\n      0x24\n      dup3\n      add\n      mstore\n        /* \"@openzeppelin/contracts/access/AccessControl.sol\":3541:3588  AccessControlUnauthorizedAccount(account, role) */\n      revert\n        /* \"@openzeppelin/contracts/access/AccessControl.sol\":3175:3278  function _checkRole(bytes32 role) internal view virtual {... */\n    tag_14:\n        /* \"@openzeppelin/contracts/utils/Context.sol\":735:745  msg.sender */\n      caller\n        /* \"CrossFi-Treasury-Guard/contracts/AIScoreRegistry.sol\":410:10788  contract AIScoreRegistry is IAIScoreRegistry, ExtendedAccessControl, Pausable, ReentrancyGuard {... */\n      0x00\n      swap1\n      dup2\n      mstore\n      mstore(0x20, 0xad3228b676f7d3cd4284a5443f17f1962b36e491b30a40b2405849e597ba5fb5)\n      0x40\n      dup2\n      keccak256\n      sload\n      0xff\n      and\n        /* \"@openzeppelin/contracts/access/AccessControl.sol\":3495:3518  !hasRole(role, account) */\n      iszero\n        /* \"@openzeppelin/contracts/access/AccessControl.sol\":3491:3599  if (!hasRole(role, account)) {... */\n      tag_581\n      jumpi\n        /* \"@openzeppelin/contracts/access/AccessControl.sol\":3175:3278  function _checkRole(bytes32 role) internal view virtual {... */\n      pop\n      jump\t// out\n    tag_15:\n        /* \"CrossFi-Treasury-Guard/contracts/AIScoreRegistry.sol\":410:10788  contract AIScoreRegistry is IAIScoreRegistry, ExtendedAccessControl, Pausable, ReentrancyGuard {... */\n      dup1\n        /* \"@openzeppelin/contracts/access/AccessControl.sol\":2930:2936  _roles */\n      0x00\n        /* \"CrossFi-Treasury-Guard/contracts/AIScoreRegistry.sol\":410:10788  contract AIScoreRegistry is IAIScoreRegistry, ExtendedAccessControl, Pausable, ReentrancyGuard {... */\n      mstore\n        /* \"@openzeppelin/contracts/access/AccessControl.sol\":2930:2936  _roles */\n      0x00\n        /* \"CrossFi-Treasury-Guard/contracts/AIScoreRegistry.sol\":410:10788  contract AIScoreRegistry is IAIScoreRegistry, ExtendedAccessControl, Pausable, ReentrancyGuard {... */\n      0x20\n      mstore\n      0x40\n        /* \"@openzeppelin/contracts/access/AccessControl.sol\":2930:2936  _roles */\n      0x00\n        /* \"CrossFi-Treasury-Guard/contracts/AIScoreRegistry.sol\":410:10788  contract AIScoreRegistry is IAIScoreRegistry, ExtendedAccessControl, Pausable, ReentrancyGuard {... */\n      keccak256\n        /* \"@openzeppelin/contracts/utils/Context.sol\":735:745  msg.sender */\n      caller\n        /* \"@openzeppelin/contracts/access/AccessControl.sol\":2930:2936  _roles */\n      0x00\n        /* \"CrossFi-Treasury-Guard/contracts/AIScoreRegistry.sol\":410:10788  contract AIScoreRegistry is IAIScoreRegistry, ExtendedAccessControl, Pausable, ReentrancyGuard {... */\n      mstore\n      0x20\n      mstore\n      0xff\n      0x40\n        /* \"@openzeppelin/contracts/access/AccessControl.sol\":2930:2936  _roles */\n      0x00\n        /* \"CrossFi-Treasury-Guard/contracts/AIScoreRegistry.sol\":410:10788  contract AIScoreRegistry is IAIScoreRegistry, ExtendedAccessControl, Pausable, ReentrancyGuard {... */\n      keccak256\n      sload\n      and\n        /* \"@openzeppelin/contracts/access/AccessControl.sol\":3495:3518  !hasRole(role, account) */\n      iszero\n        /* \"@openzeppelin/contracts/access/AccessControl.sol\":3491:3599  if (!hasRole(role, account)) {... */\n      tag_581\n      jumpi\n        /* \"@openzeppelin/contracts/access/AccessControl.sol\":3175:3278  function _checkRole(bytes32 role) internal view virtual {... */\n      pop\n      jump\t// out\n        /* \"@openzeppelin/contracts/access/AccessControl.sol\":6155:6471  function _grantRole(bytes32 role, address account) internal virtual returns (bool) {... */\n    tag_17:\n      sub(shl(0xa0, 0x01), 0x01)\n        /* \"CrossFi-Treasury-Guard/contracts/AIScoreRegistry.sol\":410:10788  contract AIScoreRegistry is IAIScoreRegistry, ExtendedAccessControl, Pausable, ReentrancyGuard {... */\n      and\n        /* \"@openzeppelin/contracts/access/AccessControl.sol\":2930:2936  _roles */\n      0x00\n        /* \"CrossFi-Treasury-Guard/contracts/AIScoreRegistry.sol\":410:10788  contract AIScoreRegistry is IAIScoreRegistry, ExtendedAccessControl, Pausable, ReentrancyGuard {... */\n      dup2\n      dup2\n      mstore\n      mstore(0x20, 0xc1c604b5add75b59252bca1e4e4ec4ab21f3921b1ddcf7a43abe69724bce555d)\n      0x40\n      dup2\n      keccak256\n      sload\n        /* \"@openzeppelin/contracts/access/AccessControl.sol\":2930:2936  _roles */\n      swap1\n      swap2\n        /* \"CrossFi-Treasury-Guard/contracts/AIScoreRegistry.sol\":410:10788  contract AIScoreRegistry is IAIScoreRegistry, ExtendedAccessControl, Pausable, ReentrancyGuard {... */\n      swap1\n      0x00\n      dup1\n      mload\n      0x20\n      data_a33092ec2ea5e84579a4a7f81a8171c84a984183e655ab76a6ea5c0d5344c7b0\n      dup4\n      codecopy\n      dup2\n      mload\n      swap2\n      mstore\n        /* \"CrossFi-Treasury-Guard/contracts/utils/ExtendedAccessControl.sol\":413:440  keccak256(\"AI_ORACLE_ROLE\") */\n      swap1\n        /* \"CrossFi-Treasury-Guard/contracts/AIScoreRegistry.sol\":410:10788  contract AIScoreRegistry is IAIScoreRegistry, ExtendedAccessControl, Pausable, ReentrancyGuard {... */\n      0xff\n      and\n      tag_587\n      jumpi\n      dup1\n      dup4\n      mstore\n      dup3\n      0x20\n      mstore\n      0x40\n      dup4\n      keccak256\n      dup3\n      dup5\n      mstore\n      0x20\n      mstore\n      0x40\n      dup4\n      keccak256\n      0x01\n      not(0xff)\n      dup3\n      sload\n      and\n      or\n      swap1\n      sstore\n        /* \"@openzeppelin/contracts/access/AccessControl.sol\":6346:6386  RoleGranted(role, account, _msgSender()) */\n      0x2f8788117e7eff1d82e926ec794901d17c78024a50270940304540a733656f0d\n        /* \"@openzeppelin/contracts/utils/Context.sol\":735:745  msg.sender */\n      caller\n        /* \"@openzeppelin/contracts/access/AccessControl.sol\":6346:6386  RoleGranted(role, account, _msgSender()) */\n      swap4\n      dup1\n      log4\n        /* \"CrossFi-Treasury-Guard/contracts/AIScoreRegistry.sol\":410:10788  contract AIScoreRegistry is IAIScoreRegistry, ExtendedAccessControl, Pausable, ReentrancyGuard {... */\n      0x01\n        /* \"@openzeppelin/contracts/access/AccessControl.sol\":6400:6411  return true */\n      swap1\n      jump\t// out\n        /* \"@openzeppelin/contracts/access/AccessControl.sol\":6248:6465  if (!hasRole(role, account)) {... */\n    tag_587:\n        /* \"@openzeppelin/contracts/access/AccessControl.sol\":6442:6454  return false */\n      pop\n      pop\n      swap1\n      jump\t// out\n        /* \"@openzeppelin/contracts/access/AccessControl.sol\":6155:6471  function _grantRole(bytes32 role, address account) internal virtual returns (bool) {... */\n    tag_18:\n      swap1\n        /* \"@openzeppelin/contracts/access/AccessControl.sol\":2930:2936  _roles */\n      0x00\n        /* \"CrossFi-Treasury-Guard/contracts/AIScoreRegistry.sol\":410:10788  contract AIScoreRegistry is IAIScoreRegistry, ExtendedAccessControl, Pausable, ReentrancyGuard {... */\n      swap2\n      dup1\n      dup4\n      mstore\n      dup3\n      0x20\n      mstore\n      0x40\n      dup4\n      keccak256\n      swap2\n      0x01\n      dup1\n      0xa0\n      shl\n      sub\n      and\n      swap2\n      dup3\n      dup5\n      mstore\n      0x20\n      mstore\n      0xff\n      0x40\n      dup5\n      keccak256\n      sload\n      and\n        /* \"@openzeppelin/contracts/access/AccessControl.sol\":6252:6275  !hasRole(role, account) */\n      iszero\n        /* \"@openzeppelin/contracts/access/AccessControl.sol\":6248:6465  if (!hasRole(role, account)) {... */\n      0x00\n        /* \"CrossFi-Treasury-Guard/contracts/AIScoreRegistry.sol\":410:10788  contract AIScoreRegistry is IAIScoreRegistry, ExtendedAccessControl, Pausable, ReentrancyGuard {... */\n      eq\n      tag_587\n      jumpi\n      dup1\n      dup4\n      mstore\n      dup3\n      0x20\n      mstore\n      0x40\n      dup4\n      keccak256\n      dup3\n      dup5\n      mstore\n      0x20\n      mstore\n      0x40\n      dup4\n      keccak256\n      0x01\n      not(0xff)\n      dup3\n      sload\n      and\n      or\n      swap1\n      sstore\n        /* \"@openzeppelin/contracts/access/AccessControl.sol\":6346:6386  RoleGranted(role, account, _msgSender()) */\n      0x2f8788117e7eff1d82e926ec794901d17c78024a50270940304540a733656f0d\n        /* \"@openzeppelin/contracts/utils/Context.sol\":735:745  msg.sender */\n      caller\n        /* \"@openzeppelin/contracts/access/AccessControl.sol\":6346:6386  RoleGranted(role, account, _msgSender()) */\n      swap4\n      dup1\n      log4\n        /* \"CrossFi-Treasury-Guard/contracts/AIScoreRegistry.sol\":410:10788  contract AIScoreRegistry is IAIScoreRegistry, ExtendedAccessControl, Pausable, ReentrancyGuard {... */\n      0x01\n        /* \"@openzeppelin/contracts/access/AccessControl.sol\":6400:6411  return true */\n      swap1\n      jump\t// out\n        /* \"@openzeppelin/contracts/access/AccessControl.sol\":6708:7025  function _revokeRole(bytes32 role, address account) internal virtual returns (bool) {... */\n    tag_19:\n      sub(shl(0xa0, 0x01), 0x01)\n        /* \"CrossFi-Treasury-Guard/contracts/AIScoreRegistry.sol\":410:10788  contract AIScoreRegistry is IAIScoreRegistry, ExtendedAccessControl, Pausable, ReentrancyGuard {... */\n      and\n        /* \"@openzeppelin/contracts/access/AccessControl.sol\":2930:2936  _roles */\n      0x00\n        /* \"CrossFi-Treasury-Guard/contracts/AIScoreRegistry.sol\":410:10788  contract AIScoreRegistry is IAIScoreRegistry, ExtendedAccessControl, Pausable, ReentrancyGuard {... */\n      dup2\n      dup2\n      mstore\n      mstore(0x20, 0xc1c604b5add75b59252bca1e4e4ec4ab21f3921b1ddcf7a43abe69724bce555d)\n      0x40\n      dup2\n      keccak256\n      sload\n        /* \"@openzeppelin/contracts/access/AccessControl.sol\":2930:2936  _roles */\n      swap1\n      swap2\n        /* \"CrossFi-Treasury-Guard/contracts/AIScoreRegistry.sol\":410:10788  contract AIScoreRegistry is IAIScoreRegistry, ExtendedAccessControl, Pausable, ReentrancyGuard {... */\n      swap1\n      0x00\n      dup1\n      mload\n      0x20\n      data_a33092ec2ea5e84579a4a7f81a8171c84a984183e655ab76a6ea5c0d5344c7b0\n      dup4\n      codecopy\n      dup2\n      mload\n      swap2\n      mstore\n        /* \"CrossFi-Treasury-Guard/contracts/utils/ExtendedAccessControl.sol\":413:440  keccak256(\"AI_ORACLE_ROLE\") */\n      swap1\n        /* \"CrossFi-Treasury-Guard/contracts/AIScoreRegistry.sol\":410:10788  contract AIScoreRegistry is IAIScoreRegistry, ExtendedAccessControl, Pausable, ReentrancyGuard {... */\n      0xff\n      and\n      iszero\n      tag_587\n      jumpi\n      dup1\n      dup4\n      mstore\n      dup3\n      0x20\n      mstore\n      0x40\n      dup4\n      keccak256\n      dup3\n      dup5\n      mstore\n      0x20\n      mstore\n      0x40\n      dup4\n      keccak256\n      not(0xff)\n      dup2\n      sload\n      and\n      swap1\n      sstore\n        /* \"@openzeppelin/contracts/access/AccessControl.sol\":6900:6940  RoleRevoked(role, account, _msgSender()) */\n      0xf6391f5c32d9c69d2a47ea670b442974b53935d1edc7fd64eb21e047a839171b\n        /* \"@openzeppelin/contracts/utils/Context.sol\":735:745  msg.sender */\n      caller\n        /* \"@openzeppelin/contracts/access/AccessControl.sol\":6900:6940  RoleRevoked(role, account, _msgSender()) */\n      swap4\n      dup1\n      log4\n        /* \"CrossFi-Treasury-Guard/contracts/AIScoreRegistry.sol\":410:10788  contract AIScoreRegistry is IAIScoreRegistry, ExtendedAccessControl, Pausable, ReentrancyGuard {... */\n      0x01\n        /* \"@openzeppelin/contracts/access/AccessControl.sol\":6954:6965  return true */\n      swap1\n      jump\t// out\n        /* \"@openzeppelin/contracts/access/AccessControl.sol\":6708:7025  function _revokeRole(bytes32 role, address account) internal virtual returns (bool) {... */\n    tag_20:\n      swap1\n        /* \"@openzeppelin/contracts/access/AccessControl.sol\":2930:2936  _roles */\n      0x00\n        /* \"CrossFi-Treasury-Guard/contracts/AIScoreRegistry.sol\":410:10788  contract AIScoreRegistry is IAIScoreRegistry, ExtendedAccessControl, Pausable, ReentrancyGuard {... */\n      swap2\n      dup1\n      dup4\n      mstore\n      dup3\n      0x20\n      mstore\n      0x40\n      dup4\n      keccak256\n      swap2\n      0x01\n      dup1\n      0xa0\n      shl\n      sub\n      and\n      swap2\n      dup3\n      dup5\n      mstore\n      0x20\n      mstore\n      0xff\n      0x40\n      dup5\n      keccak256\n      sload\n      and\n        /* \"@openzeppelin/contracts/access/AccessControl.sol\":6802:7019  if (hasRole(role, account)) {... */\n      0x00\n        /* \"CrossFi-Treasury-Guard/contracts/AIScoreRegistry.sol\":410:10788  contract AIScoreRegistry is IAIScoreRegistry, ExtendedAccessControl, Pausable, ReentrancyGuard {... */\n      eq\n      tag_587\n      jumpi\n      dup1\n      dup4\n      mstore\n      dup3\n      0x20\n      mstore\n      0x40\n      dup4\n      keccak256\n      dup3\n      dup5\n      mstore\n      0x20\n      mstore\n      0x40\n      dup4\n      keccak256\n      not(0xff)\n      dup2\n      sload\n      and\n      swap1\n      sstore\n        /* \"@openzeppelin/contracts/access/AccessControl.sol\":6900:6940  RoleRevoked(role, account, _msgSender()) */\n      0xf6391f5c32d9c69d2a47ea670b442974b53935d1edc7fd64eb21e047a839171b\n        /* \"@openzeppelin/contracts/utils/Context.sol\":735:745  msg.sender */\n      caller\n        /* \"@openzeppelin/contracts/access/AccessControl.sol\":6900:6940  RoleRevoked(role, account, _msgSender()) */\n      swap4\n      dup1\n      log4\n        /* \"CrossFi-Treasury-Guard/contracts/AIScoreRegistry.sol\":410:10788  contract AIScoreRegistry is IAIScoreRegistry, ExtendedAccessControl, Pausable, ReentrancyGuard {... */\n      0x01\n        /* \"@openzeppelin/contracts/access/AccessControl.sol\":6954:6965  return true */\n      swap1\n      jump\t// out\n        /* \"CrossFi-Treasury-Guard/contracts/AIScoreRegistry.sol\":410:10788  contract AIScoreRegistry is IAIScoreRegistry, ExtendedAccessControl, Pausable, ReentrancyGuard {... */\n    tag_21:\n      iszero\n      tag_595\n      jumpi\n      jump\t// out\n    tag_595:\n      mload(0x40)\n      shl(0xe5, 0x461bcd)\n      dup2\n      mstore\n      0x20\n      0x04\n      dup3\n      add\n      mstore\n      0x15\n      0x24\n      dup3\n      add\n      mstore\n      shl(0x58, 0x4e6f7420617574686f72697a6564206f7261636c65)\n      0x44\n      dup3\n      add\n      mstore\n      0x64\n      swap1\n      revert\n    tag_22:\n      iszero\n      tag_597\n      jumpi\n      jump\t// out\n    tag_597:\n      mload(0x40)\n      shl(0xe5, 0x461bcd)\n      dup2\n      mstore\n      0x20\n      0x04\n      dup3\n      add\n      mstore\n      0x13\n      0x24\n      dup3\n      add\n      mstore\n      shl(0x6a, 0x125b9d985b1a59081c1c9bdc1bdcd85b081251)\n      0x44\n      dup3\n      add\n      mstore\n      0x64\n      swap1\n      revert\n    tag_23:\n      iszero\n      tag_599\n      jumpi\n      jump\t// out\n    tag_599:\n      mload(0x40)\n      shl(0xe5, 0x461bcd)\n      dup2\n      mstore\n      0x20\n      0x04\n      dup3\n      add\n      mstore\n      0x12\n      0x24\n      dup3\n      add\n      mstore\n      shl(0x70, 0x53636f7265206f7574206f662072616e6765)\n      0x44\n      dup3\n      add\n      mstore\n      0x64\n      swap1\n      revert\n    tag_24:\n      swap1\n      0xff\n      dup1\n      swap2\n      and\n      swap2\n      and\n      mul\n      swap1\n      0xff\n      dup3\n      and\n      swap2\n      dup3\n      sub\n      tag_241\n      jumpi\n      jump\t// out\n    tag_25:\n      swap1\n      0xff\n      dup1\n      swap2\n      and\n      swap2\n      and\n      add\n      swap1\n      0xff\n      dup3\n      gt\n      tag_241\n      jumpi\n      jump\t// out\n    tag_26:\n      swap1\n      0x01\n      dup3\n      dup2\n      shr\n      swap3\n      and\n      dup1\n      iszero\n      tag_605\n      jumpi\n    tag_606:\n      0x20\n      dup4\n      lt\n      eq\n      tag_607\n      jumpi\n      jump\t// out\n    tag_607:\n      mstore(0x00, shl(0xe0, 0x4e487b71))\n      mstore(0x04, 0x22)\n      revert(0x00, 0x24)\n    tag_605:\n      swap2\n      0x7f\n      and\n      swap2\n      jump(tag_606)\n    tag_27:\n      dup2\n      dup2\n      lt\n      tag_610\n      jumpi\n      pop\n      pop\n      jump\t// out\n    tag_610:\n      0x00\n      dup2\n      sstore\n      0x01\n      add\n      jump(tag_27)\n    tag_28:\n      not(0x00)\n      dup2\n      eq\n      tag_241\n      jumpi\n      0x01\n      add\n      swap1\n      jump\t// out\n        /* \"@openzeppelin/contracts/security/Pausable.sol\":1767:1873  function _requireNotPaused() internal view virtual {... */\n    tag_29:\n        /* \"CrossFi-Treasury-Guard/contracts/AIScoreRegistry.sol\":410:10788  contract AIScoreRegistry is IAIScoreRegistry, ExtendedAccessControl, Pausable, ReentrancyGuard {... */\n      0xff\n        /* \"@openzeppelin/contracts/security/Pausable.sol\":1685:1692  _paused */\n      0x01\n        /* \"CrossFi-Treasury-Guard/contracts/AIScoreRegistry.sol\":410:10788  contract AIScoreRegistry is IAIScoreRegistry, ExtendedAccessControl, Pausable, ReentrancyGuard {... */\n      sload\n      and\n      tag_614\n      jumpi\n        /* \"@openzeppelin/contracts/security/Pausable.sol\":1767:1873  function _requireNotPaused() internal view virtual {... */\n      jump\t// out\n        /* \"CrossFi-Treasury-Guard/contracts/AIScoreRegistry.sol\":410:10788  contract AIScoreRegistry is IAIScoreRegistry, ExtendedAccessControl, Pausable, ReentrancyGuard {... */\n    tag_614:\n      mload(0x40)\n      shl(0xe5, 0x461bcd)\n      dup2\n      mstore\n      0x20\n      0x04\n      dup3\n      add\n      mstore\n      0x10\n      0x24\n      dup3\n      add\n      mstore\n      shl(0x82, 0x14185d5cd8589b194e881c185d5cd959)\n      0x44\n      dup3\n      add\n      mstore\n      0x64\n      swap1\n      revert\n    tag_30:\n      iszero\n      tag_616\n      jumpi\n      jump\t// out\n    tag_616:\n      mload(0x40)\n      shl(0xe5, 0x461bcd)\n      dup2\n      mstore\n      0x20\n      0x04\n      dup3\n      add\n      mstore\n      0x14\n      0x24\n      dup3\n      add\n      mstore\n      shl(0x62, 0x14d8dbdc9948191bd95cc81b9bdd08195e1a5cdd)\n      0x44\n      dup3\n      add\n      mstore\n      0x64\n      swap1\n      revert\n    tag_31:\n      swap1\n      mload(0x40)\n      swap2\n      dup3\n      0x00\n      dup3\n      sload\n      swap3\n      tag_618\n      dup5\n      tag_26\n      jump\t// in\n    tag_618:\n      swap1\n      dup2\n      dup5\n      mstore\n      0x01\n      swap5\n      dup6\n      dup2\n      and\n      swap1\n      dup2\n      0x00\n      eq\n      tag_619\n      jumpi\n      pop\n      0x01\n      eq\n      tag_621\n      jumpi\n    tag_622:\n      pop\n      pop\n      tag_623\n      swap3\n      pop\n      sub\n      dup4\n      tag_5\n      jump\t// in\n    tag_623:\n      jump\t// out\n    tag_621:\n      swap1\n      swap4\n      swap2\n      pop\n      0x00\n      mstore\n      0x20\n      swap1\n      dup2\n      0x00\n      keccak256\n      swap4\n      0x00\n      swap2\n    tag_624:\n      dup2\n      dup4\n      lt\n      tag_625\n      jumpi\n      pop\n      pop\n      tag_623\n      swap4\n      pop\n      dup3\n      add\n      add\n      0x00\n      dup1\n      jump(tag_622)\n    tag_625:\n      dup6\n      sload\n      dup9\n      dup5\n      add\n      dup6\n      add\n      mstore\n      swap5\n      dup6\n      add\n      swap5\n      dup8\n      swap5\n      pop\n      swap2\n      dup4\n      add\n      swap2\n      jump(tag_624)\n    tag_619:\n      swap2\n      pop\n      pop\n      tag_623\n      swap5\n      pop\n      0x20\n      swap3\n      pop\n      not(0xff)\n      and\n      dup3\n      dup5\n      add\n      mstore\n      iszero\n      iszero\n      0x05\n      shl\n      dup3\n      add\n      add\n      0x00\n      dup1\n      jump(tag_622)\n    tag_32:\n      mload(0x40)\n      swap1\n      tag_627\n      dup3\n      tag_4\n      jump\t// in\n    tag_627:\n      0x00\n      0x80\n      dup4\n      dup3\n      dup2\n      mstore\n      dup3\n      0x20\n      dup3\n      add\n      mstore\n      dup3\n      0x40\n      dup3\n      add\n      mstore\n      dup3\n      0x60\n      dup3\n      add\n      mstore\n      add\n      mstore\n      jump\t// out\n    tag_33:\n      swap1\n      mload(0x40)\n      tag_628\n      dup2\n      tag_4\n      jump\t// in\n    tag_628:\n      0x80\n      0xff\n      dup3\n      swap5\n      sload\n      dup2\n      dup2\n      and\n      dup5\n      mstore\n      dup2\n      dup2\n      0x08\n      shr\n      and\n      0x20\n      dup6\n      add\n      mstore\n      dup2\n      dup2\n      0x10\n      shr\n      and\n      0x40\n      dup6\n      add\n      mstore\n      dup2\n      dup2\n      0x18\n      shr\n      and\n      0x60\n      dup6\n      add\n      mstore\n      0x20\n      shr\n      and\n      swap2\n      add\n      mstore\n      jump\t// out\n    tag_34:\n      tag_629\n      dup2\n      sload\n      tag_26\n      jump\t// in\n    tag_629:\n      swap1\n      dup2\n      tag_630\n      jumpi\n      pop\n      pop\n      jump\t// out\n    tag_630:\n      dup2\n      0x1f\n      0x00\n      swap4\n      gt\n      0x01\n      eq\n      tag_632\n      jumpi\n      pop\n      sstore\n      jump\t// out\n    tag_632:\n      swap1\n      dup1\n      dup4\n      swap2\n      dup3\n      mstore\n      tag_635\n      0x1f\n      0x20\n      dup5\n      keccak256\n      swap5\n      add\n      0x05\n      shr\n      dup5\n      add\n      0x01\n      dup6\n      add\n      tag_27\n      jump\t// in\n    tag_635:\n      sstore\n      sstore\n      jump\t// out\n    tag_35:\n      dup1\n      mload\n      dup3\n      lt\n      iszero\n      tag_636\n      jumpi\n      0x20\n      swap2\n      0x05\n      shl\n      add\n      add\n      swap1\n      jump\t// out\n    tag_636:\n      mstore(0x00, shl(0xe0, 0x4e487b71))\n      mstore(0x04, 0x32)\n      revert(0x00, 0x24)\n        /* \"CrossFi-Treasury-Guard/contracts/utils/ExtendedAccessControl.sol\":1816:2087  function hasAnyRole(address account, bytes32[] memory roles) external view returns (bool) {... */\n    tag_36:\n      swap1\n        /* \"CrossFi-Treasury-Guard/contracts/utils/ExtendedAccessControl.sol\":1933:1934  0 */\n      0x00\n        /* \"CrossFi-Treasury-Guard/contracts/utils/ExtendedAccessControl.sol\":1954:1957  i++ */\n    tag_638:\n        /* \"CrossFi-Treasury-Guard/contracts/AIScoreRegistry.sol\":410:10788  contract AIScoreRegistry is IAIScoreRegistry, ExtendedAccessControl, Pausable, ReentrancyGuard {... */\n      dup2\n      mload\n        /* \"CrossFi-Treasury-Guard/contracts/utils/ExtendedAccessControl.sol\":1936:1952  i < roles.length */\n      dup2\n      lt\n      iszero\n      tag_639\n      jumpi\n        /* \"CrossFi-Treasury-Guard/contracts/utils/ExtendedAccessControl.sol\":1977:2003  hasRole(roles[i], account) */\n      tag_641\n        /* \"CrossFi-Treasury-Guard/contracts/utils/ExtendedAccessControl.sol\":1985:1993  roles[i] */\n      dup4\n      tag_254\n      dup4\n      dup6\n      tag_35\n      jump\t// in\n        /* \"CrossFi-Treasury-Guard/contracts/utils/ExtendedAccessControl.sol\":1977:2003  hasRole(roles[i], account) */\n    tag_641:\n        /* \"CrossFi-Treasury-Guard/contracts/utils/ExtendedAccessControl.sol\":1973:2049  if (hasRole(roles[i], account)) {... */\n      tag_643\n      jumpi\n        /* \"CrossFi-Treasury-Guard/contracts/utils/ExtendedAccessControl.sol\":1954:1957  i++ */\n      tag_645\n      swap1\n      tag_28\n      jump\t// in\n    tag_645:\n        /* \"CrossFi-Treasury-Guard/contracts/utils/ExtendedAccessControl.sol\":1921:1934  uint256 i = 0 */\n      jump(tag_638)\n        /* \"CrossFi-Treasury-Guard/contracts/utils/ExtendedAccessControl.sol\":1973:2049  if (hasRole(roles[i], account)) {... */\n    tag_643:\n        /* \"CrossFi-Treasury-Guard/contracts/utils/ExtendedAccessControl.sol\":2023:2034  return true */\n      pop\n      pop\n      pop\n        /* \"CrossFi-Treasury-Guard/contracts/utils/ExtendedAccessControl.sol\":2030:2034  true */\n      0x01\n        /* \"CrossFi-Treasury-Guard/contracts/utils/ExtendedAccessControl.sol\":2023:2034  return true */\n      swap1\n      jump\t// out\n        /* \"CrossFi-Treasury-Guard/contracts/utils/ExtendedAccessControl.sol\":1936:1952  i < roles.length */\n    tag_639:\n      pop\n      pop\n      pop\n        /* \"CrossFi-Treasury-Guard/contracts/utils/ExtendedAccessControl.sol\":1933:1934  0 */\n      0x00\n        /* \"CrossFi-Treasury-Guard/contracts/utils/ExtendedAccessControl.sol\":1816:2087  function hasAnyRole(address account, bytes32[] memory roles) external view returns (bool) {... */\n      swap1\n      jump\t// out\n        /* \"CrossFi-Treasury-Guard/contracts/utils/ExtendedAccessControl.sol\":2723:3087  function getAllRoles() public pure returns (bytes32[] memory roles) {... */\n    tag_37:\n        /* \"CrossFi-Treasury-Guard/contracts/AIScoreRegistry.sol\":410:10788  contract AIScoreRegistry is IAIScoreRegistry, ExtendedAccessControl, Pausable, ReentrancyGuard {... */\n      mload(0x40)\n      0xe0\n      dup2\n      add\n      dup2\n      dup2\n      lt\n      sub(shl(0x40, 0x01), 0x01)\n      dup3\n      gt\n      or\n      tag_379\n      jumpi\n      0x40\n      mstore\n        /* \"CrossFi-Treasury-Guard/contracts/utils/ExtendedAccessControl.sol\":2823:2824  6 */\n      0x06\n        /* \"CrossFi-Treasury-Guard/contracts/AIScoreRegistry.sol\":410:10788  contract AIScoreRegistry is IAIScoreRegistry, ExtendedAccessControl, Pausable, ReentrancyGuard {... */\n      dup2\n      mstore\n      0x20\n      dup2\n      add\n      0xc0\n      calldatasize\n      dup3\n      calldatacopy\n      dup2\n      mload\n      iszero\n      tag_636\n      jumpi\n      0x00\n      dup1\n      swap2\n      mstore\n      dup2\n      mload\n        /* \"CrossFi-Treasury-Guard/contracts/utils/ExtendedAccessControl.sol\":2880:2881  1 */\n      0x01\n        /* \"CrossFi-Treasury-Guard/contracts/AIScoreRegistry.sol\":410:10788  contract AIScoreRegistry is IAIScoreRegistry, ExtendedAccessControl, Pausable, ReentrancyGuard {... */\n      lt\n      iszero\n      tag_658\n      jumpi\n        /* \"CrossFi-Treasury-Guard/contracts/utils/ExtendedAccessControl.sol\":343:366  keccak256(\"ADMIN_ROLE\") */\n      0xa49807205ce4d355092ef5a8a18f56e8913cf4a201fbe287825b095693c21775\n        /* \"CrossFi-Treasury-Guard/contracts/AIScoreRegistry.sol\":410:10788  contract AIScoreRegistry is IAIScoreRegistry, ExtendedAccessControl, Pausable, ReentrancyGuard {... */\n      0x40\n      dup4\n      add\n      mstore\n      dup2\n      mload\n        /* \"CrossFi-Treasury-Guard/contracts/utils/ExtendedAccessControl.sol\":2911:2912  2 */\n      0x02\n        /* \"CrossFi-Treasury-Guard/contracts/AIScoreRegistry.sol\":410:10788  contract AIScoreRegistry is IAIScoreRegistry, ExtendedAccessControl, Pausable, ReentrancyGuard {... */\n      lt\n      iszero\n      tag_658\n      jumpi\n      0x00\n      dup1\n      mload\n      0x20\n      data_a33092ec2ea5e84579a4a7f81a8171c84a984183e655ab76a6ea5c0d5344c7b0\n      dup4\n      codecopy\n      dup2\n      mload\n      swap2\n      mstore\n      0x60\n      dup4\n      add\n      mstore\n      dup2\n      mload\n        /* \"CrossFi-Treasury-Guard/contracts/utils/ExtendedAccessControl.sol\":2946:2947  3 */\n      0x03\n        /* \"CrossFi-Treasury-Guard/contracts/AIScoreRegistry.sol\":410:10788  contract AIScoreRegistry is IAIScoreRegistry, ExtendedAccessControl, Pausable, ReentrancyGuard {... */\n      lt\n      iszero\n      tag_658\n      jumpi\n        /* \"CrossFi-Treasury-Guard/contracts/utils/ExtendedAccessControl.sol\":494:528  keccak256(\"TREASURY_MANAGER_ROLE\") */\n      0xede9dcdb0ce99dc7cec9c7be9246ad08b37853683ad91569c187b647ddf5e21c\n        /* \"CrossFi-Treasury-Guard/contracts/AIScoreRegistry.sol\":410:10788  contract AIScoreRegistry is IAIScoreRegistry, ExtendedAccessControl, Pausable, ReentrancyGuard {... */\n      0x80\n      dup4\n      add\n      mstore\n      dup2\n      mload\n        /* \"CrossFi-Treasury-Guard/contracts/utils/ExtendedAccessControl.sol\":2988:2989  4 */\n      0x04\n        /* \"CrossFi-Treasury-Guard/contracts/AIScoreRegistry.sol\":410:10788  contract AIScoreRegistry is IAIScoreRegistry, ExtendedAccessControl, Pausable, ReentrancyGuard {... */\n      lt\n      iszero\n      tag_658\n      jumpi\n        /* \"CrossFi-Treasury-Guard/contracts/utils/ExtendedAccessControl.sol\":584:620  keccak256(\"MILESTONE_APPROVER_ROLE\") */\n      0x58223cdfb69946630d837d40b5c366a584f0217ada7fddd8318f2e08603cfa22\n        /* \"CrossFi-Treasury-Guard/contracts/AIScoreRegistry.sol\":410:10788  contract AIScoreRegistry is IAIScoreRegistry, ExtendedAccessControl, Pausable, ReentrancyGuard {... */\n      0xa0\n      dup4\n      add\n      mstore\n      dup2\n      mload\n        /* \"CrossFi-Treasury-Guard/contracts/utils/ExtendedAccessControl.sol\":3032:3033  5 */\n      0x05\n        /* \"CrossFi-Treasury-Guard/contracts/AIScoreRegistry.sol\":410:10788  contract AIScoreRegistry is IAIScoreRegistry, ExtendedAccessControl, Pausable, ReentrancyGuard {... */\n      lt\n      iszero\n      tag_658\n      jumpi\n      pop\n        /* \"CrossFi-Treasury-Guard/contracts/utils/ExtendedAccessControl.sol\":674:708  keccak256(\"DISPUTE_RESOLVER_ROLE\") */\n      0x7b8bb8356a3f32f5c111ff23f050d97f08988e0883529ea7bff3b918887a6e0e\n        /* \"CrossFi-Treasury-Guard/contracts/AIScoreRegistry.sol\":410:10788  contract AIScoreRegistry is IAIScoreRegistry, ExtendedAccessControl, Pausable, ReentrancyGuard {... */\n      0xc0\n      dup3\n      add\n      mstore\n        /* \"CrossFi-Treasury-Guard/contracts/utils/ExtendedAccessControl.sol\":2723:3087  function getAllRoles() public pure returns (bytes32[] memory roles) {... */\n      swap1\n      jump\t// out\n        /* \"CrossFi-Treasury-Guard/contracts/AIScoreRegistry.sol\":410:10788  contract AIScoreRegistry is IAIScoreRegistry, ExtendedAccessControl, Pausable, ReentrancyGuard {... */\n    tag_658:\n      shl(0xe0, 0x4e487b71)\n      dup2\n      mstore\n      0x32\n        /* \"CrossFi-Treasury-Guard/contracts/utils/ExtendedAccessControl.sol\":2988:2989  4 */\n      0x04\n        /* \"CrossFi-Treasury-Guard/contracts/AIScoreRegistry.sol\":410:10788  contract AIScoreRegistry is IAIScoreRegistry, ExtendedAccessControl, Pausable, ReentrancyGuard {... */\n      mstore\n      0x24\n      swap1\n      revert\n    stop\n    data_a33092ec2ea5e84579a4a7f81a8171c84a984183e655ab76a6ea5c0d5344c7b0 482648e7878e9fa54c0a2f67ffd22d00ebc37cf7a03e060e428d2ab0cd6735cc\n\n    auxdata: 0xa26469706673582212200b1223efaf666021dca3699461c9c0f3c03b0de38e34c65d00330de55a5f2e8c64736f6c63430008140033\n}\n",
				"bytecode": {
					"linkReferences": {},
					"object": "60406080815234620000fe57620000163362000102565b5060ff1980600154166001556001600255620000323362000102565b506200003e3362000180565b506200004a3362000220565b50815160a081016001600160401b03811182821017620000ea57600f91608091855260198152601960208201526014858201528260608201520152640f0f14191964ffffffffff196006541617600655602582516411d4150b4d60da1b81526005808201522060018282541617905560016028835167436c617564652d3360c01b81526005600882015220918254161790555161257e9081620002bc8239f35b634e487b7160e01b5f52604160045260245ffd5b5f80fd5b6001600160a01b03165f8181527fad3228b676f7d3cd4284a5443f17f1962b36e491b30a40b2405849e597ba5fb5602052604081205490919060ff166200017c57818052816020526040822081835260205260408220600160ff1982541617905533915f805160206200283a8339815191528180a4600190565b5090565b6001600160a01b03165f8181527f7d7ffb7a348e1c6a02869081a26547b49160dd3df72d1d75a570eb9b698292ec60205260408120549091907fa49807205ce4d355092ef5a8a18f56e8913cf4a201fbe287825b095693c217759060ff166200021b57808352826020526040832082845260205260408320600160ff198254161790555f805160206200283a833981519152339380a4600190565b505090565b6001600160a01b03165f8181527fc1c604b5add75b59252bca1e4e4ec4ab21f3921b1ddcf7a43abe69724bce555d60205260408120549091907f482648e7878e9fa54c0a2f67ffd22d00ebc37cf7a03e060e428d2ab0cd6735cc9060ff166200021b57808352826020526040832082845260205260408320600160ff198254161790555f805160206200283a833981519152339380a460019056fe6080806040526004361015610012575f80fd5b5f3560e01c90816301ffc9a714611b2f575080630311b82d14611ac0578063248a9ca314611a9457806327ff622314611a795780632b116373146117475780632ed49cf7146116e65780632f2ff15d146116af57806336568abe146116685780633a1e017f1461164b5780633f4ba83a146115b857806340b8927014610acc5780634da89fbd1461156c5780634fe9d1f51461151c5780635c975abb146114fa57806361c992a3146114bd57806368ca78f91461149a5780637092b0bc14610ccd5780637131f02514610c9557806375b238fc14610c5b5780638456cb5914610c0357806391b9f9d814610ba857806391d1485414610b6057806396caac0a14610b20578063a02d72fb14610ae6578063a217fddf14610acc578063a91ad18e14610aaf578063aca5a8a714610a1c578063b8a956d3146108df578063ba340773146107e0578063bfe42a37146107a6578063c601f7af1461077f578063c772a8a614610736578063cfe85a2f146106c9578063d547741f1461068b578063d5c1a1e11461055d578063ea535940146103e1578063ebdf690f146103a7578063f2bcac3d1461034d5763ff8dea01146101c9575f80fd5b346103495760a0366003190112610349576040516101e681611be4565b60ff60043581811681036103495782526024359181831683036103495760208101928352604435928284168403610349576040820193845260643583811681036103495760608301908152608435908482168203610349576080840191825261024d611d7f565b60648561028861027e61027461026a848a5116858a51169061214f565b848c51169061214f565b838651169061214f565b828651169061214f565b1603610304577f90565f56924446477768885e9b20cf4cb9d2183f2ad4313f3e90f1dcaedcc0ae9560a09585511664ff0000000063ff00000062ff000061ff00600654985160081b16945160101b16945160181b16945160201b169464ffffffffff191617171717176006556103016040518092611d47565ba1005b60405162461bcd60e51b815260206004820152601760248201527f57656967687473206d7573742073756d20746f203130300000000000000000006044820152606490fd5b5f80fd5b34610349575f366003190112610349576103656123ff565b60405180916020808301818452825180915281604085019301915f5b82811061039057505050500390f35b835185528695509381019392810192600101610381565b34610349575f3660031901126103495760206040517fede9dcdb0ce99dc7cec9c7be9246ad08b37853683ad91569c187b647ddf5e21c8152f35b34610349576020806003193601126103495760043560405161040281611bc8565b5f81525f83820152606060408201526060808201525f60808201525f60a08201525f60c082015260e06104336122e7565b9101526104418115156120b5565b805f526003825261045e60ff600560405f20015460a01c16612203565b5f526003815260405f20906040519161047683611bc8565b80548352610559600182015483850190815261049460028401612246565b60408601908152856104a860038601612246565b9460608201958652610537600482015496608084019788526105246005840154956104f4600660a088019660ff60c060018060a01b039a8b8d168b52019a60a01c1615158a5201612311565b9760e08d019889528b6040519d8e9d8e5251908d01525160408c01525161018060608c01526101a08b0190611ba3565b9051898203601f190160808b0152611ba3565b955160a0880152511660c086015251151560e085015251610100840190611d47565b0390f35b3461034957604036600319011261034957610576611c8b565b61057e611d38565b610586611d7f565b6001600160a01b03821691821561064d577f82a8fb1e779ea45ad427cc612e47087f5386a567e49dce488185e40646fa48d591602091845f52600483526105dc8260405f209060ff801983541691151516179055565b811561061b5761060e905f805160206125298339815191525f525f8452610609600160405f200154611e31565b611e52565b505b6040519015158152a2005b610647905f805160206125298339815191525f525f8452610642600160405f200154611e31565b611f67565b50610610565b60405162461bcd60e51b8152602060048201526016602482015275496e76616c6964206f7261636c65206164647265737360501b6044820152606490fd5b34610349576040366003190112610349576106c76004356106aa611c75565b90805f525f6020526106c2600160405f200154611e31565b611ffe565b005b34610349576020366003190112610349576004356106e56122e7565b506106f18115156120b5565b805f52600360205261070f60ff600560405f20015460a01c16612203565b5f52600360205260a0610727600660405f2001612311565b6107346040518092611d47565bf35b34610349576020366003190112610349576001600160a01b03610757611c8b565b165f5260086020526040805f2054600460205260ff825f205416825191825215156020820152f35b34610349575f3660031901126103495760206040515f805160206125298339815191528152f35b34610349575f3660031901126103495760206040517f7b8bb8356a3f32f5c111ff23f050d97f08988e0883529ea7bff3b918887a6e0e8152f35b34610349576040366003190112610349576004356001600160401b03811161034957610810903690600401611c20565b610818611d38565b610820611d7f565b8151156108a2577f2e5180543742ece2db44ed70b2619f2bf555a29a7bdead994736174f0d90a9b691816108816108959360405160208186516108668183858b01611b82565b810160058152030190209060ff801983541691151516179055565b604051928392604084526040840190611ba3565b90151560208301520390a1005b60405162461bcd60e51b815260206004820152601560248201527424b73b30b634b21036b7b232b6103b32b939b4b7b760591b6044820152606490fd5b34610349576040366003190112610349576004356024356001600160401b03811161034957610912903690600401611c20565b61091a611df8565b815f52600360205261093860ff600560405f20015460a01c16612203565b8051156109e557815f5260036020525f60066040822082815582600182015561096360028201612354565b61096f60038201612354565b826004820155826005820155015560075480156109d1577fd3e8dbbe8ff60a1fae1e5f88e71f27270ed38badc7b26e19922ed94fd12f5fe9916109cc915f19016007556040519182915f8352604060208401526040830190611ba3565b0390a2005b634e487b7160e01b5f52601160045260245ffd5b60405162461bcd60e51b815260206004820152600f60248201526e1499585cdbdb881c995c5d5a5c9959608a1b6044820152606490fd5b3461034957602036600319011261034957610a35611c8b565b610a3d6123ff565b5f915f5b8251811015610aa457610a7c82610a58838661239c565b515f525f60205260405f209060018060a01b03165f5260205260ff60405f20541690565b610a8f575b610a8a906121b1565b610a41565b92610a9c610a8a916121b1565b939050610a81565b602084604051908152f35b34610349575f36600319011261034957602060405162278d008152f35b34610349575f3660031901126103495760206040515f8152f35b34610349575f3660031901126103495760206040517f58223cdfb69946630d837d40b5c366a584f0217ada7fddd8318f2e08603cfa228152f35b3461034957602036600319011261034957600435610b3f8115156120b5565b5f526003602052602060ff600560405f20015460a01c166040519015158152f35b3461034957604036600319011261034957610b79611c75565b6004355f525f60205260405f209060018060a01b03165f52602052602060ff60405f2054166040519015158152f35b3461034957610bb636611ca1565b610bbe611df8565b5f5b81518110156106c75780610bf884610bdb610bfe948661239c565b51805f525f602052610bf3600160405f200154611e31565b611ef0565b506121b1565b610bc0565b34610349575f36600319011261034957610c1b611d7f565b610c236121bf565b600160ff19815416176001557f62e78cea01bee320cd4e420270b5ea74000d11b0c9f74754ebdbfc544b05a2586020604051338152a1005b34610349575f3660031901126103495760206040517fa49807205ce4d355092ef5a8a18f56e8913cf4a201fbe287825b095693c217758152f35b34610349576020366003190112610349576001600160a01b03610cb6611c8b565b165f526008602052602060405f2054604051908152f35b346103495761012036600319011261034957604480356001600160401b03811161034957610cff903690600401611c20565b6064356001600160401b03811161034957610d1e903690600401611c20565b60a03660831901126103495760405192610d3784611be4565b60843560ff8116810361034957845260a43560ff8116810361034957602085015260c43560ff8116810361034957604085015260e43560ff811681036103495760608501526101043560ff81168103610349576080850152335f526004602052610da760ff60405f205416612071565b610db460043515156120b5565b610dc3606460243511156120f7565b610dcb6121bf565b600280541461145657600280558251156114125760ff6040516020818551610df68183858a01611b82565b810160058152030190205416156113d7576004355f52600360205260ff600560405f20015460a01c1661139c57606460ff85511611158061138a575b80611378575b80611366575b80611354575b156113105760ff606481610ece81885116610e8e610eba8a610e8e866060610eaa610e94610e7860065499858b1690612138565b610e8e85602089015116868c60081c1690612138565b9061214f565b610e8e84604088015116858b60101c1690612138565b93015116878660181c1690612138565b91848060808d0151169160201c1690612138565b16041660041981018181116109d157602435101590816112f8575b50156112aa575060405192610efd84611bc8565b600435845260243560208501528260408501528160608501524260808501523360a0850152600160c085015260e08401526004355f52600360205260405f2092805184556020810151600185015560408101518051906001600160401b0382116111ea578190610f706002880154612163565b601f8111611277575b50602090601f8311600114611209575f926111fe575b50508160011b915f199060031b1c19161760028501555b60608101518051906001600160401b0382116111ea57610fc96003870154612163565b601f81116111ac575b50602090601f831160011461113757958260e0936006936110f498995f9261112c575b50508160011b915f199060031b1c19161760038201555b608084015160048201556005810160018060a01b0360a08601511681549060ff60a01b60c0880151151560a01b16916affffffffffffffffffffff60a81b16171790550191015160ff8151169082549161ff00602083015160081b1662ff0000604084015160101b169164ff00000000608063ff000000606087015160181b1695015160201b169464ffffffffff1916171717171790556110ae6007546121b1565b600755335f52600860205260405f206110c781546121b1565b90556110e6604051936024358552608060208601526080850190611ba3565b908382036040850152611ba3565b4260608301527f09e8ad66e4736435405704d301d344e9454f286d3feeb2036b1adc6f4900ccbc339280600435930390a36001600255005b015190508980610ff5565b90600387015f5260205f20915f5b601f19851681106111945750836006936110f498999360019360e097601f1981161061117c575b505050811b01600382015561100c565b01515f1960f88460031b161c1916905589808061116c565b91926020600181928685015181550194019201611145565b6111da90600388015f5260205f20601f850160051c810191602086106111e0575b601f0160051c019061219b565b86610fd2565b90915081906111cd565b634e487b7160e01b5f52604160045260245ffd5b015190508680610f8f565b9250600287015f5260205f20905f935b601f198416851061125c576001945083601f19811610611244575b505050811b016002850155610fa6565b01515f1960f88460031b161c19169055868080611234565b81810151835560209485019460019093019290910190611219565b6112a490600289015f5260205f20601f850160051c810191602086106111e057601f0160051c019061219b565b87610f79565b6084907f53636f726520696e636f6e73697374656e74207769746820627265616b646f776040519162461bcd60e51b83526020600484015260216024840152820152603760f91b6064820152fd5b9050600581018091116109d157602435111585610ee9565b6064907f496e76616c696420627265616b646f776e2073636f72657300000000000000006040519162461bcd60e51b83526020600484015260186024840152820152fd5b50606460ff6080860151161115610e44565b50606460ff6060860151161115610e3e565b50606460ff6040860151161115610e38565b50606460ff6020860151161115610e32565b6064907353636f726520616c72656164792065786973747360601b6040519162461bcd60e51b83526020600484015260146024840152820152fd5b60649073155b9cdd5c1c1bdc9d1959081052481b5bd9195b60621b6040519162461bcd60e51b83526020600484015260146024840152820152fd5b6064907f4a757374696669636174696f6e204950465320726571756972656400000000006040519162461bcd60e51b835260206004840152601b6024840152820152fd5b6064907f5265656e7472616e637947756172643a207265656e7472616e742063616c6c006040519162461bcd60e51b835260206004840152601f6024840152820152fd5b346103495760206114b36114ad36611ca1565b906123c4565b6040519015158152f35b34610349576020366003190112610349576001600160a01b036114de611c8b565b165f526004602052602060ff60405f2054166040519015158152f35b34610349575f36600319011261034957602060ff600154166040519015158152f35b346103495761152a36611ca1565b611532611df8565b5f5b81518110156106c75780610bf88461154f611567948661239c565b51805f525f6020526106c2600160405f200154611e31565b611534565b34610349575f3660031901126103495760a060065460ff604051918181168352818160081c166020840152818160101c166040840152818160181c16606084015260201c166080820152f35b34610349575f366003190112610349576115d0611d7f565b60015460ff81161561160f5760ff19166001557f5db9ee0a495bf2e6ff9c91a7834c1ba4fdd244a5e8aa4e537bd38aeae4b073aa6020604051338152a1005b60405162461bcd60e51b815260206004820152601460248201527314185d5cd8589b194e881b9bdd081c185d5cd95960621b6044820152606490fd5b34610349575f366003190112610349576020600754604051908152f35b3461034957604036600319011261034957611681611c75565b336001600160a01b0382160361169d576106c790600435611ffe565b60405163334bd91960e11b8152600490fd5b34610349576040366003190112610349576106c76004356116ce611c75565b90805f525f602052610bf3600160405f200154611e31565b34610349576020366003190112610349576004356001600160401b0381116103495760ff611731602061171e81943690600401611c20565b8160405193828580945193849201611b82565b8101600581520301902054166040519015158152f35b34610349576080366003190112610349576001600160401b03600435602480356044358481116103495761177f903690600401611c20565b60643585811161034957611797903690600401611c20565b90335f52602093600485526117b260ff60405f205416612071565b6117bd8615156120b5565b6117ca60648511156120f7565b6117d26121bf565b855f526003918286526117f160ff600560405f20015460a01c16612203565b865f528286523360018060a01b03600560405f2001541603611a3f57865f52828652600460405f20015462278d008101809111611a2c5742116119f0578351156119b357865f5282865260405f20906002600192878482015501928151998a116119a057506118608354612163565b601f8111611972575b508690601f8a116001146118eb5798806109cc9695949381937fd3e8dbbe8ff60a1fae1e5f88e71f27270ed38badc7b26e19922ed94fd12f5fe99b9c5f946118e0575b50501b915f1990851b1c19161790555b865f52845242600460405f2001556040805194859485528401526040830190611ba3565b015192508c806118ac565b9890601f19821699845f52885f209a5f5b81811061195d5750917fd3e8dbbe8ff60a1fae1e5f88e71f27270ed38badc7b26e19922ed94fd12f5fe99a9b91846109cc99989796959410611946575b505050811b0190556118bc565b01515f1983871b60f8161c191690558a8080611939565b838301518d559b85019b928a01928a016118fc565b61199a90845f52885f20601f8c0160051c8101918a8d106111e057601f0160051c019061219b565b89611869565b634e487b7160e01b5f9081526041600452fd5b60405162461bcd60e51b81526004810187905260168184015275155c19185d19481c99585cdbdb881c995c5d5a5c995960521b6044820152606490fd5b60405162461bcd60e51b81526004810187905260158184015274155c19185d19481c195c9a5bd908195e1c1a5c9959605a1b6044820152606490fd5b82634e487b7160e01b5f5260116004525ffd5b60405162461bcd60e51b815260048101879052601381840152724e6f74206f726967696e616c206f7261636c6560681b6044820152606490fd5b34610349575f36600319011261034957602060405160648152f35b34610349576020366003190112610349576004355f525f6020526020600160405f200154604051908152f35b3461034957602036600319011261034957600435611adf8115156120b5565b5f52600360205260405f206001810154611b06600260ff600585015460a01c169301612246565b91611b236040519384938452606060208501526060840190611ba3565b90151560408301520390f35b34610349576020366003190112610349576004359063ffffffff60e01b821680920361034957602091637965db0b60e01b8114908115611b71575b5015158152f35b6301ffc9a760e01b14905083611b6a565b5f5b838110611b935750505f910152565b8181015183820152602001611b84565b90602091611bbc81518092818552858086019101611b82565b601f01601f1916010190565b61010081019081106001600160401b038211176111ea57604052565b60a081019081106001600160401b038211176111ea57604052565b90601f801991011681019081106001600160401b038211176111ea57604052565b81601f82011215610349578035906001600160401b0382116111ea5760405192611c54601f8401601f191660200185611bff565b8284526020838301011161034957815f926020809301838601378301015290565b602435906001600160a01b038216820361034957565b600435906001600160a01b038216820361034957565b906040600319830112610349576004356001600160a01b03811681036103495791602435906001600160401b039081831161034957806023840112156103495782600401359182116111ea578160051b60405193602093611d0485840187611bff565b855260248486019282010192831161034957602401905b828210611d29575050505090565b81358152908301908301611d1b565b60243590811515820361034957565b60ff60808092828151168552826020820151166020860152826040820151166040860152826060820151166060860152015116910152565b335f9081527f7d7ffb7a348e1c6a02869081a26547b49160dd3df72d1d75a570eb9b698292ec60205260409020547fa49807205ce4d355092ef5a8a18f56e8913cf4a201fbe287825b095693c217759060ff1615611dda5750565b6044906040519063e2517d3f60e01b82523360048301526024820152fd5b335f9081527fad3228b676f7d3cd4284a5443f17f1962b36e491b30a40b2405849e597ba5fb5602052604081205460ff1615611dda5750565b805f525f60205260405f20335f5260205260ff60405f20541615611dda5750565b6001600160a01b03165f8181527fc1c604b5add75b59252bca1e4e4ec4ab21f3921b1ddcf7a43abe69724bce555d60205260408120549091905f805160206125298339815191529060ff16611eeb57808352826020526040832082845260205260408320600160ff198254161790557f2f8788117e7eff1d82e926ec794901d17c78024a50270940304540a733656f0d339380a4600190565b505090565b905f9180835282602052604083209160018060a01b03169182845260205260ff604084205416155f14611eeb57808352826020526040832082845260205260408320600160ff198254161790557f2f8788117e7eff1d82e926ec794901d17c78024a50270940304540a733656f0d339380a4600190565b6001600160a01b03165f8181527fc1c604b5add75b59252bca1e4e4ec4ab21f3921b1ddcf7a43abe69724bce555d60205260408120549091905f805160206125298339815191529060ff1615611eeb5780835282602052604083208284526020526040832060ff1981541690557ff6391f5c32d9c69d2a47ea670b442974b53935d1edc7fd64eb21e047a839171b339380a4600190565b905f9180835282602052604083209160018060a01b03169182845260205260ff6040842054165f14611eeb5780835282602052604083208284526020526040832060ff1981541690557ff6391f5c32d9c69d2a47ea670b442974b53935d1edc7fd64eb21e047a839171b339380a4600190565b1561207857565b60405162461bcd60e51b81526020600482015260156024820152744e6f7420617574686f72697a6564206f7261636c6560581b6044820152606490fd5b156120bc57565b60405162461bcd60e51b8152602060048201526013602482015272125b9d985b1a59081c1c9bdc1bdcd85b081251606a1b6044820152606490fd5b156120fe57565b60405162461bcd60e51b815260206004820152601260248201527153636f7265206f7574206f662072616e676560701b6044820152606490fd5b9060ff8091169116029060ff82169182036109d157565b9060ff8091169116019060ff82116109d157565b90600182811c92168015612191575b602083101461217d57565b634e487b7160e01b5f52602260045260245ffd5b91607f1691612172565b8181106121a6575050565b5f815560010161219b565b5f1981146109d15760010190565b60ff600154166121cb57565b60405162461bcd60e51b815260206004820152601060248201526f14185d5cd8589b194e881c185d5cd95960821b6044820152606490fd5b1561220a57565b60405162461bcd60e51b815260206004820152601460248201527314d8dbdc9948191bd95cc81b9bdd08195e1a5cdd60621b6044820152606490fd5b9060405191825f82549261225984612163565b9081845260019485811690815f146122c45750600114612284575b505061228292500383611bff565b565b909391505f52602090815f20935f915b8183106122ac57505061228293508201015f80612274565b85548884018501529485019487945091830191612294565b91505061228294506020925060ff191682840152151560051b8201015f80612274565b604051906122f482611be4565b5f6080838281528260208201528260408201528260608201520152565b9060405161231e81611be4565b608060ff8294548181168452818160081c166020850152818160101c166040850152818160181c16606085015260201c16910152565b61235e8154612163565b9081612368575050565b81601f5f9311600114612379575055565b908083918252612398601f60208420940160051c84016001850161219b565b5555565b80518210156123b05760209160051b010190565b634e487b7160e01b5f52603260045260245ffd5b905f5b81518110156123f8576123de83610a58838561239c565b6123f0576123eb906121b1565b6123c7565b505050600190565b5050505f90565b60405160e081018181106001600160401b038211176111ea57604052600681526020810160c03682378151156123b0575f809152815160011015612514577fa49807205ce4d355092ef5a8a18f56e8913cf4a201fbe287825b095693c217756040830152815160021015612514575f805160206125298339815191526060830152815160031015612514577fede9dcdb0ce99dc7cec9c7be9246ad08b37853683ad91569c187b647ddf5e21c6080830152815160041015612514577f58223cdfb69946630d837d40b5c366a584f0217ada7fddd8318f2e08603cfa2260a083015281516005101561251457507f7b8bb8356a3f32f5c111ff23f050d97f08988e0883529ea7bff3b918887a6e0e60c082015290565b634e487b7160e01b81526032600452602490fdfe482648e7878e9fa54c0a2f67ffd22d00ebc37cf7a03e060e428d2ab0cd6735cca26469706673582212200b1223efaf666021dca3699461c9c0f3c03b0de38e34c65d00330de55a5f2e8c64736f6c634300081400332f8788117e7eff1d82e926ec794901d17c78024a50270940304540a733656f0d",
					"opcodes": "PUSH1 0x40 PUSH1 0x80 DUP2 MSTORE CALLVALUE PUSH3 0xFE JUMPI PUSH3 0x16 CALLER PUSH3 0x102 JUMP JUMPDEST POP PUSH1 0xFF NOT DUP1 PUSH1 0x1 SLOAD AND PUSH1 0x1 SSTORE PUSH1 0x1 PUSH1 0x2 SSTORE PUSH3 0x32 CALLER PUSH3 0x102 JUMP JUMPDEST POP PUSH3 0x3E CALLER PUSH3 0x180 JUMP JUMPDEST POP PUSH3 0x4A CALLER PUSH3 0x220 JUMP JUMPDEST POP DUP2 MLOAD PUSH1 0xA0 DUP2 ADD PUSH1 0x1 PUSH1 0x1 PUSH1 0x40 SHL SUB DUP2 GT DUP3 DUP3 LT OR PUSH3 0xEA JUMPI PUSH1 0xF SWAP2 PUSH1 0x80 SWAP2 DUP6 MSTORE PUSH1 0x19 DUP2 MSTORE PUSH1 0x19 PUSH1 0x20 DUP3 ADD MSTORE PUSH1 0x14 DUP6 DUP3 ADD MSTORE DUP3 PUSH1 0x60 DUP3 ADD MSTORE ADD MSTORE PUSH5 0xF0F141919 PUSH5 0xFFFFFFFFFF NOT PUSH1 0x6 SLOAD AND OR PUSH1 0x6 SSTORE PUSH1 0x25 DUP3 MLOAD PUSH5 0x11D4150B4D PUSH1 0xDA SHL DUP2 MSTORE PUSH1 0x5 DUP1 DUP3 ADD MSTORE KECCAK256 PUSH1 0x1 DUP3 DUP3 SLOAD AND OR SWAP1 SSTORE PUSH1 0x1 PUSH1 0x28 DUP4 MLOAD PUSH8 0x436C617564652D33 PUSH1 0xC0 SHL DUP2 MSTORE PUSH1 0x5 PUSH1 0x8 DUP3 ADD MSTORE KECCAK256 SWAP2 DUP3 SLOAD AND OR SWAP1 SSTORE MLOAD PUSH2 0x257E SWAP1 DUP2 PUSH3 0x2BC DUP3 CODECOPY RETURN JUMPDEST PUSH4 0x4E487B71 PUSH1 0xE0 SHL PUSH0 MSTORE PUSH1 0x41 PUSH1 0x4 MSTORE PUSH1 0x24 PUSH0 REVERT JUMPDEST PUSH0 DUP1 REVERT JUMPDEST PUSH1 0x1 PUSH1 0x1 PUSH1 0xA0 SHL SUB AND PUSH0 DUP2 DUP2 MSTORE PUSH32 0xAD3228B676F7D3CD4284A5443F17F1962B36E491B30A40B2405849E597BA5FB5 PUSH1 0x20 MSTORE PUSH1 0x40 DUP2 KECCAK256 SLOAD SWAP1 SWAP2 SWAP1 PUSH1 0xFF AND PUSH3 0x17C JUMPI DUP2 DUP1 MSTORE DUP2 PUSH1 0x20 MSTORE PUSH1 0x40 DUP3 KECCAK256 DUP2 DUP4 MSTORE PUSH1 0x20 MSTORE PUSH1 0x40 DUP3 KECCAK256 PUSH1 0x1 PUSH1 0xFF NOT DUP3 SLOAD AND OR SWAP1 SSTORE CALLER SWAP2 PUSH0 DUP1 MLOAD PUSH1 0x20 PUSH3 0x283A DUP4 CODECOPY DUP2 MLOAD SWAP2 MSTORE DUP2 DUP1 LOG4 PUSH1 0x1 SWAP1 JUMP JUMPDEST POP SWAP1 JUMP JUMPDEST PUSH1 0x1 PUSH1 0x1 PUSH1 0xA0 SHL SUB AND PUSH0 DUP2 DUP2 MSTORE PUSH32 0x7D7FFB7A348E1C6A02869081A26547B49160DD3DF72D1D75A570EB9B698292EC PUSH1 0x20 MSTORE PUSH1 0x40 DUP2 KECCAK256 SLOAD SWAP1 SWAP2 SWAP1 PUSH32 0xA49807205CE4D355092EF5A8A18F56E8913CF4A201FBE287825B095693C21775 SWAP1 PUSH1 0xFF AND PUSH3 0x21B JUMPI DUP1 DUP4 MSTORE DUP3 PUSH1 0x20 MSTORE PUSH1 0x40 DUP4 KECCAK256 DUP3 DUP5 MSTORE PUSH1 0x20 MSTORE PUSH1 0x40 DUP4 KECCAK256 PUSH1 0x1 PUSH1 0xFF NOT DUP3 SLOAD AND OR SWAP1 SSTORE PUSH0 DUP1 MLOAD PUSH1 0x20 PUSH3 0x283A DUP4 CODECOPY DUP2 MLOAD SWAP2 MSTORE CALLER SWAP4 DUP1 LOG4 PUSH1 0x1 SWAP1 JUMP JUMPDEST POP POP SWAP1 JUMP JUMPDEST PUSH1 0x1 PUSH1 0x1 PUSH1 0xA0 SHL SUB AND PUSH0 DUP2 DUP2 MSTORE PUSH32 0xC1C604B5ADD75B59252BCA1E4E4EC4AB21F3921B1DDCF7A43ABE69724BCE555D PUSH1 0x20 MSTORE PUSH1 0x40 DUP2 KECCAK256 SLOAD SWAP1 SWAP2 SWAP1 PUSH32 0x482648E7878E9FA54C0A2F67FFD22D00EBC37CF7A03E060E428D2AB0CD6735CC SWAP1 PUSH1 0xFF AND PUSH3 0x21B JUMPI DUP1 DUP4 MSTORE DUP3 PUSH1 0x20 MSTORE PUSH1 0x40 DUP4 KECCAK256 DUP3 DUP5 MSTORE PUSH1 0x20 MSTORE PUSH1 0x40 DUP4 KECCAK256 PUSH1 0x1 PUSH1 0xFF NOT DUP3 SLOAD AND OR SWAP1 SSTORE PUSH0 DUP1 MLOAD PUSH1 0x20 PUSH3 0x283A DUP4 CODECOPY DUP2 MLOAD SWAP2 MSTORE CALLER SWAP4 DUP1 LOG4 PUSH1 0x1 SWAP1 JUMP INVALID PUSH1 0x80 DUP1 PUSH1 0x40 MSTORE PUSH1 0x4 CALLDATASIZE LT ISZERO PUSH2 0x12 JUMPI PUSH0 DUP1 REVERT JUMPDEST PUSH0 CALLDATALOAD PUSH1 0xE0 SHR SWAP1 DUP2 PUSH4 0x1FFC9A7 EQ PUSH2 0x1B2F JUMPI POP DUP1 PUSH4 0x311B82D EQ PUSH2 0x1AC0 JUMPI DUP1 PUSH4 0x248A9CA3 EQ PUSH2 0x1A94 JUMPI DUP1 PUSH4 0x27FF6223 EQ PUSH2 0x1A79 JUMPI DUP1 PUSH4 0x2B116373 EQ PUSH2 0x1747 JUMPI DUP1 PUSH4 0x2ED49CF7 EQ PUSH2 0x16E6 JUMPI DUP1 PUSH4 0x2F2FF15D EQ PUSH2 0x16AF JUMPI DUP1 PUSH4 0x36568ABE EQ PUSH2 0x1668 JUMPI DUP1 PUSH4 0x3A1E017F EQ PUSH2 0x164B JUMPI DUP1 PUSH4 0x3F4BA83A EQ PUSH2 0x15B8 JUMPI DUP1 PUSH4 0x40B89270 EQ PUSH2 0xACC JUMPI DUP1 PUSH4 0x4DA89FBD EQ PUSH2 0x156C JUMPI DUP1 PUSH4 0x4FE9D1F5 EQ PUSH2 0x151C JUMPI DUP1 PUSH4 0x5C975ABB EQ PUSH2 0x14FA JUMPI DUP1 PUSH4 0x61C992A3 EQ PUSH2 0x14BD JUMPI DUP1 PUSH4 0x68CA78F9 EQ PUSH2 0x149A JUMPI DUP1 PUSH4 0x7092B0BC EQ PUSH2 0xCCD JUMPI DUP1 PUSH4 0x7131F025 EQ PUSH2 0xC95 JUMPI DUP1 PUSH4 0x75B238FC EQ PUSH2 0xC5B JUMPI DUP1 PUSH4 0x8456CB59 EQ PUSH2 0xC03 JUMPI DUP1 PUSH4 0x91B9F9D8 EQ PUSH2 0xBA8 JUMPI DUP1 PUSH4 0x91D14854 EQ PUSH2 0xB60 JUMPI DUP1 PUSH4 0x96CAAC0A EQ PUSH2 0xB20 JUMPI DUP1 PUSH4 0xA02D72FB EQ PUSH2 0xAE6 JUMPI DUP1 PUSH4 0xA217FDDF EQ PUSH2 0xACC JUMPI DUP1 PUSH4 0xA91AD18E EQ PUSH2 0xAAF JUMPI DUP1 PUSH4 0xACA5A8A7 EQ PUSH2 0xA1C JUMPI DUP1 PUSH4 0xB8A956D3 EQ PUSH2 0x8DF JUMPI DUP1 PUSH4 0xBA340773 EQ PUSH2 0x7E0 JUMPI DUP1 PUSH4 0xBFE42A37 EQ PUSH2 0x7A6 JUMPI DUP1 PUSH4 0xC601F7AF EQ PUSH2 0x77F JUMPI DUP1 PUSH4 0xC772A8A6 EQ PUSH2 0x736 JUMPI DUP1 PUSH4 0xCFE85A2F EQ PUSH2 0x6C9 JUMPI DUP1 PUSH4 0xD547741F EQ PUSH2 0x68B JUMPI DUP1 PUSH4 0xD5C1A1E1 EQ PUSH2 0x55D JUMPI DUP1 PUSH4 0xEA535940 EQ PUSH2 0x3E1 JUMPI DUP1 PUSH4 0xEBDF690F EQ PUSH2 0x3A7 JUMPI DUP1 PUSH4 0xF2BCAC3D EQ PUSH2 0x34D JUMPI PUSH4 0xFF8DEA01 EQ PUSH2 0x1C9 JUMPI PUSH0 DUP1 REVERT JUMPDEST CALLVALUE PUSH2 0x349 JUMPI PUSH1 0xA0 CALLDATASIZE PUSH1 0x3 NOT ADD SLT PUSH2 0x349 JUMPI PUSH1 0x40 MLOAD PUSH2 0x1E6 DUP2 PUSH2 0x1BE4 JUMP JUMPDEST PUSH1 0xFF PUSH1 0x4 CALLDATALOAD DUP2 DUP2 AND DUP2 SUB PUSH2 0x349 JUMPI DUP3 MSTORE PUSH1 0x24 CALLDATALOAD SWAP2 DUP2 DUP4 AND DUP4 SUB PUSH2 0x349 JUMPI PUSH1 0x20 DUP2 ADD SWAP3 DUP4 MSTORE PUSH1 0x44 CALLDATALOAD SWAP3 DUP3 DUP5 AND DUP5 SUB PUSH2 0x349 JUMPI PUSH1 0x40 DUP3 ADD SWAP4 DUP5 MSTORE PUSH1 0x64 CALLDATALOAD DUP4 DUP2 AND DUP2 SUB PUSH2 0x349 JUMPI PUSH1 0x60 DUP4 ADD SWAP1 DUP2 MSTORE PUSH1 0x84 CALLDATALOAD SWAP1 DUP5 DUP3 AND DUP3 SUB PUSH2 0x349 JUMPI PUSH1 0x80 DUP5 ADD SWAP2 DUP3 MSTORE PUSH2 0x24D PUSH2 0x1D7F JUMP JUMPDEST PUSH1 0x64 DUP6 PUSH2 0x288 PUSH2 0x27E PUSH2 0x274 PUSH2 0x26A DUP5 DUP11 MLOAD AND DUP6 DUP11 MLOAD AND SWAP1 PUSH2 0x214F JUMP JUMPDEST DUP5 DUP13 MLOAD AND SWAP1 PUSH2 0x214F JUMP JUMPDEST DUP4 DUP7 MLOAD AND SWAP1 PUSH2 0x214F JUMP JUMPDEST DUP3 DUP7 MLOAD AND SWAP1 PUSH2 0x214F JUMP JUMPDEST AND SUB PUSH2 0x304 JUMPI PUSH32 0x90565F56924446477768885E9B20CF4CB9D2183F2AD4313F3E90F1DCAEDCC0AE SWAP6 PUSH1 0xA0 SWAP6 DUP6 MLOAD AND PUSH5 0xFF00000000 PUSH4 0xFF000000 PUSH3 0xFF0000 PUSH2 0xFF00 PUSH1 0x6 SLOAD SWAP9 MLOAD PUSH1 0x8 SHL AND SWAP5 MLOAD PUSH1 0x10 SHL AND SWAP5 MLOAD PUSH1 0x18 SHL AND SWAP5 MLOAD PUSH1 0x20 SHL AND SWAP5 PUSH5 0xFFFFFFFFFF NOT AND OR OR OR OR OR PUSH1 0x6 SSTORE PUSH2 0x301 PUSH1 0x40 MLOAD DUP1 SWAP3 PUSH2 0x1D47 JUMP JUMPDEST LOG1 STOP JUMPDEST PUSH1 0x40 MLOAD PUSH3 0x461BCD PUSH1 0xE5 SHL DUP2 MSTORE PUSH1 0x20 PUSH1 0x4 DUP3 ADD MSTORE PUSH1 0x17 PUSH1 0x24 DUP3 ADD MSTORE PUSH32 0x57656967687473206D7573742073756D20746F20313030000000000000000000 PUSH1 0x44 DUP3 ADD MSTORE PUSH1 0x64 SWAP1 REVERT JUMPDEST PUSH0 DUP1 REVERT JUMPDEST CALLVALUE PUSH2 0x349 JUMPI PUSH0 CALLDATASIZE PUSH1 0x3 NOT ADD SLT PUSH2 0x349 JUMPI PUSH2 0x365 PUSH2 0x23FF JUMP JUMPDEST PUSH1 0x40 MLOAD DUP1 SWAP2 PUSH1 0x20 DUP1 DUP4 ADD DUP2 DUP5 MSTORE DUP3 MLOAD DUP1 SWAP2 MSTORE DUP2 PUSH1 0x40 DUP6 ADD SWAP4 ADD SWAP2 PUSH0 JUMPDEST DUP3 DUP2 LT PUSH2 0x390 JUMPI POP POP POP POP SUB SWAP1 RETURN JUMPDEST DUP4 MLOAD DUP6 MSTORE DUP7 SWAP6 POP SWAP4 DUP2 ADD SWAP4 SWAP3 DUP2 ADD SWAP3 PUSH1 0x1 ADD PUSH2 0x381 JUMP JUMPDEST CALLVALUE PUSH2 0x349 JUMPI PUSH0 CALLDATASIZE PUSH1 0x3 NOT ADD SLT PUSH2 0x349 JUMPI PUSH1 0x20 PUSH1 0x40 MLOAD PUSH32 0xEDE9DCDB0CE99DC7CEC9C7BE9246AD08B37853683AD91569C187B647DDF5E21C DUP2 MSTORE RETURN JUMPDEST CALLVALUE PUSH2 0x349 JUMPI PUSH1 0x20 DUP1 PUSH1 0x3 NOT CALLDATASIZE ADD SLT PUSH2 0x349 JUMPI PUSH1 0x4 CALLDATALOAD PUSH1 0x40 MLOAD PUSH2 0x402 DUP2 PUSH2 0x1BC8 JUMP JUMPDEST PUSH0 DUP2 MSTORE PUSH0 DUP4 DUP3 ADD MSTORE PUSH1 0x60 PUSH1 0x40 DUP3 ADD MSTORE PUSH1 0x60 DUP1 DUP3 ADD MSTORE PUSH0 PUSH1 0x80 DUP3 ADD MSTORE PUSH0 PUSH1 0xA0 DUP3 ADD MSTORE PUSH0 PUSH1 0xC0 DUP3 ADD MSTORE PUSH1 0xE0 PUSH2 0x433 PUSH2 0x22E7 JUMP JUMPDEST SWAP2 ADD MSTORE PUSH2 0x441 DUP2 ISZERO ISZERO PUSH2 0x20B5 JUMP JUMPDEST DUP1 PUSH0 MSTORE PUSH1 0x3 DUP3 MSTORE PUSH2 0x45E PUSH1 0xFF PUSH1 0x5 PUSH1 0x40 PUSH0 KECCAK256 ADD SLOAD PUSH1 0xA0 SHR AND PUSH2 0x2203 JUMP JUMPDEST PUSH0 MSTORE PUSH1 0x3 DUP2 MSTORE PUSH1 0x40 PUSH0 KECCAK256 SWAP1 PUSH1 0x40 MLOAD SWAP2 PUSH2 0x476 DUP4 PUSH2 0x1BC8 JUMP JUMPDEST DUP1 SLOAD DUP4 MSTORE PUSH2 0x559 PUSH1 0x1 DUP3 ADD SLOAD DUP4 DUP6 ADD SWAP1 DUP2 MSTORE PUSH2 0x494 PUSH1 0x2 DUP5 ADD PUSH2 0x2246 JUMP JUMPDEST PUSH1 0x40 DUP7 ADD SWAP1 DUP2 MSTORE DUP6 PUSH2 0x4A8 PUSH1 0x3 DUP7 ADD PUSH2 0x2246 JUMP JUMPDEST SWAP5 PUSH1 0x60 DUP3 ADD SWAP6 DUP7 MSTORE PUSH2 0x537 PUSH1 0x4 DUP3 ADD SLOAD SWAP7 PUSH1 0x80 DUP5 ADD SWAP8 DUP9 MSTORE PUSH2 0x524 PUSH1 0x5 DUP5 ADD SLOAD SWAP6 PUSH2 0x4F4 PUSH1 0x6 PUSH1 0xA0 DUP9 ADD SWAP7 PUSH1 0xFF PUSH1 0xC0 PUSH1 0x1 DUP1 PUSH1 0xA0 SHL SUB SWAP11 DUP12 DUP14 AND DUP12 MSTORE ADD SWAP11 PUSH1 0xA0 SHR AND ISZERO ISZERO DUP11 MSTORE ADD PUSH2 0x2311 JUMP JUMPDEST SWAP8 PUSH1 0xE0 DUP14 ADD SWAP9 DUP10 MSTORE DUP12 PUSH1 0x40 MLOAD SWAP14 DUP15 SWAP14 DUP15 MSTORE MLOAD SWAP1 DUP14 ADD MSTORE MLOAD PUSH1 0x40 DUP13 ADD MSTORE MLOAD PUSH2 0x180 PUSH1 0x60 DUP13 ADD MSTORE PUSH2 0x1A0 DUP12 ADD SWAP1 PUSH2 0x1BA3 JUMP JUMPDEST SWAP1 MLOAD DUP10 DUP3 SUB PUSH1 0x1F NOT ADD PUSH1 0x80 DUP12 ADD MSTORE PUSH2 0x1BA3 JUMP JUMPDEST SWAP6 MLOAD PUSH1 0xA0 DUP9 ADD MSTORE MLOAD AND PUSH1 0xC0 DUP7 ADD MSTORE MLOAD ISZERO ISZERO PUSH1 0xE0 DUP6 ADD MSTORE MLOAD PUSH2 0x100 DUP5 ADD SWAP1 PUSH2 0x1D47 JUMP JUMPDEST SUB SWAP1 RETURN JUMPDEST CALLVALUE PUSH2 0x349 JUMPI PUSH1 0x40 CALLDATASIZE PUSH1 0x3 NOT ADD SLT PUSH2 0x349 JUMPI PUSH2 0x576 PUSH2 0x1C8B JUMP JUMPDEST PUSH2 0x57E PUSH2 0x1D38 JUMP JUMPDEST PUSH2 0x586 PUSH2 0x1D7F JUMP JUMPDEST PUSH1 0x1 PUSH1 0x1 PUSH1 0xA0 SHL SUB DUP3 AND SWAP2 DUP3 ISZERO PUSH2 0x64D JUMPI PUSH32 0x82A8FB1E779EA45AD427CC612E47087F5386A567E49DCE488185E40646FA48D5 SWAP2 PUSH1 0x20 SWAP2 DUP5 PUSH0 MSTORE PUSH1 0x4 DUP4 MSTORE PUSH2 0x5DC DUP3 PUSH1 0x40 PUSH0 KECCAK256 SWAP1 PUSH1 0xFF DUP1 NOT DUP4 SLOAD AND SWAP2 ISZERO ISZERO AND OR SWAP1 SSTORE JUMP JUMPDEST DUP2 ISZERO PUSH2 0x61B JUMPI PUSH2 0x60E SWAP1 PUSH0 DUP1 MLOAD PUSH1 0x20 PUSH2 0x2529 DUP4 CODECOPY DUP2 MLOAD SWAP2 MSTORE PUSH0 MSTORE PUSH0 DUP5 MSTORE PUSH2 0x609 PUSH1 0x1 PUSH1 0x40 PUSH0 KECCAK256 ADD SLOAD PUSH2 0x1E31 JUMP JUMPDEST PUSH2 0x1E52 JUMP JUMPDEST POP JUMPDEST PUSH1 0x40 MLOAD SWAP1 ISZERO ISZERO DUP2 MSTORE LOG2 STOP JUMPDEST PUSH2 0x647 SWAP1 PUSH0 DUP1 MLOAD PUSH1 0x20 PUSH2 0x2529 DUP4 CODECOPY DUP2 MLOAD SWAP2 MSTORE PUSH0 MSTORE PUSH0 DUP5 MSTORE PUSH2 0x642 PUSH1 0x1 PUSH1 0x40 PUSH0 KECCAK256 ADD SLOAD PUSH2 0x1E31 JUMP JUMPDEST PUSH2 0x1F67 JUMP JUMPDEST POP PUSH2 0x610 JUMP JUMPDEST PUSH1 0x40 MLOAD PUSH3 0x461BCD PUSH1 0xE5 SHL DUP2 MSTORE PUSH1 0x20 PUSH1 0x4 DUP3 ADD MSTORE PUSH1 0x16 PUSH1 0x24 DUP3 ADD MSTORE PUSH22 0x496E76616C6964206F7261636C652061646472657373 PUSH1 0x50 SHL PUSH1 0x44 DUP3 ADD MSTORE PUSH1 0x64 SWAP1 REVERT JUMPDEST CALLVALUE PUSH2 0x349 JUMPI PUSH1 0x40 CALLDATASIZE PUSH1 0x3 NOT ADD SLT PUSH2 0x349 JUMPI PUSH2 0x6C7 PUSH1 0x4 CALLDATALOAD PUSH2 0x6AA PUSH2 0x1C75 JUMP JUMPDEST SWAP1 DUP1 PUSH0 MSTORE PUSH0 PUSH1 0x20 MSTORE PUSH2 0x6C2 PUSH1 0x1 PUSH1 0x40 PUSH0 KECCAK256 ADD SLOAD PUSH2 0x1E31 JUMP JUMPDEST PUSH2 0x1FFE JUMP JUMPDEST STOP JUMPDEST CALLVALUE PUSH2 0x349 JUMPI PUSH1 0x20 CALLDATASIZE PUSH1 0x3 NOT ADD SLT PUSH2 0x349 JUMPI PUSH1 0x4 CALLDATALOAD PUSH2 0x6E5 PUSH2 0x22E7 JUMP JUMPDEST POP PUSH2 0x6F1 DUP2 ISZERO ISZERO PUSH2 0x20B5 JUMP JUMPDEST DUP1 PUSH0 MSTORE PUSH1 0x3 PUSH1 0x20 MSTORE PUSH2 0x70F PUSH1 0xFF PUSH1 0x5 PUSH1 0x40 PUSH0 KECCAK256 ADD SLOAD PUSH1 0xA0 SHR AND PUSH2 0x2203 JUMP JUMPDEST PUSH0 MSTORE PUSH1 0x3 PUSH1 0x20 MSTORE PUSH1 0xA0 PUSH2 0x727 PUSH1 0x6 PUSH1 0x40 PUSH0 KECCAK256 ADD PUSH2 0x2311 JUMP JUMPDEST PUSH2 0x734 PUSH1 0x40 MLOAD DUP1 SWAP3 PUSH2 0x1D47 JUMP JUMPDEST RETURN JUMPDEST CALLVALUE PUSH2 0x349 JUMPI PUSH1 0x20 CALLDATASIZE PUSH1 0x3 NOT ADD SLT PUSH2 0x349 JUMPI PUSH1 0x1 PUSH1 0x1 PUSH1 0xA0 SHL SUB PUSH2 0x757 PUSH2 0x1C8B JUMP JUMPDEST AND PUSH0 MSTORE PUSH1 0x8 PUSH1 0x20 MSTORE PUSH1 0x40 DUP1 PUSH0 KECCAK256 SLOAD PUSH1 0x4 PUSH1 0x20 MSTORE PUSH1 0xFF DUP3 PUSH0 KECCAK256 SLOAD AND DUP3 MLOAD SWAP2 DUP3 MSTORE ISZERO ISZERO PUSH1 0x20 DUP3 ADD MSTORE RETURN JUMPDEST CALLVALUE PUSH2 0x349 JUMPI PUSH0 CALLDATASIZE PUSH1 0x3 NOT ADD SLT PUSH2 0x349 JUMPI PUSH1 0x20 PUSH1 0x40 MLOAD PUSH0 DUP1 MLOAD PUSH1 0x20 PUSH2 0x2529 DUP4 CODECOPY DUP2 MLOAD SWAP2 MSTORE DUP2 MSTORE RETURN JUMPDEST CALLVALUE PUSH2 0x349 JUMPI PUSH0 CALLDATASIZE PUSH1 0x3 NOT ADD SLT PUSH2 0x349 JUMPI PUSH1 0x20 PUSH1 0x40 MLOAD PUSH32 0x7B8BB8356A3F32F5C111FF23F050D97F08988E0883529EA7BFF3B918887A6E0E DUP2 MSTORE RETURN JUMPDEST CALLVALUE PUSH2 0x349 JUMPI PUSH1 0x40 CALLDATASIZE PUSH1 0x3 NOT ADD SLT PUSH2 0x349 JUMPI PUSH1 0x4 CALLDATALOAD PUSH1 0x1 PUSH1 0x1 PUSH1 0x40 SHL SUB DUP2 GT PUSH2 0x349 JUMPI PUSH2 0x810 SWAP1 CALLDATASIZE SWAP1 PUSH1 0x4 ADD PUSH2 0x1C20 JUMP JUMPDEST PUSH2 0x818 PUSH2 0x1D38 JUMP JUMPDEST PUSH2 0x820 PUSH2 0x1D7F JUMP JUMPDEST DUP2 MLOAD ISZERO PUSH2 0x8A2 JUMPI PUSH32 0x2E5180543742ECE2DB44ED70B2619F2BF555A29A7BDEAD994736174F0D90A9B6 SWAP2 DUP2 PUSH2 0x881 PUSH2 0x895 SWAP4 PUSH1 0x40 MLOAD PUSH1 0x20 DUP2 DUP7 MLOAD PUSH2 0x866 DUP2 DUP4 DUP6 DUP12 ADD PUSH2 0x1B82 JUMP JUMPDEST DUP2 ADD PUSH1 0x5 DUP2 MSTORE SUB ADD SWAP1 KECCAK256 SWAP1 PUSH1 0xFF DUP1 NOT DUP4 SLOAD AND SWAP2 ISZERO ISZERO AND OR SWAP1 SSTORE JUMP JUMPDEST PUSH1 0x40 MLOAD SWAP3 DUP4 SWAP3 PUSH1 0x40 DUP5 MSTORE PUSH1 0x40 DUP5 ADD SWAP1 PUSH2 0x1BA3 JUMP JUMPDEST SWAP1 ISZERO ISZERO PUSH1 0x20 DUP4 ADD MSTORE SUB SWAP1 LOG1 STOP JUMPDEST PUSH1 0x40 MLOAD PUSH3 0x461BCD PUSH1 0xE5 SHL DUP2 MSTORE PUSH1 0x20 PUSH1 0x4 DUP3 ADD MSTORE PUSH1 0x15 PUSH1 0x24 DUP3 ADD MSTORE PUSH21 0x24B73B30B634B21036B7B232B6103B32B939B4B7B7 PUSH1 0x59 SHL PUSH1 0x44 DUP3 ADD MSTORE PUSH1 0x64 SWAP1 REVERT JUMPDEST CALLVALUE PUSH2 0x349 JUMPI PUSH1 0x40 CALLDATASIZE PUSH1 0x3 NOT ADD SLT PUSH2 0x349 JUMPI PUSH1 0x4 CALLDATALOAD PUSH1 0x24 CALLDATALOAD PUSH1 0x1 PUSH1 0x1 PUSH1 0x40 SHL SUB DUP2 GT PUSH2 0x349 JUMPI PUSH2 0x912 SWAP1 CALLDATASIZE SWAP1 PUSH1 0x4 ADD PUSH2 0x1C20 JUMP JUMPDEST PUSH2 0x91A PUSH2 0x1DF8 JUMP JUMPDEST DUP2 PUSH0 MSTORE PUSH1 0x3 PUSH1 0x20 MSTORE PUSH2 0x938 PUSH1 0xFF PUSH1 0x5 PUSH1 0x40 PUSH0 KECCAK256 ADD SLOAD PUSH1 0xA0 SHR AND PUSH2 0x2203 JUMP JUMPDEST DUP1 MLOAD ISZERO PUSH2 0x9E5 JUMPI DUP2 PUSH0 MSTORE PUSH1 0x3 PUSH1 0x20 MSTORE PUSH0 PUSH1 0x6 PUSH1 0x40 DUP3 KECCAK256 DUP3 DUP2 SSTORE DUP3 PUSH1 0x1 DUP3 ADD SSTORE PUSH2 0x963 PUSH1 0x2 DUP3 ADD PUSH2 0x2354 JUMP JUMPDEST PUSH2 0x96F PUSH1 0x3 DUP3 ADD PUSH2 0x2354 JUMP JUMPDEST DUP3 PUSH1 0x4 DUP3 ADD SSTORE DUP3 PUSH1 0x5 DUP3 ADD SSTORE ADD SSTORE PUSH1 0x7 SLOAD DUP1 ISZERO PUSH2 0x9D1 JUMPI PUSH32 0xD3E8DBBE8FF60A1FAE1E5F88E71F27270ED38BADC7B26E19922ED94FD12F5FE9 SWAP2 PUSH2 0x9CC SWAP2 PUSH0 NOT ADD PUSH1 0x7 SSTORE PUSH1 0x40 MLOAD SWAP2 DUP3 SWAP2 PUSH0 DUP4 MSTORE PUSH1 0x40 PUSH1 0x20 DUP5 ADD MSTORE PUSH1 0x40 DUP4 ADD SWAP1 PUSH2 0x1BA3 JUMP JUMPDEST SUB SWAP1 LOG2 STOP JUMPDEST PUSH4 0x4E487B71 PUSH1 0xE0 SHL PUSH0 MSTORE PUSH1 0x11 PUSH1 0x4 MSTORE PUSH1 0x24 PUSH0 REVERT JUMPDEST PUSH1 0x40 MLOAD PUSH3 0x461BCD PUSH1 0xE5 SHL DUP2 MSTORE PUSH1 0x20 PUSH1 0x4 DUP3 ADD MSTORE PUSH1 0xF PUSH1 0x24 DUP3 ADD MSTORE PUSH15 0x1499585CDBDB881C995C5D5A5C9959 PUSH1 0x8A SHL PUSH1 0x44 DUP3 ADD MSTORE PUSH1 0x64 SWAP1 REVERT JUMPDEST CALLVALUE PUSH2 0x349 JUMPI PUSH1 0x20 CALLDATASIZE PUSH1 0x3 NOT ADD SLT PUSH2 0x349 JUMPI PUSH2 0xA35 PUSH2 0x1C8B JUMP JUMPDEST PUSH2 0xA3D PUSH2 0x23FF JUMP JUMPDEST PUSH0 SWAP2 PUSH0 JUMPDEST DUP3 MLOAD DUP2 LT ISZERO PUSH2 0xAA4 JUMPI PUSH2 0xA7C DUP3 PUSH2 0xA58 DUP4 DUP7 PUSH2 0x239C JUMP JUMPDEST MLOAD PUSH0 MSTORE PUSH0 PUSH1 0x20 MSTORE PUSH1 0x40 PUSH0 KECCAK256 SWAP1 PUSH1 0x1 DUP1 PUSH1 0xA0 SHL SUB AND PUSH0 MSTORE PUSH1 0x20 MSTORE PUSH1 0xFF PUSH1 0x40 PUSH0 KECCAK256 SLOAD AND SWAP1 JUMP JUMPDEST PUSH2 0xA8F JUMPI JUMPDEST PUSH2 0xA8A SWAP1 PUSH2 0x21B1 JUMP JUMPDEST PUSH2 0xA41 JUMP JUMPDEST SWAP3 PUSH2 0xA9C PUSH2 0xA8A SWAP2 PUSH2 0x21B1 JUMP JUMPDEST SWAP4 SWAP1 POP PUSH2 0xA81 JUMP JUMPDEST PUSH1 0x20 DUP5 PUSH1 0x40 MLOAD SWAP1 DUP2 MSTORE RETURN JUMPDEST CALLVALUE PUSH2 0x349 JUMPI PUSH0 CALLDATASIZE PUSH1 0x3 NOT ADD SLT PUSH2 0x349 JUMPI PUSH1 0x20 PUSH1 0x40 MLOAD PUSH3 0x278D00 DUP2 MSTORE RETURN JUMPDEST CALLVALUE PUSH2 0x349 JUMPI PUSH0 CALLDATASIZE PUSH1 0x3 NOT ADD SLT PUSH2 0x349 JUMPI PUSH1 0x20 PUSH1 0x40 MLOAD PUSH0 DUP2 MSTORE RETURN JUMPDEST CALLVALUE PUSH2 0x349 JUMPI PUSH0 CALLDATASIZE PUSH1 0x3 NOT ADD SLT PUSH2 0x349 JUMPI PUSH1 0x20 PUSH1 0x40 MLOAD PUSH32 0x58223CDFB69946630D837D40B5C366A584F0217ADA7FDDD8318F2E08603CFA22 DUP2 MSTORE RETURN JUMPDEST CALLVALUE PUSH2 0x349 JUMPI PUSH1 0x20 CALLDATASIZE PUSH1 0x3 NOT ADD SLT PUSH2 0x349 JUMPI PUSH1 0x4 CALLDATALOAD PUSH2 0xB3F DUP2 ISZERO ISZERO PUSH2 0x20B5 JUMP JUMPDEST PUSH0 MSTORE PUSH1 0x3 PUSH1 0x20 MSTORE PUSH1 0x20 PUSH1 0xFF PUSH1 0x5 PUSH1 0x40 PUSH0 KECCAK256 ADD SLOAD PUSH1 0xA0 SHR AND PUSH1 0x40 MLOAD SWAP1 ISZERO ISZERO DUP2 MSTORE RETURN JUMPDEST CALLVALUE PUSH2 0x349 JUMPI PUSH1 0x40 CALLDATASIZE PUSH1 0x3 NOT ADD SLT PUSH2 0x349 JUMPI PUSH2 0xB79 PUSH2 0x1C75 JUMP JUMPDEST PUSH1 0x4 CALLDATALOAD PUSH0 MSTORE PUSH0 PUSH1 0x20 MSTORE PUSH1 0x40 PUSH0 KECCAK256 SWAP1 PUSH1 0x1 DUP1 PUSH1 0xA0 SHL SUB AND PUSH0 MSTORE PUSH1 0x20 MSTORE PUSH1 0x20 PUSH1 0xFF PUSH1 0x40 PUSH0 KECCAK256 SLOAD AND PUSH1 0x40 MLOAD SWAP1 ISZERO ISZERO DUP2 MSTORE RETURN JUMPDEST CALLVALUE PUSH2 0x349 JUMPI PUSH2 0xBB6 CALLDATASIZE PUSH2 0x1CA1 JUMP JUMPDEST PUSH2 0xBBE PUSH2 0x1DF8 JUMP JUMPDEST PUSH0 JUMPDEST DUP2 MLOAD DUP2 LT ISZERO PUSH2 0x6C7 JUMPI DUP1 PUSH2 0xBF8 DUP5 PUSH2 0xBDB PUSH2 0xBFE SWAP5 DUP7 PUSH2 0x239C JUMP JUMPDEST MLOAD DUP1 PUSH0 MSTORE PUSH0 PUSH1 0x20 MSTORE PUSH2 0xBF3 PUSH1 0x1 PUSH1 0x40 PUSH0 KECCAK256 ADD SLOAD PUSH2 0x1E31 JUMP JUMPDEST PUSH2 0x1EF0 JUMP JUMPDEST POP PUSH2 0x21B1 JUMP JUMPDEST PUSH2 0xBC0 JUMP JUMPDEST CALLVALUE PUSH2 0x349 JUMPI PUSH0 CALLDATASIZE PUSH1 0x3 NOT ADD SLT PUSH2 0x349 JUMPI PUSH2 0xC1B PUSH2 0x1D7F JUMP JUMPDEST PUSH2 0xC23 PUSH2 0x21BF JUMP JUMPDEST PUSH1 0x1 PUSH1 0xFF NOT DUP2 SLOAD AND OR PUSH1 0x1 SSTORE PUSH32 0x62E78CEA01BEE320CD4E420270B5EA74000D11B0C9F74754EBDBFC544B05A258 PUSH1 0x20 PUSH1 0x40 MLOAD CALLER DUP2 MSTORE LOG1 STOP JUMPDEST CALLVALUE PUSH2 0x349 JUMPI PUSH0 CALLDATASIZE PUSH1 0x3 NOT ADD SLT PUSH2 0x349 JUMPI PUSH1 0x20 PUSH1 0x40 MLOAD PUSH32 0xA49807205CE4D355092EF5A8A18F56E8913CF4A201FBE287825B095693C21775 DUP2 MSTORE RETURN JUMPDEST CALLVALUE PUSH2 0x349 JUMPI PUSH1 0x20 CALLDATASIZE PUSH1 0x3 NOT ADD SLT PUSH2 0x349 JUMPI PUSH1 0x1 PUSH1 0x1 PUSH1 0xA0 SHL SUB PUSH2 0xCB6 PUSH2 0x1C8B JUMP JUMPDEST AND PUSH0 MSTORE PUSH1 0x8 PUSH1 0x20 MSTORE PUSH1 0x20 PUSH1 0x40 PUSH0 KECCAK256 SLOAD PUSH1 0x40 MLOAD SWAP1 DUP2 MSTORE RETURN JUMPDEST CALLVALUE PUSH2 0x349 JUMPI PUSH2 0x120 CALLDATASIZE PUSH1 0x3 NOT ADD SLT PUSH2 0x349 JUMPI PUSH1 0x44 DUP1 CALLDATALOAD PUSH1 0x1 PUSH1 0x1 PUSH1 0x40 SHL SUB DUP2 GT PUSH2 0x349 JUMPI PUSH2 0xCFF SWAP1 CALLDATASIZE SWAP1 PUSH1 0x4 ADD PUSH2 0x1C20 JUMP JUMPDEST PUSH1 0x64 CALLDATALOAD PUSH1 0x1 PUSH1 0x1 PUSH1 0x40 SHL SUB DUP2 GT PUSH2 0x349 JUMPI PUSH2 0xD1E SWAP1 CALLDATASIZE SWAP1 PUSH1 0x4 ADD PUSH2 0x1C20 JUMP JUMPDEST PUSH1 0xA0 CALLDATASIZE PUSH1 0x83 NOT ADD SLT PUSH2 0x349 JUMPI PUSH1 0x40 MLOAD SWAP3 PUSH2 0xD37 DUP5 PUSH2 0x1BE4 JUMP JUMPDEST PUSH1 0x84 CALLDATALOAD PUSH1 0xFF DUP2 AND DUP2 SUB PUSH2 0x349 JUMPI DUP5 MSTORE PUSH1 0xA4 CALLDATALOAD PUSH1 0xFF DUP2 AND DUP2 SUB PUSH2 0x349 JUMPI PUSH1 0x20 DUP6 ADD MSTORE PUSH1 0xC4 CALLDATALOAD PUSH1 0xFF DUP2 AND DUP2 SUB PUSH2 0x349 JUMPI PUSH1 0x40 DUP6 ADD MSTORE PUSH1 0xE4 CALLDATALOAD PUSH1 0xFF DUP2 AND DUP2 SUB PUSH2 0x349 JUMPI PUSH1 0x60 DUP6 ADD MSTORE PUSH2 0x104 CALLDATALOAD PUSH1 0xFF DUP2 AND DUP2 SUB PUSH2 0x349 JUMPI PUSH1 0x80 DUP6 ADD MSTORE CALLER PUSH0 MSTORE PUSH1 0x4 PUSH1 0x20 MSTORE PUSH2 0xDA7 PUSH1 0xFF PUSH1 0x40 PUSH0 KECCAK256 SLOAD AND PUSH2 0x2071 JUMP JUMPDEST PUSH2 0xDB4 PUSH1 0x4 CALLDATALOAD ISZERO ISZERO PUSH2 0x20B5 JUMP JUMPDEST PUSH2 0xDC3 PUSH1 0x64 PUSH1 0x24 CALLDATALOAD GT ISZERO PUSH2 0x20F7 JUMP JUMPDEST PUSH2 0xDCB PUSH2 0x21BF JUMP JUMPDEST PUSH1 0x2 DUP1 SLOAD EQ PUSH2 0x1456 JUMPI PUSH1 0x2 DUP1 SSTORE DUP3 MLOAD ISZERO PUSH2 0x1412 JUMPI PUSH1 0xFF PUSH1 0x40 MLOAD PUSH1 0x20 DUP2 DUP6 MLOAD PUSH2 0xDF6 DUP2 DUP4 DUP6 DUP11 ADD PUSH2 0x1B82 JUMP JUMPDEST DUP2 ADD PUSH1 0x5 DUP2 MSTORE SUB ADD SWAP1 KECCAK256 SLOAD AND ISZERO PUSH2 0x13D7 JUMPI PUSH1 0x4 CALLDATALOAD PUSH0 MSTORE PUSH1 0x3 PUSH1 0x20 MSTORE PUSH1 0xFF PUSH1 0x5 PUSH1 0x40 PUSH0 KECCAK256 ADD SLOAD PUSH1 0xA0 SHR AND PUSH2 0x139C JUMPI PUSH1 0x64 PUSH1 0xFF DUP6 MLOAD AND GT ISZERO DUP1 PUSH2 0x138A JUMPI JUMPDEST DUP1 PUSH2 0x1378 JUMPI JUMPDEST DUP1 PUSH2 0x1366 JUMPI JUMPDEST DUP1 PUSH2 0x1354 JUMPI JUMPDEST ISZERO PUSH2 0x1310 JUMPI PUSH1 0xFF PUSH1 0x64 DUP2 PUSH2 0xECE DUP2 DUP9 MLOAD AND PUSH2 0xE8E PUSH2 0xEBA DUP11 PUSH2 0xE8E DUP7 PUSH1 0x60 PUSH2 0xEAA PUSH2 0xE94 PUSH2 0xE78 PUSH1 0x6 SLOAD SWAP10 DUP6 DUP12 AND SWAP1 PUSH2 0x2138 JUMP JUMPDEST PUSH2 0xE8E DUP6 PUSH1 0x20 DUP10 ADD MLOAD AND DUP7 DUP13 PUSH1 0x8 SHR AND SWAP1 PUSH2 0x2138 JUMP JUMPDEST SWAP1 PUSH2 0x214F JUMP JUMPDEST PUSH2 0xE8E DUP5 PUSH1 0x40 DUP9 ADD MLOAD AND DUP6 DUP12 PUSH1 0x10 SHR AND SWAP1 PUSH2 0x2138 JUMP JUMPDEST SWAP4 ADD MLOAD AND DUP8 DUP7 PUSH1 0x18 SHR AND SWAP1 PUSH2 0x2138 JUMP JUMPDEST SWAP2 DUP5 DUP1 PUSH1 0x80 DUP14 ADD MLOAD AND SWAP2 PUSH1 0x20 SHR AND SWAP1 PUSH2 0x2138 JUMP JUMPDEST AND DIV AND PUSH1 0x4 NOT DUP2 ADD DUP2 DUP2 GT PUSH2 0x9D1 JUMPI PUSH1 0x24 CALLDATALOAD LT ISZERO SWAP1 DUP2 PUSH2 0x12F8 JUMPI JUMPDEST POP ISZERO PUSH2 0x12AA JUMPI POP PUSH1 0x40 MLOAD SWAP3 PUSH2 0xEFD DUP5 PUSH2 0x1BC8 JUMP JUMPDEST PUSH1 0x4 CALLDATALOAD DUP5 MSTORE PUSH1 0x24 CALLDATALOAD PUSH1 0x20 DUP6 ADD MSTORE DUP3 PUSH1 0x40 DUP6 ADD MSTORE DUP2 PUSH1 0x60 DUP6 ADD MSTORE TIMESTAMP PUSH1 0x80 DUP6 ADD MSTORE CALLER PUSH1 0xA0 DUP6 ADD MSTORE PUSH1 0x1 PUSH1 0xC0 DUP6 ADD MSTORE PUSH1 0xE0 DUP5 ADD MSTORE PUSH1 0x4 CALLDATALOAD PUSH0 MSTORE PUSH1 0x3 PUSH1 0x20 MSTORE PUSH1 0x40 PUSH0 KECCAK256 SWAP3 DUP1 MLOAD DUP5 SSTORE PUSH1 0x20 DUP2 ADD MLOAD PUSH1 0x1 DUP6 ADD SSTORE PUSH1 0x40 DUP2 ADD MLOAD DUP1 MLOAD SWAP1 PUSH1 0x1 PUSH1 0x1 PUSH1 0x40 SHL SUB DUP3 GT PUSH2 0x11EA JUMPI DUP2 SWAP1 PUSH2 0xF70 PUSH1 0x2 DUP9 ADD SLOAD PUSH2 0x2163 JUMP JUMPDEST PUSH1 0x1F DUP2 GT PUSH2 0x1277 JUMPI JUMPDEST POP PUSH1 0x20 SWAP1 PUSH1 0x1F DUP4 GT PUSH1 0x1 EQ PUSH2 0x1209 JUMPI PUSH0 SWAP3 PUSH2 0x11FE JUMPI JUMPDEST POP POP DUP2 PUSH1 0x1 SHL SWAP2 PUSH0 NOT SWAP1 PUSH1 0x3 SHL SHR NOT AND OR PUSH1 0x2 DUP6 ADD SSTORE JUMPDEST PUSH1 0x60 DUP2 ADD MLOAD DUP1 MLOAD SWAP1 PUSH1 0x1 PUSH1 0x1 PUSH1 0x40 SHL SUB DUP3 GT PUSH2 0x11EA JUMPI PUSH2 0xFC9 PUSH1 0x3 DUP8 ADD SLOAD PUSH2 0x2163 JUMP JUMPDEST PUSH1 0x1F DUP2 GT PUSH2 0x11AC JUMPI JUMPDEST POP PUSH1 0x20 SWAP1 PUSH1 0x1F DUP4 GT PUSH1 0x1 EQ PUSH2 0x1137 JUMPI SWAP6 DUP3 PUSH1 0xE0 SWAP4 PUSH1 0x6 SWAP4 PUSH2 0x10F4 SWAP9 SWAP10 PUSH0 SWAP3 PUSH2 0x112C JUMPI JUMPDEST POP POP DUP2 PUSH1 0x1 SHL SWAP2 PUSH0 NOT SWAP1 PUSH1 0x3 SHL SHR NOT AND OR PUSH1 0x3 DUP3 ADD SSTORE JUMPDEST PUSH1 0x80 DUP5 ADD MLOAD PUSH1 0x4 DUP3 ADD SSTORE PUSH1 0x5 DUP2 ADD PUSH1 0x1 DUP1 PUSH1 0xA0 SHL SUB PUSH1 0xA0 DUP7 ADD MLOAD AND DUP2 SLOAD SWAP1 PUSH1 0xFF PUSH1 0xA0 SHL PUSH1 0xC0 DUP9 ADD MLOAD ISZERO ISZERO PUSH1 0xA0 SHL AND SWAP2 PUSH11 0xFFFFFFFFFFFFFFFFFFFFFF PUSH1 0xA8 SHL AND OR OR SWAP1 SSTORE ADD SWAP2 ADD MLOAD PUSH1 0xFF DUP2 MLOAD AND SWAP1 DUP3 SLOAD SWAP2 PUSH2 0xFF00 PUSH1 0x20 DUP4 ADD MLOAD PUSH1 0x8 SHL AND PUSH3 0xFF0000 PUSH1 0x40 DUP5 ADD MLOAD PUSH1 0x10 SHL AND SWAP2 PUSH5 0xFF00000000 PUSH1 0x80 PUSH4 0xFF000000 PUSH1 0x60 DUP8 ADD MLOAD PUSH1 0x18 SHL AND SWAP6 ADD MLOAD PUSH1 0x20 SHL AND SWAP5 PUSH5 0xFFFFFFFFFF NOT AND OR OR OR OR OR SWAP1 SSTORE PUSH2 0x10AE PUSH1 0x7 SLOAD PUSH2 0x21B1 JUMP JUMPDEST PUSH1 0x7 SSTORE CALLER PUSH0 MSTORE PUSH1 0x8 PUSH1 0x20 MSTORE PUSH1 0x40 PUSH0 KECCAK256 PUSH2 0x10C7 DUP2 SLOAD PUSH2 0x21B1 JUMP JUMPDEST SWAP1 SSTORE PUSH2 0x10E6 PUSH1 0x40 MLOAD SWAP4 PUSH1 0x24 CALLDATALOAD DUP6 MSTORE PUSH1 0x80 PUSH1 0x20 DUP7 ADD MSTORE PUSH1 0x80 DUP6 ADD SWAP1 PUSH2 0x1BA3 JUMP JUMPDEST SWAP1 DUP4 DUP3 SUB PUSH1 0x40 DUP6 ADD MSTORE PUSH2 0x1BA3 JUMP JUMPDEST TIMESTAMP PUSH1 0x60 DUP4 ADD MSTORE PUSH32 0x9E8AD66E4736435405704D301D344E9454F286D3FEEB2036B1ADC6F4900CCBC CALLER SWAP3 DUP1 PUSH1 0x4 CALLDATALOAD SWAP4 SUB SWAP1 LOG3 PUSH1 0x1 PUSH1 0x2 SSTORE STOP JUMPDEST ADD MLOAD SWAP1 POP DUP10 DUP1 PUSH2 0xFF5 JUMP JUMPDEST SWAP1 PUSH1 0x3 DUP8 ADD PUSH0 MSTORE PUSH1 0x20 PUSH0 KECCAK256 SWAP2 PUSH0 JUMPDEST PUSH1 0x1F NOT DUP6 AND DUP2 LT PUSH2 0x1194 JUMPI POP DUP4 PUSH1 0x6 SWAP4 PUSH2 0x10F4 SWAP9 SWAP10 SWAP4 PUSH1 0x1 SWAP4 PUSH1 0xE0 SWAP8 PUSH1 0x1F NOT DUP2 AND LT PUSH2 0x117C JUMPI JUMPDEST POP POP POP DUP2 SHL ADD PUSH1 0x3 DUP3 ADD SSTORE PUSH2 0x100C JUMP JUMPDEST ADD MLOAD PUSH0 NOT PUSH1 0xF8 DUP5 PUSH1 0x3 SHL AND SHR NOT AND SWAP1 SSTORE DUP10 DUP1 DUP1 PUSH2 0x116C JUMP JUMPDEST SWAP2 SWAP3 PUSH1 0x20 PUSH1 0x1 DUP2 SWAP3 DUP7 DUP6 ADD MLOAD DUP2 SSTORE ADD SWAP5 ADD SWAP3 ADD PUSH2 0x1145 JUMP JUMPDEST PUSH2 0x11DA SWAP1 PUSH1 0x3 DUP9 ADD PUSH0 MSTORE PUSH1 0x20 PUSH0 KECCAK256 PUSH1 0x1F DUP6 ADD PUSH1 0x5 SHR DUP2 ADD SWAP2 PUSH1 0x20 DUP7 LT PUSH2 0x11E0 JUMPI JUMPDEST PUSH1 0x1F ADD PUSH1 0x5 SHR ADD SWAP1 PUSH2 0x219B JUMP JUMPDEST DUP7 PUSH2 0xFD2 JUMP JUMPDEST SWAP1 SWAP2 POP DUP2 SWAP1 PUSH2 0x11CD JUMP JUMPDEST PUSH4 0x4E487B71 PUSH1 0xE0 SHL PUSH0 MSTORE PUSH1 0x41 PUSH1 0x4 MSTORE PUSH1 0x24 PUSH0 REVERT JUMPDEST ADD MLOAD SWAP1 POP DUP7 DUP1 PUSH2 0xF8F JUMP JUMPDEST SWAP3 POP PUSH1 0x2 DUP8 ADD PUSH0 MSTORE PUSH1 0x20 PUSH0 KECCAK256 SWAP1 PUSH0 SWAP4 JUMPDEST PUSH1 0x1F NOT DUP5 AND DUP6 LT PUSH2 0x125C JUMPI PUSH1 0x1 SWAP5 POP DUP4 PUSH1 0x1F NOT DUP2 AND LT PUSH2 0x1244 JUMPI JUMPDEST POP POP POP DUP2 SHL ADD PUSH1 0x2 DUP6 ADD SSTORE PUSH2 0xFA6 JUMP JUMPDEST ADD MLOAD PUSH0 NOT PUSH1 0xF8 DUP5 PUSH1 0x3 SHL AND SHR NOT AND SWAP1 SSTORE DUP7 DUP1 DUP1 PUSH2 0x1234 JUMP JUMPDEST DUP2 DUP2 ADD MLOAD DUP4 SSTORE PUSH1 0x20 SWAP5 DUP6 ADD SWAP5 PUSH1 0x1 SWAP1 SWAP4 ADD SWAP3 SWAP1 SWAP2 ADD SWAP1 PUSH2 0x1219 JUMP JUMPDEST PUSH2 0x12A4 SWAP1 PUSH1 0x2 DUP10 ADD PUSH0 MSTORE PUSH1 0x20 PUSH0 KECCAK256 PUSH1 0x1F DUP6 ADD PUSH1 0x5 SHR DUP2 ADD SWAP2 PUSH1 0x20 DUP7 LT PUSH2 0x11E0 JUMPI PUSH1 0x1F ADD PUSH1 0x5 SHR ADD SWAP1 PUSH2 0x219B JUMP JUMPDEST DUP8 PUSH2 0xF79 JUMP JUMPDEST PUSH1 0x84 SWAP1 PUSH32 0x53636F726520696E636F6E73697374656E74207769746820627265616B646F77 PUSH1 0x40 MLOAD SWAP2 PUSH3 0x461BCD PUSH1 0xE5 SHL DUP4 MSTORE PUSH1 0x20 PUSH1 0x4 DUP5 ADD MSTORE PUSH1 0x21 PUSH1 0x24 DUP5 ADD MSTORE DUP3 ADD MSTORE PUSH1 0x37 PUSH1 0xF9 SHL PUSH1 0x64 DUP3 ADD MSTORE REVERT JUMPDEST SWAP1 POP PUSH1 0x5 DUP2 ADD DUP1 SWAP2 GT PUSH2 0x9D1 JUMPI PUSH1 0x24 CALLDATALOAD GT ISZERO DUP6 PUSH2 0xEE9 JUMP JUMPDEST PUSH1 0x64 SWAP1 PUSH32 0x496E76616C696420627265616B646F776E2073636F7265730000000000000000 PUSH1 0x40 MLOAD SWAP2 PUSH3 0x461BCD PUSH1 0xE5 SHL DUP4 MSTORE PUSH1 0x20 PUSH1 0x4 DUP5 ADD MSTORE PUSH1 0x18 PUSH1 0x24 DUP5 ADD MSTORE DUP3 ADD MSTORE REVERT JUMPDEST POP PUSH1 0x64 PUSH1 0xFF PUSH1 0x80 DUP7 ADD MLOAD AND GT ISZERO PUSH2 0xE44 JUMP JUMPDEST POP PUSH1 0x64 PUSH1 0xFF PUSH1 0x60 DUP7 ADD MLOAD AND GT ISZERO PUSH2 0xE3E JUMP JUMPDEST POP PUSH1 0x64 PUSH1 0xFF PUSH1 0x40 DUP7 ADD MLOAD AND GT ISZERO PUSH2 0xE38 JUMP JUMPDEST POP PUSH1 0x64 PUSH1 0xFF PUSH1 0x20 DUP7 ADD MLOAD AND GT ISZERO PUSH2 0xE32 JUMP JUMPDEST PUSH1 0x64 SWAP1 PUSH20 0x53636F726520616C726561647920657869737473 PUSH1 0x60 SHL PUSH1 0x40 MLOAD SWAP2 PUSH3 0x461BCD PUSH1 0xE5 SHL DUP4 MSTORE PUSH1 0x20 PUSH1 0x4 DUP5 ADD MSTORE PUSH1 0x14 PUSH1 0x24 DUP5 ADD MSTORE DUP3 ADD MSTORE REVERT JUMPDEST PUSH1 0x64 SWAP1 PUSH20 0x155B9CDD5C1C1BDC9D1959081052481B5BD9195B PUSH1 0x62 SHL PUSH1 0x40 MLOAD SWAP2 PUSH3 0x461BCD PUSH1 0xE5 SHL DUP4 MSTORE PUSH1 0x20 PUSH1 0x4 DUP5 ADD MSTORE PUSH1 0x14 PUSH1 0x24 DUP5 ADD MSTORE DUP3 ADD MSTORE REVERT JUMPDEST PUSH1 0x64 SWAP1 PUSH32 0x4A757374696669636174696F6E20495046532072657175697265640000000000 PUSH1 0x40 MLOAD SWAP2 PUSH3 0x461BCD PUSH1 0xE5 SHL DUP4 MSTORE PUSH1 0x20 PUSH1 0x4 DUP5 ADD MSTORE PUSH1 0x1B PUSH1 0x24 DUP5 ADD MSTORE DUP3 ADD MSTORE REVERT JUMPDEST PUSH1 0x64 SWAP1 PUSH32 0x5265656E7472616E637947756172643A207265656E7472616E742063616C6C00 PUSH1 0x40 MLOAD SWAP2 PUSH3 0x461BCD PUSH1 0xE5 SHL DUP4 MSTORE PUSH1 0x20 PUSH1 0x4 DUP5 ADD MSTORE PUSH1 0x1F PUSH1 0x24 DUP5 ADD MSTORE DUP3 ADD MSTORE REVERT JUMPDEST CALLVALUE PUSH2 0x349 JUMPI PUSH1 0x20 PUSH2 0x14B3 PUSH2 0x14AD CALLDATASIZE PUSH2 0x1CA1 JUMP JUMPDEST SWAP1 PUSH2 0x23C4 JUMP JUMPDEST PUSH1 0x40 MLOAD SWAP1 ISZERO ISZERO DUP2 MSTORE RETURN JUMPDEST CALLVALUE PUSH2 0x349 JUMPI PUSH1 0x20 CALLDATASIZE PUSH1 0x3 NOT ADD SLT PUSH2 0x349 JUMPI PUSH1 0x1 PUSH1 0x1 PUSH1 0xA0 SHL SUB PUSH2 0x14DE PUSH2 0x1C8B JUMP JUMPDEST AND PUSH0 MSTORE PUSH1 0x4 PUSH1 0x20 MSTORE PUSH1 0x20 PUSH1 0xFF PUSH1 0x40 PUSH0 KECCAK256 SLOAD AND PUSH1 0x40 MLOAD SWAP1 ISZERO ISZERO DUP2 MSTORE RETURN JUMPDEST CALLVALUE PUSH2 0x349 JUMPI PUSH0 CALLDATASIZE PUSH1 0x3 NOT ADD SLT PUSH2 0x349 JUMPI PUSH1 0x20 PUSH1 0xFF PUSH1 0x1 SLOAD AND PUSH1 0x40 MLOAD SWAP1 ISZERO ISZERO DUP2 MSTORE RETURN JUMPDEST CALLVALUE PUSH2 0x349 JUMPI PUSH2 0x152A CALLDATASIZE PUSH2 0x1CA1 JUMP JUMPDEST PUSH2 0x1532 PUSH2 0x1DF8 JUMP JUMPDEST PUSH0 JUMPDEST DUP2 MLOAD DUP2 LT ISZERO PUSH2 0x6C7 JUMPI DUP1 PUSH2 0xBF8 DUP5 PUSH2 0x154F PUSH2 0x1567 SWAP5 DUP7 PUSH2 0x239C JUMP JUMPDEST MLOAD DUP1 PUSH0 MSTORE PUSH0 PUSH1 0x20 MSTORE PUSH2 0x6C2 PUSH1 0x1 PUSH1 0x40 PUSH0 KECCAK256 ADD SLOAD PUSH2 0x1E31 JUMP JUMPDEST PUSH2 0x1534 JUMP JUMPDEST CALLVALUE PUSH2 0x349 JUMPI PUSH0 CALLDATASIZE PUSH1 0x3 NOT ADD SLT PUSH2 0x349 JUMPI PUSH1 0xA0 PUSH1 0x6 SLOAD PUSH1 0xFF PUSH1 0x40 MLOAD SWAP2 DUP2 DUP2 AND DUP4 MSTORE DUP2 DUP2 PUSH1 0x8 SHR AND PUSH1 0x20 DUP5 ADD MSTORE DUP2 DUP2 PUSH1 0x10 SHR AND PUSH1 0x40 DUP5 ADD MSTORE DUP2 DUP2 PUSH1 0x18 SHR AND PUSH1 0x60 DUP5 ADD MSTORE PUSH1 0x20 SHR AND PUSH1 0x80 DUP3 ADD MSTORE RETURN JUMPDEST CALLVALUE PUSH2 0x349 JUMPI PUSH0 CALLDATASIZE PUSH1 0x3 NOT ADD SLT PUSH2 0x349 JUMPI PUSH2 0x15D0 PUSH2 0x1D7F JUMP JUMPDEST PUSH1 0x1 SLOAD PUSH1 0xFF DUP2 AND ISZERO PUSH2 0x160F JUMPI PUSH1 0xFF NOT AND PUSH1 0x1 SSTORE PUSH32 0x5DB9EE0A495BF2E6FF9C91A7834C1BA4FDD244A5E8AA4E537BD38AEAE4B073AA PUSH1 0x20 PUSH1 0x40 MLOAD CALLER DUP2 MSTORE LOG1 STOP JUMPDEST PUSH1 0x40 MLOAD PUSH3 0x461BCD PUSH1 0xE5 SHL DUP2 MSTORE PUSH1 0x20 PUSH1 0x4 DUP3 ADD MSTORE PUSH1 0x14 PUSH1 0x24 DUP3 ADD MSTORE PUSH20 0x14185D5CD8589B194E881B9BDD081C185D5CD959 PUSH1 0x62 SHL PUSH1 0x44 DUP3 ADD MSTORE PUSH1 0x64 SWAP1 REVERT JUMPDEST CALLVALUE PUSH2 0x349 JUMPI PUSH0 CALLDATASIZE PUSH1 0x3 NOT ADD SLT PUSH2 0x349 JUMPI PUSH1 0x20 PUSH1 0x7 SLOAD PUSH1 0x40 MLOAD SWAP1 DUP2 MSTORE RETURN JUMPDEST CALLVALUE PUSH2 0x349 JUMPI PUSH1 0x40 CALLDATASIZE PUSH1 0x3 NOT ADD SLT PUSH2 0x349 JUMPI PUSH2 0x1681 PUSH2 0x1C75 JUMP JUMPDEST CALLER PUSH1 0x1 PUSH1 0x1 PUSH1 0xA0 SHL SUB DUP3 AND SUB PUSH2 0x169D JUMPI PUSH2 0x6C7 SWAP1 PUSH1 0x4 CALLDATALOAD PUSH2 0x1FFE JUMP JUMPDEST PUSH1 0x40 MLOAD PUSH4 0x334BD919 PUSH1 0xE1 SHL DUP2 MSTORE PUSH1 0x4 SWAP1 REVERT JUMPDEST CALLVALUE PUSH2 0x349 JUMPI PUSH1 0x40 CALLDATASIZE PUSH1 0x3 NOT ADD SLT PUSH2 0x349 JUMPI PUSH2 0x6C7 PUSH1 0x4 CALLDATALOAD PUSH2 0x16CE PUSH2 0x1C75 JUMP JUMPDEST SWAP1 DUP1 PUSH0 MSTORE PUSH0 PUSH1 0x20 MSTORE PUSH2 0xBF3 PUSH1 0x1 PUSH1 0x40 PUSH0 KECCAK256 ADD SLOAD PUSH2 0x1E31 JUMP JUMPDEST CALLVALUE PUSH2 0x349 JUMPI PUSH1 0x20 CALLDATASIZE PUSH1 0x3 NOT ADD SLT PUSH2 0x349 JUMPI PUSH1 0x4 CALLDATALOAD PUSH1 0x1 PUSH1 0x1 PUSH1 0x40 SHL SUB DUP2 GT PUSH2 0x349 JUMPI PUSH1 0xFF PUSH2 0x1731 PUSH1 0x20 PUSH2 0x171E DUP2 SWAP5 CALLDATASIZE SWAP1 PUSH1 0x4 ADD PUSH2 0x1C20 JUMP JUMPDEST DUP2 PUSH1 0x40 MLOAD SWAP4 DUP3 DUP6 DUP1 SWAP5 MLOAD SWAP4 DUP5 SWAP3 ADD PUSH2 0x1B82 JUMP JUMPDEST DUP2 ADD PUSH1 0x5 DUP2 MSTORE SUB ADD SWAP1 KECCAK256 SLOAD AND PUSH1 0x40 MLOAD SWAP1 ISZERO ISZERO DUP2 MSTORE RETURN JUMPDEST CALLVALUE PUSH2 0x349 JUMPI PUSH1 0x80 CALLDATASIZE PUSH1 0x3 NOT ADD SLT PUSH2 0x349 JUMPI PUSH1 0x1 PUSH1 0x1 PUSH1 0x40 SHL SUB PUSH1 0x4 CALLDATALOAD PUSH1 0x24 DUP1 CALLDATALOAD PUSH1 0x44 CALLDATALOAD DUP5 DUP2 GT PUSH2 0x349 JUMPI PUSH2 0x177F SWAP1 CALLDATASIZE SWAP1 PUSH1 0x4 ADD PUSH2 0x1C20 JUMP JUMPDEST PUSH1 0x64 CALLDATALOAD DUP6 DUP2 GT PUSH2 0x349 JUMPI PUSH2 0x1797 SWAP1 CALLDATASIZE SWAP1 PUSH1 0x4 ADD PUSH2 0x1C20 JUMP JUMPDEST SWAP1 CALLER PUSH0 MSTORE PUSH1 0x20 SWAP4 PUSH1 0x4 DUP6 MSTORE PUSH2 0x17B2 PUSH1 0xFF PUSH1 0x40 PUSH0 KECCAK256 SLOAD AND PUSH2 0x2071 JUMP JUMPDEST PUSH2 0x17BD DUP7 ISZERO ISZERO PUSH2 0x20B5 JUMP JUMPDEST PUSH2 0x17CA PUSH1 0x64 DUP6 GT ISZERO PUSH2 0x20F7 JUMP JUMPDEST PUSH2 0x17D2 PUSH2 0x21BF JUMP JUMPDEST DUP6 PUSH0 MSTORE PUSH1 0x3 SWAP2 DUP3 DUP7 MSTORE PUSH2 0x17F1 PUSH1 0xFF PUSH1 0x5 PUSH1 0x40 PUSH0 KECCAK256 ADD SLOAD PUSH1 0xA0 SHR AND PUSH2 0x2203 JUMP JUMPDEST DUP7 PUSH0 MSTORE DUP3 DUP7 MSTORE CALLER PUSH1 0x1 DUP1 PUSH1 0xA0 SHL SUB PUSH1 0x5 PUSH1 0x40 PUSH0 KECCAK256 ADD SLOAD AND SUB PUSH2 0x1A3F JUMPI DUP7 PUSH0 MSTORE DUP3 DUP7 MSTORE PUSH1 0x4 PUSH1 0x40 PUSH0 KECCAK256 ADD SLOAD PUSH3 0x278D00 DUP2 ADD DUP1 SWAP2 GT PUSH2 0x1A2C JUMPI TIMESTAMP GT PUSH2 0x19F0 JUMPI DUP4 MLOAD ISZERO PUSH2 0x19B3 JUMPI DUP7 PUSH0 MSTORE DUP3 DUP7 MSTORE PUSH1 0x40 PUSH0 KECCAK256 SWAP1 PUSH1 0x2 PUSH1 0x1 SWAP3 DUP8 DUP5 DUP3 ADD SSTORE ADD SWAP3 DUP2 MLOAD SWAP10 DUP11 GT PUSH2 0x19A0 JUMPI POP PUSH2 0x1860 DUP4 SLOAD PUSH2 0x2163 JUMP JUMPDEST PUSH1 0x1F DUP2 GT PUSH2 0x1972 JUMPI JUMPDEST POP DUP7 SWAP1 PUSH1 0x1F DUP11 GT PUSH1 0x1 EQ PUSH2 0x18EB JUMPI SWAP9 DUP1 PUSH2 0x9CC SWAP7 SWAP6 SWAP5 SWAP4 DUP2 SWAP4 PUSH32 0xD3E8DBBE8FF60A1FAE1E5F88E71F27270ED38BADC7B26E19922ED94FD12F5FE9 SWAP12 SWAP13 PUSH0 SWAP5 PUSH2 0x18E0 JUMPI JUMPDEST POP POP SHL SWAP2 PUSH0 NOT SWAP1 DUP6 SHL SHR NOT AND OR SWAP1 SSTORE JUMPDEST DUP7 PUSH0 MSTORE DUP5 MSTORE TIMESTAMP PUSH1 0x4 PUSH1 0x40 PUSH0 KECCAK256 ADD SSTORE PUSH1 0x40 DUP1 MLOAD SWAP5 DUP6 SWAP5 DUP6 MSTORE DUP5 ADD MSTORE PUSH1 0x40 DUP4 ADD SWAP1 PUSH2 0x1BA3 JUMP JUMPDEST ADD MLOAD SWAP3 POP DUP13 DUP1 PUSH2 0x18AC JUMP JUMPDEST SWAP9 SWAP1 PUSH1 0x1F NOT DUP3 AND SWAP10 DUP5 PUSH0 MSTORE DUP9 PUSH0 KECCAK256 SWAP11 PUSH0 JUMPDEST DUP2 DUP2 LT PUSH2 0x195D JUMPI POP SWAP2 PUSH32 0xD3E8DBBE8FF60A1FAE1E5F88E71F27270ED38BADC7B26E19922ED94FD12F5FE9 SWAP11 SWAP12 SWAP2 DUP5 PUSH2 0x9CC SWAP10 SWAP9 SWAP8 SWAP7 SWAP6 SWAP5 LT PUSH2 0x1946 JUMPI JUMPDEST POP POP POP DUP2 SHL ADD SWAP1 SSTORE PUSH2 0x18BC JUMP JUMPDEST ADD MLOAD PUSH0 NOT DUP4 DUP8 SHL PUSH1 0xF8 AND SHR NOT AND SWAP1 SSTORE DUP11 DUP1 DUP1 PUSH2 0x1939 JUMP JUMPDEST DUP4 DUP4 ADD MLOAD DUP14 SSTORE SWAP12 DUP6 ADD SWAP12 SWAP3 DUP11 ADD SWAP3 DUP11 ADD PUSH2 0x18FC JUMP JUMPDEST PUSH2 0x199A SWAP1 DUP5 PUSH0 MSTORE DUP9 PUSH0 KECCAK256 PUSH1 0x1F DUP13 ADD PUSH1 0x5 SHR DUP2 ADD SWAP2 DUP11 DUP14 LT PUSH2 0x11E0 JUMPI PUSH1 0x1F ADD PUSH1 0x5 SHR ADD SWAP1 PUSH2 0x219B JUMP JUMPDEST DUP10 PUSH2 0x1869 JUMP JUMPDEST PUSH4 0x4E487B71 PUSH1 0xE0 SHL PUSH0 SWAP1 DUP2 MSTORE PUSH1 0x41 PUSH1 0x4 MSTORE REVERT JUMPDEST PUSH1 0x40 MLOAD PUSH3 0x461BCD PUSH1 0xE5 SHL DUP2 MSTORE PUSH1 0x4 DUP2 ADD DUP8 SWAP1 MSTORE PUSH1 0x16 DUP2 DUP5 ADD MSTORE PUSH22 0x155C19185D19481C99585CDBDB881C995C5D5A5C9959 PUSH1 0x52 SHL PUSH1 0x44 DUP3 ADD MSTORE PUSH1 0x64 SWAP1 REVERT JUMPDEST PUSH1 0x40 MLOAD PUSH3 0x461BCD PUSH1 0xE5 SHL DUP2 MSTORE PUSH1 0x4 DUP2 ADD DUP8 SWAP1 MSTORE PUSH1 0x15 DUP2 DUP5 ADD MSTORE PUSH21 0x155C19185D19481C195C9A5BD908195E1C1A5C9959 PUSH1 0x5A SHL PUSH1 0x44 DUP3 ADD MSTORE PUSH1 0x64 SWAP1 REVERT JUMPDEST DUP3 PUSH4 0x4E487B71 PUSH1 0xE0 SHL PUSH0 MSTORE PUSH1 0x11 PUSH1 0x4 MSTORE PUSH0 REVERT JUMPDEST PUSH1 0x40 MLOAD PUSH3 0x461BCD PUSH1 0xE5 SHL DUP2 MSTORE PUSH1 0x4 DUP2 ADD DUP8 SWAP1 MSTORE PUSH1 0x13 DUP2 DUP5 ADD MSTORE PUSH19 0x4E6F74206F726967696E616C206F7261636C65 PUSH1 0x68 SHL PUSH1 0x44 DUP3 ADD MSTORE PUSH1 0x64 SWAP1 REVERT JUMPDEST CALLVALUE PUSH2 0x349 JUMPI PUSH0 CALLDATASIZE PUSH1 0x3 NOT ADD SLT PUSH2 0x349 JUMPI PUSH1 0x20 PUSH1 0x40 MLOAD PUSH1 0x64 DUP2 MSTORE RETURN JUMPDEST CALLVALUE PUSH2 0x349 JUMPI PUSH1 0x20 CALLDATASIZE PUSH1 0x3 NOT ADD SLT PUSH2 0x349 JUMPI PUSH1 0x4 CALLDATALOAD PUSH0 MSTORE PUSH0 PUSH1 0x20 MSTORE PUSH1 0x20 PUSH1 0x1 PUSH1 0x40 PUSH0 KECCAK256 ADD SLOAD PUSH1 0x40 MLOAD SWAP1 DUP2 MSTORE RETURN JUMPDEST CALLVALUE PUSH2 0x349 JUMPI PUSH1 0x20 CALLDATASIZE PUSH1 0x3 NOT ADD SLT PUSH2 0x349 JUMPI PUSH1 0x4 CALLDATALOAD PUSH2 0x1ADF DUP2 ISZERO ISZERO PUSH2 0x20B5 JUMP JUMPDEST PUSH0 MSTORE PUSH1 0x3 PUSH1 0x20 MSTORE PUSH1 0x40 PUSH0 KECCAK256 PUSH1 0x1 DUP2 ADD SLOAD PUSH2 0x1B06 PUSH1 0x2 PUSH1 0xFF PUSH1 0x5 DUP6 ADD SLOAD PUSH1 0xA0 SHR AND SWAP4 ADD PUSH2 0x2246 JUMP JUMPDEST SWAP2 PUSH2 0x1B23 PUSH1 0x40 MLOAD SWAP4 DUP5 SWAP4 DUP5 MSTORE PUSH1 0x60 PUSH1 0x20 DUP6 ADD MSTORE PUSH1 0x60 DUP5 ADD SWAP1 PUSH2 0x1BA3 JUMP JUMPDEST SWAP1 ISZERO ISZERO PUSH1 0x40 DUP4 ADD MSTORE SUB SWAP1 RETURN JUMPDEST CALLVALUE PUSH2 0x349 JUMPI PUSH1 0x20 CALLDATASIZE PUSH1 0x3 NOT ADD SLT PUSH2 0x349 JUMPI PUSH1 0x4 CALLDATALOAD SWAP1 PUSH4 0xFFFFFFFF PUSH1 0xE0 SHL DUP3 AND DUP1 SWAP3 SUB PUSH2 0x349 JUMPI PUSH1 0x20 SWAP2 PUSH4 0x7965DB0B PUSH1 0xE0 SHL DUP2 EQ SWAP1 DUP2 ISZERO PUSH2 0x1B71 JUMPI JUMPDEST POP ISZERO ISZERO DUP2 MSTORE RETURN JUMPDEST PUSH4 0x1FFC9A7 PUSH1 0xE0 SHL EQ SWAP1 POP DUP4 PUSH2 0x1B6A JUMP JUMPDEST PUSH0 JUMPDEST DUP4 DUP2 LT PUSH2 0x1B93 JUMPI POP POP PUSH0 SWAP2 ADD MSTORE JUMP JUMPDEST DUP2 DUP2 ADD MLOAD DUP4 DUP3 ADD MSTORE PUSH1 0x20 ADD PUSH2 0x1B84 JUMP JUMPDEST SWAP1 PUSH1 0x20 SWAP2 PUSH2 0x1BBC DUP2 MLOAD DUP1 SWAP3 DUP2 DUP6 MSTORE DUP6 DUP1 DUP7 ADD SWAP2 ADD PUSH2 0x1B82 JUMP JUMPDEST PUSH1 0x1F ADD PUSH1 0x1F NOT AND ADD ADD SWAP1 JUMP JUMPDEST PUSH2 0x100 DUP2 ADD SWAP1 DUP2 LT PUSH1 0x1 PUSH1 0x1 PUSH1 0x40 SHL SUB DUP3 GT OR PUSH2 0x11EA JUMPI PUSH1 0x40 MSTORE JUMP JUMPDEST PUSH1 0xA0 DUP2 ADD SWAP1 DUP2 LT PUSH1 0x1 PUSH1 0x1 PUSH1 0x40 SHL SUB DUP3 GT OR PUSH2 0x11EA JUMPI PUSH1 0x40 MSTORE JUMP JUMPDEST SWAP1 PUSH1 0x1F DUP1 NOT SWAP2 ADD AND DUP2 ADD SWAP1 DUP2 LT PUSH1 0x1 PUSH1 0x1 PUSH1 0x40 SHL SUB DUP3 GT OR PUSH2 0x11EA JUMPI PUSH1 0x40 MSTORE JUMP JUMPDEST DUP2 PUSH1 0x1F DUP3 ADD SLT ISZERO PUSH2 0x349 JUMPI DUP1 CALLDATALOAD SWAP1 PUSH1 0x1 PUSH1 0x1 PUSH1 0x40 SHL SUB DUP3 GT PUSH2 0x11EA JUMPI PUSH1 0x40 MLOAD SWAP3 PUSH2 0x1C54 PUSH1 0x1F DUP5 ADD PUSH1 0x1F NOT AND PUSH1 0x20 ADD DUP6 PUSH2 0x1BFF JUMP JUMPDEST DUP3 DUP5 MSTORE PUSH1 0x20 DUP4 DUP4 ADD ADD GT PUSH2 0x349 JUMPI DUP2 PUSH0 SWAP3 PUSH1 0x20 DUP1 SWAP4 ADD DUP4 DUP7 ADD CALLDATACOPY DUP4 ADD ADD MSTORE SWAP1 JUMP JUMPDEST PUSH1 0x24 CALLDATALOAD SWAP1 PUSH1 0x1 PUSH1 0x1 PUSH1 0xA0 SHL SUB DUP3 AND DUP3 SUB PUSH2 0x349 JUMPI JUMP JUMPDEST PUSH1 0x4 CALLDATALOAD SWAP1 PUSH1 0x1 PUSH1 0x1 PUSH1 0xA0 SHL SUB DUP3 AND DUP3 SUB PUSH2 0x349 JUMPI JUMP JUMPDEST SWAP1 PUSH1 0x40 PUSH1 0x3 NOT DUP4 ADD SLT PUSH2 0x349 JUMPI PUSH1 0x4 CALLDATALOAD PUSH1 0x1 PUSH1 0x1 PUSH1 0xA0 SHL SUB DUP2 AND DUP2 SUB PUSH2 0x349 JUMPI SWAP2 PUSH1 0x24 CALLDATALOAD SWAP1 PUSH1 0x1 PUSH1 0x1 PUSH1 0x40 SHL SUB SWAP1 DUP2 DUP4 GT PUSH2 0x349 JUMPI DUP1 PUSH1 0x23 DUP5 ADD SLT ISZERO PUSH2 0x349 JUMPI DUP3 PUSH1 0x4 ADD CALLDATALOAD SWAP2 DUP3 GT PUSH2 0x11EA JUMPI DUP2 PUSH1 0x5 SHL PUSH1 0x40 MLOAD SWAP4 PUSH1 0x20 SWAP4 PUSH2 0x1D04 DUP6 DUP5 ADD DUP8 PUSH2 0x1BFF JUMP JUMPDEST DUP6 MSTORE PUSH1 0x24 DUP5 DUP7 ADD SWAP3 DUP3 ADD ADD SWAP3 DUP4 GT PUSH2 0x349 JUMPI PUSH1 0x24 ADD SWAP1 JUMPDEST DUP3 DUP3 LT PUSH2 0x1D29 JUMPI POP POP POP POP SWAP1 JUMP JUMPDEST DUP2 CALLDATALOAD DUP2 MSTORE SWAP1 DUP4 ADD SWAP1 DUP4 ADD PUSH2 0x1D1B JUMP JUMPDEST PUSH1 0x24 CALLDATALOAD SWAP1 DUP2 ISZERO ISZERO DUP3 SUB PUSH2 0x349 JUMPI JUMP JUMPDEST PUSH1 0xFF PUSH1 0x80 DUP1 SWAP3 DUP3 DUP2 MLOAD AND DUP6 MSTORE DUP3 PUSH1 0x20 DUP3 ADD MLOAD AND PUSH1 0x20 DUP7 ADD MSTORE DUP3 PUSH1 0x40 DUP3 ADD MLOAD AND PUSH1 0x40 DUP7 ADD MSTORE DUP3 PUSH1 0x60 DUP3 ADD MLOAD AND PUSH1 0x60 DUP7 ADD MSTORE ADD MLOAD AND SWAP2 ADD MSTORE JUMP JUMPDEST CALLER PUSH0 SWAP1 DUP2 MSTORE PUSH32 0x7D7FFB7A348E1C6A02869081A26547B49160DD3DF72D1D75A570EB9B698292EC PUSH1 0x20 MSTORE PUSH1 0x40 SWAP1 KECCAK256 SLOAD PUSH32 0xA49807205CE4D355092EF5A8A18F56E8913CF4A201FBE287825B095693C21775 SWAP1 PUSH1 0xFF AND ISZERO PUSH2 0x1DDA JUMPI POP JUMP JUMPDEST PUSH1 0x44 SWAP1 PUSH1 0x40 MLOAD SWAP1 PUSH4 0xE2517D3F PUSH1 0xE0 SHL DUP3 MSTORE CALLER PUSH1 0x4 DUP4 ADD MSTORE PUSH1 0x24 DUP3 ADD MSTORE REVERT JUMPDEST CALLER PUSH0 SWAP1 DUP2 MSTORE PUSH32 0xAD3228B676F7D3CD4284A5443F17F1962B36E491B30A40B2405849E597BA5FB5 PUSH1 0x20 MSTORE PUSH1 0x40 DUP2 KECCAK256 SLOAD PUSH1 0xFF AND ISZERO PUSH2 0x1DDA JUMPI POP JUMP JUMPDEST DUP1 PUSH0 MSTORE PUSH0 PUSH1 0x20 MSTORE PUSH1 0x40 PUSH0 KECCAK256 CALLER PUSH0 MSTORE PUSH1 0x20 MSTORE PUSH1 0xFF PUSH1 0x40 PUSH0 KECCAK256 SLOAD AND ISZERO PUSH2 0x1DDA JUMPI POP JUMP JUMPDEST PUSH1 0x1 PUSH1 0x1 PUSH1 0xA0 SHL SUB AND PUSH0 DUP2 DUP2 MSTORE PUSH32 0xC1C604B5ADD75B59252BCA1E4E4EC4AB21F3921B1DDCF7A43ABE69724BCE555D PUSH1 0x20 MSTORE PUSH1 0x40 DUP2 KECCAK256 SLOAD SWAP1 SWAP2 SWAP1 PUSH0 DUP1 MLOAD PUSH1 0x20 PUSH2 0x2529 DUP4 CODECOPY DUP2 MLOAD SWAP2 MSTORE SWAP1 PUSH1 0xFF AND PUSH2 0x1EEB JUMPI DUP1 DUP4 MSTORE DUP3 PUSH1 0x20 MSTORE PUSH1 0x40 DUP4 KECCAK256 DUP3 DUP5 MSTORE PUSH1 0x20 MSTORE PUSH1 0x40 DUP4 KECCAK256 PUSH1 0x1 PUSH1 0xFF NOT DUP3 SLOAD AND OR SWAP1 SSTORE PUSH32 0x2F8788117E7EFF1D82E926EC794901D17C78024A50270940304540A733656F0D CALLER SWAP4 DUP1 LOG4 PUSH1 0x1 SWAP1 JUMP JUMPDEST POP POP SWAP1 JUMP JUMPDEST SWAP1 PUSH0 SWAP2 DUP1 DUP4 MSTORE DUP3 PUSH1 0x20 MSTORE PUSH1 0x40 DUP4 KECCAK256 SWAP2 PUSH1 0x1 DUP1 PUSH1 0xA0 SHL SUB AND SWAP2 DUP3 DUP5 MSTORE PUSH1 0x20 MSTORE PUSH1 0xFF PUSH1 0x40 DUP5 KECCAK256 SLOAD AND ISZERO PUSH0 EQ PUSH2 0x1EEB JUMPI DUP1 DUP4 MSTORE DUP3 PUSH1 0x20 MSTORE PUSH1 0x40 DUP4 KECCAK256 DUP3 DUP5 MSTORE PUSH1 0x20 MSTORE PUSH1 0x40 DUP4 KECCAK256 PUSH1 0x1 PUSH1 0xFF NOT DUP3 SLOAD AND OR SWAP1 SSTORE PUSH32 0x2F8788117E7EFF1D82E926EC794901D17C78024A50270940304540A733656F0D CALLER SWAP4 DUP1 LOG4 PUSH1 0x1 SWAP1 JUMP JUMPDEST PUSH1 0x1 PUSH1 0x1 PUSH1 0xA0 SHL SUB AND PUSH0 DUP2 DUP2 MSTORE PUSH32 0xC1C604B5ADD75B59252BCA1E4E4EC4AB21F3921B1DDCF7A43ABE69724BCE555D PUSH1 0x20 MSTORE PUSH1 0x40 DUP2 KECCAK256 SLOAD SWAP1 SWAP2 SWAP1 PUSH0 DUP1 MLOAD PUSH1 0x20 PUSH2 0x2529 DUP4 CODECOPY DUP2 MLOAD SWAP2 MSTORE SWAP1 PUSH1 0xFF AND ISZERO PUSH2 0x1EEB JUMPI DUP1 DUP4 MSTORE DUP3 PUSH1 0x20 MSTORE PUSH1 0x40 DUP4 KECCAK256 DUP3 DUP5 MSTORE PUSH1 0x20 MSTORE PUSH1 0x40 DUP4 KECCAK256 PUSH1 0xFF NOT DUP2 SLOAD AND SWAP1 SSTORE PUSH32 0xF6391F5C32D9C69D2A47EA670B442974B53935D1EDC7FD64EB21E047A839171B CALLER SWAP4 DUP1 LOG4 PUSH1 0x1 SWAP1 JUMP JUMPDEST SWAP1 PUSH0 SWAP2 DUP1 DUP4 MSTORE DUP3 PUSH1 0x20 MSTORE PUSH1 0x40 DUP4 KECCAK256 SWAP2 PUSH1 0x1 DUP1 PUSH1 0xA0 SHL SUB AND SWAP2 DUP3 DUP5 MSTORE PUSH1 0x20 MSTORE PUSH1 0xFF PUSH1 0x40 DUP5 KECCAK256 SLOAD AND PUSH0 EQ PUSH2 0x1EEB JUMPI DUP1 DUP4 MSTORE DUP3 PUSH1 0x20 MSTORE PUSH1 0x40 DUP4 KECCAK256 DUP3 DUP5 MSTORE PUSH1 0x20 MSTORE PUSH1 0x40 DUP4 KECCAK256 PUSH1 0xFF NOT DUP2 SLOAD AND SWAP1 SSTORE PUSH32 0xF6391F5C32D9C69D2A47EA670B442974B53935D1EDC7FD64EB21E047A839171B CALLER SWAP4 DUP1 LOG4 PUSH1 0x1 SWAP1 JUMP JUMPDEST ISZERO PUSH2 0x2078 JUMPI JUMP JUMPDEST PUSH1 0x40 MLOAD PUSH3 0x461BCD PUSH1 0xE5 SHL DUP2 MSTORE PUSH1 0x20 PUSH1 0x4 DUP3 ADD MSTORE PUSH1 0x15 PUSH1 0x24 DUP3 ADD MSTORE PUSH21 0x4E6F7420617574686F72697A6564206F7261636C65 PUSH1 0x58 SHL PUSH1 0x44 DUP3 ADD MSTORE PUSH1 0x64 SWAP1 REVERT JUMPDEST ISZERO PUSH2 0x20BC JUMPI JUMP JUMPDEST PUSH1 0x40 MLOAD PUSH3 0x461BCD PUSH1 0xE5 SHL DUP2 MSTORE PUSH1 0x20 PUSH1 0x4 DUP3 ADD MSTORE PUSH1 0x13 PUSH1 0x24 DUP3 ADD MSTORE PUSH19 0x125B9D985B1A59081C1C9BDC1BDCD85B081251 PUSH1 0x6A SHL PUSH1 0x44 DUP3 ADD MSTORE PUSH1 0x64 SWAP1 REVERT JUMPDEST ISZERO PUSH2 0x20FE JUMPI JUMP JUMPDEST PUSH1 0x40 MLOAD PUSH3 0x461BCD PUSH1 0xE5 SHL DUP2 MSTORE PUSH1 0x20 PUSH1 0x4 DUP3 ADD MSTORE PUSH1 0x12 PUSH1 0x24 DUP3 ADD MSTORE PUSH18 0x53636F7265206F7574206F662072616E6765 PUSH1 0x70 SHL PUSH1 0x44 DUP3 ADD MSTORE PUSH1 0x64 SWAP1 REVERT JUMPDEST SWAP1 PUSH1 0xFF DUP1 SWAP2 AND SWAP2 AND MUL SWAP1 PUSH1 0xFF DUP3 AND SWAP2 DUP3 SUB PUSH2 0x9D1 JUMPI JUMP JUMPDEST SWAP1 PUSH1 0xFF DUP1 SWAP2 AND SWAP2 AND ADD SWAP1 PUSH1 0xFF DUP3 GT PUSH2 0x9D1 JUMPI JUMP JUMPDEST SWAP1 PUSH1 0x1 DUP3 DUP2 SHR SWAP3 AND DUP1 ISZERO PUSH2 0x2191 JUMPI JUMPDEST PUSH1 0x20 DUP4 LT EQ PUSH2 0x217D JUMPI JUMP JUMPDEST PUSH4 0x4E487B71 PUSH1 0xE0 SHL PUSH0 MSTORE PUSH1 0x22 PUSH1 0x4 MSTORE PUSH1 0x24 PUSH0 REVERT JUMPDEST SWAP2 PUSH1 0x7F AND SWAP2 PUSH2 0x2172 JUMP JUMPDEST DUP2 DUP2 LT PUSH2 0x21A6 JUMPI POP POP JUMP JUMPDEST PUSH0 DUP2 SSTORE PUSH1 0x1 ADD PUSH2 0x219B JUMP JUMPDEST PUSH0 NOT DUP2 EQ PUSH2 0x9D1 JUMPI PUSH1 0x1 ADD SWAP1 JUMP JUMPDEST PUSH1 0xFF PUSH1 0x1 SLOAD AND PUSH2 0x21CB JUMPI JUMP JUMPDEST PUSH1 0x40 MLOAD PUSH3 0x461BCD PUSH1 0xE5 SHL DUP2 MSTORE PUSH1 0x20 PUSH1 0x4 DUP3 ADD MSTORE PUSH1 0x10 PUSH1 0x24 DUP3 ADD MSTORE PUSH16 0x14185D5CD8589B194E881C185D5CD959 PUSH1 0x82 SHL PUSH1 0x44 DUP3 ADD MSTORE PUSH1 0x64 SWAP1 REVERT JUMPDEST ISZERO PUSH2 0x220A JUMPI JUMP JUMPDEST PUSH1 0x40 MLOAD PUSH3 0x461BCD PUSH1 0xE5 SHL DUP2 MSTORE PUSH1 0x20 PUSH1 0x4 DUP3 ADD MSTORE PUSH1 0x14 PUSH1 0x24 DUP3 ADD MSTORE PUSH20 0x14D8DBDC9948191BD95CC81B9BDD08195E1A5CDD PUSH1 0x62 SHL PUSH1 0x44 DUP3 ADD MSTORE PUSH1 0x64 SWAP1 REVERT JUMPDEST SWAP1 PUSH1 0x40 MLOAD SWAP2 DUP3 PUSH0 DUP3 SLOAD SWAP3 PUSH2 0x2259 DUP5 PUSH2 0x2163 JUMP JUMPDEST SWAP1 DUP2 DUP5 MSTORE PUSH1 0x1 SWAP5 DUP6 DUP2 AND SWAP1 DUP2 PUSH0 EQ PUSH2 0x22C4 JUMPI POP PUSH1 0x1 EQ PUSH2 0x2284 JUMPI JUMPDEST POP POP PUSH2 0x2282 SWAP3 POP SUB DUP4 PUSH2 0x1BFF JUMP JUMPDEST JUMP JUMPDEST SWAP1 SWAP4 SWAP2 POP PUSH0 MSTORE PUSH1 0x20 SWAP1 DUP2 PUSH0 KECCAK256 SWAP4 PUSH0 SWAP2 JUMPDEST DUP2 DUP4 LT PUSH2 0x22AC JUMPI POP POP PUSH2 0x2282 SWAP4 POP DUP3 ADD ADD PUSH0 DUP1 PUSH2 0x2274 JUMP JUMPDEST DUP6 SLOAD DUP9 DUP5 ADD DUP6 ADD MSTORE SWAP5 DUP6 ADD SWAP5 DUP8 SWAP5 POP SWAP2 DUP4 ADD SWAP2 PUSH2 0x2294 JUMP JUMPDEST SWAP2 POP POP PUSH2 0x2282 SWAP5 POP PUSH1 0x20 SWAP3 POP PUSH1 0xFF NOT AND DUP3 DUP5 ADD MSTORE ISZERO ISZERO PUSH1 0x5 SHL DUP3 ADD ADD PUSH0 DUP1 PUSH2 0x2274 JUMP JUMPDEST PUSH1 0x40 MLOAD SWAP1 PUSH2 0x22F4 DUP3 PUSH2 0x1BE4 JUMP JUMPDEST PUSH0 PUSH1 0x80 DUP4 DUP3 DUP2 MSTORE DUP3 PUSH1 0x20 DUP3 ADD MSTORE DUP3 PUSH1 0x40 DUP3 ADD MSTORE DUP3 PUSH1 0x60 DUP3 ADD MSTORE ADD MSTORE JUMP JUMPDEST SWAP1 PUSH1 0x40 MLOAD PUSH2 0x231E DUP2 PUSH2 0x1BE4 JUMP JUMPDEST PUSH1 0x80 PUSH1 0xFF DUP3 SWAP5 SLOAD DUP2 DUP2 AND DUP5 MSTORE DUP2 DUP2 PUSH1 0x8 SHR AND PUSH1 0x20 DUP6 ADD MSTORE DUP2 DUP2 PUSH1 0x10 SHR AND PUSH1 0x40 DUP6 ADD MSTORE DUP2 DUP2 PUSH1 0x18 SHR AND PUSH1 0x60 DUP6 ADD MSTORE PUSH1 0x20 SHR AND SWAP2 ADD MSTORE JUMP JUMPDEST PUSH2 0x235E DUP2 SLOAD PUSH2 0x2163 JUMP JUMPDEST SWAP1 DUP2 PUSH2 0x2368 JUMPI POP POP JUMP JUMPDEST DUP2 PUSH1 0x1F PUSH0 SWAP4 GT PUSH1 0x1 EQ PUSH2 0x2379 JUMPI POP SSTORE JUMP JUMPDEST SWAP1 DUP1 DUP4 SWAP2 DUP3 MSTORE PUSH2 0x2398 PUSH1 0x1F PUSH1 0x20 DUP5 KECCAK256 SWAP5 ADD PUSH1 0x5 SHR DUP5 ADD PUSH1 0x1 DUP6 ADD PUSH2 0x219B JUMP JUMPDEST SSTORE SSTORE JUMP JUMPDEST DUP1 MLOAD DUP3 LT ISZERO PUSH2 0x23B0 JUMPI PUSH1 0x20 SWAP2 PUSH1 0x5 SHL ADD ADD SWAP1 JUMP JUMPDEST PUSH4 0x4E487B71 PUSH1 0xE0 SHL PUSH0 MSTORE PUSH1 0x32 PUSH1 0x4 MSTORE PUSH1 0x24 PUSH0 REVERT JUMPDEST SWAP1 PUSH0 JUMPDEST DUP2 MLOAD DUP2 LT ISZERO PUSH2 0x23F8 JUMPI PUSH2 0x23DE DUP4 PUSH2 0xA58 DUP4 DUP6 PUSH2 0x239C JUMP JUMPDEST PUSH2 0x23F0 JUMPI PUSH2 0x23EB SWAP1 PUSH2 0x21B1 JUMP JUMPDEST PUSH2 0x23C7 JUMP JUMPDEST POP POP POP PUSH1 0x1 SWAP1 JUMP JUMPDEST POP POP POP PUSH0 SWAP1 JUMP JUMPDEST PUSH1 0x40 MLOAD PUSH1 0xE0 DUP2 ADD DUP2 DUP2 LT PUSH1 0x1 PUSH1 0x1 PUSH1 0x40 SHL SUB DUP3 GT OR PUSH2 0x11EA JUMPI PUSH1 0x40 MSTORE PUSH1 0x6 DUP2 MSTORE PUSH1 0x20 DUP2 ADD PUSH1 0xC0 CALLDATASIZE DUP3 CALLDATACOPY DUP2 MLOAD ISZERO PUSH2 0x23B0 JUMPI PUSH0 DUP1 SWAP2 MSTORE DUP2 MLOAD PUSH1 0x1 LT ISZERO PUSH2 0x2514 JUMPI PUSH32 0xA49807205CE4D355092EF5A8A18F56E8913CF4A201FBE287825B095693C21775 PUSH1 0x40 DUP4 ADD MSTORE DUP2 MLOAD PUSH1 0x2 LT ISZERO PUSH2 0x2514 JUMPI PUSH0 DUP1 MLOAD PUSH1 0x20 PUSH2 0x2529 DUP4 CODECOPY DUP2 MLOAD SWAP2 MSTORE PUSH1 0x60 DUP4 ADD MSTORE DUP2 MLOAD PUSH1 0x3 LT ISZERO PUSH2 0x2514 JUMPI PUSH32 0xEDE9DCDB0CE99DC7CEC9C7BE9246AD08B37853683AD91569C187B647DDF5E21C PUSH1 0x80 DUP4 ADD MSTORE DUP2 MLOAD PUSH1 0x4 LT ISZERO PUSH2 0x2514 JUMPI PUSH32 0x58223CDFB69946630D837D40B5C366A584F0217ADA7FDDD8318F2E08603CFA22 PUSH1 0xA0 DUP4 ADD MSTORE DUP2 MLOAD PUSH1 0x5 LT ISZERO PUSH2 0x2514 JUMPI POP PUSH32 0x7B8BB8356A3F32F5C111FF23F050D97F08988E0883529EA7BFF3B918887A6E0E PUSH1 0xC0 DUP3 ADD MSTORE SWAP1 JUMP JUMPDEST PUSH4 0x4E487B71 PUSH1 0xE0 SHL DUP2 MSTORE PUSH1 0x32 PUSH1 0x4 MSTORE PUSH1 0x24 SWAP1 REVERT INVALID BASEFEE 0x26 BASEFEE 0xE7 DUP8 DUP15 SWAP16 0xA5 0x4C EXP 0x2F PUSH8 0xFFD22D00EBC37CF7 LOG0 RETURNDATACOPY MOD 0xE TIMESTAMP DUP14 0x2A 0xB0 0xCD PUSH8 0x35CCA26469706673 PC 0x22 SLT KECCAK256 SIGNEXTEND SLT 0x23 0xEF 0xAF PUSH7 0x6021DCA3699461 0xC9 0xC0 RETURN 0xC0 EXTCODESIZE 0xD 0xE3 DUP15 CALLVALUE 0xC6 0x5D STOP CALLER 0xD 0xE5 GAS PUSH0 0x2E DUP13 PUSH5 0x736F6C6343 STOP ADDMOD EQ STOP CALLER 0x2F DUP8 DUP9 GT PUSH31 0x7EFF1D82E926EC794901D17C78024A50270940304540A733656F0D00000000 "
				},
				"gasEstimates": {
					"creation": {
						"codeDepositCost": "1919600",
						"executionCost": "infinite",
						"totalCost": "infinite"
					},
					"external": {
						"ADMIN_ROLE()": "549",
						"AI_ORACLE_ROLE()": "845",
						"DEFAULT_ADMIN_ROLE()": "680",
						"DISPUTE_RESOLVER_ROLE()": "791",
						"MAX_SCORE()": "219",
						"MILESTONE_APPROVER_ROLE()": "659",
						"MIN_SCORE()": "372",
						"SCORE_VALIDITY_PERIOD()": "703",
						"TREASURY_MANAGER_ROLE()": "945",
						"authorizedOracles(address)": "2726",
						"getAIScore(uint256)": "infinite",
						"getAllRoles()": "infinite",
						"getDetailedAIScore(uint256)": "infinite",
						"getOracleStats(address)": "5271",
						"getRoleAdmin(bytes32)": "2370",
						"getRoleCount(address)": "infinite",
						"getScoringBreakdown(uint256)": "infinite",
						"grantMultipleRoles(address,bytes32[])": "infinite",
						"grantRole(bytes32,address)": "33338",
						"hasAIScore(uint256)": "2878",
						"hasAnyRole(address,bytes32[])": "infinite",
						"hasRole(bytes32,address)": "2946",
						"oracleScoreCount(address)": "2780",
						"pause()": "30170",
						"paused()": "2554",
						"removeScore(uint256,string)": "infinite",
						"renounceRole(bytes32,address)": "28950",
						"revokeMultipleRoles(address,bytes32[])": "infinite",
						"revokeRole(bytes32,address)": "33923",
						"scoringWeights()": "2624",
						"setOracleAuthorization(address,bool)": "infinite",
						"setSupportedModel(string,bool)": "infinite",
						"submitAIScore(uint256,uint256,string,string,(uint8,uint8,uint8,uint8,uint8))": "infinite",
						"supportedModels(string)": "infinite",
						"supportsInterface(bytes4)": "270",
						"totalScoresSubmitted()": "2432",
						"unpause()": "27823",
						"updateAIScore(uint256,uint256,string,string)": "infinite",
						"updateScoringCriteria((uint8,uint8,uint8,uint8,uint8))": "infinite"
					}
				},
				"methodIdentifiers": {
					"ADMIN_ROLE()": "75b238fc",
					"AI_ORACLE_ROLE()": "c601f7af",
					"DEFAULT_ADMIN_ROLE()": "a217fddf",
					"DISPUTE_RESOLVER_ROLE()": "bfe42a37",
					"MAX_SCORE()": "27ff6223",
					"MILESTONE_APPROVER_ROLE()": "a02d72fb",
					"MIN_SCORE()": "40b89270",
					"SCORE_VALIDITY_PERIOD()": "a91ad18e",
					"TREASURY_MANAGER_ROLE()": "ebdf690f",
					"authorizedOracles(address)": "61c992a3",
					"getAIScore(uint256)": "0311b82d",
					"getAllRoles()": "f2bcac3d",
					"getDetailedAIScore(uint256)": "ea535940",
					"getOracleStats(address)": "c772a8a6",
					"getRoleAdmin(bytes32)": "248a9ca3",
					"getRoleCount(address)": "aca5a8a7",
					"getScoringBreakdown(uint256)": "cfe85a2f",
					"grantMultipleRoles(address,bytes32[])": "91b9f9d8",
					"grantRole(bytes32,address)": "2f2ff15d",
					"hasAIScore(uint256)": "96caac0a",
					"hasAnyRole(address,bytes32[])": "68ca78f9",
					"hasRole(bytes32,address)": "91d14854",
					"oracleScoreCount(address)": "7131f025",
					"pause()": "8456cb59",
					"paused()": "5c975abb",
					"removeScore(uint256,string)": "b8a956d3",
					"renounceRole(bytes32,address)": "36568abe",
					"revokeMultipleRoles(address,bytes32[])": "4fe9d1f5",
					"revokeRole(bytes32,address)": "d547741f",
					"scoringWeights()": "4da89fbd",
					"setOracleAuthorization(address,bool)": "d5c1a1e1",
					"setSupportedModel(string,bool)": "ba340773",
					"submitAIScore(uint256,uint256,string,string,(uint8,uint8,uint8,uint8,uint8))": "7092b0bc",
					"supportedModels(string)": "2ed49cf7",
					"supportsInterface(bytes4)": "01ffc9a7",
					"totalScoresSubmitted()": "3a1e017f",
					"unpause()": "3f4ba83a",
					"updateAIScore(uint256,uint256,string,string)": "2b116373",
					"updateScoringCriteria((uint8,uint8,uint8,uint8,uint8))": "ff8dea01"
				}
			},
			"storageLayout": {
				"storage": [
					{
						"astId": 27,
						"contract": "CrossFi-Treasury-Guard/contracts/AIScoreRegistry.sol:AIScoreRegistry",
						"label": "_roles",
						"offset": 0,
						"slot": "0",
						"type": "t_mapping(t_bytes32,t_struct(RoleData)22_storage)"
					},
					{
						"astId": 397,
						"contract": "CrossFi-Treasury-Guard/contracts/AIScoreRegistry.sol:AIScoreRegistry",
						"label": "_paused",
						"offset": 0,
						"slot": "1",
						"type": "t_bool"
					},
					{
						"astId": 498,
						"contract": "CrossFi-Treasury-Guard/contracts/AIScoreRegistry.sol:AIScoreRegistry",
						"label": "_status",
						"offset": 0,
						"slot": "2",
						"type": "t_uint256"
					},
					{
						"astId": 667,
						"contract": "CrossFi-Treasury-Guard/contracts/AIScoreRegistry.sol:AIScoreRegistry",
						"label": "aiScores",
						"offset": 0,
						"slot": "3",
						"type": "t_mapping(t_uint256,t_struct(AIScoreData)662_storage)"
					},
					{
						"astId": 671,
						"contract": "CrossFi-Treasury-Guard/contracts/AIScoreRegistry.sol:AIScoreRegistry",
						"label": "authorizedOracles",
						"offset": 0,
						"slot": "4",
						"type": "t_mapping(t_address,t_bool)"
					},
					{
						"astId": 675,
						"contract": "CrossFi-Treasury-Guard/contracts/AIScoreRegistry.sol:AIScoreRegistry",
						"label": "supportedModels",
						"offset": 0,
						"slot": "5",
						"type": "t_mapping(t_string_memory_ptr,t_bool)"
					},
					{
						"astId": 678,
						"contract": "CrossFi-Treasury-Guard/contracts/AIScoreRegistry.sol:AIScoreRegistry",
						"label": "scoringWeights",
						"offset": 0,
						"slot": "6",
						"type": "t_struct(ScoringCriteria)644_storage"
					},
					{
						"astId": 689,
						"contract": "CrossFi-Treasury-Guard/contracts/AIScoreRegistry.sol:AIScoreRegistry",
						"label": "totalScoresSubmitted",
						"offset": 0,
						"slot": "7",
						"type": "t_uint256"
					},
					{
						"astId": 693,
						"contract": "CrossFi-Treasury-Guard/contracts/AIScoreRegistry.sol:AIScoreRegistry",
						"label": "oracleScoreCount",
						"offset": 0,
						"slot": "8",
						"type": "t_mapping(t_address,t_uint256)"
					}
				],
				"types": {
					"t_address": {
						"encoding": "inplace",
						"label": "address",
						"numberOfBytes": "20"
					},
					"t_bool": {
						"encoding": "inplace",
						"label": "bool",
						"numberOfBytes": "1"
					},
					"t_bytes32": {
						"encoding": "inplace",
						"label": "bytes32",
						"numberOfBytes": "32"
					},
					"t_mapping(t_address,t_bool)": {
						"encoding": "mapping",
						"key": "t_address",
						"label": "mapping(address => bool)",
						"numberOfBytes": "32",
						"value": "t_bool"
					},
					"t_mapping(t_address,t_uint256)": {
						"encoding": "mapping",
						"key": "t_address",
						"label": "mapping(address => uint256)",
						"numberOfBytes": "32",
						"value": "t_uint256"
					},
					"t_mapping(t_bytes32,t_struct(RoleData)22_storage)": {
						"encoding": "mapping",
						"key": "t_bytes32",
						"label": "mapping(bytes32 => struct AccessControl.RoleData)",
						"numberOfBytes": "32",
						"value": "t_struct(RoleData)22_storage"
					},
					"t_mapping(t_string_memory_ptr,t_bool)": {
						"encoding": "mapping",
						"key": "t_string_memory_ptr",
						"label": "mapping(string => bool)",
						"numberOfBytes": "32",
						"value": "t_bool"
					},
					"t_mapping(t_uint256,t_struct(AIScoreData)662_storage)": {
						"encoding": "mapping",
						"key": "t_uint256",
						"label": "mapping(uint256 => struct AIScoreRegistry.AIScoreData)",
						"numberOfBytes": "32",
						"value": "t_struct(AIScoreData)662_storage"
					},
					"t_string_memory_ptr": {
						"encoding": "bytes",
						"label": "string",
						"numberOfBytes": "32"
					},
					"t_string_storage": {
						"encoding": "bytes",
						"label": "string",
						"numberOfBytes": "32"
					},
					"t_struct(AIScoreData)662_storage": {
						"encoding": "inplace",
						"label": "struct AIScoreRegistry.AIScoreData",
						"members": [
							{
								"astId": 646,
								"contract": "CrossFi-Treasury-Guard/contracts/AIScoreRegistry.sol:AIScoreRegistry",
								"label": "proposalId",
								"offset": 0,
								"slot": "0",
								"type": "t_uint256"
							},
							{
								"astId": 648,
								"contract": "CrossFi-Treasury-Guard/contracts/AIScoreRegistry.sol:AIScoreRegistry",
								"label": "overallScore",
								"offset": 0,
								"slot": "1",
								"type": "t_uint256"
							},
							{
								"astId": 650,
								"contract": "CrossFi-Treasury-Guard/contracts/AIScoreRegistry.sol:AIScoreRegistry",
								"label": "justificationIPFS",
								"offset": 0,
								"slot": "2",
								"type": "t_string_storage"
							},
							{
								"astId": 652,
								"contract": "CrossFi-Treasury-Guard/contracts/AIScoreRegistry.sol:AIScoreRegistry",
								"label": "modelVersion",
								"offset": 0,
								"slot": "3",
								"type": "t_string_storage"
							},
							{
								"astId": 654,
								"contract": "CrossFi-Treasury-Guard/contracts/AIScoreRegistry.sol:AIScoreRegistry",
								"label": "timestamp",
								"offset": 0,
								"slot": "4",
								"type": "t_uint256"
							},
							{
								"astId": 656,
								"contract": "CrossFi-Treasury-Guard/contracts/AIScoreRegistry.sol:AIScoreRegistry",
								"label": "oracle",
								"offset": 0,
								"slot": "5",
								"type": "t_address"
							},
							{
								"astId": 658,
								"contract": "CrossFi-Treasury-Guard/contracts/AIScoreRegistry.sol:AIScoreRegistry",
								"label": "exists",
								"offset": 20,
								"slot": "5",
								"type": "t_bool"
							},
							{
								"astId": 661,
								"contract": "CrossFi-Treasury-Guard/contracts/AIScoreRegistry.sol:AIScoreRegistry",
								"label": "breakdown",
								"offset": 0,
								"slot": "6",
								"type": "t_struct(ScoringBreakdown)1394_storage"
							}
						],
						"numberOfBytes": "224"
					},
					"t_struct(RoleData)22_storage": {
						"encoding": "inplace",
						"label": "struct AccessControl.RoleData",
						"members": [
							{
								"astId": 19,
								"contract": "CrossFi-Treasury-Guard/contracts/AIScoreRegistry.sol:AIScoreRegistry",
								"label": "hasRole",
								"offset": 0,
								"slot": "0",
								"type": "t_mapping(t_address,t_bool)"
							},
							{
								"astId": 21,
								"contract": "CrossFi-Treasury-Guard/contracts/AIScoreRegistry.sol:AIScoreRegistry",
								"label": "adminRole",
								"offset": 0,
								"slot": "1",
								"type": "t_bytes32"
							}
						],
						"numberOfBytes": "64"
					},
					"t_struct(ScoringBreakdown)1394_storage": {
						"encoding": "inplace",
						"label": "struct IAIScoreRegistry.ScoringBreakdown",
						"members": [
							{
								"astId": 1385,
								"contract": "CrossFi-Treasury-Guard/contracts/AIScoreRegistry.sol:AIScoreRegistry",
								"label": "ecosystemScore",
								"offset": 0,
								"slot": "0",
								"type": "t_uint8"
							},
							{
								"astId": 1387,
								"contract": "CrossFi-Treasury-Guard/contracts/AIScoreRegistry.sol:AIScoreRegistry",
								"label": "feasibilityScore",
								"offset": 1,
								"slot": "0",
								"type": "t_uint8"
							},
							{
								"astId": 1389,
								"contract": "CrossFi-Treasury-Guard/contracts/AIScoreRegistry.sol:AIScoreRegistry",
								"label": "riskScore",
								"offset": 2,
								"slot": "0",
								"type": "t_uint8"
							},
							{
								"astId": 1391,
								"contract": "CrossFi-Treasury-Guard/contracts/AIScoreRegistry.sol:AIScoreRegistry",
								"label": "teamScore",
								"offset": 3,
								"slot": "0",
								"type": "t_uint8"
							},
							{
								"astId": 1393,
								"contract": "CrossFi-Treasury-Guard/contracts/AIScoreRegistry.sol:AIScoreRegistry",
								"label": "innovationScore",
								"offset": 4,
								"slot": "0",
								"type": "t_uint8"
							}
						],
						"numberOfBytes": "32"
					},
					"t_struct(ScoringCriteria)644_storage": {
						"encoding": "inplace",
						"label": "struct AIScoreRegistry.ScoringCriteria",
						"members": [
							{
								"astId": 635,
								"contract": "CrossFi-Treasury-Guard/contracts/AIScoreRegistry.sol:AIScoreRegistry",
								"label": "ecosystemContribution",
								"offset": 0,
								"slot": "0",
								"type": "t_uint8"
							},
							{
								"astId": 637,
								"contract": "CrossFi-Treasury-Guard/contracts/AIScoreRegistry.sol:AIScoreRegistry",
								"label": "feasibility",
								"offset": 1,
								"slot": "0",
								"type": "t_uint8"
							},
							{
								"astId": 639,
								"contract": "CrossFi-Treasury-Guard/contracts/AIScoreRegistry.sol:AIScoreRegistry",
								"label": "riskAssessment",
								"offset": 2,
								"slot": "0",
								"type": "t_uint8"
							},
							{
								"astId": 641,
								"contract": "CrossFi-Treasury-Guard/contracts/AIScoreRegistry.sol:AIScoreRegistry",
								"label": "teamReputation",
								"offset": 3,
								"slot": "0",
								"type": "t_uint8"
							},
							{
								"astId": 643,
								"contract": "CrossFi-Treasury-Guard/contracts/AIScoreRegistry.sol:AIScoreRegistry",
								"label": "innovation",
								"offset": 4,
								"slot": "0",
								"type": "t_uint8"
							}
						],
						"numberOfBytes": "32"
					},
					"t_uint256": {
						"encoding": "inplace",
						"label": "uint256",
						"numberOfBytes": "32"
					},
					"t_uint8": {
						"encoding": "inplace",
						"label": "uint8",
						"numberOfBytes": "1"
					}
				}
			},
			"userdoc": {
				"kind": "user",
				"methods": {},
				"version": 1
			}
		}
	}
}