{
	"CrossFi-Treasury-Guard/contracts/utils/ExtendedAccessControl.sol": {
		"ExtendedAccessControl": {
			"abi": [
				{
					"inputs": [],
					"stateMutability": "nonpayable",
					"type": "constructor"
				},
				{
					"inputs": [],
					"name": "AccessControlBadConfirmation",
					"type": "error"
				},
				{
					"inputs": [
						{
							"internalType": "address",
							"name": "account",
							"type": "address"
						},
						{
							"internalType": "bytes32",
							"name": "neededRole",
							"type": "bytes32"
						}
					],
					"name": "AccessControlUnauthorizedAccount",
					"type": "error"
				},
				{
					"anonymous": false,
					"inputs": [
						{
							"indexed": true,
							"internalType": "bytes32",
							"name": "role",
							"type": "bytes32"
						},
						{
							"indexed": true,
							"internalType": "bytes32",
							"name": "previousAdminRole",
							"type": "bytes32"
						},
						{
							"indexed": true,
							"internalType": "bytes32",
							"name": "newAdminRole",
							"type": "bytes32"
						}
					],
					"name": "RoleAdminChanged",
					"type": "event"
				},
				{
					"anonymous": false,
					"inputs": [
						{
							"indexed": true,
							"internalType": "bytes32",
							"name": "role",
							"type": "bytes32"
						},
						{
							"indexed": true,
							"internalType": "address",
							"name": "account",
							"type": "address"
						},
						{
							"indexed": true,
							"internalType": "address",
							"name": "sender",
							"type": "address"
						}
					],
					"name": "RoleGranted",
					"type": "event"
				},
				{
					"anonymous": false,
					"inputs": [
						{
							"indexed": true,
							"internalType": "bytes32",
							"name": "role",
							"type": "bytes32"
						},
						{
							"indexed": true,
							"internalType": "address",
							"name": "account",
							"type": "address"
						},
						{
							"indexed": true,
							"internalType": "address",
							"name": "sender",
							"type": "address"
						}
					],
					"name": "RoleRevoked",
					"type": "event"
				},
				{
					"inputs": [],
					"name": "ADMIN_ROLE",
					"outputs": [
						{
							"internalType": "bytes32",
							"name": "",
							"type": "bytes32"
						}
					],
					"stateMutability": "view",
					"type": "function"
				},
				{
					"inputs": [],
					"name": "AI_ORACLE_ROLE",
					"outputs": [
						{
							"internalType": "bytes32",
							"name": "",
							"type": "bytes32"
						}
					],
					"stateMutability": "view",
					"type": "function"
				},
				{
					"inputs": [],
					"name": "DEFAULT_ADMIN_ROLE",
					"outputs": [
						{
							"internalType": "bytes32",
							"name": "",
							"type": "bytes32"
						}
					],
					"stateMutability": "view",
					"type": "function"
				},
				{
					"inputs": [],
					"name": "DISPUTE_RESOLVER_ROLE",
					"outputs": [
						{
							"internalType": "bytes32",
							"name": "",
							"type": "bytes32"
						}
					],
					"stateMutability": "view",
					"type": "function"
				},
				{
					"inputs": [],
					"name": "MILESTONE_APPROVER_ROLE",
					"outputs": [
						{
							"internalType": "bytes32",
							"name": "",
							"type": "bytes32"
						}
					],
					"stateMutability": "view",
					"type": "function"
				},
				{
					"inputs": [],
					"name": "TREASURY_MANAGER_ROLE",
					"outputs": [
						{
							"internalType": "bytes32",
							"name": "",
							"type": "bytes32"
						}
					],
					"stateMutability": "view",
					"type": "function"
				},
				{
					"inputs": [],
					"name": "getAllRoles",
					"outputs": [
						{
							"internalType": "bytes32[]",
							"name": "roles",
							"type": "bytes32[]"
						}
					],
					"stateMutability": "pure",
					"type": "function"
				},
				{
					"inputs": [
						{
							"internalType": "bytes32",
							"name": "role",
							"type": "bytes32"
						}
					],
					"name": "getRoleAdmin",
					"outputs": [
						{
							"internalType": "bytes32",
							"name": "",
							"type": "bytes32"
						}
					],
					"stateMutability": "view",
					"type": "function"
				},
				{
					"inputs": [
						{
							"internalType": "address",
							"name": "account",
							"type": "address"
						}
					],
					"name": "getRoleCount",
					"outputs": [
						{
							"internalType": "uint256",
							"name": "roleCount",
							"type": "uint256"
						}
					],
					"stateMutability": "view",
					"type": "function"
				},
				{
					"inputs": [
						{
							"internalType": "address",
							"name": "account",
							"type": "address"
						},
						{
							"internalType": "bytes32[]",
							"name": "roles",
							"type": "bytes32[]"
						}
					],
					"name": "grantMultipleRoles",
					"outputs": [],
					"stateMutability": "nonpayable",
					"type": "function"
				},
				{
					"inputs": [
						{
							"internalType": "bytes32",
							"name": "role",
							"type": "bytes32"
						},
						{
							"internalType": "address",
							"name": "account",
							"type": "address"
						}
					],
					"name": "grantRole",
					"outputs": [],
					"stateMutability": "nonpayable",
					"type": "function"
				},
				{
					"inputs": [
						{
							"internalType": "address",
							"name": "account",
							"type": "address"
						},
						{
							"internalType": "bytes32[]",
							"name": "roles",
							"type": "bytes32[]"
						}
					],
					"name": "hasAnyRole",
					"outputs": [
						{
							"internalType": "bool",
							"name": "",
							"type": "bool"
						}
					],
					"stateMutability": "view",
					"type": "function"
				},
				{
					"inputs": [
						{
							"internalType": "bytes32",
							"name": "role",
							"type": "bytes32"
						},
						{
							"internalType": "address",
							"name": "account",
							"type": "address"
						}
					],
					"name": "hasRole",
					"outputs": [
						{
							"internalType": "bool",
							"name": "",
							"type": "bool"
						}
					],
					"stateMutability": "view",
					"type": "function"
				},
				{
					"inputs": [
						{
							"internalType": "bytes32",
							"name": "role",
							"type": "bytes32"
						},
						{
							"internalType": "address",
							"name": "callerConfirmation",
							"type": "address"
						}
					],
					"name": "renounceRole",
					"outputs": [],
					"stateMutability": "nonpayable",
					"type": "function"
				},
				{
					"inputs": [
						{
							"internalType": "address",
							"name": "account",
							"type": "address"
						},
						{
							"internalType": "bytes32[]",
							"name": "roles",
							"type": "bytes32[]"
						}
					],
					"name": "revokeMultipleRoles",
					"outputs": [],
					"stateMutability": "nonpayable",
					"type": "function"
				},
				{
					"inputs": [
						{
							"internalType": "bytes32",
							"name": "role",
							"type": "bytes32"
						},
						{
							"internalType": "address",
							"name": "account",
							"type": "address"
						}
					],
					"name": "revokeRole",
					"outputs": [],
					"stateMutability": "nonpayable",
					"type": "function"
				},
				{
					"inputs": [
						{
							"internalType": "bytes4",
							"name": "interfaceId",
							"type": "bytes4"
						}
					],
					"name": "supportsInterface",
					"outputs": [
						{
							"internalType": "bool",
							"name": "",
							"type": "bool"
						}
					],
					"stateMutability": "view",
					"type": "function"
				}
			],
			"devdoc": {
				"details": "Extended access control with custom roles for CrossFi Treasury Guard",
				"errors": {
					"AccessControlBadConfirmation()": [
						{
							"details": "The caller of a function is not the expected one. NOTE: Don't confuse with {AccessControlUnauthorizedAccount}."
						}
					],
					"AccessControlUnauthorizedAccount(address,bytes32)": [
						{
							"details": "The `account` is missing a role."
						}
					]
				},
				"events": {
					"RoleAdminChanged(bytes32,bytes32,bytes32)": {
						"details": "Emitted when `newAdminRole` is set as ``role``'s admin role, replacing `previousAdminRole` `DEFAULT_ADMIN_ROLE` is the starting admin for all roles, despite {RoleAdminChanged} not being emitted to signal this."
					},
					"RoleGranted(bytes32,address,address)": {
						"details": "Emitted when `account` is granted `role`. `sender` is the account that originated the contract call. This account bears the admin role (for the granted role). Expected in cases where the role was granted using the internal {AccessControl-_grantRole}."
					},
					"RoleRevoked(bytes32,address,address)": {
						"details": "Emitted when `account` is revoked `role`. `sender` is the account that originated the contract call:   - if using `revokeRole`, it is the admin role bearer   - if using `renounceRole`, it is the role bearer (i.e. `account`)"
					}
				},
				"kind": "dev",
				"methods": {
					"getAllRoles()": {
						"details": "Get all available roles",
						"returns": {
							"roles": "Array of all role identifiers"
						}
					},
					"getRoleAdmin(bytes32)": {
						"details": "Returns the admin role that controls `role`. See {grantRole} and {revokeRole}. To change a role's admin, use {_setRoleAdmin}."
					},
					"getRoleCount(address)": {
						"details": "Get all roles for an account",
						"params": {
							"account": "Account to check"
						},
						"returns": {
							"roleCount": "Number of roles the account has"
						}
					},
					"grantMultipleRoles(address,bytes32[])": {
						"details": "Grant multiple roles to an account",
						"params": {
							"account": "Account to grant roles to",
							"roles": "Array of role identifiers"
						}
					},
					"grantRole(bytes32,address)": {
						"details": "Grants `role` to `account`. If `account` had not been already granted `role`, emits a {RoleGranted} event. Requirements: - the caller must have ``role``'s admin role. May emit a {RoleGranted} event."
					},
					"hasAnyRole(address,bytes32[])": {
						"details": "Check if account has any of the specified roles",
						"params": {
							"account": "Account to check",
							"roles": "Array of role identifiers"
						},
						"returns": {
							"_0": "hasAnyRole True if account has at least one of the roles"
						}
					},
					"hasRole(bytes32,address)": {
						"details": "Returns `true` if `account` has been granted `role`."
					},
					"renounceRole(bytes32,address)": {
						"details": "Revokes `role` from the calling account. Roles are often managed via {grantRole} and {revokeRole}: this function's purpose is to provide a mechanism for accounts to lose their privileges if they are compromised (such as when a trusted device is misplaced). If the calling account had been revoked `role`, emits a {RoleRevoked} event. Requirements: - the caller must be `callerConfirmation`. May emit a {RoleRevoked} event."
					},
					"revokeMultipleRoles(address,bytes32[])": {
						"details": "Revoke multiple roles from an account",
						"params": {
							"account": "Account to revoke roles from",
							"roles": "Array of role identifiers"
						}
					},
					"revokeRole(bytes32,address)": {
						"details": "Revokes `role` from `account`. If `account` had been granted `role`, emits a {RoleRevoked} event. Requirements: - the caller must have ``role``'s admin role. May emit a {RoleRevoked} event."
					},
					"supportsInterface(bytes4)": {
						"details": "Returns true if this contract implements the interface defined by `interfaceId`. See the corresponding https://eips.ethereum.org/EIPS/eip-165#how-interfaces-are-identified[ERC section] to learn more about how these ids are created. This function call must use less than 30 000 gas."
					}
				},
				"title": "AccessControl",
				"version": 1
			},
			"evm": {
				"assembly": "    /* \"CrossFi-Treasury-Guard/contracts/utils/ExtendedAccessControl.sol\":227:3089  contract ExtendedAccessControl is AccessControl {... */\n  mstore(0x40, 0x80)\n  jumpi(tag_2, callvalue)\n    /* \"CrossFi-Treasury-Guard/contracts/utils/ExtendedAccessControl.sol\":744:786  _grantRole(DEFAULT_ADMIN_ROLE, msg.sender) */\n  tag_4\n    /* \"CrossFi-Treasury-Guard/contracts/utils/ExtendedAccessControl.sol\":775:785  msg.sender */\n  caller\n    /* \"CrossFi-Treasury-Guard/contracts/utils/ExtendedAccessControl.sol\":744:786  _grantRole(DEFAULT_ADMIN_ROLE, msg.sender) */\n  tag_1\n  jump\t// in\ntag_4:\n  pop\n    /* \"CrossFi-Treasury-Guard/contracts/utils/ExtendedAccessControl.sol\":227:3089  contract ExtendedAccessControl is AccessControl {... */\n  mload(0x40)\n  dataSize(sub_0)\n  swap1\n  dup2\n  dataOffset(sub_0)\n  dup3\n  codecopy\n  return\ntag_2:\n  0x00\n  dup1\n  revert\n    /* \"@openzeppelin/contracts/access/AccessControl.sol\":6155:6471  function _grantRole(bytes32 role, address account) internal virtual returns (bool) {... */\ntag_1:\n  sub(shl(0xa0, 0x01), 0x01)\n    /* \"CrossFi-Treasury-Guard/contracts/utils/ExtendedAccessControl.sol\":227:3089  contract ExtendedAccessControl is AccessControl {... */\n  dup2\n  and\n    /* \"@openzeppelin/contracts/access/AccessControl.sol\":2241:2245  0x00 */\n  0x00\n    /* \"CrossFi-Treasury-Guard/contracts/utils/ExtendedAccessControl.sol\":227:3089  contract ExtendedAccessControl is AccessControl {... */\n  swap1\n  dup2\n  mstore\n  0x00\n  dup1\n  mload\n  0x20\n  data_f0df3dcda05b4fbd9c655cde3d5ceb211e019e72ec816e127a59e7195f2cd7f5\n  dup4\n  codecopy\n  dup2\n  mload\n  swap2\n  mstore\n  0x20\n  mstore\n  0x40\n  swap1\n  keccak256\n  sload\n  0xff\n  and\n  tag_5\n  jumpi\n  sub(shl(0xa0, 0x01), 0x01)\n  and\n    /* \"@openzeppelin/contracts/access/AccessControl.sol\":2241:2245  0x00 */\n  0x00\n    /* \"CrossFi-Treasury-Guard/contracts/utils/ExtendedAccessControl.sol\":227:3089  contract ExtendedAccessControl is AccessControl {... */\n  dup2\n  dup2\n  mstore\n  0x00\n  dup1\n  mload\n  0x20\n  data_f0df3dcda05b4fbd9c655cde3d5ceb211e019e72ec816e127a59e7195f2cd7f5\n  dup4\n  codecopy\n  dup2\n  mload\n  swap2\n  mstore\n  0x20\n  mstore\n  0x40\n  dup2\n  keccak256\n  dup1\n  sload\n  not(0xff)\n  and\n  0x01\n  or\n  swap1\n  sstore\n    /* \"@openzeppelin/contracts/utils/Context.sol\":735:745  msg.sender */\n  caller\n  swap2\n    /* \"CrossFi-Treasury-Guard/contracts/utils/ExtendedAccessControl.sol\":227:3089  contract ExtendedAccessControl is AccessControl {... */\n  swap1\n    /* \"@openzeppelin/contracts/access/AccessControl.sol\":6346:6386  RoleGranted(role, account, _msgSender()) */\n  0x2f8788117e7eff1d82e926ec794901d17c78024a50270940304540a733656f0d\n    /* \"@openzeppelin/contracts/access/AccessControl.sol\":2241:2245  0x00 */\n  dup2\n  dup1\n    /* \"@openzeppelin/contracts/access/AccessControl.sol\":6346:6386  RoleGranted(role, account, _msgSender()) */\n  log4\n    /* \"@openzeppelin/contracts/access/AccessControl.sol\":6323:6327  true */\n  0x01\n    /* \"@openzeppelin/contracts/access/AccessControl.sol\":6400:6411  return true */\n  swap1\n  jump\t// out\n    /* \"@openzeppelin/contracts/access/AccessControl.sol\":6248:6465  if (!hasRole(role, account)) {... */\ntag_5:\n    /* \"@openzeppelin/contracts/access/AccessControl.sol\":6442:6454  return false */\n  pop\n    /* \"@openzeppelin/contracts/access/AccessControl.sol\":2241:2245  0x00 */\n  0x00\n    /* \"@openzeppelin/contracts/access/AccessControl.sol\":6442:6454  return false */\n  swap1\n  jump\t// out\nstop\ndata_f0df3dcda05b4fbd9c655cde3d5ceb211e019e72ec816e127a59e7195f2cd7f5 ad3228b676f7d3cd4284a5443f17f1962b36e491b30a40b2405849e597ba5fb5\n\nsub_0: assembly {\n        /* \"CrossFi-Treasury-Guard/contracts/utils/ExtendedAccessControl.sol\":227:3089  contract ExtendedAccessControl is AccessControl {... */\n      0x80\n      dup1\n      0x40\n      mstore\n      jumpi(tag_13, iszero(lt(calldatasize, 0x04)))\n      0x00\n      dup1\n      revert\n    tag_13:\n      shr(0xe0, calldataload(0x00))\n      swap1\n      dup2\n      0x01ffc9a7\n      eq\n      tag_15\n      jumpi\n      pop\n      dup1\n      0x248a9ca3\n      eq\n      tag_17\n      jumpi\n      dup1\n      0x2f2ff15d\n      eq\n      tag_19\n      jumpi\n      dup1\n      0x36568abe\n      eq\n      tag_21\n      jumpi\n      dup1\n      0x4fe9d1f5\n      eq\n      tag_23\n      jumpi\n      dup1\n      0x68ca78f9\n      eq\n      tag_25\n      jumpi\n      dup1\n      0x75b238fc\n      eq\n      tag_27\n      jumpi\n      dup1\n      0x91b9f9d8\n      eq\n      tag_29\n      jumpi\n      dup1\n      0x91d14854\n      eq\n      tag_31\n      jumpi\n      dup1\n      0xa02d72fb\n      eq\n      tag_33\n      jumpi\n      dup1\n      0xa217fddf\n      eq\n      tag_35\n      jumpi\n      dup1\n      0xaca5a8a7\n      eq\n      tag_37\n      jumpi\n      dup1\n      0xbfe42a37\n      eq\n      tag_39\n      jumpi\n      dup1\n      0xc601f7af\n      eq\n      tag_41\n      jumpi\n      dup1\n      0xd547741f\n      eq\n      tag_43\n      jumpi\n      dup1\n      0xebdf690f\n      eq\n      tag_45\n      jumpi\n      0xf2bcac3d\n      eq\n      tag_47\n      jumpi\n      0x00\n      dup1\n      revert\n    tag_47:\n      jumpi(tag_51, callvalue)\n      jumpi(tag_51, slt(add(not(0x03), calldatasize), 0x00))\n      tag_53\n      tag_8\n      jump\t// in\n    tag_53:\n      mload(0x40)\n      dup1\n      swap2\n      0x20\n      dup3\n      add\n      0x20\n      dup4\n      mstore\n      dup2\n      mload\n      dup1\n      swap2\n      mstore\n      0x20\n      0x40\n      dup5\n      add\n      swap3\n      add\n      swap1\n      0x00\n    tag_54:\n      dup2\n      dup2\n      lt\n      tag_55\n      jumpi\n      pop\n      pop\n      pop\n      sub\n      swap1\n      return\n    tag_55:\n      dup3\n      mload\n      dup5\n      mstore\n      dup6\n      swap5\n      pop\n      0x20\n      swap4\n      dup5\n      add\n      swap4\n      swap1\n      swap3\n      add\n      swap2\n      0x01\n      add\n      jump(tag_54)\n    tag_51:\n      0x00\n      dup1\n      revert\n    tag_45:\n      jumpi(tag_51, callvalue)\n      jumpi(tag_51, slt(add(not(0x03), calldatasize), 0x00))\n      0x20\n      mload(0x40)\n        /* \"CrossFi-Treasury-Guard/contracts/utils/ExtendedAccessControl.sol\":494:528  keccak256(\"TREASURY_MANAGER_ROLE\") */\n      0xede9dcdb0ce99dc7cec9c7be9246ad08b37853683ad91569c187b647ddf5e21c\n        /* \"CrossFi-Treasury-Guard/contracts/utils/ExtendedAccessControl.sol\":227:3089  contract ExtendedAccessControl is AccessControl {... */\n      dup2\n      mstore\n      return\n    tag_43:\n      jumpi(tag_51, callvalue)\n      jumpi(tag_51, slt(add(not(0x03), calldatasize), 0x40))\n        /* \"@openzeppelin/contracts/access/AccessControl.sol\":4723:4749  _revokeRole(role, account) */\n      tag_65\n        /* \"CrossFi-Treasury-Guard/contracts/utils/ExtendedAccessControl.sol\":227:3089  contract ExtendedAccessControl is AccessControl {... */\n      calldataload(0x04)\n      tag_66\n      tag_1\n      jump\t// in\n    tag_66:\n        /* \"@openzeppelin/contracts/access/AccessControl.sol\":4693:4711  getRoleAdmin(role) */\n      swap1\n        /* \"@openzeppelin/contracts/access/AccessControl.sol\":2484:2488  role */\n      tag_67\n        /* \"@openzeppelin/contracts/access/AccessControl.sol\":4693:4711  getRoleAdmin(role) */\n      tag_68\n      dup3\n        /* \"@openzeppelin/contracts/access/AccessControl.sol\":3877:3883  _roles */\n      0x00\n        /* \"CrossFi-Treasury-Guard/contracts/utils/ExtendedAccessControl.sol\":227:3089  contract ExtendedAccessControl is AccessControl {... */\n      mstore\n        /* \"@openzeppelin/contracts/access/AccessControl.sol\":3877:3883  _roles */\n      0x00\n        /* \"CrossFi-Treasury-Guard/contracts/utils/ExtendedAccessControl.sol\":227:3089  contract ExtendedAccessControl is AccessControl {... */\n      0x20\n      mstore\n        /* \"@openzeppelin/contracts/access/AccessControl.sol\":3877:3899  _roles[role].adminRole */\n      0x01\n        /* \"CrossFi-Treasury-Guard/contracts/utils/ExtendedAccessControl.sol\":227:3089  contract ExtendedAccessControl is AccessControl {... */\n      0x40\n        /* \"@openzeppelin/contracts/access/AccessControl.sol\":3877:3883  _roles */\n      0x00\n        /* \"CrossFi-Treasury-Guard/contracts/utils/ExtendedAccessControl.sol\":227:3089  contract ExtendedAccessControl is AccessControl {... */\n      keccak256\n        /* \"@openzeppelin/contracts/access/AccessControl.sol\":3877:3899  _roles[role].adminRole */\n      add\n        /* \"CrossFi-Treasury-Guard/contracts/utils/ExtendedAccessControl.sol\":227:3089  contract ExtendedAccessControl is AccessControl {... */\n      sload\n        /* \"@openzeppelin/contracts/access/AccessControl.sol\":3786:3906  function getRoleAdmin(bytes32 role) public view virtual returns (bytes32) {... */\n      swap1\n      jump\n        /* \"@openzeppelin/contracts/access/AccessControl.sol\":4693:4711  getRoleAdmin(role) */\n    tag_68:\n        /* \"@openzeppelin/contracts/access/AccessControl.sol\":2484:2488  role */\n      tag_10\n      jump\t// in\n    tag_67:\n        /* \"@openzeppelin/contracts/access/AccessControl.sol\":4723:4749  _revokeRole(role, account) */\n      tag_12\n      jump\t// in\n    tag_65:\n        /* \"CrossFi-Treasury-Guard/contracts/utils/ExtendedAccessControl.sol\":227:3089  contract ExtendedAccessControl is AccessControl {... */\n      stop\n    tag_41:\n      jumpi(tag_51, callvalue)\n      jumpi(tag_51, slt(add(not(0x03), calldatasize), 0x00))\n      0x20\n      mload(0x40)\n        /* \"CrossFi-Treasury-Guard/contracts/utils/ExtendedAccessControl.sol\":413:440  keccak256(\"AI_ORACLE_ROLE\") */\n      0x482648e7878e9fa54c0a2f67ffd22d00ebc37cf7a03e060e428d2ab0cd6735cc\n        /* \"CrossFi-Treasury-Guard/contracts/utils/ExtendedAccessControl.sol\":227:3089  contract ExtendedAccessControl is AccessControl {... */\n      dup2\n      mstore\n      return\n    tag_39:\n      jumpi(tag_51, callvalue)\n      jumpi(tag_51, slt(add(not(0x03), calldatasize), 0x00))\n      0x20\n      mload(0x40)\n        /* \"CrossFi-Treasury-Guard/contracts/utils/ExtendedAccessControl.sol\":674:708  keccak256(\"DISPUTE_RESOLVER_ROLE\") */\n      0x7b8bb8356a3f32f5c111ff23f050d97f08988e0883529ea7bff3b918887a6e0e\n        /* \"CrossFi-Treasury-Guard/contracts/utils/ExtendedAccessControl.sol\":227:3089  contract ExtendedAccessControl is AccessControl {... */\n      dup2\n      mstore\n      return\n    tag_37:\n      jumpi(tag_51, callvalue)\n      jumpi(tag_51, slt(add(not(0x03), calldatasize), 0x20))\n      calldataload(0x04)\n      sub(shl(0xa0, 0x01), 0x01)\n      dup2\n      and\n      dup2\n      sub\n      tag_51\n      jumpi\n        /* \"CrossFi-Treasury-Guard/contracts/utils/ExtendedAccessControl.sol\":2369:2382  getAllRoles() */\n      tag_83\n      tag_8\n      jump\t// in\n    tag_83:\n        /* \"CrossFi-Treasury-Guard/contracts/utils/ExtendedAccessControl.sol\":227:3089  contract ExtendedAccessControl is AccessControl {... */\n      0x00\n        /* \"CrossFi-Treasury-Guard/contracts/utils/ExtendedAccessControl.sol\":2433:2446  uint256 i = 0 */\n      swap2\n        /* \"CrossFi-Treasury-Guard/contracts/utils/ExtendedAccessControl.sol\":227:3089  contract ExtendedAccessControl is AccessControl {... */\n      0x00\n        /* \"CrossFi-Treasury-Guard/contracts/utils/ExtendedAccessControl.sol\":2469:2472  i++ */\n    tag_84:\n        /* \"CrossFi-Treasury-Guard/contracts/utils/ExtendedAccessControl.sol\":227:3089  contract ExtendedAccessControl is AccessControl {... */\n      dup3\n      mload\n        /* \"CrossFi-Treasury-Guard/contracts/utils/ExtendedAccessControl.sol\":2448:2467  i < allRoles.length */\n      dup2\n      lt\n      iszero\n      tag_85\n      jumpi\n        /* \"CrossFi-Treasury-Guard/contracts/utils/ExtendedAccessControl.sol\":2492:2521  hasRole(allRoles[i], account) */\n      tag_87\n        /* \"CrossFi-Treasury-Guard/contracts/utils/ExtendedAccessControl.sol\":2500:2511  allRoles[i] */\n      dup3\n      tag_88\n      dup4\n      dup7\n      tag_5\n      jump\t// in\n    tag_88:\n        /* \"CrossFi-Treasury-Guard/contracts/utils/ExtendedAccessControl.sol\":227:3089  contract ExtendedAccessControl is AccessControl {... */\n      mload\n        /* \"@openzeppelin/contracts/access/AccessControl.sol\":2930:2936  _roles */\n      0x00\n        /* \"CrossFi-Treasury-Guard/contracts/utils/ExtendedAccessControl.sol\":227:3089  contract ExtendedAccessControl is AccessControl {... */\n      mstore\n        /* \"@openzeppelin/contracts/access/AccessControl.sol\":2930:2936  _roles */\n      0x00\n        /* \"CrossFi-Treasury-Guard/contracts/utils/ExtendedAccessControl.sol\":227:3089  contract ExtendedAccessControl is AccessControl {... */\n      0x20\n      mstore\n      0x40\n        /* \"@openzeppelin/contracts/access/AccessControl.sol\":2930:2936  _roles */\n      0x00\n        /* \"CrossFi-Treasury-Guard/contracts/utils/ExtendedAccessControl.sol\":227:3089  contract ExtendedAccessControl is AccessControl {... */\n      keccak256\n        /* \"@openzeppelin/contracts/access/AccessControl.sol\":2930:2959  _roles[role].hasRole[account] */\n      swap1\n        /* \"CrossFi-Treasury-Guard/contracts/utils/ExtendedAccessControl.sol\":227:3089  contract ExtendedAccessControl is AccessControl {... */\n      0x01\n      dup1\n      0xa0\n      shl\n      sub\n      and\n      0x00\n      mstore\n      0x20\n      mstore\n      and(sload(keccak256(0x00, 0x40)), 0xff)\n        /* \"@openzeppelin/contracts/access/AccessControl.sol\":2830:2966  function hasRole(bytes32 role, address account) public view virtual returns (bool) {... */\n      swap1\n      jump\n        /* \"CrossFi-Treasury-Guard/contracts/utils/ExtendedAccessControl.sol\":2492:2521  hasRole(allRoles[i], account) */\n    tag_87:\n        /* \"CrossFi-Treasury-Guard/contracts/utils/ExtendedAccessControl.sol\":2488:2563  if (hasRole(allRoles[i], account)) {... */\n      tag_89\n      jumpi\n        /* \"CrossFi-Treasury-Guard/contracts/utils/ExtendedAccessControl.sol\":2469:2472  i++ */\n    tag_90:\n        /* \"CrossFi-Treasury-Guard/contracts/utils/ExtendedAccessControl.sol\":227:3089  contract ExtendedAccessControl is AccessControl {... */\n      0x01\n      add\n        /* \"CrossFi-Treasury-Guard/contracts/utils/ExtendedAccessControl.sol\":2433:2446  uint256 i = 0 */\n      jump(tag_84)\n        /* \"CrossFi-Treasury-Guard/contracts/utils/ExtendedAccessControl.sol\":2488:2563  if (hasRole(allRoles[i], account)) {... */\n    tag_89:\n        /* \"CrossFi-Treasury-Guard/contracts/utils/ExtendedAccessControl.sol\":227:3089  contract ExtendedAccessControl is AccessControl {... */\n      swap3\n      not(0x00)\n      dup2\n      eq\n      tag_91\n      jumpi\n      0x01\n      add\n      swap3\n        /* \"CrossFi-Treasury-Guard/contracts/utils/ExtendedAccessControl.sol\":2488:2563  if (hasRole(allRoles[i], account)) {... */\n      jump(tag_90)\n        /* \"CrossFi-Treasury-Guard/contracts/utils/ExtendedAccessControl.sol\":227:3089  contract ExtendedAccessControl is AccessControl {... */\n    tag_91:\n      mstore(0x00, shl(0xe0, 0x4e487b71))\n      mstore(0x04, 0x11)\n      revert(0x00, 0x24)\n        /* \"CrossFi-Treasury-Guard/contracts/utils/ExtendedAccessControl.sol\":2448:2467  i < allRoles.length */\n    tag_85:\n        /* \"CrossFi-Treasury-Guard/contracts/utils/ExtendedAccessControl.sol\":227:3089  contract ExtendedAccessControl is AccessControl {... */\n      0x20\n        /* \"CrossFi-Treasury-Guard/contracts/utils/ExtendedAccessControl.sol\":2448:2467  i < allRoles.length */\n      dup5\n        /* \"CrossFi-Treasury-Guard/contracts/utils/ExtendedAccessControl.sol\":227:3089  contract ExtendedAccessControl is AccessControl {... */\n      mload(0x40)\n      swap1\n      dup2\n      mstore\n      return\n    tag_35:\n      jumpi(tag_51, callvalue)\n      jumpi(tag_51, slt(add(not(0x03), calldatasize), 0x00))\n      0x20\n      mload(0x40)\n      0x00\n      dup2\n      mstore\n      return\n    tag_33:\n      jumpi(tag_51, callvalue)\n      jumpi(tag_51, slt(add(not(0x03), calldatasize), 0x00))\n      0x20\n      mload(0x40)\n        /* \"CrossFi-Treasury-Guard/contracts/utils/ExtendedAccessControl.sol\":584:620  keccak256(\"MILESTONE_APPROVER_ROLE\") */\n      0x58223cdfb69946630d837d40b5c366a584f0217ada7fddd8318f2e08603cfa22\n        /* \"CrossFi-Treasury-Guard/contracts/utils/ExtendedAccessControl.sol\":227:3089  contract ExtendedAccessControl is AccessControl {... */\n      dup2\n      mstore\n      return\n    tag_31:\n      jumpi(tag_51, callvalue)\n      jumpi(tag_51, slt(add(not(0x03), calldatasize), 0x40))\n      tag_105\n      tag_1\n      jump\t// in\n    tag_105:\n      mstore(0x00, calldataload(0x04))\n      mstore(0x20, 0x00)\n      keccak256(0x00, 0x40)\n        /* \"@openzeppelin/contracts/access/AccessControl.sol\":2930:2959  _roles[role].hasRole[account] */\n      swap1\n        /* \"CrossFi-Treasury-Guard/contracts/utils/ExtendedAccessControl.sol\":227:3089  contract ExtendedAccessControl is AccessControl {... */\n      0x01\n      dup1\n      0xa0\n      shl\n      sub\n      and\n      0x00\n      mstore\n      0x20\n      mstore\n      0x20\n      and(sload(keccak256(0x00, 0x40)), 0xff)\n      mload(0x40)\n      swap1\n      iszero\n      iszero\n      dup2\n      mstore\n      return\n    tag_29:\n      jumpi(tag_51, callvalue)\n      tag_108\n      calldatasize\n      tag_3\n      jump\t// in\n    tag_108:\n        /* \"@openzeppelin/contracts/access/AccessControl.sol\":2484:2488  role */\n      tag_109\n      tag_9\n      jump\t// in\n    tag_109:\n        /* \"CrossFi-Treasury-Guard/contracts/utils/ExtendedAccessControl.sol\":227:3089  contract ExtendedAccessControl is AccessControl {... */\n      0x00\n        /* \"CrossFi-Treasury-Guard/contracts/utils/ExtendedAccessControl.sol\":1115:1118  i++ */\n    tag_110:\n        /* \"CrossFi-Treasury-Guard/contracts/utils/ExtendedAccessControl.sol\":227:3089  contract ExtendedAccessControl is AccessControl {... */\n      dup2\n      mload\n        /* \"CrossFi-Treasury-Guard/contracts/utils/ExtendedAccessControl.sol\":1097:1113  i < roles.length */\n      dup2\n      lt\n      iszero\n      tag_65\n      jumpi\n        /* \"CrossFi-Treasury-Guard/contracts/utils/ExtendedAccessControl.sol\":1144:1152  roles[i] */\n      dup1\n        /* \"@openzeppelin/contracts/access/AccessControl.sol\":4306:4331  _grantRole(role, account) */\n      tag_113\n        /* \"CrossFi-Treasury-Guard/contracts/utils/ExtendedAccessControl.sol\":1144:1152  roles[i] */\n      dup5\n      tag_114\n        /* \"CrossFi-Treasury-Guard/contracts/utils/ExtendedAccessControl.sol\":227:3089  contract ExtendedAccessControl is AccessControl {... */\n      0x01\n        /* \"CrossFi-Treasury-Guard/contracts/utils/ExtendedAccessControl.sol\":1144:1152  roles[i] */\n      swap5\n      dup7\n      tag_5\n      jump\t// in\n    tag_114:\n        /* \"CrossFi-Treasury-Guard/contracts/utils/ExtendedAccessControl.sol\":227:3089  contract ExtendedAccessControl is AccessControl {... */\n      mload\n        /* \"@openzeppelin/contracts/access/AccessControl.sol\":2484:2488  role */\n      tag_115\n        /* \"@openzeppelin/contracts/access/AccessControl.sol\":4276:4294  getRoleAdmin(role) */\n      tag_68\n      dup3\n        /* \"@openzeppelin/contracts/access/AccessControl.sol\":3877:3883  _roles */\n      0x00\n        /* \"CrossFi-Treasury-Guard/contracts/utils/ExtendedAccessControl.sol\":227:3089  contract ExtendedAccessControl is AccessControl {... */\n      mstore\n        /* \"@openzeppelin/contracts/access/AccessControl.sol\":3877:3883  _roles */\n      0x00\n        /* \"CrossFi-Treasury-Guard/contracts/utils/ExtendedAccessControl.sol\":227:3089  contract ExtendedAccessControl is AccessControl {... */\n      0x20\n      mstore\n        /* \"@openzeppelin/contracts/access/AccessControl.sol\":3877:3899  _roles[role].adminRole */\n      0x01\n        /* \"CrossFi-Treasury-Guard/contracts/utils/ExtendedAccessControl.sol\":227:3089  contract ExtendedAccessControl is AccessControl {... */\n      0x40\n        /* \"@openzeppelin/contracts/access/AccessControl.sol\":3877:3883  _roles */\n      0x00\n        /* \"CrossFi-Treasury-Guard/contracts/utils/ExtendedAccessControl.sol\":227:3089  contract ExtendedAccessControl is AccessControl {... */\n      keccak256\n        /* \"@openzeppelin/contracts/access/AccessControl.sol\":3877:3899  _roles[role].adminRole */\n      add\n        /* \"CrossFi-Treasury-Guard/contracts/utils/ExtendedAccessControl.sol\":227:3089  contract ExtendedAccessControl is AccessControl {... */\n      sload\n        /* \"@openzeppelin/contracts/access/AccessControl.sol\":3786:3906  function getRoleAdmin(bytes32 role) public view virtual returns (bytes32) {... */\n      swap1\n      jump\n        /* \"@openzeppelin/contracts/access/AccessControl.sol\":2484:2488  role */\n    tag_115:\n        /* \"@openzeppelin/contracts/access/AccessControl.sol\":4306:4331  _grantRole(role, account) */\n      tag_11\n      jump\t// in\n    tag_113:\n      pop\n        /* \"CrossFi-Treasury-Guard/contracts/utils/ExtendedAccessControl.sol\":227:3089  contract ExtendedAccessControl is AccessControl {... */\n      add\n        /* \"CrossFi-Treasury-Guard/contracts/utils/ExtendedAccessControl.sol\":1082:1095  uint256 i = 0 */\n      jump(tag_110)\n        /* \"CrossFi-Treasury-Guard/contracts/utils/ExtendedAccessControl.sol\":227:3089  contract ExtendedAccessControl is AccessControl {... */\n    tag_27:\n      jumpi(tag_51, callvalue)\n      jumpi(tag_51, slt(add(not(0x03), calldatasize), 0x00))\n      0x20\n      mload(0x40)\n        /* \"CrossFi-Treasury-Guard/contracts/utils/ExtendedAccessControl.sol\":343:366  keccak256(\"ADMIN_ROLE\") */\n      0xa49807205ce4d355092ef5a8a18f56e8913cf4a201fbe287825b095693c21775\n        /* \"CrossFi-Treasury-Guard/contracts/utils/ExtendedAccessControl.sol\":227:3089  contract ExtendedAccessControl is AccessControl {... */\n      dup2\n      mstore\n      return\n    tag_25:\n      jumpi(tag_51, callvalue)\n      0x20\n      tag_123\n      tag_124\n      calldatasize\n      tag_3\n      jump\t// in\n    tag_124:\n      swap1\n      tag_6\n      jump\t// in\n    tag_123:\n      mload(0x40)\n      swap1\n      iszero\n      iszero\n      dup2\n      mstore\n      return\n    tag_23:\n      jumpi(tag_51, callvalue)\n      tag_127\n      calldatasize\n      tag_3\n      jump\t// in\n    tag_127:\n        /* \"@openzeppelin/contracts/access/AccessControl.sol\":2484:2488  role */\n      tag_128\n      tag_9\n      jump\t// in\n    tag_128:\n        /* \"CrossFi-Treasury-Guard/contracts/utils/ExtendedAccessControl.sol\":227:3089  contract ExtendedAccessControl is AccessControl {... */\n      0x00\n        /* \"CrossFi-Treasury-Guard/contracts/utils/ExtendedAccessControl.sol\":1508:1511  i++ */\n    tag_129:\n        /* \"CrossFi-Treasury-Guard/contracts/utils/ExtendedAccessControl.sol\":227:3089  contract ExtendedAccessControl is AccessControl {... */\n      dup2\n      mload\n        /* \"CrossFi-Treasury-Guard/contracts/utils/ExtendedAccessControl.sol\":1490:1506  i < roles.length */\n      dup2\n      lt\n      iszero\n      tag_65\n      jumpi\n        /* \"CrossFi-Treasury-Guard/contracts/utils/ExtendedAccessControl.sol\":1538:1546  roles[i] */\n      dup1\n        /* \"@openzeppelin/contracts/access/AccessControl.sol\":4723:4749  _revokeRole(role, account) */\n      tag_132\n        /* \"CrossFi-Treasury-Guard/contracts/utils/ExtendedAccessControl.sol\":1538:1546  roles[i] */\n      dup5\n      tag_133\n        /* \"CrossFi-Treasury-Guard/contracts/utils/ExtendedAccessControl.sol\":227:3089  contract ExtendedAccessControl is AccessControl {... */\n      0x01\n        /* \"CrossFi-Treasury-Guard/contracts/utils/ExtendedAccessControl.sol\":1538:1546  roles[i] */\n      swap5\n      dup7\n      tag_5\n      jump\t// in\n    tag_133:\n        /* \"CrossFi-Treasury-Guard/contracts/utils/ExtendedAccessControl.sol\":227:3089  contract ExtendedAccessControl is AccessControl {... */\n      mload\n        /* \"@openzeppelin/contracts/access/AccessControl.sol\":2484:2488  role */\n      tag_67\n        /* \"@openzeppelin/contracts/access/AccessControl.sol\":4693:4711  getRoleAdmin(role) */\n      tag_68\n      dup3\n        /* \"@openzeppelin/contracts/access/AccessControl.sol\":3877:3883  _roles */\n      0x00\n        /* \"CrossFi-Treasury-Guard/contracts/utils/ExtendedAccessControl.sol\":227:3089  contract ExtendedAccessControl is AccessControl {... */\n      mstore\n        /* \"@openzeppelin/contracts/access/AccessControl.sol\":3877:3883  _roles */\n      0x00\n        /* \"CrossFi-Treasury-Guard/contracts/utils/ExtendedAccessControl.sol\":227:3089  contract ExtendedAccessControl is AccessControl {... */\n      0x20\n      mstore\n        /* \"@openzeppelin/contracts/access/AccessControl.sol\":3877:3899  _roles[role].adminRole */\n      0x01\n        /* \"CrossFi-Treasury-Guard/contracts/utils/ExtendedAccessControl.sol\":227:3089  contract ExtendedAccessControl is AccessControl {... */\n      0x40\n        /* \"@openzeppelin/contracts/access/AccessControl.sol\":3877:3883  _roles */\n      0x00\n        /* \"CrossFi-Treasury-Guard/contracts/utils/ExtendedAccessControl.sol\":227:3089  contract ExtendedAccessControl is AccessControl {... */\n      keccak256\n        /* \"@openzeppelin/contracts/access/AccessControl.sol\":3877:3899  _roles[role].adminRole */\n      add\n        /* \"CrossFi-Treasury-Guard/contracts/utils/ExtendedAccessControl.sol\":227:3089  contract ExtendedAccessControl is AccessControl {... */\n      sload\n        /* \"@openzeppelin/contracts/access/AccessControl.sol\":3786:3906  function getRoleAdmin(bytes32 role) public view virtual returns (bytes32) {... */\n      swap1\n      jump\n        /* \"@openzeppelin/contracts/access/AccessControl.sol\":4723:4749  _revokeRole(role, account) */\n    tag_132:\n      pop\n        /* \"CrossFi-Treasury-Guard/contracts/utils/ExtendedAccessControl.sol\":227:3089  contract ExtendedAccessControl is AccessControl {... */\n      add\n        /* \"CrossFi-Treasury-Guard/contracts/utils/ExtendedAccessControl.sol\":1475:1488  uint256 i = 0 */\n      jump(tag_129)\n        /* \"CrossFi-Treasury-Guard/contracts/utils/ExtendedAccessControl.sol\":227:3089  contract ExtendedAccessControl is AccessControl {... */\n    tag_21:\n      jumpi(tag_51, callvalue)\n      jumpi(tag_51, slt(add(not(0x03), calldatasize), 0x40))\n      tag_140\n      tag_1\n      jump\t// in\n    tag_140:\n        /* \"@openzeppelin/contracts/utils/Context.sol\":735:745  msg.sender */\n      caller\n      sub(shl(0xa0, 0x01), 0x01)\n        /* \"CrossFi-Treasury-Guard/contracts/utils/ExtendedAccessControl.sol\":227:3089  contract ExtendedAccessControl is AccessControl {... */\n      dup3\n      and\n        /* \"@openzeppelin/contracts/access/AccessControl.sol\":5397:5431  callerConfirmation != _msgSender() */\n      sub\n        /* \"@openzeppelin/contracts/access/AccessControl.sol\":5393:5495  if (callerConfirmation != _msgSender()) {... */\n      tag_141\n      jumpi\n        /* \"@openzeppelin/contracts/access/AccessControl.sol\":5505:5542  _revokeRole(role, callerConfirmation) */\n      tag_65\n        /* \"CrossFi-Treasury-Guard/contracts/utils/ExtendedAccessControl.sol\":227:3089  contract ExtendedAccessControl is AccessControl {... */\n      swap1\n      calldataload(0x04)\n        /* \"@openzeppelin/contracts/access/AccessControl.sol\":5505:5542  _revokeRole(role, callerConfirmation) */\n      tag_12\n      jump\t// in\n        /* \"@openzeppelin/contracts/access/AccessControl.sol\":5393:5495  if (callerConfirmation != _msgSender()) {... */\n    tag_141:\n        /* \"@openzeppelin/contracts/access/AccessControl.sol\":5454:5484  AccessControlBadConfirmation() */\n      shl(0xe1, 0x334bd919)\n        /* \"CrossFi-Treasury-Guard/contracts/utils/ExtendedAccessControl.sol\":227:3089  contract ExtendedAccessControl is AccessControl {... */\n      0x00\n        /* \"@openzeppelin/contracts/access/AccessControl.sol\":5454:5484  AccessControlBadConfirmation() */\n      mstore\n        /* \"CrossFi-Treasury-Guard/contracts/utils/ExtendedAccessControl.sol\":227:3089  contract ExtendedAccessControl is AccessControl {... */\n      0x04\n      0x00\n        /* \"@openzeppelin/contracts/access/AccessControl.sol\":5454:5484  AccessControlBadConfirmation() */\n      revert\n        /* \"CrossFi-Treasury-Guard/contracts/utils/ExtendedAccessControl.sol\":227:3089  contract ExtendedAccessControl is AccessControl {... */\n    tag_19:\n      jumpi(tag_51, callvalue)\n      jumpi(tag_51, slt(add(not(0x03), calldatasize), 0x40))\n        /* \"@openzeppelin/contracts/access/AccessControl.sol\":4306:4331  _grantRole(role, account) */\n      tag_65\n        /* \"CrossFi-Treasury-Guard/contracts/utils/ExtendedAccessControl.sol\":227:3089  contract ExtendedAccessControl is AccessControl {... */\n      calldataload(0x04)\n      tag_149\n      tag_1\n      jump\t// in\n    tag_149:\n        /* \"@openzeppelin/contracts/access/AccessControl.sol\":4276:4294  getRoleAdmin(role) */\n      swap1\n        /* \"@openzeppelin/contracts/access/AccessControl.sol\":2484:2488  role */\n      tag_115\n        /* \"@openzeppelin/contracts/access/AccessControl.sol\":4276:4294  getRoleAdmin(role) */\n      tag_68\n      dup3\n        /* \"@openzeppelin/contracts/access/AccessControl.sol\":3877:3883  _roles */\n      0x00\n        /* \"CrossFi-Treasury-Guard/contracts/utils/ExtendedAccessControl.sol\":227:3089  contract ExtendedAccessControl is AccessControl {... */\n      mstore\n        /* \"@openzeppelin/contracts/access/AccessControl.sol\":3877:3883  _roles */\n      0x00\n        /* \"CrossFi-Treasury-Guard/contracts/utils/ExtendedAccessControl.sol\":227:3089  contract ExtendedAccessControl is AccessControl {... */\n      0x20\n      mstore\n        /* \"@openzeppelin/contracts/access/AccessControl.sol\":3877:3899  _roles[role].adminRole */\n      0x01\n        /* \"CrossFi-Treasury-Guard/contracts/utils/ExtendedAccessControl.sol\":227:3089  contract ExtendedAccessControl is AccessControl {... */\n      0x40\n        /* \"@openzeppelin/contracts/access/AccessControl.sol\":3877:3883  _roles */\n      0x00\n        /* \"CrossFi-Treasury-Guard/contracts/utils/ExtendedAccessControl.sol\":227:3089  contract ExtendedAccessControl is AccessControl {... */\n      keccak256\n        /* \"@openzeppelin/contracts/access/AccessControl.sol\":3877:3899  _roles[role].adminRole */\n      add\n        /* \"CrossFi-Treasury-Guard/contracts/utils/ExtendedAccessControl.sol\":227:3089  contract ExtendedAccessControl is AccessControl {... */\n      sload\n        /* \"@openzeppelin/contracts/access/AccessControl.sol\":3786:3906  function getRoleAdmin(bytes32 role) public view virtual returns (bytes32) {... */\n      swap1\n      jump\n        /* \"CrossFi-Treasury-Guard/contracts/utils/ExtendedAccessControl.sol\":227:3089  contract ExtendedAccessControl is AccessControl {... */\n    tag_17:\n      jumpi(tag_51, callvalue)\n      jumpi(tag_51, slt(add(not(0x03), calldatasize), 0x20))\n      0x20\n      tag_156\n      calldataload(0x04)\n        /* \"@openzeppelin/contracts/access/AccessControl.sol\":3877:3883  _roles */\n      0x00\n        /* \"CrossFi-Treasury-Guard/contracts/utils/ExtendedAccessControl.sol\":227:3089  contract ExtendedAccessControl is AccessControl {... */\n      mstore\n        /* \"@openzeppelin/contracts/access/AccessControl.sol\":3877:3883  _roles */\n      0x00\n        /* \"CrossFi-Treasury-Guard/contracts/utils/ExtendedAccessControl.sol\":227:3089  contract ExtendedAccessControl is AccessControl {... */\n      0x20\n      mstore\n        /* \"@openzeppelin/contracts/access/AccessControl.sol\":3877:3899  _roles[role].adminRole */\n      0x01\n        /* \"CrossFi-Treasury-Guard/contracts/utils/ExtendedAccessControl.sol\":227:3089  contract ExtendedAccessControl is AccessControl {... */\n      0x40\n        /* \"@openzeppelin/contracts/access/AccessControl.sol\":3877:3883  _roles */\n      0x00\n        /* \"CrossFi-Treasury-Guard/contracts/utils/ExtendedAccessControl.sol\":227:3089  contract ExtendedAccessControl is AccessControl {... */\n      keccak256\n        /* \"@openzeppelin/contracts/access/AccessControl.sol\":3877:3899  _roles[role].adminRole */\n      add\n        /* \"CrossFi-Treasury-Guard/contracts/utils/ExtendedAccessControl.sol\":227:3089  contract ExtendedAccessControl is AccessControl {... */\n      sload\n        /* \"@openzeppelin/contracts/access/AccessControl.sol\":3786:3906  function getRoleAdmin(bytes32 role) public view virtual returns (bytes32) {... */\n      swap1\n      jump\n        /* \"CrossFi-Treasury-Guard/contracts/utils/ExtendedAccessControl.sol\":227:3089  contract ExtendedAccessControl is AccessControl {... */\n    tag_156:\n      mload(0x40)\n      swap1\n      dup2\n      mstore\n      return\n    tag_15:\n      jumpi(tag_51, callvalue)\n      jumpi(tag_51, slt(add(not(0x03), calldatasize), 0x20))\n      calldataload(0x04)\n      swap1\n      shl(0xe0, 0xffffffff)\n      dup3\n      and\n      dup1\n      swap3\n      sub\n      tag_51\n      jumpi\n      0x20\n      swap2\n      shl(0xe0, 0x7965db0b)\n        /* \"@openzeppelin/contracts/access/AccessControl.sol\":2649:2696  interfaceId == type(IAccessControl).interfaceId */\n      dup2\n      eq\n      swap1\n        /* \"@openzeppelin/contracts/access/AccessControl.sol\":2649:2736  interfaceId == type(IAccessControl).interfaceId || super.supportsInterface(interfaceId) */\n      dup2\n      iszero\n      tag_163\n      jumpi\n        /* \"CrossFi-Treasury-Guard/contracts/utils/ExtendedAccessControl.sol\":227:3089  contract ExtendedAccessControl is AccessControl {... */\n    tag_164:\n      pop\n      iszero\n      iszero\n      dup2\n      mstore\n      return\n        /* \"@openzeppelin/contracts/access/AccessControl.sol\":2649:2736  interfaceId == type(IAccessControl).interfaceId || super.supportsInterface(interfaceId) */\n    tag_163:\n      shl(0xe0, 0x01ffc9a7)\n        /* \"@openzeppelin/contracts/utils/introspection/ERC165.sol\":829:869  interfaceId == type(IERC165).interfaceId */\n      eq\n      swap1\n      pop\n        /* \"@openzeppelin/contracts/access/AccessControl.sol\":2649:2736  interfaceId == type(IAccessControl).interfaceId || super.supportsInterface(interfaceId) */\n      dup4\n      jump(tag_164)\n        /* \"CrossFi-Treasury-Guard/contracts/utils/ExtendedAccessControl.sol\":227:3089  contract ExtendedAccessControl is AccessControl {... */\n    tag_1:\n      calldataload(0x24)\n      swap1\n      sub(shl(0xa0, 0x01), 0x01)\n      dup3\n      and\n      dup3\n      sub\n      tag_51\n      jumpi\n      jump\t// out\n    tag_2:\n      mload(0x40)\n      swap2\n      swap1\n      0x1f\n      add\n      not(0x1f)\n      and\n      dup3\n      add\n      0xffffffffffffffff\n      dup2\n      gt\n      dup4\n      dup3\n      lt\n      or\n      tag_167\n      jumpi\n      0x40\n      mstore\n      jump\t// out\n    tag_167:\n      mstore(0x00, shl(0xe0, 0x4e487b71))\n      mstore(0x04, 0x41)\n      revert(0x00, 0x24)\n    tag_3:\n      swap1\n      0x40\n      not(0x03)\n      dup4\n      add\n      slt\n      tag_51\n      jumpi\n      calldataload(0x04)\n      sub(shl(0xa0, 0x01), 0x01)\n      dup2\n      and\n      dup2\n      sub\n      tag_51\n      jumpi\n      swap2\n      calldataload(0x24)\n      swap1\n      0xffffffffffffffff\n      dup3\n      gt\n      tag_51\n      jumpi\n      dup1\n      0x23\n      dup4\n      add\n      slt\n      iszero\n      tag_51\n      jumpi\n      dup2\n      0x04\n      add\n      calldataload\n      0xffffffffffffffff\n      dup2\n      gt\n      tag_167\n      jumpi\n      tag_179\n      0x20\n      dup3\n      0x05\n      shl\n      add\n      tag_2\n      jump\t// in\n    tag_179:\n      swap3\n      0x24\n      0x20\n      dup6\n      dup5\n      dup2\n      mstore\n      add\n      swap3\n      0x05\n      shl\n      dup3\n      add\n      add\n      swap3\n      dup4\n      gt\n      tag_51\n      jumpi\n      0x24\n      add\n      swap1\n    tag_182:\n      dup3\n      dup3\n      lt\n      tag_183\n      jumpi\n      pop\n      pop\n      pop\n      swap1\n      jump\t// out\n    tag_183:\n      dup2\n      calldataload\n      dup2\n      mstore\n      0x20\n      swap2\n      dup3\n      add\n      swap2\n      add\n      jump(tag_182)\n    tag_5:\n      dup1\n      mload\n      dup3\n      lt\n      iszero\n      tag_185\n      jumpi\n      0x20\n      swap2\n      0x05\n      shl\n      add\n      add\n      swap1\n      jump\t// out\n    tag_185:\n      mstore(0x00, shl(0xe0, 0x4e487b71))\n      mstore(0x04, 0x32)\n      revert(0x00, 0x24)\n        /* \"CrossFi-Treasury-Guard/contracts/utils/ExtendedAccessControl.sol\":1816:2087  function hasAnyRole(address account, bytes32[] memory roles) external view returns (bool) {... */\n    tag_6:\n      swap1\n        /* \"CrossFi-Treasury-Guard/contracts/utils/ExtendedAccessControl.sol\":227:3089  contract ExtendedAccessControl is AccessControl {... */\n      0x00\n        /* \"CrossFi-Treasury-Guard/contracts/utils/ExtendedAccessControl.sol\":1954:1957  i++ */\n    tag_187:\n        /* \"CrossFi-Treasury-Guard/contracts/utils/ExtendedAccessControl.sol\":227:3089  contract ExtendedAccessControl is AccessControl {... */\n      dup2\n      mload\n        /* \"CrossFi-Treasury-Guard/contracts/utils/ExtendedAccessControl.sol\":1936:1952  i < roles.length */\n      dup2\n      lt\n      iszero\n      tag_188\n      jumpi\n        /* \"CrossFi-Treasury-Guard/contracts/utils/ExtendedAccessControl.sol\":1977:2003  hasRole(roles[i], account) */\n      tag_190\n        /* \"CrossFi-Treasury-Guard/contracts/utils/ExtendedAccessControl.sol\":1985:1993  roles[i] */\n      dup4\n      tag_88\n      dup4\n      dup6\n      tag_5\n      jump\t// in\n        /* \"CrossFi-Treasury-Guard/contracts/utils/ExtendedAccessControl.sol\":1977:2003  hasRole(roles[i], account) */\n    tag_190:\n        /* \"CrossFi-Treasury-Guard/contracts/utils/ExtendedAccessControl.sol\":1973:2049  if (hasRole(roles[i], account)) {... */\n      tag_192\n      jumpi\n        /* \"CrossFi-Treasury-Guard/contracts/utils/ExtendedAccessControl.sol\":227:3089  contract ExtendedAccessControl is AccessControl {... */\n      0x01\n      add\n        /* \"CrossFi-Treasury-Guard/contracts/utils/ExtendedAccessControl.sol\":1921:1934  uint256 i = 0 */\n      jump(tag_187)\n        /* \"CrossFi-Treasury-Guard/contracts/utils/ExtendedAccessControl.sol\":1973:2049  if (hasRole(roles[i], account)) {... */\n    tag_192:\n        /* \"CrossFi-Treasury-Guard/contracts/utils/ExtendedAccessControl.sol\":2023:2034  return true */\n      pop\n      pop\n      pop\n        /* \"CrossFi-Treasury-Guard/contracts/utils/ExtendedAccessControl.sol\":227:3089  contract ExtendedAccessControl is AccessControl {... */\n      0x01\n        /* \"CrossFi-Treasury-Guard/contracts/utils/ExtendedAccessControl.sol\":2023:2034  return true */\n      swap1\n      jump\t// out\n        /* \"CrossFi-Treasury-Guard/contracts/utils/ExtendedAccessControl.sol\":1936:1952  i < roles.length */\n    tag_188:\n      pop\n      pop\n      pop\n        /* \"CrossFi-Treasury-Guard/contracts/utils/ExtendedAccessControl.sol\":227:3089  contract ExtendedAccessControl is AccessControl {... */\n      0x00\n        /* \"CrossFi-Treasury-Guard/contracts/utils/ExtendedAccessControl.sol\":1816:2087  function hasAnyRole(address account, bytes32[] memory roles) external view returns (bool) {... */\n      swap1\n      jump\t// out\n        /* \"CrossFi-Treasury-Guard/contracts/utils/ExtendedAccessControl.sol\":2723:3087  function getAllRoles() public pure returns (bytes32[] memory roles) {... */\n    tag_8:\n        /* \"CrossFi-Treasury-Guard/contracts/utils/ExtendedAccessControl.sol\":227:3089  contract ExtendedAccessControl is AccessControl {... */\n      tag_194\n      0xe0\n      tag_2\n      jump\t// in\n    tag_194:\n        /* \"CrossFi-Treasury-Guard/contracts/utils/ExtendedAccessControl.sol\":2823:2824  6 */\n      0x06\n        /* \"CrossFi-Treasury-Guard/contracts/utils/ExtendedAccessControl.sol\":227:3089  contract ExtendedAccessControl is AccessControl {... */\n      dup2\n      mstore\n      0x20\n      dup2\n      add\n      0xc0\n      calldatasize\n      dup3\n      calldatacopy\n      dup2\n      mload\n      iszero\n      tag_185\n      jumpi\n      0x00\n      swap1\n      mstore\n      dup1\n      mload\n        /* \"CrossFi-Treasury-Guard/contracts/utils/ExtendedAccessControl.sol\":2880:2881  1 */\n      0x01\n        /* \"CrossFi-Treasury-Guard/contracts/utils/ExtendedAccessControl.sol\":227:3089  contract ExtendedAccessControl is AccessControl {... */\n      lt\n      iszero\n      tag_185\n      jumpi\n        /* \"CrossFi-Treasury-Guard/contracts/utils/ExtendedAccessControl.sol\":343:366  keccak256(\"ADMIN_ROLE\") */\n      0xa49807205ce4d355092ef5a8a18f56e8913cf4a201fbe287825b095693c21775\n        /* \"CrossFi-Treasury-Guard/contracts/utils/ExtendedAccessControl.sol\":227:3089  contract ExtendedAccessControl is AccessControl {... */\n      0x40\n      dup3\n      add\n      mstore\n      dup1\n      mload\n        /* \"CrossFi-Treasury-Guard/contracts/utils/ExtendedAccessControl.sol\":2911:2912  2 */\n      0x02\n        /* \"CrossFi-Treasury-Guard/contracts/utils/ExtendedAccessControl.sol\":227:3089  contract ExtendedAccessControl is AccessControl {... */\n      lt\n      iszero\n      tag_185\n      jumpi\n        /* \"CrossFi-Treasury-Guard/contracts/utils/ExtendedAccessControl.sol\":413:440  keccak256(\"AI_ORACLE_ROLE\") */\n      0x482648e7878e9fa54c0a2f67ffd22d00ebc37cf7a03e060e428d2ab0cd6735cc\n        /* \"CrossFi-Treasury-Guard/contracts/utils/ExtendedAccessControl.sol\":227:3089  contract ExtendedAccessControl is AccessControl {... */\n      0x60\n      dup3\n      add\n      mstore\n      dup1\n      mload\n        /* \"CrossFi-Treasury-Guard/contracts/utils/ExtendedAccessControl.sol\":2946:2947  3 */\n      0x03\n        /* \"CrossFi-Treasury-Guard/contracts/utils/ExtendedAccessControl.sol\":227:3089  contract ExtendedAccessControl is AccessControl {... */\n      lt\n      iszero\n      tag_185\n      jumpi\n        /* \"CrossFi-Treasury-Guard/contracts/utils/ExtendedAccessControl.sol\":494:528  keccak256(\"TREASURY_MANAGER_ROLE\") */\n      0xede9dcdb0ce99dc7cec9c7be9246ad08b37853683ad91569c187b647ddf5e21c\n        /* \"CrossFi-Treasury-Guard/contracts/utils/ExtendedAccessControl.sol\":227:3089  contract ExtendedAccessControl is AccessControl {... */\n      0x80\n      dup3\n      add\n      mstore\n      dup1\n      mload\n        /* \"CrossFi-Treasury-Guard/contracts/utils/ExtendedAccessControl.sol\":2988:2989  4 */\n      0x04\n        /* \"CrossFi-Treasury-Guard/contracts/utils/ExtendedAccessControl.sol\":227:3089  contract ExtendedAccessControl is AccessControl {... */\n      lt\n      iszero\n      tag_185\n      jumpi\n        /* \"CrossFi-Treasury-Guard/contracts/utils/ExtendedAccessControl.sol\":584:620  keccak256(\"MILESTONE_APPROVER_ROLE\") */\n      0x58223cdfb69946630d837d40b5c366a584f0217ada7fddd8318f2e08603cfa22\n        /* \"CrossFi-Treasury-Guard/contracts/utils/ExtendedAccessControl.sol\":227:3089  contract ExtendedAccessControl is AccessControl {... */\n      0xa0\n      dup3\n      add\n      mstore\n      dup1\n      mload\n      0x05\n      lt\n      iszero\n      tag_185\n      jumpi\n        /* \"CrossFi-Treasury-Guard/contracts/utils/ExtendedAccessControl.sol\":674:708  keccak256(\"DISPUTE_RESOLVER_ROLE\") */\n      0x7b8bb8356a3f32f5c111ff23f050d97f08988e0883529ea7bff3b918887a6e0e\n        /* \"CrossFi-Treasury-Guard/contracts/utils/ExtendedAccessControl.sol\":227:3089  contract ExtendedAccessControl is AccessControl {... */\n      0xc0\n      dup3\n      add\n      mstore\n        /* \"CrossFi-Treasury-Guard/contracts/utils/ExtendedAccessControl.sol\":2723:3087  function getAllRoles() public pure returns (bytes32[] memory roles) {... */\n      swap1\n      jump\t// out\n        /* \"@openzeppelin/contracts/access/AccessControl.sol\":3175:3278  function _checkRole(bytes32 role) internal view virtual {... */\n    tag_9:\n        /* \"@openzeppelin/contracts/utils/Context.sol\":735:745  msg.sender */\n      caller\n        /* \"CrossFi-Treasury-Guard/contracts/utils/ExtendedAccessControl.sol\":227:3089  contract ExtendedAccessControl is AccessControl {... */\n      0x00\n      swap1\n      dup2\n      mstore\n      mstore(0x20, 0xad3228b676f7d3cd4284a5443f17f1962b36e491b30a40b2405849e597ba5fb5)\n      0x40\n      swap1\n      keccak256\n      sload\n      0xff\n      and\n        /* \"@openzeppelin/contracts/access/AccessControl.sol\":3495:3518  !hasRole(role, account) */\n      iszero\n        /* \"@openzeppelin/contracts/access/AccessControl.sol\":3491:3599  if (!hasRole(role, account)) {... */\n      tag_207\n      jumpi\n        /* \"@openzeppelin/contracts/access/AccessControl.sol\":3175:3278  function _checkRole(bytes32 role) internal view virtual {... */\n      jump\t// out\n        /* \"@openzeppelin/contracts/access/AccessControl.sol\":3491:3599  if (!hasRole(role, account)) {... */\n    tag_207:\n        /* \"@openzeppelin/contracts/access/AccessControl.sol\":3541:3588  AccessControlUnauthorizedAccount(account, role) */\n      shl(0xe0, 0xe2517d3f)\n        /* \"CrossFi-Treasury-Guard/contracts/utils/ExtendedAccessControl.sol\":227:3089  contract ExtendedAccessControl is AccessControl {... */\n      0x00\n        /* \"@openzeppelin/contracts/access/AccessControl.sol\":3541:3588  AccessControlUnauthorizedAccount(account, role) */\n      mstore\n        /* \"@openzeppelin/contracts/utils/Context.sol\":735:745  msg.sender */\n      caller\n        /* \"@openzeppelin/contracts/access/AccessControl.sol\":3541:3588  AccessControlUnauthorizedAccount(account, role) */\n      0x04\n        /* \"CrossFi-Treasury-Guard/contracts/utils/ExtendedAccessControl.sol\":227:3089  contract ExtendedAccessControl is AccessControl {... */\n      mstore\n      mstore(0x24, 0x00)\n      0x44\n      0x00\n        /* \"@openzeppelin/contracts/access/AccessControl.sol\":3541:3588  AccessControlUnauthorizedAccount(account, role) */\n      revert\n        /* \"@openzeppelin/contracts/access/AccessControl.sol\":3175:3278  function _checkRole(bytes32 role) internal view virtual {... */\n    tag_10:\n        /* \"@openzeppelin/contracts/access/AccessControl.sol\":2930:2936  _roles */\n      0x00\n        /* \"CrossFi-Treasury-Guard/contracts/utils/ExtendedAccessControl.sol\":227:3089  contract ExtendedAccessControl is AccessControl {... */\n      dup2\n      dup2\n      mstore\n      0x20\n      dup2\n      dup2\n      mstore\n      0x40\n      dup1\n      dup4\n      keccak256\n        /* \"@openzeppelin/contracts/utils/Context.sol\":735:745  msg.sender */\n      caller\n        /* \"CrossFi-Treasury-Guard/contracts/utils/ExtendedAccessControl.sol\":227:3089  contract ExtendedAccessControl is AccessControl {... */\n      dup5\n      mstore\n      swap1\n      swap2\n      mstore\n      swap1\n      keccak256\n      sload\n      0xff\n      and\n        /* \"@openzeppelin/contracts/access/AccessControl.sol\":3495:3518  !hasRole(role, account) */\n      iszero\n        /* \"@openzeppelin/contracts/access/AccessControl.sol\":3491:3599  if (!hasRole(role, account)) {... */\n      tag_209\n      jumpi\n        /* \"@openzeppelin/contracts/access/AccessControl.sol\":3175:3278  function _checkRole(bytes32 role) internal view virtual {... */\n      pop\n      jump\t// out\n        /* \"@openzeppelin/contracts/access/AccessControl.sol\":3491:3599  if (!hasRole(role, account)) {... */\n    tag_209:\n        /* \"@openzeppelin/contracts/access/AccessControl.sol\":3541:3588  AccessControlUnauthorizedAccount(account, role) */\n      shl(0xe0, 0xe2517d3f)\n        /* \"@openzeppelin/contracts/access/AccessControl.sol\":2930:2936  _roles */\n      0x00\n        /* \"@openzeppelin/contracts/access/AccessControl.sol\":3541:3588  AccessControlUnauthorizedAccount(account, role) */\n      mstore\n        /* \"@openzeppelin/contracts/utils/Context.sol\":735:745  msg.sender */\n      caller\n        /* \"@openzeppelin/contracts/access/AccessControl.sol\":3541:3588  AccessControlUnauthorizedAccount(account, role) */\n      0x04\n        /* \"CrossFi-Treasury-Guard/contracts/utils/ExtendedAccessControl.sol\":227:3089  contract ExtendedAccessControl is AccessControl {... */\n      mstore\n      0x24\n      mstore\n      0x44\n        /* \"@openzeppelin/contracts/access/AccessControl.sol\":2930:2936  _roles */\n      0x00\n        /* \"@openzeppelin/contracts/access/AccessControl.sol\":3541:3588  AccessControlUnauthorizedAccount(account, role) */\n      revert\n        /* \"@openzeppelin/contracts/access/AccessControl.sol\":6155:6471  function _grantRole(bytes32 role, address account) internal virtual returns (bool) {... */\n    tag_11:\n        /* \"CrossFi-Treasury-Guard/contracts/utils/ExtendedAccessControl.sol\":227:3089  contract ExtendedAccessControl is AccessControl {... */\n      0x00\n      dup2\n      dup2\n      mstore\n      0x20\n      dup2\n      dup2\n      mstore\n      0x40\n      dup1\n      dup4\n      keccak256\n      sub(shl(0xa0, 0x01), 0x01)\n      dup7\n      and\n      dup5\n      mstore\n      swap1\n      swap2\n      mstore\n      swap1\n      keccak256\n      sload\n      0xff\n      and\n      tag_211\n      jumpi\n      0x00\n      dup2\n      dup2\n      mstore\n      0x20\n      dup2\n      dup2\n      mstore\n      0x40\n      dup1\n      dup4\n      keccak256\n      sub(shl(0xa0, 0x01), 0x01)\n      swap6\n      swap1\n      swap6\n      and\n      dup1\n      dup5\n      mstore\n      swap5\n      swap1\n      swap2\n      mstore\n      dup2\n      keccak256\n      dup1\n      sload\n      not(0xff)\n      and\n      0x01\n      or\n      swap1\n      sstore\n        /* \"@openzeppelin/contracts/utils/Context.sol\":735:745  msg.sender */\n      caller\n      swap3\n        /* \"CrossFi-Treasury-Guard/contracts/utils/ExtendedAccessControl.sol\":227:3089  contract ExtendedAccessControl is AccessControl {... */\n      swap2\n      swap1\n        /* \"@openzeppelin/contracts/access/AccessControl.sol\":6346:6386  RoleGranted(role, account, _msgSender()) */\n      0x2f8788117e7eff1d82e926ec794901d17c78024a50270940304540a733656f0d\n      swap1\n        /* \"CrossFi-Treasury-Guard/contracts/utils/ExtendedAccessControl.sol\":227:3089  contract ExtendedAccessControl is AccessControl {... */\n      dup1\n        /* \"@openzeppelin/contracts/access/AccessControl.sol\":6346:6386  RoleGranted(role, account, _msgSender()) */\n      log4\n        /* \"@openzeppelin/contracts/access/AccessControl.sol\":6323:6327  true */\n      0x01\n        /* \"@openzeppelin/contracts/access/AccessControl.sol\":6400:6411  return true */\n      swap1\n      jump\t// out\n        /* \"@openzeppelin/contracts/access/AccessControl.sol\":6248:6465  if (!hasRole(role, account)) {... */\n    tag_211:\n        /* \"@openzeppelin/contracts/access/AccessControl.sol\":6442:6454  return false */\n      pop\n      pop\n        /* \"CrossFi-Treasury-Guard/contracts/utils/ExtendedAccessControl.sol\":227:3089  contract ExtendedAccessControl is AccessControl {... */\n      0x00\n        /* \"@openzeppelin/contracts/access/AccessControl.sol\":6442:6454  return false */\n      swap1\n      jump\t// out\n        /* \"@openzeppelin/contracts/access/AccessControl.sol\":6708:7025  function _revokeRole(bytes32 role, address account) internal virtual returns (bool) {... */\n    tag_12:\n        /* \"CrossFi-Treasury-Guard/contracts/utils/ExtendedAccessControl.sol\":227:3089  contract ExtendedAccessControl is AccessControl {... */\n      0x00\n      dup2\n      dup2\n      mstore\n      0x20\n      dup2\n      dup2\n      mstore\n      0x40\n      dup1\n      dup4\n      keccak256\n      sub(shl(0xa0, 0x01), 0x01)\n      dup7\n      and\n      dup5\n      mstore\n      swap1\n      swap2\n      mstore\n      swap1\n      keccak256\n      sload\n      0xff\n      and\n      iszero\n      tag_211\n      jumpi\n      0x00\n      dup2\n      dup2\n      mstore\n      0x20\n      dup2\n      dup2\n      mstore\n      0x40\n      dup1\n      dup4\n      keccak256\n      sub(shl(0xa0, 0x01), 0x01)\n      swap6\n      swap1\n      swap6\n      and\n      dup1\n      dup5\n      mstore\n      swap5\n      swap1\n      swap2\n      mstore\n      dup2\n      keccak256\n      dup1\n      sload\n      not(0xff)\n      and\n      swap1\n      sstore\n        /* \"@openzeppelin/contracts/utils/Context.sol\":735:745  msg.sender */\n      caller\n      swap3\n        /* \"CrossFi-Treasury-Guard/contracts/utils/ExtendedAccessControl.sol\":227:3089  contract ExtendedAccessControl is AccessControl {... */\n      swap2\n      swap1\n        /* \"@openzeppelin/contracts/access/AccessControl.sol\":6900:6940  RoleRevoked(role, account, _msgSender()) */\n      0xf6391f5c32d9c69d2a47ea670b442974b53935d1edc7fd64eb21e047a839171b\n      swap1\n        /* \"CrossFi-Treasury-Guard/contracts/utils/ExtendedAccessControl.sol\":227:3089  contract ExtendedAccessControl is AccessControl {... */\n      dup1\n        /* \"@openzeppelin/contracts/access/AccessControl.sol\":6900:6940  RoleRevoked(role, account, _msgSender()) */\n      log4\n        /* \"CrossFi-Treasury-Guard/contracts/utils/ExtendedAccessControl.sol\":227:3089  contract ExtendedAccessControl is AccessControl {... */\n      0x01\n        /* \"@openzeppelin/contracts/access/AccessControl.sol\":6954:6965  return true */\n      swap1\n      jump\t// out\n\n    auxdata: 0xa2646970667358221220f3466d2dc5900b177c49cf06df731aafe702a784ba4cfa8a74c57531768359ba64736f6c634300081a0033\n}\n",
				"bytecode": {
					"linkReferences": {},
					"object": "608060405234601f57600f336023565b5060405161099790816100ac8239f35b5f80fd5b6001600160a01b0381165f9081525f80516020610a43833981519152602052604090205460ff1660a6576001600160a01b03165f8181525f80516020610a4383398151915260205260408120805460ff191660011790553391907f2f8788117e7eff1d82e926ec794901d17c78024a50270940304540a733656f0d8180a4600190565b505f9056fe6080806040526004361015610012575f80fd5b5f3560e01c90816301ffc9a71461052257508063248a9ca3146104f05780632f2ff15d146104b857806336568abe146104745780634fe9d1f51461042257806368ca78f9146103ff57806375b238fc146103c557806391b9f9d81461036e57806391d1485414610326578063a02d72fb146102ec578063a217fddf146102d2578063aca5a8a714610229578063bfe42a37146101ef578063c601f7af146101b5578063d547741f14610171578063ebdf690f146101375763f2bcac3d146100d7575f80fd5b34610133575f366003190112610133576100ef6106be565b6040518091602082016020835281518091526020604084019201905f5b81811061011a575050500390f35b825184528594506020938401939092019160010161010c565b5f80fd5b34610133575f3660031901126101335760206040517fede9dcdb0ce99dc7cec9c7be9246ad08b37853683ad91569c187b647ddf5e21c8152f35b34610133576040366003190112610133576101b3600435610190610575565b906101ae6101a9825f525f602052600160405f20015490565b610821565b6108e1565b005b34610133575f3660031901126101335760206040517f482648e7878e9fa54c0a2f67ffd22d00ebc37cf7a03e060e428d2ab0cd6735cc8152f35b34610133575f3660031901126101335760206040517f7b8bb8356a3f32f5c111ff23f050d97f08988e0883529ea7bff3b918887a6e0e8152f35b34610133576020366003190112610133576004356001600160a01b0381168103610133576102556106be565b5f915f5b82518110156102c757610294826102708386610661565b515f525f60205260405f209060018060a01b03165f5260205260ff60405f20541690565b6102a1575b600101610259565b925f1981146102b35760010192610299565b634e487b7160e01b5f52601160045260245ffd5b602084604051908152f35b34610133575f3660031901126101335760206040515f8152f35b34610133575f3660031901126101335760206040517f58223cdfb69946630d837d40b5c366a584f0217ada7fddd8318f2e08603cfa228152f35b346101335760403660031901126101335761033f610575565b6004355f525f60205260405f209060018060a01b03165f52602052602060ff60405f2054166040519015158152f35b346101335761037c366105c5565b6103846107d2565b5f5b81518110156101b357806103be846103a060019486610661565b516103b96101a9825f525f602052600160405f20015490565b610859565b5001610386565b34610133575f3660031901126101335760206040517fa49807205ce4d355092ef5a8a18f56e8913cf4a201fbe287825b095693c217758152f35b34610133576020610418610412366105c5565b90610689565b6040519015158152f35b3461013357610430366105c5565b6104386107d2565b5f5b81518110156101b3578061046d8461045460019486610661565b516101ae6101a9825f525f602052600160405f20015490565b500161043a565b346101335760403660031901126101335761048d610575565b336001600160a01b038216036104a9576101b3906004356108e1565b63334bd91960e11b5f5260045ffd5b34610133576040366003190112610133576101b36004356104d7610575565b906103b96101a9825f525f602052600160405f20015490565b3461013357602036600319011261013357602061051a6004355f525f602052600160405f20015490565b604051908152f35b34610133576020366003190112610133576004359063ffffffff60e01b821680920361013357602091637965db0b60e01b8114908115610564575b5015158152f35b6301ffc9a760e01b1490508361055d565b602435906001600160a01b038216820361013357565b6040519190601f01601f1916820167ffffffffffffffff8111838210176105b157604052565b634e487b7160e01b5f52604160045260245ffd5b906040600319830112610133576004356001600160a01b038116810361013357916024359067ffffffffffffffff8211610133578060238301121561013357816004013567ffffffffffffffff81116105b15761062760208260051b0161058b565b926024602085848152019260051b82010192831161013357602401905b8282106106515750505090565b8135815260209182019101610644565b80518210156106755760209160051b010190565b634e487b7160e01b5f52603260045260245ffd5b905f5b81518110156106b7576106a3836102708385610661565b6106af5760010161068c565b505050600190565b5050505f90565b6106c860e061058b565b600681526020810160c0368237815115610675575f9052805160011015610675577fa49807205ce4d355092ef5a8a18f56e8913cf4a201fbe287825b095693c217756040820152805160021015610675577f482648e7878e9fa54c0a2f67ffd22d00ebc37cf7a03e060e428d2ab0cd6735cc6060820152805160031015610675577fede9dcdb0ce99dc7cec9c7be9246ad08b37853683ad91569c187b647ddf5e21c6080820152805160041015610675577f58223cdfb69946630d837d40b5c366a584f0217ada7fddd8318f2e08603cfa2260a0820152805160051015610675577f7b8bb8356a3f32f5c111ff23f050d97f08988e0883529ea7bff3b918887a6e0e60c082015290565b335f9081527fad3228b676f7d3cd4284a5443f17f1962b36e491b30a40b2405849e597ba5fb5602052604090205460ff161561080a57565b63e2517d3f60e01b5f52336004525f60245260445ffd5b5f8181526020818152604080832033845290915290205460ff16156108435750565b63e2517d3f60e01b5f523360045260245260445ffd5b5f818152602081815260408083206001600160a01b038616845290915290205460ff166108db575f818152602081815260408083206001600160a01b0395909516808452949091528120805460ff19166001179055339291907f2f8788117e7eff1d82e926ec794901d17c78024a50270940304540a733656f0d9080a4600190565b50505f90565b5f818152602081815260408083206001600160a01b038616845290915290205460ff16156108db575f818152602081815260408083206001600160a01b0395909516808452949091528120805460ff19169055339291907ff6391f5c32d9c69d2a47ea670b442974b53935d1edc7fd64eb21e047a839171b9080a460019056fea2646970667358221220f3466d2dc5900b177c49cf06df731aafe702a784ba4cfa8a74c57531768359ba64736f6c634300081a0033ad3228b676f7d3cd4284a5443f17f1962b36e491b30a40b2405849e597ba5fb5",
					"opcodes": "PUSH1 0x80 PUSH1 0x40 MSTORE CALLVALUE PUSH1 0x1F JUMPI PUSH1 0xF CALLER PUSH1 0x23 JUMP JUMPDEST POP PUSH1 0x40 MLOAD PUSH2 0x997 SWAP1 DUP2 PUSH2 0xAC DUP3 CODECOPY RETURN JUMPDEST PUSH0 DUP1 REVERT JUMPDEST PUSH1 0x1 PUSH1 0x1 PUSH1 0xA0 SHL SUB DUP2 AND PUSH0 SWAP1 DUP2 MSTORE PUSH0 DUP1 MLOAD PUSH1 0x20 PUSH2 0xA43 DUP4 CODECOPY DUP2 MLOAD SWAP2 MSTORE PUSH1 0x20 MSTORE PUSH1 0x40 SWAP1 KECCAK256 SLOAD PUSH1 0xFF AND PUSH1 0xA6 JUMPI PUSH1 0x1 PUSH1 0x1 PUSH1 0xA0 SHL SUB AND PUSH0 DUP2 DUP2 MSTORE PUSH0 DUP1 MLOAD PUSH1 0x20 PUSH2 0xA43 DUP4 CODECOPY DUP2 MLOAD SWAP2 MSTORE PUSH1 0x20 MSTORE PUSH1 0x40 DUP2 KECCAK256 DUP1 SLOAD PUSH1 0xFF NOT AND PUSH1 0x1 OR SWAP1 SSTORE CALLER SWAP2 SWAP1 PUSH32 0x2F8788117E7EFF1D82E926EC794901D17C78024A50270940304540A733656F0D DUP2 DUP1 LOG4 PUSH1 0x1 SWAP1 JUMP JUMPDEST POP PUSH0 SWAP1 JUMP INVALID PUSH1 0x80 DUP1 PUSH1 0x40 MSTORE PUSH1 0x4 CALLDATASIZE LT ISZERO PUSH2 0x12 JUMPI PUSH0 DUP1 REVERT JUMPDEST PUSH0 CALLDATALOAD PUSH1 0xE0 SHR SWAP1 DUP2 PUSH4 0x1FFC9A7 EQ PUSH2 0x522 JUMPI POP DUP1 PUSH4 0x248A9CA3 EQ PUSH2 0x4F0 JUMPI DUP1 PUSH4 0x2F2FF15D EQ PUSH2 0x4B8 JUMPI DUP1 PUSH4 0x36568ABE EQ PUSH2 0x474 JUMPI DUP1 PUSH4 0x4FE9D1F5 EQ PUSH2 0x422 JUMPI DUP1 PUSH4 0x68CA78F9 EQ PUSH2 0x3FF JUMPI DUP1 PUSH4 0x75B238FC EQ PUSH2 0x3C5 JUMPI DUP1 PUSH4 0x91B9F9D8 EQ PUSH2 0x36E JUMPI DUP1 PUSH4 0x91D14854 EQ PUSH2 0x326 JUMPI DUP1 PUSH4 0xA02D72FB EQ PUSH2 0x2EC JUMPI DUP1 PUSH4 0xA217FDDF EQ PUSH2 0x2D2 JUMPI DUP1 PUSH4 0xACA5A8A7 EQ PUSH2 0x229 JUMPI DUP1 PUSH4 0xBFE42A37 EQ PUSH2 0x1EF JUMPI DUP1 PUSH4 0xC601F7AF EQ PUSH2 0x1B5 JUMPI DUP1 PUSH4 0xD547741F EQ PUSH2 0x171 JUMPI DUP1 PUSH4 0xEBDF690F EQ PUSH2 0x137 JUMPI PUSH4 0xF2BCAC3D EQ PUSH2 0xD7 JUMPI PUSH0 DUP1 REVERT JUMPDEST CALLVALUE PUSH2 0x133 JUMPI PUSH0 CALLDATASIZE PUSH1 0x3 NOT ADD SLT PUSH2 0x133 JUMPI PUSH2 0xEF PUSH2 0x6BE JUMP JUMPDEST PUSH1 0x40 MLOAD DUP1 SWAP2 PUSH1 0x20 DUP3 ADD PUSH1 0x20 DUP4 MSTORE DUP2 MLOAD DUP1 SWAP2 MSTORE PUSH1 0x20 PUSH1 0x40 DUP5 ADD SWAP3 ADD SWAP1 PUSH0 JUMPDEST DUP2 DUP2 LT PUSH2 0x11A JUMPI POP POP POP SUB SWAP1 RETURN JUMPDEST DUP3 MLOAD DUP5 MSTORE DUP6 SWAP5 POP PUSH1 0x20 SWAP4 DUP5 ADD SWAP4 SWAP1 SWAP3 ADD SWAP2 PUSH1 0x1 ADD PUSH2 0x10C JUMP JUMPDEST PUSH0 DUP1 REVERT JUMPDEST CALLVALUE PUSH2 0x133 JUMPI PUSH0 CALLDATASIZE PUSH1 0x3 NOT ADD SLT PUSH2 0x133 JUMPI PUSH1 0x20 PUSH1 0x40 MLOAD PUSH32 0xEDE9DCDB0CE99DC7CEC9C7BE9246AD08B37853683AD91569C187B647DDF5E21C DUP2 MSTORE RETURN JUMPDEST CALLVALUE PUSH2 0x133 JUMPI PUSH1 0x40 CALLDATASIZE PUSH1 0x3 NOT ADD SLT PUSH2 0x133 JUMPI PUSH2 0x1B3 PUSH1 0x4 CALLDATALOAD PUSH2 0x190 PUSH2 0x575 JUMP JUMPDEST SWAP1 PUSH2 0x1AE PUSH2 0x1A9 DUP3 PUSH0 MSTORE PUSH0 PUSH1 0x20 MSTORE PUSH1 0x1 PUSH1 0x40 PUSH0 KECCAK256 ADD SLOAD SWAP1 JUMP JUMPDEST PUSH2 0x821 JUMP JUMPDEST PUSH2 0x8E1 JUMP JUMPDEST STOP JUMPDEST CALLVALUE PUSH2 0x133 JUMPI PUSH0 CALLDATASIZE PUSH1 0x3 NOT ADD SLT PUSH2 0x133 JUMPI PUSH1 0x20 PUSH1 0x40 MLOAD PUSH32 0x482648E7878E9FA54C0A2F67FFD22D00EBC37CF7A03E060E428D2AB0CD6735CC DUP2 MSTORE RETURN JUMPDEST CALLVALUE PUSH2 0x133 JUMPI PUSH0 CALLDATASIZE PUSH1 0x3 NOT ADD SLT PUSH2 0x133 JUMPI PUSH1 0x20 PUSH1 0x40 MLOAD PUSH32 0x7B8BB8356A3F32F5C111FF23F050D97F08988E0883529EA7BFF3B918887A6E0E DUP2 MSTORE RETURN JUMPDEST CALLVALUE PUSH2 0x133 JUMPI PUSH1 0x20 CALLDATASIZE PUSH1 0x3 NOT ADD SLT PUSH2 0x133 JUMPI PUSH1 0x4 CALLDATALOAD PUSH1 0x1 PUSH1 0x1 PUSH1 0xA0 SHL SUB DUP2 AND DUP2 SUB PUSH2 0x133 JUMPI PUSH2 0x255 PUSH2 0x6BE JUMP JUMPDEST PUSH0 SWAP2 PUSH0 JUMPDEST DUP3 MLOAD DUP2 LT ISZERO PUSH2 0x2C7 JUMPI PUSH2 0x294 DUP3 PUSH2 0x270 DUP4 DUP7 PUSH2 0x661 JUMP JUMPDEST MLOAD PUSH0 MSTORE PUSH0 PUSH1 0x20 MSTORE PUSH1 0x40 PUSH0 KECCAK256 SWAP1 PUSH1 0x1 DUP1 PUSH1 0xA0 SHL SUB AND PUSH0 MSTORE PUSH1 0x20 MSTORE PUSH1 0xFF PUSH1 0x40 PUSH0 KECCAK256 SLOAD AND SWAP1 JUMP JUMPDEST PUSH2 0x2A1 JUMPI JUMPDEST PUSH1 0x1 ADD PUSH2 0x259 JUMP JUMPDEST SWAP3 PUSH0 NOT DUP2 EQ PUSH2 0x2B3 JUMPI PUSH1 0x1 ADD SWAP3 PUSH2 0x299 JUMP JUMPDEST PUSH4 0x4E487B71 PUSH1 0xE0 SHL PUSH0 MSTORE PUSH1 0x11 PUSH1 0x4 MSTORE PUSH1 0x24 PUSH0 REVERT JUMPDEST PUSH1 0x20 DUP5 PUSH1 0x40 MLOAD SWAP1 DUP2 MSTORE RETURN JUMPDEST CALLVALUE PUSH2 0x133 JUMPI PUSH0 CALLDATASIZE PUSH1 0x3 NOT ADD SLT PUSH2 0x133 JUMPI PUSH1 0x20 PUSH1 0x40 MLOAD PUSH0 DUP2 MSTORE RETURN JUMPDEST CALLVALUE PUSH2 0x133 JUMPI PUSH0 CALLDATASIZE PUSH1 0x3 NOT ADD SLT PUSH2 0x133 JUMPI PUSH1 0x20 PUSH1 0x40 MLOAD PUSH32 0x58223CDFB69946630D837D40B5C366A584F0217ADA7FDDD8318F2E08603CFA22 DUP2 MSTORE RETURN JUMPDEST CALLVALUE PUSH2 0x133 JUMPI PUSH1 0x40 CALLDATASIZE PUSH1 0x3 NOT ADD SLT PUSH2 0x133 JUMPI PUSH2 0x33F PUSH2 0x575 JUMP JUMPDEST PUSH1 0x4 CALLDATALOAD PUSH0 MSTORE PUSH0 PUSH1 0x20 MSTORE PUSH1 0x40 PUSH0 KECCAK256 SWAP1 PUSH1 0x1 DUP1 PUSH1 0xA0 SHL SUB AND PUSH0 MSTORE PUSH1 0x20 MSTORE PUSH1 0x20 PUSH1 0xFF PUSH1 0x40 PUSH0 KECCAK256 SLOAD AND PUSH1 0x40 MLOAD SWAP1 ISZERO ISZERO DUP2 MSTORE RETURN JUMPDEST CALLVALUE PUSH2 0x133 JUMPI PUSH2 0x37C CALLDATASIZE PUSH2 0x5C5 JUMP JUMPDEST PUSH2 0x384 PUSH2 0x7D2 JUMP JUMPDEST PUSH0 JUMPDEST DUP2 MLOAD DUP2 LT ISZERO PUSH2 0x1B3 JUMPI DUP1 PUSH2 0x3BE DUP5 PUSH2 0x3A0 PUSH1 0x1 SWAP5 DUP7 PUSH2 0x661 JUMP JUMPDEST MLOAD PUSH2 0x3B9 PUSH2 0x1A9 DUP3 PUSH0 MSTORE PUSH0 PUSH1 0x20 MSTORE PUSH1 0x1 PUSH1 0x40 PUSH0 KECCAK256 ADD SLOAD SWAP1 JUMP JUMPDEST PUSH2 0x859 JUMP JUMPDEST POP ADD PUSH2 0x386 JUMP JUMPDEST CALLVALUE PUSH2 0x133 JUMPI PUSH0 CALLDATASIZE PUSH1 0x3 NOT ADD SLT PUSH2 0x133 JUMPI PUSH1 0x20 PUSH1 0x40 MLOAD PUSH32 0xA49807205CE4D355092EF5A8A18F56E8913CF4A201FBE287825B095693C21775 DUP2 MSTORE RETURN JUMPDEST CALLVALUE PUSH2 0x133 JUMPI PUSH1 0x20 PUSH2 0x418 PUSH2 0x412 CALLDATASIZE PUSH2 0x5C5 JUMP JUMPDEST SWAP1 PUSH2 0x689 JUMP JUMPDEST PUSH1 0x40 MLOAD SWAP1 ISZERO ISZERO DUP2 MSTORE RETURN JUMPDEST CALLVALUE PUSH2 0x133 JUMPI PUSH2 0x430 CALLDATASIZE PUSH2 0x5C5 JUMP JUMPDEST PUSH2 0x438 PUSH2 0x7D2 JUMP JUMPDEST PUSH0 JUMPDEST DUP2 MLOAD DUP2 LT ISZERO PUSH2 0x1B3 JUMPI DUP1 PUSH2 0x46D DUP5 PUSH2 0x454 PUSH1 0x1 SWAP5 DUP7 PUSH2 0x661 JUMP JUMPDEST MLOAD PUSH2 0x1AE PUSH2 0x1A9 DUP3 PUSH0 MSTORE PUSH0 PUSH1 0x20 MSTORE PUSH1 0x1 PUSH1 0x40 PUSH0 KECCAK256 ADD SLOAD SWAP1 JUMP JUMPDEST POP ADD PUSH2 0x43A JUMP JUMPDEST CALLVALUE PUSH2 0x133 JUMPI PUSH1 0x40 CALLDATASIZE PUSH1 0x3 NOT ADD SLT PUSH2 0x133 JUMPI PUSH2 0x48D PUSH2 0x575 JUMP JUMPDEST CALLER PUSH1 0x1 PUSH1 0x1 PUSH1 0xA0 SHL SUB DUP3 AND SUB PUSH2 0x4A9 JUMPI PUSH2 0x1B3 SWAP1 PUSH1 0x4 CALLDATALOAD PUSH2 0x8E1 JUMP JUMPDEST PUSH4 0x334BD919 PUSH1 0xE1 SHL PUSH0 MSTORE PUSH1 0x4 PUSH0 REVERT JUMPDEST CALLVALUE PUSH2 0x133 JUMPI PUSH1 0x40 CALLDATASIZE PUSH1 0x3 NOT ADD SLT PUSH2 0x133 JUMPI PUSH2 0x1B3 PUSH1 0x4 CALLDATALOAD PUSH2 0x4D7 PUSH2 0x575 JUMP JUMPDEST SWAP1 PUSH2 0x3B9 PUSH2 0x1A9 DUP3 PUSH0 MSTORE PUSH0 PUSH1 0x20 MSTORE PUSH1 0x1 PUSH1 0x40 PUSH0 KECCAK256 ADD SLOAD SWAP1 JUMP JUMPDEST CALLVALUE PUSH2 0x133 JUMPI PUSH1 0x20 CALLDATASIZE PUSH1 0x3 NOT ADD SLT PUSH2 0x133 JUMPI PUSH1 0x20 PUSH2 0x51A PUSH1 0x4 CALLDATALOAD PUSH0 MSTORE PUSH0 PUSH1 0x20 MSTORE PUSH1 0x1 PUSH1 0x40 PUSH0 KECCAK256 ADD SLOAD SWAP1 JUMP JUMPDEST PUSH1 0x40 MLOAD SWAP1 DUP2 MSTORE RETURN JUMPDEST CALLVALUE PUSH2 0x133 JUMPI PUSH1 0x20 CALLDATASIZE PUSH1 0x3 NOT ADD SLT PUSH2 0x133 JUMPI PUSH1 0x4 CALLDATALOAD SWAP1 PUSH4 0xFFFFFFFF PUSH1 0xE0 SHL DUP3 AND DUP1 SWAP3 SUB PUSH2 0x133 JUMPI PUSH1 0x20 SWAP2 PUSH4 0x7965DB0B PUSH1 0xE0 SHL DUP2 EQ SWAP1 DUP2 ISZERO PUSH2 0x564 JUMPI JUMPDEST POP ISZERO ISZERO DUP2 MSTORE RETURN JUMPDEST PUSH4 0x1FFC9A7 PUSH1 0xE0 SHL EQ SWAP1 POP DUP4 PUSH2 0x55D JUMP JUMPDEST PUSH1 0x24 CALLDATALOAD SWAP1 PUSH1 0x1 PUSH1 0x1 PUSH1 0xA0 SHL SUB DUP3 AND DUP3 SUB PUSH2 0x133 JUMPI JUMP JUMPDEST PUSH1 0x40 MLOAD SWAP2 SWAP1 PUSH1 0x1F ADD PUSH1 0x1F NOT AND DUP3 ADD PUSH8 0xFFFFFFFFFFFFFFFF DUP2 GT DUP4 DUP3 LT OR PUSH2 0x5B1 JUMPI PUSH1 0x40 MSTORE JUMP JUMPDEST PUSH4 0x4E487B71 PUSH1 0xE0 SHL PUSH0 MSTORE PUSH1 0x41 PUSH1 0x4 MSTORE PUSH1 0x24 PUSH0 REVERT JUMPDEST SWAP1 PUSH1 0x40 PUSH1 0x3 NOT DUP4 ADD SLT PUSH2 0x133 JUMPI PUSH1 0x4 CALLDATALOAD PUSH1 0x1 PUSH1 0x1 PUSH1 0xA0 SHL SUB DUP2 AND DUP2 SUB PUSH2 0x133 JUMPI SWAP2 PUSH1 0x24 CALLDATALOAD SWAP1 PUSH8 0xFFFFFFFFFFFFFFFF DUP3 GT PUSH2 0x133 JUMPI DUP1 PUSH1 0x23 DUP4 ADD SLT ISZERO PUSH2 0x133 JUMPI DUP2 PUSH1 0x4 ADD CALLDATALOAD PUSH8 0xFFFFFFFFFFFFFFFF DUP2 GT PUSH2 0x5B1 JUMPI PUSH2 0x627 PUSH1 0x20 DUP3 PUSH1 0x5 SHL ADD PUSH2 0x58B JUMP JUMPDEST SWAP3 PUSH1 0x24 PUSH1 0x20 DUP6 DUP5 DUP2 MSTORE ADD SWAP3 PUSH1 0x5 SHL DUP3 ADD ADD SWAP3 DUP4 GT PUSH2 0x133 JUMPI PUSH1 0x24 ADD SWAP1 JUMPDEST DUP3 DUP3 LT PUSH2 0x651 JUMPI POP POP POP SWAP1 JUMP JUMPDEST DUP2 CALLDATALOAD DUP2 MSTORE PUSH1 0x20 SWAP2 DUP3 ADD SWAP2 ADD PUSH2 0x644 JUMP JUMPDEST DUP1 MLOAD DUP3 LT ISZERO PUSH2 0x675 JUMPI PUSH1 0x20 SWAP2 PUSH1 0x5 SHL ADD ADD SWAP1 JUMP JUMPDEST PUSH4 0x4E487B71 PUSH1 0xE0 SHL PUSH0 MSTORE PUSH1 0x32 PUSH1 0x4 MSTORE PUSH1 0x24 PUSH0 REVERT JUMPDEST SWAP1 PUSH0 JUMPDEST DUP2 MLOAD DUP2 LT ISZERO PUSH2 0x6B7 JUMPI PUSH2 0x6A3 DUP4 PUSH2 0x270 DUP4 DUP6 PUSH2 0x661 JUMP JUMPDEST PUSH2 0x6AF JUMPI PUSH1 0x1 ADD PUSH2 0x68C JUMP JUMPDEST POP POP POP PUSH1 0x1 SWAP1 JUMP JUMPDEST POP POP POP PUSH0 SWAP1 JUMP JUMPDEST PUSH2 0x6C8 PUSH1 0xE0 PUSH2 0x58B JUMP JUMPDEST PUSH1 0x6 DUP2 MSTORE PUSH1 0x20 DUP2 ADD PUSH1 0xC0 CALLDATASIZE DUP3 CALLDATACOPY DUP2 MLOAD ISZERO PUSH2 0x675 JUMPI PUSH0 SWAP1 MSTORE DUP1 MLOAD PUSH1 0x1 LT ISZERO PUSH2 0x675 JUMPI PUSH32 0xA49807205CE4D355092EF5A8A18F56E8913CF4A201FBE287825B095693C21775 PUSH1 0x40 DUP3 ADD MSTORE DUP1 MLOAD PUSH1 0x2 LT ISZERO PUSH2 0x675 JUMPI PUSH32 0x482648E7878E9FA54C0A2F67FFD22D00EBC37CF7A03E060E428D2AB0CD6735CC PUSH1 0x60 DUP3 ADD MSTORE DUP1 MLOAD PUSH1 0x3 LT ISZERO PUSH2 0x675 JUMPI PUSH32 0xEDE9DCDB0CE99DC7CEC9C7BE9246AD08B37853683AD91569C187B647DDF5E21C PUSH1 0x80 DUP3 ADD MSTORE DUP1 MLOAD PUSH1 0x4 LT ISZERO PUSH2 0x675 JUMPI PUSH32 0x58223CDFB69946630D837D40B5C366A584F0217ADA7FDDD8318F2E08603CFA22 PUSH1 0xA0 DUP3 ADD MSTORE DUP1 MLOAD PUSH1 0x5 LT ISZERO PUSH2 0x675 JUMPI PUSH32 0x7B8BB8356A3F32F5C111FF23F050D97F08988E0883529EA7BFF3B918887A6E0E PUSH1 0xC0 DUP3 ADD MSTORE SWAP1 JUMP JUMPDEST CALLER PUSH0 SWAP1 DUP2 MSTORE PUSH32 0xAD3228B676F7D3CD4284A5443F17F1962B36E491B30A40B2405849E597BA5FB5 PUSH1 0x20 MSTORE PUSH1 0x40 SWAP1 KECCAK256 SLOAD PUSH1 0xFF AND ISZERO PUSH2 0x80A JUMPI JUMP JUMPDEST PUSH4 0xE2517D3F PUSH1 0xE0 SHL PUSH0 MSTORE CALLER PUSH1 0x4 MSTORE PUSH0 PUSH1 0x24 MSTORE PUSH1 0x44 PUSH0 REVERT JUMPDEST PUSH0 DUP2 DUP2 MSTORE PUSH1 0x20 DUP2 DUP2 MSTORE PUSH1 0x40 DUP1 DUP4 KECCAK256 CALLER DUP5 MSTORE SWAP1 SWAP2 MSTORE SWAP1 KECCAK256 SLOAD PUSH1 0xFF AND ISZERO PUSH2 0x843 JUMPI POP JUMP JUMPDEST PUSH4 0xE2517D3F PUSH1 0xE0 SHL PUSH0 MSTORE CALLER PUSH1 0x4 MSTORE PUSH1 0x24 MSTORE PUSH1 0x44 PUSH0 REVERT JUMPDEST PUSH0 DUP2 DUP2 MSTORE PUSH1 0x20 DUP2 DUP2 MSTORE PUSH1 0x40 DUP1 DUP4 KECCAK256 PUSH1 0x1 PUSH1 0x1 PUSH1 0xA0 SHL SUB DUP7 AND DUP5 MSTORE SWAP1 SWAP2 MSTORE SWAP1 KECCAK256 SLOAD PUSH1 0xFF AND PUSH2 0x8DB JUMPI PUSH0 DUP2 DUP2 MSTORE PUSH1 0x20 DUP2 DUP2 MSTORE PUSH1 0x40 DUP1 DUP4 KECCAK256 PUSH1 0x1 PUSH1 0x1 PUSH1 0xA0 SHL SUB SWAP6 SWAP1 SWAP6 AND DUP1 DUP5 MSTORE SWAP5 SWAP1 SWAP2 MSTORE DUP2 KECCAK256 DUP1 SLOAD PUSH1 0xFF NOT AND PUSH1 0x1 OR SWAP1 SSTORE CALLER SWAP3 SWAP2 SWAP1 PUSH32 0x2F8788117E7EFF1D82E926EC794901D17C78024A50270940304540A733656F0D SWAP1 DUP1 LOG4 PUSH1 0x1 SWAP1 JUMP JUMPDEST POP POP PUSH0 SWAP1 JUMP JUMPDEST PUSH0 DUP2 DUP2 MSTORE PUSH1 0x20 DUP2 DUP2 MSTORE PUSH1 0x40 DUP1 DUP4 KECCAK256 PUSH1 0x1 PUSH1 0x1 PUSH1 0xA0 SHL SUB DUP7 AND DUP5 MSTORE SWAP1 SWAP2 MSTORE SWAP1 KECCAK256 SLOAD PUSH1 0xFF AND ISZERO PUSH2 0x8DB JUMPI PUSH0 DUP2 DUP2 MSTORE PUSH1 0x20 DUP2 DUP2 MSTORE PUSH1 0x40 DUP1 DUP4 KECCAK256 PUSH1 0x1 PUSH1 0x1 PUSH1 0xA0 SHL SUB SWAP6 SWAP1 SWAP6 AND DUP1 DUP5 MSTORE SWAP5 SWAP1 SWAP2 MSTORE DUP2 KECCAK256 DUP1 SLOAD PUSH1 0xFF NOT AND SWAP1 SSTORE CALLER SWAP3 SWAP2 SWAP1 PUSH32 0xF6391F5C32D9C69D2A47EA670B442974B53935D1EDC7FD64EB21E047A839171B SWAP1 DUP1 LOG4 PUSH1 0x1 SWAP1 JUMP INVALID LOG2 PUSH5 0x6970667358 0x22 SLT KECCAK256 RETURN CHAINID PUSH14 0x2DC5900B177C49CF06DF731AAFE7 MUL 0xA7 DUP5 0xBA 0x4C STATICCALL DUP11 PUSH21 0xC57531768359BA64736F6C634300081A0033AD3228 0xB6 PUSH23 0xF7D3CD4284A5443F17F1962B36E491B30A40B2405849E5 SWAP8 0xBA PUSH0 0xB5 "
				},
				"gasEstimates": {
					"creation": {
						"codeDepositCost": "491000",
						"executionCost": "infinite",
						"totalCost": "infinite"
					},
					"external": {
						"ADMIN_ROLE()": "285",
						"AI_ORACLE_ROLE()": "439",
						"DEFAULT_ADMIN_ROLE()": "372",
						"DISPUTE_RESOLVER_ROLE()": "417",
						"MILESTONE_APPROVER_ROLE()": "351",
						"TREASURY_MANAGER_ROLE()": "483",
						"getAllRoles()": "infinite",
						"getRoleAdmin(bytes32)": "2363",
						"getRoleCount(address)": "infinite",
						"grantMultipleRoles(address,bytes32[])": "infinite",
						"grantRole(bytes32,address)": "33311",
						"hasAnyRole(address,bytes32[])": "infinite",
						"hasRole(bytes32,address)": "2660",
						"renounceRole(bytes32,address)": "28901",
						"revokeMultipleRoles(address,bytes32[])": "infinite",
						"revokeRole(bytes32,address)": "33572",
						"supportsInterface(bytes4)": "270"
					}
				},
				"methodIdentifiers": {
					"ADMIN_ROLE()": "75b238fc",
					"AI_ORACLE_ROLE()": "c601f7af",
					"DEFAULT_ADMIN_ROLE()": "a217fddf",
					"DISPUTE_RESOLVER_ROLE()": "bfe42a37",
					"MILESTONE_APPROVER_ROLE()": "a02d72fb",
					"TREASURY_MANAGER_ROLE()": "ebdf690f",
					"getAllRoles()": "f2bcac3d",
					"getRoleAdmin(bytes32)": "248a9ca3",
					"getRoleCount(address)": "aca5a8a7",
					"grantMultipleRoles(address,bytes32[])": "91b9f9d8",
					"grantRole(bytes32,address)": "2f2ff15d",
					"hasAnyRole(address,bytes32[])": "68ca78f9",
					"hasRole(bytes32,address)": "91d14854",
					"renounceRole(bytes32,address)": "36568abe",
					"revokeMultipleRoles(address,bytes32[])": "4fe9d1f5",
					"revokeRole(bytes32,address)": "d547741f",
					"supportsInterface(bytes4)": "01ffc9a7"
				}
			},
			"storageLayout": {
				"storage": [
					{
						"astId": 27,
						"contract": "CrossFi-Treasury-Guard/contracts/utils/ExtendedAccessControl.sol:ExtendedAccessControl",
						"label": "_roles",
						"offset": 0,
						"slot": "0",
						"type": "t_mapping(t_bytes32,t_struct(RoleData)22_storage)"
					}
				],
				"types": {
					"t_address": {
						"encoding": "inplace",
						"label": "address",
						"numberOfBytes": "20"
					},
					"t_bool": {
						"encoding": "inplace",
						"label": "bool",
						"numberOfBytes": "1"
					},
					"t_bytes32": {
						"encoding": "inplace",
						"label": "bytes32",
						"numberOfBytes": "32"
					},
					"t_mapping(t_address,t_bool)": {
						"encoding": "mapping",
						"key": "t_address",
						"label": "mapping(address => bool)",
						"numberOfBytes": "32",
						"value": "t_bool"
					},
					"t_mapping(t_bytes32,t_struct(RoleData)22_storage)": {
						"encoding": "mapping",
						"key": "t_bytes32",
						"label": "mapping(bytes32 => struct AccessControl.RoleData)",
						"numberOfBytes": "32",
						"value": "t_struct(RoleData)22_storage"
					},
					"t_struct(RoleData)22_storage": {
						"encoding": "inplace",
						"label": "struct AccessControl.RoleData",
						"members": [
							{
								"astId": 19,
								"contract": "CrossFi-Treasury-Guard/contracts/utils/ExtendedAccessControl.sol:ExtendedAccessControl",
								"label": "hasRole",
								"offset": 0,
								"slot": "0",
								"type": "t_mapping(t_address,t_bool)"
							},
							{
								"astId": 21,
								"contract": "CrossFi-Treasury-Guard/contracts/utils/ExtendedAccessControl.sol:ExtendedAccessControl",
								"label": "adminRole",
								"offset": 0,
								"slot": "1",
								"type": "t_bytes32"
							}
						],
						"numberOfBytes": "64"
					}
				}
			},
			"userdoc": {
				"kind": "user",
				"methods": {},
				"version": 1
			}
		}
	}
}