{
	"data": {
		"bytecode": {
			"linkReferences": {},
			"object": "60406080815234620000fe57620000163362000102565b5060ff1980600154166001556001600255620000323362000102565b506200003e3362000180565b506200004a3362000220565b50815160a081016001600160401b03811182821017620000ea57600f91608091855260198152601960208201526014858201528260608201520152640f0f14191964ffffffffff196006541617600655602582516411d4150b4d60da1b81526005808201522060018282541617905560016028835167436c617564652d3360c01b81526005600882015220918254161790555161257e9081620002bc8239f35b634e487b7160e01b5f52604160045260245ffd5b5f80fd5b6001600160a01b03165f8181527fad3228b676f7d3cd4284a5443f17f1962b36e491b30a40b2405849e597ba5fb5602052604081205490919060ff166200017c57818052816020526040822081835260205260408220600160ff1982541617905533915f805160206200283a8339815191528180a4600190565b5090565b6001600160a01b03165f8181527f7d7ffb7a348e1c6a02869081a26547b49160dd3df72d1d75a570eb9b698292ec60205260408120549091907fa49807205ce4d355092ef5a8a18f56e8913cf4a201fbe287825b095693c217759060ff166200021b57808352826020526040832082845260205260408320600160ff198254161790555f805160206200283a833981519152339380a4600190565b505090565b6001600160a01b03165f8181527fc1c604b5add75b59252bca1e4e4ec4ab21f3921b1ddcf7a43abe69724bce555d60205260408120549091907f482648e7878e9fa54c0a2f67ffd22d00ebc37cf7a03e060e428d2ab0cd6735cc9060ff166200021b57808352826020526040832082845260205260408320600160ff198254161790555f805160206200283a833981519152339380a460019056fe6080806040526004361015610012575f80fd5b5f3560e01c90816301ffc9a714611b2f575080630311b82d14611ac0578063248a9ca314611a9457806327ff622314611a795780632b116373146117475780632ed49cf7146116e65780632f2ff15d146116af57806336568abe146116685780633a1e017f1461164b5780633f4ba83a146115b857806340b8927014610acc5780634da89fbd1461156c5780634fe9d1f51461151c5780635c975abb146114fa57806361c992a3146114bd57806368ca78f91461149a5780637092b0bc14610ccd5780637131f02514610c9557806375b238fc14610c5b5780638456cb5914610c0357806391b9f9d814610ba857806391d1485414610b6057806396caac0a14610b20578063a02d72fb14610ae6578063a217fddf14610acc578063a91ad18e14610aaf578063aca5a8a714610a1c578063b8a956d3146108df578063ba340773146107e0578063bfe42a37146107a6578063c601f7af1461077f578063c772a8a614610736578063cfe85a2f146106c9578063d547741f1461068b578063d5c1a1e11461055d578063ea535940146103e1578063ebdf690f146103a7578063f2bcac3d1461034d5763ff8dea01146101c9575f80fd5b346103495760a0366003190112610349576040516101e681611be4565b60ff60043581811681036103495782526024359181831683036103495760208101928352604435928284168403610349576040820193845260643583811681036103495760608301908152608435908482168203610349576080840191825261024d611d7f565b60648561028861027e61027461026a848a5116858a51169061214f565b848c51169061214f565b838651169061214f565b828651169061214f565b1603610304577f90565f56924446477768885e9b20cf4cb9d2183f2ad4313f3e90f1dcaedcc0ae9560a09585511664ff0000000063ff00000062ff000061ff00600654985160081b16945160101b16945160181b16945160201b169464ffffffffff191617171717176006556103016040518092611d47565ba1005b60405162461bcd60e51b815260206004820152601760248201527f57656967687473206d7573742073756d20746f203130300000000000000000006044820152606490fd5b5f80fd5b34610349575f366003190112610349576103656123ff565b60405180916020808301818452825180915281604085019301915f5b82811061039057505050500390f35b835185528695509381019392810192600101610381565b34610349575f3660031901126103495760206040517fede9dcdb0ce99dc7cec9c7be9246ad08b37853683ad91569c187b647ddf5e21c8152f35b34610349576020806003193601126103495760043560405161040281611bc8565b5f81525f83820152606060408201526060808201525f60808201525f60a08201525f60c082015260e06104336122e7565b9101526104418115156120b5565b805f526003825261045e60ff600560405f20015460a01c16612203565b5f526003815260405f20906040519161047683611bc8565b80548352610559600182015483850190815261049460028401612246565b60408601908152856104a860038601612246565b9460608201958652610537600482015496608084019788526105246005840154956104f4600660a088019660ff60c060018060a01b039a8b8d168b52019a60a01c1615158a5201612311565b9760e08d019889528b6040519d8e9d8e5251908d01525160408c01525161018060608c01526101a08b0190611ba3565b9051898203601f190160808b0152611ba3565b955160a0880152511660c086015251151560e085015251610100840190611d47565b0390f35b3461034957604036600319011261034957610576611c8b565b61057e611d38565b610586611d7f565b6001600160a01b03821691821561064d577f82a8fb1e779ea45ad427cc612e47087f5386a567e49dce488185e40646fa48d591602091845f52600483526105dc8260405f209060ff801983541691151516179055565b811561061b5761060e905f805160206125298339815191525f525f8452610609600160405f200154611e31565b611e52565b505b6040519015158152a2005b610647905f805160206125298339815191525f525f8452610642600160405f200154611e31565b611f67565b50610610565b60405162461bcd60e51b8152602060048201526016602482015275496e76616c6964206f7261636c65206164647265737360501b6044820152606490fd5b34610349576040366003190112610349576106c76004356106aa611c75565b90805f525f6020526106c2600160405f200154611e31565b611ffe565b005b34610349576020366003190112610349576004356106e56122e7565b506106f18115156120b5565b805f52600360205261070f60ff600560405f20015460a01c16612203565b5f52600360205260a0610727600660405f2001612311565b6107346040518092611d47565bf35b34610349576020366003190112610349576001600160a01b03610757611c8b565b165f5260086020526040805f2054600460205260ff825f205416825191825215156020820152f35b34610349575f3660031901126103495760206040515f805160206125298339815191528152f35b34610349575f3660031901126103495760206040517f7b8bb8356a3f32f5c111ff23f050d97f08988e0883529ea7bff3b918887a6e0e8152f35b34610349576040366003190112610349576004356001600160401b03811161034957610810903690600401611c20565b610818611d38565b610820611d7f565b8151156108a2577f2e5180543742ece2db44ed70b2619f2bf555a29a7bdead994736174f0d90a9b691816108816108959360405160208186516108668183858b01611b82565b810160058152030190209060ff801983541691151516179055565b604051928392604084526040840190611ba3565b90151560208301520390a1005b60405162461bcd60e51b815260206004820152601560248201527424b73b30b634b21036b7b232b6103b32b939b4b7b760591b6044820152606490fd5b34610349576040366003190112610349576004356024356001600160401b03811161034957610912903690600401611c20565b61091a611df8565b815f52600360205261093860ff600560405f20015460a01c16612203565b8051156109e557815f5260036020525f60066040822082815582600182015561096360028201612354565b61096f60038201612354565b826004820155826005820155015560075480156109d1577fd3e8dbbe8ff60a1fae1e5f88e71f27270ed38badc7b26e19922ed94fd12f5fe9916109cc915f19016007556040519182915f8352604060208401526040830190611ba3565b0390a2005b634e487b7160e01b5f52601160045260245ffd5b60405162461bcd60e51b815260206004820152600f60248201526e1499585cdbdb881c995c5d5a5c9959608a1b6044820152606490fd5b3461034957602036600319011261034957610a35611c8b565b610a3d6123ff565b5f915f5b8251811015610aa457610a7c82610a58838661239c565b515f525f60205260405f209060018060a01b03165f5260205260ff60405f20541690565b610a8f575b610a8a906121b1565b610a41565b92610a9c610a8a916121b1565b939050610a81565b602084604051908152f35b34610349575f36600319011261034957602060405162278d008152f35b34610349575f3660031901126103495760206040515f8152f35b34610349575f3660031901126103495760206040517f58223cdfb69946630d837d40b5c366a584f0217ada7fddd8318f2e08603cfa228152f35b3461034957602036600319011261034957600435610b3f8115156120b5565b5f526003602052602060ff600560405f20015460a01c166040519015158152f35b3461034957604036600319011261034957610b79611c75565b6004355f525f60205260405f209060018060a01b03165f52602052602060ff60405f2054166040519015158152f35b3461034957610bb636611ca1565b610bbe611df8565b5f5b81518110156106c75780610bf884610bdb610bfe948661239c565b51805f525f602052610bf3600160405f200154611e31565b611ef0565b506121b1565b610bc0565b34610349575f36600319011261034957610c1b611d7f565b610c236121bf565b600160ff19815416176001557f62e78cea01bee320cd4e420270b5ea74000d11b0c9f74754ebdbfc544b05a2586020604051338152a1005b34610349575f3660031901126103495760206040517fa49807205ce4d355092ef5a8a18f56e8913cf4a201fbe287825b095693c217758152f35b34610349576020366003190112610349576001600160a01b03610cb6611c8b565b165f526008602052602060405f2054604051908152f35b346103495761012036600319011261034957604480356001600160401b03811161034957610cff903690600401611c20565b6064356001600160401b03811161034957610d1e903690600401611c20565b60a03660831901126103495760405192610d3784611be4565b60843560ff8116810361034957845260a43560ff8116810361034957602085015260c43560ff8116810361034957604085015260e43560ff811681036103495760608501526101043560ff81168103610349576080850152335f526004602052610da760ff60405f205416612071565b610db460043515156120b5565b610dc3606460243511156120f7565b610dcb6121bf565b600280541461145657600280558251156114125760ff6040516020818551610df68183858a01611b82565b810160058152030190205416156113d7576004355f52600360205260ff600560405f20015460a01c1661139c57606460ff85511611158061138a575b80611378575b80611366575b80611354575b156113105760ff606481610ece81885116610e8e610eba8a610e8e866060610eaa610e94610e7860065499858b1690612138565b610e8e85602089015116868c60081c1690612138565b9061214f565b610e8e84604088015116858b60101c1690612138565b93015116878660181c1690612138565b91848060808d0151169160201c1690612138565b16041660041981018181116109d157602435101590816112f8575b50156112aa575060405192610efd84611bc8565b600435845260243560208501528260408501528160608501524260808501523360a0850152600160c085015260e08401526004355f52600360205260405f2092805184556020810151600185015560408101518051906001600160401b0382116111ea578190610f706002880154612163565b601f8111611277575b50602090601f8311600114611209575f926111fe575b50508160011b915f199060031b1c19161760028501555b60608101518051906001600160401b0382116111ea57610fc96003870154612163565b601f81116111ac575b50602090601f831160011461113757958260e0936006936110f498995f9261112c575b50508160011b915f199060031b1c19161760038201555b608084015160048201556005810160018060a01b0360a08601511681549060ff60a01b60c0880151151560a01b16916affffffffffffffffffffff60a81b16171790550191015160ff8151169082549161ff00602083015160081b1662ff0000604084015160101b169164ff00000000608063ff000000606087015160181b1695015160201b169464ffffffffff1916171717171790556110ae6007546121b1565b600755335f52600860205260405f206110c781546121b1565b90556110e6604051936024358552608060208601526080850190611ba3565b908382036040850152611ba3565b4260608301527f09e8ad66e4736435405704d301d344e9454f286d3feeb2036b1adc6f4900ccbc339280600435930390a36001600255005b015190508980610ff5565b90600387015f5260205f20915f5b601f19851681106111945750836006936110f498999360019360e097601f1981161061117c575b505050811b01600382015561100c565b01515f1960f88460031b161c1916905589808061116c565b91926020600181928685015181550194019201611145565b6111da90600388015f5260205f20601f850160051c810191602086106111e0575b601f0160051c019061219b565b86610fd2565b90915081906111cd565b634e487b7160e01b5f52604160045260245ffd5b015190508680610f8f565b9250600287015f5260205f20905f935b601f198416851061125c576001945083601f19811610611244575b505050811b016002850155610fa6565b01515f1960f88460031b161c19169055868080611234565b81810151835560209485019460019093019290910190611219565b6112a490600289015f5260205f20601f850160051c810191602086106111e057601f0160051c019061219b565b87610f79565b6084907f53636f726520696e636f6e73697374656e74207769746820627265616b646f776040519162461bcd60e51b83526020600484015260216024840152820152603760f91b6064820152fd5b9050600581018091116109d157602435111585610ee9565b6064907f496e76616c696420627265616b646f776e2073636f72657300000000000000006040519162461bcd60e51b83526020600484015260186024840152820152fd5b50606460ff6080860151161115610e44565b50606460ff6060860151161115610e3e565b50606460ff6040860151161115610e38565b50606460ff6020860151161115610e32565b6064907353636f726520616c72656164792065786973747360601b6040519162461bcd60e51b83526020600484015260146024840152820152fd5b60649073155b9cdd5c1c1bdc9d1959081052481b5bd9195b60621b6040519162461bcd60e51b83526020600484015260146024840152820152fd5b6064907f4a757374696669636174696f6e204950465320726571756972656400000000006040519162461bcd60e51b835260206004840152601b6024840152820152fd5b6064907f5265656e7472616e637947756172643a207265656e7472616e742063616c6c006040519162461bcd60e51b835260206004840152601f6024840152820152fd5b346103495760206114b36114ad36611ca1565b906123c4565b6040519015158152f35b34610349576020366003190112610349576001600160a01b036114de611c8b565b165f526004602052602060ff60405f2054166040519015158152f35b34610349575f36600319011261034957602060ff600154166040519015158152f35b346103495761152a36611ca1565b611532611df8565b5f5b81518110156106c75780610bf88461154f611567948661239c565b51805f525f6020526106c2600160405f200154611e31565b611534565b34610349575f3660031901126103495760a060065460ff604051918181168352818160081c166020840152818160101c166040840152818160181c16606084015260201c166080820152f35b34610349575f366003190112610349576115d0611d7f565b60015460ff81161561160f5760ff19166001557f5db9ee0a495bf2e6ff9c91a7834c1ba4fdd244a5e8aa4e537bd38aeae4b073aa6020604051338152a1005b60405162461bcd60e51b815260206004820152601460248201527314185d5cd8589b194e881b9bdd081c185d5cd95960621b6044820152606490fd5b34610349575f366003190112610349576020600754604051908152f35b3461034957604036600319011261034957611681611c75565b336001600160a01b0382160361169d576106c790600435611ffe565b60405163334bd91960e11b8152600490fd5b34610349576040366003190112610349576106c76004356116ce611c75565b90805f525f602052610bf3600160405f200154611e31565b34610349576020366003190112610349576004356001600160401b0381116103495760ff611731602061171e81943690600401611c20565b8160405193828580945193849201611b82565b8101600581520301902054166040519015158152f35b34610349576080366003190112610349576001600160401b03600435602480356044358481116103495761177f903690600401611c20565b60643585811161034957611797903690600401611c20565b90335f52602093600485526117b260ff60405f205416612071565b6117bd8615156120b5565b6117ca60648511156120f7565b6117d26121bf565b855f526003918286526117f160ff600560405f20015460a01c16612203565b865f528286523360018060a01b03600560405f2001541603611a3f57865f52828652600460405f20015462278d008101809111611a2c5742116119f0578351156119b357865f5282865260405f20906002600192878482015501928151998a116119a057506118608354612163565b601f8111611972575b508690601f8a116001146118eb5798806109cc9695949381937fd3e8dbbe8ff60a1fae1e5f88e71f27270ed38badc7b26e19922ed94fd12f5fe99b9c5f946118e0575b50501b915f1990851b1c19161790555b865f52845242600460405f2001556040805194859485528401526040830190611ba3565b015192508c806118ac565b9890601f19821699845f52885f209a5f5b81811061195d5750917fd3e8dbbe8ff60a1fae1e5f88e71f27270ed38badc7b26e19922ed94fd12f5fe99a9b91846109cc99989796959410611946575b505050811b0190556118bc565b01515f1983871b60f8161c191690558a8080611939565b838301518d559b85019b928a01928a016118fc565b61199a90845f52885f20601f8c0160051c8101918a8d106111e057601f0160051c019061219b565b89611869565b634e487b7160e01b5f9081526041600452fd5b60405162461bcd60e51b81526004810187905260168184015275155c19185d19481c99585cdbdb881c995c5d5a5c995960521b6044820152606490fd5b60405162461bcd60e51b81526004810187905260158184015274155c19185d19481c195c9a5bd908195e1c1a5c9959605a1b6044820152606490fd5b82634e487b7160e01b5f5260116004525ffd5b60405162461bcd60e51b815260048101879052601381840152724e6f74206f726967696e616c206f7261636c6560681b6044820152606490fd5b34610349575f36600319011261034957602060405160648152f35b34610349576020366003190112610349576004355f525f6020526020600160405f200154604051908152f35b3461034957602036600319011261034957600435611adf8115156120b5565b5f52600360205260405f206001810154611b06600260ff600585015460a01c169301612246565b91611b236040519384938452606060208501526060840190611ba3565b90151560408301520390f35b34610349576020366003190112610349576004359063ffffffff60e01b821680920361034957602091637965db0b60e01b8114908115611b71575b5015158152f35b6301ffc9a760e01b14905083611b6a565b5f5b838110611b935750505f910152565b8181015183820152602001611b84565b90602091611bbc81518092818552858086019101611b82565b601f01601f1916010190565b61010081019081106001600160401b038211176111ea57604052565b60a081019081106001600160401b038211176111ea57604052565b90601f801991011681019081106001600160401b038211176111ea57604052565b81601f82011215610349578035906001600160401b0382116111ea5760405192611c54601f8401601f191660200185611bff565b8284526020838301011161034957815f926020809301838601378301015290565b602435906001600160a01b038216820361034957565b600435906001600160a01b038216820361034957565b906040600319830112610349576004356001600160a01b03811681036103495791602435906001600160401b039081831161034957806023840112156103495782600401359182116111ea578160051b60405193602093611d0485840187611bff565b855260248486019282010192831161034957602401905b828210611d29575050505090565b81358152908301908301611d1b565b60243590811515820361034957565b60ff60808092828151168552826020820151166020860152826040820151166040860152826060820151166060860152015116910152565b335f9081527f7d7ffb7a348e1c6a02869081a26547b49160dd3df72d1d75a570eb9b698292ec60205260409020547fa49807205ce4d355092ef5a8a18f56e8913cf4a201fbe287825b095693c217759060ff1615611dda5750565b6044906040519063e2517d3f60e01b82523360048301526024820152fd5b335f9081527fad3228b676f7d3cd4284a5443f17f1962b36e491b30a40b2405849e597ba5fb5602052604081205460ff1615611dda5750565b805f525f60205260405f20335f5260205260ff60405f20541615611dda5750565b6001600160a01b03165f8181527fc1c604b5add75b59252bca1e4e4ec4ab21f3921b1ddcf7a43abe69724bce555d60205260408120549091905f805160206125298339815191529060ff16611eeb57808352826020526040832082845260205260408320600160ff198254161790557f2f8788117e7eff1d82e926ec794901d17c78024a50270940304540a733656f0d339380a4600190565b505090565b905f9180835282602052604083209160018060a01b03169182845260205260ff604084205416155f14611eeb57808352826020526040832082845260205260408320600160ff198254161790557f2f8788117e7eff1d82e926ec794901d17c78024a50270940304540a733656f0d339380a4600190565b6001600160a01b03165f8181527fc1c604b5add75b59252bca1e4e4ec4ab21f3921b1ddcf7a43abe69724bce555d60205260408120549091905f805160206125298339815191529060ff1615611eeb5780835282602052604083208284526020526040832060ff1981541690557ff6391f5c32d9c69d2a47ea670b442974b53935d1edc7fd64eb21e047a839171b339380a4600190565b905f9180835282602052604083209160018060a01b03169182845260205260ff6040842054165f14611eeb5780835282602052604083208284526020526040832060ff1981541690557ff6391f5c32d9c69d2a47ea670b442974b53935d1edc7fd64eb21e047a839171b339380a4600190565b1561207857565b60405162461bcd60e51b81526020600482015260156024820152744e6f7420617574686f72697a6564206f7261636c6560581b6044820152606490fd5b156120bc57565b60405162461bcd60e51b8152602060048201526013602482015272125b9d985b1a59081c1c9bdc1bdcd85b081251606a1b6044820152606490fd5b156120fe57565b60405162461bcd60e51b815260206004820152601260248201527153636f7265206f7574206f662072616e676560701b6044820152606490fd5b9060ff8091169116029060ff82169182036109d157565b9060ff8091169116019060ff82116109d157565b90600182811c92168015612191575b602083101461217d57565b634e487b7160e01b5f52602260045260245ffd5b91607f1691612172565b8181106121a6575050565b5f815560010161219b565b5f1981146109d15760010190565b60ff600154166121cb57565b60405162461bcd60e51b815260206004820152601060248201526f14185d5cd8589b194e881c185d5cd95960821b6044820152606490fd5b1561220a57565b60405162461bcd60e51b815260206004820152601460248201527314d8dbdc9948191bd95cc81b9bdd08195e1a5cdd60621b6044820152606490fd5b9060405191825f82549261225984612163565b9081845260019485811690815f146122c45750600114612284575b505061228292500383611bff565b565b909391505f52602090815f20935f915b8183106122ac57505061228293508201015f80612274565b85548884018501529485019487945091830191612294565b91505061228294506020925060ff191682840152151560051b8201015f80612274565b604051906122f482611be4565b5f6080838281528260208201528260408201528260608201520152565b9060405161231e81611be4565b608060ff8294548181168452818160081c166020850152818160101c166040850152818160181c16606085015260201c16910152565b61235e8154612163565b9081612368575050565b81601f5f9311600114612379575055565b908083918252612398601f60208420940160051c84016001850161219b565b5555565b80518210156123b05760209160051b010190565b634e487b7160e01b5f52603260045260245ffd5b905f5b81518110156123f8576123de83610a58838561239c565b6123f0576123eb906121b1565b6123c7565b505050600190565b5050505f90565b60405160e081018181106001600160401b038211176111ea57604052600681526020810160c03682378151156123b0575f809152815160011015612514577fa49807205ce4d355092ef5a8a18f56e8913cf4a201fbe287825b095693c217756040830152815160021015612514575f805160206125298339815191526060830152815160031015612514577fede9dcdb0ce99dc7cec9c7be9246ad08b37853683ad91569c187b647ddf5e21c6080830152815160041015612514577f58223cdfb69946630d837d40b5c366a584f0217ada7fddd8318f2e08603cfa2260a083015281516005101561251457507f7b8bb8356a3f32f5c111ff23f050d97f08988e0883529ea7bff3b918887a6e0e60c082015290565b634e487b7160e01b81526032600452602490fdfe482648e7878e9fa54c0a2f67ffd22d00ebc37cf7a03e060e428d2ab0cd6735cca26469706673582212200b1223efaf666021dca3699461c9c0f3c03b0de38e34c65d00330de55a5f2e8c64736f6c634300081400332f8788117e7eff1d82e926ec794901d17c78024a50270940304540a733656f0d",
			"opcodes": "PUSH1 0x40 PUSH1 0x80 DUP2 MSTORE CALLVALUE PUSH3 0xFE JUMPI PUSH3 0x16 CALLER PUSH3 0x102 JUMP JUMPDEST POP PUSH1 0xFF NOT DUP1 PUSH1 0x1 SLOAD AND PUSH1 0x1 SSTORE PUSH1 0x1 PUSH1 0x2 SSTORE PUSH3 0x32 CALLER PUSH3 0x102 JUMP JUMPDEST POP PUSH3 0x3E CALLER PUSH3 0x180 JUMP JUMPDEST POP PUSH3 0x4A CALLER PUSH3 0x220 JUMP JUMPDEST POP DUP2 MLOAD PUSH1 0xA0 DUP2 ADD PUSH1 0x1 PUSH1 0x1 PUSH1 0x40 SHL SUB DUP2 GT DUP3 DUP3 LT OR PUSH3 0xEA JUMPI PUSH1 0xF SWAP2 PUSH1 0x80 SWAP2 DUP6 MSTORE PUSH1 0x19 DUP2 MSTORE PUSH1 0x19 PUSH1 0x20 DUP3 ADD MSTORE PUSH1 0x14 DUP6 DUP3 ADD MSTORE DUP3 PUSH1 0x60 DUP3 ADD MSTORE ADD MSTORE PUSH5 0xF0F141919 PUSH5 0xFFFFFFFFFF NOT PUSH1 0x6 SLOAD AND OR PUSH1 0x6 SSTORE PUSH1 0x25 DUP3 MLOAD PUSH5 0x11D4150B4D PUSH1 0xDA SHL DUP2 MSTORE PUSH1 0x5 DUP1 DUP3 ADD MSTORE KECCAK256 PUSH1 0x1 DUP3 DUP3 SLOAD AND OR SWAP1 SSTORE PUSH1 0x1 PUSH1 0x28 DUP4 MLOAD PUSH8 0x436C617564652D33 PUSH1 0xC0 SHL DUP2 MSTORE PUSH1 0x5 PUSH1 0x8 DUP3 ADD MSTORE KECCAK256 SWAP2 DUP3 SLOAD AND OR SWAP1 SSTORE MLOAD PUSH2 0x257E SWAP1 DUP2 PUSH3 0x2BC DUP3 CODECOPY RETURN JUMPDEST PUSH4 0x4E487B71 PUSH1 0xE0 SHL PUSH0 MSTORE PUSH1 0x41 PUSH1 0x4 MSTORE PUSH1 0x24 PUSH0 REVERT JUMPDEST PUSH0 DUP1 REVERT JUMPDEST PUSH1 0x1 PUSH1 0x1 PUSH1 0xA0 SHL SUB AND PUSH0 DUP2 DUP2 MSTORE PUSH32 0xAD3228B676F7D3CD4284A5443F17F1962B36E491B30A40B2405849E597BA5FB5 PUSH1 0x20 MSTORE PUSH1 0x40 DUP2 KECCAK256 SLOAD SWAP1 SWAP2 SWAP1 PUSH1 0xFF AND PUSH3 0x17C JUMPI DUP2 DUP1 MSTORE DUP2 PUSH1 0x20 MSTORE PUSH1 0x40 DUP3 KECCAK256 DUP2 DUP4 MSTORE PUSH1 0x20 MSTORE PUSH1 0x40 DUP3 KECCAK256 PUSH1 0x1 PUSH1 0xFF NOT DUP3 SLOAD AND OR SWAP1 SSTORE CALLER SWAP2 PUSH0 DUP1 MLOAD PUSH1 0x20 PUSH3 0x283A DUP4 CODECOPY DUP2 MLOAD SWAP2 MSTORE DUP2 DUP1 LOG4 PUSH1 0x1 SWAP1 JUMP JUMPDEST POP SWAP1 JUMP JUMPDEST PUSH1 0x1 PUSH1 0x1 PUSH1 0xA0 SHL SUB AND PUSH0 DUP2 DUP2 MSTORE PUSH32 0x7D7FFB7A348E1C6A02869081A26547B49160DD3DF72D1D75A570EB9B698292EC PUSH1 0x20 MSTORE PUSH1 0x40 DUP2 KECCAK256 SLOAD SWAP1 SWAP2 SWAP1 PUSH32 0xA49807205CE4D355092EF5A8A18F56E8913CF4A201FBE287825B095693C21775 SWAP1 PUSH1 0xFF AND PUSH3 0x21B JUMPI DUP1 DUP4 MSTORE DUP3 PUSH1 0x20 MSTORE PUSH1 0x40 DUP4 KECCAK256 DUP3 DUP5 MSTORE PUSH1 0x20 MSTORE PUSH1 0x40 DUP4 KECCAK256 PUSH1 0x1 PUSH1 0xFF NOT DUP3 SLOAD AND OR SWAP1 SSTORE PUSH0 DUP1 MLOAD PUSH1 0x20 PUSH3 0x283A DUP4 CODECOPY DUP2 MLOAD SWAP2 MSTORE CALLER SWAP4 DUP1 LOG4 PUSH1 0x1 SWAP1 JUMP JUMPDEST POP POP SWAP1 JUMP JUMPDEST PUSH1 0x1 PUSH1 0x1 PUSH1 0xA0 SHL SUB AND PUSH0 DUP2 DUP2 MSTORE PUSH32 0xC1C604B5ADD75B59252BCA1E4E4EC4AB21F3921B1DDCF7A43ABE69724BCE555D PUSH1 0x20 MSTORE PUSH1 0x40 DUP2 KECCAK256 SLOAD SWAP1 SWAP2 SWAP1 PUSH32 0x482648E7878E9FA54C0A2F67FFD22D00EBC37CF7A03E060E428D2AB0CD6735CC SWAP1 PUSH1 0xFF AND PUSH3 0x21B JUMPI DUP1 DUP4 MSTORE DUP3 PUSH1 0x20 MSTORE PUSH1 0x40 DUP4 KECCAK256 DUP3 DUP5 MSTORE PUSH1 0x20 MSTORE PUSH1 0x40 DUP4 KECCAK256 PUSH1 0x1 PUSH1 0xFF NOT DUP3 SLOAD AND OR SWAP1 SSTORE PUSH0 DUP1 MLOAD PUSH1 0x20 PUSH3 0x283A DUP4 CODECOPY DUP2 MLOAD SWAP2 MSTORE CALLER SWAP4 DUP1 LOG4 PUSH1 0x1 SWAP1 JUMP INVALID PUSH1 0x80 DUP1 PUSH1 0x40 MSTORE PUSH1 0x4 CALLDATASIZE LT ISZERO PUSH2 0x12 JUMPI PUSH0 DUP1 REVERT JUMPDEST PUSH0 CALLDATALOAD PUSH1 0xE0 SHR SWAP1 DUP2 PUSH4 0x1FFC9A7 EQ PUSH2 0x1B2F JUMPI POP DUP1 PUSH4 0x311B82D EQ PUSH2 0x1AC0 JUMPI DUP1 PUSH4 0x248A9CA3 EQ PUSH2 0x1A94 JUMPI DUP1 PUSH4 0x27FF6223 EQ PUSH2 0x1A79 JUMPI DUP1 PUSH4 0x2B116373 EQ PUSH2 0x1747 JUMPI DUP1 PUSH4 0x2ED49CF7 EQ PUSH2 0x16E6 JUMPI DUP1 PUSH4 0x2F2FF15D EQ PUSH2 0x16AF JUMPI DUP1 PUSH4 0x36568ABE EQ PUSH2 0x1668 JUMPI DUP1 PUSH4 0x3A1E017F EQ PUSH2 0x164B JUMPI DUP1 PUSH4 0x3F4BA83A EQ PUSH2 0x15B8 JUMPI DUP1 PUSH4 0x40B89270 EQ PUSH2 0xACC JUMPI DUP1 PUSH4 0x4DA89FBD EQ PUSH2 0x156C JUMPI DUP1 PUSH4 0x4FE9D1F5 EQ PUSH2 0x151C JUMPI DUP1 PUSH4 0x5C975ABB EQ PUSH2 0x14FA JUMPI DUP1 PUSH4 0x61C992A3 EQ PUSH2 0x14BD JUMPI DUP1 PUSH4 0x68CA78F9 EQ PUSH2 0x149A JUMPI DUP1 PUSH4 0x7092B0BC EQ PUSH2 0xCCD JUMPI DUP1 PUSH4 0x7131F025 EQ PUSH2 0xC95 JUMPI DUP1 PUSH4 0x75B238FC EQ PUSH2 0xC5B JUMPI DUP1 PUSH4 0x8456CB59 EQ PUSH2 0xC03 JUMPI DUP1 PUSH4 0x91B9F9D8 EQ PUSH2 0xBA8 JUMPI DUP1 PUSH4 0x91D14854 EQ PUSH2 0xB60 JUMPI DUP1 PUSH4 0x96CAAC0A EQ PUSH2 0xB20 JUMPI DUP1 PUSH4 0xA02D72FB EQ PUSH2 0xAE6 JUMPI DUP1 PUSH4 0xA217FDDF EQ PUSH2 0xACC JUMPI DUP1 PUSH4 0xA91AD18E EQ PUSH2 0xAAF JUMPI DUP1 PUSH4 0xACA5A8A7 EQ PUSH2 0xA1C JUMPI DUP1 PUSH4 0xB8A956D3 EQ PUSH2 0x8DF JUMPI DUP1 PUSH4 0xBA340773 EQ PUSH2 0x7E0 JUMPI DUP1 PUSH4 0xBFE42A37 EQ PUSH2 0x7A6 JUMPI DUP1 PUSH4 0xC601F7AF EQ PUSH2 0x77F JUMPI DUP1 PUSH4 0xC772A8A6 EQ PUSH2 0x736 JUMPI DUP1 PUSH4 0xCFE85A2F EQ PUSH2 0x6C9 JUMPI DUP1 PUSH4 0xD547741F EQ PUSH2 0x68B JUMPI DUP1 PUSH4 0xD5C1A1E1 EQ PUSH2 0x55D JUMPI DUP1 PUSH4 0xEA535940 EQ PUSH2 0x3E1 JUMPI DUP1 PUSH4 0xEBDF690F EQ PUSH2 0x3A7 JUMPI DUP1 PUSH4 0xF2BCAC3D EQ PUSH2 0x34D JUMPI PUSH4 0xFF8DEA01 EQ PUSH2 0x1C9 JUMPI PUSH0 DUP1 REVERT JUMPDEST CALLVALUE PUSH2 0x349 JUMPI PUSH1 0xA0 CALLDATASIZE PUSH1 0x3 NOT ADD SLT PUSH2 0x349 JUMPI PUSH1 0x40 MLOAD PUSH2 0x1E6 DUP2 PUSH2 0x1BE4 JUMP JUMPDEST PUSH1 0xFF PUSH1 0x4 CALLDATALOAD DUP2 DUP2 AND DUP2 SUB PUSH2 0x349 JUMPI DUP3 MSTORE PUSH1 0x24 CALLDATALOAD SWAP2 DUP2 DUP4 AND DUP4 SUB PUSH2 0x349 JUMPI PUSH1 0x20 DUP2 ADD SWAP3 DUP4 MSTORE PUSH1 0x44 CALLDATALOAD SWAP3 DUP3 DUP5 AND DUP5 SUB PUSH2 0x349 JUMPI PUSH1 0x40 DUP3 ADD SWAP4 DUP5 MSTORE PUSH1 0x64 CALLDATALOAD DUP4 DUP2 AND DUP2 SUB PUSH2 0x349 JUMPI PUSH1 0x60 DUP4 ADD SWAP1 DUP2 MSTORE PUSH1 0x84 CALLDATALOAD SWAP1 DUP5 DUP3 AND DUP3 SUB PUSH2 0x349 JUMPI PUSH1 0x80 DUP5 ADD SWAP2 DUP3 MSTORE PUSH2 0x24D PUSH2 0x1D7F JUMP JUMPDEST PUSH1 0x64 DUP6 PUSH2 0x288 PUSH2 0x27E PUSH2 0x274 PUSH2 0x26A DUP5 DUP11 MLOAD AND DUP6 DUP11 MLOAD AND SWAP1 PUSH2 0x214F JUMP JUMPDEST DUP5 DUP13 MLOAD AND SWAP1 PUSH2 0x214F JUMP JUMPDEST DUP4 DUP7 MLOAD AND SWAP1 PUSH2 0x214F JUMP JUMPDEST DUP3 DUP7 MLOAD AND SWAP1 PUSH2 0x214F JUMP JUMPDEST AND SUB PUSH2 0x304 JUMPI PUSH32 0x90565F56924446477768885E9B20CF4CB9D2183F2AD4313F3E90F1DCAEDCC0AE SWAP6 PUSH1 0xA0 SWAP6 DUP6 MLOAD AND PUSH5 0xFF00000000 PUSH4 0xFF000000 PUSH3 0xFF0000 PUSH2 0xFF00 PUSH1 0x6 SLOAD SWAP9 MLOAD PUSH1 0x8 SHL AND SWAP5 MLOAD PUSH1 0x10 SHL AND SWAP5 MLOAD PUSH1 0x18 SHL AND SWAP5 MLOAD PUSH1 0x20 SHL AND SWAP5 PUSH5 0xFFFFFFFFFF NOT AND OR OR OR OR OR PUSH1 0x6 SSTORE PUSH2 0x301 PUSH1 0x40 MLOAD DUP1 SWAP3 PUSH2 0x1D47 JUMP JUMPDEST LOG1 STOP JUMPDEST PUSH1 0x40 MLOAD PUSH3 0x461BCD PUSH1 0xE5 SHL DUP2 MSTORE PUSH1 0x20 PUSH1 0x4 DUP3 ADD MSTORE PUSH1 0x17 PUSH1 0x24 DUP3 ADD MSTORE PUSH32 0x57656967687473206D7573742073756D20746F20313030000000000000000000 PUSH1 0x44 DUP3 ADD MSTORE PUSH1 0x64 SWAP1 REVERT JUMPDEST PUSH0 DUP1 REVERT JUMPDEST CALLVALUE PUSH2 0x349 JUMPI PUSH0 CALLDATASIZE PUSH1 0x3 NOT ADD SLT PUSH2 0x349 JUMPI PUSH2 0x365 PUSH2 0x23FF JUMP JUMPDEST PUSH1 0x40 MLOAD DUP1 SWAP2 PUSH1 0x20 DUP1 DUP4 ADD DUP2 DUP5 MSTORE DUP3 MLOAD DUP1 SWAP2 MSTORE DUP2 PUSH1 0x40 DUP6 ADD SWAP4 ADD SWAP2 PUSH0 JUMPDEST DUP3 DUP2 LT PUSH2 0x390 JUMPI POP POP POP POP SUB SWAP1 RETURN JUMPDEST DUP4 MLOAD DUP6 MSTORE DUP7 SWAP6 POP SWAP4 DUP2 ADD SWAP4 SWAP3 DUP2 ADD SWAP3 PUSH1 0x1 ADD PUSH2 0x381 JUMP JUMPDEST CALLVALUE PUSH2 0x349 JUMPI PUSH0 CALLDATASIZE PUSH1 0x3 NOT ADD SLT PUSH2 0x349 JUMPI PUSH1 0x20 PUSH1 0x40 MLOAD PUSH32 0xEDE9DCDB0CE99DC7CEC9C7BE9246AD08B37853683AD91569C187B647DDF5E21C DUP2 MSTORE RETURN JUMPDEST CALLVALUE PUSH2 0x349 JUMPI PUSH1 0x20 DUP1 PUSH1 0x3 NOT CALLDATASIZE ADD SLT PUSH2 0x349 JUMPI PUSH1 0x4 CALLDATALOAD PUSH1 0x40 MLOAD PUSH2 0x402 DUP2 PUSH2 0x1BC8 JUMP JUMPDEST PUSH0 DUP2 MSTORE PUSH0 DUP4 DUP3 ADD MSTORE PUSH1 0x60 PUSH1 0x40 DUP3 ADD MSTORE PUSH1 0x60 DUP1 DUP3 ADD MSTORE PUSH0 PUSH1 0x80 DUP3 ADD MSTORE PUSH0 PUSH1 0xA0 DUP3 ADD MSTORE PUSH0 PUSH1 0xC0 DUP3 ADD MSTORE PUSH1 0xE0 PUSH2 0x433 PUSH2 0x22E7 JUMP JUMPDEST SWAP2 ADD MSTORE PUSH2 0x441 DUP2 ISZERO ISZERO PUSH2 0x20B5 JUMP JUMPDEST DUP1 PUSH0 MSTORE PUSH1 0x3 DUP3 MSTORE PUSH2 0x45E PUSH1 0xFF PUSH1 0x5 PUSH1 0x40 PUSH0 KECCAK256 ADD SLOAD PUSH1 0xA0 SHR AND PUSH2 0x2203 JUMP JUMPDEST PUSH0 MSTORE PUSH1 0x3 DUP2 MSTORE PUSH1 0x40 PUSH0 KECCAK256 SWAP1 PUSH1 0x40 MLOAD SWAP2 PUSH2 0x476 DUP4 PUSH2 0x1BC8 JUMP JUMPDEST DUP1 SLOAD DUP4 MSTORE PUSH2 0x559 PUSH1 0x1 DUP3 ADD SLOAD DUP4 DUP6 ADD SWAP1 DUP2 MSTORE PUSH2 0x494 PUSH1 0x2 DUP5 ADD PUSH2 0x2246 JUMP JUMPDEST PUSH1 0x40 DUP7 ADD SWAP1 DUP2 MSTORE DUP6 PUSH2 0x4A8 PUSH1 0x3 DUP7 ADD PUSH2 0x2246 JUMP JUMPDEST SWAP5 PUSH1 0x60 DUP3 ADD SWAP6 DUP7 MSTORE PUSH2 0x537 PUSH1 0x4 DUP3 ADD SLOAD SWAP7 PUSH1 0x80 DUP5 ADD SWAP8 DUP9 MSTORE PUSH2 0x524 PUSH1 0x5 DUP5 ADD SLOAD SWAP6 PUSH2 0x4F4 PUSH1 0x6 PUSH1 0xA0 DUP9 ADD SWAP7 PUSH1 0xFF PUSH1 0xC0 PUSH1 0x1 DUP1 PUSH1 0xA0 SHL SUB SWAP11 DUP12 DUP14 AND DUP12 MSTORE ADD SWAP11 PUSH1 0xA0 SHR AND ISZERO ISZERO DUP11 MSTORE ADD PUSH2 0x2311 JUMP JUMPDEST SWAP8 PUSH1 0xE0 DUP14 ADD SWAP9 DUP10 MSTORE DUP12 PUSH1 0x40 MLOAD SWAP14 DUP15 SWAP14 DUP15 MSTORE MLOAD SWAP1 DUP14 ADD MSTORE MLOAD PUSH1 0x40 DUP13 ADD MSTORE MLOAD PUSH2 0x180 PUSH1 0x60 DUP13 ADD MSTORE PUSH2 0x1A0 DUP12 ADD SWAP1 PUSH2 0x1BA3 JUMP JUMPDEST SWAP1 MLOAD DUP10 DUP3 SUB PUSH1 0x1F NOT ADD PUSH1 0x80 DUP12 ADD MSTORE PUSH2 0x1BA3 JUMP JUMPDEST SWAP6 MLOAD PUSH1 0xA0 DUP9 ADD MSTORE MLOAD AND PUSH1 0xC0 DUP7 ADD MSTORE MLOAD ISZERO ISZERO PUSH1 0xE0 DUP6 ADD MSTORE MLOAD PUSH2 0x100 DUP5 ADD SWAP1 PUSH2 0x1D47 JUMP JUMPDEST SUB SWAP1 RETURN JUMPDEST CALLVALUE PUSH2 0x349 JUMPI PUSH1 0x40 CALLDATASIZE PUSH1 0x3 NOT ADD SLT PUSH2 0x349 JUMPI PUSH2 0x576 PUSH2 0x1C8B JUMP JUMPDEST PUSH2 0x57E PUSH2 0x1D38 JUMP JUMPDEST PUSH2 0x586 PUSH2 0x1D7F JUMP JUMPDEST PUSH1 0x1 PUSH1 0x1 PUSH1 0xA0 SHL SUB DUP3 AND SWAP2 DUP3 ISZERO PUSH2 0x64D JUMPI PUSH32 0x82A8FB1E779EA45AD427CC612E47087F5386A567E49DCE488185E40646FA48D5 SWAP2 PUSH1 0x20 SWAP2 DUP5 PUSH0 MSTORE PUSH1 0x4 DUP4 MSTORE PUSH2 0x5DC DUP3 PUSH1 0x40 PUSH0 KECCAK256 SWAP1 PUSH1 0xFF DUP1 NOT DUP4 SLOAD AND SWAP2 ISZERO ISZERO AND OR SWAP1 SSTORE JUMP JUMPDEST DUP2 ISZERO PUSH2 0x61B JUMPI PUSH2 0x60E SWAP1 PUSH0 DUP1 MLOAD PUSH1 0x20 PUSH2 0x2529 DUP4 CODECOPY DUP2 MLOAD SWAP2 MSTORE PUSH0 MSTORE PUSH0 DUP5 MSTORE PUSH2 0x609 PUSH1 0x1 PUSH1 0x40 PUSH0 KECCAK256 ADD SLOAD PUSH2 0x1E31 JUMP JUMPDEST PUSH2 0x1E52 JUMP JUMPDEST POP JUMPDEST PUSH1 0x40 MLOAD SWAP1 ISZERO ISZERO DUP2 MSTORE LOG2 STOP JUMPDEST PUSH2 0x647 SWAP1 PUSH0 DUP1 MLOAD PUSH1 0x20 PUSH2 0x2529 DUP4 CODECOPY DUP2 MLOAD SWAP2 MSTORE PUSH0 MSTORE PUSH0 DUP5 MSTORE PUSH2 0x642 PUSH1 0x1 PUSH1 0x40 PUSH0 KECCAK256 ADD SLOAD PUSH2 0x1E31 JUMP JUMPDEST PUSH2 0x1F67 JUMP JUMPDEST POP PUSH2 0x610 JUMP JUMPDEST PUSH1 0x40 MLOAD PUSH3 0x461BCD PUSH1 0xE5 SHL DUP2 MSTORE PUSH1 0x20 PUSH1 0x4 DUP3 ADD MSTORE PUSH1 0x16 PUSH1 0x24 DUP3 ADD MSTORE PUSH22 0x496E76616C6964206F7261636C652061646472657373 PUSH1 0x50 SHL PUSH1 0x44 DUP3 ADD MSTORE PUSH1 0x64 SWAP1 REVERT JUMPDEST CALLVALUE PUSH2 0x349 JUMPI PUSH1 0x40 CALLDATASIZE PUSH1 0x3 NOT ADD SLT PUSH2 0x349 JUMPI PUSH2 0x6C7 PUSH1 0x4 CALLDATALOAD PUSH2 0x6AA PUSH2 0x1C75 JUMP JUMPDEST SWAP1 DUP1 PUSH0 MSTORE PUSH0 PUSH1 0x20 MSTORE PUSH2 0x6C2 PUSH1 0x1 PUSH1 0x40 PUSH0 KECCAK256 ADD SLOAD PUSH2 0x1E31 JUMP JUMPDEST PUSH2 0x1FFE JUMP JUMPDEST STOP JUMPDEST CALLVALUE PUSH2 0x349 JUMPI PUSH1 0x20 CALLDATASIZE PUSH1 0x3 NOT ADD SLT PUSH2 0x349 JUMPI PUSH1 0x4 CALLDATALOAD PUSH2 0x6E5 PUSH2 0x22E7 JUMP JUMPDEST POP PUSH2 0x6F1 DUP2 ISZERO ISZERO PUSH2 0x20B5 JUMP JUMPDEST DUP1 PUSH0 MSTORE PUSH1 0x3 PUSH1 0x20 MSTORE PUSH2 0x70F PUSH1 0xFF PUSH1 0x5 PUSH1 0x40 PUSH0 KECCAK256 ADD SLOAD PUSH1 0xA0 SHR AND PUSH2 0x2203 JUMP JUMPDEST PUSH0 MSTORE PUSH1 0x3 PUSH1 0x20 MSTORE PUSH1 0xA0 PUSH2 0x727 PUSH1 0x6 PUSH1 0x40 PUSH0 KECCAK256 ADD PUSH2 0x2311 JUMP JUMPDEST PUSH2 0x734 PUSH1 0x40 MLOAD DUP1 SWAP3 PUSH2 0x1D47 JUMP JUMPDEST RETURN JUMPDEST CALLVALUE PUSH2 0x349 JUMPI PUSH1 0x20 CALLDATASIZE PUSH1 0x3 NOT ADD SLT PUSH2 0x349 JUMPI PUSH1 0x1 PUSH1 0x1 PUSH1 0xA0 SHL SUB PUSH2 0x757 PUSH2 0x1C8B JUMP JUMPDEST AND PUSH0 MSTORE PUSH1 0x8 PUSH1 0x20 MSTORE PUSH1 0x40 DUP1 PUSH0 KECCAK256 SLOAD PUSH1 0x4 PUSH1 0x20 MSTORE PUSH1 0xFF DUP3 PUSH0 KECCAK256 SLOAD AND DUP3 MLOAD SWAP2 DUP3 MSTORE ISZERO ISZERO PUSH1 0x20 DUP3 ADD MSTORE RETURN JUMPDEST CALLVALUE PUSH2 0x349 JUMPI PUSH0 CALLDATASIZE PUSH1 0x3 NOT ADD SLT PUSH2 0x349 JUMPI PUSH1 0x20 PUSH1 0x40 MLOAD PUSH0 DUP1 MLOAD PUSH1 0x20 PUSH2 0x2529 DUP4 CODECOPY DUP2 MLOAD SWAP2 MSTORE DUP2 MSTORE RETURN JUMPDEST CALLVALUE PUSH2 0x349 JUMPI PUSH0 CALLDATASIZE PUSH1 0x3 NOT ADD SLT PUSH2 0x349 JUMPI PUSH1 0x20 PUSH1 0x40 MLOAD PUSH32 0x7B8BB8356A3F32F5C111FF23F050D97F08988E0883529EA7BFF3B918887A6E0E DUP2 MSTORE RETURN JUMPDEST CALLVALUE PUSH2 0x349 JUMPI PUSH1 0x40 CALLDATASIZE PUSH1 0x3 NOT ADD SLT PUSH2 0x349 JUMPI PUSH1 0x4 CALLDATALOAD PUSH1 0x1 PUSH1 0x1 PUSH1 0x40 SHL SUB DUP2 GT PUSH2 0x349 JUMPI PUSH2 0x810 SWAP1 CALLDATASIZE SWAP1 PUSH1 0x4 ADD PUSH2 0x1C20 JUMP JUMPDEST PUSH2 0x818 PUSH2 0x1D38 JUMP JUMPDEST PUSH2 0x820 PUSH2 0x1D7F JUMP JUMPDEST DUP2 MLOAD ISZERO PUSH2 0x8A2 JUMPI PUSH32 0x2E5180543742ECE2DB44ED70B2619F2BF555A29A7BDEAD994736174F0D90A9B6 SWAP2 DUP2 PUSH2 0x881 PUSH2 0x895 SWAP4 PUSH1 0x40 MLOAD PUSH1 0x20 DUP2 DUP7 MLOAD PUSH2 0x866 DUP2 DUP4 DUP6 DUP12 ADD PUSH2 0x1B82 JUMP JUMPDEST DUP2 ADD PUSH1 0x5 DUP2 MSTORE SUB ADD SWAP1 KECCAK256 SWAP1 PUSH1 0xFF DUP1 NOT DUP4 SLOAD AND SWAP2 ISZERO ISZERO AND OR SWAP1 SSTORE JUMP JUMPDEST PUSH1 0x40 MLOAD SWAP3 DUP4 SWAP3 PUSH1 0x40 DUP5 MSTORE PUSH1 0x40 DUP5 ADD SWAP1 PUSH2 0x1BA3 JUMP JUMPDEST SWAP1 ISZERO ISZERO PUSH1 0x20 DUP4 ADD MSTORE SUB SWAP1 LOG1 STOP JUMPDEST PUSH1 0x40 MLOAD PUSH3 0x461BCD PUSH1 0xE5 SHL DUP2 MSTORE PUSH1 0x20 PUSH1 0x4 DUP3 ADD MSTORE PUSH1 0x15 PUSH1 0x24 DUP3 ADD MSTORE PUSH21 0x24B73B30B634B21036B7B232B6103B32B939B4B7B7 PUSH1 0x59 SHL PUSH1 0x44 DUP3 ADD MSTORE PUSH1 0x64 SWAP1 REVERT JUMPDEST CALLVALUE PUSH2 0x349 JUMPI PUSH1 0x40 CALLDATASIZE PUSH1 0x3 NOT ADD SLT PUSH2 0x349 JUMPI PUSH1 0x4 CALLDATALOAD PUSH1 0x24 CALLDATALOAD PUSH1 0x1 PUSH1 0x1 PUSH1 0x40 SHL SUB DUP2 GT PUSH2 0x349 JUMPI PUSH2 0x912 SWAP1 CALLDATASIZE SWAP1 PUSH1 0x4 ADD PUSH2 0x1C20 JUMP JUMPDEST PUSH2 0x91A PUSH2 0x1DF8 JUMP JUMPDEST DUP2 PUSH0 MSTORE PUSH1 0x3 PUSH1 0x20 MSTORE PUSH2 0x938 PUSH1 0xFF PUSH1 0x5 PUSH1 0x40 PUSH0 KECCAK256 ADD SLOAD PUSH1 0xA0 SHR AND PUSH2 0x2203 JUMP JUMPDEST DUP1 MLOAD ISZERO PUSH2 0x9E5 JUMPI DUP2 PUSH0 MSTORE PUSH1 0x3 PUSH1 0x20 MSTORE PUSH0 PUSH1 0x6 PUSH1 0x40 DUP3 KECCAK256 DUP3 DUP2 SSTORE DUP3 PUSH1 0x1 DUP3 ADD SSTORE PUSH2 0x963 PUSH1 0x2 DUP3 ADD PUSH2 0x2354 JUMP JUMPDEST PUSH2 0x96F PUSH1 0x3 DUP3 ADD PUSH2 0x2354 JUMP JUMPDEST DUP3 PUSH1 0x4 DUP3 ADD SSTORE DUP3 PUSH1 0x5 DUP3 ADD SSTORE ADD SSTORE PUSH1 0x7 SLOAD DUP1 ISZERO PUSH2 0x9D1 JUMPI PUSH32 0xD3E8DBBE8FF60A1FAE1E5F88E71F27270ED38BADC7B26E19922ED94FD12F5FE9 SWAP2 PUSH2 0x9CC SWAP2 PUSH0 NOT ADD PUSH1 0x7 SSTORE PUSH1 0x40 MLOAD SWAP2 DUP3 SWAP2 PUSH0 DUP4 MSTORE PUSH1 0x40 PUSH1 0x20 DUP5 ADD MSTORE PUSH1 0x40 DUP4 ADD SWAP1 PUSH2 0x1BA3 JUMP JUMPDEST SUB SWAP1 LOG2 STOP JUMPDEST PUSH4 0x4E487B71 PUSH1 0xE0 SHL PUSH0 MSTORE PUSH1 0x11 PUSH1 0x4 MSTORE PUSH1 0x24 PUSH0 REVERT JUMPDEST PUSH1 0x40 MLOAD PUSH3 0x461BCD PUSH1 0xE5 SHL DUP2 MSTORE PUSH1 0x20 PUSH1 0x4 DUP3 ADD MSTORE PUSH1 0xF PUSH1 0x24 DUP3 ADD MSTORE PUSH15 0x1499585CDBDB881C995C5D5A5C9959 PUSH1 0x8A SHL PUSH1 0x44 DUP3 ADD MSTORE PUSH1 0x64 SWAP1 REVERT JUMPDEST CALLVALUE PUSH2 0x349 JUMPI PUSH1 0x20 CALLDATASIZE PUSH1 0x3 NOT ADD SLT PUSH2 0x349 JUMPI PUSH2 0xA35 PUSH2 0x1C8B JUMP JUMPDEST PUSH2 0xA3D PUSH2 0x23FF JUMP JUMPDEST PUSH0 SWAP2 PUSH0 JUMPDEST DUP3 MLOAD DUP2 LT ISZERO PUSH2 0xAA4 JUMPI PUSH2 0xA7C DUP3 PUSH2 0xA58 DUP4 DUP7 PUSH2 0x239C JUMP JUMPDEST MLOAD PUSH0 MSTORE PUSH0 PUSH1 0x20 MSTORE PUSH1 0x40 PUSH0 KECCAK256 SWAP1 PUSH1 0x1 DUP1 PUSH1 0xA0 SHL SUB AND PUSH0 MSTORE PUSH1 0x20 MSTORE PUSH1 0xFF PUSH1 0x40 PUSH0 KECCAK256 SLOAD AND SWAP1 JUMP JUMPDEST PUSH2 0xA8F JUMPI JUMPDEST PUSH2 0xA8A SWAP1 PUSH2 0x21B1 JUMP JUMPDEST PUSH2 0xA41 JUMP JUMPDEST SWAP3 PUSH2 0xA9C PUSH2 0xA8A SWAP2 PUSH2 0x21B1 JUMP JUMPDEST SWAP4 SWAP1 POP PUSH2 0xA81 JUMP JUMPDEST PUSH1 0x20 DUP5 PUSH1 0x40 MLOAD SWAP1 DUP2 MSTORE RETURN JUMPDEST CALLVALUE PUSH2 0x349 JUMPI PUSH0 CALLDATASIZE PUSH1 0x3 NOT ADD SLT PUSH2 0x349 JUMPI PUSH1 0x20 PUSH1 0x40 MLOAD PUSH3 0x278D00 DUP2 MSTORE RETURN JUMPDEST CALLVALUE PUSH2 0x349 JUMPI PUSH0 CALLDATASIZE PUSH1 0x3 NOT ADD SLT PUSH2 0x349 JUMPI PUSH1 0x20 PUSH1 0x40 MLOAD PUSH0 DUP2 MSTORE RETURN JUMPDEST CALLVALUE PUSH2 0x349 JUMPI PUSH0 CALLDATASIZE PUSH1 0x3 NOT ADD SLT PUSH2 0x349 JUMPI PUSH1 0x20 PUSH1 0x40 MLOAD PUSH32 0x58223CDFB69946630D837D40B5C366A584F0217ADA7FDDD8318F2E08603CFA22 DUP2 MSTORE RETURN JUMPDEST CALLVALUE PUSH2 0x349 JUMPI PUSH1 0x20 CALLDATASIZE PUSH1 0x3 NOT ADD SLT PUSH2 0x349 JUMPI PUSH1 0x4 CALLDATALOAD PUSH2 0xB3F DUP2 ISZERO ISZERO PUSH2 0x20B5 JUMP JUMPDEST PUSH0 MSTORE PUSH1 0x3 PUSH1 0x20 MSTORE PUSH1 0x20 PUSH1 0xFF PUSH1 0x5 PUSH1 0x40 PUSH0 KECCAK256 ADD SLOAD PUSH1 0xA0 SHR AND PUSH1 0x40 MLOAD SWAP1 ISZERO ISZERO DUP2 MSTORE RETURN JUMPDEST CALLVALUE PUSH2 0x349 JUMPI PUSH1 0x40 CALLDATASIZE PUSH1 0x3 NOT ADD SLT PUSH2 0x349 JUMPI PUSH2 0xB79 PUSH2 0x1C75 JUMP JUMPDEST PUSH1 0x4 CALLDATALOAD PUSH0 MSTORE PUSH0 PUSH1 0x20 MSTORE PUSH1 0x40 PUSH0 KECCAK256 SWAP1 PUSH1 0x1 DUP1 PUSH1 0xA0 SHL SUB AND PUSH0 MSTORE PUSH1 0x20 MSTORE PUSH1 0x20 PUSH1 0xFF PUSH1 0x40 PUSH0 KECCAK256 SLOAD AND PUSH1 0x40 MLOAD SWAP1 ISZERO ISZERO DUP2 MSTORE RETURN JUMPDEST CALLVALUE PUSH2 0x349 JUMPI PUSH2 0xBB6 CALLDATASIZE PUSH2 0x1CA1 JUMP JUMPDEST PUSH2 0xBBE PUSH2 0x1DF8 JUMP JUMPDEST PUSH0 JUMPDEST DUP2 MLOAD DUP2 LT ISZERO PUSH2 0x6C7 JUMPI DUP1 PUSH2 0xBF8 DUP5 PUSH2 0xBDB PUSH2 0xBFE SWAP5 DUP7 PUSH2 0x239C JUMP JUMPDEST MLOAD DUP1 PUSH0 MSTORE PUSH0 PUSH1 0x20 MSTORE PUSH2 0xBF3 PUSH1 0x1 PUSH1 0x40 PUSH0 KECCAK256 ADD SLOAD PUSH2 0x1E31 JUMP JUMPDEST PUSH2 0x1EF0 JUMP JUMPDEST POP PUSH2 0x21B1 JUMP JUMPDEST PUSH2 0xBC0 JUMP JUMPDEST CALLVALUE PUSH2 0x349 JUMPI PUSH0 CALLDATASIZE PUSH1 0x3 NOT ADD SLT PUSH2 0x349 JUMPI PUSH2 0xC1B PUSH2 0x1D7F JUMP JUMPDEST PUSH2 0xC23 PUSH2 0x21BF JUMP JUMPDEST PUSH1 0x1 PUSH1 0xFF NOT DUP2 SLOAD AND OR PUSH1 0x1 SSTORE PUSH32 0x62E78CEA01BEE320CD4E420270B5EA74000D11B0C9F74754EBDBFC544B05A258 PUSH1 0x20 PUSH1 0x40 MLOAD CALLER DUP2 MSTORE LOG1 STOP JUMPDEST CALLVALUE PUSH2 0x349 JUMPI PUSH0 CALLDATASIZE PUSH1 0x3 NOT ADD SLT PUSH2 0x349 JUMPI PUSH1 0x20 PUSH1 0x40 MLOAD PUSH32 0xA49807205CE4D355092EF5A8A18F56E8913CF4A201FBE287825B095693C21775 DUP2 MSTORE RETURN JUMPDEST CALLVALUE PUSH2 0x349 JUMPI PUSH1 0x20 CALLDATASIZE PUSH1 0x3 NOT ADD SLT PUSH2 0x349 JUMPI PUSH1 0x1 PUSH1 0x1 PUSH1 0xA0 SHL SUB PUSH2 0xCB6 PUSH2 0x1C8B JUMP JUMPDEST AND PUSH0 MSTORE PUSH1 0x8 PUSH1 0x20 MSTORE PUSH1 0x20 PUSH1 0x40 PUSH0 KECCAK256 SLOAD PUSH1 0x40 MLOAD SWAP1 DUP2 MSTORE RETURN JUMPDEST CALLVALUE PUSH2 0x349 JUMPI PUSH2 0x120 CALLDATASIZE PUSH1 0x3 NOT ADD SLT PUSH2 0x349 JUMPI PUSH1 0x44 DUP1 CALLDATALOAD PUSH1 0x1 PUSH1 0x1 PUSH1 0x40 SHL SUB DUP2 GT PUSH2 0x349 JUMPI PUSH2 0xCFF SWAP1 CALLDATASIZE SWAP1 PUSH1 0x4 ADD PUSH2 0x1C20 JUMP JUMPDEST PUSH1 0x64 CALLDATALOAD PUSH1 0x1 PUSH1 0x1 PUSH1 0x40 SHL SUB DUP2 GT PUSH2 0x349 JUMPI PUSH2 0xD1E SWAP1 CALLDATASIZE SWAP1 PUSH1 0x4 ADD PUSH2 0x1C20 JUMP JUMPDEST PUSH1 0xA0 CALLDATASIZE PUSH1 0x83 NOT ADD SLT PUSH2 0x349 JUMPI PUSH1 0x40 MLOAD SWAP3 PUSH2 0xD37 DUP5 PUSH2 0x1BE4 JUMP JUMPDEST PUSH1 0x84 CALLDATALOAD PUSH1 0xFF DUP2 AND DUP2 SUB PUSH2 0x349 JUMPI DUP5 MSTORE PUSH1 0xA4 CALLDATALOAD PUSH1 0xFF DUP2 AND DUP2 SUB PUSH2 0x349 JUMPI PUSH1 0x20 DUP6 ADD MSTORE PUSH1 0xC4 CALLDATALOAD PUSH1 0xFF DUP2 AND DUP2 SUB PUSH2 0x349 JUMPI PUSH1 0x40 DUP6 ADD MSTORE PUSH1 0xE4 CALLDATALOAD PUSH1 0xFF DUP2 AND DUP2 SUB PUSH2 0x349 JUMPI PUSH1 0x60 DUP6 ADD MSTORE PUSH2 0x104 CALLDATALOAD PUSH1 0xFF DUP2 AND DUP2 SUB PUSH2 0x349 JUMPI PUSH1 0x80 DUP6 ADD MSTORE CALLER PUSH0 MSTORE PUSH1 0x4 PUSH1 0x20 MSTORE PUSH2 0xDA7 PUSH1 0xFF PUSH1 0x40 PUSH0 KECCAK256 SLOAD AND PUSH2 0x2071 JUMP JUMPDEST PUSH2 0xDB4 PUSH1 0x4 CALLDATALOAD ISZERO ISZERO PUSH2 0x20B5 JUMP JUMPDEST PUSH2 0xDC3 PUSH1 0x64 PUSH1 0x24 CALLDATALOAD GT ISZERO PUSH2 0x20F7 JUMP JUMPDEST PUSH2 0xDCB PUSH2 0x21BF JUMP JUMPDEST PUSH1 0x2 DUP1 SLOAD EQ PUSH2 0x1456 JUMPI PUSH1 0x2 DUP1 SSTORE DUP3 MLOAD ISZERO PUSH2 0x1412 JUMPI PUSH1 0xFF PUSH1 0x40 MLOAD PUSH1 0x20 DUP2 DUP6 MLOAD PUSH2 0xDF6 DUP2 DUP4 DUP6 DUP11 ADD PUSH2 0x1B82 JUMP JUMPDEST DUP2 ADD PUSH1 0x5 DUP2 MSTORE SUB ADD SWAP1 KECCAK256 SLOAD AND ISZERO PUSH2 0x13D7 JUMPI PUSH1 0x4 CALLDATALOAD PUSH0 MSTORE PUSH1 0x3 PUSH1 0x20 MSTORE PUSH1 0xFF PUSH1 0x5 PUSH1 0x40 PUSH0 KECCAK256 ADD SLOAD PUSH1 0xA0 SHR AND PUSH2 0x139C JUMPI PUSH1 0x64 PUSH1 0xFF DUP6 MLOAD AND GT ISZERO DUP1 PUSH2 0x138A JUMPI JUMPDEST DUP1 PUSH2 0x1378 JUMPI JUMPDEST DUP1 PUSH2 0x1366 JUMPI JUMPDEST DUP1 PUSH2 0x1354 JUMPI JUMPDEST ISZERO PUSH2 0x1310 JUMPI PUSH1 0xFF PUSH1 0x64 DUP2 PUSH2 0xECE DUP2 DUP9 MLOAD AND PUSH2 0xE8E PUSH2 0xEBA DUP11 PUSH2 0xE8E DUP7 PUSH1 0x60 PUSH2 0xEAA PUSH2 0xE94 PUSH2 0xE78 PUSH1 0x6 SLOAD SWAP10 DUP6 DUP12 AND SWAP1 PUSH2 0x2138 JUMP JUMPDEST PUSH2 0xE8E DUP6 PUSH1 0x20 DUP10 ADD MLOAD AND DUP7 DUP13 PUSH1 0x8 SHR AND SWAP1 PUSH2 0x2138 JUMP JUMPDEST SWAP1 PUSH2 0x214F JUMP JUMPDEST PUSH2 0xE8E DUP5 PUSH1 0x40 DUP9 ADD MLOAD AND DUP6 DUP12 PUSH1 0x10 SHR AND SWAP1 PUSH2 0x2138 JUMP JUMPDEST SWAP4 ADD MLOAD AND DUP8 DUP7 PUSH1 0x18 SHR AND SWAP1 PUSH2 0x2138 JUMP JUMPDEST SWAP2 DUP5 DUP1 PUSH1 0x80 DUP14 ADD MLOAD AND SWAP2 PUSH1 0x20 SHR AND SWAP1 PUSH2 0x2138 JUMP JUMPDEST AND DIV AND PUSH1 0x4 NOT DUP2 ADD DUP2 DUP2 GT PUSH2 0x9D1 JUMPI PUSH1 0x24 CALLDATALOAD LT ISZERO SWAP1 DUP2 PUSH2 0x12F8 JUMPI JUMPDEST POP ISZERO PUSH2 0x12AA JUMPI POP PUSH1 0x40 MLOAD SWAP3 PUSH2 0xEFD DUP5 PUSH2 0x1BC8 JUMP JUMPDEST PUSH1 0x4 CALLDATALOAD DUP5 MSTORE PUSH1 0x24 CALLDATALOAD PUSH1 0x20 DUP6 ADD MSTORE DUP3 PUSH1 0x40 DUP6 ADD MSTORE DUP2 PUSH1 0x60 DUP6 ADD MSTORE TIMESTAMP PUSH1 0x80 DUP6 ADD MSTORE CALLER PUSH1 0xA0 DUP6 ADD MSTORE PUSH1 0x1 PUSH1 0xC0 DUP6 ADD MSTORE PUSH1 0xE0 DUP5 ADD MSTORE PUSH1 0x4 CALLDATALOAD PUSH0 MSTORE PUSH1 0x3 PUSH1 0x20 MSTORE PUSH1 0x40 PUSH0 KECCAK256 SWAP3 DUP1 MLOAD DUP5 SSTORE PUSH1 0x20 DUP2 ADD MLOAD PUSH1 0x1 DUP6 ADD SSTORE PUSH1 0x40 DUP2 ADD MLOAD DUP1 MLOAD SWAP1 PUSH1 0x1 PUSH1 0x1 PUSH1 0x40 SHL SUB DUP3 GT PUSH2 0x11EA JUMPI DUP2 SWAP1 PUSH2 0xF70 PUSH1 0x2 DUP9 ADD SLOAD PUSH2 0x2163 JUMP JUMPDEST PUSH1 0x1F DUP2 GT PUSH2 0x1277 JUMPI JUMPDEST POP PUSH1 0x20 SWAP1 PUSH1 0x1F DUP4 GT PUSH1 0x1 EQ PUSH2 0x1209 JUMPI PUSH0 SWAP3 PUSH2 0x11FE JUMPI JUMPDEST POP POP DUP2 PUSH1 0x1 SHL SWAP2 PUSH0 NOT SWAP1 PUSH1 0x3 SHL SHR NOT AND OR PUSH1 0x2 DUP6 ADD SSTORE JUMPDEST PUSH1 0x60 DUP2 ADD MLOAD DUP1 MLOAD SWAP1 PUSH1 0x1 PUSH1 0x1 PUSH1 0x40 SHL SUB DUP3 GT PUSH2 0x11EA JUMPI PUSH2 0xFC9 PUSH1 0x3 DUP8 ADD SLOAD PUSH2 0x2163 JUMP JUMPDEST PUSH1 0x1F DUP2 GT PUSH2 0x11AC JUMPI JUMPDEST POP PUSH1 0x20 SWAP1 PUSH1 0x1F DUP4 GT PUSH1 0x1 EQ PUSH2 0x1137 JUMPI SWAP6 DUP3 PUSH1 0xE0 SWAP4 PUSH1 0x6 SWAP4 PUSH2 0x10F4 SWAP9 SWAP10 PUSH0 SWAP3 PUSH2 0x112C JUMPI JUMPDEST POP POP DUP2 PUSH1 0x1 SHL SWAP2 PUSH0 NOT SWAP1 PUSH1 0x3 SHL SHR NOT AND OR PUSH1 0x3 DUP3 ADD SSTORE JUMPDEST PUSH1 0x80 DUP5 ADD MLOAD PUSH1 0x4 DUP3 ADD SSTORE PUSH1 0x5 DUP2 ADD PUSH1 0x1 DUP1 PUSH1 0xA0 SHL SUB PUSH1 0xA0 DUP7 ADD MLOAD AND DUP2 SLOAD SWAP1 PUSH1 0xFF PUSH1 0xA0 SHL PUSH1 0xC0 DUP9 ADD MLOAD ISZERO ISZERO PUSH1 0xA0 SHL AND SWAP2 PUSH11 0xFFFFFFFFFFFFFFFFFFFFFF PUSH1 0xA8 SHL AND OR OR SWAP1 SSTORE ADD SWAP2 ADD MLOAD PUSH1 0xFF DUP2 MLOAD AND SWAP1 DUP3 SLOAD SWAP2 PUSH2 0xFF00 PUSH1 0x20 DUP4 ADD MLOAD PUSH1 0x8 SHL AND PUSH3 0xFF0000 PUSH1 0x40 DUP5 ADD MLOAD PUSH1 0x10 SHL AND SWAP2 PUSH5 0xFF00000000 PUSH1 0x80 PUSH4 0xFF000000 PUSH1 0x60 DUP8 ADD MLOAD PUSH1 0x18 SHL AND SWAP6 ADD MLOAD PUSH1 0x20 SHL AND SWAP5 PUSH5 0xFFFFFFFFFF NOT AND OR OR OR OR OR SWAP1 SSTORE PUSH2 0x10AE PUSH1 0x7 SLOAD PUSH2 0x21B1 JUMP JUMPDEST PUSH1 0x7 SSTORE CALLER PUSH0 MSTORE PUSH1 0x8 PUSH1 0x20 MSTORE PUSH1 0x40 PUSH0 KECCAK256 PUSH2 0x10C7 DUP2 SLOAD PUSH2 0x21B1 JUMP JUMPDEST SWAP1 SSTORE PUSH2 0x10E6 PUSH1 0x40 MLOAD SWAP4 PUSH1 0x24 CALLDATALOAD DUP6 MSTORE PUSH1 0x80 PUSH1 0x20 DUP7 ADD MSTORE PUSH1 0x80 DUP6 ADD SWAP1 PUSH2 0x1BA3 JUMP JUMPDEST SWAP1 DUP4 DUP3 SUB PUSH1 0x40 DUP6 ADD MSTORE PUSH2 0x1BA3 JUMP JUMPDEST TIMESTAMP PUSH1 0x60 DUP4 ADD MSTORE PUSH32 0x9E8AD66E4736435405704D301D344E9454F286D3FEEB2036B1ADC6F4900CCBC CALLER SWAP3 DUP1 PUSH1 0x4 CALLDATALOAD SWAP4 SUB SWAP1 LOG3 PUSH1 0x1 PUSH1 0x2 SSTORE STOP JUMPDEST ADD MLOAD SWAP1 POP DUP10 DUP1 PUSH2 0xFF5 JUMP JUMPDEST SWAP1 PUSH1 0x3 DUP8 ADD PUSH0 MSTORE PUSH1 0x20 PUSH0 KECCAK256 SWAP2 PUSH0 JUMPDEST PUSH1 0x1F NOT DUP6 AND DUP2 LT PUSH2 0x1194 JUMPI POP DUP4 PUSH1 0x6 SWAP4 PUSH2 0x10F4 SWAP9 SWAP10 SWAP4 PUSH1 0x1 SWAP4 PUSH1 0xE0 SWAP8 PUSH1 0x1F NOT DUP2 AND LT PUSH2 0x117C JUMPI JUMPDEST POP POP POP DUP2 SHL ADD PUSH1 0x3 DUP3 ADD SSTORE PUSH2 0x100C JUMP JUMPDEST ADD MLOAD PUSH0 NOT PUSH1 0xF8 DUP5 PUSH1 0x3 SHL AND SHR NOT AND SWAP1 SSTORE DUP10 DUP1 DUP1 PUSH2 0x116C JUMP JUMPDEST SWAP2 SWAP3 PUSH1 0x20 PUSH1 0x1 DUP2 SWAP3 DUP7 DUP6 ADD MLOAD DUP2 SSTORE ADD SWAP5 ADD SWAP3 ADD PUSH2 0x1145 JUMP JUMPDEST PUSH2 0x11DA SWAP1 PUSH1 0x3 DUP9 ADD PUSH0 MSTORE PUSH1 0x20 PUSH0 KECCAK256 PUSH1 0x1F DUP6 ADD PUSH1 0x5 SHR DUP2 ADD SWAP2 PUSH1 0x20 DUP7 LT PUSH2 0x11E0 JUMPI JUMPDEST PUSH1 0x1F ADD PUSH1 0x5 SHR ADD SWAP1 PUSH2 0x219B JUMP JUMPDEST DUP7 PUSH2 0xFD2 JUMP JUMPDEST SWAP1 SWAP2 POP DUP2 SWAP1 PUSH2 0x11CD JUMP JUMPDEST PUSH4 0x4E487B71 PUSH1 0xE0 SHL PUSH0 MSTORE PUSH1 0x41 PUSH1 0x4 MSTORE PUSH1 0x24 PUSH0 REVERT JUMPDEST ADD MLOAD SWAP1 POP DUP7 DUP1 PUSH2 0xF8F JUMP JUMPDEST SWAP3 POP PUSH1 0x2 DUP8 ADD PUSH0 MSTORE PUSH1 0x20 PUSH0 KECCAK256 SWAP1 PUSH0 SWAP4 JUMPDEST PUSH1 0x1F NOT DUP5 AND DUP6 LT PUSH2 0x125C JUMPI PUSH1 0x1 SWAP5 POP DUP4 PUSH1 0x1F NOT DUP2 AND LT PUSH2 0x1244 JUMPI JUMPDEST POP POP POP DUP2 SHL ADD PUSH1 0x2 DUP6 ADD SSTORE PUSH2 0xFA6 JUMP JUMPDEST ADD MLOAD PUSH0 NOT PUSH1 0xF8 DUP5 PUSH1 0x3 SHL AND SHR NOT AND SWAP1 SSTORE DUP7 DUP1 DUP1 PUSH2 0x1234 JUMP JUMPDEST DUP2 DUP2 ADD MLOAD DUP4 SSTORE PUSH1 0x20 SWAP5 DUP6 ADD SWAP5 PUSH1 0x1 SWAP1 SWAP4 ADD SWAP3 SWAP1 SWAP2 ADD SWAP1 PUSH2 0x1219 JUMP JUMPDEST PUSH2 0x12A4 SWAP1 PUSH1 0x2 DUP10 ADD PUSH0 MSTORE PUSH1 0x20 PUSH0 KECCAK256 PUSH1 0x1F DUP6 ADD PUSH1 0x5 SHR DUP2 ADD SWAP2 PUSH1 0x20 DUP7 LT PUSH2 0x11E0 JUMPI PUSH1 0x1F ADD PUSH1 0x5 SHR ADD SWAP1 PUSH2 0x219B JUMP JUMPDEST DUP8 PUSH2 0xF79 JUMP JUMPDEST PUSH1 0x84 SWAP1 PUSH32 0x53636F726520696E636F6E73697374656E74207769746820627265616B646F77 PUSH1 0x40 MLOAD SWAP2 PUSH3 0x461BCD PUSH1 0xE5 SHL DUP4 MSTORE PUSH1 0x20 PUSH1 0x4 DUP5 ADD MSTORE PUSH1 0x21 PUSH1 0x24 DUP5 ADD MSTORE DUP3 ADD MSTORE PUSH1 0x37 PUSH1 0xF9 SHL PUSH1 0x64 DUP3 ADD MSTORE REVERT JUMPDEST SWAP1 POP PUSH1 0x5 DUP2 ADD DUP1 SWAP2 GT PUSH2 0x9D1 JUMPI PUSH1 0x24 CALLDATALOAD GT ISZERO DUP6 PUSH2 0xEE9 JUMP JUMPDEST PUSH1 0x64 SWAP1 PUSH32 0x496E76616C696420627265616B646F776E2073636F7265730000000000000000 PUSH1 0x40 MLOAD SWAP2 PUSH3 0x461BCD PUSH1 0xE5 SHL DUP4 MSTORE PUSH1 0x20 PUSH1 0x4 DUP5 ADD MSTORE PUSH1 0x18 PUSH1 0x24 DUP5 ADD MSTORE DUP3 ADD MSTORE REVERT JUMPDEST POP PUSH1 0x64 PUSH1 0xFF PUSH1 0x80 DUP7 ADD MLOAD AND GT ISZERO PUSH2 0xE44 JUMP JUMPDEST POP PUSH1 0x64 PUSH1 0xFF PUSH1 0x60 DUP7 ADD MLOAD AND GT ISZERO PUSH2 0xE3E JUMP JUMPDEST POP PUSH1 0x64 PUSH1 0xFF PUSH1 0x40 DUP7 ADD MLOAD AND GT ISZERO PUSH2 0xE38 JUMP JUMPDEST POP PUSH1 0x64 PUSH1 0xFF PUSH1 0x20 DUP7 ADD MLOAD AND GT ISZERO PUSH2 0xE32 JUMP JUMPDEST PUSH1 0x64 SWAP1 PUSH20 0x53636F726520616C726561647920657869737473 PUSH1 0x60 SHL PUSH1 0x40 MLOAD SWAP2 PUSH3 0x461BCD PUSH1 0xE5 SHL DUP4 MSTORE PUSH1 0x20 PUSH1 0x4 DUP5 ADD MSTORE PUSH1 0x14 PUSH1 0x24 DUP5 ADD MSTORE DUP3 ADD MSTORE REVERT JUMPDEST PUSH1 0x64 SWAP1 PUSH20 0x155B9CDD5C1C1BDC9D1959081052481B5BD9195B PUSH1 0x62 SHL PUSH1 0x40 MLOAD SWAP2 PUSH3 0x461BCD PUSH1 0xE5 SHL DUP4 MSTORE PUSH1 0x20 PUSH1 0x4 DUP5 ADD MSTORE PUSH1 0x14 PUSH1 0x24 DUP5 ADD MSTORE DUP3 ADD MSTORE REVERT JUMPDEST PUSH1 0x64 SWAP1 PUSH32 0x4A757374696669636174696F6E20495046532072657175697265640000000000 PUSH1 0x40 MLOAD SWAP2 PUSH3 0x461BCD PUSH1 0xE5 SHL DUP4 MSTORE PUSH1 0x20 PUSH1 0x4 DUP5 ADD MSTORE PUSH1 0x1B PUSH1 0x24 DUP5 ADD MSTORE DUP3 ADD MSTORE REVERT JUMPDEST PUSH1 0x64 SWAP1 PUSH32 0x5265656E7472616E637947756172643A207265656E7472616E742063616C6C00 PUSH1 0x40 MLOAD SWAP2 PUSH3 0x461BCD PUSH1 0xE5 SHL DUP4 MSTORE PUSH1 0x20 PUSH1 0x4 DUP5 ADD MSTORE PUSH1 0x1F PUSH1 0x24 DUP5 ADD MSTORE DUP3 ADD MSTORE REVERT JUMPDEST CALLVALUE PUSH2 0x349 JUMPI PUSH1 0x20 PUSH2 0x14B3 PUSH2 0x14AD CALLDATASIZE PUSH2 0x1CA1 JUMP JUMPDEST SWAP1 PUSH2 0x23C4 JUMP JUMPDEST PUSH1 0x40 MLOAD SWAP1 ISZERO ISZERO DUP2 MSTORE RETURN JUMPDEST CALLVALUE PUSH2 0x349 JUMPI PUSH1 0x20 CALLDATASIZE PUSH1 0x3 NOT ADD SLT PUSH2 0x349 JUMPI PUSH1 0x1 PUSH1 0x1 PUSH1 0xA0 SHL SUB PUSH2 0x14DE PUSH2 0x1C8B JUMP JUMPDEST AND PUSH0 MSTORE PUSH1 0x4 PUSH1 0x20 MSTORE PUSH1 0x20 PUSH1 0xFF PUSH1 0x40 PUSH0 KECCAK256 SLOAD AND PUSH1 0x40 MLOAD SWAP1 ISZERO ISZERO DUP2 MSTORE RETURN JUMPDEST CALLVALUE PUSH2 0x349 JUMPI PUSH0 CALLDATASIZE PUSH1 0x3 NOT ADD SLT PUSH2 0x349 JUMPI PUSH1 0x20 PUSH1 0xFF PUSH1 0x1 SLOAD AND PUSH1 0x40 MLOAD SWAP1 ISZERO ISZERO DUP2 MSTORE RETURN JUMPDEST CALLVALUE PUSH2 0x349 JUMPI PUSH2 0x152A CALLDATASIZE PUSH2 0x1CA1 JUMP JUMPDEST PUSH2 0x1532 PUSH2 0x1DF8 JUMP JUMPDEST PUSH0 JUMPDEST DUP2 MLOAD DUP2 LT ISZERO PUSH2 0x6C7 JUMPI DUP1 PUSH2 0xBF8 DUP5 PUSH2 0x154F PUSH2 0x1567 SWAP5 DUP7 PUSH2 0x239C JUMP JUMPDEST MLOAD DUP1 PUSH0 MSTORE PUSH0 PUSH1 0x20 MSTORE PUSH2 0x6C2 PUSH1 0x1 PUSH1 0x40 PUSH0 KECCAK256 ADD SLOAD PUSH2 0x1E31 JUMP JUMPDEST PUSH2 0x1534 JUMP JUMPDEST CALLVALUE PUSH2 0x349 JUMPI PUSH0 CALLDATASIZE PUSH1 0x3 NOT ADD SLT PUSH2 0x349 JUMPI PUSH1 0xA0 PUSH1 0x6 SLOAD PUSH1 0xFF PUSH1 0x40 MLOAD SWAP2 DUP2 DUP2 AND DUP4 MSTORE DUP2 DUP2 PUSH1 0x8 SHR AND PUSH1 0x20 DUP5 ADD MSTORE DUP2 DUP2 PUSH1 0x10 SHR AND PUSH1 0x40 DUP5 ADD MSTORE DUP2 DUP2 PUSH1 0x18 SHR AND PUSH1 0x60 DUP5 ADD MSTORE PUSH1 0x20 SHR AND PUSH1 0x80 DUP3 ADD MSTORE RETURN JUMPDEST CALLVALUE PUSH2 0x349 JUMPI PUSH0 CALLDATASIZE PUSH1 0x3 NOT ADD SLT PUSH2 0x349 JUMPI PUSH2 0x15D0 PUSH2 0x1D7F JUMP JUMPDEST PUSH1 0x1 SLOAD PUSH1 0xFF DUP2 AND ISZERO PUSH2 0x160F JUMPI PUSH1 0xFF NOT AND PUSH1 0x1 SSTORE PUSH32 0x5DB9EE0A495BF2E6FF9C91A7834C1BA4FDD244A5E8AA4E537BD38AEAE4B073AA PUSH1 0x20 PUSH1 0x40 MLOAD CALLER DUP2 MSTORE LOG1 STOP JUMPDEST PUSH1 0x40 MLOAD PUSH3 0x461BCD PUSH1 0xE5 SHL DUP2 MSTORE PUSH1 0x20 PUSH1 0x4 DUP3 ADD MSTORE PUSH1 0x14 PUSH1 0x24 DUP3 ADD MSTORE PUSH20 0x14185D5CD8589B194E881B9BDD081C185D5CD959 PUSH1 0x62 SHL PUSH1 0x44 DUP3 ADD MSTORE PUSH1 0x64 SWAP1 REVERT JUMPDEST CALLVALUE PUSH2 0x349 JUMPI PUSH0 CALLDATASIZE PUSH1 0x3 NOT ADD SLT PUSH2 0x349 JUMPI PUSH1 0x20 PUSH1 0x7 SLOAD PUSH1 0x40 MLOAD SWAP1 DUP2 MSTORE RETURN JUMPDEST CALLVALUE PUSH2 0x349 JUMPI PUSH1 0x40 CALLDATASIZE PUSH1 0x3 NOT ADD SLT PUSH2 0x349 JUMPI PUSH2 0x1681 PUSH2 0x1C75 JUMP JUMPDEST CALLER PUSH1 0x1 PUSH1 0x1 PUSH1 0xA0 SHL SUB DUP3 AND SUB PUSH2 0x169D JUMPI PUSH2 0x6C7 SWAP1 PUSH1 0x4 CALLDATALOAD PUSH2 0x1FFE JUMP JUMPDEST PUSH1 0x40 MLOAD PUSH4 0x334BD919 PUSH1 0xE1 SHL DUP2 MSTORE PUSH1 0x4 SWAP1 REVERT JUMPDEST CALLVALUE PUSH2 0x349 JUMPI PUSH1 0x40 CALLDATASIZE PUSH1 0x3 NOT ADD SLT PUSH2 0x349 JUMPI PUSH2 0x6C7 PUSH1 0x4 CALLDATALOAD PUSH2 0x16CE PUSH2 0x1C75 JUMP JUMPDEST SWAP1 DUP1 PUSH0 MSTORE PUSH0 PUSH1 0x20 MSTORE PUSH2 0xBF3 PUSH1 0x1 PUSH1 0x40 PUSH0 KECCAK256 ADD SLOAD PUSH2 0x1E31 JUMP JUMPDEST CALLVALUE PUSH2 0x349 JUMPI PUSH1 0x20 CALLDATASIZE PUSH1 0x3 NOT ADD SLT PUSH2 0x349 JUMPI PUSH1 0x4 CALLDATALOAD PUSH1 0x1 PUSH1 0x1 PUSH1 0x40 SHL SUB DUP2 GT PUSH2 0x349 JUMPI PUSH1 0xFF PUSH2 0x1731 PUSH1 0x20 PUSH2 0x171E DUP2 SWAP5 CALLDATASIZE SWAP1 PUSH1 0x4 ADD PUSH2 0x1C20 JUMP JUMPDEST DUP2 PUSH1 0x40 MLOAD SWAP4 DUP3 DUP6 DUP1 SWAP5 MLOAD SWAP4 DUP5 SWAP3 ADD PUSH2 0x1B82 JUMP JUMPDEST DUP2 ADD PUSH1 0x5 DUP2 MSTORE SUB ADD SWAP1 KECCAK256 SLOAD AND PUSH1 0x40 MLOAD SWAP1 ISZERO ISZERO DUP2 MSTORE RETURN JUMPDEST CALLVALUE PUSH2 0x349 JUMPI PUSH1 0x80 CALLDATASIZE PUSH1 0x3 NOT ADD SLT PUSH2 0x349 JUMPI PUSH1 0x1 PUSH1 0x1 PUSH1 0x40 SHL SUB PUSH1 0x4 CALLDATALOAD PUSH1 0x24 DUP1 CALLDATALOAD PUSH1 0x44 CALLDATALOAD DUP5 DUP2 GT PUSH2 0x349 JUMPI PUSH2 0x177F SWAP1 CALLDATASIZE SWAP1 PUSH1 0x4 ADD PUSH2 0x1C20 JUMP JUMPDEST PUSH1 0x64 CALLDATALOAD DUP6 DUP2 GT PUSH2 0x349 JUMPI PUSH2 0x1797 SWAP1 CALLDATASIZE SWAP1 PUSH1 0x4 ADD PUSH2 0x1C20 JUMP JUMPDEST SWAP1 CALLER PUSH0 MSTORE PUSH1 0x20 SWAP4 PUSH1 0x4 DUP6 MSTORE PUSH2 0x17B2 PUSH1 0xFF PUSH1 0x40 PUSH0 KECCAK256 SLOAD AND PUSH2 0x2071 JUMP JUMPDEST PUSH2 0x17BD DUP7 ISZERO ISZERO PUSH2 0x20B5 JUMP JUMPDEST PUSH2 0x17CA PUSH1 0x64 DUP6 GT ISZERO PUSH2 0x20F7 JUMP JUMPDEST PUSH2 0x17D2 PUSH2 0x21BF JUMP JUMPDEST DUP6 PUSH0 MSTORE PUSH1 0x3 SWAP2 DUP3 DUP7 MSTORE PUSH2 0x17F1 PUSH1 0xFF PUSH1 0x5 PUSH1 0x40 PUSH0 KECCAK256 ADD SLOAD PUSH1 0xA0 SHR AND PUSH2 0x2203 JUMP JUMPDEST DUP7 PUSH0 MSTORE DUP3 DUP7 MSTORE CALLER PUSH1 0x1 DUP1 PUSH1 0xA0 SHL SUB PUSH1 0x5 PUSH1 0x40 PUSH0 KECCAK256 ADD SLOAD AND SUB PUSH2 0x1A3F JUMPI DUP7 PUSH0 MSTORE DUP3 DUP7 MSTORE PUSH1 0x4 PUSH1 0x40 PUSH0 KECCAK256 ADD SLOAD PUSH3 0x278D00 DUP2 ADD DUP1 SWAP2 GT PUSH2 0x1A2C JUMPI TIMESTAMP GT PUSH2 0x19F0 JUMPI DUP4 MLOAD ISZERO PUSH2 0x19B3 JUMPI DUP7 PUSH0 MSTORE DUP3 DUP7 MSTORE PUSH1 0x40 PUSH0 KECCAK256 SWAP1 PUSH1 0x2 PUSH1 0x1 SWAP3 DUP8 DUP5 DUP3 ADD SSTORE ADD SWAP3 DUP2 MLOAD SWAP10 DUP11 GT PUSH2 0x19A0 JUMPI POP PUSH2 0x1860 DUP4 SLOAD PUSH2 0x2163 JUMP JUMPDEST PUSH1 0x1F DUP2 GT PUSH2 0x1972 JUMPI JUMPDEST POP DUP7 SWAP1 PUSH1 0x1F DUP11 GT PUSH1 0x1 EQ PUSH2 0x18EB JUMPI SWAP9 DUP1 PUSH2 0x9CC SWAP7 SWAP6 SWAP5 SWAP4 DUP2 SWAP4 PUSH32 0xD3E8DBBE8FF60A1FAE1E5F88E71F27270ED38BADC7B26E19922ED94FD12F5FE9 SWAP12 SWAP13 PUSH0 SWAP5 PUSH2 0x18E0 JUMPI JUMPDEST POP POP SHL SWAP2 PUSH0 NOT SWAP1 DUP6 SHL SHR NOT AND OR SWAP1 SSTORE JUMPDEST DUP7 PUSH0 MSTORE DUP5 MSTORE TIMESTAMP PUSH1 0x4 PUSH1 0x40 PUSH0 KECCAK256 ADD SSTORE PUSH1 0x40 DUP1 MLOAD SWAP5 DUP6 SWAP5 DUP6 MSTORE DUP5 ADD MSTORE PUSH1 0x40 DUP4 ADD SWAP1 PUSH2 0x1BA3 JUMP JUMPDEST ADD MLOAD SWAP3 POP DUP13 DUP1 PUSH2 0x18AC JUMP JUMPDEST SWAP9 SWAP1 PUSH1 0x1F NOT DUP3 AND SWAP10 DUP5 PUSH0 MSTORE DUP9 PUSH0 KECCAK256 SWAP11 PUSH0 JUMPDEST DUP2 DUP2 LT PUSH2 0x195D JUMPI POP SWAP2 PUSH32 0xD3E8DBBE8FF60A1FAE1E5F88E71F27270ED38BADC7B26E19922ED94FD12F5FE9 SWAP11 SWAP12 SWAP2 DUP5 PUSH2 0x9CC SWAP10 SWAP9 SWAP8 SWAP7 SWAP6 SWAP5 LT PUSH2 0x1946 JUMPI JUMPDEST POP POP POP DUP2 SHL ADD SWAP1 SSTORE PUSH2 0x18BC JUMP JUMPDEST ADD MLOAD PUSH0 NOT DUP4 DUP8 SHL PUSH1 0xF8 AND SHR NOT AND SWAP1 SSTORE DUP11 DUP1 DUP1 PUSH2 0x1939 JUMP JUMPDEST DUP4 DUP4 ADD MLOAD DUP14 SSTORE SWAP12 DUP6 ADD SWAP12 SWAP3 DUP11 ADD SWAP3 DUP11 ADD PUSH2 0x18FC JUMP JUMPDEST PUSH2 0x199A SWAP1 DUP5 PUSH0 MSTORE DUP9 PUSH0 KECCAK256 PUSH1 0x1F DUP13 ADD PUSH1 0x5 SHR DUP2 ADD SWAP2 DUP11 DUP14 LT PUSH2 0x11E0 JUMPI PUSH1 0x1F ADD PUSH1 0x5 SHR ADD SWAP1 PUSH2 0x219B JUMP JUMPDEST DUP10 PUSH2 0x1869 JUMP JUMPDEST PUSH4 0x4E487B71 PUSH1 0xE0 SHL PUSH0 SWAP1 DUP2 MSTORE PUSH1 0x41 PUSH1 0x4 MSTORE REVERT JUMPDEST PUSH1 0x40 MLOAD PUSH3 0x461BCD PUSH1 0xE5 SHL DUP2 MSTORE PUSH1 0x4 DUP2 ADD DUP8 SWAP1 MSTORE PUSH1 0x16 DUP2 DUP5 ADD MSTORE PUSH22 0x155C19185D19481C99585CDBDB881C995C5D5A5C9959 PUSH1 0x52 SHL PUSH1 0x44 DUP3 ADD MSTORE PUSH1 0x64 SWAP1 REVERT JUMPDEST PUSH1 0x40 MLOAD PUSH3 0x461BCD PUSH1 0xE5 SHL DUP2 MSTORE PUSH1 0x4 DUP2 ADD DUP8 SWAP1 MSTORE PUSH1 0x15 DUP2 DUP5 ADD MSTORE PUSH21 0x155C19185D19481C195C9A5BD908195E1C1A5C9959 PUSH1 0x5A SHL PUSH1 0x44 DUP3 ADD MSTORE PUSH1 0x64 SWAP1 REVERT JUMPDEST DUP3 PUSH4 0x4E487B71 PUSH1 0xE0 SHL PUSH0 MSTORE PUSH1 0x11 PUSH1 0x4 MSTORE PUSH0 REVERT JUMPDEST PUSH1 0x40 MLOAD PUSH3 0x461BCD PUSH1 0xE5 SHL DUP2 MSTORE PUSH1 0x4 DUP2 ADD DUP8 SWAP1 MSTORE PUSH1 0x13 DUP2 DUP5 ADD MSTORE PUSH19 0x4E6F74206F726967696E616C206F7261636C65 PUSH1 0x68 SHL PUSH1 0x44 DUP3 ADD MSTORE PUSH1 0x64 SWAP1 REVERT JUMPDEST CALLVALUE PUSH2 0x349 JUMPI PUSH0 CALLDATASIZE PUSH1 0x3 NOT ADD SLT PUSH2 0x349 JUMPI PUSH1 0x20 PUSH1 0x40 MLOAD PUSH1 0x64 DUP2 MSTORE RETURN JUMPDEST CALLVALUE PUSH2 0x349 JUMPI PUSH1 0x20 CALLDATASIZE PUSH1 0x3 NOT ADD SLT PUSH2 0x349 JUMPI PUSH1 0x4 CALLDATALOAD PUSH0 MSTORE PUSH0 PUSH1 0x20 MSTORE PUSH1 0x20 PUSH1 0x1 PUSH1 0x40 PUSH0 KECCAK256 ADD SLOAD PUSH1 0x40 MLOAD SWAP1 DUP2 MSTORE RETURN JUMPDEST CALLVALUE PUSH2 0x349 JUMPI PUSH1 0x20 CALLDATASIZE PUSH1 0x3 NOT ADD SLT PUSH2 0x349 JUMPI PUSH1 0x4 CALLDATALOAD PUSH2 0x1ADF DUP2 ISZERO ISZERO PUSH2 0x20B5 JUMP JUMPDEST PUSH0 MSTORE PUSH1 0x3 PUSH1 0x20 MSTORE PUSH1 0x40 PUSH0 KECCAK256 PUSH1 0x1 DUP2 ADD SLOAD PUSH2 0x1B06 PUSH1 0x2 PUSH1 0xFF PUSH1 0x5 DUP6 ADD SLOAD PUSH1 0xA0 SHR AND SWAP4 ADD PUSH2 0x2246 JUMP JUMPDEST SWAP2 PUSH2 0x1B23 PUSH1 0x40 MLOAD SWAP4 DUP5 SWAP4 DUP5 MSTORE PUSH1 0x60 PUSH1 0x20 DUP6 ADD MSTORE PUSH1 0x60 DUP5 ADD SWAP1 PUSH2 0x1BA3 JUMP JUMPDEST SWAP1 ISZERO ISZERO PUSH1 0x40 DUP4 ADD MSTORE SUB SWAP1 RETURN JUMPDEST CALLVALUE PUSH2 0x349 JUMPI PUSH1 0x20 CALLDATASIZE PUSH1 0x3 NOT ADD SLT PUSH2 0x349 JUMPI PUSH1 0x4 CALLDATALOAD SWAP1 PUSH4 0xFFFFFFFF PUSH1 0xE0 SHL DUP3 AND DUP1 SWAP3 SUB PUSH2 0x349 JUMPI PUSH1 0x20 SWAP2 PUSH4 0x7965DB0B PUSH1 0xE0 SHL DUP2 EQ SWAP1 DUP2 ISZERO PUSH2 0x1B71 JUMPI JUMPDEST POP ISZERO ISZERO DUP2 MSTORE RETURN JUMPDEST PUSH4 0x1FFC9A7 PUSH1 0xE0 SHL EQ SWAP1 POP DUP4 PUSH2 0x1B6A JUMP JUMPDEST PUSH0 JUMPDEST DUP4 DUP2 LT PUSH2 0x1B93 JUMPI POP POP PUSH0 SWAP2 ADD MSTORE JUMP JUMPDEST DUP2 DUP2 ADD MLOAD DUP4 DUP3 ADD MSTORE PUSH1 0x20 ADD PUSH2 0x1B84 JUMP JUMPDEST SWAP1 PUSH1 0x20 SWAP2 PUSH2 0x1BBC DUP2 MLOAD DUP1 SWAP3 DUP2 DUP6 MSTORE DUP6 DUP1 DUP7 ADD SWAP2 ADD PUSH2 0x1B82 JUMP JUMPDEST PUSH1 0x1F ADD PUSH1 0x1F NOT AND ADD ADD SWAP1 JUMP JUMPDEST PUSH2 0x100 DUP2 ADD SWAP1 DUP2 LT PUSH1 0x1 PUSH1 0x1 PUSH1 0x40 SHL SUB DUP3 GT OR PUSH2 0x11EA JUMPI PUSH1 0x40 MSTORE JUMP JUMPDEST PUSH1 0xA0 DUP2 ADD SWAP1 DUP2 LT PUSH1 0x1 PUSH1 0x1 PUSH1 0x40 SHL SUB DUP3 GT OR PUSH2 0x11EA JUMPI PUSH1 0x40 MSTORE JUMP JUMPDEST SWAP1 PUSH1 0x1F DUP1 NOT SWAP2 ADD AND DUP2 ADD SWAP1 DUP2 LT PUSH1 0x1 PUSH1 0x1 PUSH1 0x40 SHL SUB DUP3 GT OR PUSH2 0x11EA JUMPI PUSH1 0x40 MSTORE JUMP JUMPDEST DUP2 PUSH1 0x1F DUP3 ADD SLT ISZERO PUSH2 0x349 JUMPI DUP1 CALLDATALOAD SWAP1 PUSH1 0x1 PUSH1 0x1 PUSH1 0x40 SHL SUB DUP3 GT PUSH2 0x11EA JUMPI PUSH1 0x40 MLOAD SWAP3 PUSH2 0x1C54 PUSH1 0x1F DUP5 ADD PUSH1 0x1F NOT AND PUSH1 0x20 ADD DUP6 PUSH2 0x1BFF JUMP JUMPDEST DUP3 DUP5 MSTORE PUSH1 0x20 DUP4 DUP4 ADD ADD GT PUSH2 0x349 JUMPI DUP2 PUSH0 SWAP3 PUSH1 0x20 DUP1 SWAP4 ADD DUP4 DUP7 ADD CALLDATACOPY DUP4 ADD ADD MSTORE SWAP1 JUMP JUMPDEST PUSH1 0x24 CALLDATALOAD SWAP1 PUSH1 0x1 PUSH1 0x1 PUSH1 0xA0 SHL SUB DUP3 AND DUP3 SUB PUSH2 0x349 JUMPI JUMP JUMPDEST PUSH1 0x4 CALLDATALOAD SWAP1 PUSH1 0x1 PUSH1 0x1 PUSH1 0xA0 SHL SUB DUP3 AND DUP3 SUB PUSH2 0x349 JUMPI JUMP JUMPDEST SWAP1 PUSH1 0x40 PUSH1 0x3 NOT DUP4 ADD SLT PUSH2 0x349 JUMPI PUSH1 0x4 CALLDATALOAD PUSH1 0x1 PUSH1 0x1 PUSH1 0xA0 SHL SUB DUP2 AND DUP2 SUB PUSH2 0x349 JUMPI SWAP2 PUSH1 0x24 CALLDATALOAD SWAP1 PUSH1 0x1 PUSH1 0x1 PUSH1 0x40 SHL SUB SWAP1 DUP2 DUP4 GT PUSH2 0x349 JUMPI DUP1 PUSH1 0x23 DUP5 ADD SLT ISZERO PUSH2 0x349 JUMPI DUP3 PUSH1 0x4 ADD CALLDATALOAD SWAP2 DUP3 GT PUSH2 0x11EA JUMPI DUP2 PUSH1 0x5 SHL PUSH1 0x40 MLOAD SWAP4 PUSH1 0x20 SWAP4 PUSH2 0x1D04 DUP6 DUP5 ADD DUP8 PUSH2 0x1BFF JUMP JUMPDEST DUP6 MSTORE PUSH1 0x24 DUP5 DUP7 ADD SWAP3 DUP3 ADD ADD SWAP3 DUP4 GT PUSH2 0x349 JUMPI PUSH1 0x24 ADD SWAP1 JUMPDEST DUP3 DUP3 LT PUSH2 0x1D29 JUMPI POP POP POP POP SWAP1 JUMP JUMPDEST DUP2 CALLDATALOAD DUP2 MSTORE SWAP1 DUP4 ADD SWAP1 DUP4 ADD PUSH2 0x1D1B JUMP JUMPDEST PUSH1 0x24 CALLDATALOAD SWAP1 DUP2 ISZERO ISZERO DUP3 SUB PUSH2 0x349 JUMPI JUMP JUMPDEST PUSH1 0xFF PUSH1 0x80 DUP1 SWAP3 DUP3 DUP2 MLOAD AND DUP6 MSTORE DUP3 PUSH1 0x20 DUP3 ADD MLOAD AND PUSH1 0x20 DUP7 ADD MSTORE DUP3 PUSH1 0x40 DUP3 ADD MLOAD AND PUSH1 0x40 DUP7 ADD MSTORE DUP3 PUSH1 0x60 DUP3 ADD MLOAD AND PUSH1 0x60 DUP7 ADD MSTORE ADD MLOAD AND SWAP2 ADD MSTORE JUMP JUMPDEST CALLER PUSH0 SWAP1 DUP2 MSTORE PUSH32 0x7D7FFB7A348E1C6A02869081A26547B49160DD3DF72D1D75A570EB9B698292EC PUSH1 0x20 MSTORE PUSH1 0x40 SWAP1 KECCAK256 SLOAD PUSH32 0xA49807205CE4D355092EF5A8A18F56E8913CF4A201FBE287825B095693C21775 SWAP1 PUSH1 0xFF AND ISZERO PUSH2 0x1DDA JUMPI POP JUMP JUMPDEST PUSH1 0x44 SWAP1 PUSH1 0x40 MLOAD SWAP1 PUSH4 0xE2517D3F PUSH1 0xE0 SHL DUP3 MSTORE CALLER PUSH1 0x4 DUP4 ADD MSTORE PUSH1 0x24 DUP3 ADD MSTORE REVERT JUMPDEST CALLER PUSH0 SWAP1 DUP2 MSTORE PUSH32 0xAD3228B676F7D3CD4284A5443F17F1962B36E491B30A40B2405849E597BA5FB5 PUSH1 0x20 MSTORE PUSH1 0x40 DUP2 KECCAK256 SLOAD PUSH1 0xFF AND ISZERO PUSH2 0x1DDA JUMPI POP JUMP JUMPDEST DUP1 PUSH0 MSTORE PUSH0 PUSH1 0x20 MSTORE PUSH1 0x40 PUSH0 KECCAK256 CALLER PUSH0 MSTORE PUSH1 0x20 MSTORE PUSH1 0xFF PUSH1 0x40 PUSH0 KECCAK256 SLOAD AND ISZERO PUSH2 0x1DDA JUMPI POP JUMP JUMPDEST PUSH1 0x1 PUSH1 0x1 PUSH1 0xA0 SHL SUB AND PUSH0 DUP2 DUP2 MSTORE PUSH32 0xC1C604B5ADD75B59252BCA1E4E4EC4AB21F3921B1DDCF7A43ABE69724BCE555D PUSH1 0x20 MSTORE PUSH1 0x40 DUP2 KECCAK256 SLOAD SWAP1 SWAP2 SWAP1 PUSH0 DUP1 MLOAD PUSH1 0x20 PUSH2 0x2529 DUP4 CODECOPY DUP2 MLOAD SWAP2 MSTORE SWAP1 PUSH1 0xFF AND PUSH2 0x1EEB JUMPI DUP1 DUP4 MSTORE DUP3 PUSH1 0x20 MSTORE PUSH1 0x40 DUP4 KECCAK256 DUP3 DUP5 MSTORE PUSH1 0x20 MSTORE PUSH1 0x40 DUP4 KECCAK256 PUSH1 0x1 PUSH1 0xFF NOT DUP3 SLOAD AND OR SWAP1 SSTORE PUSH32 0x2F8788117E7EFF1D82E926EC794901D17C78024A50270940304540A733656F0D CALLER SWAP4 DUP1 LOG4 PUSH1 0x1 SWAP1 JUMP JUMPDEST POP POP SWAP1 JUMP JUMPDEST SWAP1 PUSH0 SWAP2 DUP1 DUP4 MSTORE DUP3 PUSH1 0x20 MSTORE PUSH1 0x40 DUP4 KECCAK256 SWAP2 PUSH1 0x1 DUP1 PUSH1 0xA0 SHL SUB AND SWAP2 DUP3 DUP5 MSTORE PUSH1 0x20 MSTORE PUSH1 0xFF PUSH1 0x40 DUP5 KECCAK256 SLOAD AND ISZERO PUSH0 EQ PUSH2 0x1EEB JUMPI DUP1 DUP4 MSTORE DUP3 PUSH1 0x20 MSTORE PUSH1 0x40 DUP4 KECCAK256 DUP3 DUP5 MSTORE PUSH1 0x20 MSTORE PUSH1 0x40 DUP4 KECCAK256 PUSH1 0x1 PUSH1 0xFF NOT DUP3 SLOAD AND OR SWAP1 SSTORE PUSH32 0x2F8788117E7EFF1D82E926EC794901D17C78024A50270940304540A733656F0D CALLER SWAP4 DUP1 LOG4 PUSH1 0x1 SWAP1 JUMP JUMPDEST PUSH1 0x1 PUSH1 0x1 PUSH1 0xA0 SHL SUB AND PUSH0 DUP2 DUP2 MSTORE PUSH32 0xC1C604B5ADD75B59252BCA1E4E4EC4AB21F3921B1DDCF7A43ABE69724BCE555D PUSH1 0x20 MSTORE PUSH1 0x40 DUP2 KECCAK256 SLOAD SWAP1 SWAP2 SWAP1 PUSH0 DUP1 MLOAD PUSH1 0x20 PUSH2 0x2529 DUP4 CODECOPY DUP2 MLOAD SWAP2 MSTORE SWAP1 PUSH1 0xFF AND ISZERO PUSH2 0x1EEB JUMPI DUP1 DUP4 MSTORE DUP3 PUSH1 0x20 MSTORE PUSH1 0x40 DUP4 KECCAK256 DUP3 DUP5 MSTORE PUSH1 0x20 MSTORE PUSH1 0x40 DUP4 KECCAK256 PUSH1 0xFF NOT DUP2 SLOAD AND SWAP1 SSTORE PUSH32 0xF6391F5C32D9C69D2A47EA670B442974B53935D1EDC7FD64EB21E047A839171B CALLER SWAP4 DUP1 LOG4 PUSH1 0x1 SWAP1 JUMP JUMPDEST SWAP1 PUSH0 SWAP2 DUP1 DUP4 MSTORE DUP3 PUSH1 0x20 MSTORE PUSH1 0x40 DUP4 KECCAK256 SWAP2 PUSH1 0x1 DUP1 PUSH1 0xA0 SHL SUB AND SWAP2 DUP3 DUP5 MSTORE PUSH1 0x20 MSTORE PUSH1 0xFF PUSH1 0x40 DUP5 KECCAK256 SLOAD AND PUSH0 EQ PUSH2 0x1EEB JUMPI DUP1 DUP4 MSTORE DUP3 PUSH1 0x20 MSTORE PUSH1 0x40 DUP4 KECCAK256 DUP3 DUP5 MSTORE PUSH1 0x20 MSTORE PUSH1 0x40 DUP4 KECCAK256 PUSH1 0xFF NOT DUP2 SLOAD AND SWAP1 SSTORE PUSH32 0xF6391F5C32D9C69D2A47EA670B442974B53935D1EDC7FD64EB21E047A839171B CALLER SWAP4 DUP1 LOG4 PUSH1 0x1 SWAP1 JUMP JUMPDEST ISZERO PUSH2 0x2078 JUMPI JUMP JUMPDEST PUSH1 0x40 MLOAD PUSH3 0x461BCD PUSH1 0xE5 SHL DUP2 MSTORE PUSH1 0x20 PUSH1 0x4 DUP3 ADD MSTORE PUSH1 0x15 PUSH1 0x24 DUP3 ADD MSTORE PUSH21 0x4E6F7420617574686F72697A6564206F7261636C65 PUSH1 0x58 SHL PUSH1 0x44 DUP3 ADD MSTORE PUSH1 0x64 SWAP1 REVERT JUMPDEST ISZERO PUSH2 0x20BC JUMPI JUMP JUMPDEST PUSH1 0x40 MLOAD PUSH3 0x461BCD PUSH1 0xE5 SHL DUP2 MSTORE PUSH1 0x20 PUSH1 0x4 DUP3 ADD MSTORE PUSH1 0x13 PUSH1 0x24 DUP3 ADD MSTORE PUSH19 0x125B9D985B1A59081C1C9BDC1BDCD85B081251 PUSH1 0x6A SHL PUSH1 0x44 DUP3 ADD MSTORE PUSH1 0x64 SWAP1 REVERT JUMPDEST ISZERO PUSH2 0x20FE JUMPI JUMP JUMPDEST PUSH1 0x40 MLOAD PUSH3 0x461BCD PUSH1 0xE5 SHL DUP2 MSTORE PUSH1 0x20 PUSH1 0x4 DUP3 ADD MSTORE PUSH1 0x12 PUSH1 0x24 DUP3 ADD MSTORE PUSH18 0x53636F7265206F7574206F662072616E6765 PUSH1 0x70 SHL PUSH1 0x44 DUP3 ADD MSTORE PUSH1 0x64 SWAP1 REVERT JUMPDEST SWAP1 PUSH1 0xFF DUP1 SWAP2 AND SWAP2 AND MUL SWAP1 PUSH1 0xFF DUP3 AND SWAP2 DUP3 SUB PUSH2 0x9D1 JUMPI JUMP JUMPDEST SWAP1 PUSH1 0xFF DUP1 SWAP2 AND SWAP2 AND ADD SWAP1 PUSH1 0xFF DUP3 GT PUSH2 0x9D1 JUMPI JUMP JUMPDEST SWAP1 PUSH1 0x1 DUP3 DUP2 SHR SWAP3 AND DUP1 ISZERO PUSH2 0x2191 JUMPI JUMPDEST PUSH1 0x20 DUP4 LT EQ PUSH2 0x217D JUMPI JUMP JUMPDEST PUSH4 0x4E487B71 PUSH1 0xE0 SHL PUSH0 MSTORE PUSH1 0x22 PUSH1 0x4 MSTORE PUSH1 0x24 PUSH0 REVERT JUMPDEST SWAP2 PUSH1 0x7F AND SWAP2 PUSH2 0x2172 JUMP JUMPDEST DUP2 DUP2 LT PUSH2 0x21A6 JUMPI POP POP JUMP JUMPDEST PUSH0 DUP2 SSTORE PUSH1 0x1 ADD PUSH2 0x219B JUMP JUMPDEST PUSH0 NOT DUP2 EQ PUSH2 0x9D1 JUMPI PUSH1 0x1 ADD SWAP1 JUMP JUMPDEST PUSH1 0xFF PUSH1 0x1 SLOAD AND PUSH2 0x21CB JUMPI JUMP JUMPDEST PUSH1 0x40 MLOAD PUSH3 0x461BCD PUSH1 0xE5 SHL DUP2 MSTORE PUSH1 0x20 PUSH1 0x4 DUP3 ADD MSTORE PUSH1 0x10 PUSH1 0x24 DUP3 ADD MSTORE PUSH16 0x14185D5CD8589B194E881C185D5CD959 PUSH1 0x82 SHL PUSH1 0x44 DUP3 ADD MSTORE PUSH1 0x64 SWAP1 REVERT JUMPDEST ISZERO PUSH2 0x220A JUMPI JUMP JUMPDEST PUSH1 0x40 MLOAD PUSH3 0x461BCD PUSH1 0xE5 SHL DUP2 MSTORE PUSH1 0x20 PUSH1 0x4 DUP3 ADD MSTORE PUSH1 0x14 PUSH1 0x24 DUP3 ADD MSTORE PUSH20 0x14D8DBDC9948191BD95CC81B9BDD08195E1A5CDD PUSH1 0x62 SHL PUSH1 0x44 DUP3 ADD MSTORE PUSH1 0x64 SWAP1 REVERT JUMPDEST SWAP1 PUSH1 0x40 MLOAD SWAP2 DUP3 PUSH0 DUP3 SLOAD SWAP3 PUSH2 0x2259 DUP5 PUSH2 0x2163 JUMP JUMPDEST SWAP1 DUP2 DUP5 MSTORE PUSH1 0x1 SWAP5 DUP6 DUP2 AND SWAP1 DUP2 PUSH0 EQ PUSH2 0x22C4 JUMPI POP PUSH1 0x1 EQ PUSH2 0x2284 JUMPI JUMPDEST POP POP PUSH2 0x2282 SWAP3 POP SUB DUP4 PUSH2 0x1BFF JUMP JUMPDEST JUMP JUMPDEST SWAP1 SWAP4 SWAP2 POP PUSH0 MSTORE PUSH1 0x20 SWAP1 DUP2 PUSH0 KECCAK256 SWAP4 PUSH0 SWAP2 JUMPDEST DUP2 DUP4 LT PUSH2 0x22AC JUMPI POP POP PUSH2 0x2282 SWAP4 POP DUP3 ADD ADD PUSH0 DUP1 PUSH2 0x2274 JUMP JUMPDEST DUP6 SLOAD DUP9 DUP5 ADD DUP6 ADD MSTORE SWAP5 DUP6 ADD SWAP5 DUP8 SWAP5 POP SWAP2 DUP4 ADD SWAP2 PUSH2 0x2294 JUMP JUMPDEST SWAP2 POP POP PUSH2 0x2282 SWAP5 POP PUSH1 0x20 SWAP3 POP PUSH1 0xFF NOT AND DUP3 DUP5 ADD MSTORE ISZERO ISZERO PUSH1 0x5 SHL DUP3 ADD ADD PUSH0 DUP1 PUSH2 0x2274 JUMP JUMPDEST PUSH1 0x40 MLOAD SWAP1 PUSH2 0x22F4 DUP3 PUSH2 0x1BE4 JUMP JUMPDEST PUSH0 PUSH1 0x80 DUP4 DUP3 DUP2 MSTORE DUP3 PUSH1 0x20 DUP3 ADD MSTORE DUP3 PUSH1 0x40 DUP3 ADD MSTORE DUP3 PUSH1 0x60 DUP3 ADD MSTORE ADD MSTORE JUMP JUMPDEST SWAP1 PUSH1 0x40 MLOAD PUSH2 0x231E DUP2 PUSH2 0x1BE4 JUMP JUMPDEST PUSH1 0x80 PUSH1 0xFF DUP3 SWAP5 SLOAD DUP2 DUP2 AND DUP5 MSTORE DUP2 DUP2 PUSH1 0x8 SHR AND PUSH1 0x20 DUP6 ADD MSTORE DUP2 DUP2 PUSH1 0x10 SHR AND PUSH1 0x40 DUP6 ADD MSTORE DUP2 DUP2 PUSH1 0x18 SHR AND PUSH1 0x60 DUP6 ADD MSTORE PUSH1 0x20 SHR AND SWAP2 ADD MSTORE JUMP JUMPDEST PUSH2 0x235E DUP2 SLOAD PUSH2 0x2163 JUMP JUMPDEST SWAP1 DUP2 PUSH2 0x2368 JUMPI POP POP JUMP JUMPDEST DUP2 PUSH1 0x1F PUSH0 SWAP4 GT PUSH1 0x1 EQ PUSH2 0x2379 JUMPI POP SSTORE JUMP JUMPDEST SWAP1 DUP1 DUP4 SWAP2 DUP3 MSTORE PUSH2 0x2398 PUSH1 0x1F PUSH1 0x20 DUP5 KECCAK256 SWAP5 ADD PUSH1 0x5 SHR DUP5 ADD PUSH1 0x1 DUP6 ADD PUSH2 0x219B JUMP JUMPDEST SSTORE SSTORE JUMP JUMPDEST DUP1 MLOAD DUP3 LT ISZERO PUSH2 0x23B0 JUMPI PUSH1 0x20 SWAP2 PUSH1 0x5 SHL ADD ADD SWAP1 JUMP JUMPDEST PUSH4 0x4E487B71 PUSH1 0xE0 SHL PUSH0 MSTORE PUSH1 0x32 PUSH1 0x4 MSTORE PUSH1 0x24 PUSH0 REVERT JUMPDEST SWAP1 PUSH0 JUMPDEST DUP2 MLOAD DUP2 LT ISZERO PUSH2 0x23F8 JUMPI PUSH2 0x23DE DUP4 PUSH2 0xA58 DUP4 DUP6 PUSH2 0x239C JUMP JUMPDEST PUSH2 0x23F0 JUMPI PUSH2 0x23EB SWAP1 PUSH2 0x21B1 JUMP JUMPDEST PUSH2 0x23C7 JUMP JUMPDEST POP POP POP PUSH1 0x1 SWAP1 JUMP JUMPDEST POP POP POP PUSH0 SWAP1 JUMP JUMPDEST PUSH1 0x40 MLOAD PUSH1 0xE0 DUP2 ADD DUP2 DUP2 LT PUSH1 0x1 PUSH1 0x1 PUSH1 0x40 SHL SUB DUP3 GT OR PUSH2 0x11EA JUMPI PUSH1 0x40 MSTORE PUSH1 0x6 DUP2 MSTORE PUSH1 0x20 DUP2 ADD PUSH1 0xC0 CALLDATASIZE DUP3 CALLDATACOPY DUP2 MLOAD ISZERO PUSH2 0x23B0 JUMPI PUSH0 DUP1 SWAP2 MSTORE DUP2 MLOAD PUSH1 0x1 LT ISZERO PUSH2 0x2514 JUMPI PUSH32 0xA49807205CE4D355092EF5A8A18F56E8913CF4A201FBE287825B095693C21775 PUSH1 0x40 DUP4 ADD MSTORE DUP2 MLOAD PUSH1 0x2 LT ISZERO PUSH2 0x2514 JUMPI PUSH0 DUP1 MLOAD PUSH1 0x20 PUSH2 0x2529 DUP4 CODECOPY DUP2 MLOAD SWAP2 MSTORE PUSH1 0x60 DUP4 ADD MSTORE DUP2 MLOAD PUSH1 0x3 LT ISZERO PUSH2 0x2514 JUMPI PUSH32 0xEDE9DCDB0CE99DC7CEC9C7BE9246AD08B37853683AD91569C187B647DDF5E21C PUSH1 0x80 DUP4 ADD MSTORE DUP2 MLOAD PUSH1 0x4 LT ISZERO PUSH2 0x2514 JUMPI PUSH32 0x58223CDFB69946630D837D40B5C366A584F0217ADA7FDDD8318F2E08603CFA22 PUSH1 0xA0 DUP4 ADD MSTORE DUP2 MLOAD PUSH1 0x5 LT ISZERO PUSH2 0x2514 JUMPI POP PUSH32 0x7B8BB8356A3F32F5C111FF23F050D97F08988E0883529EA7BFF3B918887A6E0E PUSH1 0xC0 DUP3 ADD MSTORE SWAP1 JUMP JUMPDEST PUSH4 0x4E487B71 PUSH1 0xE0 SHL DUP2 MSTORE PUSH1 0x32 PUSH1 0x4 MSTORE PUSH1 0x24 SWAP1 REVERT INVALID BASEFEE 0x26 BASEFEE 0xE7 DUP8 DUP15 SWAP16 0xA5 0x4C EXP 0x2F PUSH8 0xFFD22D00EBC37CF7 LOG0 RETURNDATACOPY MOD 0xE TIMESTAMP DUP14 0x2A 0xB0 0xCD PUSH8 0x35CCA26469706673 PC 0x22 SLT KECCAK256 SIGNEXTEND SLT 0x23 0xEF 0xAF PUSH7 0x6021DCA3699461 0xC9 0xC0 RETURN 0xC0 EXTCODESIZE 0xD 0xE3 DUP15 CALLVALUE 0xC6 0x5D STOP CALLER 0xD 0xE5 GAS PUSH0 0x2E DUP13 PUSH5 0x736F6C6343 STOP ADDMOD EQ STOP CALLER 0x2F DUP8 DUP9 GT PUSH31 0x7EFF1D82E926EC794901D17C78024A50270940304540A733656F0D00000000 "
		},
		"gasEstimates": {
			"creation": {
				"codeDepositCost": "1919600",
				"executionCost": "infinite",
				"totalCost": "infinite"
			},
			"external": {
				"ADMIN_ROLE()": "549",
				"AI_ORACLE_ROLE()": "845",
				"DEFAULT_ADMIN_ROLE()": "680",
				"DISPUTE_RESOLVER_ROLE()": "791",
				"MAX_SCORE()": "219",
				"MILESTONE_APPROVER_ROLE()": "659",
				"MIN_SCORE()": "372",
				"SCORE_VALIDITY_PERIOD()": "703",
				"TREASURY_MANAGER_ROLE()": "945",
				"authorizedOracles(address)": "2726",
				"getAIScore(uint256)": "infinite",
				"getAllRoles()": "infinite",
				"getDetailedAIScore(uint256)": "infinite",
				"getOracleStats(address)": "5271",
				"getRoleAdmin(bytes32)": "2370",
				"getRoleCount(address)": "infinite",
				"getScoringBreakdown(uint256)": "infinite",
				"grantMultipleRoles(address,bytes32[])": "infinite",
				"grantRole(bytes32,address)": "33338",
				"hasAIScore(uint256)": "2878",
				"hasAnyRole(address,bytes32[])": "infinite",
				"hasRole(bytes32,address)": "2946",
				"oracleScoreCount(address)": "2780",
				"pause()": "30170",
				"paused()": "2554",
				"removeScore(uint256,string)": "infinite",
				"renounceRole(bytes32,address)": "28950",
				"revokeMultipleRoles(address,bytes32[])": "infinite",
				"revokeRole(bytes32,address)": "33923",
				"scoringWeights()": "2624",
				"setOracleAuthorization(address,bool)": "infinite",
				"setSupportedModel(string,bool)": "infinite",
				"submitAIScore(uint256,uint256,string,string,(uint8,uint8,uint8,uint8,uint8))": "infinite",
				"supportedModels(string)": "infinite",
				"supportsInterface(bytes4)": "270",
				"totalScoresSubmitted()": "2432",
				"unpause()": "27823",
				"updateAIScore(uint256,uint256,string,string)": "infinite",
				"updateScoringCriteria((uint8,uint8,uint8,uint8,uint8))": "infinite"
			}
		},
		"methodIdentifiers": {
			"ADMIN_ROLE()": "75b238fc",
			"AI_ORACLE_ROLE()": "c601f7af",
			"DEFAULT_ADMIN_ROLE()": "a217fddf",
			"DISPUTE_RESOLVER_ROLE()": "bfe42a37",
			"MAX_SCORE()": "27ff6223",
			"MILESTONE_APPROVER_ROLE()": "a02d72fb",
			"MIN_SCORE()": "40b89270",
			"SCORE_VALIDITY_PERIOD()": "a91ad18e",
			"TREASURY_MANAGER_ROLE()": "ebdf690f",
			"authorizedOracles(address)": "61c992a3",
			"getAIScore(uint256)": "0311b82d",
			"getAllRoles()": "f2bcac3d",
			"getDetailedAIScore(uint256)": "ea535940",
			"getOracleStats(address)": "c772a8a6",
			"getRoleAdmin(bytes32)": "248a9ca3",
			"getRoleCount(address)": "aca5a8a7",
			"getScoringBreakdown(uint256)": "cfe85a2f",
			"grantMultipleRoles(address,bytes32[])": "91b9f9d8",
			"grantRole(bytes32,address)": "2f2ff15d",
			"hasAIScore(uint256)": "96caac0a",
			"hasAnyRole(address,bytes32[])": "68ca78f9",
			"hasRole(bytes32,address)": "91d14854",
			"oracleScoreCount(address)": "7131f025",
			"pause()": "8456cb59",
			"paused()": "5c975abb",
			"removeScore(uint256,string)": "b8a956d3",
			"renounceRole(bytes32,address)": "36568abe",
			"revokeMultipleRoles(address,bytes32[])": "4fe9d1f5",
			"revokeRole(bytes32,address)": "d547741f",
			"scoringWeights()": "4da89fbd",
			"setOracleAuthorization(address,bool)": "d5c1a1e1",
			"setSupportedModel(string,bool)": "ba340773",
			"submitAIScore(uint256,uint256,string,string,(uint8,uint8,uint8,uint8,uint8))": "7092b0bc",
			"supportedModels(string)": "2ed49cf7",
			"supportsInterface(bytes4)": "01ffc9a7",
			"totalScoresSubmitted()": "3a1e017f",
			"unpause()": "3f4ba83a",
			"updateAIScore(uint256,uint256,string,string)": "2b116373",
			"updateScoringCriteria((uint8,uint8,uint8,uint8,uint8))": "ff8dea01"
		}
	},
	"abi": [
		{
			"inputs": [],
			"stateMutability": "nonpayable",
			"type": "constructor"
		},
		{
			"inputs": [],
			"name": "AccessControlBadConfirmation",
			"type": "error"
		},
		{
			"inputs": [
				{
					"internalType": "address",
					"name": "account",
					"type": "address"
				},
				{
					"internalType": "bytes32",
					"name": "neededRole",
					"type": "bytes32"
				}
			],
			"name": "AccessControlUnauthorizedAccount",
			"type": "error"
		},
		{
			"anonymous": false,
			"inputs": [
				{
					"indexed": true,
					"internalType": "uint256",
					"name": "proposalId",
					"type": "uint256"
				},
				{
					"indexed": false,
					"internalType": "uint256",
					"name": "overallScore",
					"type": "uint256"
				},
				{
					"indexed": false,
					"internalType": "string",
					"name": "justificationIPFS",
					"type": "string"
				},
				{
					"indexed": false,
					"internalType": "string",
					"name": "modelVersion",
					"type": "string"
				},
				{
					"indexed": true,
					"internalType": "address",
					"name": "oracle",
					"type": "address"
				},
				{
					"indexed": false,
					"internalType": "uint256",
					"name": "timestamp",
					"type": "uint256"
				}
			],
			"name": "AIScoreSubmitted",
			"type": "event"
		},
		{
			"anonymous": false,
			"inputs": [
				{
					"indexed": false,
					"internalType": "string",
					"name": "modelVersion",
					"type": "string"
				},
				{
					"indexed": false,
					"internalType": "bool",
					"name": "supported",
					"type": "bool"
				}
			],
			"name": "ModelSupported",
			"type": "event"
		},
		{
			"anonymous": false,
			"inputs": [
				{
					"indexed": true,
					"internalType": "address",
					"name": "oracle",
					"type": "address"
				},
				{
					"indexed": false,
					"internalType": "bool",
					"name": "authorized",
					"type": "bool"
				}
			],
			"name": "OracleAuthorized",
			"type": "event"
		},
		{
			"anonymous": false,
			"inputs": [
				{
					"indexed": false,
					"internalType": "address",
					"name": "account",
					"type": "address"
				}
			],
			"name": "Paused",
			"type": "event"
		},
		{
			"anonymous": false,
			"inputs": [
				{
					"indexed": true,
					"internalType": "bytes32",
					"name": "role",
					"type": "bytes32"
				},
				{
					"indexed": true,
					"internalType": "bytes32",
					"name": "previousAdminRole",
					"type": "bytes32"
				},
				{
					"indexed": true,
					"internalType": "bytes32",
					"name": "newAdminRole",
					"type": "bytes32"
				}
			],
			"name": "RoleAdminChanged",
			"type": "event"
		},
		{
			"anonymous": false,
			"inputs": [
				{
					"indexed": true,
					"internalType": "bytes32",
					"name": "role",
					"type": "bytes32"
				},
				{
					"indexed": true,
					"internalType": "address",
					"name": "account",
					"type": "address"
				},
				{
					"indexed": true,
					"internalType": "address",
					"name": "sender",
					"type": "address"
				}
			],
			"name": "RoleGranted",
			"type": "event"
		},
		{
			"anonymous": false,
			"inputs": [
				{
					"indexed": true,
					"internalType": "bytes32",
					"name": "role",
					"type": "bytes32"
				},
				{
					"indexed": true,
					"internalType": "address",
					"name": "account",
					"type": "address"
				},
				{
					"indexed": true,
					"internalType": "address",
					"name": "sender",
					"type": "address"
				}
			],
			"name": "RoleRevoked",
			"type": "event"
		},
		{
			"anonymous": false,
			"inputs": [
				{
					"indexed": true,
					"internalType": "uint256",
					"name": "proposalId",
					"type": "uint256"
				},
				{
					"indexed": false,
					"internalType": "uint256",
					"name": "newScore",
					"type": "uint256"
				},
				{
					"indexed": false,
					"internalType": "string",
					"name": "reason",
					"type": "string"
				}
			],
			"name": "ScoreUpdated",
			"type": "event"
		},
		{
			"anonymous": false,
			"inputs": [
				{
					"components": [
						{
							"internalType": "uint8",
							"name": "ecosystemContribution",
							"type": "uint8"
						},
						{
							"internalType": "uint8",
							"name": "feasibility",
							"type": "uint8"
						},
						{
							"internalType": "uint8",
							"name": "riskAssessment",
							"type": "uint8"
						},
						{
							"internalType": "uint8",
							"name": "teamReputation",
							"type": "uint8"
						},
						{
							"internalType": "uint8",
							"name": "innovation",
							"type": "uint8"
						}
					],
					"indexed": false,
					"internalType": "struct AIScoreRegistry.ScoringCriteria",
					"name": "newCriteria",
					"type": "tuple"
				}
			],
			"name": "ScoringCriteriaUpdated",
			"type": "event"
		},
		{
			"anonymous": false,
			"inputs": [
				{
					"indexed": false,
					"internalType": "address",
					"name": "account",
					"type": "address"
				}
			],
			"name": "Unpaused",
			"type": "event"
		},
		{
			"inputs": [],
			"name": "ADMIN_ROLE",
			"outputs": [
				{
					"internalType": "bytes32",
					"name": "",
					"type": "bytes32"
				}
			],
			"stateMutability": "view",
			"type": "function"
		},
		{
			"inputs": [],
			"name": "AI_ORACLE_ROLE",
			"outputs": [
				{
					"internalType": "bytes32",
					"name": "",
					"type": "bytes32"
				}
			],
			"stateMutability": "view",
			"type": "function"
		},
		{
			"inputs": [],
			"name": "DEFAULT_ADMIN_ROLE",
			"outputs": [
				{
					"internalType": "bytes32",
					"name": "",
					"type": "bytes32"
				}
			],
			"stateMutability": "view",
			"type": "function"
		},
		{
			"inputs": [],
			"name": "DISPUTE_RESOLVER_ROLE",
			"outputs": [
				{
					"internalType": "bytes32",
					"name": "",
					"type": "bytes32"
				}
			],
			"stateMutability": "view",
			"type": "function"
		},
		{
			"inputs": [],
			"name": "MAX_SCORE",
			"outputs": [
				{
					"internalType": "uint256",
					"name": "",
					"type": "uint256"
				}
			],
			"stateMutability": "view",
			"type": "function"
		},
		{
			"inputs": [],
			"name": "MILESTONE_APPROVER_ROLE",
			"outputs": [
				{
					"internalType": "bytes32",
					"name": "",
					"type": "bytes32"
				}
			],
			"stateMutability": "view",
			"type": "function"
		},
		{
			"inputs": [],
			"name": "MIN_SCORE",
			"outputs": [
				{
					"internalType": "uint256",
					"name": "",
					"type": "uint256"
				}
			],
			"stateMutability": "view",
			"type": "function"
		},
		{
			"inputs": [],
			"name": "SCORE_VALIDITY_PERIOD",
			"outputs": [
				{
					"internalType": "uint256",
					"name": "",
					"type": "uint256"
				}
			],
			"stateMutability": "view",
			"type": "function"
		},
		{
			"inputs": [],
			"name": "TREASURY_MANAGER_ROLE",
			"outputs": [
				{
					"internalType": "bytes32",
					"name": "",
					"type": "bytes32"
				}
			],
			"stateMutability": "view",
			"type": "function"
		},
		{
			"inputs": [
				{
					"internalType": "address",
					"name": "",
					"type": "address"
				}
			],
			"name": "authorizedOracles",
			"outputs": [
				{
					"internalType": "bool",
					"name": "",
					"type": "bool"
				}
			],
			"stateMutability": "view",
			"type": "function"
		},
		{
			"inputs": [
				{
					"internalType": "uint256",
					"name": "proposalId",
					"type": "uint256"
				}
			],
			"name": "getAIScore",
			"outputs": [
				{
					"internalType": "uint256",
					"name": "score",
					"type": "uint256"
				},
				{
					"internalType": "string",
					"name": "justification",
					"type": "string"
				},
				{
					"internalType": "bool",
					"name": "exists",
					"type": "bool"
				}
			],
			"stateMutability": "view",
			"type": "function"
		},
		{
			"inputs": [],
			"name": "getAllRoles",
			"outputs": [
				{
					"internalType": "bytes32[]",
					"name": "roles",
					"type": "bytes32[]"
				}
			],
			"stateMutability": "pure",
			"type": "function"
		},
		{
			"inputs": [
				{
					"internalType": "uint256",
					"name": "proposalId",
					"type": "uint256"
				}
			],
			"name": "getDetailedAIScore",
			"outputs": [
				{
					"components": [
						{
							"internalType": "uint256",
							"name": "proposalId",
							"type": "uint256"
						},
						{
							"internalType": "uint256",
							"name": "overallScore",
							"type": "uint256"
						},
						{
							"internalType": "string",
							"name": "justificationIPFS",
							"type": "string"
						},
						{
							"internalType": "string",
							"name": "modelVersion",
							"type": "string"
						},
						{
							"internalType": "uint256",
							"name": "timestamp",
							"type": "uint256"
						},
						{
							"internalType": "address",
							"name": "oracle",
							"type": "address"
						},
						{
							"internalType": "bool",
							"name": "exists",
							"type": "bool"
						},
						{
							"components": [
								{
									"internalType": "uint8",
									"name": "ecosystemScore",
									"type": "uint8"
								},
								{
									"internalType": "uint8",
									"name": "feasibilityScore",
									"type": "uint8"
								},
								{
									"internalType": "uint8",
									"name": "riskScore",
									"type": "uint8"
								},
								{
									"internalType": "uint8",
									"name": "teamScore",
									"type": "uint8"
								},
								{
									"internalType": "uint8",
									"name": "innovationScore",
									"type": "uint8"
								}
							],
							"internalType": "struct IAIScoreRegistry.ScoringBreakdown",
							"name": "breakdown",
							"type": "tuple"
						}
					],
					"internalType": "struct AIScoreRegistry.AIScoreData",
					"name": "",
					"type": "tuple"
				}
			],
			"stateMutability": "view",
			"type": "function"
		},
		{
			"inputs": [
				{
					"internalType": "address",
					"name": "oracle",
					"type": "address"
				}
			],
			"name": "getOracleStats",
			"outputs": [
				{
					"internalType": "uint256",
					"name": "scoreCount",
					"type": "uint256"
				},
				{
					"internalType": "bool",
					"name": "isAuthorized",
					"type": "bool"
				}
			],
			"stateMutability": "view",
			"type": "function"
		},
		{
			"inputs": [
				{
					"internalType": "bytes32",
					"name": "role",
					"type": "bytes32"
				}
			],
			"name": "getRoleAdmin",
			"outputs": [
				{
					"internalType": "bytes32",
					"name": "",
					"type": "bytes32"
				}
			],
			"stateMutability": "view",
			"type": "function"
		},
		{
			"inputs": [
				{
					"internalType": "address",
					"name": "account",
					"type": "address"
				}
			],
			"name": "getRoleCount",
			"outputs": [
				{
					"internalType": "uint256",
					"name": "roleCount",
					"type": "uint256"
				}
			],
			"stateMutability": "view",
			"type": "function"
		},
		{
			"inputs": [
				{
					"internalType": "uint256",
					"name": "proposalId",
					"type": "uint256"
				}
			],
			"name": "getScoringBreakdown",
			"outputs": [
				{
					"components": [
						{
							"internalType": "uint8",
							"name": "ecosystemScore",
							"type": "uint8"
						},
						{
							"internalType": "uint8",
							"name": "feasibilityScore",
							"type": "uint8"
						},
						{
							"internalType": "uint8",
							"name": "riskScore",
							"type": "uint8"
						},
						{
							"internalType": "uint8",
							"name": "teamScore",
							"type": "uint8"
						},
						{
							"internalType": "uint8",
							"name": "innovationScore",
							"type": "uint8"
						}
					],
					"internalType": "struct IAIScoreRegistry.ScoringBreakdown",
					"name": "breakdown",
					"type": "tuple"
				}
			],
			"stateMutability": "view",
			"type": "function"
		},
		{
			"inputs": [
				{
					"internalType": "address",
					"name": "account",
					"type": "address"
				},
				{
					"internalType": "bytes32[]",
					"name": "roles",
					"type": "bytes32[]"
				}
			],
			"name": "grantMultipleRoles",
			"outputs": [],
			"stateMutability": "nonpayable",
			"type": "function"
		},
		{
			"inputs": [
				{
					"internalType": "bytes32",
					"name": "role",
					"type": "bytes32"
				},
				{
					"internalType": "address",
					"name": "account",
					"type": "address"
				}
			],
			"name": "grantRole",
			"outputs": [],
			"stateMutability": "nonpayable",
			"type": "function"
		},
		{
			"inputs": [
				{
					"internalType": "uint256",
					"name": "proposalId",
					"type": "uint256"
				}
			],
			"name": "hasAIScore",
			"outputs": [
				{
					"internalType": "bool",
					"name": "exists",
					"type": "bool"
				}
			],
			"stateMutability": "view",
			"type": "function"
		},
		{
			"inputs": [
				{
					"internalType": "address",
					"name": "account",
					"type": "address"
				},
				{
					"internalType": "bytes32[]",
					"name": "roles",
					"type": "bytes32[]"
				}
			],
			"name": "hasAnyRole",
			"outputs": [
				{
					"internalType": "bool",
					"name": "",
					"type": "bool"
				}
			],
			"stateMutability": "view",
			"type": "function"
		},
		{
			"inputs": [
				{
					"internalType": "bytes32",
					"name": "role",
					"type": "bytes32"
				},
				{
					"internalType": "address",
					"name": "account",
					"type": "address"
				}
			],
			"name": "hasRole",
			"outputs": [
				{
					"internalType": "bool",
					"name": "",
					"type": "bool"
				}
			],
			"stateMutability": "view",
			"type": "function"
		},
		{
			"inputs": [
				{
					"internalType": "address",
					"name": "",
					"type": "address"
				}
			],
			"name": "oracleScoreCount",
			"outputs": [
				{
					"internalType": "uint256",
					"name": "",
					"type": "uint256"
				}
			],
			"stateMutability": "view",
			"type": "function"
		},
		{
			"inputs": [],
			"name": "pause",
			"outputs": [],
			"stateMutability": "nonpayable",
			"type": "function"
		},
		{
			"inputs": [],
			"name": "paused",
			"outputs": [
				{
					"internalType": "bool",
					"name": "",
					"type": "bool"
				}
			],
			"stateMutability": "view",
			"type": "function"
		},
		{
			"inputs": [
				{
					"internalType": "uint256",
					"name": "proposalId",
					"type": "uint256"
				},
				{
					"internalType": "string",
					"name": "reason",
					"type": "string"
				}
			],
			"name": "removeScore",
			"outputs": [],
			"stateMutability": "nonpayable",
			"type": "function"
		},
		{
			"inputs": [
				{
					"internalType": "bytes32",
					"name": "role",
					"type": "bytes32"
				},
				{
					"internalType": "address",
					"name": "callerConfirmation",
					"type": "address"
				}
			],
			"name": "renounceRole",
			"outputs": [],
			"stateMutability": "nonpayable",
			"type": "function"
		},
		{
			"inputs": [
				{
					"internalType": "address",
					"name": "account",
					"type": "address"
				},
				{
					"internalType": "bytes32[]",
					"name": "roles",
					"type": "bytes32[]"
				}
			],
			"name": "revokeMultipleRoles",
			"outputs": [],
			"stateMutability": "nonpayable",
			"type": "function"
		},
		{
			"inputs": [
				{
					"internalType": "bytes32",
					"name": "role",
					"type": "bytes32"
				},
				{
					"internalType": "address",
					"name": "account",
					"type": "address"
				}
			],
			"name": "revokeRole",
			"outputs": [],
			"stateMutability": "nonpayable",
			"type": "function"
		},
		{
			"inputs": [],
			"name": "scoringWeights",
			"outputs": [
				{
					"internalType": "uint8",
					"name": "ecosystemContribution",
					"type": "uint8"
				},
				{
					"internalType": "uint8",
					"name": "feasibility",
					"type": "uint8"
				},
				{
					"internalType": "uint8",
					"name": "riskAssessment",
					"type": "uint8"
				},
				{
					"internalType": "uint8",
					"name": "teamReputation",
					"type": "uint8"
				},
				{
					"internalType": "uint8",
					"name": "innovation",
					"type": "uint8"
				}
			],
			"stateMutability": "view",
			"type": "function"
		},
		{
			"inputs": [
				{
					"internalType": "address",
					"name": "oracle",
					"type": "address"
				},
				{
					"internalType": "bool",
					"name": "authorized",
					"type": "bool"
				}
			],
			"name": "setOracleAuthorization",
			"outputs": [],
			"stateMutability": "nonpayable",
			"type": "function"
		},
		{
			"inputs": [
				{
					"internalType": "string",
					"name": "modelVersion",
					"type": "string"
				},
				{
					"internalType": "bool",
					"name": "supported",
					"type": "bool"
				}
			],
			"name": "setSupportedModel",
			"outputs": [],
			"stateMutability": "nonpayable",
			"type": "function"
		},
		{
			"inputs": [
				{
					"internalType": "uint256",
					"name": "proposalId",
					"type": "uint256"
				},
				{
					"internalType": "uint256",
					"name": "overallScore",
					"type": "uint256"
				},
				{
					"internalType": "string",
					"name": "justificationIPFS",
					"type": "string"
				},
				{
					"internalType": "string",
					"name": "modelVersion",
					"type": "string"
				},
				{
					"components": [
						{
							"internalType": "uint8",
							"name": "ecosystemScore",
							"type": "uint8"
						},
						{
							"internalType": "uint8",
							"name": "feasibilityScore",
							"type": "uint8"
						},
						{
							"internalType": "uint8",
							"name": "riskScore",
							"type": "uint8"
						},
						{
							"internalType": "uint8",
							"name": "teamScore",
							"type": "uint8"
						},
						{
							"internalType": "uint8",
							"name": "innovationScore",
							"type": "uint8"
						}
					],
					"internalType": "struct IAIScoreRegistry.ScoringBreakdown",
					"name": "breakdown",
					"type": "tuple"
				}
			],
			"name": "submitAIScore",
			"outputs": [],
			"stateMutability": "nonpayable",
			"type": "function"
		},
		{
			"inputs": [
				{
					"internalType": "string",
					"name": "",
					"type": "string"
				}
			],
			"name": "supportedModels",
			"outputs": [
				{
					"internalType": "bool",
					"name": "",
					"type": "bool"
				}
			],
			"stateMutability": "view",
			"type": "function"
		},
		{
			"inputs": [
				{
					"internalType": "bytes4",
					"name": "interfaceId",
					"type": "bytes4"
				}
			],
			"name": "supportsInterface",
			"outputs": [
				{
					"internalType": "bool",
					"name": "",
					"type": "bool"
				}
			],
			"stateMutability": "view",
			"type": "function"
		},
		{
			"inputs": [],
			"name": "totalScoresSubmitted",
			"outputs": [
				{
					"internalType": "uint256",
					"name": "",
					"type": "uint256"
				}
			],
			"stateMutability": "view",
			"type": "function"
		},
		{
			"inputs": [],
			"name": "unpause",
			"outputs": [],
			"stateMutability": "nonpayable",
			"type": "function"
		},
		{
			"inputs": [
				{
					"internalType": "uint256",
					"name": "proposalId",
					"type": "uint256"
				},
				{
					"internalType": "uint256",
					"name": "newScore",
					"type": "uint256"
				},
				{
					"internalType": "string",
					"name": "newJustificationIPFS",
					"type": "string"
				},
				{
					"internalType": "string",
					"name": "reason",
					"type": "string"
				}
			],
			"name": "updateAIScore",
			"outputs": [],
			"stateMutability": "nonpayable",
			"type": "function"
		},
		{
			"inputs": [
				{
					"components": [
						{
							"internalType": "uint8",
							"name": "ecosystemContribution",
							"type": "uint8"
						},
						{
							"internalType": "uint8",
							"name": "feasibility",
							"type": "uint8"
						},
						{
							"internalType": "uint8",
							"name": "riskAssessment",
							"type": "uint8"
						},
						{
							"internalType": "uint8",
							"name": "teamReputation",
							"type": "uint8"
						},
						{
							"internalType": "uint8",
							"name": "innovation",
							"type": "uint8"
						}
					],
					"internalType": "struct AIScoreRegistry.ScoringCriteria",
					"name": "newCriteria",
					"type": "tuple"
				}
			],
			"name": "updateScoringCriteria",
			"outputs": [],
			"stateMutability": "nonpayable",
			"type": "function"
		}
	]
}