{
	"data": {
		"bytecode": {
			"linkReferences": {},
			"object": "608060405234801561001057600080fd5b5061001c600033610022565b506100ce565b6000828152602081815260408083206001600160a01b038516845290915281205460ff166100c4576000838152602081815260408083206001600160a01b03861684529091529020805460ff1916600117905561007c3390565b6001600160a01b0316826001600160a01b0316847f2f8788117e7eff1d82e926ec794901d17c78024a50270940304540a733656f0d60405160405180910390a45060016100c8565b5060005b92915050565b610a47806100dd6000396000f3fe608060405234801561001057600080fd5b506004361061010b5760003560e01c806391d14854116100a2578063bfe42a3711610071578063bfe42a3714610246578063c601f7af1461026d578063d547741f14610294578063ebdf690f146102a7578063f2bcac3d146102ce57600080fd5b806391d14854146101f1578063a02d72fb14610204578063a217fddf1461022b578063aca5a8a71461023357600080fd5b80634fe9d1f5116100de5780634fe9d1f51461019157806368ca78f9146101a457806375b238fc146101b757806391b9f9d8146101de57600080fd5b806301ffc9a714610110578063248a9ca3146101385780632f2ff15d1461016957806336568abe1461017e575b600080fd5b61012361011e3660046107fc565b6102e3565b60405190151581526020015b60405180910390f35b61015b61014636600461082d565b60009081526020819052604090206001015490565b60405190815260200161012f565b61017c610177366004610862565b61031a565b005b61017c61018c366004610862565b610345565b61017c61019f3660046108a4565b61037d565b6101236101b23660046108a4565b6103c9565b61015b7fa49807205ce4d355092ef5a8a18f56e8913cf4a201fbe287825b095693c2177581565b61017c6101ec3660046108a4565b610424565b6101236101ff366004610862565b610470565b61015b7f58223cdfb69946630d837d40b5c366a584f0217ada7fddd8318f2e08603cfa2281565b61015b600081565b61015b610241366004610975565b610499565b61015b7f7b8bb8356a3f32f5c111ff23f050d97f08988e0883529ea7bff3b918887a6e0e81565b61015b7f482648e7878e9fa54c0a2f67ffd22d00ebc37cf7a03e060e428d2ab0cd6735cc81565b61017c6102a2366004610862565b610503565b61015b7fede9dcdb0ce99dc7cec9c7be9246ad08b37853683ad91569c187b647ddf5e21c81565b6102d6610528565b60405161012f9190610990565b60006001600160e01b03198216637965db0b60e01b148061031457506301ffc9a760e01b6001600160e01b03198316145b92915050565b600082815260208190526040902060010154610335816106b1565b61033f83836106be565b50505050565b6001600160a01b038116331461036e5760405163334bd91960e11b815260040160405180910390fd5b6103788282610750565b505050565b6000610388816106b1565b60005b825181101561033f576103b78382815181106103a9576103a96109d4565b602002602001015185610503565b806103c1816109ea565b91505061038b565b6000805b825181101561041a576103f98382815181106103eb576103eb6109d4565b602002602001015185610470565b15610408576001915050610314565b80610412816109ea565b9150506103cd565b5060009392505050565b600061042f816106b1565b60005b825181101561033f5761045e838281518110610450576104506109d4565b60200260200101518561031a565b80610468816109ea565b915050610432565b6000918252602082815260408084206001600160a01b0393909316845291905290205460ff1690565b6000806104a4610528565b90506000805b82518110156104fb576104d68382815181106104c8576104c86109d4565b602002602001015186610470565b156104e957816104e5816109ea565b9250505b806104f3816109ea565b9150506104aa565b509392505050565b60008281526020819052604090206001015461051e816106b1565b61033f8383610750565b60408051600680825260e082019092526060916020820160c0803683370190505090506000801b81600081518110610562576105626109d4565b6020026020010181815250507fa49807205ce4d355092ef5a8a18f56e8913cf4a201fbe287825b095693c21775816001815181106105a2576105a26109d4565b6020026020010181815250507f482648e7878e9fa54c0a2f67ffd22d00ebc37cf7a03e060e428d2ab0cd6735cc816002815181106105e2576105e26109d4565b6020026020010181815250507fede9dcdb0ce99dc7cec9c7be9246ad08b37853683ad91569c187b647ddf5e21c81600381518110610622576106226109d4565b6020026020010181815250507f58223cdfb69946630d837d40b5c366a584f0217ada7fddd8318f2e08603cfa2281600481518110610662576106626109d4565b6020026020010181815250507f7b8bb8356a3f32f5c111ff23f050d97f08988e0883529ea7bff3b918887a6e0e816005815181106106a2576106a26109d4565b60200260200101818152505090565b6106bb81336107bb565b50565b60006106ca8383610470565b610748576000838152602081815260408083206001600160a01b03861684529091529020805460ff191660011790556107003390565b6001600160a01b0316826001600160a01b0316847f2f8788117e7eff1d82e926ec794901d17c78024a50270940304540a733656f0d60405160405180910390a4506001610314565b506000610314565b600061075c8383610470565b15610748576000838152602081815260408083206001600160a01b0386168085529252808320805460ff1916905551339286917ff6391f5c32d9c69d2a47ea670b442974b53935d1edc7fd64eb21e047a839171b9190a4506001610314565b6107c58282610470565b6107f85760405163e2517d3f60e01b81526001600160a01b03821660048201526024810183905260440160405180910390fd5b5050565b60006020828403121561080e57600080fd5b81356001600160e01b03198116811461082657600080fd5b9392505050565b60006020828403121561083f57600080fd5b5035919050565b80356001600160a01b038116811461085d57600080fd5b919050565b6000806040838503121561087557600080fd5b8235915061088560208401610846565b90509250929050565b634e487b7160e01b600052604160045260246000fd5b600080604083850312156108b757600080fd5b6108c083610846565b915060208084013567ffffffffffffffff808211156108de57600080fd5b818601915086601f8301126108f257600080fd5b8135818111156109045761090461088e565b8060051b604051601f19603f830116810181811085821117156109295761092961088e565b60405291825284820192508381018501918983111561094757600080fd5b938501935b828510156109655784358452938501939285019261094c565b8096505050505050509250929050565b60006020828403121561098757600080fd5b61082682610846565b6020808252825182820181905260009190848201906040850190845b818110156109c8578351835292840192918401916001016109ac565b50909695505050505050565b634e487b7160e01b600052603260045260246000fd5b600060018201610a0a57634e487b7160e01b600052601160045260246000fd5b506001019056fea264697066735822122082139c2b2b562ea8c4f51329d6aab03634e445b72a0ae15dc2fc0d53bade4b8c64736f6c63430008140033",
			"opcodes": "PUSH1 0x80 PUSH1 0x40 MSTORE CALLVALUE DUP1 ISZERO PUSH2 0x10 JUMPI PUSH1 0x0 DUP1 REVERT JUMPDEST POP PUSH2 0x1C PUSH1 0x0 CALLER PUSH2 0x22 JUMP JUMPDEST POP PUSH2 0xCE JUMP JUMPDEST PUSH1 0x0 DUP3 DUP2 MSTORE PUSH1 0x20 DUP2 DUP2 MSTORE PUSH1 0x40 DUP1 DUP4 KECCAK256 PUSH1 0x1 PUSH1 0x1 PUSH1 0xA0 SHL SUB DUP6 AND DUP5 MSTORE SWAP1 SWAP2 MSTORE DUP2 KECCAK256 SLOAD PUSH1 0xFF AND PUSH2 0xC4 JUMPI PUSH1 0x0 DUP4 DUP2 MSTORE PUSH1 0x20 DUP2 DUP2 MSTORE PUSH1 0x40 DUP1 DUP4 KECCAK256 PUSH1 0x1 PUSH1 0x1 PUSH1 0xA0 SHL SUB DUP7 AND DUP5 MSTORE SWAP1 SWAP2 MSTORE SWAP1 KECCAK256 DUP1 SLOAD PUSH1 0xFF NOT AND PUSH1 0x1 OR SWAP1 SSTORE PUSH2 0x7C CALLER SWAP1 JUMP JUMPDEST PUSH1 0x1 PUSH1 0x1 PUSH1 0xA0 SHL SUB AND DUP3 PUSH1 0x1 PUSH1 0x1 PUSH1 0xA0 SHL SUB AND DUP5 PUSH32 0x2F8788117E7EFF1D82E926EC794901D17C78024A50270940304540A733656F0D PUSH1 0x40 MLOAD PUSH1 0x40 MLOAD DUP1 SWAP2 SUB SWAP1 LOG4 POP PUSH1 0x1 PUSH2 0xC8 JUMP JUMPDEST POP PUSH1 0x0 JUMPDEST SWAP3 SWAP2 POP POP JUMP JUMPDEST PUSH2 0xA47 DUP1 PUSH2 0xDD PUSH1 0x0 CODECOPY PUSH1 0x0 RETURN INVALID PUSH1 0x80 PUSH1 0x40 MSTORE CALLVALUE DUP1 ISZERO PUSH2 0x10 JUMPI PUSH1 0x0 DUP1 REVERT JUMPDEST POP PUSH1 0x4 CALLDATASIZE LT PUSH2 0x10B JUMPI PUSH1 0x0 CALLDATALOAD PUSH1 0xE0 SHR DUP1 PUSH4 0x91D14854 GT PUSH2 0xA2 JUMPI DUP1 PUSH4 0xBFE42A37 GT PUSH2 0x71 JUMPI DUP1 PUSH4 0xBFE42A37 EQ PUSH2 0x246 JUMPI DUP1 PUSH4 0xC601F7AF EQ PUSH2 0x26D JUMPI DUP1 PUSH4 0xD547741F EQ PUSH2 0x294 JUMPI DUP1 PUSH4 0xEBDF690F EQ PUSH2 0x2A7 JUMPI DUP1 PUSH4 0xF2BCAC3D EQ PUSH2 0x2CE JUMPI PUSH1 0x0 DUP1 REVERT JUMPDEST DUP1 PUSH4 0x91D14854 EQ PUSH2 0x1F1 JUMPI DUP1 PUSH4 0xA02D72FB EQ PUSH2 0x204 JUMPI DUP1 PUSH4 0xA217FDDF EQ PUSH2 0x22B JUMPI DUP1 PUSH4 0xACA5A8A7 EQ PUSH2 0x233 JUMPI PUSH1 0x0 DUP1 REVERT JUMPDEST DUP1 PUSH4 0x4FE9D1F5 GT PUSH2 0xDE JUMPI DUP1 PUSH4 0x4FE9D1F5 EQ PUSH2 0x191 JUMPI DUP1 PUSH4 0x68CA78F9 EQ PUSH2 0x1A4 JUMPI DUP1 PUSH4 0x75B238FC EQ PUSH2 0x1B7 JUMPI DUP1 PUSH4 0x91B9F9D8 EQ PUSH2 0x1DE JUMPI PUSH1 0x0 DUP1 REVERT JUMPDEST DUP1 PUSH4 0x1FFC9A7 EQ PUSH2 0x110 JUMPI DUP1 PUSH4 0x248A9CA3 EQ PUSH2 0x138 JUMPI DUP1 PUSH4 0x2F2FF15D EQ PUSH2 0x169 JUMPI DUP1 PUSH4 0x36568ABE EQ PUSH2 0x17E JUMPI JUMPDEST PUSH1 0x0 DUP1 REVERT JUMPDEST PUSH2 0x123 PUSH2 0x11E CALLDATASIZE PUSH1 0x4 PUSH2 0x7FC JUMP JUMPDEST PUSH2 0x2E3 JUMP JUMPDEST PUSH1 0x40 MLOAD SWAP1 ISZERO ISZERO DUP2 MSTORE PUSH1 0x20 ADD JUMPDEST PUSH1 0x40 MLOAD DUP1 SWAP2 SUB SWAP1 RETURN JUMPDEST PUSH2 0x15B PUSH2 0x146 CALLDATASIZE PUSH1 0x4 PUSH2 0x82D JUMP JUMPDEST PUSH1 0x0 SWAP1 DUP2 MSTORE PUSH1 0x20 DUP2 SWAP1 MSTORE PUSH1 0x40 SWAP1 KECCAK256 PUSH1 0x1 ADD SLOAD SWAP1 JUMP JUMPDEST PUSH1 0x40 MLOAD SWAP1 DUP2 MSTORE PUSH1 0x20 ADD PUSH2 0x12F JUMP JUMPDEST PUSH2 0x17C PUSH2 0x177 CALLDATASIZE PUSH1 0x4 PUSH2 0x862 JUMP JUMPDEST PUSH2 0x31A JUMP JUMPDEST STOP JUMPDEST PUSH2 0x17C PUSH2 0x18C CALLDATASIZE PUSH1 0x4 PUSH2 0x862 JUMP JUMPDEST PUSH2 0x345 JUMP JUMPDEST PUSH2 0x17C PUSH2 0x19F CALLDATASIZE PUSH1 0x4 PUSH2 0x8A4 JUMP JUMPDEST PUSH2 0x37D JUMP JUMPDEST PUSH2 0x123 PUSH2 0x1B2 CALLDATASIZE PUSH1 0x4 PUSH2 0x8A4 JUMP JUMPDEST PUSH2 0x3C9 JUMP JUMPDEST PUSH2 0x15B PUSH32 0xA49807205CE4D355092EF5A8A18F56E8913CF4A201FBE287825B095693C21775 DUP2 JUMP JUMPDEST PUSH2 0x17C PUSH2 0x1EC CALLDATASIZE PUSH1 0x4 PUSH2 0x8A4 JUMP JUMPDEST PUSH2 0x424 JUMP JUMPDEST PUSH2 0x123 PUSH2 0x1FF CALLDATASIZE PUSH1 0x4 PUSH2 0x862 JUMP JUMPDEST PUSH2 0x470 JUMP JUMPDEST PUSH2 0x15B PUSH32 0x58223CDFB69946630D837D40B5C366A584F0217ADA7FDDD8318F2E08603CFA22 DUP2 JUMP JUMPDEST PUSH2 0x15B PUSH1 0x0 DUP2 JUMP JUMPDEST PUSH2 0x15B PUSH2 0x241 CALLDATASIZE PUSH1 0x4 PUSH2 0x975 JUMP JUMPDEST PUSH2 0x499 JUMP JUMPDEST PUSH2 0x15B PUSH32 0x7B8BB8356A3F32F5C111FF23F050D97F08988E0883529EA7BFF3B918887A6E0E DUP2 JUMP JUMPDEST PUSH2 0x15B PUSH32 0x482648E7878E9FA54C0A2F67FFD22D00EBC37CF7A03E060E428D2AB0CD6735CC DUP2 JUMP JUMPDEST PUSH2 0x17C PUSH2 0x2A2 CALLDATASIZE PUSH1 0x4 PUSH2 0x862 JUMP JUMPDEST PUSH2 0x503 JUMP JUMPDEST PUSH2 0x15B PUSH32 0xEDE9DCDB0CE99DC7CEC9C7BE9246AD08B37853683AD91569C187B647DDF5E21C DUP2 JUMP JUMPDEST PUSH2 0x2D6 PUSH2 0x528 JUMP JUMPDEST PUSH1 0x40 MLOAD PUSH2 0x12F SWAP2 SWAP1 PUSH2 0x990 JUMP JUMPDEST PUSH1 0x0 PUSH1 0x1 PUSH1 0x1 PUSH1 0xE0 SHL SUB NOT DUP3 AND PUSH4 0x7965DB0B PUSH1 0xE0 SHL EQ DUP1 PUSH2 0x314 JUMPI POP PUSH4 0x1FFC9A7 PUSH1 0xE0 SHL PUSH1 0x1 PUSH1 0x1 PUSH1 0xE0 SHL SUB NOT DUP4 AND EQ JUMPDEST SWAP3 SWAP2 POP POP JUMP JUMPDEST PUSH1 0x0 DUP3 DUP2 MSTORE PUSH1 0x20 DUP2 SWAP1 MSTORE PUSH1 0x40 SWAP1 KECCAK256 PUSH1 0x1 ADD SLOAD PUSH2 0x335 DUP2 PUSH2 0x6B1 JUMP JUMPDEST PUSH2 0x33F DUP4 DUP4 PUSH2 0x6BE JUMP JUMPDEST POP POP POP POP JUMP JUMPDEST PUSH1 0x1 PUSH1 0x1 PUSH1 0xA0 SHL SUB DUP2 AND CALLER EQ PUSH2 0x36E JUMPI PUSH1 0x40 MLOAD PUSH4 0x334BD919 PUSH1 0xE1 SHL DUP2 MSTORE PUSH1 0x4 ADD PUSH1 0x40 MLOAD DUP1 SWAP2 SUB SWAP1 REVERT JUMPDEST PUSH2 0x378 DUP3 DUP3 PUSH2 0x750 JUMP JUMPDEST POP POP POP JUMP JUMPDEST PUSH1 0x0 PUSH2 0x388 DUP2 PUSH2 0x6B1 JUMP JUMPDEST PUSH1 0x0 JUMPDEST DUP3 MLOAD DUP2 LT ISZERO PUSH2 0x33F JUMPI PUSH2 0x3B7 DUP4 DUP3 DUP2 MLOAD DUP2 LT PUSH2 0x3A9 JUMPI PUSH2 0x3A9 PUSH2 0x9D4 JUMP JUMPDEST PUSH1 0x20 MUL PUSH1 0x20 ADD ADD MLOAD DUP6 PUSH2 0x503 JUMP JUMPDEST DUP1 PUSH2 0x3C1 DUP2 PUSH2 0x9EA JUMP JUMPDEST SWAP2 POP POP PUSH2 0x38B JUMP JUMPDEST PUSH1 0x0 DUP1 JUMPDEST DUP3 MLOAD DUP2 LT ISZERO PUSH2 0x41A JUMPI PUSH2 0x3F9 DUP4 DUP3 DUP2 MLOAD DUP2 LT PUSH2 0x3EB JUMPI PUSH2 0x3EB PUSH2 0x9D4 JUMP JUMPDEST PUSH1 0x20 MUL PUSH1 0x20 ADD ADD MLOAD DUP6 PUSH2 0x470 JUMP JUMPDEST ISZERO PUSH2 0x408 JUMPI PUSH1 0x1 SWAP2 POP POP PUSH2 0x314 JUMP JUMPDEST DUP1 PUSH2 0x412 DUP2 PUSH2 0x9EA JUMP JUMPDEST SWAP2 POP POP PUSH2 0x3CD JUMP JUMPDEST POP PUSH1 0x0 SWAP4 SWAP3 POP POP POP JUMP JUMPDEST PUSH1 0x0 PUSH2 0x42F DUP2 PUSH2 0x6B1 JUMP JUMPDEST PUSH1 0x0 JUMPDEST DUP3 MLOAD DUP2 LT ISZERO PUSH2 0x33F JUMPI PUSH2 0x45E DUP4 DUP3 DUP2 MLOAD DUP2 LT PUSH2 0x450 JUMPI PUSH2 0x450 PUSH2 0x9D4 JUMP JUMPDEST PUSH1 0x20 MUL PUSH1 0x20 ADD ADD MLOAD DUP6 PUSH2 0x31A JUMP JUMPDEST DUP1 PUSH2 0x468 DUP2 PUSH2 0x9EA JUMP JUMPDEST SWAP2 POP POP PUSH2 0x432 JUMP JUMPDEST PUSH1 0x0 SWAP2 DUP3 MSTORE PUSH1 0x20 DUP3 DUP2 MSTORE PUSH1 0x40 DUP1 DUP5 KECCAK256 PUSH1 0x1 PUSH1 0x1 PUSH1 0xA0 SHL SUB SWAP4 SWAP1 SWAP4 AND DUP5 MSTORE SWAP2 SWAP1 MSTORE SWAP1 KECCAK256 SLOAD PUSH1 0xFF AND SWAP1 JUMP JUMPDEST PUSH1 0x0 DUP1 PUSH2 0x4A4 PUSH2 0x528 JUMP JUMPDEST SWAP1 POP PUSH1 0x0 DUP1 JUMPDEST DUP3 MLOAD DUP2 LT ISZERO PUSH2 0x4FB JUMPI PUSH2 0x4D6 DUP4 DUP3 DUP2 MLOAD DUP2 LT PUSH2 0x4C8 JUMPI PUSH2 0x4C8 PUSH2 0x9D4 JUMP JUMPDEST PUSH1 0x20 MUL PUSH1 0x20 ADD ADD MLOAD DUP7 PUSH2 0x470 JUMP JUMPDEST ISZERO PUSH2 0x4E9 JUMPI DUP2 PUSH2 0x4E5 DUP2 PUSH2 0x9EA JUMP JUMPDEST SWAP3 POP POP JUMPDEST DUP1 PUSH2 0x4F3 DUP2 PUSH2 0x9EA JUMP JUMPDEST SWAP2 POP POP PUSH2 0x4AA JUMP JUMPDEST POP SWAP4 SWAP3 POP POP POP JUMP JUMPDEST PUSH1 0x0 DUP3 DUP2 MSTORE PUSH1 0x20 DUP2 SWAP1 MSTORE PUSH1 0x40 SWAP1 KECCAK256 PUSH1 0x1 ADD SLOAD PUSH2 0x51E DUP2 PUSH2 0x6B1 JUMP JUMPDEST PUSH2 0x33F DUP4 DUP4 PUSH2 0x750 JUMP JUMPDEST PUSH1 0x40 DUP1 MLOAD PUSH1 0x6 DUP1 DUP3 MSTORE PUSH1 0xE0 DUP3 ADD SWAP1 SWAP3 MSTORE PUSH1 0x60 SWAP2 PUSH1 0x20 DUP3 ADD PUSH1 0xC0 DUP1 CALLDATASIZE DUP4 CALLDATACOPY ADD SWAP1 POP POP SWAP1 POP PUSH1 0x0 DUP1 SHL DUP2 PUSH1 0x0 DUP2 MLOAD DUP2 LT PUSH2 0x562 JUMPI PUSH2 0x562 PUSH2 0x9D4 JUMP JUMPDEST PUSH1 0x20 MUL PUSH1 0x20 ADD ADD DUP2 DUP2 MSTORE POP POP PUSH32 0xA49807205CE4D355092EF5A8A18F56E8913CF4A201FBE287825B095693C21775 DUP2 PUSH1 0x1 DUP2 MLOAD DUP2 LT PUSH2 0x5A2 JUMPI PUSH2 0x5A2 PUSH2 0x9D4 JUMP JUMPDEST PUSH1 0x20 MUL PUSH1 0x20 ADD ADD DUP2 DUP2 MSTORE POP POP PUSH32 0x482648E7878E9FA54C0A2F67FFD22D00EBC37CF7A03E060E428D2AB0CD6735CC DUP2 PUSH1 0x2 DUP2 MLOAD DUP2 LT PUSH2 0x5E2 JUMPI PUSH2 0x5E2 PUSH2 0x9D4 JUMP JUMPDEST PUSH1 0x20 MUL PUSH1 0x20 ADD ADD DUP2 DUP2 MSTORE POP POP PUSH32 0xEDE9DCDB0CE99DC7CEC9C7BE9246AD08B37853683AD91569C187B647DDF5E21C DUP2 PUSH1 0x3 DUP2 MLOAD DUP2 LT PUSH2 0x622 JUMPI PUSH2 0x622 PUSH2 0x9D4 JUMP JUMPDEST PUSH1 0x20 MUL PUSH1 0x20 ADD ADD DUP2 DUP2 MSTORE POP POP PUSH32 0x58223CDFB69946630D837D40B5C366A584F0217ADA7FDDD8318F2E08603CFA22 DUP2 PUSH1 0x4 DUP2 MLOAD DUP2 LT PUSH2 0x662 JUMPI PUSH2 0x662 PUSH2 0x9D4 JUMP JUMPDEST PUSH1 0x20 MUL PUSH1 0x20 ADD ADD DUP2 DUP2 MSTORE POP POP PUSH32 0x7B8BB8356A3F32F5C111FF23F050D97F08988E0883529EA7BFF3B918887A6E0E DUP2 PUSH1 0x5 DUP2 MLOAD DUP2 LT PUSH2 0x6A2 JUMPI PUSH2 0x6A2 PUSH2 0x9D4 JUMP JUMPDEST PUSH1 0x20 MUL PUSH1 0x20 ADD ADD DUP2 DUP2 MSTORE POP POP SWAP1 JUMP JUMPDEST PUSH2 0x6BB DUP2 CALLER PUSH2 0x7BB JUMP JUMPDEST POP JUMP JUMPDEST PUSH1 0x0 PUSH2 0x6CA DUP4 DUP4 PUSH2 0x470 JUMP JUMPDEST PUSH2 0x748 JUMPI PUSH1 0x0 DUP4 DUP2 MSTORE PUSH1 0x20 DUP2 DUP2 MSTORE PUSH1 0x40 DUP1 DUP4 KECCAK256 PUSH1 0x1 PUSH1 0x1 PUSH1 0xA0 SHL SUB DUP7 AND DUP5 MSTORE SWAP1 SWAP2 MSTORE SWAP1 KECCAK256 DUP1 SLOAD PUSH1 0xFF NOT AND PUSH1 0x1 OR SWAP1 SSTORE PUSH2 0x700 CALLER SWAP1 JUMP JUMPDEST PUSH1 0x1 PUSH1 0x1 PUSH1 0xA0 SHL SUB AND DUP3 PUSH1 0x1 PUSH1 0x1 PUSH1 0xA0 SHL SUB AND DUP5 PUSH32 0x2F8788117E7EFF1D82E926EC794901D17C78024A50270940304540A733656F0D PUSH1 0x40 MLOAD PUSH1 0x40 MLOAD DUP1 SWAP2 SUB SWAP1 LOG4 POP PUSH1 0x1 PUSH2 0x314 JUMP JUMPDEST POP PUSH1 0x0 PUSH2 0x314 JUMP JUMPDEST PUSH1 0x0 PUSH2 0x75C DUP4 DUP4 PUSH2 0x470 JUMP JUMPDEST ISZERO PUSH2 0x748 JUMPI PUSH1 0x0 DUP4 DUP2 MSTORE PUSH1 0x20 DUP2 DUP2 MSTORE PUSH1 0x40 DUP1 DUP4 KECCAK256 PUSH1 0x1 PUSH1 0x1 PUSH1 0xA0 SHL SUB DUP7 AND DUP1 DUP6 MSTORE SWAP3 MSTORE DUP1 DUP4 KECCAK256 DUP1 SLOAD PUSH1 0xFF NOT AND SWAP1 SSTORE MLOAD CALLER SWAP3 DUP7 SWAP2 PUSH32 0xF6391F5C32D9C69D2A47EA670B442974B53935D1EDC7FD64EB21E047A839171B SWAP2 SWAP1 LOG4 POP PUSH1 0x1 PUSH2 0x314 JUMP JUMPDEST PUSH2 0x7C5 DUP3 DUP3 PUSH2 0x470 JUMP JUMPDEST PUSH2 0x7F8 JUMPI PUSH1 0x40 MLOAD PUSH4 0xE2517D3F PUSH1 0xE0 SHL DUP2 MSTORE PUSH1 0x1 PUSH1 0x1 PUSH1 0xA0 SHL SUB DUP3 AND PUSH1 0x4 DUP3 ADD MSTORE PUSH1 0x24 DUP2 ADD DUP4 SWAP1 MSTORE PUSH1 0x44 ADD PUSH1 0x40 MLOAD DUP1 SWAP2 SUB SWAP1 REVERT JUMPDEST POP POP JUMP JUMPDEST PUSH1 0x0 PUSH1 0x20 DUP3 DUP5 SUB SLT ISZERO PUSH2 0x80E JUMPI PUSH1 0x0 DUP1 REVERT JUMPDEST DUP2 CALLDATALOAD PUSH1 0x1 PUSH1 0x1 PUSH1 0xE0 SHL SUB NOT DUP2 AND DUP2 EQ PUSH2 0x826 JUMPI PUSH1 0x0 DUP1 REVERT JUMPDEST SWAP4 SWAP3 POP POP POP JUMP JUMPDEST PUSH1 0x0 PUSH1 0x20 DUP3 DUP5 SUB SLT ISZERO PUSH2 0x83F JUMPI PUSH1 0x0 DUP1 REVERT JUMPDEST POP CALLDATALOAD SWAP2 SWAP1 POP JUMP JUMPDEST DUP1 CALLDATALOAD PUSH1 0x1 PUSH1 0x1 PUSH1 0xA0 SHL SUB DUP2 AND DUP2 EQ PUSH2 0x85D JUMPI PUSH1 0x0 DUP1 REVERT JUMPDEST SWAP2 SWAP1 POP JUMP JUMPDEST PUSH1 0x0 DUP1 PUSH1 0x40 DUP4 DUP6 SUB SLT ISZERO PUSH2 0x875 JUMPI PUSH1 0x0 DUP1 REVERT JUMPDEST DUP3 CALLDATALOAD SWAP2 POP PUSH2 0x885 PUSH1 0x20 DUP5 ADD PUSH2 0x846 JUMP JUMPDEST SWAP1 POP SWAP3 POP SWAP3 SWAP1 POP JUMP JUMPDEST PUSH4 0x4E487B71 PUSH1 0xE0 SHL PUSH1 0x0 MSTORE PUSH1 0x41 PUSH1 0x4 MSTORE PUSH1 0x24 PUSH1 0x0 REVERT JUMPDEST PUSH1 0x0 DUP1 PUSH1 0x40 DUP4 DUP6 SUB SLT ISZERO PUSH2 0x8B7 JUMPI PUSH1 0x0 DUP1 REVERT JUMPDEST PUSH2 0x8C0 DUP4 PUSH2 0x846 JUMP JUMPDEST SWAP2 POP PUSH1 0x20 DUP1 DUP5 ADD CALLDATALOAD PUSH8 0xFFFFFFFFFFFFFFFF DUP1 DUP3 GT ISZERO PUSH2 0x8DE JUMPI PUSH1 0x0 DUP1 REVERT JUMPDEST DUP2 DUP7 ADD SWAP2 POP DUP7 PUSH1 0x1F DUP4 ADD SLT PUSH2 0x8F2 JUMPI PUSH1 0x0 DUP1 REVERT JUMPDEST DUP2 CALLDATALOAD DUP2 DUP2 GT ISZERO PUSH2 0x904 JUMPI PUSH2 0x904 PUSH2 0x88E JUMP JUMPDEST DUP1 PUSH1 0x5 SHL PUSH1 0x40 MLOAD PUSH1 0x1F NOT PUSH1 0x3F DUP4 ADD AND DUP2 ADD DUP2 DUP2 LT DUP6 DUP3 GT OR ISZERO PUSH2 0x929 JUMPI PUSH2 0x929 PUSH2 0x88E JUMP JUMPDEST PUSH1 0x40 MSTORE SWAP2 DUP3 MSTORE DUP5 DUP3 ADD SWAP3 POP DUP4 DUP2 ADD DUP6 ADD SWAP2 DUP10 DUP4 GT ISZERO PUSH2 0x947 JUMPI PUSH1 0x0 DUP1 REVERT JUMPDEST SWAP4 DUP6 ADD SWAP4 JUMPDEST DUP3 DUP6 LT ISZERO PUSH2 0x965 JUMPI DUP5 CALLDATALOAD DUP5 MSTORE SWAP4 DUP6 ADD SWAP4 SWAP3 DUP6 ADD SWAP3 PUSH2 0x94C JUMP JUMPDEST DUP1 SWAP7 POP POP POP POP POP POP POP SWAP3 POP SWAP3 SWAP1 POP JUMP JUMPDEST PUSH1 0x0 PUSH1 0x20 DUP3 DUP5 SUB SLT ISZERO PUSH2 0x987 JUMPI PUSH1 0x0 DUP1 REVERT JUMPDEST PUSH2 0x826 DUP3 PUSH2 0x846 JUMP JUMPDEST PUSH1 0x20 DUP1 DUP3 MSTORE DUP3 MLOAD DUP3 DUP3 ADD DUP2 SWAP1 MSTORE PUSH1 0x0 SWAP2 SWAP1 DUP5 DUP3 ADD SWAP1 PUSH1 0x40 DUP6 ADD SWAP1 DUP5 JUMPDEST DUP2 DUP2 LT ISZERO PUSH2 0x9C8 JUMPI DUP4 MLOAD DUP4 MSTORE SWAP3 DUP5 ADD SWAP3 SWAP2 DUP5 ADD SWAP2 PUSH1 0x1 ADD PUSH2 0x9AC JUMP JUMPDEST POP SWAP1 SWAP7 SWAP6 POP POP POP POP POP POP JUMP JUMPDEST PUSH4 0x4E487B71 PUSH1 0xE0 SHL PUSH1 0x0 MSTORE PUSH1 0x32 PUSH1 0x4 MSTORE PUSH1 0x24 PUSH1 0x0 REVERT JUMPDEST PUSH1 0x0 PUSH1 0x1 DUP3 ADD PUSH2 0xA0A JUMPI PUSH4 0x4E487B71 PUSH1 0xE0 SHL PUSH1 0x0 MSTORE PUSH1 0x11 PUSH1 0x4 MSTORE PUSH1 0x24 PUSH1 0x0 REVERT JUMPDEST POP PUSH1 0x1 ADD SWAP1 JUMP INVALID LOG2 PUSH5 0x6970667358 0x22 SLT KECCAK256 DUP3 SGT SWAP13 0x2B 0x2B JUMP 0x2E 0xA8 0xC4 CREATE2 SGT 0x29 0xD6 0xAA 0xB0 CALLDATASIZE CALLVALUE 0xE4 GASLIMIT 0xB7 0x2A EXP 0xE1 0x5D 0xC2 0xFC 0xD MSTORE8 0xBA 0xDE 0x4B DUP13 PUSH5 0x736F6C6343 STOP ADDMOD EQ STOP CALLER "
		},
		"gasEstimates": {
			"creation": {
				"codeDepositCost": "526200",
				"executionCost": "29245",
				"totalCost": "555445"
			},
			"external": {
				"ADMIN_ROLE()": "262",
				"AI_ORACLE_ROLE()": "239",
				"DEFAULT_ADMIN_ROLE()": "262",
				"DISPUTE_RESOLVER_ROLE()": "217",
				"MILESTONE_APPROVER_ROLE()": "240",
				"TREASURY_MANAGER_ROLE()": "283",
				"getAllRoles()": "infinite",
				"getRoleAdmin(bytes32)": "2493",
				"getRoleCount(address)": "infinite",
				"grantMultipleRoles(address,bytes32[])": "infinite",
				"grantRole(bytes32,address)": "infinite",
				"hasAnyRole(address,bytes32[])": "infinite",
				"hasRole(bytes32,address)": "2674",
				"renounceRole(bytes32,address)": "29113",
				"revokeMultipleRoles(address,bytes32[])": "infinite",
				"revokeRole(bytes32,address)": "infinite",
				"supportsInterface(bytes4)": "450"
			}
		},
		"methodIdentifiers": {
			"ADMIN_ROLE()": "75b238fc",
			"AI_ORACLE_ROLE()": "c601f7af",
			"DEFAULT_ADMIN_ROLE()": "a217fddf",
			"DISPUTE_RESOLVER_ROLE()": "bfe42a37",
			"MILESTONE_APPROVER_ROLE()": "a02d72fb",
			"TREASURY_MANAGER_ROLE()": "ebdf690f",
			"getAllRoles()": "f2bcac3d",
			"getRoleAdmin(bytes32)": "248a9ca3",
			"getRoleCount(address)": "aca5a8a7",
			"grantMultipleRoles(address,bytes32[])": "91b9f9d8",
			"grantRole(bytes32,address)": "2f2ff15d",
			"hasAnyRole(address,bytes32[])": "68ca78f9",
			"hasRole(bytes32,address)": "91d14854",
			"renounceRole(bytes32,address)": "36568abe",
			"revokeMultipleRoles(address,bytes32[])": "4fe9d1f5",
			"revokeRole(bytes32,address)": "d547741f",
			"supportsInterface(bytes4)": "01ffc9a7"
		}
	},
	"abi": [
		{
			"inputs": [],
			"stateMutability": "nonpayable",
			"type": "constructor"
		},
		{
			"inputs": [],
			"name": "AccessControlBadConfirmation",
			"type": "error"
		},
		{
			"inputs": [
				{
					"internalType": "address",
					"name": "account",
					"type": "address"
				},
				{
					"internalType": "bytes32",
					"name": "neededRole",
					"type": "bytes32"
				}
			],
			"name": "AccessControlUnauthorizedAccount",
			"type": "error"
		},
		{
			"anonymous": false,
			"inputs": [
				{
					"indexed": true,
					"internalType": "bytes32",
					"name": "role",
					"type": "bytes32"
				},
				{
					"indexed": true,
					"internalType": "bytes32",
					"name": "previousAdminRole",
					"type": "bytes32"
				},
				{
					"indexed": true,
					"internalType": "bytes32",
					"name": "newAdminRole",
					"type": "bytes32"
				}
			],
			"name": "RoleAdminChanged",
			"type": "event"
		},
		{
			"anonymous": false,
			"inputs": [
				{
					"indexed": true,
					"internalType": "bytes32",
					"name": "role",
					"type": "bytes32"
				},
				{
					"indexed": true,
					"internalType": "address",
					"name": "account",
					"type": "address"
				},
				{
					"indexed": true,
					"internalType": "address",
					"name": "sender",
					"type": "address"
				}
			],
			"name": "RoleGranted",
			"type": "event"
		},
		{
			"anonymous": false,
			"inputs": [
				{
					"indexed": true,
					"internalType": "bytes32",
					"name": "role",
					"type": "bytes32"
				},
				{
					"indexed": true,
					"internalType": "address",
					"name": "account",
					"type": "address"
				},
				{
					"indexed": true,
					"internalType": "address",
					"name": "sender",
					"type": "address"
				}
			],
			"name": "RoleRevoked",
			"type": "event"
		},
		{
			"inputs": [],
			"name": "ADMIN_ROLE",
			"outputs": [
				{
					"internalType": "bytes32",
					"name": "",
					"type": "bytes32"
				}
			],
			"stateMutability": "view",
			"type": "function"
		},
		{
			"inputs": [],
			"name": "AI_ORACLE_ROLE",
			"outputs": [
				{
					"internalType": "bytes32",
					"name": "",
					"type": "bytes32"
				}
			],
			"stateMutability": "view",
			"type": "function"
		},
		{
			"inputs": [],
			"name": "DEFAULT_ADMIN_ROLE",
			"outputs": [
				{
					"internalType": "bytes32",
					"name": "",
					"type": "bytes32"
				}
			],
			"stateMutability": "view",
			"type": "function"
		},
		{
			"inputs": [],
			"name": "DISPUTE_RESOLVER_ROLE",
			"outputs": [
				{
					"internalType": "bytes32",
					"name": "",
					"type": "bytes32"
				}
			],
			"stateMutability": "view",
			"type": "function"
		},
		{
			"inputs": [],
			"name": "MILESTONE_APPROVER_ROLE",
			"outputs": [
				{
					"internalType": "bytes32",
					"name": "",
					"type": "bytes32"
				}
			],
			"stateMutability": "view",
			"type": "function"
		},
		{
			"inputs": [],
			"name": "TREASURY_MANAGER_ROLE",
			"outputs": [
				{
					"internalType": "bytes32",
					"name": "",
					"type": "bytes32"
				}
			],
			"stateMutability": "view",
			"type": "function"
		},
		{
			"inputs": [],
			"name": "getAllRoles",
			"outputs": [
				{
					"internalType": "bytes32[]",
					"name": "roles",
					"type": "bytes32[]"
				}
			],
			"stateMutability": "pure",
			"type": "function"
		},
		{
			"inputs": [
				{
					"internalType": "bytes32",
					"name": "role",
					"type": "bytes32"
				}
			],
			"name": "getRoleAdmin",
			"outputs": [
				{
					"internalType": "bytes32",
					"name": "",
					"type": "bytes32"
				}
			],
			"stateMutability": "view",
			"type": "function"
		},
		{
			"inputs": [
				{
					"internalType": "address",
					"name": "account",
					"type": "address"
				}
			],
			"name": "getRoleCount",
			"outputs": [
				{
					"internalType": "uint256",
					"name": "roleCount",
					"type": "uint256"
				}
			],
			"stateMutability": "view",
			"type": "function"
		},
		{
			"inputs": [
				{
					"internalType": "address",
					"name": "account",
					"type": "address"
				},
				{
					"internalType": "bytes32[]",
					"name": "roles",
					"type": "bytes32[]"
				}
			],
			"name": "grantMultipleRoles",
			"outputs": [],
			"stateMutability": "nonpayable",
			"type": "function"
		},
		{
			"inputs": [
				{
					"internalType": "bytes32",
					"name": "role",
					"type": "bytes32"
				},
				{
					"internalType": "address",
					"name": "account",
					"type": "address"
				}
			],
			"name": "grantRole",
			"outputs": [],
			"stateMutability": "nonpayable",
			"type": "function"
		},
		{
			"inputs": [
				{
					"internalType": "address",
					"name": "account",
					"type": "address"
				},
				{
					"internalType": "bytes32[]",
					"name": "roles",
					"type": "bytes32[]"
				}
			],
			"name": "hasAnyRole",
			"outputs": [
				{
					"internalType": "bool",
					"name": "",
					"type": "bool"
				}
			],
			"stateMutability": "view",
			"type": "function"
		},
		{
			"inputs": [
				{
					"internalType": "bytes32",
					"name": "role",
					"type": "bytes32"
				},
				{
					"internalType": "address",
					"name": "account",
					"type": "address"
				}
			],
			"name": "hasRole",
			"outputs": [
				{
					"internalType": "bool",
					"name": "",
					"type": "bool"
				}
			],
			"stateMutability": "view",
			"type": "function"
		},
		{
			"inputs": [
				{
					"internalType": "bytes32",
					"name": "role",
					"type": "bytes32"
				},
				{
					"internalType": "address",
					"name": "callerConfirmation",
					"type": "address"
				}
			],
			"name": "renounceRole",
			"outputs": [],
			"stateMutability": "nonpayable",
			"type": "function"
		},
		{
			"inputs": [
				{
					"internalType": "address",
					"name": "account",
					"type": "address"
				},
				{
					"internalType": "bytes32[]",
					"name": "roles",
					"type": "bytes32[]"
				}
			],
			"name": "revokeMultipleRoles",
			"outputs": [],
			"stateMutability": "nonpayable",
			"type": "function"
		},
		{
			"inputs": [
				{
					"internalType": "bytes32",
					"name": "role",
					"type": "bytes32"
				},
				{
					"internalType": "address",
					"name": "account",
					"type": "address"
				}
			],
			"name": "revokeRole",
			"outputs": [],
			"stateMutability": "nonpayable",
			"type": "function"
		},
		{
			"inputs": [
				{
					"internalType": "bytes4",
					"name": "interfaceId",
					"type": "bytes4"
				}
			],
			"name": "supportsInterface",
			"outputs": [
				{
					"internalType": "bool",
					"name": "",
					"type": "bool"
				}
			],
			"stateMutability": "view",
			"type": "function"
		}
	]
}