{
	"data": {
		"bytecode": {
			"linkReferences": {},
			"object": "60803461016857601f61286838819003918201601f19168301916001600160401b0383118484101761016c57808492604094855283398101031261016857610052602061004b83610180565b9201610180565b61005b33610194565b5060018055600254906001600160a01b03831615610123576001600160a01b03169182156100de576001600160a81b031990911660089190911b610100600160a81b031617600255600380546001600160a01b0319169190911790555f6004556100c433610194565b506100ce3361020a565b5060405161256a908161029e8239f35b60405162461bcd60e51b815260206004820152601760248201527f496e76616c696420747265617375727920657363726f770000000000000000006044820152606490fd5b60405162461bcd60e51b815260206004820152601360248201527f496e76616c6964204149207265676973747279000000000000000000000000006044820152606490fd5b5f80fd5b634e487b7160e01b5f52604160045260245ffd5b51906001600160a01b038216820361016857565b6001600160a01b0381165f9081525f80516020612848833981519152602052604090205460ff16610205576001600160a01b03165f8181525f8051602061284883398151915260205260408120805460ff191660011790553391905f805160206128088339815191528180a4600190565b505f90565b6001600160a01b0381165f9081525f80516020612828833981519152602052604090205460ff16610205576001600160a01b03165f8181525f8051602061282883398151915260205260408120805460ff191660011790553391907fa49807205ce4d355092ef5a8a18f56e8913cf4a201fbe287825b095693c21775905f805160206128088339815191529080a460019056fe6101006040526004361015610012575f80fd5b5f803560e01c8063013cf08b14611d4157806301ffc9a714611ceb57806308d256af146110835780630d61b51914610d7e5780631d9dfd4e14610d55578063215809ca14610d37578063248a9ca314610d045780632d142b7614610ccb5780632d75ae0e14610ca65780632f2ff15d14610c6d57806336568abe14610c2857806339c854fa14610c0c5780633ab3429014610bf05780633f4ba83a14610b5b5780634385963214610b115780634c05abeb14610af55780634fe9d1f514610a9f578063567813881461093e5780635c975abb1461091b5780636807fc211461089157806368ca78f91461086d57806375b238fc14610832578063791f5d231461080e5780638456cb591461077a57806391b9f9d81461071b57806391d14854146106d257806396479e19146106a5578063a02d72fb1461066a578063a217fddf1461064e578063a64e024a14610630578063abd98fb0146105bb578063aca5a8a71461052f578063bb4d44361461050a578063bfe42a37146104cf578063c601f7af14610494578063c7f758a814610354578063d547741f1461030d578063db994b4f146102be578063ebdf690f14610283578063ee8a7c1514610267578063f2bcac3d146102095763fe10226d146101e9575f80fd5b346102065780600319360112610206576020600454604051908152f35b80fd5b50346102065780600319360112610206576102226121d8565b90604051918291602083016020845282518091526020604085019301915b81811061024e575050500390f35b8251845285945060209384019390920191600101610240565b50346102065780600319360112610206576020604051600f8152f35b503461020657806003193601126102065760206040517fede9dcdb0ce99dc7cec9c7be9246ad08b37853683ad91569c187b647ddf5e21c8152f35b50346102065760403660031901126102065760406102da612079565b9160043581526007602052209060018060a01b03165f52602052602060ff60405f20541661030b6040518092612122565bf35b50346102065760403660031901126102065761035060043561032d612079565b9061034b610346825f525f602052600160405f20015490565b6123e7565b6124a7565b5080f35b50346102065760203660031901126102065760043580151580610488575b1561044d5781526005602052604090208054600160a01b6001900360018301541691600581015490600681015460ff16600e8201546009830154600a84015490600b85015492600c86015494600d87015496600281016103d190611f26565b906003016103de90611f26565b906040519b8c9b8c5260208c015260408b0161018090526101808b0161040391611fc6565b8a810360608c015261041491611fc6565b9760808a015260a0890161042791611fea565b60c088015260e08701526101008601526101208501526101408401526101608301520390f35b60405162461bcd60e51b8152602060048201526013602482015272125b9d985b1a59081c1c9bdc1bdcd85b081251606a1b6044820152606490fd5b50600454811115610372565b503461020657806003193601126102065760206040517f482648e7878e9fa54c0a2f67ffd22d00ebc37cf7a03e060e428d2ab0cd6735cc8152f35b503461020657806003193601126102065760206040517f7b8bb8356a3f32f5c111ff23f050d97f08988e0883529ea7bff3b918887a6e0e8152f35b5034610206576020366003190112610206576020610526612063565b31604051908152f35b503461020657602036600319011261020657610549612063565b6105516121d8565b90825b82518110156105b05761058f8261056b838661212f565b515f525f60205260405f209060018060a01b03165f5260205260ff60405f20541690565b61059c575b600101610554565b926105a86001916121b6565b939050610594565b602084604051908152f35b5034610206576020366003190112610206577fb0375a2ebcfdc355daf31c17062233e587a73c013fde410d569cf8167b1d409860206105f8612063565b610600612329565b6001600160a01b0316610614811515612143565b600380546001600160a01b03191682179055604051908152a180f35b50346102065780600319360112610206576020604051621275008152f35b5034610206578060031936011261020657602090604051908152f35b503461020657806003193601126102065760206040517f58223cdfb69946630d837d40b5c366a584f0217ada7fddd8318f2e08603cfa228152f35b503461020657806003193601126102065760025460405160089190911c6001600160a01b03168152602090f35b50346102065760403660031901126102065760406106ee612079565b91600435815280602052209060018060a01b03165f52602052602060ff60405f2054166040519015158152f35b50346102065761072a3661208f565b610735929192612398565b815b8151811015610776578061076f856107516001948661212f565b5161076a610346825f525f602052600160405f20015490565b61241f565b5001610737565b8280f35b5034610206578060031936011261020657610793612329565b60025460ff81166107d65760019060ff1916176002557f62e78cea01bee320cd4e420270b5ea74000d11b0c9f74754ebdbfc544b05a2586020604051338152a180f35b60405162461bcd60e51b815260206004820152601060248201526f14185d5cd8589b194e881c185d5cd95960821b6044820152606490fd5b50346102065780600319360112610206576020604051683635c9adc5dea000008152f35b503461020657806003193601126102065760206040517fa49807205ce4d355092ef5a8a18f56e8913cf4a201fbe287825b095693c217758152f35b50346102065760206108876108813661208f565b90612181565b6040519015158152f35b5034610206576020366003190112610206577f12cb47b190a758acbe916b2a7c5a734b023ce60f4d93ec2b3159160163c9291a60206108ce612063565b6108d6612329565b6001600160a01b038116906108ec821515612143565b60028054610100600160a81b03191660089290921b610100600160a81b0316919091179055604051908152a180f35b5034610206578060031936011261020657602060ff600254166040519015158152f35b5034610206576040366003190112610206576024356004356003821015610a9b57808352600660209081526040808520335f908152925290205460ff16610a665780835260056020526040832060ff6006820154166007811015610a525760016109a891146122f0565b33319082855260066020526040852060018060a01b0333165f5260205260405f20600160ff19825416179055600184145f14610a2a57600b016109ec828254612527565b90555b6109fc6040518094612122565b60208301527fb83d25c6a5d258561330739951487acb4bd09ba5190b5d32c4f261817d90679260403393a380f35b83610a4457600c01610a3d828254612527565b90556109ef565b600d01610a3d828254612527565b634e487b7160e01b85526021600452602485fd5b60405162461bcd60e51b815260206004820152600d60248201526c105b1c9958591e481d9bdd1959609a1b6044820152606490fd5b8280fd5b503461020657610aae3661208f565b610ab9929192612398565b815b81518110156107765780610aee85610ad56001948661212f565b5161034b610346825f525f602052600160405f20015490565b5001610abb565b50346102065780600319360112610206576020604051600a8152f35b5034610206576040366003190112610206576040610b2d612079565b9160043581526006602052209060018060a01b03165f52602052602060ff60405f2054166040519015158152f35b5034610206578060031936011261020657610b74612329565b60025460ff811615610bb45760ff19166002557f5db9ee0a495bf2e6ff9c91a7834c1ba4fdd244a5e8aa4e537bd38aeae4b073aa6020604051338152a180f35b60405162461bcd60e51b815260206004820152601460248201527314185d5cd8589b194e881b9bdd081c185d5cd95960621b6044820152606490fd5b5034610206578060031936011261020657602060405160338152f35b5034610206578060031936011261020657602060405160468152f35b503461020657604036600319011261020657610c42612079565b336001600160a01b03821603610c5e57610350906004356124a7565b63334bd91960e11b8252600482fd5b503461020657604036600319011261020657610350600435610c8d612079565b9061076a610346825f525f602052600160405f20015490565b5034610206578060031936011261020657602060405169d3c21bcecceda10000008152f35b5034610206576020366003190112610206576020906040906001600160a01b03610cf3612063565b168152600883522054604051908152f35b5034610206576020366003190112610206576020610d2f6004355f525f602052600160405f20015490565b604051908152f35b503461020657806003193601126102065760206040516203f4808152f35b50346102065780600319360112610206576003546040516001600160a01b039091168152602090f35b5034610f2c576020366003190112610f2c57600435805f52600560205260405f20600681019060ff825416600781101561106f576001610dbe91146122f0565b600a81015442111561103a57600b810154600c82015490683635c9adc5dea00000610df7610dec8484612527565b600d86015490612527565b101591829182611030575b505015610f305750815460ff191660021782556003546001820154600583018054601090940154909390926001600160a01b039283169216803b15610f2c575f928360849260405196879586946307d519c960e51b86528c60048701526024860152604485015260648401525af18015610f2157610ee2575b5060ff7f5b9614f21773d68c0b149bda804ff3d491c8bc8795f7ed236cc97804cd00538992847fc6a4fd4a703d2a2fe3167ce7f6d62bf96458b7e55042cfaa85d5c7ef3ac56eea6020809554604051908152a25b5416610ede6040518092611fea565ba280f35b60209194507f5b9614f21773d68c0b149bda804ff3d491c8bc8795f7ed236cc97804cd00538992610f155f60ff93611f05565b5f959093509150610e7b565b6040513d5f823e3d90fd5b5f80fd5b825460ff191660041783557f5b9614f21773d68c0b149bda804ff3d491c8bc8795f7ed236cc97804cd005389926020925060ff9115610fd957847fe5f9059dc551d2dcf73c3bc69f282e134799b450f062c909d9f7ff45951327bd610fd1604051610f9c604082611f05565b601681527513585a9bdc9a5d1e481d9bdd1959081859d85a5b9cdd60521b878201525b60405191829188835288830190611fc6565b0390a2610ecf565b847fe5f9059dc551d2dcf73c3bc69f282e134799b450f062c909d9f7ff45951327bd610fd160405161100c604082611f05565b6013815272496e73756666696369656e742071756f72756d60681b87820152610fbf565b1190505f80610e02565b60405162461bcd60e51b815260206004820152600d60248201526c566f74696e672061637469766560981b6044820152606490fd5b634e487b7160e01b5f52602160045260245ffd5b6020366003190112610f2c576004356001600160401b038111610f2c5760e06003198236030112610f2c576040519060e082018281106001600160401b038211176117025760405280600401356001600160401b038111610f2c576110ee9060043691840101611ff7565b825260248101356001600160401b038111610f2c576111139060043691840101611ff7565b6020830190815260448201356001600160401b038111610f2c5761113d9060043691850101611ff7565b916040840192835260608401936064820135855260848201356001600160401b038111610f2c57820136602382011215610f2c57600481013561117f8161204c565b9161118d6040519384611f05565b818352602060048185019360051b8301010190368211610f2c5760248101925b828410611cba57505050506080820190815260a48301356001600160401b038111610f2c5783019236602385011215610f2c576004840135936111ef8561204c565b946111fd6040519687611f05565b808652602060048188019260051b8401010191368311610f2c57602401905b828210611caa5750505060a0830193845260c460c08401910135815266038d7ea4c680003410611c6557825187519082518451519287515192518015159081611c59575b5015611c1d578015159081611c08575b5015611bd2576203f4808110159081611bc4575b5015611b87578103611b42578015159081611b36575b5015611af157683635c9adc5dea00000333110611aac576112bc6004546121b6565b94856004558351905187519080518015159081611a9f575b5015611a6157815115611a2857875f52600560205260405f209288845560018401336bffffffffffffffffffffffff60a01b82541617905560028401908051906001600160401b03821161170257819061132e8454611ecd565b601f81116119d8575b50602090601f8311600114611975575f9261196a575b50508160011b915f199060031b1c19161790555b805160038401916001600160401b0382116117025781906113828454611ecd565b601f811161191a575b50602090601f83116001146118b7575f926118ac575b50508160011b915f199060031b1c19161790555b805160048301916001600160401b038211611702576113d48354611ecd565b601f8111611867575b50602090601f83116001146117fe5791805f9694926011969488926117f3575b50508160011b9187199060031b1c19161790555b6006810160ff1981541690556007429101558851905187845260056020526040842091600583015560088201550155519151925f955f965b85518810156115265761145c888761212f565b51156114d75761146c888661212f565b5151156114925761148a6001916114838a8961212f565b5190612527565b970196611449565b60405162461bcd60e51b815260206004820152601e60248201527f4d696c6573746f6e65206465736372697074696f6e20726571756972656400006044820152606490fd5b60405162461bcd60e51b815260206004820152602160248201527f4d696c6573746f6e6520616d6f756e74206d75737420626520706f73697469766044820152606560f81b6064820152608490fd5b94939295825f52600560205260405f20956005870154036117965760105f979601965b845181101561172a5761155c818661212f565b51611567828861212f565b5160405191608083018381106001600160401b0382111761170257604052825260208201908152604082015f815260608301915f83528b54680100000000000000008110156117025760018101808e55811015611716578c5f5260205f209060021b0193518051906001600160401b038211611702576115e78654611ecd565b601f81116116bd575b50602090601f831160011461165257918060019897969492600396945f92611647575b50505f1982871b1c191690881b1785555b5186850155600284019051151560ff801983541691161790555191015501611549565b015190505f80611613565b90601f19831691875f52815f20925f5b8181106116a557509260019998979593928592600398968c951061168e575b505050811b018555611624565b01515f1983891b60f8161c191690555f8080611681565b92936020600181928786015181550195019301611662565b865f5260205f20601f840160051c810191602085106116f8575b601f0160051c01905b8181106116ed57506115f0565b5f81556001016116e0565b90915081906116d7565b634e487b7160e01b5f52604160045260245ffd5b634e487b7160e01b5f52603260045260245ffd5b60208484817f5ad01c818e42f77c2c5123d4d295c39799cf1cac9125682a8c90c7ce9d9bf6b4611781878d519451905161176f60405196608088526080880190611fc6565b91888701528582036040870152611fc6565b924260608201528033940390a3604051908152f35b60405162461bcd60e51b815260206004820152602f60248201527f4d696c6573746f6e6520616d6f756e747320646f6e27742073756d20746f207260448201526e195c5d595cdd195908185b5bdd5b9d608a1b6064820152608490fd5b015190508d806113fd565b90601f19831691845f52815f20925f5b81811061184f5750926001928592601198965f9a989610611837575b505050811b019055611411565b0151881960f88460031b161c191690558d808061182a565b9293602060018192878601518155019501930161180e565b835f5260205f20601f840160051c810191602085106118a2575b601f0160051c01905b81811061189757506113dd565b5f815560010161188a565b9091508190611881565b015190508c806113a1565b5f8581528281209350601f198516905b81811061190257509084600195949392106118ea575b505050811b0190556113b5565b01515f1960f88460031b161c191690558c80806118dd565b929360206001819287860151815501950193016118c7565b909150835f5260205f20601f840160051c81019160208510611960575b90601f859493920160051c01905b818110611952575061138b565b5f8155849350600101611945565b9091508190611937565b015190508d8061134d565b5f8581528281209350601f198516905b8181106119c057509084600195949392106119a8575b505050811b019055611361565b01515f1960f88460031b161c191690558d808061199b565b92936020600181928786015181550195019301611985565b909150835f5260205f20601f840160051c81019160208510611a1e575b90601f859493920160051c01905b818110611a105750611337565b5f8155849350600101611a03565b90915081906119f5565b60405162461bcd60e51b815260206004820152601160248201527012541194c810d251081c995c5d5a5c9959607a1b6044820152606490fd5b60405162461bcd60e51b8152602060048201526016602482015275092dcecc2d8d2c840e6eadadac2e4f240d8cadccee8d60531b6044820152606490fd5b6103e8915011158b6112d4565b60405162461bcd60e51b815260206004820152601860248201527f496e73756666696369656e74205846492062616c616e636500000000000000006044820152606490fd5b60405162461bcd60e51b815260206004820152601760248201527f496e76616c6964206d696c6573746f6e6520636f756e740000000000000000006044820152606490fd5b600a915011158861129a565b60405162461bcd60e51b815260206004820152601960248201527f4d696c6573746f6e6520617272617973206d69736d61746368000000000000006044820152606490fd5b60405162461bcd60e51b8152602060048201526015602482015274125b9d985b1a59081d9bdd1a5b99c81c195c9a5bd9605a1b6044820152606490fd5b62127500915011158a611284565b60405162461bcd60e51b815260206004820152600e60248201526d125b9d985b1a5908185b5bdd5b9d60921b6044820152606490fd5b69d3c21bcecceda1000000915011158b611270565b60405162461bcd60e51b8152602060048201526014602482015273092dcecc2d8d2c840e8d2e8d8ca40d8cadccee8d60631b6044820152606490fd5b60c8915011158c611260565b60405162461bcd60e51b815260206004820152601960248201527f496e73756666696369656e742070726f706f73616c20666565000000000000006044820152606490fd5b813581526020918201910161121c565b83356001600160401b038111610f2c57602091611ce08392836004369288010101611ff7565b8152019301926111ad565b34610f2c576020366003190112610f2c5760043563ffffffff60e01b8116809103610f2c57602090637965db0b60e01b8114908115611d30575b506040519015158152f35b6301ffc9a760e01b14905082611d25565b34610f2c576020366003190112610f2c576004355f908152600560205260409020805460018201546001600160a01b031660a052611d8160028301611f26565b60e05281611d9160038201611f26565b91611d9e60048301611f26565b92600583015493600684015460ff1660078501546008860154600987015491600a88015493600b89015495600c8a015497600d8b015499600e8c01549b600f01611de790611f26565b9d6011015460805260405160c05260c0515260a05160c0516020015260c051604001610220905260c0516102200160e05190611e2291611fc6565b60c051810360c05160600152611e3791611fc6565b60c051810360c05160800152611e4c91611fc6565b9960c05160a0015260c05160c001611e6391611fea565b60c05160e0015260c051610100015260c051610120015260c051610140015260c051610160015260c051610180015260c0516101a0015260c0516101c0015260c051810360c0516101e00152611eb891611fc6565b60805160c051610200015260c051900360c051f35b90600182811c92168015611efb575b6020831014611ee757565b634e487b7160e01b5f52602260045260245ffd5b91607f1691611edc565b90601f801991011681019081106001600160401b0382111761170257604052565b9060405191825f825492611f3984611ecd565b8084529360018116908115611fa45750600114611f60575b50611f5e92500383611f05565b565b90505f9291925260205f20905f915b818310611f88575050906020611f5e928201015f611f51565b6020919350806001915483858901015201910190918492611f6f565b905060209250611f5e94915060ff191682840152151560051b8201015f611f51565b805180835260209291819084018484015e5f828201840152601f01601f1916010190565b90600782101561106f5752565b81601f82011215610f2c578035906001600160401b038211611702576040519261202b601f8401601f191660200185611f05565b82845260208383010111610f2c57815f926020809301838601378301015290565b6001600160401b0381116117025760051b60200190565b600435906001600160a01b0382168203610f2c57565b602435906001600160a01b0382168203610f2c57565b906040600319830112610f2c576004356001600160a01b0381168103610f2c5791602435906001600160401b038211610f2c5780602383011215610f2c5781600401356120db8161204c565b926120e96040519485611f05565b8184526024602085019260051b820101928311610f2c57602401905b8282106121125750505090565b8135815260209182019101612105565b90600382101561106f5752565b80518210156117165760209160051b010190565b1561214a57565b60405162461bcd60e51b815260206004820152600f60248201526e496e76616c6964206164647265737360881b6044820152606490fd5b905f5b81518110156121af5761219b8361056b838561212f565b6121a757600101612184565b505050600190565b5050505f90565b5f1981146121c45760010190565b634e487b7160e01b5f52601160045260245ffd5b6040516121e660e082611f05565b600681526020810160c0368237815115611716575f9052805160011015611716577fa49807205ce4d355092ef5a8a18f56e8913cf4a201fbe287825b095693c217756040820152805160021015611716577f482648e7878e9fa54c0a2f67ffd22d00ebc37cf7a03e060e428d2ab0cd6735cc6060820152805160031015611716577fede9dcdb0ce99dc7cec9c7be9246ad08b37853683ad91569c187b647ddf5e21c6080820152805160041015611716577f58223cdfb69946630d837d40b5c366a584f0217ada7fddd8318f2e08603cfa2260a0820152805160051015611716577f7b8bb8356a3f32f5c111ff23f050d97f08988e0883529ea7bff3b918887a6e0e60c082015290565b156122f757565b60405162461bcd60e51b815260206004820152600a6024820152694e6f7420766f74696e6760b01b6044820152606490fd5b335f9081527f7d7ffb7a348e1c6a02869081a26547b49160dd3df72d1d75a570eb9b698292ec602052604090205460ff161561236157565b63e2517d3f60e01b5f52336004527fa49807205ce4d355092ef5a8a18f56e8913cf4a201fbe287825b095693c2177560245260445ffd5b335f9081527fad3228b676f7d3cd4284a5443f17f1962b36e491b30a40b2405849e597ba5fb5602052604090205460ff16156123d057565b63e2517d3f60e01b5f52336004525f60245260445ffd5b5f8181526020818152604080832033845290915290205460ff16156124095750565b63e2517d3f60e01b5f523360045260245260445ffd5b5f818152602081815260408083206001600160a01b038616845290915290205460ff166124a1575f818152602081815260408083206001600160a01b0395909516808452949091528120805460ff19166001179055339291907f2f8788117e7eff1d82e926ec794901d17c78024a50270940304540a733656f0d9080a4600190565b50505f90565b5f818152602081815260408083206001600160a01b038616845290915290205460ff16156124a1575f818152602081815260408083206001600160a01b0395909516808452949091528120805460ff19169055339291907ff6391f5c32d9c69d2a47ea670b442974b53935d1edc7fd64eb21e047a839171b9080a4600190565b919082018092116121c45756fea264697066735822122026b431b828a1feefa7c0217c0469dd90007f76aa475f29d338cdb7a925945af664736f6c634300081a00332f8788117e7eff1d82e926ec794901d17c78024a50270940304540a733656f0d7d7ffb7a348e1c6a02869081a26547b49160dd3df72d1d75a570eb9b698292ecad3228b676f7d3cd4284a5443f17f1962b36e491b30a40b2405849e597ba5fb5",
			"opcodes": "PUSH1 0x80 CALLVALUE PUSH2 0x168 JUMPI PUSH1 0x1F PUSH2 0x2868 CODESIZE DUP2 SWAP1 SUB SWAP2 DUP3 ADD PUSH1 0x1F NOT AND DUP4 ADD SWAP2 PUSH1 0x1 PUSH1 0x1 PUSH1 0x40 SHL SUB DUP4 GT DUP5 DUP5 LT OR PUSH2 0x16C JUMPI DUP1 DUP5 SWAP3 PUSH1 0x40 SWAP5 DUP6 MSTORE DUP4 CODECOPY DUP2 ADD SUB SLT PUSH2 0x168 JUMPI PUSH2 0x52 PUSH1 0x20 PUSH2 0x4B DUP4 PUSH2 0x180 JUMP JUMPDEST SWAP3 ADD PUSH2 0x180 JUMP JUMPDEST PUSH2 0x5B CALLER PUSH2 0x194 JUMP JUMPDEST POP PUSH1 0x1 DUP1 SSTORE PUSH1 0x2 SLOAD SWAP1 PUSH1 0x1 PUSH1 0x1 PUSH1 0xA0 SHL SUB DUP4 AND ISZERO PUSH2 0x123 JUMPI PUSH1 0x1 PUSH1 0x1 PUSH1 0xA0 SHL SUB AND SWAP2 DUP3 ISZERO PUSH2 0xDE JUMPI PUSH1 0x1 PUSH1 0x1 PUSH1 0xA8 SHL SUB NOT SWAP1 SWAP2 AND PUSH1 0x8 SWAP2 SWAP1 SWAP2 SHL PUSH2 0x100 PUSH1 0x1 PUSH1 0xA8 SHL SUB AND OR PUSH1 0x2 SSTORE PUSH1 0x3 DUP1 SLOAD PUSH1 0x1 PUSH1 0x1 PUSH1 0xA0 SHL SUB NOT AND SWAP2 SWAP1 SWAP2 OR SWAP1 SSTORE PUSH0 PUSH1 0x4 SSTORE PUSH2 0xC4 CALLER PUSH2 0x194 JUMP JUMPDEST POP PUSH2 0xCE CALLER PUSH2 0x20A JUMP JUMPDEST POP PUSH1 0x40 MLOAD PUSH2 0x256A SWAP1 DUP2 PUSH2 0x29E DUP3 CODECOPY RETURN JUMPDEST PUSH1 0x40 MLOAD PUSH3 0x461BCD PUSH1 0xE5 SHL DUP2 MSTORE PUSH1 0x20 PUSH1 0x4 DUP3 ADD MSTORE PUSH1 0x17 PUSH1 0x24 DUP3 ADD MSTORE PUSH32 0x496E76616C696420747265617375727920657363726F77000000000000000000 PUSH1 0x44 DUP3 ADD MSTORE PUSH1 0x64 SWAP1 REVERT JUMPDEST PUSH1 0x40 MLOAD PUSH3 0x461BCD PUSH1 0xE5 SHL DUP2 MSTORE PUSH1 0x20 PUSH1 0x4 DUP3 ADD MSTORE PUSH1 0x13 PUSH1 0x24 DUP3 ADD MSTORE PUSH32 0x496E76616C696420414920726567697374727900000000000000000000000000 PUSH1 0x44 DUP3 ADD MSTORE PUSH1 0x64 SWAP1 REVERT JUMPDEST PUSH0 DUP1 REVERT JUMPDEST PUSH4 0x4E487B71 PUSH1 0xE0 SHL PUSH0 MSTORE PUSH1 0x41 PUSH1 0x4 MSTORE PUSH1 0x24 PUSH0 REVERT JUMPDEST MLOAD SWAP1 PUSH1 0x1 PUSH1 0x1 PUSH1 0xA0 SHL SUB DUP3 AND DUP3 SUB PUSH2 0x168 JUMPI JUMP JUMPDEST PUSH1 0x1 PUSH1 0x1 PUSH1 0xA0 SHL SUB DUP2 AND PUSH0 SWAP1 DUP2 MSTORE PUSH0 DUP1 MLOAD PUSH1 0x20 PUSH2 0x2848 DUP4 CODECOPY DUP2 MLOAD SWAP2 MSTORE PUSH1 0x20 MSTORE PUSH1 0x40 SWAP1 KECCAK256 SLOAD PUSH1 0xFF AND PUSH2 0x205 JUMPI PUSH1 0x1 PUSH1 0x1 PUSH1 0xA0 SHL SUB AND PUSH0 DUP2 DUP2 MSTORE PUSH0 DUP1 MLOAD PUSH1 0x20 PUSH2 0x2848 DUP4 CODECOPY DUP2 MLOAD SWAP2 MSTORE PUSH1 0x20 MSTORE PUSH1 0x40 DUP2 KECCAK256 DUP1 SLOAD PUSH1 0xFF NOT AND PUSH1 0x1 OR SWAP1 SSTORE CALLER SWAP2 SWAP1 PUSH0 DUP1 MLOAD PUSH1 0x20 PUSH2 0x2808 DUP4 CODECOPY DUP2 MLOAD SWAP2 MSTORE DUP2 DUP1 LOG4 PUSH1 0x1 SWAP1 JUMP JUMPDEST POP PUSH0 SWAP1 JUMP JUMPDEST PUSH1 0x1 PUSH1 0x1 PUSH1 0xA0 SHL SUB DUP2 AND PUSH0 SWAP1 DUP2 MSTORE PUSH0 DUP1 MLOAD PUSH1 0x20 PUSH2 0x2828 DUP4 CODECOPY DUP2 MLOAD SWAP2 MSTORE PUSH1 0x20 MSTORE PUSH1 0x40 SWAP1 KECCAK256 SLOAD PUSH1 0xFF AND PUSH2 0x205 JUMPI PUSH1 0x1 PUSH1 0x1 PUSH1 0xA0 SHL SUB AND PUSH0 DUP2 DUP2 MSTORE PUSH0 DUP1 MLOAD PUSH1 0x20 PUSH2 0x2828 DUP4 CODECOPY DUP2 MLOAD SWAP2 MSTORE PUSH1 0x20 MSTORE PUSH1 0x40 DUP2 KECCAK256 DUP1 SLOAD PUSH1 0xFF NOT AND PUSH1 0x1 OR SWAP1 SSTORE CALLER SWAP2 SWAP1 PUSH32 0xA49807205CE4D355092EF5A8A18F56E8913CF4A201FBE287825B095693C21775 SWAP1 PUSH0 DUP1 MLOAD PUSH1 0x20 PUSH2 0x2808 DUP4 CODECOPY DUP2 MLOAD SWAP2 MSTORE SWAP1 DUP1 LOG4 PUSH1 0x1 SWAP1 JUMP INVALID PUSH2 0x100 PUSH1 0x40 MSTORE PUSH1 0x4 CALLDATASIZE LT ISZERO PUSH2 0x12 JUMPI PUSH0 DUP1 REVERT JUMPDEST PUSH0 DUP1 CALLDATALOAD PUSH1 0xE0 SHR DUP1 PUSH4 0x13CF08B EQ PUSH2 0x1D41 JUMPI DUP1 PUSH4 0x1FFC9A7 EQ PUSH2 0x1CEB JUMPI DUP1 PUSH4 0x8D256AF EQ PUSH2 0x1083 JUMPI DUP1 PUSH4 0xD61B519 EQ PUSH2 0xD7E JUMPI DUP1 PUSH4 0x1D9DFD4E EQ PUSH2 0xD55 JUMPI DUP1 PUSH4 0x215809CA EQ PUSH2 0xD37 JUMPI DUP1 PUSH4 0x248A9CA3 EQ PUSH2 0xD04 JUMPI DUP1 PUSH4 0x2D142B76 EQ PUSH2 0xCCB JUMPI DUP1 PUSH4 0x2D75AE0E EQ PUSH2 0xCA6 JUMPI DUP1 PUSH4 0x2F2FF15D EQ PUSH2 0xC6D JUMPI DUP1 PUSH4 0x36568ABE EQ PUSH2 0xC28 JUMPI DUP1 PUSH4 0x39C854FA EQ PUSH2 0xC0C JUMPI DUP1 PUSH4 0x3AB34290 EQ PUSH2 0xBF0 JUMPI DUP1 PUSH4 0x3F4BA83A EQ PUSH2 0xB5B JUMPI DUP1 PUSH4 0x43859632 EQ PUSH2 0xB11 JUMPI DUP1 PUSH4 0x4C05ABEB EQ PUSH2 0xAF5 JUMPI DUP1 PUSH4 0x4FE9D1F5 EQ PUSH2 0xA9F JUMPI DUP1 PUSH4 0x56781388 EQ PUSH2 0x93E JUMPI DUP1 PUSH4 0x5C975ABB EQ PUSH2 0x91B JUMPI DUP1 PUSH4 0x6807FC21 EQ PUSH2 0x891 JUMPI DUP1 PUSH4 0x68CA78F9 EQ PUSH2 0x86D JUMPI DUP1 PUSH4 0x75B238FC EQ PUSH2 0x832 JUMPI DUP1 PUSH4 0x791F5D23 EQ PUSH2 0x80E JUMPI DUP1 PUSH4 0x8456CB59 EQ PUSH2 0x77A JUMPI DUP1 PUSH4 0x91B9F9D8 EQ PUSH2 0x71B JUMPI DUP1 PUSH4 0x91D14854 EQ PUSH2 0x6D2 JUMPI DUP1 PUSH4 0x96479E19 EQ PUSH2 0x6A5 JUMPI DUP1 PUSH4 0xA02D72FB EQ PUSH2 0x66A JUMPI DUP1 PUSH4 0xA217FDDF EQ PUSH2 0x64E JUMPI DUP1 PUSH4 0xA64E024A EQ PUSH2 0x630 JUMPI DUP1 PUSH4 0xABD98FB0 EQ PUSH2 0x5BB JUMPI DUP1 PUSH4 0xACA5A8A7 EQ PUSH2 0x52F JUMPI DUP1 PUSH4 0xBB4D4436 EQ PUSH2 0x50A JUMPI DUP1 PUSH4 0xBFE42A37 EQ PUSH2 0x4CF JUMPI DUP1 PUSH4 0xC601F7AF EQ PUSH2 0x494 JUMPI DUP1 PUSH4 0xC7F758A8 EQ PUSH2 0x354 JUMPI DUP1 PUSH4 0xD547741F EQ PUSH2 0x30D JUMPI DUP1 PUSH4 0xDB994B4F EQ PUSH2 0x2BE JUMPI DUP1 PUSH4 0xEBDF690F EQ PUSH2 0x283 JUMPI DUP1 PUSH4 0xEE8A7C15 EQ PUSH2 0x267 JUMPI DUP1 PUSH4 0xF2BCAC3D EQ PUSH2 0x209 JUMPI PUSH4 0xFE10226D EQ PUSH2 0x1E9 JUMPI PUSH0 DUP1 REVERT JUMPDEST CALLVALUE PUSH2 0x206 JUMPI DUP1 PUSH1 0x3 NOT CALLDATASIZE ADD SLT PUSH2 0x206 JUMPI PUSH1 0x20 PUSH1 0x4 SLOAD PUSH1 0x40 MLOAD SWAP1 DUP2 MSTORE RETURN JUMPDEST DUP1 REVERT JUMPDEST POP CALLVALUE PUSH2 0x206 JUMPI DUP1 PUSH1 0x3 NOT CALLDATASIZE ADD SLT PUSH2 0x206 JUMPI PUSH2 0x222 PUSH2 0x21D8 JUMP JUMPDEST SWAP1 PUSH1 0x40 MLOAD SWAP2 DUP3 SWAP2 PUSH1 0x20 DUP4 ADD PUSH1 0x20 DUP5 MSTORE DUP3 MLOAD DUP1 SWAP2 MSTORE PUSH1 0x20 PUSH1 0x40 DUP6 ADD SWAP4 ADD SWAP2 JUMPDEST DUP2 DUP2 LT PUSH2 0x24E JUMPI POP POP POP SUB SWAP1 RETURN JUMPDEST DUP3 MLOAD DUP5 MSTORE DUP6 SWAP5 POP PUSH1 0x20 SWAP4 DUP5 ADD SWAP4 SWAP1 SWAP3 ADD SWAP2 PUSH1 0x1 ADD PUSH2 0x240 JUMP JUMPDEST POP CALLVALUE PUSH2 0x206 JUMPI DUP1 PUSH1 0x3 NOT CALLDATASIZE ADD SLT PUSH2 0x206 JUMPI PUSH1 0x20 PUSH1 0x40 MLOAD PUSH1 0xF DUP2 MSTORE RETURN JUMPDEST POP CALLVALUE PUSH2 0x206 JUMPI DUP1 PUSH1 0x3 NOT CALLDATASIZE ADD SLT PUSH2 0x206 JUMPI PUSH1 0x20 PUSH1 0x40 MLOAD PUSH32 0xEDE9DCDB0CE99DC7CEC9C7BE9246AD08B37853683AD91569C187B647DDF5E21C DUP2 MSTORE RETURN JUMPDEST POP CALLVALUE PUSH2 0x206 JUMPI PUSH1 0x40 CALLDATASIZE PUSH1 0x3 NOT ADD SLT PUSH2 0x206 JUMPI PUSH1 0x40 PUSH2 0x2DA PUSH2 0x2079 JUMP JUMPDEST SWAP2 PUSH1 0x4 CALLDATALOAD DUP2 MSTORE PUSH1 0x7 PUSH1 0x20 MSTORE KECCAK256 SWAP1 PUSH1 0x1 DUP1 PUSH1 0xA0 SHL SUB AND PUSH0 MSTORE PUSH1 0x20 MSTORE PUSH1 0x20 PUSH1 0xFF PUSH1 0x40 PUSH0 KECCAK256 SLOAD AND PUSH2 0x30B PUSH1 0x40 MLOAD DUP1 SWAP3 PUSH2 0x2122 JUMP JUMPDEST RETURN JUMPDEST POP CALLVALUE PUSH2 0x206 JUMPI PUSH1 0x40 CALLDATASIZE PUSH1 0x3 NOT ADD SLT PUSH2 0x206 JUMPI PUSH2 0x350 PUSH1 0x4 CALLDATALOAD PUSH2 0x32D PUSH2 0x2079 JUMP JUMPDEST SWAP1 PUSH2 0x34B PUSH2 0x346 DUP3 PUSH0 MSTORE PUSH0 PUSH1 0x20 MSTORE PUSH1 0x1 PUSH1 0x40 PUSH0 KECCAK256 ADD SLOAD SWAP1 JUMP JUMPDEST PUSH2 0x23E7 JUMP JUMPDEST PUSH2 0x24A7 JUMP JUMPDEST POP DUP1 RETURN JUMPDEST POP CALLVALUE PUSH2 0x206 JUMPI PUSH1 0x20 CALLDATASIZE PUSH1 0x3 NOT ADD SLT PUSH2 0x206 JUMPI PUSH1 0x4 CALLDATALOAD DUP1 ISZERO ISZERO DUP1 PUSH2 0x488 JUMPI JUMPDEST ISZERO PUSH2 0x44D JUMPI DUP2 MSTORE PUSH1 0x5 PUSH1 0x20 MSTORE PUSH1 0x40 SWAP1 KECCAK256 DUP1 SLOAD PUSH1 0x1 PUSH1 0xA0 SHL PUSH1 0x1 SWAP1 SUB PUSH1 0x1 DUP4 ADD SLOAD AND SWAP2 PUSH1 0x5 DUP2 ADD SLOAD SWAP1 PUSH1 0x6 DUP2 ADD SLOAD PUSH1 0xFF AND PUSH1 0xE DUP3 ADD SLOAD PUSH1 0x9 DUP4 ADD SLOAD PUSH1 0xA DUP5 ADD SLOAD SWAP1 PUSH1 0xB DUP6 ADD SLOAD SWAP3 PUSH1 0xC DUP7 ADD SLOAD SWAP5 PUSH1 0xD DUP8 ADD SLOAD SWAP7 PUSH1 0x2 DUP2 ADD PUSH2 0x3D1 SWAP1 PUSH2 0x1F26 JUMP JUMPDEST SWAP1 PUSH1 0x3 ADD PUSH2 0x3DE SWAP1 PUSH2 0x1F26 JUMP JUMPDEST SWAP1 PUSH1 0x40 MLOAD SWAP12 DUP13 SWAP12 DUP13 MSTORE PUSH1 0x20 DUP13 ADD MSTORE PUSH1 0x40 DUP12 ADD PUSH2 0x180 SWAP1 MSTORE PUSH2 0x180 DUP12 ADD PUSH2 0x403 SWAP2 PUSH2 0x1FC6 JUMP JUMPDEST DUP11 DUP2 SUB PUSH1 0x60 DUP13 ADD MSTORE PUSH2 0x414 SWAP2 PUSH2 0x1FC6 JUMP JUMPDEST SWAP8 PUSH1 0x80 DUP11 ADD MSTORE PUSH1 0xA0 DUP10 ADD PUSH2 0x427 SWAP2 PUSH2 0x1FEA JUMP JUMPDEST PUSH1 0xC0 DUP9 ADD MSTORE PUSH1 0xE0 DUP8 ADD MSTORE PUSH2 0x100 DUP7 ADD MSTORE PUSH2 0x120 DUP6 ADD MSTORE PUSH2 0x140 DUP5 ADD MSTORE PUSH2 0x160 DUP4 ADD MSTORE SUB SWAP1 RETURN JUMPDEST PUSH1 0x40 MLOAD PUSH3 0x461BCD PUSH1 0xE5 SHL DUP2 MSTORE PUSH1 0x20 PUSH1 0x4 DUP3 ADD MSTORE PUSH1 0x13 PUSH1 0x24 DUP3 ADD MSTORE PUSH19 0x125B9D985B1A59081C1C9BDC1BDCD85B081251 PUSH1 0x6A SHL PUSH1 0x44 DUP3 ADD MSTORE PUSH1 0x64 SWAP1 REVERT JUMPDEST POP PUSH1 0x4 SLOAD DUP2 GT ISZERO PUSH2 0x372 JUMP JUMPDEST POP CALLVALUE PUSH2 0x206 JUMPI DUP1 PUSH1 0x3 NOT CALLDATASIZE ADD SLT PUSH2 0x206 JUMPI PUSH1 0x20 PUSH1 0x40 MLOAD PUSH32 0x482648E7878E9FA54C0A2F67FFD22D00EBC37CF7A03E060E428D2AB0CD6735CC DUP2 MSTORE RETURN JUMPDEST POP CALLVALUE PUSH2 0x206 JUMPI DUP1 PUSH1 0x3 NOT CALLDATASIZE ADD SLT PUSH2 0x206 JUMPI PUSH1 0x20 PUSH1 0x40 MLOAD PUSH32 0x7B8BB8356A3F32F5C111FF23F050D97F08988E0883529EA7BFF3B918887A6E0E DUP2 MSTORE RETURN JUMPDEST POP CALLVALUE PUSH2 0x206 JUMPI PUSH1 0x20 CALLDATASIZE PUSH1 0x3 NOT ADD SLT PUSH2 0x206 JUMPI PUSH1 0x20 PUSH2 0x526 PUSH2 0x2063 JUMP JUMPDEST BALANCE PUSH1 0x40 MLOAD SWAP1 DUP2 MSTORE RETURN JUMPDEST POP CALLVALUE PUSH2 0x206 JUMPI PUSH1 0x20 CALLDATASIZE PUSH1 0x3 NOT ADD SLT PUSH2 0x206 JUMPI PUSH2 0x549 PUSH2 0x2063 JUMP JUMPDEST PUSH2 0x551 PUSH2 0x21D8 JUMP JUMPDEST SWAP1 DUP3 JUMPDEST DUP3 MLOAD DUP2 LT ISZERO PUSH2 0x5B0 JUMPI PUSH2 0x58F DUP3 PUSH2 0x56B DUP4 DUP7 PUSH2 0x212F JUMP JUMPDEST MLOAD PUSH0 MSTORE PUSH0 PUSH1 0x20 MSTORE PUSH1 0x40 PUSH0 KECCAK256 SWAP1 PUSH1 0x1 DUP1 PUSH1 0xA0 SHL SUB AND PUSH0 MSTORE PUSH1 0x20 MSTORE PUSH1 0xFF PUSH1 0x40 PUSH0 KECCAK256 SLOAD AND SWAP1 JUMP JUMPDEST PUSH2 0x59C JUMPI JUMPDEST PUSH1 0x1 ADD PUSH2 0x554 JUMP JUMPDEST SWAP3 PUSH2 0x5A8 PUSH1 0x1 SWAP2 PUSH2 0x21B6 JUMP JUMPDEST SWAP4 SWAP1 POP PUSH2 0x594 JUMP JUMPDEST PUSH1 0x20 DUP5 PUSH1 0x40 MLOAD SWAP1 DUP2 MSTORE RETURN JUMPDEST POP CALLVALUE PUSH2 0x206 JUMPI PUSH1 0x20 CALLDATASIZE PUSH1 0x3 NOT ADD SLT PUSH2 0x206 JUMPI PUSH32 0xB0375A2EBCFDC355DAF31C17062233E587A73C013FDE410D569CF8167B1D4098 PUSH1 0x20 PUSH2 0x5F8 PUSH2 0x2063 JUMP JUMPDEST PUSH2 0x600 PUSH2 0x2329 JUMP JUMPDEST PUSH1 0x1 PUSH1 0x1 PUSH1 0xA0 SHL SUB AND PUSH2 0x614 DUP2 ISZERO ISZERO PUSH2 0x2143 JUMP JUMPDEST PUSH1 0x3 DUP1 SLOAD PUSH1 0x1 PUSH1 0x1 PUSH1 0xA0 SHL SUB NOT AND DUP3 OR SWAP1 SSTORE PUSH1 0x40 MLOAD SWAP1 DUP2 MSTORE LOG1 DUP1 RETURN JUMPDEST POP CALLVALUE PUSH2 0x206 JUMPI DUP1 PUSH1 0x3 NOT CALLDATASIZE ADD SLT PUSH2 0x206 JUMPI PUSH1 0x20 PUSH1 0x40 MLOAD PUSH3 0x127500 DUP2 MSTORE RETURN JUMPDEST POP CALLVALUE PUSH2 0x206 JUMPI DUP1 PUSH1 0x3 NOT CALLDATASIZE ADD SLT PUSH2 0x206 JUMPI PUSH1 0x20 SWAP1 PUSH1 0x40 MLOAD SWAP1 DUP2 MSTORE RETURN JUMPDEST POP CALLVALUE PUSH2 0x206 JUMPI DUP1 PUSH1 0x3 NOT CALLDATASIZE ADD SLT PUSH2 0x206 JUMPI PUSH1 0x20 PUSH1 0x40 MLOAD PUSH32 0x58223CDFB69946630D837D40B5C366A584F0217ADA7FDDD8318F2E08603CFA22 DUP2 MSTORE RETURN JUMPDEST POP CALLVALUE PUSH2 0x206 JUMPI DUP1 PUSH1 0x3 NOT CALLDATASIZE ADD SLT PUSH2 0x206 JUMPI PUSH1 0x2 SLOAD PUSH1 0x40 MLOAD PUSH1 0x8 SWAP2 SWAP1 SWAP2 SHR PUSH1 0x1 PUSH1 0x1 PUSH1 0xA0 SHL SUB AND DUP2 MSTORE PUSH1 0x20 SWAP1 RETURN JUMPDEST POP CALLVALUE PUSH2 0x206 JUMPI PUSH1 0x40 CALLDATASIZE PUSH1 0x3 NOT ADD SLT PUSH2 0x206 JUMPI PUSH1 0x40 PUSH2 0x6EE PUSH2 0x2079 JUMP JUMPDEST SWAP2 PUSH1 0x4 CALLDATALOAD DUP2 MSTORE DUP1 PUSH1 0x20 MSTORE KECCAK256 SWAP1 PUSH1 0x1 DUP1 PUSH1 0xA0 SHL SUB AND PUSH0 MSTORE PUSH1 0x20 MSTORE PUSH1 0x20 PUSH1 0xFF PUSH1 0x40 PUSH0 KECCAK256 SLOAD AND PUSH1 0x40 MLOAD SWAP1 ISZERO ISZERO DUP2 MSTORE RETURN JUMPDEST POP CALLVALUE PUSH2 0x206 JUMPI PUSH2 0x72A CALLDATASIZE PUSH2 0x208F JUMP JUMPDEST PUSH2 0x735 SWAP3 SWAP2 SWAP3 PUSH2 0x2398 JUMP JUMPDEST DUP2 JUMPDEST DUP2 MLOAD DUP2 LT ISZERO PUSH2 0x776 JUMPI DUP1 PUSH2 0x76F DUP6 PUSH2 0x751 PUSH1 0x1 SWAP5 DUP7 PUSH2 0x212F JUMP JUMPDEST MLOAD PUSH2 0x76A PUSH2 0x346 DUP3 PUSH0 MSTORE PUSH0 PUSH1 0x20 MSTORE PUSH1 0x1 PUSH1 0x40 PUSH0 KECCAK256 ADD SLOAD SWAP1 JUMP JUMPDEST PUSH2 0x241F JUMP JUMPDEST POP ADD PUSH2 0x737 JUMP JUMPDEST DUP3 DUP1 RETURN JUMPDEST POP CALLVALUE PUSH2 0x206 JUMPI DUP1 PUSH1 0x3 NOT CALLDATASIZE ADD SLT PUSH2 0x206 JUMPI PUSH2 0x793 PUSH2 0x2329 JUMP JUMPDEST PUSH1 0x2 SLOAD PUSH1 0xFF DUP2 AND PUSH2 0x7D6 JUMPI PUSH1 0x1 SWAP1 PUSH1 0xFF NOT AND OR PUSH1 0x2 SSTORE PUSH32 0x62E78CEA01BEE320CD4E420270B5EA74000D11B0C9F74754EBDBFC544B05A258 PUSH1 0x20 PUSH1 0x40 MLOAD CALLER DUP2 MSTORE LOG1 DUP1 RETURN JUMPDEST PUSH1 0x40 MLOAD PUSH3 0x461BCD PUSH1 0xE5 SHL DUP2 MSTORE PUSH1 0x20 PUSH1 0x4 DUP3 ADD MSTORE PUSH1 0x10 PUSH1 0x24 DUP3 ADD MSTORE PUSH16 0x14185D5CD8589B194E881C185D5CD959 PUSH1 0x82 SHL PUSH1 0x44 DUP3 ADD MSTORE PUSH1 0x64 SWAP1 REVERT JUMPDEST POP CALLVALUE PUSH2 0x206 JUMPI DUP1 PUSH1 0x3 NOT CALLDATASIZE ADD SLT PUSH2 0x206 JUMPI PUSH1 0x20 PUSH1 0x40 MLOAD PUSH9 0x3635C9ADC5DEA00000 DUP2 MSTORE RETURN JUMPDEST POP CALLVALUE PUSH2 0x206 JUMPI DUP1 PUSH1 0x3 NOT CALLDATASIZE ADD SLT PUSH2 0x206 JUMPI PUSH1 0x20 PUSH1 0x40 MLOAD PUSH32 0xA49807205CE4D355092EF5A8A18F56E8913CF4A201FBE287825B095693C21775 DUP2 MSTORE RETURN JUMPDEST POP CALLVALUE PUSH2 0x206 JUMPI PUSH1 0x20 PUSH2 0x887 PUSH2 0x881 CALLDATASIZE PUSH2 0x208F JUMP JUMPDEST SWAP1 PUSH2 0x2181 JUMP JUMPDEST PUSH1 0x40 MLOAD SWAP1 ISZERO ISZERO DUP2 MSTORE RETURN JUMPDEST POP CALLVALUE PUSH2 0x206 JUMPI PUSH1 0x20 CALLDATASIZE PUSH1 0x3 NOT ADD SLT PUSH2 0x206 JUMPI PUSH32 0x12CB47B190A758ACBE916B2A7C5A734B023CE60F4D93EC2B3159160163C9291A PUSH1 0x20 PUSH2 0x8CE PUSH2 0x2063 JUMP JUMPDEST PUSH2 0x8D6 PUSH2 0x2329 JUMP JUMPDEST PUSH1 0x1 PUSH1 0x1 PUSH1 0xA0 SHL SUB DUP2 AND SWAP1 PUSH2 0x8EC DUP3 ISZERO ISZERO PUSH2 0x2143 JUMP JUMPDEST PUSH1 0x2 DUP1 SLOAD PUSH2 0x100 PUSH1 0x1 PUSH1 0xA8 SHL SUB NOT AND PUSH1 0x8 SWAP3 SWAP1 SWAP3 SHL PUSH2 0x100 PUSH1 0x1 PUSH1 0xA8 SHL SUB AND SWAP2 SWAP1 SWAP2 OR SWAP1 SSTORE PUSH1 0x40 MLOAD SWAP1 DUP2 MSTORE LOG1 DUP1 RETURN JUMPDEST POP CALLVALUE PUSH2 0x206 JUMPI DUP1 PUSH1 0x3 NOT CALLDATASIZE ADD SLT PUSH2 0x206 JUMPI PUSH1 0x20 PUSH1 0xFF PUSH1 0x2 SLOAD AND PUSH1 0x40 MLOAD SWAP1 ISZERO ISZERO DUP2 MSTORE RETURN JUMPDEST POP CALLVALUE PUSH2 0x206 JUMPI PUSH1 0x40 CALLDATASIZE PUSH1 0x3 NOT ADD SLT PUSH2 0x206 JUMPI PUSH1 0x24 CALLDATALOAD PUSH1 0x4 CALLDATALOAD PUSH1 0x3 DUP3 LT ISZERO PUSH2 0xA9B JUMPI DUP1 DUP4 MSTORE PUSH1 0x6 PUSH1 0x20 SWAP1 DUP2 MSTORE PUSH1 0x40 DUP1 DUP6 KECCAK256 CALLER PUSH0 SWAP1 DUP2 MSTORE SWAP3 MSTORE SWAP1 KECCAK256 SLOAD PUSH1 0xFF AND PUSH2 0xA66 JUMPI DUP1 DUP4 MSTORE PUSH1 0x5 PUSH1 0x20 MSTORE PUSH1 0x40 DUP4 KECCAK256 PUSH1 0xFF PUSH1 0x6 DUP3 ADD SLOAD AND PUSH1 0x7 DUP2 LT ISZERO PUSH2 0xA52 JUMPI PUSH1 0x1 PUSH2 0x9A8 SWAP2 EQ PUSH2 0x22F0 JUMP JUMPDEST CALLER BALANCE SWAP1 DUP3 DUP6 MSTORE PUSH1 0x6 PUSH1 0x20 MSTORE PUSH1 0x40 DUP6 KECCAK256 PUSH1 0x1 DUP1 PUSH1 0xA0 SHL SUB CALLER AND PUSH0 MSTORE PUSH1 0x20 MSTORE PUSH1 0x40 PUSH0 KECCAK256 PUSH1 0x1 PUSH1 0xFF NOT DUP3 SLOAD AND OR SWAP1 SSTORE PUSH1 0x1 DUP5 EQ PUSH0 EQ PUSH2 0xA2A JUMPI PUSH1 0xB ADD PUSH2 0x9EC DUP3 DUP3 SLOAD PUSH2 0x2527 JUMP JUMPDEST SWAP1 SSTORE JUMPDEST PUSH2 0x9FC PUSH1 0x40 MLOAD DUP1 SWAP5 PUSH2 0x2122 JUMP JUMPDEST PUSH1 0x20 DUP4 ADD MSTORE PUSH32 0xB83D25C6A5D258561330739951487ACB4BD09BA5190B5D32C4F261817D906792 PUSH1 0x40 CALLER SWAP4 LOG3 DUP1 RETURN JUMPDEST DUP4 PUSH2 0xA44 JUMPI PUSH1 0xC ADD PUSH2 0xA3D DUP3 DUP3 SLOAD PUSH2 0x2527 JUMP JUMPDEST SWAP1 SSTORE PUSH2 0x9EF JUMP JUMPDEST PUSH1 0xD ADD PUSH2 0xA3D DUP3 DUP3 SLOAD PUSH2 0x2527 JUMP JUMPDEST PUSH4 0x4E487B71 PUSH1 0xE0 SHL DUP6 MSTORE PUSH1 0x21 PUSH1 0x4 MSTORE PUSH1 0x24 DUP6 REVERT JUMPDEST PUSH1 0x40 MLOAD PUSH3 0x461BCD PUSH1 0xE5 SHL DUP2 MSTORE PUSH1 0x20 PUSH1 0x4 DUP3 ADD MSTORE PUSH1 0xD PUSH1 0x24 DUP3 ADD MSTORE PUSH13 0x105B1C9958591E481D9BDD1959 PUSH1 0x9A SHL PUSH1 0x44 DUP3 ADD MSTORE PUSH1 0x64 SWAP1 REVERT JUMPDEST DUP3 DUP1 REVERT JUMPDEST POP CALLVALUE PUSH2 0x206 JUMPI PUSH2 0xAAE CALLDATASIZE PUSH2 0x208F JUMP JUMPDEST PUSH2 0xAB9 SWAP3 SWAP2 SWAP3 PUSH2 0x2398 JUMP JUMPDEST DUP2 JUMPDEST DUP2 MLOAD DUP2 LT ISZERO PUSH2 0x776 JUMPI DUP1 PUSH2 0xAEE DUP6 PUSH2 0xAD5 PUSH1 0x1 SWAP5 DUP7 PUSH2 0x212F JUMP JUMPDEST MLOAD PUSH2 0x34B PUSH2 0x346 DUP3 PUSH0 MSTORE PUSH0 PUSH1 0x20 MSTORE PUSH1 0x1 PUSH1 0x40 PUSH0 KECCAK256 ADD SLOAD SWAP1 JUMP JUMPDEST POP ADD PUSH2 0xABB JUMP JUMPDEST POP CALLVALUE PUSH2 0x206 JUMPI DUP1 PUSH1 0x3 NOT CALLDATASIZE ADD SLT PUSH2 0x206 JUMPI PUSH1 0x20 PUSH1 0x40 MLOAD PUSH1 0xA DUP2 MSTORE RETURN JUMPDEST POP CALLVALUE PUSH2 0x206 JUMPI PUSH1 0x40 CALLDATASIZE PUSH1 0x3 NOT ADD SLT PUSH2 0x206 JUMPI PUSH1 0x40 PUSH2 0xB2D PUSH2 0x2079 JUMP JUMPDEST SWAP2 PUSH1 0x4 CALLDATALOAD DUP2 MSTORE PUSH1 0x6 PUSH1 0x20 MSTORE KECCAK256 SWAP1 PUSH1 0x1 DUP1 PUSH1 0xA0 SHL SUB AND PUSH0 MSTORE PUSH1 0x20 MSTORE PUSH1 0x20 PUSH1 0xFF PUSH1 0x40 PUSH0 KECCAK256 SLOAD AND PUSH1 0x40 MLOAD SWAP1 ISZERO ISZERO DUP2 MSTORE RETURN JUMPDEST POP CALLVALUE PUSH2 0x206 JUMPI DUP1 PUSH1 0x3 NOT CALLDATASIZE ADD SLT PUSH2 0x206 JUMPI PUSH2 0xB74 PUSH2 0x2329 JUMP JUMPDEST PUSH1 0x2 SLOAD PUSH1 0xFF DUP2 AND ISZERO PUSH2 0xBB4 JUMPI PUSH1 0xFF NOT AND PUSH1 0x2 SSTORE PUSH32 0x5DB9EE0A495BF2E6FF9C91A7834C1BA4FDD244A5E8AA4E537BD38AEAE4B073AA PUSH1 0x20 PUSH1 0x40 MLOAD CALLER DUP2 MSTORE LOG1 DUP1 RETURN JUMPDEST PUSH1 0x40 MLOAD PUSH3 0x461BCD PUSH1 0xE5 SHL DUP2 MSTORE PUSH1 0x20 PUSH1 0x4 DUP3 ADD MSTORE PUSH1 0x14 PUSH1 0x24 DUP3 ADD MSTORE PUSH20 0x14185D5CD8589B194E881B9BDD081C185D5CD959 PUSH1 0x62 SHL PUSH1 0x44 DUP3 ADD MSTORE PUSH1 0x64 SWAP1 REVERT JUMPDEST POP CALLVALUE PUSH2 0x206 JUMPI DUP1 PUSH1 0x3 NOT CALLDATASIZE ADD SLT PUSH2 0x206 JUMPI PUSH1 0x20 PUSH1 0x40 MLOAD PUSH1 0x33 DUP2 MSTORE RETURN JUMPDEST POP CALLVALUE PUSH2 0x206 JUMPI DUP1 PUSH1 0x3 NOT CALLDATASIZE ADD SLT PUSH2 0x206 JUMPI PUSH1 0x20 PUSH1 0x40 MLOAD PUSH1 0x46 DUP2 MSTORE RETURN JUMPDEST POP CALLVALUE PUSH2 0x206 JUMPI PUSH1 0x40 CALLDATASIZE PUSH1 0x3 NOT ADD SLT PUSH2 0x206 JUMPI PUSH2 0xC42 PUSH2 0x2079 JUMP JUMPDEST CALLER PUSH1 0x1 PUSH1 0x1 PUSH1 0xA0 SHL SUB DUP3 AND SUB PUSH2 0xC5E JUMPI PUSH2 0x350 SWAP1 PUSH1 0x4 CALLDATALOAD PUSH2 0x24A7 JUMP JUMPDEST PUSH4 0x334BD919 PUSH1 0xE1 SHL DUP3 MSTORE PUSH1 0x4 DUP3 REVERT JUMPDEST POP CALLVALUE PUSH2 0x206 JUMPI PUSH1 0x40 CALLDATASIZE PUSH1 0x3 NOT ADD SLT PUSH2 0x206 JUMPI PUSH2 0x350 PUSH1 0x4 CALLDATALOAD PUSH2 0xC8D PUSH2 0x2079 JUMP JUMPDEST SWAP1 PUSH2 0x76A PUSH2 0x346 DUP3 PUSH0 MSTORE PUSH0 PUSH1 0x20 MSTORE PUSH1 0x1 PUSH1 0x40 PUSH0 KECCAK256 ADD SLOAD SWAP1 JUMP JUMPDEST POP CALLVALUE PUSH2 0x206 JUMPI DUP1 PUSH1 0x3 NOT CALLDATASIZE ADD SLT PUSH2 0x206 JUMPI PUSH1 0x20 PUSH1 0x40 MLOAD PUSH10 0xD3C21BCECCEDA1000000 DUP2 MSTORE RETURN JUMPDEST POP CALLVALUE PUSH2 0x206 JUMPI PUSH1 0x20 CALLDATASIZE PUSH1 0x3 NOT ADD SLT PUSH2 0x206 JUMPI PUSH1 0x20 SWAP1 PUSH1 0x40 SWAP1 PUSH1 0x1 PUSH1 0x1 PUSH1 0xA0 SHL SUB PUSH2 0xCF3 PUSH2 0x2063 JUMP JUMPDEST AND DUP2 MSTORE PUSH1 0x8 DUP4 MSTORE KECCAK256 SLOAD PUSH1 0x40 MLOAD SWAP1 DUP2 MSTORE RETURN JUMPDEST POP CALLVALUE PUSH2 0x206 JUMPI PUSH1 0x20 CALLDATASIZE PUSH1 0x3 NOT ADD SLT PUSH2 0x206 JUMPI PUSH1 0x20 PUSH2 0xD2F PUSH1 0x4 CALLDATALOAD PUSH0 MSTORE PUSH0 PUSH1 0x20 MSTORE PUSH1 0x1 PUSH1 0x40 PUSH0 KECCAK256 ADD SLOAD SWAP1 JUMP JUMPDEST PUSH1 0x40 MLOAD SWAP1 DUP2 MSTORE RETURN JUMPDEST POP CALLVALUE PUSH2 0x206 JUMPI DUP1 PUSH1 0x3 NOT CALLDATASIZE ADD SLT PUSH2 0x206 JUMPI PUSH1 0x20 PUSH1 0x40 MLOAD PUSH3 0x3F480 DUP2 MSTORE RETURN JUMPDEST POP CALLVALUE PUSH2 0x206 JUMPI DUP1 PUSH1 0x3 NOT CALLDATASIZE ADD SLT PUSH2 0x206 JUMPI PUSH1 0x3 SLOAD PUSH1 0x40 MLOAD PUSH1 0x1 PUSH1 0x1 PUSH1 0xA0 SHL SUB SWAP1 SWAP2 AND DUP2 MSTORE PUSH1 0x20 SWAP1 RETURN JUMPDEST POP CALLVALUE PUSH2 0xF2C JUMPI PUSH1 0x20 CALLDATASIZE PUSH1 0x3 NOT ADD SLT PUSH2 0xF2C JUMPI PUSH1 0x4 CALLDATALOAD DUP1 PUSH0 MSTORE PUSH1 0x5 PUSH1 0x20 MSTORE PUSH1 0x40 PUSH0 KECCAK256 PUSH1 0x6 DUP2 ADD SWAP1 PUSH1 0xFF DUP3 SLOAD AND PUSH1 0x7 DUP2 LT ISZERO PUSH2 0x106F JUMPI PUSH1 0x1 PUSH2 0xDBE SWAP2 EQ PUSH2 0x22F0 JUMP JUMPDEST PUSH1 0xA DUP2 ADD SLOAD TIMESTAMP GT ISZERO PUSH2 0x103A JUMPI PUSH1 0xB DUP2 ADD SLOAD PUSH1 0xC DUP3 ADD SLOAD SWAP1 PUSH9 0x3635C9ADC5DEA00000 PUSH2 0xDF7 PUSH2 0xDEC DUP5 DUP5 PUSH2 0x2527 JUMP JUMPDEST PUSH1 0xD DUP7 ADD SLOAD SWAP1 PUSH2 0x2527 JUMP JUMPDEST LT ISZERO SWAP2 DUP3 SWAP2 DUP3 PUSH2 0x1030 JUMPI JUMPDEST POP POP ISZERO PUSH2 0xF30 JUMPI POP DUP2 SLOAD PUSH1 0xFF NOT AND PUSH1 0x2 OR DUP3 SSTORE PUSH1 0x3 SLOAD PUSH1 0x1 DUP3 ADD SLOAD PUSH1 0x5 DUP4 ADD DUP1 SLOAD PUSH1 0x10 SWAP1 SWAP5 ADD SLOAD SWAP1 SWAP4 SWAP1 SWAP3 PUSH1 0x1 PUSH1 0x1 PUSH1 0xA0 SHL SUB SWAP3 DUP4 AND SWAP3 AND DUP1 EXTCODESIZE ISZERO PUSH2 0xF2C JUMPI PUSH0 SWAP3 DUP4 PUSH1 0x84 SWAP3 PUSH1 0x40 MLOAD SWAP7 DUP8 SWAP6 DUP7 SWAP5 PUSH4 0x7D519C9 PUSH1 0xE5 SHL DUP7 MSTORE DUP13 PUSH1 0x4 DUP8 ADD MSTORE PUSH1 0x24 DUP7 ADD MSTORE PUSH1 0x44 DUP6 ADD MSTORE PUSH1 0x64 DUP5 ADD MSTORE GAS CALL DUP1 ISZERO PUSH2 0xF21 JUMPI PUSH2 0xEE2 JUMPI JUMPDEST POP PUSH1 0xFF PUSH32 0x5B9614F21773D68C0B149BDA804FF3D491C8BC8795F7ED236CC97804CD005389 SWAP3 DUP5 PUSH32 0xC6A4FD4A703D2A2FE3167CE7F6D62BF96458B7E55042CFAA85D5C7EF3AC56EEA PUSH1 0x20 DUP1 SWAP6 SLOAD PUSH1 0x40 MLOAD SWAP1 DUP2 MSTORE LOG2 JUMPDEST SLOAD AND PUSH2 0xEDE PUSH1 0x40 MLOAD DUP1 SWAP3 PUSH2 0x1FEA JUMP JUMPDEST LOG2 DUP1 RETURN JUMPDEST PUSH1 0x20 SWAP2 SWAP5 POP PUSH32 0x5B9614F21773D68C0B149BDA804FF3D491C8BC8795F7ED236CC97804CD005389 SWAP3 PUSH2 0xF15 PUSH0 PUSH1 0xFF SWAP4 PUSH2 0x1F05 JUMP JUMPDEST PUSH0 SWAP6 SWAP1 SWAP4 POP SWAP2 POP PUSH2 0xE7B JUMP JUMPDEST PUSH1 0x40 MLOAD RETURNDATASIZE PUSH0 DUP3 RETURNDATACOPY RETURNDATASIZE SWAP1 REVERT JUMPDEST PUSH0 DUP1 REVERT JUMPDEST DUP3 SLOAD PUSH1 0xFF NOT AND PUSH1 0x4 OR DUP4 SSTORE PUSH32 0x5B9614F21773D68C0B149BDA804FF3D491C8BC8795F7ED236CC97804CD005389 SWAP3 PUSH1 0x20 SWAP3 POP PUSH1 0xFF SWAP2 ISZERO PUSH2 0xFD9 JUMPI DUP5 PUSH32 0xE5F9059DC551D2DCF73C3BC69F282E134799B450F062C909D9F7FF45951327BD PUSH2 0xFD1 PUSH1 0x40 MLOAD PUSH2 0xF9C PUSH1 0x40 DUP3 PUSH2 0x1F05 JUMP JUMPDEST PUSH1 0x16 DUP2 MSTORE PUSH22 0x13585A9BDC9A5D1E481D9BDD1959081859D85A5B9CDD PUSH1 0x52 SHL DUP8 DUP3 ADD MSTORE JUMPDEST PUSH1 0x40 MLOAD SWAP2 DUP3 SWAP2 DUP9 DUP4 MSTORE DUP9 DUP4 ADD SWAP1 PUSH2 0x1FC6 JUMP JUMPDEST SUB SWAP1 LOG2 PUSH2 0xECF JUMP JUMPDEST DUP5 PUSH32 0xE5F9059DC551D2DCF73C3BC69F282E134799B450F062C909D9F7FF45951327BD PUSH2 0xFD1 PUSH1 0x40 MLOAD PUSH2 0x100C PUSH1 0x40 DUP3 PUSH2 0x1F05 JUMP JUMPDEST PUSH1 0x13 DUP2 MSTORE PUSH19 0x496E73756666696369656E742071756F72756D PUSH1 0x68 SHL DUP8 DUP3 ADD MSTORE PUSH2 0xFBF JUMP JUMPDEST GT SWAP1 POP PUSH0 DUP1 PUSH2 0xE02 JUMP JUMPDEST PUSH1 0x40 MLOAD PUSH3 0x461BCD PUSH1 0xE5 SHL DUP2 MSTORE PUSH1 0x20 PUSH1 0x4 DUP3 ADD MSTORE PUSH1 0xD PUSH1 0x24 DUP3 ADD MSTORE PUSH13 0x566F74696E6720616374697665 PUSH1 0x98 SHL PUSH1 0x44 DUP3 ADD MSTORE PUSH1 0x64 SWAP1 REVERT JUMPDEST PUSH4 0x4E487B71 PUSH1 0xE0 SHL PUSH0 MSTORE PUSH1 0x21 PUSH1 0x4 MSTORE PUSH1 0x24 PUSH0 REVERT JUMPDEST PUSH1 0x20 CALLDATASIZE PUSH1 0x3 NOT ADD SLT PUSH2 0xF2C JUMPI PUSH1 0x4 CALLDATALOAD PUSH1 0x1 PUSH1 0x1 PUSH1 0x40 SHL SUB DUP2 GT PUSH2 0xF2C JUMPI PUSH1 0xE0 PUSH1 0x3 NOT DUP3 CALLDATASIZE SUB ADD SLT PUSH2 0xF2C JUMPI PUSH1 0x40 MLOAD SWAP1 PUSH1 0xE0 DUP3 ADD DUP3 DUP2 LT PUSH1 0x1 PUSH1 0x1 PUSH1 0x40 SHL SUB DUP3 GT OR PUSH2 0x1702 JUMPI PUSH1 0x40 MSTORE DUP1 PUSH1 0x4 ADD CALLDATALOAD PUSH1 0x1 PUSH1 0x1 PUSH1 0x40 SHL SUB DUP2 GT PUSH2 0xF2C JUMPI PUSH2 0x10EE SWAP1 PUSH1 0x4 CALLDATASIZE SWAP2 DUP5 ADD ADD PUSH2 0x1FF7 JUMP JUMPDEST DUP3 MSTORE PUSH1 0x24 DUP2 ADD CALLDATALOAD PUSH1 0x1 PUSH1 0x1 PUSH1 0x40 SHL SUB DUP2 GT PUSH2 0xF2C JUMPI PUSH2 0x1113 SWAP1 PUSH1 0x4 CALLDATASIZE SWAP2 DUP5 ADD ADD PUSH2 0x1FF7 JUMP JUMPDEST PUSH1 0x20 DUP4 ADD SWAP1 DUP2 MSTORE PUSH1 0x44 DUP3 ADD CALLDATALOAD PUSH1 0x1 PUSH1 0x1 PUSH1 0x40 SHL SUB DUP2 GT PUSH2 0xF2C JUMPI PUSH2 0x113D SWAP1 PUSH1 0x4 CALLDATASIZE SWAP2 DUP6 ADD ADD PUSH2 0x1FF7 JUMP JUMPDEST SWAP2 PUSH1 0x40 DUP5 ADD SWAP3 DUP4 MSTORE PUSH1 0x60 DUP5 ADD SWAP4 PUSH1 0x64 DUP3 ADD CALLDATALOAD DUP6 MSTORE PUSH1 0x84 DUP3 ADD CALLDATALOAD PUSH1 0x1 PUSH1 0x1 PUSH1 0x40 SHL SUB DUP2 GT PUSH2 0xF2C JUMPI DUP3 ADD CALLDATASIZE PUSH1 0x23 DUP3 ADD SLT ISZERO PUSH2 0xF2C JUMPI PUSH1 0x4 DUP2 ADD CALLDATALOAD PUSH2 0x117F DUP2 PUSH2 0x204C JUMP JUMPDEST SWAP2 PUSH2 0x118D PUSH1 0x40 MLOAD SWAP4 DUP5 PUSH2 0x1F05 JUMP JUMPDEST DUP2 DUP4 MSTORE PUSH1 0x20 PUSH1 0x4 DUP2 DUP6 ADD SWAP4 PUSH1 0x5 SHL DUP4 ADD ADD ADD SWAP1 CALLDATASIZE DUP3 GT PUSH2 0xF2C JUMPI PUSH1 0x24 DUP2 ADD SWAP3 JUMPDEST DUP3 DUP5 LT PUSH2 0x1CBA JUMPI POP POP POP POP PUSH1 0x80 DUP3 ADD SWAP1 DUP2 MSTORE PUSH1 0xA4 DUP4 ADD CALLDATALOAD PUSH1 0x1 PUSH1 0x1 PUSH1 0x40 SHL SUB DUP2 GT PUSH2 0xF2C JUMPI DUP4 ADD SWAP3 CALLDATASIZE PUSH1 0x23 DUP6 ADD SLT ISZERO PUSH2 0xF2C JUMPI PUSH1 0x4 DUP5 ADD CALLDATALOAD SWAP4 PUSH2 0x11EF DUP6 PUSH2 0x204C JUMP JUMPDEST SWAP5 PUSH2 0x11FD PUSH1 0x40 MLOAD SWAP7 DUP8 PUSH2 0x1F05 JUMP JUMPDEST DUP1 DUP7 MSTORE PUSH1 0x20 PUSH1 0x4 DUP2 DUP9 ADD SWAP3 PUSH1 0x5 SHL DUP5 ADD ADD ADD SWAP2 CALLDATASIZE DUP4 GT PUSH2 0xF2C JUMPI PUSH1 0x24 ADD SWAP1 JUMPDEST DUP3 DUP3 LT PUSH2 0x1CAA JUMPI POP POP POP PUSH1 0xA0 DUP4 ADD SWAP4 DUP5 MSTORE PUSH1 0xC4 PUSH1 0xC0 DUP5 ADD SWAP2 ADD CALLDATALOAD DUP2 MSTORE PUSH7 0x38D7EA4C68000 CALLVALUE LT PUSH2 0x1C65 JUMPI DUP3 MLOAD DUP8 MLOAD SWAP1 DUP3 MLOAD DUP5 MLOAD MLOAD SWAP3 DUP8 MLOAD MLOAD SWAP3 MLOAD DUP1 ISZERO ISZERO SWAP1 DUP2 PUSH2 0x1C59 JUMPI JUMPDEST POP ISZERO PUSH2 0x1C1D JUMPI DUP1 ISZERO ISZERO SWAP1 DUP2 PUSH2 0x1C08 JUMPI JUMPDEST POP ISZERO PUSH2 0x1BD2 JUMPI PUSH3 0x3F480 DUP2 LT ISZERO SWAP1 DUP2 PUSH2 0x1BC4 JUMPI JUMPDEST POP ISZERO PUSH2 0x1B87 JUMPI DUP2 SUB PUSH2 0x1B42 JUMPI DUP1 ISZERO ISZERO SWAP1 DUP2 PUSH2 0x1B36 JUMPI JUMPDEST POP ISZERO PUSH2 0x1AF1 JUMPI PUSH9 0x3635C9ADC5DEA00000 CALLER BALANCE LT PUSH2 0x1AAC JUMPI PUSH2 0x12BC PUSH1 0x4 SLOAD PUSH2 0x21B6 JUMP JUMPDEST SWAP5 DUP6 PUSH1 0x4 SSTORE DUP4 MLOAD SWAP1 MLOAD DUP8 MLOAD SWAP1 DUP1 MLOAD DUP1 ISZERO ISZERO SWAP1 DUP2 PUSH2 0x1A9F JUMPI JUMPDEST POP ISZERO PUSH2 0x1A61 JUMPI DUP2 MLOAD ISZERO PUSH2 0x1A28 JUMPI DUP8 PUSH0 MSTORE PUSH1 0x5 PUSH1 0x20 MSTORE PUSH1 0x40 PUSH0 KECCAK256 SWAP3 DUP9 DUP5 SSTORE PUSH1 0x1 DUP5 ADD CALLER PUSH12 0xFFFFFFFFFFFFFFFFFFFFFFFF PUSH1 0xA0 SHL DUP3 SLOAD AND OR SWAP1 SSTORE PUSH1 0x2 DUP5 ADD SWAP1 DUP1 MLOAD SWAP1 PUSH1 0x1 PUSH1 0x1 PUSH1 0x40 SHL SUB DUP3 GT PUSH2 0x1702 JUMPI DUP2 SWAP1 PUSH2 0x132E DUP5 SLOAD PUSH2 0x1ECD JUMP JUMPDEST PUSH1 0x1F DUP2 GT PUSH2 0x19D8 JUMPI JUMPDEST POP PUSH1 0x20 SWAP1 PUSH1 0x1F DUP4 GT PUSH1 0x1 EQ PUSH2 0x1975 JUMPI PUSH0 SWAP3 PUSH2 0x196A JUMPI JUMPDEST POP POP DUP2 PUSH1 0x1 SHL SWAP2 PUSH0 NOT SWAP1 PUSH1 0x3 SHL SHR NOT AND OR SWAP1 SSTORE JUMPDEST DUP1 MLOAD PUSH1 0x3 DUP5 ADD SWAP2 PUSH1 0x1 PUSH1 0x1 PUSH1 0x40 SHL SUB DUP3 GT PUSH2 0x1702 JUMPI DUP2 SWAP1 PUSH2 0x1382 DUP5 SLOAD PUSH2 0x1ECD JUMP JUMPDEST PUSH1 0x1F DUP2 GT PUSH2 0x191A JUMPI JUMPDEST POP PUSH1 0x20 SWAP1 PUSH1 0x1F DUP4 GT PUSH1 0x1 EQ PUSH2 0x18B7 JUMPI PUSH0 SWAP3 PUSH2 0x18AC JUMPI JUMPDEST POP POP DUP2 PUSH1 0x1 SHL SWAP2 PUSH0 NOT SWAP1 PUSH1 0x3 SHL SHR NOT AND OR SWAP1 SSTORE JUMPDEST DUP1 MLOAD PUSH1 0x4 DUP4 ADD SWAP2 PUSH1 0x1 PUSH1 0x1 PUSH1 0x40 SHL SUB DUP3 GT PUSH2 0x1702 JUMPI PUSH2 0x13D4 DUP4 SLOAD PUSH2 0x1ECD JUMP JUMPDEST PUSH1 0x1F DUP2 GT PUSH2 0x1867 JUMPI JUMPDEST POP PUSH1 0x20 SWAP1 PUSH1 0x1F DUP4 GT PUSH1 0x1 EQ PUSH2 0x17FE JUMPI SWAP2 DUP1 PUSH0 SWAP7 SWAP5 SWAP3 PUSH1 0x11 SWAP7 SWAP5 DUP9 SWAP3 PUSH2 0x17F3 JUMPI JUMPDEST POP POP DUP2 PUSH1 0x1 SHL SWAP2 DUP8 NOT SWAP1 PUSH1 0x3 SHL SHR NOT AND OR SWAP1 SSTORE JUMPDEST PUSH1 0x6 DUP2 ADD PUSH1 0xFF NOT DUP2 SLOAD AND SWAP1 SSTORE PUSH1 0x7 TIMESTAMP SWAP2 ADD SSTORE DUP9 MLOAD SWAP1 MLOAD DUP8 DUP5 MSTORE PUSH1 0x5 PUSH1 0x20 MSTORE PUSH1 0x40 DUP5 KECCAK256 SWAP2 PUSH1 0x5 DUP4 ADD SSTORE PUSH1 0x8 DUP3 ADD SSTORE ADD SSTORE MLOAD SWAP2 MLOAD SWAP3 PUSH0 SWAP6 PUSH0 SWAP7 JUMPDEST DUP6 MLOAD DUP9 LT ISZERO PUSH2 0x1526 JUMPI PUSH2 0x145C DUP9 DUP8 PUSH2 0x212F JUMP JUMPDEST MLOAD ISZERO PUSH2 0x14D7 JUMPI PUSH2 0x146C DUP9 DUP7 PUSH2 0x212F JUMP JUMPDEST MLOAD MLOAD ISZERO PUSH2 0x1492 JUMPI PUSH2 0x148A PUSH1 0x1 SWAP2 PUSH2 0x1483 DUP11 DUP10 PUSH2 0x212F JUMP JUMPDEST MLOAD SWAP1 PUSH2 0x2527 JUMP JUMPDEST SWAP8 ADD SWAP7 PUSH2 0x1449 JUMP JUMPDEST PUSH1 0x40 MLOAD PUSH3 0x461BCD PUSH1 0xE5 SHL DUP2 MSTORE PUSH1 0x20 PUSH1 0x4 DUP3 ADD MSTORE PUSH1 0x1E PUSH1 0x24 DUP3 ADD MSTORE PUSH32 0x4D696C6573746F6E65206465736372697074696F6E2072657175697265640000 PUSH1 0x44 DUP3 ADD MSTORE PUSH1 0x64 SWAP1 REVERT JUMPDEST PUSH1 0x40 MLOAD PUSH3 0x461BCD PUSH1 0xE5 SHL DUP2 MSTORE PUSH1 0x20 PUSH1 0x4 DUP3 ADD MSTORE PUSH1 0x21 PUSH1 0x24 DUP3 ADD MSTORE PUSH32 0x4D696C6573746F6E6520616D6F756E74206D75737420626520706F7369746976 PUSH1 0x44 DUP3 ADD MSTORE PUSH1 0x65 PUSH1 0xF8 SHL PUSH1 0x64 DUP3 ADD MSTORE PUSH1 0x84 SWAP1 REVERT JUMPDEST SWAP5 SWAP4 SWAP3 SWAP6 DUP3 PUSH0 MSTORE PUSH1 0x5 PUSH1 0x20 MSTORE PUSH1 0x40 PUSH0 KECCAK256 SWAP6 PUSH1 0x5 DUP8 ADD SLOAD SUB PUSH2 0x1796 JUMPI PUSH1 0x10 PUSH0 SWAP8 SWAP7 ADD SWAP7 JUMPDEST DUP5 MLOAD DUP2 LT ISZERO PUSH2 0x172A JUMPI PUSH2 0x155C DUP2 DUP7 PUSH2 0x212F JUMP JUMPDEST MLOAD PUSH2 0x1567 DUP3 DUP9 PUSH2 0x212F JUMP JUMPDEST MLOAD PUSH1 0x40 MLOAD SWAP2 PUSH1 0x80 DUP4 ADD DUP4 DUP2 LT PUSH1 0x1 PUSH1 0x1 PUSH1 0x40 SHL SUB DUP3 GT OR PUSH2 0x1702 JUMPI PUSH1 0x40 MSTORE DUP3 MSTORE PUSH1 0x20 DUP3 ADD SWAP1 DUP2 MSTORE PUSH1 0x40 DUP3 ADD PUSH0 DUP2 MSTORE PUSH1 0x60 DUP4 ADD SWAP2 PUSH0 DUP4 MSTORE DUP12 SLOAD PUSH9 0x10000000000000000 DUP2 LT ISZERO PUSH2 0x1702 JUMPI PUSH1 0x1 DUP2 ADD DUP1 DUP15 SSTORE DUP2 LT ISZERO PUSH2 0x1716 JUMPI DUP13 PUSH0 MSTORE PUSH1 0x20 PUSH0 KECCAK256 SWAP1 PUSH1 0x2 SHL ADD SWAP4 MLOAD DUP1 MLOAD SWAP1 PUSH1 0x1 PUSH1 0x1 PUSH1 0x40 SHL SUB DUP3 GT PUSH2 0x1702 JUMPI PUSH2 0x15E7 DUP7 SLOAD PUSH2 0x1ECD JUMP JUMPDEST PUSH1 0x1F DUP2 GT PUSH2 0x16BD JUMPI JUMPDEST POP PUSH1 0x20 SWAP1 PUSH1 0x1F DUP4 GT PUSH1 0x1 EQ PUSH2 0x1652 JUMPI SWAP2 DUP1 PUSH1 0x1 SWAP9 SWAP8 SWAP7 SWAP5 SWAP3 PUSH1 0x3 SWAP7 SWAP5 PUSH0 SWAP3 PUSH2 0x1647 JUMPI JUMPDEST POP POP PUSH0 NOT DUP3 DUP8 SHL SHR NOT AND SWAP1 DUP9 SHL OR DUP6 SSTORE JUMPDEST MLOAD DUP7 DUP6 ADD SSTORE PUSH1 0x2 DUP5 ADD SWAP1 MLOAD ISZERO ISZERO PUSH1 0xFF DUP1 NOT DUP4 SLOAD AND SWAP2 AND OR SWAP1 SSTORE MLOAD SWAP2 ADD SSTORE ADD PUSH2 0x1549 JUMP JUMPDEST ADD MLOAD SWAP1 POP PUSH0 DUP1 PUSH2 0x1613 JUMP JUMPDEST SWAP1 PUSH1 0x1F NOT DUP4 AND SWAP2 DUP8 PUSH0 MSTORE DUP2 PUSH0 KECCAK256 SWAP3 PUSH0 JUMPDEST DUP2 DUP2 LT PUSH2 0x16A5 JUMPI POP SWAP3 PUSH1 0x1 SWAP10 SWAP9 SWAP8 SWAP6 SWAP4 SWAP3 DUP6 SWAP3 PUSH1 0x3 SWAP9 SWAP7 DUP13 SWAP6 LT PUSH2 0x168E JUMPI JUMPDEST POP POP POP DUP2 SHL ADD DUP6 SSTORE PUSH2 0x1624 JUMP JUMPDEST ADD MLOAD PUSH0 NOT DUP4 DUP10 SHL PUSH1 0xF8 AND SHR NOT AND SWAP1 SSTORE PUSH0 DUP1 DUP1 PUSH2 0x1681 JUMP JUMPDEST SWAP3 SWAP4 PUSH1 0x20 PUSH1 0x1 DUP2 SWAP3 DUP8 DUP7 ADD MLOAD DUP2 SSTORE ADD SWAP6 ADD SWAP4 ADD PUSH2 0x1662 JUMP JUMPDEST DUP7 PUSH0 MSTORE PUSH1 0x20 PUSH0 KECCAK256 PUSH1 0x1F DUP5 ADD PUSH1 0x5 SHR DUP2 ADD SWAP2 PUSH1 0x20 DUP6 LT PUSH2 0x16F8 JUMPI JUMPDEST PUSH1 0x1F ADD PUSH1 0x5 SHR ADD SWAP1 JUMPDEST DUP2 DUP2 LT PUSH2 0x16ED JUMPI POP PUSH2 0x15F0 JUMP JUMPDEST PUSH0 DUP2 SSTORE PUSH1 0x1 ADD PUSH2 0x16E0 JUMP JUMPDEST SWAP1 SWAP2 POP DUP2 SWAP1 PUSH2 0x16D7 JUMP JUMPDEST PUSH4 0x4E487B71 PUSH1 0xE0 SHL PUSH0 MSTORE PUSH1 0x41 PUSH1 0x4 MSTORE PUSH1 0x24 PUSH0 REVERT JUMPDEST PUSH4 0x4E487B71 PUSH1 0xE0 SHL PUSH0 MSTORE PUSH1 0x32 PUSH1 0x4 MSTORE PUSH1 0x24 PUSH0 REVERT JUMPDEST PUSH1 0x20 DUP5 DUP5 DUP2 PUSH32 0x5AD01C818E42F77C2C5123D4D295C39799CF1CAC9125682A8C90C7CE9D9BF6B4 PUSH2 0x1781 DUP8 DUP14 MLOAD SWAP5 MLOAD SWAP1 MLOAD PUSH2 0x176F PUSH1 0x40 MLOAD SWAP7 PUSH1 0x80 DUP9 MSTORE PUSH1 0x80 DUP9 ADD SWAP1 PUSH2 0x1FC6 JUMP JUMPDEST SWAP2 DUP9 DUP8 ADD MSTORE DUP6 DUP3 SUB PUSH1 0x40 DUP8 ADD MSTORE PUSH2 0x1FC6 JUMP JUMPDEST SWAP3 TIMESTAMP PUSH1 0x60 DUP3 ADD MSTORE DUP1 CALLER SWAP5 SUB SWAP1 LOG3 PUSH1 0x40 MLOAD SWAP1 DUP2 MSTORE RETURN JUMPDEST PUSH1 0x40 MLOAD PUSH3 0x461BCD PUSH1 0xE5 SHL DUP2 MSTORE PUSH1 0x20 PUSH1 0x4 DUP3 ADD MSTORE PUSH1 0x2F PUSH1 0x24 DUP3 ADD MSTORE PUSH32 0x4D696C6573746F6E6520616D6F756E747320646F6E27742073756D20746F2072 PUSH1 0x44 DUP3 ADD MSTORE PUSH15 0x195C5D595CDD195908185B5BDD5B9D PUSH1 0x8A SHL PUSH1 0x64 DUP3 ADD MSTORE PUSH1 0x84 SWAP1 REVERT JUMPDEST ADD MLOAD SWAP1 POP DUP14 DUP1 PUSH2 0x13FD JUMP JUMPDEST SWAP1 PUSH1 0x1F NOT DUP4 AND SWAP2 DUP5 PUSH0 MSTORE DUP2 PUSH0 KECCAK256 SWAP3 PUSH0 JUMPDEST DUP2 DUP2 LT PUSH2 0x184F JUMPI POP SWAP3 PUSH1 0x1 SWAP3 DUP6 SWAP3 PUSH1 0x11 SWAP9 SWAP7 PUSH0 SWAP11 SWAP9 SWAP7 LT PUSH2 0x1837 JUMPI JUMPDEST POP POP POP DUP2 SHL ADD SWAP1 SSTORE PUSH2 0x1411 JUMP JUMPDEST ADD MLOAD DUP9 NOT PUSH1 0xF8 DUP5 PUSH1 0x3 SHL AND SHR NOT AND SWAP1 SSTORE DUP14 DUP1 DUP1 PUSH2 0x182A JUMP JUMPDEST SWAP3 SWAP4 PUSH1 0x20 PUSH1 0x1 DUP2 SWAP3 DUP8 DUP7 ADD MLOAD DUP2 SSTORE ADD SWAP6 ADD SWAP4 ADD PUSH2 0x180E JUMP JUMPDEST DUP4 PUSH0 MSTORE PUSH1 0x20 PUSH0 KECCAK256 PUSH1 0x1F DUP5 ADD PUSH1 0x5 SHR DUP2 ADD SWAP2 PUSH1 0x20 DUP6 LT PUSH2 0x18A2 JUMPI JUMPDEST PUSH1 0x1F ADD PUSH1 0x5 SHR ADD SWAP1 JUMPDEST DUP2 DUP2 LT PUSH2 0x1897 JUMPI POP PUSH2 0x13DD JUMP JUMPDEST PUSH0 DUP2 SSTORE PUSH1 0x1 ADD PUSH2 0x188A JUMP JUMPDEST SWAP1 SWAP2 POP DUP2 SWAP1 PUSH2 0x1881 JUMP JUMPDEST ADD MLOAD SWAP1 POP DUP13 DUP1 PUSH2 0x13A1 JUMP JUMPDEST PUSH0 DUP6 DUP2 MSTORE DUP3 DUP2 KECCAK256 SWAP4 POP PUSH1 0x1F NOT DUP6 AND SWAP1 JUMPDEST DUP2 DUP2 LT PUSH2 0x1902 JUMPI POP SWAP1 DUP5 PUSH1 0x1 SWAP6 SWAP5 SWAP4 SWAP3 LT PUSH2 0x18EA JUMPI JUMPDEST POP POP POP DUP2 SHL ADD SWAP1 SSTORE PUSH2 0x13B5 JUMP JUMPDEST ADD MLOAD PUSH0 NOT PUSH1 0xF8 DUP5 PUSH1 0x3 SHL AND SHR NOT AND SWAP1 SSTORE DUP13 DUP1 DUP1 PUSH2 0x18DD JUMP JUMPDEST SWAP3 SWAP4 PUSH1 0x20 PUSH1 0x1 DUP2 SWAP3 DUP8 DUP7 ADD MLOAD DUP2 SSTORE ADD SWAP6 ADD SWAP4 ADD PUSH2 0x18C7 JUMP JUMPDEST SWAP1 SWAP2 POP DUP4 PUSH0 MSTORE PUSH1 0x20 PUSH0 KECCAK256 PUSH1 0x1F DUP5 ADD PUSH1 0x5 SHR DUP2 ADD SWAP2 PUSH1 0x20 DUP6 LT PUSH2 0x1960 JUMPI JUMPDEST SWAP1 PUSH1 0x1F DUP6 SWAP5 SWAP4 SWAP3 ADD PUSH1 0x5 SHR ADD SWAP1 JUMPDEST DUP2 DUP2 LT PUSH2 0x1952 JUMPI POP PUSH2 0x138B JUMP JUMPDEST PUSH0 DUP2 SSTORE DUP5 SWAP4 POP PUSH1 0x1 ADD PUSH2 0x1945 JUMP JUMPDEST SWAP1 SWAP2 POP DUP2 SWAP1 PUSH2 0x1937 JUMP JUMPDEST ADD MLOAD SWAP1 POP DUP14 DUP1 PUSH2 0x134D JUMP JUMPDEST PUSH0 DUP6 DUP2 MSTORE DUP3 DUP2 KECCAK256 SWAP4 POP PUSH1 0x1F NOT DUP6 AND SWAP1 JUMPDEST DUP2 DUP2 LT PUSH2 0x19C0 JUMPI POP SWAP1 DUP5 PUSH1 0x1 SWAP6 SWAP5 SWAP4 SWAP3 LT PUSH2 0x19A8 JUMPI JUMPDEST POP POP POP DUP2 SHL ADD SWAP1 SSTORE PUSH2 0x1361 JUMP JUMPDEST ADD MLOAD PUSH0 NOT PUSH1 0xF8 DUP5 PUSH1 0x3 SHL AND SHR NOT AND SWAP1 SSTORE DUP14 DUP1 DUP1 PUSH2 0x199B JUMP JUMPDEST SWAP3 SWAP4 PUSH1 0x20 PUSH1 0x1 DUP2 SWAP3 DUP8 DUP7 ADD MLOAD DUP2 SSTORE ADD SWAP6 ADD SWAP4 ADD PUSH2 0x1985 JUMP JUMPDEST SWAP1 SWAP2 POP DUP4 PUSH0 MSTORE PUSH1 0x20 PUSH0 KECCAK256 PUSH1 0x1F DUP5 ADD PUSH1 0x5 SHR DUP2 ADD SWAP2 PUSH1 0x20 DUP6 LT PUSH2 0x1A1E JUMPI JUMPDEST SWAP1 PUSH1 0x1F DUP6 SWAP5 SWAP4 SWAP3 ADD PUSH1 0x5 SHR ADD SWAP1 JUMPDEST DUP2 DUP2 LT PUSH2 0x1A10 JUMPI POP PUSH2 0x1337 JUMP JUMPDEST PUSH0 DUP2 SSTORE DUP5 SWAP4 POP PUSH1 0x1 ADD PUSH2 0x1A03 JUMP JUMPDEST SWAP1 SWAP2 POP DUP2 SWAP1 PUSH2 0x19F5 JUMP JUMPDEST PUSH1 0x40 MLOAD PUSH3 0x461BCD PUSH1 0xE5 SHL DUP2 MSTORE PUSH1 0x20 PUSH1 0x4 DUP3 ADD MSTORE PUSH1 0x11 PUSH1 0x24 DUP3 ADD MSTORE PUSH17 0x12541194C810D251081C995C5D5A5C9959 PUSH1 0x7A SHL PUSH1 0x44 DUP3 ADD MSTORE PUSH1 0x64 SWAP1 REVERT JUMPDEST PUSH1 0x40 MLOAD PUSH3 0x461BCD PUSH1 0xE5 SHL DUP2 MSTORE PUSH1 0x20 PUSH1 0x4 DUP3 ADD MSTORE PUSH1 0x16 PUSH1 0x24 DUP3 ADD MSTORE PUSH22 0x92DCECC2D8D2C840E6EADADAC2E4F240D8CADCCEE8D PUSH1 0x53 SHL PUSH1 0x44 DUP3 ADD MSTORE PUSH1 0x64 SWAP1 REVERT JUMPDEST PUSH2 0x3E8 SWAP2 POP GT ISZERO DUP12 PUSH2 0x12D4 JUMP JUMPDEST PUSH1 0x40 MLOAD PUSH3 0x461BCD PUSH1 0xE5 SHL DUP2 MSTORE PUSH1 0x20 PUSH1 0x4 DUP3 ADD MSTORE PUSH1 0x18 PUSH1 0x24 DUP3 ADD MSTORE PUSH32 0x496E73756666696369656E74205846492062616C616E63650000000000000000 PUSH1 0x44 DUP3 ADD MSTORE PUSH1 0x64 SWAP1 REVERT JUMPDEST PUSH1 0x40 MLOAD PUSH3 0x461BCD PUSH1 0xE5 SHL DUP2 MSTORE PUSH1 0x20 PUSH1 0x4 DUP3 ADD MSTORE PUSH1 0x17 PUSH1 0x24 DUP3 ADD MSTORE PUSH32 0x496E76616C6964206D696C6573746F6E6520636F756E74000000000000000000 PUSH1 0x44 DUP3 ADD MSTORE PUSH1 0x64 SWAP1 REVERT JUMPDEST PUSH1 0xA SWAP2 POP GT ISZERO DUP9 PUSH2 0x129A JUMP JUMPDEST PUSH1 0x40 MLOAD PUSH3 0x461BCD PUSH1 0xE5 SHL DUP2 MSTORE PUSH1 0x20 PUSH1 0x4 DUP3 ADD MSTORE PUSH1 0x19 PUSH1 0x24 DUP3 ADD MSTORE PUSH32 0x4D696C6573746F6E6520617272617973206D69736D6174636800000000000000 PUSH1 0x44 DUP3 ADD MSTORE PUSH1 0x64 SWAP1 REVERT JUMPDEST PUSH1 0x40 MLOAD PUSH3 0x461BCD PUSH1 0xE5 SHL DUP2 MSTORE PUSH1 0x20 PUSH1 0x4 DUP3 ADD MSTORE PUSH1 0x15 PUSH1 0x24 DUP3 ADD MSTORE PUSH21 0x125B9D985B1A59081D9BDD1A5B99C81C195C9A5BD9 PUSH1 0x5A SHL PUSH1 0x44 DUP3 ADD MSTORE PUSH1 0x64 SWAP1 REVERT JUMPDEST PUSH3 0x127500 SWAP2 POP GT ISZERO DUP11 PUSH2 0x1284 JUMP JUMPDEST PUSH1 0x40 MLOAD PUSH3 0x461BCD PUSH1 0xE5 SHL DUP2 MSTORE PUSH1 0x20 PUSH1 0x4 DUP3 ADD MSTORE PUSH1 0xE PUSH1 0x24 DUP3 ADD MSTORE PUSH14 0x125B9D985B1A5908185B5BDD5B9D PUSH1 0x92 SHL PUSH1 0x44 DUP3 ADD MSTORE PUSH1 0x64 SWAP1 REVERT JUMPDEST PUSH10 0xD3C21BCECCEDA1000000 SWAP2 POP GT ISZERO DUP12 PUSH2 0x1270 JUMP JUMPDEST PUSH1 0x40 MLOAD PUSH3 0x461BCD PUSH1 0xE5 SHL DUP2 MSTORE PUSH1 0x20 PUSH1 0x4 DUP3 ADD MSTORE PUSH1 0x14 PUSH1 0x24 DUP3 ADD MSTORE PUSH20 0x92DCECC2D8D2C840E8D2E8D8CA40D8CADCCEE8D PUSH1 0x63 SHL PUSH1 0x44 DUP3 ADD MSTORE PUSH1 0x64 SWAP1 REVERT JUMPDEST PUSH1 0xC8 SWAP2 POP GT ISZERO DUP13 PUSH2 0x1260 JUMP JUMPDEST PUSH1 0x40 MLOAD PUSH3 0x461BCD PUSH1 0xE5 SHL DUP2 MSTORE PUSH1 0x20 PUSH1 0x4 DUP3 ADD MSTORE PUSH1 0x19 PUSH1 0x24 DUP3 ADD MSTORE PUSH32 0x496E73756666696369656E742070726F706F73616C2066656500000000000000 PUSH1 0x44 DUP3 ADD MSTORE PUSH1 0x64 SWAP1 REVERT JUMPDEST DUP2 CALLDATALOAD DUP2 MSTORE PUSH1 0x20 SWAP2 DUP3 ADD SWAP2 ADD PUSH2 0x121C JUMP JUMPDEST DUP4 CALLDATALOAD PUSH1 0x1 PUSH1 0x1 PUSH1 0x40 SHL SUB DUP2 GT PUSH2 0xF2C JUMPI PUSH1 0x20 SWAP2 PUSH2 0x1CE0 DUP4 SWAP3 DUP4 PUSH1 0x4 CALLDATASIZE SWAP3 DUP9 ADD ADD ADD PUSH2 0x1FF7 JUMP JUMPDEST DUP2 MSTORE ADD SWAP4 ADD SWAP3 PUSH2 0x11AD JUMP JUMPDEST CALLVALUE PUSH2 0xF2C JUMPI PUSH1 0x20 CALLDATASIZE PUSH1 0x3 NOT ADD SLT PUSH2 0xF2C JUMPI PUSH1 0x4 CALLDATALOAD PUSH4 0xFFFFFFFF PUSH1 0xE0 SHL DUP2 AND DUP1 SWAP2 SUB PUSH2 0xF2C JUMPI PUSH1 0x20 SWAP1 PUSH4 0x7965DB0B PUSH1 0xE0 SHL DUP2 EQ SWAP1 DUP2 ISZERO PUSH2 0x1D30 JUMPI JUMPDEST POP PUSH1 0x40 MLOAD SWAP1 ISZERO ISZERO DUP2 MSTORE RETURN JUMPDEST PUSH4 0x1FFC9A7 PUSH1 0xE0 SHL EQ SWAP1 POP DUP3 PUSH2 0x1D25 JUMP JUMPDEST CALLVALUE PUSH2 0xF2C JUMPI PUSH1 0x20 CALLDATASIZE PUSH1 0x3 NOT ADD SLT PUSH2 0xF2C JUMPI PUSH1 0x4 CALLDATALOAD PUSH0 SWAP1 DUP2 MSTORE PUSH1 0x5 PUSH1 0x20 MSTORE PUSH1 0x40 SWAP1 KECCAK256 DUP1 SLOAD PUSH1 0x1 DUP3 ADD SLOAD PUSH1 0x1 PUSH1 0x1 PUSH1 0xA0 SHL SUB AND PUSH1 0xA0 MSTORE PUSH2 0x1D81 PUSH1 0x2 DUP4 ADD PUSH2 0x1F26 JUMP JUMPDEST PUSH1 0xE0 MSTORE DUP2 PUSH2 0x1D91 PUSH1 0x3 DUP3 ADD PUSH2 0x1F26 JUMP JUMPDEST SWAP2 PUSH2 0x1D9E PUSH1 0x4 DUP4 ADD PUSH2 0x1F26 JUMP JUMPDEST SWAP3 PUSH1 0x5 DUP4 ADD SLOAD SWAP4 PUSH1 0x6 DUP5 ADD SLOAD PUSH1 0xFF AND PUSH1 0x7 DUP6 ADD SLOAD PUSH1 0x8 DUP7 ADD SLOAD PUSH1 0x9 DUP8 ADD SLOAD SWAP2 PUSH1 0xA DUP9 ADD SLOAD SWAP4 PUSH1 0xB DUP10 ADD SLOAD SWAP6 PUSH1 0xC DUP11 ADD SLOAD SWAP8 PUSH1 0xD DUP12 ADD SLOAD SWAP10 PUSH1 0xE DUP13 ADD SLOAD SWAP12 PUSH1 0xF ADD PUSH2 0x1DE7 SWAP1 PUSH2 0x1F26 JUMP JUMPDEST SWAP14 PUSH1 0x11 ADD SLOAD PUSH1 0x80 MSTORE PUSH1 0x40 MLOAD PUSH1 0xC0 MSTORE PUSH1 0xC0 MLOAD MSTORE PUSH1 0xA0 MLOAD PUSH1 0xC0 MLOAD PUSH1 0x20 ADD MSTORE PUSH1 0xC0 MLOAD PUSH1 0x40 ADD PUSH2 0x220 SWAP1 MSTORE PUSH1 0xC0 MLOAD PUSH2 0x220 ADD PUSH1 0xE0 MLOAD SWAP1 PUSH2 0x1E22 SWAP2 PUSH2 0x1FC6 JUMP JUMPDEST PUSH1 0xC0 MLOAD DUP2 SUB PUSH1 0xC0 MLOAD PUSH1 0x60 ADD MSTORE PUSH2 0x1E37 SWAP2 PUSH2 0x1FC6 JUMP JUMPDEST PUSH1 0xC0 MLOAD DUP2 SUB PUSH1 0xC0 MLOAD PUSH1 0x80 ADD MSTORE PUSH2 0x1E4C SWAP2 PUSH2 0x1FC6 JUMP JUMPDEST SWAP10 PUSH1 0xC0 MLOAD PUSH1 0xA0 ADD MSTORE PUSH1 0xC0 MLOAD PUSH1 0xC0 ADD PUSH2 0x1E63 SWAP2 PUSH2 0x1FEA JUMP JUMPDEST PUSH1 0xC0 MLOAD PUSH1 0xE0 ADD MSTORE PUSH1 0xC0 MLOAD PUSH2 0x100 ADD MSTORE PUSH1 0xC0 MLOAD PUSH2 0x120 ADD MSTORE PUSH1 0xC0 MLOAD PUSH2 0x140 ADD MSTORE PUSH1 0xC0 MLOAD PUSH2 0x160 ADD MSTORE PUSH1 0xC0 MLOAD PUSH2 0x180 ADD MSTORE PUSH1 0xC0 MLOAD PUSH2 0x1A0 ADD MSTORE PUSH1 0xC0 MLOAD PUSH2 0x1C0 ADD MSTORE PUSH1 0xC0 MLOAD DUP2 SUB PUSH1 0xC0 MLOAD PUSH2 0x1E0 ADD MSTORE PUSH2 0x1EB8 SWAP2 PUSH2 0x1FC6 JUMP JUMPDEST PUSH1 0x80 MLOAD PUSH1 0xC0 MLOAD PUSH2 0x200 ADD MSTORE PUSH1 0xC0 MLOAD SWAP1 SUB PUSH1 0xC0 MLOAD RETURN JUMPDEST SWAP1 PUSH1 0x1 DUP3 DUP2 SHR SWAP3 AND DUP1 ISZERO PUSH2 0x1EFB JUMPI JUMPDEST PUSH1 0x20 DUP4 LT EQ PUSH2 0x1EE7 JUMPI JUMP JUMPDEST PUSH4 0x4E487B71 PUSH1 0xE0 SHL PUSH0 MSTORE PUSH1 0x22 PUSH1 0x4 MSTORE PUSH1 0x24 PUSH0 REVERT JUMPDEST SWAP2 PUSH1 0x7F AND SWAP2 PUSH2 0x1EDC JUMP JUMPDEST SWAP1 PUSH1 0x1F DUP1 NOT SWAP2 ADD AND DUP2 ADD SWAP1 DUP2 LT PUSH1 0x1 PUSH1 0x1 PUSH1 0x40 SHL SUB DUP3 GT OR PUSH2 0x1702 JUMPI PUSH1 0x40 MSTORE JUMP JUMPDEST SWAP1 PUSH1 0x40 MLOAD SWAP2 DUP3 PUSH0 DUP3 SLOAD SWAP3 PUSH2 0x1F39 DUP5 PUSH2 0x1ECD JUMP JUMPDEST DUP1 DUP5 MSTORE SWAP4 PUSH1 0x1 DUP2 AND SWAP1 DUP2 ISZERO PUSH2 0x1FA4 JUMPI POP PUSH1 0x1 EQ PUSH2 0x1F60 JUMPI JUMPDEST POP PUSH2 0x1F5E SWAP3 POP SUB DUP4 PUSH2 0x1F05 JUMP JUMPDEST JUMP JUMPDEST SWAP1 POP PUSH0 SWAP3 SWAP2 SWAP3 MSTORE PUSH1 0x20 PUSH0 KECCAK256 SWAP1 PUSH0 SWAP2 JUMPDEST DUP2 DUP4 LT PUSH2 0x1F88 JUMPI POP POP SWAP1 PUSH1 0x20 PUSH2 0x1F5E SWAP3 DUP3 ADD ADD PUSH0 PUSH2 0x1F51 JUMP JUMPDEST PUSH1 0x20 SWAP2 SWAP4 POP DUP1 PUSH1 0x1 SWAP2 SLOAD DUP4 DUP6 DUP10 ADD ADD MSTORE ADD SWAP2 ADD SWAP1 SWAP2 DUP5 SWAP3 PUSH2 0x1F6F JUMP JUMPDEST SWAP1 POP PUSH1 0x20 SWAP3 POP PUSH2 0x1F5E SWAP5 SWAP2 POP PUSH1 0xFF NOT AND DUP3 DUP5 ADD MSTORE ISZERO ISZERO PUSH1 0x5 SHL DUP3 ADD ADD PUSH0 PUSH2 0x1F51 JUMP JUMPDEST DUP1 MLOAD DUP1 DUP4 MSTORE PUSH1 0x20 SWAP3 SWAP2 DUP2 SWAP1 DUP5 ADD DUP5 DUP5 ADD MCOPY PUSH0 DUP3 DUP3 ADD DUP5 ADD MSTORE PUSH1 0x1F ADD PUSH1 0x1F NOT AND ADD ADD SWAP1 JUMP JUMPDEST SWAP1 PUSH1 0x7 DUP3 LT ISZERO PUSH2 0x106F JUMPI MSTORE JUMP JUMPDEST DUP2 PUSH1 0x1F DUP3 ADD SLT ISZERO PUSH2 0xF2C JUMPI DUP1 CALLDATALOAD SWAP1 PUSH1 0x1 PUSH1 0x1 PUSH1 0x40 SHL SUB DUP3 GT PUSH2 0x1702 JUMPI PUSH1 0x40 MLOAD SWAP3 PUSH2 0x202B PUSH1 0x1F DUP5 ADD PUSH1 0x1F NOT AND PUSH1 0x20 ADD DUP6 PUSH2 0x1F05 JUMP JUMPDEST DUP3 DUP5 MSTORE PUSH1 0x20 DUP4 DUP4 ADD ADD GT PUSH2 0xF2C JUMPI DUP2 PUSH0 SWAP3 PUSH1 0x20 DUP1 SWAP4 ADD DUP4 DUP7 ADD CALLDATACOPY DUP4 ADD ADD MSTORE SWAP1 JUMP JUMPDEST PUSH1 0x1 PUSH1 0x1 PUSH1 0x40 SHL SUB DUP2 GT PUSH2 0x1702 JUMPI PUSH1 0x5 SHL PUSH1 0x20 ADD SWAP1 JUMP JUMPDEST PUSH1 0x4 CALLDATALOAD SWAP1 PUSH1 0x1 PUSH1 0x1 PUSH1 0xA0 SHL SUB DUP3 AND DUP3 SUB PUSH2 0xF2C JUMPI JUMP JUMPDEST PUSH1 0x24 CALLDATALOAD SWAP1 PUSH1 0x1 PUSH1 0x1 PUSH1 0xA0 SHL SUB DUP3 AND DUP3 SUB PUSH2 0xF2C JUMPI JUMP JUMPDEST SWAP1 PUSH1 0x40 PUSH1 0x3 NOT DUP4 ADD SLT PUSH2 0xF2C JUMPI PUSH1 0x4 CALLDATALOAD PUSH1 0x1 PUSH1 0x1 PUSH1 0xA0 SHL SUB DUP2 AND DUP2 SUB PUSH2 0xF2C JUMPI SWAP2 PUSH1 0x24 CALLDATALOAD SWAP1 PUSH1 0x1 PUSH1 0x1 PUSH1 0x40 SHL SUB DUP3 GT PUSH2 0xF2C JUMPI DUP1 PUSH1 0x23 DUP4 ADD SLT ISZERO PUSH2 0xF2C JUMPI DUP2 PUSH1 0x4 ADD CALLDATALOAD PUSH2 0x20DB DUP2 PUSH2 0x204C JUMP JUMPDEST SWAP3 PUSH2 0x20E9 PUSH1 0x40 MLOAD SWAP5 DUP6 PUSH2 0x1F05 JUMP JUMPDEST DUP2 DUP5 MSTORE PUSH1 0x24 PUSH1 0x20 DUP6 ADD SWAP3 PUSH1 0x5 SHL DUP3 ADD ADD SWAP3 DUP4 GT PUSH2 0xF2C JUMPI PUSH1 0x24 ADD SWAP1 JUMPDEST DUP3 DUP3 LT PUSH2 0x2112 JUMPI POP POP POP SWAP1 JUMP JUMPDEST DUP2 CALLDATALOAD DUP2 MSTORE PUSH1 0x20 SWAP2 DUP3 ADD SWAP2 ADD PUSH2 0x2105 JUMP JUMPDEST SWAP1 PUSH1 0x3 DUP3 LT ISZERO PUSH2 0x106F JUMPI MSTORE JUMP JUMPDEST DUP1 MLOAD DUP3 LT ISZERO PUSH2 0x1716 JUMPI PUSH1 0x20 SWAP2 PUSH1 0x5 SHL ADD ADD SWAP1 JUMP JUMPDEST ISZERO PUSH2 0x214A JUMPI JUMP JUMPDEST PUSH1 0x40 MLOAD PUSH3 0x461BCD PUSH1 0xE5 SHL DUP2 MSTORE PUSH1 0x20 PUSH1 0x4 DUP3 ADD MSTORE PUSH1 0xF PUSH1 0x24 DUP3 ADD MSTORE PUSH15 0x496E76616C69642061646472657373 PUSH1 0x88 SHL PUSH1 0x44 DUP3 ADD MSTORE PUSH1 0x64 SWAP1 REVERT JUMPDEST SWAP1 PUSH0 JUMPDEST DUP2 MLOAD DUP2 LT ISZERO PUSH2 0x21AF JUMPI PUSH2 0x219B DUP4 PUSH2 0x56B DUP4 DUP6 PUSH2 0x212F JUMP JUMPDEST PUSH2 0x21A7 JUMPI PUSH1 0x1 ADD PUSH2 0x2184 JUMP JUMPDEST POP POP POP PUSH1 0x1 SWAP1 JUMP JUMPDEST POP POP POP PUSH0 SWAP1 JUMP JUMPDEST PUSH0 NOT DUP2 EQ PUSH2 0x21C4 JUMPI PUSH1 0x1 ADD SWAP1 JUMP JUMPDEST PUSH4 0x4E487B71 PUSH1 0xE0 SHL PUSH0 MSTORE PUSH1 0x11 PUSH1 0x4 MSTORE PUSH1 0x24 PUSH0 REVERT JUMPDEST PUSH1 0x40 MLOAD PUSH2 0x21E6 PUSH1 0xE0 DUP3 PUSH2 0x1F05 JUMP JUMPDEST PUSH1 0x6 DUP2 MSTORE PUSH1 0x20 DUP2 ADD PUSH1 0xC0 CALLDATASIZE DUP3 CALLDATACOPY DUP2 MLOAD ISZERO PUSH2 0x1716 JUMPI PUSH0 SWAP1 MSTORE DUP1 MLOAD PUSH1 0x1 LT ISZERO PUSH2 0x1716 JUMPI PUSH32 0xA49807205CE4D355092EF5A8A18F56E8913CF4A201FBE287825B095693C21775 PUSH1 0x40 DUP3 ADD MSTORE DUP1 MLOAD PUSH1 0x2 LT ISZERO PUSH2 0x1716 JUMPI PUSH32 0x482648E7878E9FA54C0A2F67FFD22D00EBC37CF7A03E060E428D2AB0CD6735CC PUSH1 0x60 DUP3 ADD MSTORE DUP1 MLOAD PUSH1 0x3 LT ISZERO PUSH2 0x1716 JUMPI PUSH32 0xEDE9DCDB0CE99DC7CEC9C7BE9246AD08B37853683AD91569C187B647DDF5E21C PUSH1 0x80 DUP3 ADD MSTORE DUP1 MLOAD PUSH1 0x4 LT ISZERO PUSH2 0x1716 JUMPI PUSH32 0x58223CDFB69946630D837D40B5C366A584F0217ADA7FDDD8318F2E08603CFA22 PUSH1 0xA0 DUP3 ADD MSTORE DUP1 MLOAD PUSH1 0x5 LT ISZERO PUSH2 0x1716 JUMPI PUSH32 0x7B8BB8356A3F32F5C111FF23F050D97F08988E0883529EA7BFF3B918887A6E0E PUSH1 0xC0 DUP3 ADD MSTORE SWAP1 JUMP JUMPDEST ISZERO PUSH2 0x22F7 JUMPI JUMP JUMPDEST PUSH1 0x40 MLOAD PUSH3 0x461BCD PUSH1 0xE5 SHL DUP2 MSTORE PUSH1 0x20 PUSH1 0x4 DUP3 ADD MSTORE PUSH1 0xA PUSH1 0x24 DUP3 ADD MSTORE PUSH10 0x4E6F7420766F74696E67 PUSH1 0xB0 SHL PUSH1 0x44 DUP3 ADD MSTORE PUSH1 0x64 SWAP1 REVERT JUMPDEST CALLER PUSH0 SWAP1 DUP2 MSTORE PUSH32 0x7D7FFB7A348E1C6A02869081A26547B49160DD3DF72D1D75A570EB9B698292EC PUSH1 0x20 MSTORE PUSH1 0x40 SWAP1 KECCAK256 SLOAD PUSH1 0xFF AND ISZERO PUSH2 0x2361 JUMPI JUMP JUMPDEST PUSH4 0xE2517D3F PUSH1 0xE0 SHL PUSH0 MSTORE CALLER PUSH1 0x4 MSTORE PUSH32 0xA49807205CE4D355092EF5A8A18F56E8913CF4A201FBE287825B095693C21775 PUSH1 0x24 MSTORE PUSH1 0x44 PUSH0 REVERT JUMPDEST CALLER PUSH0 SWAP1 DUP2 MSTORE PUSH32 0xAD3228B676F7D3CD4284A5443F17F1962B36E491B30A40B2405849E597BA5FB5 PUSH1 0x20 MSTORE PUSH1 0x40 SWAP1 KECCAK256 SLOAD PUSH1 0xFF AND ISZERO PUSH2 0x23D0 JUMPI JUMP JUMPDEST PUSH4 0xE2517D3F PUSH1 0xE0 SHL PUSH0 MSTORE CALLER PUSH1 0x4 MSTORE PUSH0 PUSH1 0x24 MSTORE PUSH1 0x44 PUSH0 REVERT JUMPDEST PUSH0 DUP2 DUP2 MSTORE PUSH1 0x20 DUP2 DUP2 MSTORE PUSH1 0x40 DUP1 DUP4 KECCAK256 CALLER DUP5 MSTORE SWAP1 SWAP2 MSTORE SWAP1 KECCAK256 SLOAD PUSH1 0xFF AND ISZERO PUSH2 0x2409 JUMPI POP JUMP JUMPDEST PUSH4 0xE2517D3F PUSH1 0xE0 SHL PUSH0 MSTORE CALLER PUSH1 0x4 MSTORE PUSH1 0x24 MSTORE PUSH1 0x44 PUSH0 REVERT JUMPDEST PUSH0 DUP2 DUP2 MSTORE PUSH1 0x20 DUP2 DUP2 MSTORE PUSH1 0x40 DUP1 DUP4 KECCAK256 PUSH1 0x1 PUSH1 0x1 PUSH1 0xA0 SHL SUB DUP7 AND DUP5 MSTORE SWAP1 SWAP2 MSTORE SWAP1 KECCAK256 SLOAD PUSH1 0xFF AND PUSH2 0x24A1 JUMPI PUSH0 DUP2 DUP2 MSTORE PUSH1 0x20 DUP2 DUP2 MSTORE PUSH1 0x40 DUP1 DUP4 KECCAK256 PUSH1 0x1 PUSH1 0x1 PUSH1 0xA0 SHL SUB SWAP6 SWAP1 SWAP6 AND DUP1 DUP5 MSTORE SWAP5 SWAP1 SWAP2 MSTORE DUP2 KECCAK256 DUP1 SLOAD PUSH1 0xFF NOT AND PUSH1 0x1 OR SWAP1 SSTORE CALLER SWAP3 SWAP2 SWAP1 PUSH32 0x2F8788117E7EFF1D82E926EC794901D17C78024A50270940304540A733656F0D SWAP1 DUP1 LOG4 PUSH1 0x1 SWAP1 JUMP JUMPDEST POP POP PUSH0 SWAP1 JUMP JUMPDEST PUSH0 DUP2 DUP2 MSTORE PUSH1 0x20 DUP2 DUP2 MSTORE PUSH1 0x40 DUP1 DUP4 KECCAK256 PUSH1 0x1 PUSH1 0x1 PUSH1 0xA0 SHL SUB DUP7 AND DUP5 MSTORE SWAP1 SWAP2 MSTORE SWAP1 KECCAK256 SLOAD PUSH1 0xFF AND ISZERO PUSH2 0x24A1 JUMPI PUSH0 DUP2 DUP2 MSTORE PUSH1 0x20 DUP2 DUP2 MSTORE PUSH1 0x40 DUP1 DUP4 KECCAK256 PUSH1 0x1 PUSH1 0x1 PUSH1 0xA0 SHL SUB SWAP6 SWAP1 SWAP6 AND DUP1 DUP5 MSTORE SWAP5 SWAP1 SWAP2 MSTORE DUP2 KECCAK256 DUP1 SLOAD PUSH1 0xFF NOT AND SWAP1 SSTORE CALLER SWAP3 SWAP2 SWAP1 PUSH32 0xF6391F5C32D9C69D2A47EA670B442974B53935D1EDC7FD64EB21E047A839171B SWAP1 DUP1 LOG4 PUSH1 0x1 SWAP1 JUMP JUMPDEST SWAP2 SWAP1 DUP3 ADD DUP1 SWAP3 GT PUSH2 0x21C4 JUMPI JUMP INVALID LOG2 PUSH5 0x6970667358 0x22 SLT KECCAK256 0x26 0xB4 BALANCE 0xB8 0x28 LOG1 INVALID 0xEF 0xA7 0xC0 0x21 PUSH29 0x469DD90007F76AA475F29D338CDB7A925945AF664736F6C634300081A STOP CALLER 0x2F DUP8 DUP9 GT PUSH31 0x7EFF1D82E926EC794901D17C78024A50270940304540A733656F0D7D7FFB7A CALLVALUE DUP15 SHR PUSH11 0x2869081A26547B49160DD RETURNDATASIZE 0xF7 0x2D SAR PUSH22 0xA570EB9B698292ECAD3228B676F7D3CD4284A5443F17 CALL SWAP7 0x2B CALLDATASIZE 0xE4 SWAP2 0xB3 EXP BLOCKHASH 0xB2 BLOCKHASH PC BLOBHASH 0xE5 SWAP8 0xBA PUSH0 0xB5 "
		},
		"gasEstimates": {
			"creation": {
				"codeDepositCost": "1915600",
				"executionCost": "infinite",
				"totalCost": "infinite"
			},
			"external": {
				"ADMIN_ROLE()": "625",
				"AI_ORACLE_ROLE()": "911",
				"AI_SCORE_THRESHOLD()": "405",
				"APPROVAL_THRESHOLD()": "427",
				"DEFAULT_ADMIN_ROLE()": "782",
				"DISPUTE_RESOLVER_ROLE()": "889",
				"MAX_MILESTONES()": "493",
				"MAX_REQUESTED_AMOUNT()": "339",
				"MAX_VOTING_PERIOD()": "801",
				"MILESTONE_APPROVER_ROLE()": "757",
				"MIN_PROPOSAL_THRESHOLD()": "647",
				"MIN_VOTING_PERIOD()": "273",
				"QUORUM_PERCENTAGE()": "1021",
				"TREASURY_MANAGER_ROLE()": "999",
				"aiScoreRegistry()": "2871",
				"castVote(uint256,uint8)": "58477",
				"executeProposal(uint256)": "infinite",
				"getAllRoles()": "infinite",
				"getCurrentProposalId()": "3163",
				"getProposal(uint256)": "infinite",
				"getRoleAdmin(bytes32)": "2482",
				"getRoleCount(address)": "infinite",
				"getVotingPower(address)": "3540",
				"grantMultipleRoles(address,bytes32[])": "infinite",
				"grantRole(bytes32,address)": "33467",
				"hasAnyRole(address,bytes32[])": "infinite",
				"hasRole(bytes32,address)": "3046",
				"hasVoted(uint256,address)": "2804",
				"pause()": "28142",
				"paused()": "2674",
				"proposals(uint256)": "infinite",
				"proposerReputation(address)": "2574",
				"renounceRole(bytes32,address)": "29057",
				"revokeMultipleRoles(address,bytes32[])": "infinite",
				"revokeRole(bytes32,address)": "34058",
				"submitProposal((string,string,string,uint256,string[],uint256[],uint256))": "infinite",
				"supportsInterface(bytes4)": "307",
				"treasuryEscrow()": "2378",
				"unpause()": "27916",
				"updateAIScoreRegistry(address)": "28230",
				"updateTreasuryEscrow(address)": "28427",
				"voterChoices(uint256,address)": "3356"
			}
		},
		"methodIdentifiers": {
			"ADMIN_ROLE()": "75b238fc",
			"AI_ORACLE_ROLE()": "c601f7af",
			"AI_SCORE_THRESHOLD()": "39c854fa",
			"APPROVAL_THRESHOLD()": "3ab34290",
			"DEFAULT_ADMIN_ROLE()": "a217fddf",
			"DISPUTE_RESOLVER_ROLE()": "bfe42a37",
			"MAX_MILESTONES()": "4c05abeb",
			"MAX_REQUESTED_AMOUNT()": "2d75ae0e",
			"MAX_VOTING_PERIOD()": "a64e024a",
			"MILESTONE_APPROVER_ROLE()": "a02d72fb",
			"MIN_PROPOSAL_THRESHOLD()": "791f5d23",
			"MIN_VOTING_PERIOD()": "215809ca",
			"QUORUM_PERCENTAGE()": "ee8a7c15",
			"TREASURY_MANAGER_ROLE()": "ebdf690f",
			"aiScoreRegistry()": "96479e19",
			"castVote(uint256,uint8)": "56781388",
			"executeProposal(uint256)": "0d61b519",
			"getAllRoles()": "f2bcac3d",
			"getCurrentProposalId()": "fe10226d",
			"getProposal(uint256)": "c7f758a8",
			"getRoleAdmin(bytes32)": "248a9ca3",
			"getRoleCount(address)": "aca5a8a7",
			"getVotingPower(address)": "bb4d4436",
			"grantMultipleRoles(address,bytes32[])": "91b9f9d8",
			"grantRole(bytes32,address)": "2f2ff15d",
			"hasAnyRole(address,bytes32[])": "68ca78f9",
			"hasRole(bytes32,address)": "91d14854",
			"hasVoted(uint256,address)": "43859632",
			"pause()": "8456cb59",
			"paused()": "5c975abb",
			"proposals(uint256)": "013cf08b",
			"proposerReputation(address)": "2d142b76",
			"renounceRole(bytes32,address)": "36568abe",
			"revokeMultipleRoles(address,bytes32[])": "4fe9d1f5",
			"revokeRole(bytes32,address)": "d547741f",
			"submitProposal((string,string,string,uint256,string[],uint256[],uint256))": "08d256af",
			"supportsInterface(bytes4)": "01ffc9a7",
			"treasuryEscrow()": "1d9dfd4e",
			"unpause()": "3f4ba83a",
			"updateAIScoreRegistry(address)": "6807fc21",
			"updateTreasuryEscrow(address)": "abd98fb0",
			"voterChoices(uint256,address)": "db994b4f"
		}
	},
	"abi": [
		{
			"inputs": [
				{
					"internalType": "address",
					"name": "_aiScoreRegistry",
					"type": "address"
				},
				{
					"internalType": "address",
					"name": "_treasuryEscrow",
					"type": "address"
				}
			],
			"stateMutability": "nonpayable",
			"type": "constructor"
		},
		{
			"inputs": [],
			"name": "AccessControlBadConfirmation",
			"type": "error"
		},
		{
			"inputs": [
				{
					"internalType": "address",
					"name": "account",
					"type": "address"
				},
				{
					"internalType": "bytes32",
					"name": "neededRole",
					"type": "bytes32"
				}
			],
			"name": "AccessControlUnauthorizedAccount",
			"type": "error"
		},
		{
			"anonymous": false,
			"inputs": [
				{
					"indexed": true,
					"internalType": "uint256",
					"name": "proposalId",
					"type": "uint256"
				},
				{
					"indexed": false,
					"internalType": "uint256",
					"name": "score",
					"type": "uint256"
				},
				{
					"indexed": false,
					"internalType": "string",
					"name": "justification",
					"type": "string"
				}
			],
			"name": "AIScoreProcessed",
			"type": "event"
		},
		{
			"anonymous": false,
			"inputs": [
				{
					"indexed": false,
					"internalType": "address",
					"name": "newRegistry",
					"type": "address"
				}
			],
			"name": "AIScoreRegistryUpdated",
			"type": "event"
		},
		{
			"anonymous": false,
			"inputs": [
				{
					"indexed": false,
					"internalType": "address",
					"name": "account",
					"type": "address"
				}
			],
			"name": "Paused",
			"type": "event"
		},
		{
			"anonymous": false,
			"inputs": [
				{
					"indexed": true,
					"internalType": "uint256",
					"name": "proposalId",
					"type": "uint256"
				},
				{
					"indexed": false,
					"internalType": "uint256",
					"name": "amount",
					"type": "uint256"
				}
			],
			"name": "ProposalApproved",
			"type": "event"
		},
		{
			"anonymous": false,
			"inputs": [
				{
					"indexed": true,
					"internalType": "uint256",
					"name": "proposalId",
					"type": "uint256"
				},
				{
					"indexed": true,
					"internalType": "address",
					"name": "proposer",
					"type": "address"
				},
				{
					"indexed": false,
					"internalType": "uint256",
					"name": "timestamp",
					"type": "uint256"
				}
			],
			"name": "ProposalCancelled",
			"type": "event"
		},
		{
			"anonymous": false,
			"inputs": [
				{
					"indexed": true,
					"internalType": "uint256",
					"name": "proposalId",
					"type": "uint256"
				},
				{
					"indexed": false,
					"internalType": "enum IProposalRegistry.ProposalStatus",
					"name": "status",
					"type": "uint8"
				}
			],
			"name": "ProposalExecuted",
			"type": "event"
		},
		{
			"anonymous": false,
			"inputs": [
				{
					"indexed": true,
					"internalType": "uint256",
					"name": "proposalId",
					"type": "uint256"
				},
				{
					"indexed": false,
					"internalType": "string",
					"name": "reason",
					"type": "string"
				}
			],
			"name": "ProposalRejected",
			"type": "event"
		},
		{
			"anonymous": false,
			"inputs": [
				{
					"indexed": true,
					"internalType": "uint256",
					"name": "proposalId",
					"type": "uint256"
				},
				{
					"indexed": true,
					"internalType": "address",
					"name": "proposer",
					"type": "address"
				},
				{
					"indexed": false,
					"internalType": "string",
					"name": "title",
					"type": "string"
				},
				{
					"indexed": false,
					"internalType": "uint256",
					"name": "requestedAmount",
					"type": "uint256"
				},
				{
					"indexed": false,
					"internalType": "string",
					"name": "ipfsCID",
					"type": "string"
				},
				{
					"indexed": false,
					"internalType": "uint256",
					"name": "timestamp",
					"type": "uint256"
				}
			],
			"name": "ProposalSubmitted",
			"type": "event"
		},
		{
			"anonymous": false,
			"inputs": [
				{
					"indexed": true,
					"internalType": "bytes32",
					"name": "role",
					"type": "bytes32"
				},
				{
					"indexed": true,
					"internalType": "bytes32",
					"name": "previousAdminRole",
					"type": "bytes32"
				},
				{
					"indexed": true,
					"internalType": "bytes32",
					"name": "newAdminRole",
					"type": "bytes32"
				}
			],
			"name": "RoleAdminChanged",
			"type": "event"
		},
		{
			"anonymous": false,
			"inputs": [
				{
					"indexed": true,
					"internalType": "bytes32",
					"name": "role",
					"type": "bytes32"
				},
				{
					"indexed": true,
					"internalType": "address",
					"name": "account",
					"type": "address"
				},
				{
					"indexed": true,
					"internalType": "address",
					"name": "sender",
					"type": "address"
				}
			],
			"name": "RoleGranted",
			"type": "event"
		},
		{
			"anonymous": false,
			"inputs": [
				{
					"indexed": true,
					"internalType": "bytes32",
					"name": "role",
					"type": "bytes32"
				},
				{
					"indexed": true,
					"internalType": "address",
					"name": "account",
					"type": "address"
				},
				{
					"indexed": true,
					"internalType": "address",
					"name": "sender",
					"type": "address"
				}
			],
			"name": "RoleRevoked",
			"type": "event"
		},
		{
			"anonymous": false,
			"inputs": [
				{
					"indexed": false,
					"internalType": "address",
					"name": "newEscrow",
					"type": "address"
				}
			],
			"name": "TreasuryEscrowUpdated",
			"type": "event"
		},
		{
			"anonymous": false,
			"inputs": [
				{
					"indexed": false,
					"internalType": "address",
					"name": "account",
					"type": "address"
				}
			],
			"name": "Unpaused",
			"type": "event"
		},
		{
			"anonymous": false,
			"inputs": [
				{
					"indexed": true,
					"internalType": "uint256",
					"name": "proposalId",
					"type": "uint256"
				},
				{
					"indexed": true,
					"internalType": "address",
					"name": "voter",
					"type": "address"
				},
				{
					"indexed": false,
					"internalType": "enum IProposalRegistry.VoteType",
					"name": "voteType",
					"type": "uint8"
				},
				{
					"indexed": false,
					"internalType": "uint256",
					"name": "weight",
					"type": "uint256"
				}
			],
			"name": "VoteCast",
			"type": "event"
		},
		{
			"anonymous": false,
			"inputs": [
				{
					"indexed": true,
					"internalType": "uint256",
					"name": "proposalId",
					"type": "uint256"
				},
				{
					"indexed": false,
					"internalType": "uint256",
					"name": "votingStart",
					"type": "uint256"
				},
				{
					"indexed": false,
					"internalType": "uint256",
					"name": "votingEnd",
					"type": "uint256"
				}
			],
			"name": "VotingStarted",
			"type": "event"
		},
		{
			"inputs": [],
			"name": "ADMIN_ROLE",
			"outputs": [
				{
					"internalType": "bytes32",
					"name": "",
					"type": "bytes32"
				}
			],
			"stateMutability": "view",
			"type": "function"
		},
		{
			"inputs": [],
			"name": "AI_ORACLE_ROLE",
			"outputs": [
				{
					"internalType": "bytes32",
					"name": "",
					"type": "bytes32"
				}
			],
			"stateMutability": "view",
			"type": "function"
		},
		{
			"inputs": [],
			"name": "AI_SCORE_THRESHOLD",
			"outputs": [
				{
					"internalType": "uint256",
					"name": "",
					"type": "uint256"
				}
			],
			"stateMutability": "view",
			"type": "function"
		},
		{
			"inputs": [],
			"name": "APPROVAL_THRESHOLD",
			"outputs": [
				{
					"internalType": "uint256",
					"name": "",
					"type": "uint256"
				}
			],
			"stateMutability": "view",
			"type": "function"
		},
		{
			"inputs": [],
			"name": "DEFAULT_ADMIN_ROLE",
			"outputs": [
				{
					"internalType": "bytes32",
					"name": "",
					"type": "bytes32"
				}
			],
			"stateMutability": "view",
			"type": "function"
		},
		{
			"inputs": [],
			"name": "DISPUTE_RESOLVER_ROLE",
			"outputs": [
				{
					"internalType": "bytes32",
					"name": "",
					"type": "bytes32"
				}
			],
			"stateMutability": "view",
			"type": "function"
		},
		{
			"inputs": [],
			"name": "MAX_MILESTONES",
			"outputs": [
				{
					"internalType": "uint256",
					"name": "",
					"type": "uint256"
				}
			],
			"stateMutability": "view",
			"type": "function"
		},
		{
			"inputs": [],
			"name": "MAX_REQUESTED_AMOUNT",
			"outputs": [
				{
					"internalType": "uint256",
					"name": "",
					"type": "uint256"
				}
			],
			"stateMutability": "view",
			"type": "function"
		},
		{
			"inputs": [],
			"name": "MAX_VOTING_PERIOD",
			"outputs": [
				{
					"internalType": "uint256",
					"name": "",
					"type": "uint256"
				}
			],
			"stateMutability": "view",
			"type": "function"
		},
		{
			"inputs": [],
			"name": "MILESTONE_APPROVER_ROLE",
			"outputs": [
				{
					"internalType": "bytes32",
					"name": "",
					"type": "bytes32"
				}
			],
			"stateMutability": "view",
			"type": "function"
		},
		{
			"inputs": [],
			"name": "MIN_PROPOSAL_THRESHOLD",
			"outputs": [
				{
					"internalType": "uint256",
					"name": "",
					"type": "uint256"
				}
			],
			"stateMutability": "view",
			"type": "function"
		},
		{
			"inputs": [],
			"name": "MIN_VOTING_PERIOD",
			"outputs": [
				{
					"internalType": "uint256",
					"name": "",
					"type": "uint256"
				}
			],
			"stateMutability": "view",
			"type": "function"
		},
		{
			"inputs": [],
			"name": "QUORUM_PERCENTAGE",
			"outputs": [
				{
					"internalType": "uint256",
					"name": "",
					"type": "uint256"
				}
			],
			"stateMutability": "view",
			"type": "function"
		},
		{
			"inputs": [],
			"name": "TREASURY_MANAGER_ROLE",
			"outputs": [
				{
					"internalType": "bytes32",
					"name": "",
					"type": "bytes32"
				}
			],
			"stateMutability": "view",
			"type": "function"
		},
		{
			"inputs": [],
			"name": "aiScoreRegistry",
			"outputs": [
				{
					"internalType": "contract IAIScoreRegistry",
					"name": "",
					"type": "address"
				}
			],
			"stateMutability": "view",
			"type": "function"
		},
		{
			"inputs": [
				{
					"internalType": "uint256",
					"name": "proposalId",
					"type": "uint256"
				},
				{
					"internalType": "enum IProposalRegistry.VoteType",
					"name": "voteType",
					"type": "uint8"
				}
			],
			"name": "castVote",
			"outputs": [],
			"stateMutability": "nonpayable",
			"type": "function"
		},
		{
			"inputs": [
				{
					"internalType": "uint256",
					"name": "proposalId",
					"type": "uint256"
				}
			],
			"name": "executeProposal",
			"outputs": [],
			"stateMutability": "nonpayable",
			"type": "function"
		},
		{
			"inputs": [],
			"name": "getAllRoles",
			"outputs": [
				{
					"internalType": "bytes32[]",
					"name": "roles",
					"type": "bytes32[]"
				}
			],
			"stateMutability": "pure",
			"type": "function"
		},
		{
			"inputs": [],
			"name": "getCurrentProposalId",
			"outputs": [
				{
					"internalType": "uint256",
					"name": "",
					"type": "uint256"
				}
			],
			"stateMutability": "view",
			"type": "function"
		},
		{
			"inputs": [
				{
					"internalType": "uint256",
					"name": "proposalId",
					"type": "uint256"
				}
			],
			"name": "getProposal",
			"outputs": [
				{
					"internalType": "uint256",
					"name": "id",
					"type": "uint256"
				},
				{
					"internalType": "address",
					"name": "proposer",
					"type": "address"
				},
				{
					"internalType": "string",
					"name": "title",
					"type": "string"
				},
				{
					"internalType": "string",
					"name": "summary",
					"type": "string"
				},
				{
					"internalType": "uint256",
					"name": "requestedAmount",
					"type": "uint256"
				},
				{
					"internalType": "enum IProposalRegistry.ProposalStatus",
					"name": "status",
					"type": "uint8"
				},
				{
					"internalType": "uint256",
					"name": "aiScore",
					"type": "uint256"
				},
				{
					"internalType": "uint256",
					"name": "votingStart",
					"type": "uint256"
				},
				{
					"internalType": "uint256",
					"name": "votingEnd",
					"type": "uint256"
				},
				{
					"internalType": "uint256",
					"name": "forVotes",
					"type": "uint256"
				},
				{
					"internalType": "uint256",
					"name": "againstVotes",
					"type": "uint256"
				},
				{
					"internalType": "uint256",
					"name": "abstainVotes",
					"type": "uint256"
				}
			],
			"stateMutability": "view",
			"type": "function"
		},
		{
			"inputs": [
				{
					"internalType": "bytes32",
					"name": "role",
					"type": "bytes32"
				}
			],
			"name": "getRoleAdmin",
			"outputs": [
				{
					"internalType": "bytes32",
					"name": "",
					"type": "bytes32"
				}
			],
			"stateMutability": "view",
			"type": "function"
		},
		{
			"inputs": [
				{
					"internalType": "address",
					"name": "account",
					"type": "address"
				}
			],
			"name": "getRoleCount",
			"outputs": [
				{
					"internalType": "uint256",
					"name": "roleCount",
					"type": "uint256"
				}
			],
			"stateMutability": "view",
			"type": "function"
		},
		{
			"inputs": [
				{
					"internalType": "address",
					"name": "account",
					"type": "address"
				}
			],
			"name": "getVotingPower",
			"outputs": [
				{
					"internalType": "uint256",
					"name": "",
					"type": "uint256"
				}
			],
			"stateMutability": "view",
			"type": "function"
		},
		{
			"inputs": [
				{
					"internalType": "address",
					"name": "account",
					"type": "address"
				},
				{
					"internalType": "bytes32[]",
					"name": "roles",
					"type": "bytes32[]"
				}
			],
			"name": "grantMultipleRoles",
			"outputs": [],
			"stateMutability": "nonpayable",
			"type": "function"
		},
		{
			"inputs": [
				{
					"internalType": "bytes32",
					"name": "role",
					"type": "bytes32"
				},
				{
					"internalType": "address",
					"name": "account",
					"type": "address"
				}
			],
			"name": "grantRole",
			"outputs": [],
			"stateMutability": "nonpayable",
			"type": "function"
		},
		{
			"inputs": [
				{
					"internalType": "address",
					"name": "account",
					"type": "address"
				},
				{
					"internalType": "bytes32[]",
					"name": "roles",
					"type": "bytes32[]"
				}
			],
			"name": "hasAnyRole",
			"outputs": [
				{
					"internalType": "bool",
					"name": "",
					"type": "bool"
				}
			],
			"stateMutability": "view",
			"type": "function"
		},
		{
			"inputs": [
				{
					"internalType": "bytes32",
					"name": "role",
					"type": "bytes32"
				},
				{
					"internalType": "address",
					"name": "account",
					"type": "address"
				}
			],
			"name": "hasRole",
			"outputs": [
				{
					"internalType": "bool",
					"name": "",
					"type": "bool"
				}
			],
			"stateMutability": "view",
			"type": "function"
		},
		{
			"inputs": [
				{
					"internalType": "uint256",
					"name": "",
					"type": "uint256"
				},
				{
					"internalType": "address",
					"name": "",
					"type": "address"
				}
			],
			"name": "hasVoted",
			"outputs": [
				{
					"internalType": "bool",
					"name": "",
					"type": "bool"
				}
			],
			"stateMutability": "view",
			"type": "function"
		},
		{
			"inputs": [],
			"name": "pause",
			"outputs": [],
			"stateMutability": "nonpayable",
			"type": "function"
		},
		{
			"inputs": [],
			"name": "paused",
			"outputs": [
				{
					"internalType": "bool",
					"name": "",
					"type": "bool"
				}
			],
			"stateMutability": "view",
			"type": "function"
		},
		{
			"inputs": [
				{
					"internalType": "uint256",
					"name": "",
					"type": "uint256"
				}
			],
			"name": "proposals",
			"outputs": [
				{
					"internalType": "uint256",
					"name": "id",
					"type": "uint256"
				},
				{
					"internalType": "address",
					"name": "proposer",
					"type": "address"
				},
				{
					"internalType": "string",
					"name": "title",
					"type": "string"
				},
				{
					"internalType": "string",
					"name": "summary",
					"type": "string"
				},
				{
					"internalType": "string",
					"name": "ipfsCID",
					"type": "string"
				},
				{
					"internalType": "uint256",
					"name": "requestedAmount",
					"type": "uint256"
				},
				{
					"internalType": "enum IProposalRegistry.ProposalStatus",
					"name": "status",
					"type": "uint8"
				},
				{
					"internalType": "uint256",
					"name": "submissionTime",
					"type": "uint256"
				},
				{
					"internalType": "uint256",
					"name": "votingPeriod",
					"type": "uint256"
				},
				{
					"internalType": "uint256",
					"name": "votingStart",
					"type": "uint256"
				},
				{
					"internalType": "uint256",
					"name": "votingEnd",
					"type": "uint256"
				},
				{
					"internalType": "uint256",
					"name": "forVotes",
					"type": "uint256"
				},
				{
					"internalType": "uint256",
					"name": "againstVotes",
					"type": "uint256"
				},
				{
					"internalType": "uint256",
					"name": "abstainVotes",
					"type": "uint256"
				},
				{
					"internalType": "uint256",
					"name": "aiScore",
					"type": "uint256"
				},
				{
					"internalType": "string",
					"name": "aiJustification",
					"type": "string"
				},
				{
					"internalType": "uint256",
					"name": "totalSupplyAtStart",
					"type": "uint256"
				}
			],
			"stateMutability": "view",
			"type": "function"
		},
		{
			"inputs": [
				{
					"internalType": "address",
					"name": "",
					"type": "address"
				}
			],
			"name": "proposerReputation",
			"outputs": [
				{
					"internalType": "uint256",
					"name": "",
					"type": "uint256"
				}
			],
			"stateMutability": "view",
			"type": "function"
		},
		{
			"inputs": [
				{
					"internalType": "bytes32",
					"name": "role",
					"type": "bytes32"
				},
				{
					"internalType": "address",
					"name": "callerConfirmation",
					"type": "address"
				}
			],
			"name": "renounceRole",
			"outputs": [],
			"stateMutability": "nonpayable",
			"type": "function"
		},
		{
			"inputs": [
				{
					"internalType": "address",
					"name": "account",
					"type": "address"
				},
				{
					"internalType": "bytes32[]",
					"name": "roles",
					"type": "bytes32[]"
				}
			],
			"name": "revokeMultipleRoles",
			"outputs": [],
			"stateMutability": "nonpayable",
			"type": "function"
		},
		{
			"inputs": [
				{
					"internalType": "bytes32",
					"name": "role",
					"type": "bytes32"
				},
				{
					"internalType": "address",
					"name": "account",
					"type": "address"
				}
			],
			"name": "revokeRole",
			"outputs": [],
			"stateMutability": "nonpayable",
			"type": "function"
		},
		{
			"inputs": [
				{
					"components": [
						{
							"internalType": "string",
							"name": "title",
							"type": "string"
						},
						{
							"internalType": "string",
							"name": "summary",
							"type": "string"
						},
						{
							"internalType": "string",
							"name": "ipfsCID",
							"type": "string"
						},
						{
							"internalType": "uint256",
							"name": "requestedAmount",
							"type": "uint256"
						},
						{
							"internalType": "string[]",
							"name": "milestoneDescriptions",
							"type": "string[]"
						},
						{
							"internalType": "uint256[]",
							"name": "milestoneAmounts",
							"type": "uint256[]"
						},
						{
							"internalType": "uint256",
							"name": "votingPeriod",
							"type": "uint256"
						}
					],
					"internalType": "struct IProposalRegistry.ProposalInput",
					"name": "input",
					"type": "tuple"
				}
			],
			"name": "submitProposal",
			"outputs": [
				{
					"internalType": "uint256",
					"name": "",
					"type": "uint256"
				}
			],
			"stateMutability": "payable",
			"type": "function"
		},
		{
			"inputs": [
				{
					"internalType": "bytes4",
					"name": "interfaceId",
					"type": "bytes4"
				}
			],
			"name": "supportsInterface",
			"outputs": [
				{
					"internalType": "bool",
					"name": "",
					"type": "bool"
				}
			],
			"stateMutability": "view",
			"type": "function"
		},
		{
			"inputs": [],
			"name": "treasuryEscrow",
			"outputs": [
				{
					"internalType": "contract ITreasuryEscrow",
					"name": "",
					"type": "address"
				}
			],
			"stateMutability": "view",
			"type": "function"
		},
		{
			"inputs": [],
			"name": "unpause",
			"outputs": [],
			"stateMutability": "nonpayable",
			"type": "function"
		},
		{
			"inputs": [
				{
					"internalType": "address",
					"name": "newRegistry",
					"type": "address"
				}
			],
			"name": "updateAIScoreRegistry",
			"outputs": [],
			"stateMutability": "nonpayable",
			"type": "function"
		},
		{
			"inputs": [
				{
					"internalType": "address",
					"name": "newEscrow",
					"type": "address"
				}
			],
			"name": "updateTreasuryEscrow",
			"outputs": [],
			"stateMutability": "nonpayable",
			"type": "function"
		},
		{
			"inputs": [
				{
					"internalType": "uint256",
					"name": "",
					"type": "uint256"
				},
				{
					"internalType": "address",
					"name": "",
					"type": "address"
				}
			],
			"name": "voterChoices",
			"outputs": [
				{
					"internalType": "enum IProposalRegistry.VoteType",
					"name": "",
					"type": "uint8"
				}
			],
			"stateMutability": "view",
			"type": "function"
		}
	]
}