{
	"data": {
		"bytecode": {
			"linkReferences": {},
			"object": "6080604052346200006e57620000153362000072565b506001805560ff198060025416600255620000303362000072565b506200003c33620000f0565b50620000483362000190565b50335f526005602052600160405f20918254161790556040516128d490816200022c8239f35b5f80fd5b6001600160a01b03165f8181527fad3228b676f7d3cd4284a5443f17f1962b36e491b30a40b2405849e597ba5fb5602052604081205490919060ff16620000ec57818052816020526040822081835260205260408220600160ff1982541617905533915f8051602062002b008339815191528180a4600190565b5090565b6001600160a01b03165f8181527f7d7ffb7a348e1c6a02869081a26547b49160dd3df72d1d75a570eb9b698292ec60205260408120549091907fa49807205ce4d355092ef5a8a18f56e8913cf4a201fbe287825b095693c217759060ff166200018b57808352826020526040832082845260205260408320600160ff198254161790555f8051602062002b00833981519152339380a4600190565b505090565b6001600160a01b03165f8181527f5b444936b1af04ffee1fe3046e0c1ce51d425198d231b995f86357e304f1220860205260408120549091907fede9dcdb0ce99dc7cec9c7be9246ad08b37853683ad91569c187b647ddf5e21c9060ff166200018b57808352826020526040832082845260205260408320600160ff198254161790555f8051602062002b00833981519152339380a460019056fe6080806040526004361015610012575f80fd5b5f3560e01c90816301ffc9a714611e435750806320913da514611b66578063233f625c14611b45578063248a9ca314611b195780632f2ff15d14611ae257806336568abe14611a9b57806336c47f5f146118be5780633f4ba83a1461182b57806340a5833d146115685780634c05abeb1461154d5780634fe9d1f5146114fd5780635312ea8e1461148557806356f800f0146113bc5780635c975abb1461139a57806368ca78f91461137757806375b238fc1461133d5780637d19e596146112ab57806383273cd11461128e5780638456cb5914611235578063898e8cfe14610f785780638acd2fe714610f5b5780638e0eac0f14610f295780638ed9895c14610e295780639011f8fe14610e0c57806390c0616b14610dcf57806391b9f9d814610d7457806391d1485414610d2c578063a02d72fb14610cf2578063a217fddf14610cd8578063a7cbdf5614610c2a578063aca5a8a714610b97578063bfe42a3714610b5d578063c601f7af14610b23578063c781aa4114610b06578063c8692e3f14610ad2578063d2af2bcb146108f2578063d547741f146108b4578063e2c41dbc14610885578063ebdf690f1461084b578063f0d1dc001461082e578063f166bc09146105bd578063f2bcac3d146105635763faa33920146101f5575f80fd5b608036600319011261055f5760043561020c611eac565b9060449182359260649384359261022161211a565b6102296122ec565b610231612330565b8415610526576001600160a01b03169485156104ef57610252821515612285565b831515806104e4575b156104a357845f526020926003845260ff600960405f2001541661046a5766038d7ea4c6800080840180851161041c57341061043057833411610406575b508247106103b4575050835f526003825260405f2084815560018101866bffffffffffffffffffffffff60a01b8254161790558160028201555f600382015583600482015560016009600683019260ff19938481541690554260078201555f60088201550191825416179055845f526004825260405f2092835492680100000000000000008410156103a0576001840180865584101561038c57856040947fb357254b93527e63d7a8b4c8bfd45a0484888fc3ae105197566af8fa8f5a9e7e965f52825f20015561036c836006546122d1565b60065561037a6008546122de565b6008558351928352820152a360018055005b634e487b7160e01b5f52603260045260245ffd5b634e487b7160e01b5f52604160045260245ffd5b667465722066656560c81b6084927f496e73756666696369656e742074726561737572792062616c616e636520616686936040519462461bcd60e51b8652600486015260276024860152840152820152fd5b60065490810180911161041c576006555f610299565b634e487b7160e01b5f52601160045260245ffd5b5074125b9cdd59999a58da595b9d08161192481cd95b9d605a1b84916040519262461bcd60e51b8452600484015260156024840152820152fd5b74457363726f7720616c72656164792065786973747360581b84916040519262461bcd60e51b8452600484015260156024840152820152fd5b60405162461bcd60e51b815260206004820152601760248201527f496e76616c6964206d696c6573746f6e6520636f756e7400000000000000000081850152fd5b50600a84111561025b565b60405162461bcd60e51b8152602060048201526013602482015272496e76616c69642062656e656669636961727960681b81850152fd5b60405162461bcd60e51b8152602060048201526013602482015272125b9d985b1a59081c1c9bdc1bdcd85b081251606a1b818501528690fd5b5f80fd5b3461055f575f36600319011261055f5761057b612761565b60405180916020808301818452825180915281604085019301915f5b8281106105a657505050500390f35b835185528695509381019392810192600101610597565b3461055f57608036600319011261055f5767ffffffffffffffff60443560243560043560643584811161055f576105f8903690600401611f16565b9061060161211a565b805f5260039260209184835261062060ff600960405f20015416612386565b5f5283825260405f20610638600482015483106123ca565b610643861515612285565b8351156107f25760ff60068201541691858310156107de5761066760059315612416565b5f5201815260405f209384546107a15784556001908185019280519687116103a0576106938454612456565b601f811161075b575b5081601f88116001146106f4575095805f959493819360059988946106e9575b50501b91851990851b1c19161790555b60028301805460ff1916905582015501805460ff60a01b19169055005b0151925089806106bc565b9190601f198816855f52835f20935f905b828210610744575050915f96959493918960059a941061072d575b505050811b0190556106cc565b0151861960f884881b161c19169055878080610720565b808786978294978701518155019601940190610705565b845f52825f20601f890160051c810191848a10610797575b601f0160051c019084905b82811061078c57505061069c565b5f815501849061077e565b9091508190610773565b60405162461bcd60e51b8152600481018390526015602482015274135a5b195cdd1bdb9948185b1c9958591e481cd95d605a1b6044820152606490fd5b634e487b7160e01b5f52602160045260245ffd5b60405162461bcd60e51b815260048101849052601460248201527311195cd8dc9a5c1d1a5bdb881c995c5d5a5c995960621b6044820152606490fd5b3461055f575f36600319011261055f576020604051621275008152f35b3461055f575f36600319011261055f5760206040517fede9dcdb0ce99dc7cec9c7be9246ad08b37853683ad91569c187b647ddf5e21c8152f35b5f36600319011261055f5761089861211a565b6108a3341515612285565b6108af346006546122d1565b600655005b3461055f57604036600319011261055f576108f06004356108d3611eac565b90805f525f6020526108eb600160405f200154612175565b612212565b005b3461055f57604036600319011261055f5760043560243567ffffffffffffffff811161055f57610926903690600401611f16565b61092e612068565b815f52600360205261094960ff600960405f20015416612386565b610951612330565b815f52600360205260405f20906006820180549260ff841660038110156107de5761097c9015612416565b825115610a8d57610998816003600280940154910154906125e8565b9360ff19161790556109ab600854612665565b600855816109fb575b7f1ba7c32761a402cb7df31b6d4bf190a3d8d3487600efb7090cee21b9dfcfbd41916109f2604051928392835260406020840152604083019061202a565b0390a260018055005b610a07824710156125a7565b5f80808085335af1610a176125f5565b5015610a555781610a4b7f1ba7c32761a402cb7df31b6d4bf190a3d8d3487600efb7090cee21b9dfcfbd41936006546125e8565b60065591506109b4565b60405162461bcd60e51b815260206004820152601060248201526f11985a5b1959081d1bc81c99599d5b9960821b6044820152606490fd5b60405162461bcd60e51b815260206004820152601c60248201527f43616e63656c6c6174696f6e20726561736f6e207265717569726564000000006044820152606490fd5b3461055f575f36600319011261055f5760806006546007546008544791604051938452602084015260408301526060820152f35b3461055f575f36600319011261055f576020600854604051908152f35b3461055f575f36600319011261055f5760206040517f482648e7878e9fa54c0a2f67ffd22d00ebc37cf7a03e060e428d2ab0cd6735cc8152f35b3461055f575f36600319011261055f5760206040517f7b8bb8356a3f32f5c111ff23f050d97f08988e0883529ea7bff3b918887a6e0e8152f35b3461055f57602036600319011261055f57610bb0611ec2565b610bb8612761565b5f915f5b8251811015610c1f57610bf782610bd38386612712565b515f525f60205260405f209060018060a01b03165f5260205260ff60405f20541690565b610c0a575b610c05906122de565b610bbc565b92610c17610c05916122de565b939050610bfc565b602084604051908152f35b3461055f5760208060031936011261055f576001600160a01b03610c4c611ec2565b165f526004815260405f20604051908183825491828152019081925f52845f20905f5b86828210610cc4578686610c8582880383611ed8565b60405192839281840190828552518091526040840192915f5b828110610cad57505050500390f35b835185528695509381019392810192600101610c9e565b835485529093019260019283019201610c6f565b3461055f575f36600319011261055f5760206040515f8152f35b3461055f575f36600319011261055f5760206040517f58223cdfb69946630d837d40b5c366a584f0217ada7fddd8318f2e08603cfa228152f35b3461055f57604036600319011261055f57610d45611eac565b6004355f525f60205260405f209060018060a01b03165f52602052602060ff60405f2054166040519015158152f35b3461055f57610d8236611f92565b610d8a6120e1565b5f5b81518110156108f05780610dc484610da7610dca9486612712565b51805f525f602052610dbf600160405f200154612175565b612196565b506122de565b610d8c565b3461055f57602036600319011261055f576001600160a01b03610df0611ec2565b165f526005602052602060ff60405f2054166040519015158152f35b3461055f575f36600319011261055f576020600654604051908152f35b3461055f57610e3736611e96565b90805f526003602052610e5360ff600960405f20015416612386565b805f526003602052610e6d600460405f20015483106123ca565b5f526003602052600560405f2001905f5260205260405f208054610f2560ff600284015416600384015460ff610efe600587015493610eae60018901612671565b97610ec76006610ec060048401612671565b9201612671565b94610ee46040519a8b9a8b526101008060208d01528b019061202a565b92151560408a01526060890152878203608089015261202a565b9260018060a01b03811660a087015260a01c16151560c085015283820360e085015261202a565b0390f35b3461055f57602036600319011261055f576004355f526003602052602060ff600960405f200154166040519015158152f35b3461055f575f36600319011261055f57602060405162093a808152f35b3461055f57610f8636611f5c565b825f93929352600390602091808352610fa860ff600960405f20015416612386565b835f5280835260019060018060a01b038260405f2001541633036111fe57610fce6122ec565b845f5280845260405f20610fe7600482015488106123ca565b60ff600682015416828110156107de576110019015612416565b8351156111c057600590875f5201845260405f20916110228354151561248e565b61103360ff600285015416156124ce565b61104760ff600585015460a01c161561251a565b600483019184519167ffffffffffffffff83116103a0576110688454612456565b601f811161117a575b5086601f84116001146110f057926110da94928180937f415965c4fce7c71fec8f1b1a363d7a50b0ae6c310c06d0d275717068136a83039a9998965f946110e5575b501b925f19911b1c19161790555b549160606040519485948552840152606083019061202a565b5f60408301520390a3005b89015193508d6110b3565b909291601f19831691855f52885f20925f5b8181106111655750917f415965c4fce7c71fec8f1b1a363d7a50b0ae6c310c06d0d275717068136a8303999897959391856110da9896941061114c575b505050811b0190556110c1565b8801519060f8845f19921b161c191690558a808061113f565b89830151855593860193918a01918a01611102565b845f52875f20601f850160051c8101918986106111b6575b601f0160051c019082905b8281106111ab575050611071565b5f815501829061119d565b9091508190611192565b60405162461bcd60e51b8152600481018690526016602482015275115d9a59195b98d94812541194c81c995c5d5a5c995960521b6044820152606490fd5b60405162461bcd60e51b815260048101859052600f60248201526e4e6f742062656e656669636961727960881b6044820152606490fd5b3461055f575f36600319011261055f5761124d612068565b6112556122ec565b600160ff1960025416176002557f62e78cea01bee320cd4e420270b5ea74000d11b0c9f74754ebdbfc544b05a2586020604051338152a1005b3461055f575f36600319011261055f576020600754604051908152f35b3461055f57602036600319011261055f57600435805f5260036020526112da60ff600960405f20015416612386565b5f52600360205260405f2060018060a01b0360018201541660028201546003830154600484015490600760ff6006870154169501549260405194855260208501526040840152606083015260038310156107de5760c092608083015260a0820152f35b3461055f575f36600319011261055f5760206040517fa49807205ce4d355092ef5a8a18f56e8913cf4a201fbe287825b095693c217758152f35b3461055f57602061139061138a36611f92565b90612726565b6040519015158152f35b3461055f575f36600319011261055f57602060ff600254166040519015158152f35b3461055f57604036600319011261055f576113d5611ec2565b6024359081151580920361055f576113eb612068565b6001600160a01b03169081156114405760207fd4d2fac732468fa12d55abac0c9178e6c6e1af263c66e5ce45c1b594b870cfdd91835f526005825260405f2060ff1981541660ff8316179055604051908152a2005b60405162461bcd60e51b815260206004820152601860248201527f496e76616c696420617070726f766572206164647265737300000000000000006044820152606490fd5b3461055f57602036600319011261055f576004356114a16120e1565b4781116114c1575f8080806108f094335af16114bb6125f5565b50612624565b60405162461bcd60e51b8152602060048201526014602482015273496e73756666696369656e742062616c616e636560601b6044820152606490fd5b3461055f5761150b36611f92565b6115136120e1565b5f5b81518110156108f05780610dc4846115306115489486612712565b51805f525f6020526108eb600160405f200154612175565b611515565b3461055f575f36600319011261055f576020604051600a8152f35b3461055f5761157636611f5c565b919091335f5260206005815261159260ff60405f20541661255b565b825f52600381526115ac60ff600960405f20015416612386565b825f526003815260405f206115c6600482015486106123ca565b60ff60068201541660038110156107de576115e19015612416565b8251156117e657600590855f5201815260405f206116018154151561248e565b61161260ff600283015416156124ce565b60058101805460ff8160a01c166117a15760ff60a01b1916600160a01b17905582516006919091019067ffffffffffffffff81116103a0576116548254612456565b601f811161175e575b5082601f82116001146116d85791816116c294927ff3fbfa31cd03f629dff824657ddd1aa40ca5f3940d9a8e0896f54ecb0f48f11296945f916116cd575b508160011b915f199060031b1c19161790555b60405192839260408452604084019061202a565b9033908301520390a3005b90508401518961169b565b601f19821690835f52845f20915f5b8181106117475750927ff3fbfa31cd03f629dff824657ddd1aa40ca5f3940d9a8e0896f54ecb0f48f112969492600192826116c298961061172f575b5050811b0190556116ae565b8601515f1960f88460031b161c191690558980611723565b91928660018192868b0151815501940192016116e7565b825f52835f20601f830160051c810191858410611797575b601f0160051c01905b81811061178c575061165d565b5f815560010161177f565b9091508190611776565b60405162461bcd60e51b815260048101859052601a60248201527f4d696c6573746f6e6520616c72656164792064697370757465640000000000006044820152606490fd5b60405162461bcd60e51b815260048101839052601760248201527f4469737075746520726561736f6e2072657175697265640000000000000000006044820152606490fd5b3461055f575f36600319011261055f57611843612068565b60025460ff8116156118825760ff19166002557f5db9ee0a495bf2e6ff9c91a7834c1ba4fdd244a5e8aa4e537bd38aeae4b073aa6020604051338152a1005b60405162461bcd60e51b815260206004820152601460248201527314185d5cd8589b194e881b9bdd081c185d5cd95960621b6044820152606490fd5b3461055f57606036600319011261055f576024356004356044358015159081810361055f576118eb612068565b825f526020906003825261190860ff600960405f20015416612386565b611910612330565b835f526003825260405f209061192b600483015487106123ca565b855f5260058201835260405f20916005830180549260ff8460a01c1615611a5d5785936040967fa27015a0377c0d9543b642a583459fa12fc2b5b76aca6689c025f244f6f2ffe59896948b948b9460ff60a01b19851682556119a0575b5050505050505082519182523390820152a360018055005b7f7c23647db3cb03f6f0d92ad3dcde207e9a1640d0b15a34689bd0ea8c8400f8d59360028801600160ff1982541617905542600389015533906affffffffffffffffffffff60a81b1617905585546119fd600383019182546122d1565b9055426008820155611a1286546007546122d1565b60075560014791611a278854809410156125a7565b0195611a465f80808060018060a01b0396878d54165af16114bb6125f5565b54955416948851908152a486868682848180611988565b60405162461bcd60e51b8152600481018790526016602482015275135a5b195cdd1bdb99481b9bdd08191a5cdc1d5d195960521b6044820152606490fd5b3461055f57604036600319011261055f57611ab4611eac565b336001600160a01b03821603611ad0576108f090600435612212565b60405163334bd91960e11b8152600490fd5b3461055f57604036600319011261055f576108f0600435611b01611eac565b90805f525f602052610dbf600160405f200154612175565b3461055f57602036600319011261055f576004355f525f6020526020600160405f200154604051908152f35b3461055f575f36600319011261055f57602060405166038d7ea4c680008152f35b3461055f57611b7436611e96565b335f526005602052611b8c60ff60405f20541661255b565b815f526003602052611ba760ff600960405f20015416612386565b611baf6122ec565b611bb7612330565b815f52600360205260405f2091611bd3600484015483106123ca565b60ff60068401541660038110156107de57611bee9015612416565b815f526005830160205260405f20805490611c0a82151561248e565b600281015491611c1d60ff8416156124ce565b6005820154611c3260ff8260a01c161561251a565b611c3f6004840154612456565b15611e0657611c50824710156125a7565b85611d9c575b600160ff1980951617600284015542600384015533906bffffffffffffffffffffffff60a01b16176005830155611c92600387019182546122d1565b9055426008860155611ca781546007546122d1565b600755600185019460018060a01b0392611ccf5f808080888c54168854905af16114bb6125f5565b60015f6004840154905b818110611d47575b505091602093917f7c23647db3cb03f6f0d92ad3dcde207e9a1640d0b15a34689bd0ea8c8400f8d59593611d24575b50505495541694604051908152a460018055005b6001600691828401541617910155611d3d600854612665565b6008558780611d10565b805f526005850160205260ff600260405f2001541615611d6f57611d6a906122de565b611cd9565b505f91508290507f7c23647db3cb03f6f0d92ad3dcde207e9a1640d0b15a34689bd0ea8c8400f8d5611ce1565b855f1981011161041c575f1986015f526005870160205260ff600260405f20015416611c5657606460405162461bcd60e51b815260206004820152602060248201527f50726576696f7573206d696c6573746f6e65206e6f7420636f6d706c657465646044820152fd5b60405162461bcd60e51b8152602060048201526015602482015274139bc8195d9a59195b98d9481cdd589b5a5d1d1959605a1b6044820152606490fd5b3461055f57602036600319011261055f576004359063ffffffff60e01b821680920361055f57602091637965db0b60e01b8114908115611e85575b5015158152f35b6301ffc9a760e01b14905083611e7e565b604090600319011261055f576004359060243590565b602435906001600160a01b038216820361055f57565b600435906001600160a01b038216820361055f57565b90601f8019910116810190811067ffffffffffffffff8211176103a057604052565b67ffffffffffffffff81116103a057601f01601f191660200190565b81601f8201121561055f57803590611f2d82611efa565b92611f3b6040519485611ed8565b8284526020838301011161055f57815f926020809301838601378301015290565b606060031982011261055f5760043591602435916044359067ffffffffffffffff821161055f57611f8f91600401611f16565b90565b90604060031983011261055f576004356001600160a01b038116810361055f57916024359067ffffffffffffffff9081831161055f578060238401121561055f5782600401359182116103a0578160051b60405193602093611ff685840187611ed8565b855260248486019282010192831161055f57602401905b82821061201b575050505090565b8135815290830190830161200d565b91908251928382525f5b848110612054575050825f602080949584010152601f8019910116010190565b602081830181015184830182015201612034565b335f9081527f7d7ffb7a348e1c6a02869081a26547b49160dd3df72d1d75a570eb9b698292ec60205260409020547fa49807205ce4d355092ef5a8a18f56e8913cf4a201fbe287825b095693c217759060ff16156120c35750565b6044906040519063e2517d3f60e01b82523360048301526024820152fd5b335f9081527fad3228b676f7d3cd4284a5443f17f1962b36e491b30a40b2405849e597ba5fb5602052604081205460ff16156120c35750565b335f9081527f5b444936b1af04ffee1fe3046e0c1ce51d425198d231b995f86357e304f1220860205260409020547fede9dcdb0ce99dc7cec9c7be9246ad08b37853683ad91569c187b647ddf5e21c9060ff16156120c35750565b805f525f60205260405f20335f5260205260ff60405f205416156120c35750565b905f9180835282602052604083209160018060a01b03169182845260205260ff604084205416155f1461220d57808352826020526040832082845260205260408320600160ff198254161790557f2f8788117e7eff1d82e926ec794901d17c78024a50270940304540a733656f0d339380a4600190565b505090565b905f9180835282602052604083209160018060a01b03169182845260205260ff6040842054165f1461220d5780835282602052604083208284526020526040832060ff1981541690557ff6391f5c32d9c69d2a47ea670b442974b53935d1edc7fd64eb21e047a839171b339380a4600190565b1561228c57565b60405162461bcd60e51b815260206004820152601760248201527f416d6f756e74206d75737420626520706f7369746976650000000000000000006044820152606490fd5b9190820180921161041c57565b5f19811461041c5760010190565b60ff600254166122f857565b60405162461bcd60e51b815260206004820152601060248201526f14185d5cd8589b194e881c185d5cd95960821b6044820152606490fd5b600260015414612341576002600155565b60405162461bcd60e51b815260206004820152601f60248201527f5265656e7472616e637947756172643a207265656e7472616e742063616c6c006044820152606490fd5b1561238d57565b60405162461bcd60e51b8152602060048201526015602482015274115cd8dc9bddc8191bd95cc81b9bdd08195e1a5cdd605a1b6044820152606490fd5b156123d157565b60405162461bcd60e51b815260206004820152601760248201527f496e76616c6964206d696c6573746f6e6520696e6465780000000000000000006044820152606490fd5b1561241d57565b60405162461bcd60e51b8152602060048201526011602482015270457363726f77206e6f742061637469766560781b6044820152606490fd5b90600182811c92168015612484575b602083101461247057565b634e487b7160e01b5f52602260045260245ffd5b91607f1691612465565b1561249557565b60405162461bcd60e51b8152602060048201526011602482015270135a5b195cdd1bdb99481b9bdd081cd95d607a1b6044820152606490fd5b156124d557565b60405162461bcd60e51b815260206004820152601b60248201527f4d696c6573746f6e6520616c726561647920636f6d706c6574656400000000006044820152606490fd5b1561252157565b60405162461bcd60e51b8152602060048201526012602482015271135a5b195cdd1bdb9948191a5cdc1d5d195960721b6044820152606490fd5b1561256257565b60405162461bcd60e51b815260206004820152601760248201527f4e6f7420617574686f72697a656420617070726f7665720000000000000000006044820152606490fd5b156125ae57565b60405162461bcd60e51b8152602060048201526012602482015271496e73756666696369656e742066756e647360701b6044820152606490fd5b9190820391821161041c57565b3d1561261f573d9061260682611efa565b916126146040519384611ed8565b82523d5f602084013e565b606090565b1561262b57565b60405162461bcd60e51b81526020600482015260126024820152714661696c656420746f2073656e642058464960701b6044820152606490fd5b801561041c575f190190565b9060405191825f82549261268484612456565b9081845260019485811690815f146126ef57506001146126af575b50506126ad92500383611ed8565b565b909391505f52602090815f20935f915b8183106126d75750506126ad93508201015f8061269f565b855488840185015294850194879450918301916126bf565b9150506126ad94506020925060ff191682840152151560051b8201015f8061269f565b805182101561038c5760209160051b010190565b905f5b815181101561275a5761274083610bd38385612712565b6127525761274d906122de565b612729565b505050600190565b5050505f90565b60405160e0810181811067ffffffffffffffff8211176103a057604052600681526020810160c036823781511561038c575f80915281516001101561288a577fa49807205ce4d355092ef5a8a18f56e8913cf4a201fbe287825b095693c21775604083015281516002101561288a577f482648e7878e9fa54c0a2f67ffd22d00ebc37cf7a03e060e428d2ab0cd6735cc606083015281516003101561288a577fede9dcdb0ce99dc7cec9c7be9246ad08b37853683ad91569c187b647ddf5e21c608083015281516004101561288a577f58223cdfb69946630d837d40b5c366a584f0217ada7fddd8318f2e08603cfa2260a083015281516005101561288a57507f7b8bb8356a3f32f5c111ff23f050d97f08988e0883529ea7bff3b918887a6e0e60c082015290565b634e487b7160e01b81526032600452602490fdfea26469706673582212200804d99744a1a2eaca56d0b8a751a2b6c501b6f66dcbecc28cb505a15c4a0b9964736f6c634300081400332f8788117e7eff1d82e926ec794901d17c78024a50270940304540a733656f0d",
			"opcodes": "PUSH1 0x80 PUSH1 0x40 MSTORE CALLVALUE PUSH3 0x6E JUMPI PUSH3 0x15 CALLER PUSH3 0x72 JUMP JUMPDEST POP PUSH1 0x1 DUP1 SSTORE PUSH1 0xFF NOT DUP1 PUSH1 0x2 SLOAD AND PUSH1 0x2 SSTORE PUSH3 0x30 CALLER PUSH3 0x72 JUMP JUMPDEST POP PUSH3 0x3C CALLER PUSH3 0xF0 JUMP JUMPDEST POP PUSH3 0x48 CALLER PUSH3 0x190 JUMP JUMPDEST POP CALLER PUSH0 MSTORE PUSH1 0x5 PUSH1 0x20 MSTORE PUSH1 0x1 PUSH1 0x40 PUSH0 KECCAK256 SWAP2 DUP3 SLOAD AND OR SWAP1 SSTORE PUSH1 0x40 MLOAD PUSH2 0x28D4 SWAP1 DUP2 PUSH3 0x22C DUP3 CODECOPY RETURN JUMPDEST PUSH0 DUP1 REVERT JUMPDEST PUSH1 0x1 PUSH1 0x1 PUSH1 0xA0 SHL SUB AND PUSH0 DUP2 DUP2 MSTORE PUSH32 0xAD3228B676F7D3CD4284A5443F17F1962B36E491B30A40B2405849E597BA5FB5 PUSH1 0x20 MSTORE PUSH1 0x40 DUP2 KECCAK256 SLOAD SWAP1 SWAP2 SWAP1 PUSH1 0xFF AND PUSH3 0xEC JUMPI DUP2 DUP1 MSTORE DUP2 PUSH1 0x20 MSTORE PUSH1 0x40 DUP3 KECCAK256 DUP2 DUP4 MSTORE PUSH1 0x20 MSTORE PUSH1 0x40 DUP3 KECCAK256 PUSH1 0x1 PUSH1 0xFF NOT DUP3 SLOAD AND OR SWAP1 SSTORE CALLER SWAP2 PUSH0 DUP1 MLOAD PUSH1 0x20 PUSH3 0x2B00 DUP4 CODECOPY DUP2 MLOAD SWAP2 MSTORE DUP2 DUP1 LOG4 PUSH1 0x1 SWAP1 JUMP JUMPDEST POP SWAP1 JUMP JUMPDEST PUSH1 0x1 PUSH1 0x1 PUSH1 0xA0 SHL SUB AND PUSH0 DUP2 DUP2 MSTORE PUSH32 0x7D7FFB7A348E1C6A02869081A26547B49160DD3DF72D1D75A570EB9B698292EC PUSH1 0x20 MSTORE PUSH1 0x40 DUP2 KECCAK256 SLOAD SWAP1 SWAP2 SWAP1 PUSH32 0xA49807205CE4D355092EF5A8A18F56E8913CF4A201FBE287825B095693C21775 SWAP1 PUSH1 0xFF AND PUSH3 0x18B JUMPI DUP1 DUP4 MSTORE DUP3 PUSH1 0x20 MSTORE PUSH1 0x40 DUP4 KECCAK256 DUP3 DUP5 MSTORE PUSH1 0x20 MSTORE PUSH1 0x40 DUP4 KECCAK256 PUSH1 0x1 PUSH1 0xFF NOT DUP3 SLOAD AND OR SWAP1 SSTORE PUSH0 DUP1 MLOAD PUSH1 0x20 PUSH3 0x2B00 DUP4 CODECOPY DUP2 MLOAD SWAP2 MSTORE CALLER SWAP4 DUP1 LOG4 PUSH1 0x1 SWAP1 JUMP JUMPDEST POP POP SWAP1 JUMP JUMPDEST PUSH1 0x1 PUSH1 0x1 PUSH1 0xA0 SHL SUB AND PUSH0 DUP2 DUP2 MSTORE PUSH32 0x5B444936B1AF04FFEE1FE3046E0C1CE51D425198D231B995F86357E304F12208 PUSH1 0x20 MSTORE PUSH1 0x40 DUP2 KECCAK256 SLOAD SWAP1 SWAP2 SWAP1 PUSH32 0xEDE9DCDB0CE99DC7CEC9C7BE9246AD08B37853683AD91569C187B647DDF5E21C SWAP1 PUSH1 0xFF AND PUSH3 0x18B JUMPI DUP1 DUP4 MSTORE DUP3 PUSH1 0x20 MSTORE PUSH1 0x40 DUP4 KECCAK256 DUP3 DUP5 MSTORE PUSH1 0x20 MSTORE PUSH1 0x40 DUP4 KECCAK256 PUSH1 0x1 PUSH1 0xFF NOT DUP3 SLOAD AND OR SWAP1 SSTORE PUSH0 DUP1 MLOAD PUSH1 0x20 PUSH3 0x2B00 DUP4 CODECOPY DUP2 MLOAD SWAP2 MSTORE CALLER SWAP4 DUP1 LOG4 PUSH1 0x1 SWAP1 JUMP INVALID PUSH1 0x80 DUP1 PUSH1 0x40 MSTORE PUSH1 0x4 CALLDATASIZE LT ISZERO PUSH2 0x12 JUMPI PUSH0 DUP1 REVERT JUMPDEST PUSH0 CALLDATALOAD PUSH1 0xE0 SHR SWAP1 DUP2 PUSH4 0x1FFC9A7 EQ PUSH2 0x1E43 JUMPI POP DUP1 PUSH4 0x20913DA5 EQ PUSH2 0x1B66 JUMPI DUP1 PUSH4 0x233F625C EQ PUSH2 0x1B45 JUMPI DUP1 PUSH4 0x248A9CA3 EQ PUSH2 0x1B19 JUMPI DUP1 PUSH4 0x2F2FF15D EQ PUSH2 0x1AE2 JUMPI DUP1 PUSH4 0x36568ABE EQ PUSH2 0x1A9B JUMPI DUP1 PUSH4 0x36C47F5F EQ PUSH2 0x18BE JUMPI DUP1 PUSH4 0x3F4BA83A EQ PUSH2 0x182B JUMPI DUP1 PUSH4 0x40A5833D EQ PUSH2 0x1568 JUMPI DUP1 PUSH4 0x4C05ABEB EQ PUSH2 0x154D JUMPI DUP1 PUSH4 0x4FE9D1F5 EQ PUSH2 0x14FD JUMPI DUP1 PUSH4 0x5312EA8E EQ PUSH2 0x1485 JUMPI DUP1 PUSH4 0x56F800F0 EQ PUSH2 0x13BC JUMPI DUP1 PUSH4 0x5C975ABB EQ PUSH2 0x139A JUMPI DUP1 PUSH4 0x68CA78F9 EQ PUSH2 0x1377 JUMPI DUP1 PUSH4 0x75B238FC EQ PUSH2 0x133D JUMPI DUP1 PUSH4 0x7D19E596 EQ PUSH2 0x12AB JUMPI DUP1 PUSH4 0x83273CD1 EQ PUSH2 0x128E JUMPI DUP1 PUSH4 0x8456CB59 EQ PUSH2 0x1235 JUMPI DUP1 PUSH4 0x898E8CFE EQ PUSH2 0xF78 JUMPI DUP1 PUSH4 0x8ACD2FE7 EQ PUSH2 0xF5B JUMPI DUP1 PUSH4 0x8E0EAC0F EQ PUSH2 0xF29 JUMPI DUP1 PUSH4 0x8ED9895C EQ PUSH2 0xE29 JUMPI DUP1 PUSH4 0x9011F8FE EQ PUSH2 0xE0C JUMPI DUP1 PUSH4 0x90C0616B EQ PUSH2 0xDCF JUMPI DUP1 PUSH4 0x91B9F9D8 EQ PUSH2 0xD74 JUMPI DUP1 PUSH4 0x91D14854 EQ PUSH2 0xD2C JUMPI DUP1 PUSH4 0xA02D72FB EQ PUSH2 0xCF2 JUMPI DUP1 PUSH4 0xA217FDDF EQ PUSH2 0xCD8 JUMPI DUP1 PUSH4 0xA7CBDF56 EQ PUSH2 0xC2A JUMPI DUP1 PUSH4 0xACA5A8A7 EQ PUSH2 0xB97 JUMPI DUP1 PUSH4 0xBFE42A37 EQ PUSH2 0xB5D JUMPI DUP1 PUSH4 0xC601F7AF EQ PUSH2 0xB23 JUMPI DUP1 PUSH4 0xC781AA41 EQ PUSH2 0xB06 JUMPI DUP1 PUSH4 0xC8692E3F EQ PUSH2 0xAD2 JUMPI DUP1 PUSH4 0xD2AF2BCB EQ PUSH2 0x8F2 JUMPI DUP1 PUSH4 0xD547741F EQ PUSH2 0x8B4 JUMPI DUP1 PUSH4 0xE2C41DBC EQ PUSH2 0x885 JUMPI DUP1 PUSH4 0xEBDF690F EQ PUSH2 0x84B JUMPI DUP1 PUSH4 0xF0D1DC00 EQ PUSH2 0x82E JUMPI DUP1 PUSH4 0xF166BC09 EQ PUSH2 0x5BD JUMPI DUP1 PUSH4 0xF2BCAC3D EQ PUSH2 0x563 JUMPI PUSH4 0xFAA33920 EQ PUSH2 0x1F5 JUMPI PUSH0 DUP1 REVERT JUMPDEST PUSH1 0x80 CALLDATASIZE PUSH1 0x3 NOT ADD SLT PUSH2 0x55F JUMPI PUSH1 0x4 CALLDATALOAD PUSH2 0x20C PUSH2 0x1EAC JUMP JUMPDEST SWAP1 PUSH1 0x44 SWAP2 DUP3 CALLDATALOAD SWAP3 PUSH1 0x64 SWAP4 DUP5 CALLDATALOAD SWAP3 PUSH2 0x221 PUSH2 0x211A JUMP JUMPDEST PUSH2 0x229 PUSH2 0x22EC JUMP JUMPDEST PUSH2 0x231 PUSH2 0x2330 JUMP JUMPDEST DUP5 ISZERO PUSH2 0x526 JUMPI PUSH1 0x1 PUSH1 0x1 PUSH1 0xA0 SHL SUB AND SWAP5 DUP6 ISZERO PUSH2 0x4EF JUMPI PUSH2 0x252 DUP3 ISZERO ISZERO PUSH2 0x2285 JUMP JUMPDEST DUP4 ISZERO ISZERO DUP1 PUSH2 0x4E4 JUMPI JUMPDEST ISZERO PUSH2 0x4A3 JUMPI DUP5 PUSH0 MSTORE PUSH1 0x20 SWAP3 PUSH1 0x3 DUP5 MSTORE PUSH1 0xFF PUSH1 0x9 PUSH1 0x40 PUSH0 KECCAK256 ADD SLOAD AND PUSH2 0x46A JUMPI PUSH7 0x38D7EA4C68000 DUP1 DUP5 ADD DUP1 DUP6 GT PUSH2 0x41C JUMPI CALLVALUE LT PUSH2 0x430 JUMPI DUP4 CALLVALUE GT PUSH2 0x406 JUMPI JUMPDEST POP DUP3 SELFBALANCE LT PUSH2 0x3B4 JUMPI POP POP DUP4 PUSH0 MSTORE PUSH1 0x3 DUP3 MSTORE PUSH1 0x40 PUSH0 KECCAK256 DUP5 DUP2 SSTORE PUSH1 0x1 DUP2 ADD DUP7 PUSH12 0xFFFFFFFFFFFFFFFFFFFFFFFF PUSH1 0xA0 SHL DUP3 SLOAD AND OR SWAP1 SSTORE DUP2 PUSH1 0x2 DUP3 ADD SSTORE PUSH0 PUSH1 0x3 DUP3 ADD SSTORE DUP4 PUSH1 0x4 DUP3 ADD SSTORE PUSH1 0x1 PUSH1 0x9 PUSH1 0x6 DUP4 ADD SWAP3 PUSH1 0xFF NOT SWAP4 DUP5 DUP2 SLOAD AND SWAP1 SSTORE TIMESTAMP PUSH1 0x7 DUP3 ADD SSTORE PUSH0 PUSH1 0x8 DUP3 ADD SSTORE ADD SWAP2 DUP3 SLOAD AND OR SWAP1 SSTORE DUP5 PUSH0 MSTORE PUSH1 0x4 DUP3 MSTORE PUSH1 0x40 PUSH0 KECCAK256 SWAP3 DUP4 SLOAD SWAP3 PUSH9 0x10000000000000000 DUP5 LT ISZERO PUSH2 0x3A0 JUMPI PUSH1 0x1 DUP5 ADD DUP1 DUP7 SSTORE DUP5 LT ISZERO PUSH2 0x38C JUMPI DUP6 PUSH1 0x40 SWAP5 PUSH32 0xB357254B93527E63D7A8B4C8BFD45A0484888FC3AE105197566AF8FA8F5A9E7E SWAP7 PUSH0 MSTORE DUP3 PUSH0 KECCAK256 ADD SSTORE PUSH2 0x36C DUP4 PUSH1 0x6 SLOAD PUSH2 0x22D1 JUMP JUMPDEST PUSH1 0x6 SSTORE PUSH2 0x37A PUSH1 0x8 SLOAD PUSH2 0x22DE JUMP JUMPDEST PUSH1 0x8 SSTORE DUP4 MLOAD SWAP3 DUP4 MSTORE DUP3 ADD MSTORE LOG3 PUSH1 0x1 DUP1 SSTORE STOP JUMPDEST PUSH4 0x4E487B71 PUSH1 0xE0 SHL PUSH0 MSTORE PUSH1 0x32 PUSH1 0x4 MSTORE PUSH1 0x24 PUSH0 REVERT JUMPDEST PUSH4 0x4E487B71 PUSH1 0xE0 SHL PUSH0 MSTORE PUSH1 0x41 PUSH1 0x4 MSTORE PUSH1 0x24 PUSH0 REVERT JUMPDEST PUSH7 0x74657220666565 PUSH1 0xC8 SHL PUSH1 0x84 SWAP3 PUSH32 0x496E73756666696369656E742074726561737572792062616C616E6365206166 DUP7 SWAP4 PUSH1 0x40 MLOAD SWAP5 PUSH3 0x461BCD PUSH1 0xE5 SHL DUP7 MSTORE PUSH1 0x4 DUP7 ADD MSTORE PUSH1 0x27 PUSH1 0x24 DUP7 ADD MSTORE DUP5 ADD MSTORE DUP3 ADD MSTORE REVERT JUMPDEST PUSH1 0x6 SLOAD SWAP1 DUP2 ADD DUP1 SWAP2 GT PUSH2 0x41C JUMPI PUSH1 0x6 SSTORE PUSH0 PUSH2 0x299 JUMP JUMPDEST PUSH4 0x4E487B71 PUSH1 0xE0 SHL PUSH0 MSTORE PUSH1 0x11 PUSH1 0x4 MSTORE PUSH1 0x24 PUSH0 REVERT JUMPDEST POP PUSH21 0x125B9CDD59999A58DA595B9D08161192481CD95B9D PUSH1 0x5A SHL DUP5 SWAP2 PUSH1 0x40 MLOAD SWAP3 PUSH3 0x461BCD PUSH1 0xE5 SHL DUP5 MSTORE PUSH1 0x4 DUP5 ADD MSTORE PUSH1 0x15 PUSH1 0x24 DUP5 ADD MSTORE DUP3 ADD MSTORE REVERT JUMPDEST PUSH21 0x457363726F7720616C726561647920657869737473 PUSH1 0x58 SHL DUP5 SWAP2 PUSH1 0x40 MLOAD SWAP3 PUSH3 0x461BCD PUSH1 0xE5 SHL DUP5 MSTORE PUSH1 0x4 DUP5 ADD MSTORE PUSH1 0x15 PUSH1 0x24 DUP5 ADD MSTORE DUP3 ADD MSTORE REVERT JUMPDEST PUSH1 0x40 MLOAD PUSH3 0x461BCD PUSH1 0xE5 SHL DUP2 MSTORE PUSH1 0x20 PUSH1 0x4 DUP3 ADD MSTORE PUSH1 0x17 PUSH1 0x24 DUP3 ADD MSTORE PUSH32 0x496E76616C6964206D696C6573746F6E6520636F756E74000000000000000000 DUP2 DUP6 ADD MSTORE REVERT JUMPDEST POP PUSH1 0xA DUP5 GT ISZERO PUSH2 0x25B JUMP JUMPDEST PUSH1 0x40 MLOAD PUSH3 0x461BCD PUSH1 0xE5 SHL DUP2 MSTORE PUSH1 0x20 PUSH1 0x4 DUP3 ADD MSTORE PUSH1 0x13 PUSH1 0x24 DUP3 ADD MSTORE PUSH19 0x496E76616C69642062656E6566696369617279 PUSH1 0x68 SHL DUP2 DUP6 ADD MSTORE REVERT JUMPDEST PUSH1 0x40 MLOAD PUSH3 0x461BCD PUSH1 0xE5 SHL DUP2 MSTORE PUSH1 0x20 PUSH1 0x4 DUP3 ADD MSTORE PUSH1 0x13 PUSH1 0x24 DUP3 ADD MSTORE PUSH19 0x125B9D985B1A59081C1C9BDC1BDCD85B081251 PUSH1 0x6A SHL DUP2 DUP6 ADD MSTORE DUP7 SWAP1 REVERT JUMPDEST PUSH0 DUP1 REVERT JUMPDEST CALLVALUE PUSH2 0x55F JUMPI PUSH0 CALLDATASIZE PUSH1 0x3 NOT ADD SLT PUSH2 0x55F JUMPI PUSH2 0x57B PUSH2 0x2761 JUMP JUMPDEST PUSH1 0x40 MLOAD DUP1 SWAP2 PUSH1 0x20 DUP1 DUP4 ADD DUP2 DUP5 MSTORE DUP3 MLOAD DUP1 SWAP2 MSTORE DUP2 PUSH1 0x40 DUP6 ADD SWAP4 ADD SWAP2 PUSH0 JUMPDEST DUP3 DUP2 LT PUSH2 0x5A6 JUMPI POP POP POP POP SUB SWAP1 RETURN JUMPDEST DUP4 MLOAD DUP6 MSTORE DUP7 SWAP6 POP SWAP4 DUP2 ADD SWAP4 SWAP3 DUP2 ADD SWAP3 PUSH1 0x1 ADD PUSH2 0x597 JUMP JUMPDEST CALLVALUE PUSH2 0x55F JUMPI PUSH1 0x80 CALLDATASIZE PUSH1 0x3 NOT ADD SLT PUSH2 0x55F JUMPI PUSH8 0xFFFFFFFFFFFFFFFF PUSH1 0x44 CALLDATALOAD PUSH1 0x24 CALLDATALOAD PUSH1 0x4 CALLDATALOAD PUSH1 0x64 CALLDATALOAD DUP5 DUP2 GT PUSH2 0x55F JUMPI PUSH2 0x5F8 SWAP1 CALLDATASIZE SWAP1 PUSH1 0x4 ADD PUSH2 0x1F16 JUMP JUMPDEST SWAP1 PUSH2 0x601 PUSH2 0x211A JUMP JUMPDEST DUP1 PUSH0 MSTORE PUSH1 0x3 SWAP3 PUSH1 0x20 SWAP2 DUP5 DUP4 MSTORE PUSH2 0x620 PUSH1 0xFF PUSH1 0x9 PUSH1 0x40 PUSH0 KECCAK256 ADD SLOAD AND PUSH2 0x2386 JUMP JUMPDEST PUSH0 MSTORE DUP4 DUP3 MSTORE PUSH1 0x40 PUSH0 KECCAK256 PUSH2 0x638 PUSH1 0x4 DUP3 ADD SLOAD DUP4 LT PUSH2 0x23CA JUMP JUMPDEST PUSH2 0x643 DUP7 ISZERO ISZERO PUSH2 0x2285 JUMP JUMPDEST DUP4 MLOAD ISZERO PUSH2 0x7F2 JUMPI PUSH1 0xFF PUSH1 0x6 DUP3 ADD SLOAD AND SWAP2 DUP6 DUP4 LT ISZERO PUSH2 0x7DE JUMPI PUSH2 0x667 PUSH1 0x5 SWAP4 ISZERO PUSH2 0x2416 JUMP JUMPDEST PUSH0 MSTORE ADD DUP2 MSTORE PUSH1 0x40 PUSH0 KECCAK256 SWAP4 DUP5 SLOAD PUSH2 0x7A1 JUMPI DUP5 SSTORE PUSH1 0x1 SWAP1 DUP2 DUP6 ADD SWAP3 DUP1 MLOAD SWAP7 DUP8 GT PUSH2 0x3A0 JUMPI PUSH2 0x693 DUP5 SLOAD PUSH2 0x2456 JUMP JUMPDEST PUSH1 0x1F DUP2 GT PUSH2 0x75B JUMPI JUMPDEST POP DUP2 PUSH1 0x1F DUP9 GT PUSH1 0x1 EQ PUSH2 0x6F4 JUMPI POP SWAP6 DUP1 PUSH0 SWAP6 SWAP5 SWAP4 DUP2 SWAP4 PUSH1 0x5 SWAP10 DUP9 SWAP5 PUSH2 0x6E9 JUMPI JUMPDEST POP POP SHL SWAP2 DUP6 NOT SWAP1 DUP6 SHL SHR NOT AND OR SWAP1 SSTORE JUMPDEST PUSH1 0x2 DUP4 ADD DUP1 SLOAD PUSH1 0xFF NOT AND SWAP1 SSTORE DUP3 ADD SSTORE ADD DUP1 SLOAD PUSH1 0xFF PUSH1 0xA0 SHL NOT AND SWAP1 SSTORE STOP JUMPDEST ADD MLOAD SWAP3 POP DUP10 DUP1 PUSH2 0x6BC JUMP JUMPDEST SWAP2 SWAP1 PUSH1 0x1F NOT DUP9 AND DUP6 PUSH0 MSTORE DUP4 PUSH0 KECCAK256 SWAP4 PUSH0 SWAP1 JUMPDEST DUP3 DUP3 LT PUSH2 0x744 JUMPI POP POP SWAP2 PUSH0 SWAP7 SWAP6 SWAP5 SWAP4 SWAP2 DUP10 PUSH1 0x5 SWAP11 SWAP5 LT PUSH2 0x72D JUMPI JUMPDEST POP POP POP DUP2 SHL ADD SWAP1 SSTORE PUSH2 0x6CC JUMP JUMPDEST ADD MLOAD DUP7 NOT PUSH1 0xF8 DUP5 DUP9 SHL AND SHR NOT AND SWAP1 SSTORE DUP8 DUP1 DUP1 PUSH2 0x720 JUMP JUMPDEST DUP1 DUP8 DUP7 SWAP8 DUP3 SWAP5 SWAP8 DUP8 ADD MLOAD DUP2 SSTORE ADD SWAP7 ADD SWAP5 ADD SWAP1 PUSH2 0x705 JUMP JUMPDEST DUP5 PUSH0 MSTORE DUP3 PUSH0 KECCAK256 PUSH1 0x1F DUP10 ADD PUSH1 0x5 SHR DUP2 ADD SWAP2 DUP5 DUP11 LT PUSH2 0x797 JUMPI JUMPDEST PUSH1 0x1F ADD PUSH1 0x5 SHR ADD SWAP1 DUP5 SWAP1 JUMPDEST DUP3 DUP2 LT PUSH2 0x78C JUMPI POP POP PUSH2 0x69C JUMP JUMPDEST PUSH0 DUP2 SSTORE ADD DUP5 SWAP1 PUSH2 0x77E JUMP JUMPDEST SWAP1 SWAP2 POP DUP2 SWAP1 PUSH2 0x773 JUMP JUMPDEST PUSH1 0x40 MLOAD PUSH3 0x461BCD PUSH1 0xE5 SHL DUP2 MSTORE PUSH1 0x4 DUP2 ADD DUP4 SWAP1 MSTORE PUSH1 0x15 PUSH1 0x24 DUP3 ADD MSTORE PUSH21 0x135A5B195CDD1BDB9948185B1C9958591E481CD95D PUSH1 0x5A SHL PUSH1 0x44 DUP3 ADD MSTORE PUSH1 0x64 SWAP1 REVERT JUMPDEST PUSH4 0x4E487B71 PUSH1 0xE0 SHL PUSH0 MSTORE PUSH1 0x21 PUSH1 0x4 MSTORE PUSH1 0x24 PUSH0 REVERT JUMPDEST PUSH1 0x40 MLOAD PUSH3 0x461BCD PUSH1 0xE5 SHL DUP2 MSTORE PUSH1 0x4 DUP2 ADD DUP5 SWAP1 MSTORE PUSH1 0x14 PUSH1 0x24 DUP3 ADD MSTORE PUSH20 0x11195CD8DC9A5C1D1A5BDB881C995C5D5A5C9959 PUSH1 0x62 SHL PUSH1 0x44 DUP3 ADD MSTORE PUSH1 0x64 SWAP1 REVERT JUMPDEST CALLVALUE PUSH2 0x55F JUMPI PUSH0 CALLDATASIZE PUSH1 0x3 NOT ADD SLT PUSH2 0x55F JUMPI PUSH1 0x20 PUSH1 0x40 MLOAD PUSH3 0x127500 DUP2 MSTORE RETURN JUMPDEST CALLVALUE PUSH2 0x55F JUMPI PUSH0 CALLDATASIZE PUSH1 0x3 NOT ADD SLT PUSH2 0x55F JUMPI PUSH1 0x20 PUSH1 0x40 MLOAD PUSH32 0xEDE9DCDB0CE99DC7CEC9C7BE9246AD08B37853683AD91569C187B647DDF5E21C DUP2 MSTORE RETURN JUMPDEST PUSH0 CALLDATASIZE PUSH1 0x3 NOT ADD SLT PUSH2 0x55F JUMPI PUSH2 0x898 PUSH2 0x211A JUMP JUMPDEST PUSH2 0x8A3 CALLVALUE ISZERO ISZERO PUSH2 0x2285 JUMP JUMPDEST PUSH2 0x8AF CALLVALUE PUSH1 0x6 SLOAD PUSH2 0x22D1 JUMP JUMPDEST PUSH1 0x6 SSTORE STOP JUMPDEST CALLVALUE PUSH2 0x55F JUMPI PUSH1 0x40 CALLDATASIZE PUSH1 0x3 NOT ADD SLT PUSH2 0x55F JUMPI PUSH2 0x8F0 PUSH1 0x4 CALLDATALOAD PUSH2 0x8D3 PUSH2 0x1EAC JUMP JUMPDEST SWAP1 DUP1 PUSH0 MSTORE PUSH0 PUSH1 0x20 MSTORE PUSH2 0x8EB PUSH1 0x1 PUSH1 0x40 PUSH0 KECCAK256 ADD SLOAD PUSH2 0x2175 JUMP JUMPDEST PUSH2 0x2212 JUMP JUMPDEST STOP JUMPDEST CALLVALUE PUSH2 0x55F JUMPI PUSH1 0x40 CALLDATASIZE PUSH1 0x3 NOT ADD SLT PUSH2 0x55F JUMPI PUSH1 0x4 CALLDATALOAD PUSH1 0x24 CALLDATALOAD PUSH8 0xFFFFFFFFFFFFFFFF DUP2 GT PUSH2 0x55F JUMPI PUSH2 0x926 SWAP1 CALLDATASIZE SWAP1 PUSH1 0x4 ADD PUSH2 0x1F16 JUMP JUMPDEST PUSH2 0x92E PUSH2 0x2068 JUMP JUMPDEST DUP2 PUSH0 MSTORE PUSH1 0x3 PUSH1 0x20 MSTORE PUSH2 0x949 PUSH1 0xFF PUSH1 0x9 PUSH1 0x40 PUSH0 KECCAK256 ADD SLOAD AND PUSH2 0x2386 JUMP JUMPDEST PUSH2 0x951 PUSH2 0x2330 JUMP JUMPDEST DUP2 PUSH0 MSTORE PUSH1 0x3 PUSH1 0x20 MSTORE PUSH1 0x40 PUSH0 KECCAK256 SWAP1 PUSH1 0x6 DUP3 ADD DUP1 SLOAD SWAP3 PUSH1 0xFF DUP5 AND PUSH1 0x3 DUP2 LT ISZERO PUSH2 0x7DE JUMPI PUSH2 0x97C SWAP1 ISZERO PUSH2 0x2416 JUMP JUMPDEST DUP3 MLOAD ISZERO PUSH2 0xA8D JUMPI PUSH2 0x998 DUP2 PUSH1 0x3 PUSH1 0x2 DUP1 SWAP5 ADD SLOAD SWAP2 ADD SLOAD SWAP1 PUSH2 0x25E8 JUMP JUMPDEST SWAP4 PUSH1 0xFF NOT AND OR SWAP1 SSTORE PUSH2 0x9AB PUSH1 0x8 SLOAD PUSH2 0x2665 JUMP JUMPDEST PUSH1 0x8 SSTORE DUP2 PUSH2 0x9FB JUMPI JUMPDEST PUSH32 0x1BA7C32761A402CB7DF31B6D4BF190A3D8D3487600EFB7090CEE21B9DFCFBD41 SWAP2 PUSH2 0x9F2 PUSH1 0x40 MLOAD SWAP3 DUP4 SWAP3 DUP4 MSTORE PUSH1 0x40 PUSH1 0x20 DUP5 ADD MSTORE PUSH1 0x40 DUP4 ADD SWAP1 PUSH2 0x202A JUMP JUMPDEST SUB SWAP1 LOG2 PUSH1 0x1 DUP1 SSTORE STOP JUMPDEST PUSH2 0xA07 DUP3 SELFBALANCE LT ISZERO PUSH2 0x25A7 JUMP JUMPDEST PUSH0 DUP1 DUP1 DUP1 DUP6 CALLER GAS CALL PUSH2 0xA17 PUSH2 0x25F5 JUMP JUMPDEST POP ISZERO PUSH2 0xA55 JUMPI DUP2 PUSH2 0xA4B PUSH32 0x1BA7C32761A402CB7DF31B6D4BF190A3D8D3487600EFB7090CEE21B9DFCFBD41 SWAP4 PUSH1 0x6 SLOAD PUSH2 0x25E8 JUMP JUMPDEST PUSH1 0x6 SSTORE SWAP2 POP PUSH2 0x9B4 JUMP JUMPDEST PUSH1 0x40 MLOAD PUSH3 0x461BCD PUSH1 0xE5 SHL DUP2 MSTORE PUSH1 0x20 PUSH1 0x4 DUP3 ADD MSTORE PUSH1 0x10 PUSH1 0x24 DUP3 ADD MSTORE PUSH16 0x11985A5B1959081D1BC81C99599D5B99 PUSH1 0x82 SHL PUSH1 0x44 DUP3 ADD MSTORE PUSH1 0x64 SWAP1 REVERT JUMPDEST PUSH1 0x40 MLOAD PUSH3 0x461BCD PUSH1 0xE5 SHL DUP2 MSTORE PUSH1 0x20 PUSH1 0x4 DUP3 ADD MSTORE PUSH1 0x1C PUSH1 0x24 DUP3 ADD MSTORE PUSH32 0x43616E63656C6C6174696F6E20726561736F6E20726571756972656400000000 PUSH1 0x44 DUP3 ADD MSTORE PUSH1 0x64 SWAP1 REVERT JUMPDEST CALLVALUE PUSH2 0x55F JUMPI PUSH0 CALLDATASIZE PUSH1 0x3 NOT ADD SLT PUSH2 0x55F JUMPI PUSH1 0x80 PUSH1 0x6 SLOAD PUSH1 0x7 SLOAD PUSH1 0x8 SLOAD SELFBALANCE SWAP2 PUSH1 0x40 MLOAD SWAP4 DUP5 MSTORE PUSH1 0x20 DUP5 ADD MSTORE PUSH1 0x40 DUP4 ADD MSTORE PUSH1 0x60 DUP3 ADD MSTORE RETURN JUMPDEST CALLVALUE PUSH2 0x55F JUMPI PUSH0 CALLDATASIZE PUSH1 0x3 NOT ADD SLT PUSH2 0x55F JUMPI PUSH1 0x20 PUSH1 0x8 SLOAD PUSH1 0x40 MLOAD SWAP1 DUP2 MSTORE RETURN JUMPDEST CALLVALUE PUSH2 0x55F JUMPI PUSH0 CALLDATASIZE PUSH1 0x3 NOT ADD SLT PUSH2 0x55F JUMPI PUSH1 0x20 PUSH1 0x40 MLOAD PUSH32 0x482648E7878E9FA54C0A2F67FFD22D00EBC37CF7A03E060E428D2AB0CD6735CC DUP2 MSTORE RETURN JUMPDEST CALLVALUE PUSH2 0x55F JUMPI PUSH0 CALLDATASIZE PUSH1 0x3 NOT ADD SLT PUSH2 0x55F JUMPI PUSH1 0x20 PUSH1 0x40 MLOAD PUSH32 0x7B8BB8356A3F32F5C111FF23F050D97F08988E0883529EA7BFF3B918887A6E0E DUP2 MSTORE RETURN JUMPDEST CALLVALUE PUSH2 0x55F JUMPI PUSH1 0x20 CALLDATASIZE PUSH1 0x3 NOT ADD SLT PUSH2 0x55F JUMPI PUSH2 0xBB0 PUSH2 0x1EC2 JUMP JUMPDEST PUSH2 0xBB8 PUSH2 0x2761 JUMP JUMPDEST PUSH0 SWAP2 PUSH0 JUMPDEST DUP3 MLOAD DUP2 LT ISZERO PUSH2 0xC1F JUMPI PUSH2 0xBF7 DUP3 PUSH2 0xBD3 DUP4 DUP7 PUSH2 0x2712 JUMP JUMPDEST MLOAD PUSH0 MSTORE PUSH0 PUSH1 0x20 MSTORE PUSH1 0x40 PUSH0 KECCAK256 SWAP1 PUSH1 0x1 DUP1 PUSH1 0xA0 SHL SUB AND PUSH0 MSTORE PUSH1 0x20 MSTORE PUSH1 0xFF PUSH1 0x40 PUSH0 KECCAK256 SLOAD AND SWAP1 JUMP JUMPDEST PUSH2 0xC0A JUMPI JUMPDEST PUSH2 0xC05 SWAP1 PUSH2 0x22DE JUMP JUMPDEST PUSH2 0xBBC JUMP JUMPDEST SWAP3 PUSH2 0xC17 PUSH2 0xC05 SWAP2 PUSH2 0x22DE JUMP JUMPDEST SWAP4 SWAP1 POP PUSH2 0xBFC JUMP JUMPDEST PUSH1 0x20 DUP5 PUSH1 0x40 MLOAD SWAP1 DUP2 MSTORE RETURN JUMPDEST CALLVALUE PUSH2 0x55F JUMPI PUSH1 0x20 DUP1 PUSH1 0x3 NOT CALLDATASIZE ADD SLT PUSH2 0x55F JUMPI PUSH1 0x1 PUSH1 0x1 PUSH1 0xA0 SHL SUB PUSH2 0xC4C PUSH2 0x1EC2 JUMP JUMPDEST AND PUSH0 MSTORE PUSH1 0x4 DUP2 MSTORE PUSH1 0x40 PUSH0 KECCAK256 PUSH1 0x40 MLOAD SWAP1 DUP2 DUP4 DUP3 SLOAD SWAP2 DUP3 DUP2 MSTORE ADD SWAP1 DUP2 SWAP3 PUSH0 MSTORE DUP5 PUSH0 KECCAK256 SWAP1 PUSH0 JUMPDEST DUP7 DUP3 DUP3 LT PUSH2 0xCC4 JUMPI DUP7 DUP7 PUSH2 0xC85 DUP3 DUP9 SUB DUP4 PUSH2 0x1ED8 JUMP JUMPDEST PUSH1 0x40 MLOAD SWAP3 DUP4 SWAP3 DUP2 DUP5 ADD SWAP1 DUP3 DUP6 MSTORE MLOAD DUP1 SWAP2 MSTORE PUSH1 0x40 DUP5 ADD SWAP3 SWAP2 PUSH0 JUMPDEST DUP3 DUP2 LT PUSH2 0xCAD JUMPI POP POP POP POP SUB SWAP1 RETURN JUMPDEST DUP4 MLOAD DUP6 MSTORE DUP7 SWAP6 POP SWAP4 DUP2 ADD SWAP4 SWAP3 DUP2 ADD SWAP3 PUSH1 0x1 ADD PUSH2 0xC9E JUMP JUMPDEST DUP4 SLOAD DUP6 MSTORE SWAP1 SWAP4 ADD SWAP3 PUSH1 0x1 SWAP3 DUP4 ADD SWAP3 ADD PUSH2 0xC6F JUMP JUMPDEST CALLVALUE PUSH2 0x55F JUMPI PUSH0 CALLDATASIZE PUSH1 0x3 NOT ADD SLT PUSH2 0x55F JUMPI PUSH1 0x20 PUSH1 0x40 MLOAD PUSH0 DUP2 MSTORE RETURN JUMPDEST CALLVALUE PUSH2 0x55F JUMPI PUSH0 CALLDATASIZE PUSH1 0x3 NOT ADD SLT PUSH2 0x55F JUMPI PUSH1 0x20 PUSH1 0x40 MLOAD PUSH32 0x58223CDFB69946630D837D40B5C366A584F0217ADA7FDDD8318F2E08603CFA22 DUP2 MSTORE RETURN JUMPDEST CALLVALUE PUSH2 0x55F JUMPI PUSH1 0x40 CALLDATASIZE PUSH1 0x3 NOT ADD SLT PUSH2 0x55F JUMPI PUSH2 0xD45 PUSH2 0x1EAC JUMP JUMPDEST PUSH1 0x4 CALLDATALOAD PUSH0 MSTORE PUSH0 PUSH1 0x20 MSTORE PUSH1 0x40 PUSH0 KECCAK256 SWAP1 PUSH1 0x1 DUP1 PUSH1 0xA0 SHL SUB AND PUSH0 MSTORE PUSH1 0x20 MSTORE PUSH1 0x20 PUSH1 0xFF PUSH1 0x40 PUSH0 KECCAK256 SLOAD AND PUSH1 0x40 MLOAD SWAP1 ISZERO ISZERO DUP2 MSTORE RETURN JUMPDEST CALLVALUE PUSH2 0x55F JUMPI PUSH2 0xD82 CALLDATASIZE PUSH2 0x1F92 JUMP JUMPDEST PUSH2 0xD8A PUSH2 0x20E1 JUMP JUMPDEST PUSH0 JUMPDEST DUP2 MLOAD DUP2 LT ISZERO PUSH2 0x8F0 JUMPI DUP1 PUSH2 0xDC4 DUP5 PUSH2 0xDA7 PUSH2 0xDCA SWAP5 DUP7 PUSH2 0x2712 JUMP JUMPDEST MLOAD DUP1 PUSH0 MSTORE PUSH0 PUSH1 0x20 MSTORE PUSH2 0xDBF PUSH1 0x1 PUSH1 0x40 PUSH0 KECCAK256 ADD SLOAD PUSH2 0x2175 JUMP JUMPDEST PUSH2 0x2196 JUMP JUMPDEST POP PUSH2 0x22DE JUMP JUMPDEST PUSH2 0xD8C JUMP JUMPDEST CALLVALUE PUSH2 0x55F JUMPI PUSH1 0x20 CALLDATASIZE PUSH1 0x3 NOT ADD SLT PUSH2 0x55F JUMPI PUSH1 0x1 PUSH1 0x1 PUSH1 0xA0 SHL SUB PUSH2 0xDF0 PUSH2 0x1EC2 JUMP JUMPDEST AND PUSH0 MSTORE PUSH1 0x5 PUSH1 0x20 MSTORE PUSH1 0x20 PUSH1 0xFF PUSH1 0x40 PUSH0 KECCAK256 SLOAD AND PUSH1 0x40 MLOAD SWAP1 ISZERO ISZERO DUP2 MSTORE RETURN JUMPDEST CALLVALUE PUSH2 0x55F JUMPI PUSH0 CALLDATASIZE PUSH1 0x3 NOT ADD SLT PUSH2 0x55F JUMPI PUSH1 0x20 PUSH1 0x6 SLOAD PUSH1 0x40 MLOAD SWAP1 DUP2 MSTORE RETURN JUMPDEST CALLVALUE PUSH2 0x55F JUMPI PUSH2 0xE37 CALLDATASIZE PUSH2 0x1E96 JUMP JUMPDEST SWAP1 DUP1 PUSH0 MSTORE PUSH1 0x3 PUSH1 0x20 MSTORE PUSH2 0xE53 PUSH1 0xFF PUSH1 0x9 PUSH1 0x40 PUSH0 KECCAK256 ADD SLOAD AND PUSH2 0x2386 JUMP JUMPDEST DUP1 PUSH0 MSTORE PUSH1 0x3 PUSH1 0x20 MSTORE PUSH2 0xE6D PUSH1 0x4 PUSH1 0x40 PUSH0 KECCAK256 ADD SLOAD DUP4 LT PUSH2 0x23CA JUMP JUMPDEST PUSH0 MSTORE PUSH1 0x3 PUSH1 0x20 MSTORE PUSH1 0x5 PUSH1 0x40 PUSH0 KECCAK256 ADD SWAP1 PUSH0 MSTORE PUSH1 0x20 MSTORE PUSH1 0x40 PUSH0 KECCAK256 DUP1 SLOAD PUSH2 0xF25 PUSH1 0xFF PUSH1 0x2 DUP5 ADD SLOAD AND PUSH1 0x3 DUP5 ADD SLOAD PUSH1 0xFF PUSH2 0xEFE PUSH1 0x5 DUP8 ADD SLOAD SWAP4 PUSH2 0xEAE PUSH1 0x1 DUP10 ADD PUSH2 0x2671 JUMP JUMPDEST SWAP8 PUSH2 0xEC7 PUSH1 0x6 PUSH2 0xEC0 PUSH1 0x4 DUP5 ADD PUSH2 0x2671 JUMP JUMPDEST SWAP3 ADD PUSH2 0x2671 JUMP JUMPDEST SWAP5 PUSH2 0xEE4 PUSH1 0x40 MLOAD SWAP11 DUP12 SWAP11 DUP12 MSTORE PUSH2 0x100 DUP1 PUSH1 0x20 DUP14 ADD MSTORE DUP12 ADD SWAP1 PUSH2 0x202A JUMP JUMPDEST SWAP3 ISZERO ISZERO PUSH1 0x40 DUP11 ADD MSTORE PUSH1 0x60 DUP10 ADD MSTORE DUP8 DUP3 SUB PUSH1 0x80 DUP10 ADD MSTORE PUSH2 0x202A JUMP JUMPDEST SWAP3 PUSH1 0x1 DUP1 PUSH1 0xA0 SHL SUB DUP2 AND PUSH1 0xA0 DUP8 ADD MSTORE PUSH1 0xA0 SHR AND ISZERO ISZERO PUSH1 0xC0 DUP6 ADD MSTORE DUP4 DUP3 SUB PUSH1 0xE0 DUP6 ADD MSTORE PUSH2 0x202A JUMP JUMPDEST SUB SWAP1 RETURN JUMPDEST CALLVALUE PUSH2 0x55F JUMPI PUSH1 0x20 CALLDATASIZE PUSH1 0x3 NOT ADD SLT PUSH2 0x55F JUMPI PUSH1 0x4 CALLDATALOAD PUSH0 MSTORE PUSH1 0x3 PUSH1 0x20 MSTORE PUSH1 0x20 PUSH1 0xFF PUSH1 0x9 PUSH1 0x40 PUSH0 KECCAK256 ADD SLOAD AND PUSH1 0x40 MLOAD SWAP1 ISZERO ISZERO DUP2 MSTORE RETURN JUMPDEST CALLVALUE PUSH2 0x55F JUMPI PUSH0 CALLDATASIZE PUSH1 0x3 NOT ADD SLT PUSH2 0x55F JUMPI PUSH1 0x20 PUSH1 0x40 MLOAD PUSH3 0x93A80 DUP2 MSTORE RETURN JUMPDEST CALLVALUE PUSH2 0x55F JUMPI PUSH2 0xF86 CALLDATASIZE PUSH2 0x1F5C JUMP JUMPDEST DUP3 PUSH0 SWAP4 SWAP3 SWAP4 MSTORE PUSH1 0x3 SWAP1 PUSH1 0x20 SWAP2 DUP1 DUP4 MSTORE PUSH2 0xFA8 PUSH1 0xFF PUSH1 0x9 PUSH1 0x40 PUSH0 KECCAK256 ADD SLOAD AND PUSH2 0x2386 JUMP JUMPDEST DUP4 PUSH0 MSTORE DUP1 DUP4 MSTORE PUSH1 0x1 SWAP1 PUSH1 0x1 DUP1 PUSH1 0xA0 SHL SUB DUP3 PUSH1 0x40 PUSH0 KECCAK256 ADD SLOAD AND CALLER SUB PUSH2 0x11FE JUMPI PUSH2 0xFCE PUSH2 0x22EC JUMP JUMPDEST DUP5 PUSH0 MSTORE DUP1 DUP5 MSTORE PUSH1 0x40 PUSH0 KECCAK256 PUSH2 0xFE7 PUSH1 0x4 DUP3 ADD SLOAD DUP9 LT PUSH2 0x23CA JUMP JUMPDEST PUSH1 0xFF PUSH1 0x6 DUP3 ADD SLOAD AND DUP3 DUP2 LT ISZERO PUSH2 0x7DE JUMPI PUSH2 0x1001 SWAP1 ISZERO PUSH2 0x2416 JUMP JUMPDEST DUP4 MLOAD ISZERO PUSH2 0x11C0 JUMPI PUSH1 0x5 SWAP1 DUP8 PUSH0 MSTORE ADD DUP5 MSTORE PUSH1 0x40 PUSH0 KECCAK256 SWAP2 PUSH2 0x1022 DUP4 SLOAD ISZERO ISZERO PUSH2 0x248E JUMP JUMPDEST PUSH2 0x1033 PUSH1 0xFF PUSH1 0x2 DUP6 ADD SLOAD AND ISZERO PUSH2 0x24CE JUMP JUMPDEST PUSH2 0x1047 PUSH1 0xFF PUSH1 0x5 DUP6 ADD SLOAD PUSH1 0xA0 SHR AND ISZERO PUSH2 0x251A JUMP JUMPDEST PUSH1 0x4 DUP4 ADD SWAP2 DUP5 MLOAD SWAP2 PUSH8 0xFFFFFFFFFFFFFFFF DUP4 GT PUSH2 0x3A0 JUMPI PUSH2 0x1068 DUP5 SLOAD PUSH2 0x2456 JUMP JUMPDEST PUSH1 0x1F DUP2 GT PUSH2 0x117A JUMPI JUMPDEST POP DUP7 PUSH1 0x1F DUP5 GT PUSH1 0x1 EQ PUSH2 0x10F0 JUMPI SWAP3 PUSH2 0x10DA SWAP5 SWAP3 DUP2 DUP1 SWAP4 PUSH32 0x415965C4FCE7C71FEC8F1B1A363D7A50B0AE6C310C06D0D275717068136A8303 SWAP11 SWAP10 SWAP9 SWAP7 PUSH0 SWAP5 PUSH2 0x10E5 JUMPI JUMPDEST POP SHL SWAP3 PUSH0 NOT SWAP2 SHL SHR NOT AND OR SWAP1 SSTORE JUMPDEST SLOAD SWAP2 PUSH1 0x60 PUSH1 0x40 MLOAD SWAP5 DUP6 SWAP5 DUP6 MSTORE DUP5 ADD MSTORE PUSH1 0x60 DUP4 ADD SWAP1 PUSH2 0x202A JUMP JUMPDEST PUSH0 PUSH1 0x40 DUP4 ADD MSTORE SUB SWAP1 LOG3 STOP JUMPDEST DUP10 ADD MLOAD SWAP4 POP DUP14 PUSH2 0x10B3 JUMP JUMPDEST SWAP1 SWAP3 SWAP2 PUSH1 0x1F NOT DUP4 AND SWAP2 DUP6 PUSH0 MSTORE DUP9 PUSH0 KECCAK256 SWAP3 PUSH0 JUMPDEST DUP2 DUP2 LT PUSH2 0x1165 JUMPI POP SWAP2 PUSH32 0x415965C4FCE7C71FEC8F1B1A363D7A50B0AE6C310C06D0D275717068136A8303 SWAP10 SWAP9 SWAP8 SWAP6 SWAP4 SWAP2 DUP6 PUSH2 0x10DA SWAP9 SWAP7 SWAP5 LT PUSH2 0x114C JUMPI JUMPDEST POP POP POP DUP2 SHL ADD SWAP1 SSTORE PUSH2 0x10C1 JUMP JUMPDEST DUP9 ADD MLOAD SWAP1 PUSH1 0xF8 DUP5 PUSH0 NOT SWAP3 SHL AND SHR NOT AND SWAP1 SSTORE DUP11 DUP1 DUP1 PUSH2 0x113F JUMP JUMPDEST DUP10 DUP4 ADD MLOAD DUP6 SSTORE SWAP4 DUP7 ADD SWAP4 SWAP2 DUP11 ADD SWAP2 DUP11 ADD PUSH2 0x1102 JUMP JUMPDEST DUP5 PUSH0 MSTORE DUP8 PUSH0 KECCAK256 PUSH1 0x1F DUP6 ADD PUSH1 0x5 SHR DUP2 ADD SWAP2 DUP10 DUP7 LT PUSH2 0x11B6 JUMPI JUMPDEST PUSH1 0x1F ADD PUSH1 0x5 SHR ADD SWAP1 DUP3 SWAP1 JUMPDEST DUP3 DUP2 LT PUSH2 0x11AB JUMPI POP POP PUSH2 0x1071 JUMP JUMPDEST PUSH0 DUP2 SSTORE ADD DUP3 SWAP1 PUSH2 0x119D JUMP JUMPDEST SWAP1 SWAP2 POP DUP2 SWAP1 PUSH2 0x1192 JUMP JUMPDEST PUSH1 0x40 MLOAD PUSH3 0x461BCD PUSH1 0xE5 SHL DUP2 MSTORE PUSH1 0x4 DUP2 ADD DUP7 SWAP1 MSTORE PUSH1 0x16 PUSH1 0x24 DUP3 ADD MSTORE PUSH22 0x115D9A59195B98D94812541194C81C995C5D5A5C9959 PUSH1 0x52 SHL PUSH1 0x44 DUP3 ADD MSTORE PUSH1 0x64 SWAP1 REVERT JUMPDEST PUSH1 0x40 MLOAD PUSH3 0x461BCD PUSH1 0xE5 SHL DUP2 MSTORE PUSH1 0x4 DUP2 ADD DUP6 SWAP1 MSTORE PUSH1 0xF PUSH1 0x24 DUP3 ADD MSTORE PUSH15 0x4E6F742062656E6566696369617279 PUSH1 0x88 SHL PUSH1 0x44 DUP3 ADD MSTORE PUSH1 0x64 SWAP1 REVERT JUMPDEST CALLVALUE PUSH2 0x55F JUMPI PUSH0 CALLDATASIZE PUSH1 0x3 NOT ADD SLT PUSH2 0x55F JUMPI PUSH2 0x124D PUSH2 0x2068 JUMP JUMPDEST PUSH2 0x1255 PUSH2 0x22EC JUMP JUMPDEST PUSH1 0x1 PUSH1 0xFF NOT PUSH1 0x2 SLOAD AND OR PUSH1 0x2 SSTORE PUSH32 0x62E78CEA01BEE320CD4E420270B5EA74000D11B0C9F74754EBDBFC544B05A258 PUSH1 0x20 PUSH1 0x40 MLOAD CALLER DUP2 MSTORE LOG1 STOP JUMPDEST CALLVALUE PUSH2 0x55F JUMPI PUSH0 CALLDATASIZE PUSH1 0x3 NOT ADD SLT PUSH2 0x55F JUMPI PUSH1 0x20 PUSH1 0x7 SLOAD PUSH1 0x40 MLOAD SWAP1 DUP2 MSTORE RETURN JUMPDEST CALLVALUE PUSH2 0x55F JUMPI PUSH1 0x20 CALLDATASIZE PUSH1 0x3 NOT ADD SLT PUSH2 0x55F JUMPI PUSH1 0x4 CALLDATALOAD DUP1 PUSH0 MSTORE PUSH1 0x3 PUSH1 0x20 MSTORE PUSH2 0x12DA PUSH1 0xFF PUSH1 0x9 PUSH1 0x40 PUSH0 KECCAK256 ADD SLOAD AND PUSH2 0x2386 JUMP JUMPDEST PUSH0 MSTORE PUSH1 0x3 PUSH1 0x20 MSTORE PUSH1 0x40 PUSH0 KECCAK256 PUSH1 0x1 DUP1 PUSH1 0xA0 SHL SUB PUSH1 0x1 DUP3 ADD SLOAD AND PUSH1 0x2 DUP3 ADD SLOAD PUSH1 0x3 DUP4 ADD SLOAD PUSH1 0x4 DUP5 ADD SLOAD SWAP1 PUSH1 0x7 PUSH1 0xFF PUSH1 0x6 DUP8 ADD SLOAD AND SWAP6 ADD SLOAD SWAP3 PUSH1 0x40 MLOAD SWAP5 DUP6 MSTORE PUSH1 0x20 DUP6 ADD MSTORE PUSH1 0x40 DUP5 ADD MSTORE PUSH1 0x60 DUP4 ADD MSTORE PUSH1 0x3 DUP4 LT ISZERO PUSH2 0x7DE JUMPI PUSH1 0xC0 SWAP3 PUSH1 0x80 DUP4 ADD MSTORE PUSH1 0xA0 DUP3 ADD MSTORE RETURN JUMPDEST CALLVALUE PUSH2 0x55F JUMPI PUSH0 CALLDATASIZE PUSH1 0x3 NOT ADD SLT PUSH2 0x55F JUMPI PUSH1 0x20 PUSH1 0x40 MLOAD PUSH32 0xA49807205CE4D355092EF5A8A18F56E8913CF4A201FBE287825B095693C21775 DUP2 MSTORE RETURN JUMPDEST CALLVALUE PUSH2 0x55F JUMPI PUSH1 0x20 PUSH2 0x1390 PUSH2 0x138A CALLDATASIZE PUSH2 0x1F92 JUMP JUMPDEST SWAP1 PUSH2 0x2726 JUMP JUMPDEST PUSH1 0x40 MLOAD SWAP1 ISZERO ISZERO DUP2 MSTORE RETURN JUMPDEST CALLVALUE PUSH2 0x55F JUMPI PUSH0 CALLDATASIZE PUSH1 0x3 NOT ADD SLT PUSH2 0x55F JUMPI PUSH1 0x20 PUSH1 0xFF PUSH1 0x2 SLOAD AND PUSH1 0x40 MLOAD SWAP1 ISZERO ISZERO DUP2 MSTORE RETURN JUMPDEST CALLVALUE PUSH2 0x55F JUMPI PUSH1 0x40 CALLDATASIZE PUSH1 0x3 NOT ADD SLT PUSH2 0x55F JUMPI PUSH2 0x13D5 PUSH2 0x1EC2 JUMP JUMPDEST PUSH1 0x24 CALLDATALOAD SWAP1 DUP2 ISZERO ISZERO DUP1 SWAP3 SUB PUSH2 0x55F JUMPI PUSH2 0x13EB PUSH2 0x2068 JUMP JUMPDEST PUSH1 0x1 PUSH1 0x1 PUSH1 0xA0 SHL SUB AND SWAP1 DUP2 ISZERO PUSH2 0x1440 JUMPI PUSH1 0x20 PUSH32 0xD4D2FAC732468FA12D55ABAC0C9178E6C6E1AF263C66E5CE45C1B594B870CFDD SWAP2 DUP4 PUSH0 MSTORE PUSH1 0x5 DUP3 MSTORE PUSH1 0x40 PUSH0 KECCAK256 PUSH1 0xFF NOT DUP2 SLOAD AND PUSH1 0xFF DUP4 AND OR SWAP1 SSTORE PUSH1 0x40 MLOAD SWAP1 DUP2 MSTORE LOG2 STOP JUMPDEST PUSH1 0x40 MLOAD PUSH3 0x461BCD PUSH1 0xE5 SHL DUP2 MSTORE PUSH1 0x20 PUSH1 0x4 DUP3 ADD MSTORE PUSH1 0x18 PUSH1 0x24 DUP3 ADD MSTORE PUSH32 0x496E76616C696420617070726F76657220616464726573730000000000000000 PUSH1 0x44 DUP3 ADD MSTORE PUSH1 0x64 SWAP1 REVERT JUMPDEST CALLVALUE PUSH2 0x55F JUMPI PUSH1 0x20 CALLDATASIZE PUSH1 0x3 NOT ADD SLT PUSH2 0x55F JUMPI PUSH1 0x4 CALLDATALOAD PUSH2 0x14A1 PUSH2 0x20E1 JUMP JUMPDEST SELFBALANCE DUP2 GT PUSH2 0x14C1 JUMPI PUSH0 DUP1 DUP1 DUP1 PUSH2 0x8F0 SWAP5 CALLER GAS CALL PUSH2 0x14BB PUSH2 0x25F5 JUMP JUMPDEST POP PUSH2 0x2624 JUMP JUMPDEST PUSH1 0x40 MLOAD PUSH3 0x461BCD PUSH1 0xE5 SHL DUP2 MSTORE PUSH1 0x20 PUSH1 0x4 DUP3 ADD MSTORE PUSH1 0x14 PUSH1 0x24 DUP3 ADD MSTORE PUSH20 0x496E73756666696369656E742062616C616E6365 PUSH1 0x60 SHL PUSH1 0x44 DUP3 ADD MSTORE PUSH1 0x64 SWAP1 REVERT JUMPDEST CALLVALUE PUSH2 0x55F JUMPI PUSH2 0x150B CALLDATASIZE PUSH2 0x1F92 JUMP JUMPDEST PUSH2 0x1513 PUSH2 0x20E1 JUMP JUMPDEST PUSH0 JUMPDEST DUP2 MLOAD DUP2 LT ISZERO PUSH2 0x8F0 JUMPI DUP1 PUSH2 0xDC4 DUP5 PUSH2 0x1530 PUSH2 0x1548 SWAP5 DUP7 PUSH2 0x2712 JUMP JUMPDEST MLOAD DUP1 PUSH0 MSTORE PUSH0 PUSH1 0x20 MSTORE PUSH2 0x8EB PUSH1 0x1 PUSH1 0x40 PUSH0 KECCAK256 ADD SLOAD PUSH2 0x2175 JUMP JUMPDEST PUSH2 0x1515 JUMP JUMPDEST CALLVALUE PUSH2 0x55F JUMPI PUSH0 CALLDATASIZE PUSH1 0x3 NOT ADD SLT PUSH2 0x55F JUMPI PUSH1 0x20 PUSH1 0x40 MLOAD PUSH1 0xA DUP2 MSTORE RETURN JUMPDEST CALLVALUE PUSH2 0x55F JUMPI PUSH2 0x1576 CALLDATASIZE PUSH2 0x1F5C JUMP JUMPDEST SWAP2 SWAP1 SWAP2 CALLER PUSH0 MSTORE PUSH1 0x20 PUSH1 0x5 DUP2 MSTORE PUSH2 0x1592 PUSH1 0xFF PUSH1 0x40 PUSH0 KECCAK256 SLOAD AND PUSH2 0x255B JUMP JUMPDEST DUP3 PUSH0 MSTORE PUSH1 0x3 DUP2 MSTORE PUSH2 0x15AC PUSH1 0xFF PUSH1 0x9 PUSH1 0x40 PUSH0 KECCAK256 ADD SLOAD AND PUSH2 0x2386 JUMP JUMPDEST DUP3 PUSH0 MSTORE PUSH1 0x3 DUP2 MSTORE PUSH1 0x40 PUSH0 KECCAK256 PUSH2 0x15C6 PUSH1 0x4 DUP3 ADD SLOAD DUP7 LT PUSH2 0x23CA JUMP JUMPDEST PUSH1 0xFF PUSH1 0x6 DUP3 ADD SLOAD AND PUSH1 0x3 DUP2 LT ISZERO PUSH2 0x7DE JUMPI PUSH2 0x15E1 SWAP1 ISZERO PUSH2 0x2416 JUMP JUMPDEST DUP3 MLOAD ISZERO PUSH2 0x17E6 JUMPI PUSH1 0x5 SWAP1 DUP6 PUSH0 MSTORE ADD DUP2 MSTORE PUSH1 0x40 PUSH0 KECCAK256 PUSH2 0x1601 DUP2 SLOAD ISZERO ISZERO PUSH2 0x248E JUMP JUMPDEST PUSH2 0x1612 PUSH1 0xFF PUSH1 0x2 DUP4 ADD SLOAD AND ISZERO PUSH2 0x24CE JUMP JUMPDEST PUSH1 0x5 DUP2 ADD DUP1 SLOAD PUSH1 0xFF DUP2 PUSH1 0xA0 SHR AND PUSH2 0x17A1 JUMPI PUSH1 0xFF PUSH1 0xA0 SHL NOT AND PUSH1 0x1 PUSH1 0xA0 SHL OR SWAP1 SSTORE DUP3 MLOAD PUSH1 0x6 SWAP2 SWAP1 SWAP2 ADD SWAP1 PUSH8 0xFFFFFFFFFFFFFFFF DUP2 GT PUSH2 0x3A0 JUMPI PUSH2 0x1654 DUP3 SLOAD PUSH2 0x2456 JUMP JUMPDEST PUSH1 0x1F DUP2 GT PUSH2 0x175E JUMPI JUMPDEST POP DUP3 PUSH1 0x1F DUP3 GT PUSH1 0x1 EQ PUSH2 0x16D8 JUMPI SWAP2 DUP2 PUSH2 0x16C2 SWAP5 SWAP3 PUSH32 0xF3FBFA31CD03F629DFF824657DDD1AA40CA5F3940D9A8E0896F54ECB0F48F112 SWAP7 SWAP5 PUSH0 SWAP2 PUSH2 0x16CD JUMPI JUMPDEST POP DUP2 PUSH1 0x1 SHL SWAP2 PUSH0 NOT SWAP1 PUSH1 0x3 SHL SHR NOT AND OR SWAP1 SSTORE JUMPDEST PUSH1 0x40 MLOAD SWAP3 DUP4 SWAP3 PUSH1 0x40 DUP5 MSTORE PUSH1 0x40 DUP5 ADD SWAP1 PUSH2 0x202A JUMP JUMPDEST SWAP1 CALLER SWAP1 DUP4 ADD MSTORE SUB SWAP1 LOG3 STOP JUMPDEST SWAP1 POP DUP5 ADD MLOAD DUP10 PUSH2 0x169B JUMP JUMPDEST PUSH1 0x1F NOT DUP3 AND SWAP1 DUP4 PUSH0 MSTORE DUP5 PUSH0 KECCAK256 SWAP2 PUSH0 JUMPDEST DUP2 DUP2 LT PUSH2 0x1747 JUMPI POP SWAP3 PUSH32 0xF3FBFA31CD03F629DFF824657DDD1AA40CA5F3940D9A8E0896F54ECB0F48F112 SWAP7 SWAP5 SWAP3 PUSH1 0x1 SWAP3 DUP3 PUSH2 0x16C2 SWAP9 SWAP7 LT PUSH2 0x172F JUMPI JUMPDEST POP POP DUP2 SHL ADD SWAP1 SSTORE PUSH2 0x16AE JUMP JUMPDEST DUP7 ADD MLOAD PUSH0 NOT PUSH1 0xF8 DUP5 PUSH1 0x3 SHL AND SHR NOT AND SWAP1 SSTORE DUP10 DUP1 PUSH2 0x1723 JUMP JUMPDEST SWAP2 SWAP3 DUP7 PUSH1 0x1 DUP2 SWAP3 DUP7 DUP12 ADD MLOAD DUP2 SSTORE ADD SWAP5 ADD SWAP3 ADD PUSH2 0x16E7 JUMP JUMPDEST DUP3 PUSH0 MSTORE DUP4 PUSH0 KECCAK256 PUSH1 0x1F DUP4 ADD PUSH1 0x5 SHR DUP2 ADD SWAP2 DUP6 DUP5 LT PUSH2 0x1797 JUMPI JUMPDEST PUSH1 0x1F ADD PUSH1 0x5 SHR ADD SWAP1 JUMPDEST DUP2 DUP2 LT PUSH2 0x178C JUMPI POP PUSH2 0x165D JUMP JUMPDEST PUSH0 DUP2 SSTORE PUSH1 0x1 ADD PUSH2 0x177F JUMP JUMPDEST SWAP1 SWAP2 POP DUP2 SWAP1 PUSH2 0x1776 JUMP JUMPDEST PUSH1 0x40 MLOAD PUSH3 0x461BCD PUSH1 0xE5 SHL DUP2 MSTORE PUSH1 0x4 DUP2 ADD DUP6 SWAP1 MSTORE PUSH1 0x1A PUSH1 0x24 DUP3 ADD MSTORE PUSH32 0x4D696C6573746F6E6520616C7265616479206469737075746564000000000000 PUSH1 0x44 DUP3 ADD MSTORE PUSH1 0x64 SWAP1 REVERT JUMPDEST PUSH1 0x40 MLOAD PUSH3 0x461BCD PUSH1 0xE5 SHL DUP2 MSTORE PUSH1 0x4 DUP2 ADD DUP4 SWAP1 MSTORE PUSH1 0x17 PUSH1 0x24 DUP3 ADD MSTORE PUSH32 0x4469737075746520726561736F6E207265717569726564000000000000000000 PUSH1 0x44 DUP3 ADD MSTORE PUSH1 0x64 SWAP1 REVERT JUMPDEST CALLVALUE PUSH2 0x55F JUMPI PUSH0 CALLDATASIZE PUSH1 0x3 NOT ADD SLT PUSH2 0x55F JUMPI PUSH2 0x1843 PUSH2 0x2068 JUMP JUMPDEST PUSH1 0x2 SLOAD PUSH1 0xFF DUP2 AND ISZERO PUSH2 0x1882 JUMPI PUSH1 0xFF NOT AND PUSH1 0x2 SSTORE PUSH32 0x5DB9EE0A495BF2E6FF9C91A7834C1BA4FDD244A5E8AA4E537BD38AEAE4B073AA PUSH1 0x20 PUSH1 0x40 MLOAD CALLER DUP2 MSTORE LOG1 STOP JUMPDEST PUSH1 0x40 MLOAD PUSH3 0x461BCD PUSH1 0xE5 SHL DUP2 MSTORE PUSH1 0x20 PUSH1 0x4 DUP3 ADD MSTORE PUSH1 0x14 PUSH1 0x24 DUP3 ADD MSTORE PUSH20 0x14185D5CD8589B194E881B9BDD081C185D5CD959 PUSH1 0x62 SHL PUSH1 0x44 DUP3 ADD MSTORE PUSH1 0x64 SWAP1 REVERT JUMPDEST CALLVALUE PUSH2 0x55F JUMPI PUSH1 0x60 CALLDATASIZE PUSH1 0x3 NOT ADD SLT PUSH2 0x55F JUMPI PUSH1 0x24 CALLDATALOAD PUSH1 0x4 CALLDATALOAD PUSH1 0x44 CALLDATALOAD DUP1 ISZERO ISZERO SWAP1 DUP2 DUP2 SUB PUSH2 0x55F JUMPI PUSH2 0x18EB PUSH2 0x2068 JUMP JUMPDEST DUP3 PUSH0 MSTORE PUSH1 0x20 SWAP1 PUSH1 0x3 DUP3 MSTORE PUSH2 0x1908 PUSH1 0xFF PUSH1 0x9 PUSH1 0x40 PUSH0 KECCAK256 ADD SLOAD AND PUSH2 0x2386 JUMP JUMPDEST PUSH2 0x1910 PUSH2 0x2330 JUMP JUMPDEST DUP4 PUSH0 MSTORE PUSH1 0x3 DUP3 MSTORE PUSH1 0x40 PUSH0 KECCAK256 SWAP1 PUSH2 0x192B PUSH1 0x4 DUP4 ADD SLOAD DUP8 LT PUSH2 0x23CA JUMP JUMPDEST DUP6 PUSH0 MSTORE PUSH1 0x5 DUP3 ADD DUP4 MSTORE PUSH1 0x40 PUSH0 KECCAK256 SWAP2 PUSH1 0x5 DUP4 ADD DUP1 SLOAD SWAP3 PUSH1 0xFF DUP5 PUSH1 0xA0 SHR AND ISZERO PUSH2 0x1A5D JUMPI DUP6 SWAP4 PUSH1 0x40 SWAP7 PUSH32 0xA27015A0377C0D9543B642A583459FA12FC2B5B76ACA6689C025F244F6F2FFE5 SWAP9 SWAP7 SWAP5 DUP12 SWAP5 DUP12 SWAP5 PUSH1 0xFF PUSH1 0xA0 SHL NOT DUP6 AND DUP3 SSTORE PUSH2 0x19A0 JUMPI JUMPDEST POP POP POP POP POP POP POP DUP3 MLOAD SWAP2 DUP3 MSTORE CALLER SWAP1 DUP3 ADD MSTORE LOG3 PUSH1 0x1 DUP1 SSTORE STOP JUMPDEST PUSH32 0x7C23647DB3CB03F6F0D92AD3DCDE207E9A1640D0B15A34689BD0EA8C8400F8D5 SWAP4 PUSH1 0x2 DUP9 ADD PUSH1 0x1 PUSH1 0xFF NOT DUP3 SLOAD AND OR SWAP1 SSTORE TIMESTAMP PUSH1 0x3 DUP10 ADD SSTORE CALLER SWAP1 PUSH11 0xFFFFFFFFFFFFFFFFFFFFFF PUSH1 0xA8 SHL AND OR SWAP1 SSTORE DUP6 SLOAD PUSH2 0x19FD PUSH1 0x3 DUP4 ADD SWAP2 DUP3 SLOAD PUSH2 0x22D1 JUMP JUMPDEST SWAP1 SSTORE TIMESTAMP PUSH1 0x8 DUP3 ADD SSTORE PUSH2 0x1A12 DUP7 SLOAD PUSH1 0x7 SLOAD PUSH2 0x22D1 JUMP JUMPDEST PUSH1 0x7 SSTORE PUSH1 0x1 SELFBALANCE SWAP2 PUSH2 0x1A27 DUP9 SLOAD DUP1 SWAP5 LT ISZERO PUSH2 0x25A7 JUMP JUMPDEST ADD SWAP6 PUSH2 0x1A46 PUSH0 DUP1 DUP1 DUP1 PUSH1 0x1 DUP1 PUSH1 0xA0 SHL SUB SWAP7 DUP8 DUP14 SLOAD AND GAS CALL PUSH2 0x14BB PUSH2 0x25F5 JUMP JUMPDEST SLOAD SWAP6 SLOAD AND SWAP5 DUP9 MLOAD SWAP1 DUP2 MSTORE LOG4 DUP7 DUP7 DUP7 DUP3 DUP5 DUP2 DUP1 PUSH2 0x1988 JUMP JUMPDEST PUSH1 0x40 MLOAD PUSH3 0x461BCD PUSH1 0xE5 SHL DUP2 MSTORE PUSH1 0x4 DUP2 ADD DUP8 SWAP1 MSTORE PUSH1 0x16 PUSH1 0x24 DUP3 ADD MSTORE PUSH22 0x135A5B195CDD1BDB99481B9BDD08191A5CDC1D5D1959 PUSH1 0x52 SHL PUSH1 0x44 DUP3 ADD MSTORE PUSH1 0x64 SWAP1 REVERT JUMPDEST CALLVALUE PUSH2 0x55F JUMPI PUSH1 0x40 CALLDATASIZE PUSH1 0x3 NOT ADD SLT PUSH2 0x55F JUMPI PUSH2 0x1AB4 PUSH2 0x1EAC JUMP JUMPDEST CALLER PUSH1 0x1 PUSH1 0x1 PUSH1 0xA0 SHL SUB DUP3 AND SUB PUSH2 0x1AD0 JUMPI PUSH2 0x8F0 SWAP1 PUSH1 0x4 CALLDATALOAD PUSH2 0x2212 JUMP JUMPDEST PUSH1 0x40 MLOAD PUSH4 0x334BD919 PUSH1 0xE1 SHL DUP2 MSTORE PUSH1 0x4 SWAP1 REVERT JUMPDEST CALLVALUE PUSH2 0x55F JUMPI PUSH1 0x40 CALLDATASIZE PUSH1 0x3 NOT ADD SLT PUSH2 0x55F JUMPI PUSH2 0x8F0 PUSH1 0x4 CALLDATALOAD PUSH2 0x1B01 PUSH2 0x1EAC JUMP JUMPDEST SWAP1 DUP1 PUSH0 MSTORE PUSH0 PUSH1 0x20 MSTORE PUSH2 0xDBF PUSH1 0x1 PUSH1 0x40 PUSH0 KECCAK256 ADD SLOAD PUSH2 0x2175 JUMP JUMPDEST CALLVALUE PUSH2 0x55F JUMPI PUSH1 0x20 CALLDATASIZE PUSH1 0x3 NOT ADD SLT PUSH2 0x55F JUMPI PUSH1 0x4 CALLDATALOAD PUSH0 MSTORE PUSH0 PUSH1 0x20 MSTORE PUSH1 0x20 PUSH1 0x1 PUSH1 0x40 PUSH0 KECCAK256 ADD SLOAD PUSH1 0x40 MLOAD SWAP1 DUP2 MSTORE RETURN JUMPDEST CALLVALUE PUSH2 0x55F JUMPI PUSH0 CALLDATASIZE PUSH1 0x3 NOT ADD SLT PUSH2 0x55F JUMPI PUSH1 0x20 PUSH1 0x40 MLOAD PUSH7 0x38D7EA4C68000 DUP2 MSTORE RETURN JUMPDEST CALLVALUE PUSH2 0x55F JUMPI PUSH2 0x1B74 CALLDATASIZE PUSH2 0x1E96 JUMP JUMPDEST CALLER PUSH0 MSTORE PUSH1 0x5 PUSH1 0x20 MSTORE PUSH2 0x1B8C PUSH1 0xFF PUSH1 0x40 PUSH0 KECCAK256 SLOAD AND PUSH2 0x255B JUMP JUMPDEST DUP2 PUSH0 MSTORE PUSH1 0x3 PUSH1 0x20 MSTORE PUSH2 0x1BA7 PUSH1 0xFF PUSH1 0x9 PUSH1 0x40 PUSH0 KECCAK256 ADD SLOAD AND PUSH2 0x2386 JUMP JUMPDEST PUSH2 0x1BAF PUSH2 0x22EC JUMP JUMPDEST PUSH2 0x1BB7 PUSH2 0x2330 JUMP JUMPDEST DUP2 PUSH0 MSTORE PUSH1 0x3 PUSH1 0x20 MSTORE PUSH1 0x40 PUSH0 KECCAK256 SWAP2 PUSH2 0x1BD3 PUSH1 0x4 DUP5 ADD SLOAD DUP4 LT PUSH2 0x23CA JUMP JUMPDEST PUSH1 0xFF PUSH1 0x6 DUP5 ADD SLOAD AND PUSH1 0x3 DUP2 LT ISZERO PUSH2 0x7DE JUMPI PUSH2 0x1BEE SWAP1 ISZERO PUSH2 0x2416 JUMP JUMPDEST DUP2 PUSH0 MSTORE PUSH1 0x5 DUP4 ADD PUSH1 0x20 MSTORE PUSH1 0x40 PUSH0 KECCAK256 DUP1 SLOAD SWAP1 PUSH2 0x1C0A DUP3 ISZERO ISZERO PUSH2 0x248E JUMP JUMPDEST PUSH1 0x2 DUP2 ADD SLOAD SWAP2 PUSH2 0x1C1D PUSH1 0xFF DUP5 AND ISZERO PUSH2 0x24CE JUMP JUMPDEST PUSH1 0x5 DUP3 ADD SLOAD PUSH2 0x1C32 PUSH1 0xFF DUP3 PUSH1 0xA0 SHR AND ISZERO PUSH2 0x251A JUMP JUMPDEST PUSH2 0x1C3F PUSH1 0x4 DUP5 ADD SLOAD PUSH2 0x2456 JUMP JUMPDEST ISZERO PUSH2 0x1E06 JUMPI PUSH2 0x1C50 DUP3 SELFBALANCE LT ISZERO PUSH2 0x25A7 JUMP JUMPDEST DUP6 PUSH2 0x1D9C JUMPI JUMPDEST PUSH1 0x1 PUSH1 0xFF NOT DUP1 SWAP6 AND OR PUSH1 0x2 DUP5 ADD SSTORE TIMESTAMP PUSH1 0x3 DUP5 ADD SSTORE CALLER SWAP1 PUSH12 0xFFFFFFFFFFFFFFFFFFFFFFFF PUSH1 0xA0 SHL AND OR PUSH1 0x5 DUP4 ADD SSTORE PUSH2 0x1C92 PUSH1 0x3 DUP8 ADD SWAP2 DUP3 SLOAD PUSH2 0x22D1 JUMP JUMPDEST SWAP1 SSTORE TIMESTAMP PUSH1 0x8 DUP7 ADD SSTORE PUSH2 0x1CA7 DUP2 SLOAD PUSH1 0x7 SLOAD PUSH2 0x22D1 JUMP JUMPDEST PUSH1 0x7 SSTORE PUSH1 0x1 DUP6 ADD SWAP5 PUSH1 0x1 DUP1 PUSH1 0xA0 SHL SUB SWAP3 PUSH2 0x1CCF PUSH0 DUP1 DUP1 DUP1 DUP9 DUP13 SLOAD AND DUP9 SLOAD SWAP1 GAS CALL PUSH2 0x14BB PUSH2 0x25F5 JUMP JUMPDEST PUSH1 0x1 PUSH0 PUSH1 0x4 DUP5 ADD SLOAD SWAP1 JUMPDEST DUP2 DUP2 LT PUSH2 0x1D47 JUMPI JUMPDEST POP POP SWAP2 PUSH1 0x20 SWAP4 SWAP2 PUSH32 0x7C23647DB3CB03F6F0D92AD3DCDE207E9A1640D0B15A34689BD0EA8C8400F8D5 SWAP6 SWAP4 PUSH2 0x1D24 JUMPI JUMPDEST POP POP SLOAD SWAP6 SLOAD AND SWAP5 PUSH1 0x40 MLOAD SWAP1 DUP2 MSTORE LOG4 PUSH1 0x1 DUP1 SSTORE STOP JUMPDEST PUSH1 0x1 PUSH1 0x6 SWAP2 DUP3 DUP5 ADD SLOAD AND OR SWAP2 ADD SSTORE PUSH2 0x1D3D PUSH1 0x8 SLOAD PUSH2 0x2665 JUMP JUMPDEST PUSH1 0x8 SSTORE DUP8 DUP1 PUSH2 0x1D10 JUMP JUMPDEST DUP1 PUSH0 MSTORE PUSH1 0x5 DUP6 ADD PUSH1 0x20 MSTORE PUSH1 0xFF PUSH1 0x2 PUSH1 0x40 PUSH0 KECCAK256 ADD SLOAD AND ISZERO PUSH2 0x1D6F JUMPI PUSH2 0x1D6A SWAP1 PUSH2 0x22DE JUMP JUMPDEST PUSH2 0x1CD9 JUMP JUMPDEST POP PUSH0 SWAP2 POP DUP3 SWAP1 POP PUSH32 0x7C23647DB3CB03F6F0D92AD3DCDE207E9A1640D0B15A34689BD0EA8C8400F8D5 PUSH2 0x1CE1 JUMP JUMPDEST DUP6 PUSH0 NOT DUP2 ADD GT PUSH2 0x41C JUMPI PUSH0 NOT DUP7 ADD PUSH0 MSTORE PUSH1 0x5 DUP8 ADD PUSH1 0x20 MSTORE PUSH1 0xFF PUSH1 0x2 PUSH1 0x40 PUSH0 KECCAK256 ADD SLOAD AND PUSH2 0x1C56 JUMPI PUSH1 0x64 PUSH1 0x40 MLOAD PUSH3 0x461BCD PUSH1 0xE5 SHL DUP2 MSTORE PUSH1 0x20 PUSH1 0x4 DUP3 ADD MSTORE PUSH1 0x20 PUSH1 0x24 DUP3 ADD MSTORE PUSH32 0x50726576696F7573206D696C6573746F6E65206E6F7420636F6D706C65746564 PUSH1 0x44 DUP3 ADD MSTORE REVERT JUMPDEST PUSH1 0x40 MLOAD PUSH3 0x461BCD PUSH1 0xE5 SHL DUP2 MSTORE PUSH1 0x20 PUSH1 0x4 DUP3 ADD MSTORE PUSH1 0x15 PUSH1 0x24 DUP3 ADD MSTORE PUSH21 0x139BC8195D9A59195B98D9481CDD589B5A5D1D1959 PUSH1 0x5A SHL PUSH1 0x44 DUP3 ADD MSTORE PUSH1 0x64 SWAP1 REVERT JUMPDEST CALLVALUE PUSH2 0x55F JUMPI PUSH1 0x20 CALLDATASIZE PUSH1 0x3 NOT ADD SLT PUSH2 0x55F JUMPI PUSH1 0x4 CALLDATALOAD SWAP1 PUSH4 0xFFFFFFFF PUSH1 0xE0 SHL DUP3 AND DUP1 SWAP3 SUB PUSH2 0x55F JUMPI PUSH1 0x20 SWAP2 PUSH4 0x7965DB0B PUSH1 0xE0 SHL DUP2 EQ SWAP1 DUP2 ISZERO PUSH2 0x1E85 JUMPI JUMPDEST POP ISZERO ISZERO DUP2 MSTORE RETURN JUMPDEST PUSH4 0x1FFC9A7 PUSH1 0xE0 SHL EQ SWAP1 POP DUP4 PUSH2 0x1E7E JUMP JUMPDEST PUSH1 0x40 SWAP1 PUSH1 0x3 NOT ADD SLT PUSH2 0x55F JUMPI PUSH1 0x4 CALLDATALOAD SWAP1 PUSH1 0x24 CALLDATALOAD SWAP1 JUMP JUMPDEST PUSH1 0x24 CALLDATALOAD SWAP1 PUSH1 0x1 PUSH1 0x1 PUSH1 0xA0 SHL SUB DUP3 AND DUP3 SUB PUSH2 0x55F JUMPI JUMP JUMPDEST PUSH1 0x4 CALLDATALOAD SWAP1 PUSH1 0x1 PUSH1 0x1 PUSH1 0xA0 SHL SUB DUP3 AND DUP3 SUB PUSH2 0x55F JUMPI JUMP JUMPDEST SWAP1 PUSH1 0x1F DUP1 NOT SWAP2 ADD AND DUP2 ADD SWAP1 DUP2 LT PUSH8 0xFFFFFFFFFFFFFFFF DUP3 GT OR PUSH2 0x3A0 JUMPI PUSH1 0x40 MSTORE JUMP JUMPDEST PUSH8 0xFFFFFFFFFFFFFFFF DUP2 GT PUSH2 0x3A0 JUMPI PUSH1 0x1F ADD PUSH1 0x1F NOT AND PUSH1 0x20 ADD SWAP1 JUMP JUMPDEST DUP2 PUSH1 0x1F DUP3 ADD SLT ISZERO PUSH2 0x55F JUMPI DUP1 CALLDATALOAD SWAP1 PUSH2 0x1F2D DUP3 PUSH2 0x1EFA JUMP JUMPDEST SWAP3 PUSH2 0x1F3B PUSH1 0x40 MLOAD SWAP5 DUP6 PUSH2 0x1ED8 JUMP JUMPDEST DUP3 DUP5 MSTORE PUSH1 0x20 DUP4 DUP4 ADD ADD GT PUSH2 0x55F JUMPI DUP2 PUSH0 SWAP3 PUSH1 0x20 DUP1 SWAP4 ADD DUP4 DUP7 ADD CALLDATACOPY DUP4 ADD ADD MSTORE SWAP1 JUMP JUMPDEST PUSH1 0x60 PUSH1 0x3 NOT DUP3 ADD SLT PUSH2 0x55F JUMPI PUSH1 0x4 CALLDATALOAD SWAP2 PUSH1 0x24 CALLDATALOAD SWAP2 PUSH1 0x44 CALLDATALOAD SWAP1 PUSH8 0xFFFFFFFFFFFFFFFF DUP3 GT PUSH2 0x55F JUMPI PUSH2 0x1F8F SWAP2 PUSH1 0x4 ADD PUSH2 0x1F16 JUMP JUMPDEST SWAP1 JUMP JUMPDEST SWAP1 PUSH1 0x40 PUSH1 0x3 NOT DUP4 ADD SLT PUSH2 0x55F JUMPI PUSH1 0x4 CALLDATALOAD PUSH1 0x1 PUSH1 0x1 PUSH1 0xA0 SHL SUB DUP2 AND DUP2 SUB PUSH2 0x55F JUMPI SWAP2 PUSH1 0x24 CALLDATALOAD SWAP1 PUSH8 0xFFFFFFFFFFFFFFFF SWAP1 DUP2 DUP4 GT PUSH2 0x55F JUMPI DUP1 PUSH1 0x23 DUP5 ADD SLT ISZERO PUSH2 0x55F JUMPI DUP3 PUSH1 0x4 ADD CALLDATALOAD SWAP2 DUP3 GT PUSH2 0x3A0 JUMPI DUP2 PUSH1 0x5 SHL PUSH1 0x40 MLOAD SWAP4 PUSH1 0x20 SWAP4 PUSH2 0x1FF6 DUP6 DUP5 ADD DUP8 PUSH2 0x1ED8 JUMP JUMPDEST DUP6 MSTORE PUSH1 0x24 DUP5 DUP7 ADD SWAP3 DUP3 ADD ADD SWAP3 DUP4 GT PUSH2 0x55F JUMPI PUSH1 0x24 ADD SWAP1 JUMPDEST DUP3 DUP3 LT PUSH2 0x201B JUMPI POP POP POP POP SWAP1 JUMP JUMPDEST DUP2 CALLDATALOAD DUP2 MSTORE SWAP1 DUP4 ADD SWAP1 DUP4 ADD PUSH2 0x200D JUMP JUMPDEST SWAP2 SWAP1 DUP3 MLOAD SWAP3 DUP4 DUP3 MSTORE PUSH0 JUMPDEST DUP5 DUP2 LT PUSH2 0x2054 JUMPI POP POP DUP3 PUSH0 PUSH1 0x20 DUP1 SWAP5 SWAP6 DUP5 ADD ADD MSTORE PUSH1 0x1F DUP1 NOT SWAP2 ADD AND ADD ADD SWAP1 JUMP JUMPDEST PUSH1 0x20 DUP2 DUP4 ADD DUP2 ADD MLOAD DUP5 DUP4 ADD DUP3 ADD MSTORE ADD PUSH2 0x2034 JUMP JUMPDEST CALLER PUSH0 SWAP1 DUP2 MSTORE PUSH32 0x7D7FFB7A348E1C6A02869081A26547B49160DD3DF72D1D75A570EB9B698292EC PUSH1 0x20 MSTORE PUSH1 0x40 SWAP1 KECCAK256 SLOAD PUSH32 0xA49807205CE4D355092EF5A8A18F56E8913CF4A201FBE287825B095693C21775 SWAP1 PUSH1 0xFF AND ISZERO PUSH2 0x20C3 JUMPI POP JUMP JUMPDEST PUSH1 0x44 SWAP1 PUSH1 0x40 MLOAD SWAP1 PUSH4 0xE2517D3F PUSH1 0xE0 SHL DUP3 MSTORE CALLER PUSH1 0x4 DUP4 ADD MSTORE PUSH1 0x24 DUP3 ADD MSTORE REVERT JUMPDEST CALLER PUSH0 SWAP1 DUP2 MSTORE PUSH32 0xAD3228B676F7D3CD4284A5443F17F1962B36E491B30A40B2405849E597BA5FB5 PUSH1 0x20 MSTORE PUSH1 0x40 DUP2 KECCAK256 SLOAD PUSH1 0xFF AND ISZERO PUSH2 0x20C3 JUMPI POP JUMP JUMPDEST CALLER PUSH0 SWAP1 DUP2 MSTORE PUSH32 0x5B444936B1AF04FFEE1FE3046E0C1CE51D425198D231B995F86357E304F12208 PUSH1 0x20 MSTORE PUSH1 0x40 SWAP1 KECCAK256 SLOAD PUSH32 0xEDE9DCDB0CE99DC7CEC9C7BE9246AD08B37853683AD91569C187B647DDF5E21C SWAP1 PUSH1 0xFF AND ISZERO PUSH2 0x20C3 JUMPI POP JUMP JUMPDEST DUP1 PUSH0 MSTORE PUSH0 PUSH1 0x20 MSTORE PUSH1 0x40 PUSH0 KECCAK256 CALLER PUSH0 MSTORE PUSH1 0x20 MSTORE PUSH1 0xFF PUSH1 0x40 PUSH0 KECCAK256 SLOAD AND ISZERO PUSH2 0x20C3 JUMPI POP JUMP JUMPDEST SWAP1 PUSH0 SWAP2 DUP1 DUP4 MSTORE DUP3 PUSH1 0x20 MSTORE PUSH1 0x40 DUP4 KECCAK256 SWAP2 PUSH1 0x1 DUP1 PUSH1 0xA0 SHL SUB AND SWAP2 DUP3 DUP5 MSTORE PUSH1 0x20 MSTORE PUSH1 0xFF PUSH1 0x40 DUP5 KECCAK256 SLOAD AND ISZERO PUSH0 EQ PUSH2 0x220D JUMPI DUP1 DUP4 MSTORE DUP3 PUSH1 0x20 MSTORE PUSH1 0x40 DUP4 KECCAK256 DUP3 DUP5 MSTORE PUSH1 0x20 MSTORE PUSH1 0x40 DUP4 KECCAK256 PUSH1 0x1 PUSH1 0xFF NOT DUP3 SLOAD AND OR SWAP1 SSTORE PUSH32 0x2F8788117E7EFF1D82E926EC794901D17C78024A50270940304540A733656F0D CALLER SWAP4 DUP1 LOG4 PUSH1 0x1 SWAP1 JUMP JUMPDEST POP POP SWAP1 JUMP JUMPDEST SWAP1 PUSH0 SWAP2 DUP1 DUP4 MSTORE DUP3 PUSH1 0x20 MSTORE PUSH1 0x40 DUP4 KECCAK256 SWAP2 PUSH1 0x1 DUP1 PUSH1 0xA0 SHL SUB AND SWAP2 DUP3 DUP5 MSTORE PUSH1 0x20 MSTORE PUSH1 0xFF PUSH1 0x40 DUP5 KECCAK256 SLOAD AND PUSH0 EQ PUSH2 0x220D JUMPI DUP1 DUP4 MSTORE DUP3 PUSH1 0x20 MSTORE PUSH1 0x40 DUP4 KECCAK256 DUP3 DUP5 MSTORE PUSH1 0x20 MSTORE PUSH1 0x40 DUP4 KECCAK256 PUSH1 0xFF NOT DUP2 SLOAD AND SWAP1 SSTORE PUSH32 0xF6391F5C32D9C69D2A47EA670B442974B53935D1EDC7FD64EB21E047A839171B CALLER SWAP4 DUP1 LOG4 PUSH1 0x1 SWAP1 JUMP JUMPDEST ISZERO PUSH2 0x228C JUMPI JUMP JUMPDEST PUSH1 0x40 MLOAD PUSH3 0x461BCD PUSH1 0xE5 SHL DUP2 MSTORE PUSH1 0x20 PUSH1 0x4 DUP3 ADD MSTORE PUSH1 0x17 PUSH1 0x24 DUP3 ADD MSTORE PUSH32 0x416D6F756E74206D75737420626520706F736974697665000000000000000000 PUSH1 0x44 DUP3 ADD MSTORE PUSH1 0x64 SWAP1 REVERT JUMPDEST SWAP2 SWAP1 DUP3 ADD DUP1 SWAP3 GT PUSH2 0x41C JUMPI JUMP JUMPDEST PUSH0 NOT DUP2 EQ PUSH2 0x41C JUMPI PUSH1 0x1 ADD SWAP1 JUMP JUMPDEST PUSH1 0xFF PUSH1 0x2 SLOAD AND PUSH2 0x22F8 JUMPI JUMP JUMPDEST PUSH1 0x40 MLOAD PUSH3 0x461BCD PUSH1 0xE5 SHL DUP2 MSTORE PUSH1 0x20 PUSH1 0x4 DUP3 ADD MSTORE PUSH1 0x10 PUSH1 0x24 DUP3 ADD MSTORE PUSH16 0x14185D5CD8589B194E881C185D5CD959 PUSH1 0x82 SHL PUSH1 0x44 DUP3 ADD MSTORE PUSH1 0x64 SWAP1 REVERT JUMPDEST PUSH1 0x2 PUSH1 0x1 SLOAD EQ PUSH2 0x2341 JUMPI PUSH1 0x2 PUSH1 0x1 SSTORE JUMP JUMPDEST PUSH1 0x40 MLOAD PUSH3 0x461BCD PUSH1 0xE5 SHL DUP2 MSTORE PUSH1 0x20 PUSH1 0x4 DUP3 ADD MSTORE PUSH1 0x1F PUSH1 0x24 DUP3 ADD MSTORE PUSH32 0x5265656E7472616E637947756172643A207265656E7472616E742063616C6C00 PUSH1 0x44 DUP3 ADD MSTORE PUSH1 0x64 SWAP1 REVERT JUMPDEST ISZERO PUSH2 0x238D JUMPI JUMP JUMPDEST PUSH1 0x40 MLOAD PUSH3 0x461BCD PUSH1 0xE5 SHL DUP2 MSTORE PUSH1 0x20 PUSH1 0x4 DUP3 ADD MSTORE PUSH1 0x15 PUSH1 0x24 DUP3 ADD MSTORE PUSH21 0x115CD8DC9BDDC8191BD95CC81B9BDD08195E1A5CDD PUSH1 0x5A SHL PUSH1 0x44 DUP3 ADD MSTORE PUSH1 0x64 SWAP1 REVERT JUMPDEST ISZERO PUSH2 0x23D1 JUMPI JUMP JUMPDEST PUSH1 0x40 MLOAD PUSH3 0x461BCD PUSH1 0xE5 SHL DUP2 MSTORE PUSH1 0x20 PUSH1 0x4 DUP3 ADD MSTORE PUSH1 0x17 PUSH1 0x24 DUP3 ADD MSTORE PUSH32 0x496E76616C6964206D696C6573746F6E6520696E646578000000000000000000 PUSH1 0x44 DUP3 ADD MSTORE PUSH1 0x64 SWAP1 REVERT JUMPDEST ISZERO PUSH2 0x241D JUMPI JUMP JUMPDEST PUSH1 0x40 MLOAD PUSH3 0x461BCD PUSH1 0xE5 SHL DUP2 MSTORE PUSH1 0x20 PUSH1 0x4 DUP3 ADD MSTORE PUSH1 0x11 PUSH1 0x24 DUP3 ADD MSTORE PUSH17 0x457363726F77206E6F7420616374697665 PUSH1 0x78 SHL PUSH1 0x44 DUP3 ADD MSTORE PUSH1 0x64 SWAP1 REVERT JUMPDEST SWAP1 PUSH1 0x1 DUP3 DUP2 SHR SWAP3 AND DUP1 ISZERO PUSH2 0x2484 JUMPI JUMPDEST PUSH1 0x20 DUP4 LT EQ PUSH2 0x2470 JUMPI JUMP JUMPDEST PUSH4 0x4E487B71 PUSH1 0xE0 SHL PUSH0 MSTORE PUSH1 0x22 PUSH1 0x4 MSTORE PUSH1 0x24 PUSH0 REVERT JUMPDEST SWAP2 PUSH1 0x7F AND SWAP2 PUSH2 0x2465 JUMP JUMPDEST ISZERO PUSH2 0x2495 JUMPI JUMP JUMPDEST PUSH1 0x40 MLOAD PUSH3 0x461BCD PUSH1 0xE5 SHL DUP2 MSTORE PUSH1 0x20 PUSH1 0x4 DUP3 ADD MSTORE PUSH1 0x11 PUSH1 0x24 DUP3 ADD MSTORE PUSH17 0x135A5B195CDD1BDB99481B9BDD081CD95D PUSH1 0x7A SHL PUSH1 0x44 DUP3 ADD MSTORE PUSH1 0x64 SWAP1 REVERT JUMPDEST ISZERO PUSH2 0x24D5 JUMPI JUMP JUMPDEST PUSH1 0x40 MLOAD PUSH3 0x461BCD PUSH1 0xE5 SHL DUP2 MSTORE PUSH1 0x20 PUSH1 0x4 DUP3 ADD MSTORE PUSH1 0x1B PUSH1 0x24 DUP3 ADD MSTORE PUSH32 0x4D696C6573746F6E6520616C726561647920636F6D706C657465640000000000 PUSH1 0x44 DUP3 ADD MSTORE PUSH1 0x64 SWAP1 REVERT JUMPDEST ISZERO PUSH2 0x2521 JUMPI JUMP JUMPDEST PUSH1 0x40 MLOAD PUSH3 0x461BCD PUSH1 0xE5 SHL DUP2 MSTORE PUSH1 0x20 PUSH1 0x4 DUP3 ADD MSTORE PUSH1 0x12 PUSH1 0x24 DUP3 ADD MSTORE PUSH18 0x135A5B195CDD1BDB9948191A5CDC1D5D1959 PUSH1 0x72 SHL PUSH1 0x44 DUP3 ADD MSTORE PUSH1 0x64 SWAP1 REVERT JUMPDEST ISZERO PUSH2 0x2562 JUMPI JUMP JUMPDEST PUSH1 0x40 MLOAD PUSH3 0x461BCD PUSH1 0xE5 SHL DUP2 MSTORE PUSH1 0x20 PUSH1 0x4 DUP3 ADD MSTORE PUSH1 0x17 PUSH1 0x24 DUP3 ADD MSTORE PUSH32 0x4E6F7420617574686F72697A656420617070726F766572000000000000000000 PUSH1 0x44 DUP3 ADD MSTORE PUSH1 0x64 SWAP1 REVERT JUMPDEST ISZERO PUSH2 0x25AE JUMPI JUMP JUMPDEST PUSH1 0x40 MLOAD PUSH3 0x461BCD PUSH1 0xE5 SHL DUP2 MSTORE PUSH1 0x20 PUSH1 0x4 DUP3 ADD MSTORE PUSH1 0x12 PUSH1 0x24 DUP3 ADD MSTORE PUSH18 0x496E73756666696369656E742066756E6473 PUSH1 0x70 SHL PUSH1 0x44 DUP3 ADD MSTORE PUSH1 0x64 SWAP1 REVERT JUMPDEST SWAP2 SWAP1 DUP3 SUB SWAP2 DUP3 GT PUSH2 0x41C JUMPI JUMP JUMPDEST RETURNDATASIZE ISZERO PUSH2 0x261F JUMPI RETURNDATASIZE SWAP1 PUSH2 0x2606 DUP3 PUSH2 0x1EFA JUMP JUMPDEST SWAP2 PUSH2 0x2614 PUSH1 0x40 MLOAD SWAP4 DUP5 PUSH2 0x1ED8 JUMP JUMPDEST DUP3 MSTORE RETURNDATASIZE PUSH0 PUSH1 0x20 DUP5 ADD RETURNDATACOPY JUMP JUMPDEST PUSH1 0x60 SWAP1 JUMP JUMPDEST ISZERO PUSH2 0x262B JUMPI JUMP JUMPDEST PUSH1 0x40 MLOAD PUSH3 0x461BCD PUSH1 0xE5 SHL DUP2 MSTORE PUSH1 0x20 PUSH1 0x4 DUP3 ADD MSTORE PUSH1 0x12 PUSH1 0x24 DUP3 ADD MSTORE PUSH18 0x4661696C656420746F2073656E6420584649 PUSH1 0x70 SHL PUSH1 0x44 DUP3 ADD MSTORE PUSH1 0x64 SWAP1 REVERT JUMPDEST DUP1 ISZERO PUSH2 0x41C JUMPI PUSH0 NOT ADD SWAP1 JUMP JUMPDEST SWAP1 PUSH1 0x40 MLOAD SWAP2 DUP3 PUSH0 DUP3 SLOAD SWAP3 PUSH2 0x2684 DUP5 PUSH2 0x2456 JUMP JUMPDEST SWAP1 DUP2 DUP5 MSTORE PUSH1 0x1 SWAP5 DUP6 DUP2 AND SWAP1 DUP2 PUSH0 EQ PUSH2 0x26EF JUMPI POP PUSH1 0x1 EQ PUSH2 0x26AF JUMPI JUMPDEST POP POP PUSH2 0x26AD SWAP3 POP SUB DUP4 PUSH2 0x1ED8 JUMP JUMPDEST JUMP JUMPDEST SWAP1 SWAP4 SWAP2 POP PUSH0 MSTORE PUSH1 0x20 SWAP1 DUP2 PUSH0 KECCAK256 SWAP4 PUSH0 SWAP2 JUMPDEST DUP2 DUP4 LT PUSH2 0x26D7 JUMPI POP POP PUSH2 0x26AD SWAP4 POP DUP3 ADD ADD PUSH0 DUP1 PUSH2 0x269F JUMP JUMPDEST DUP6 SLOAD DUP9 DUP5 ADD DUP6 ADD MSTORE SWAP5 DUP6 ADD SWAP5 DUP8 SWAP5 POP SWAP2 DUP4 ADD SWAP2 PUSH2 0x26BF JUMP JUMPDEST SWAP2 POP POP PUSH2 0x26AD SWAP5 POP PUSH1 0x20 SWAP3 POP PUSH1 0xFF NOT AND DUP3 DUP5 ADD MSTORE ISZERO ISZERO PUSH1 0x5 SHL DUP3 ADD ADD PUSH0 DUP1 PUSH2 0x269F JUMP JUMPDEST DUP1 MLOAD DUP3 LT ISZERO PUSH2 0x38C JUMPI PUSH1 0x20 SWAP2 PUSH1 0x5 SHL ADD ADD SWAP1 JUMP JUMPDEST SWAP1 PUSH0 JUMPDEST DUP2 MLOAD DUP2 LT ISZERO PUSH2 0x275A JUMPI PUSH2 0x2740 DUP4 PUSH2 0xBD3 DUP4 DUP6 PUSH2 0x2712 JUMP JUMPDEST PUSH2 0x2752 JUMPI PUSH2 0x274D SWAP1 PUSH2 0x22DE JUMP JUMPDEST PUSH2 0x2729 JUMP JUMPDEST POP POP POP PUSH1 0x1 SWAP1 JUMP JUMPDEST POP POP POP PUSH0 SWAP1 JUMP JUMPDEST PUSH1 0x40 MLOAD PUSH1 0xE0 DUP2 ADD DUP2 DUP2 LT PUSH8 0xFFFFFFFFFFFFFFFF DUP3 GT OR PUSH2 0x3A0 JUMPI PUSH1 0x40 MSTORE PUSH1 0x6 DUP2 MSTORE PUSH1 0x20 DUP2 ADD PUSH1 0xC0 CALLDATASIZE DUP3 CALLDATACOPY DUP2 MLOAD ISZERO PUSH2 0x38C JUMPI PUSH0 DUP1 SWAP2 MSTORE DUP2 MLOAD PUSH1 0x1 LT ISZERO PUSH2 0x288A JUMPI PUSH32 0xA49807205CE4D355092EF5A8A18F56E8913CF4A201FBE287825B095693C21775 PUSH1 0x40 DUP4 ADD MSTORE DUP2 MLOAD PUSH1 0x2 LT ISZERO PUSH2 0x288A JUMPI PUSH32 0x482648E7878E9FA54C0A2F67FFD22D00EBC37CF7A03E060E428D2AB0CD6735CC PUSH1 0x60 DUP4 ADD MSTORE DUP2 MLOAD PUSH1 0x3 LT ISZERO PUSH2 0x288A JUMPI PUSH32 0xEDE9DCDB0CE99DC7CEC9C7BE9246AD08B37853683AD91569C187B647DDF5E21C PUSH1 0x80 DUP4 ADD MSTORE DUP2 MLOAD PUSH1 0x4 LT ISZERO PUSH2 0x288A JUMPI PUSH32 0x58223CDFB69946630D837D40B5C366A584F0217ADA7FDDD8318F2E08603CFA22 PUSH1 0xA0 DUP4 ADD MSTORE DUP2 MLOAD PUSH1 0x5 LT ISZERO PUSH2 0x288A JUMPI POP PUSH32 0x7B8BB8356A3F32F5C111FF23F050D97F08988E0883529EA7BFF3B918887A6E0E PUSH1 0xC0 DUP3 ADD MSTORE SWAP1 JUMP JUMPDEST PUSH4 0x4E487B71 PUSH1 0xE0 SHL DUP2 MSTORE PUSH1 0x32 PUSH1 0x4 MSTORE PUSH1 0x24 SWAP1 REVERT INVALID LOG2 PUSH5 0x6970667358 0x22 SLT KECCAK256 ADDMOD DIV 0xD9 SWAP8 PREVRANDAO LOG1 LOG2 0xEA 0xCA JUMP 0xD0 0xB8 0xA7 MLOAD LOG2 0xB6 0xC5 ADD 0xB6 0xF6 PUSH14 0xCBECC28CB505A15C4A0B9964736F PUSH13 0x634300081400332F8788117E7E SELFDESTRUCT SAR DUP3 0xE9 0x26 0xEC PUSH26 0x4901D17C78024A50270940304540A733656F0D00000000000000 "
		},
		"gasEstimates": {
			"creation": {
				"codeDepositCost": "2090400",
				"executionCost": "infinite",
				"totalCost": "infinite"
			},
			"external": {
				"ADMIN_ROLE()": "483",
				"AI_ORACLE_ROLE()": "857",
				"DEFAULT_ADMIN_ROLE()": "768",
				"DISPUTE_RESOLUTION_PERIOD()": "1011",
				"DISPUTE_RESOLVER_ROLE()": "835",
				"MAX_MILESTONES()": "351",
				"MILESTONE_APPROVAL_PERIOD()": "593",
				"MILESTONE_APPROVER_ROLE()": "747",
				"PROPOSAL_FEE()": "197",
				"TREASURY_MANAGER_ROLE()": "989",
				"activeEscrowCount()": "2982",
				"approveMilestone(uint256,uint256)": "infinite",
				"cancelEscrow(uint256,string)": "infinite",
				"createEscrow(uint256,address,uint256,uint256)": "346893",
				"depositFunds()": "27466",
				"disputeMilestone(uint256,uint256,string)": "infinite",
				"emergencyWithdraw(uint256)": "infinite",
				"escrowExists(uint256)": "2801",
				"getAllRoles()": "infinite",
				"getBeneficiaryEscrows(address)": "infinite",
				"getEscrow(uint256)": "15576",
				"getMilestone(uint256,uint256)": "infinite",
				"getRoleAdmin(bytes32)": "2392",
				"getRoleCount(address)": "infinite",
				"getTreasuryStats()": "7263",
				"grantMultipleRoles(address,bytes32[])": "infinite",
				"grantRole(bytes32,address)": "33294",
				"hasAnyRole(address,bytes32[])": "infinite",
				"hasRole(bytes32,address)": "3056",
				"milestoneApprovers(address)": "2946",
				"pause()": "30148",
				"paused()": "2554",
				"renounceRole(bytes32,address)": "28906",
				"resolveDispute(uint256,uint256,bool)": "infinite",
				"revokeMultipleRoles(address,bytes32[])": "infinite",
				"revokeRole(bytes32,address)": "33989",
				"setMilestone(uint256,uint256,uint256,string)": "infinite",
				"setMilestoneApprover(address,bool)": "28473",
				"submitMilestoneEvidence(uint256,uint256,string)": "infinite",
				"supportsInterface(bytes4)": "270",
				"totalEscrowedAmount()": "2762",
				"totalReleasedAmount()": "2630",
				"unpause()": "27779"
			}
		},
		"methodIdentifiers": {
			"ADMIN_ROLE()": "75b238fc",
			"AI_ORACLE_ROLE()": "c601f7af",
			"DEFAULT_ADMIN_ROLE()": "a217fddf",
			"DISPUTE_RESOLUTION_PERIOD()": "f0d1dc00",
			"DISPUTE_RESOLVER_ROLE()": "bfe42a37",
			"MAX_MILESTONES()": "4c05abeb",
			"MILESTONE_APPROVAL_PERIOD()": "8acd2fe7",
			"MILESTONE_APPROVER_ROLE()": "a02d72fb",
			"PROPOSAL_FEE()": "233f625c",
			"TREASURY_MANAGER_ROLE()": "ebdf690f",
			"activeEscrowCount()": "c781aa41",
			"approveMilestone(uint256,uint256)": "20913da5",
			"cancelEscrow(uint256,string)": "d2af2bcb",
			"createEscrow(uint256,address,uint256,uint256)": "faa33920",
			"depositFunds()": "e2c41dbc",
			"disputeMilestone(uint256,uint256,string)": "40a5833d",
			"emergencyWithdraw(uint256)": "5312ea8e",
			"escrowExists(uint256)": "8e0eac0f",
			"getAllRoles()": "f2bcac3d",
			"getBeneficiaryEscrows(address)": "a7cbdf56",
			"getEscrow(uint256)": "7d19e596",
			"getMilestone(uint256,uint256)": "8ed9895c",
			"getRoleAdmin(bytes32)": "248a9ca3",
			"getRoleCount(address)": "aca5a8a7",
			"getTreasuryStats()": "c8692e3f",
			"grantMultipleRoles(address,bytes32[])": "91b9f9d8",
			"grantRole(bytes32,address)": "2f2ff15d",
			"hasAnyRole(address,bytes32[])": "68ca78f9",
			"hasRole(bytes32,address)": "91d14854",
			"milestoneApprovers(address)": "90c0616b",
			"pause()": "8456cb59",
			"paused()": "5c975abb",
			"renounceRole(bytes32,address)": "36568abe",
			"resolveDispute(uint256,uint256,bool)": "36c47f5f",
			"revokeMultipleRoles(address,bytes32[])": "4fe9d1f5",
			"revokeRole(bytes32,address)": "d547741f",
			"setMilestone(uint256,uint256,uint256,string)": "f166bc09",
			"setMilestoneApprover(address,bool)": "56f800f0",
			"submitMilestoneEvidence(uint256,uint256,string)": "898e8cfe",
			"supportsInterface(bytes4)": "01ffc9a7",
			"totalEscrowedAmount()": "9011f8fe",
			"totalReleasedAmount()": "83273cd1",
			"unpause()": "3f4ba83a"
		}
	},
	"abi": [
		{
			"inputs": [],
			"stateMutability": "nonpayable",
			"type": "constructor"
		},
		{
			"inputs": [],
			"name": "AccessControlBadConfirmation",
			"type": "error"
		},
		{
			"inputs": [
				{
					"internalType": "address",
					"name": "account",
					"type": "address"
				},
				{
					"internalType": "bytes32",
					"name": "neededRole",
					"type": "bytes32"
				}
			],
			"name": "AccessControlUnauthorizedAccount",
			"type": "error"
		},
		{
			"anonymous": false,
			"inputs": [
				{
					"indexed": true,
					"internalType": "uint256",
					"name": "proposalId",
					"type": "uint256"
				},
				{
					"indexed": true,
					"internalType": "uint256",
					"name": "milestoneIndex",
					"type": "uint256"
				},
				{
					"indexed": false,
					"internalType": "bool",
					"name": "approved",
					"type": "bool"
				},
				{
					"indexed": false,
					"internalType": "address",
					"name": "resolver",
					"type": "address"
				}
			],
			"name": "DisputeResolved",
			"type": "event"
		},
		{
			"anonymous": false,
			"inputs": [
				{
					"indexed": true,
					"internalType": "uint256",
					"name": "proposalId",
					"type": "uint256"
				},
				{
					"indexed": false,
					"internalType": "uint256",
					"name": "refundedAmount",
					"type": "uint256"
				},
				{
					"indexed": false,
					"internalType": "string",
					"name": "reason",
					"type": "string"
				}
			],
			"name": "EscrowCancelled",
			"type": "event"
		},
		{
			"anonymous": false,
			"inputs": [
				{
					"indexed": true,
					"internalType": "uint256",
					"name": "proposalId",
					"type": "uint256"
				},
				{
					"indexed": true,
					"internalType": "address",
					"name": "beneficiary",
					"type": "address"
				},
				{
					"indexed": false,
					"internalType": "uint256",
					"name": "totalAmount",
					"type": "uint256"
				},
				{
					"indexed": false,
					"internalType": "uint256",
					"name": "milestoneCount",
					"type": "uint256"
				}
			],
			"name": "EscrowCreated",
			"type": "event"
		},
		{
			"anonymous": false,
			"inputs": [
				{
					"indexed": true,
					"internalType": "uint256",
					"name": "proposalId",
					"type": "uint256"
				},
				{
					"indexed": true,
					"internalType": "uint256",
					"name": "milestoneIndex",
					"type": "uint256"
				},
				{
					"indexed": false,
					"internalType": "uint256",
					"name": "amount",
					"type": "uint256"
				},
				{
					"indexed": true,
					"internalType": "address",
					"name": "beneficiary",
					"type": "address"
				}
			],
			"name": "FundsReleased",
			"type": "event"
		},
		{
			"anonymous": false,
			"inputs": [
				{
					"indexed": true,
					"internalType": "address",
					"name": "approver",
					"type": "address"
				},
				{
					"indexed": false,
					"internalType": "bool",
					"name": "authorized",
					"type": "bool"
				}
			],
			"name": "MilestoneApproverUpdated",
			"type": "event"
		},
		{
			"anonymous": false,
			"inputs": [
				{
					"indexed": true,
					"internalType": "uint256",
					"name": "proposalId",
					"type": "uint256"
				},
				{
					"indexed": true,
					"internalType": "uint256",
					"name": "milestoneIndex",
					"type": "uint256"
				},
				{
					"indexed": false,
					"internalType": "uint256",
					"name": "amount",
					"type": "uint256"
				},
				{
					"indexed": false,
					"internalType": "string",
					"name": "evidenceIPFS",
					"type": "string"
				},
				{
					"indexed": false,
					"internalType": "address",
					"name": "approver",
					"type": "address"
				}
			],
			"name": "MilestoneCompleted",
			"type": "event"
		},
		{
			"anonymous": false,
			"inputs": [
				{
					"indexed": true,
					"internalType": "uint256",
					"name": "proposalId",
					"type": "uint256"
				},
				{
					"indexed": true,
					"internalType": "uint256",
					"name": "milestoneIndex",
					"type": "uint256"
				},
				{
					"indexed": false,
					"internalType": "string",
					"name": "reason",
					"type": "string"
				},
				{
					"indexed": false,
					"internalType": "address",
					"name": "disputer",
					"type": "address"
				}
			],
			"name": "MilestoneDisputed",
			"type": "event"
		},
		{
			"anonymous": false,
			"inputs": [
				{
					"indexed": false,
					"internalType": "address",
					"name": "account",
					"type": "address"
				}
			],
			"name": "Paused",
			"type": "event"
		},
		{
			"anonymous": false,
			"inputs": [
				{
					"indexed": true,
					"internalType": "bytes32",
					"name": "role",
					"type": "bytes32"
				},
				{
					"indexed": true,
					"internalType": "bytes32",
					"name": "previousAdminRole",
					"type": "bytes32"
				},
				{
					"indexed": true,
					"internalType": "bytes32",
					"name": "newAdminRole",
					"type": "bytes32"
				}
			],
			"name": "RoleAdminChanged",
			"type": "event"
		},
		{
			"anonymous": false,
			"inputs": [
				{
					"indexed": true,
					"internalType": "bytes32",
					"name": "role",
					"type": "bytes32"
				},
				{
					"indexed": true,
					"internalType": "address",
					"name": "account",
					"type": "address"
				},
				{
					"indexed": true,
					"internalType": "address",
					"name": "sender",
					"type": "address"
				}
			],
			"name": "RoleGranted",
			"type": "event"
		},
		{
			"anonymous": false,
			"inputs": [
				{
					"indexed": true,
					"internalType": "bytes32",
					"name": "role",
					"type": "bytes32"
				},
				{
					"indexed": true,
					"internalType": "address",
					"name": "account",
					"type": "address"
				},
				{
					"indexed": true,
					"internalType": "address",
					"name": "sender",
					"type": "address"
				}
			],
			"name": "RoleRevoked",
			"type": "event"
		},
		{
			"anonymous": false,
			"inputs": [
				{
					"indexed": false,
					"internalType": "address",
					"name": "account",
					"type": "address"
				}
			],
			"name": "Unpaused",
			"type": "event"
		},
		{
			"inputs": [],
			"name": "ADMIN_ROLE",
			"outputs": [
				{
					"internalType": "bytes32",
					"name": "",
					"type": "bytes32"
				}
			],
			"stateMutability": "view",
			"type": "function"
		},
		{
			"inputs": [],
			"name": "AI_ORACLE_ROLE",
			"outputs": [
				{
					"internalType": "bytes32",
					"name": "",
					"type": "bytes32"
				}
			],
			"stateMutability": "view",
			"type": "function"
		},
		{
			"inputs": [],
			"name": "DEFAULT_ADMIN_ROLE",
			"outputs": [
				{
					"internalType": "bytes32",
					"name": "",
					"type": "bytes32"
				}
			],
			"stateMutability": "view",
			"type": "function"
		},
		{
			"inputs": [],
			"name": "DISPUTE_RESOLUTION_PERIOD",
			"outputs": [
				{
					"internalType": "uint256",
					"name": "",
					"type": "uint256"
				}
			],
			"stateMutability": "view",
			"type": "function"
		},
		{
			"inputs": [],
			"name": "DISPUTE_RESOLVER_ROLE",
			"outputs": [
				{
					"internalType": "bytes32",
					"name": "",
					"type": "bytes32"
				}
			],
			"stateMutability": "view",
			"type": "function"
		},
		{
			"inputs": [],
			"name": "MAX_MILESTONES",
			"outputs": [
				{
					"internalType": "uint256",
					"name": "",
					"type": "uint256"
				}
			],
			"stateMutability": "view",
			"type": "function"
		},
		{
			"inputs": [],
			"name": "MILESTONE_APPROVAL_PERIOD",
			"outputs": [
				{
					"internalType": "uint256",
					"name": "",
					"type": "uint256"
				}
			],
			"stateMutability": "view",
			"type": "function"
		},
		{
			"inputs": [],
			"name": "MILESTONE_APPROVER_ROLE",
			"outputs": [
				{
					"internalType": "bytes32",
					"name": "",
					"type": "bytes32"
				}
			],
			"stateMutability": "view",
			"type": "function"
		},
		{
			"inputs": [],
			"name": "PROPOSAL_FEE",
			"outputs": [
				{
					"internalType": "uint256",
					"name": "",
					"type": "uint256"
				}
			],
			"stateMutability": "view",
			"type": "function"
		},
		{
			"inputs": [],
			"name": "TREASURY_MANAGER_ROLE",
			"outputs": [
				{
					"internalType": "bytes32",
					"name": "",
					"type": "bytes32"
				}
			],
			"stateMutability": "view",
			"type": "function"
		},
		{
			"inputs": [],
			"name": "activeEscrowCount",
			"outputs": [
				{
					"internalType": "uint256",
					"name": "",
					"type": "uint256"
				}
			],
			"stateMutability": "view",
			"type": "function"
		},
		{
			"inputs": [
				{
					"internalType": "uint256",
					"name": "proposalId",
					"type": "uint256"
				},
				{
					"internalType": "uint256",
					"name": "milestoneIndex",
					"type": "uint256"
				}
			],
			"name": "approveMilestone",
			"outputs": [],
			"stateMutability": "nonpayable",
			"type": "function"
		},
		{
			"inputs": [
				{
					"internalType": "uint256",
					"name": "proposalId",
					"type": "uint256"
				},
				{
					"internalType": "string",
					"name": "reason",
					"type": "string"
				}
			],
			"name": "cancelEscrow",
			"outputs": [],
			"stateMutability": "nonpayable",
			"type": "function"
		},
		{
			"inputs": [
				{
					"internalType": "uint256",
					"name": "proposalId",
					"type": "uint256"
				},
				{
					"internalType": "address",
					"name": "beneficiary",
					"type": "address"
				},
				{
					"internalType": "uint256",
					"name": "totalAmount",
					"type": "uint256"
				},
				{
					"internalType": "uint256",
					"name": "milestoneCount",
					"type": "uint256"
				}
			],
			"name": "createEscrow",
			"outputs": [],
			"stateMutability": "payable",
			"type": "function"
		},
		{
			"inputs": [],
			"name": "depositFunds",
			"outputs": [],
			"stateMutability": "payable",
			"type": "function"
		},
		{
			"inputs": [
				{
					"internalType": "uint256",
					"name": "proposalId",
					"type": "uint256"
				},
				{
					"internalType": "uint256",
					"name": "milestoneIndex",
					"type": "uint256"
				},
				{
					"internalType": "string",
					"name": "reason",
					"type": "string"
				}
			],
			"name": "disputeMilestone",
			"outputs": [],
			"stateMutability": "nonpayable",
			"type": "function"
		},
		{
			"inputs": [
				{
					"internalType": "uint256",
					"name": "amount",
					"type": "uint256"
				}
			],
			"name": "emergencyWithdraw",
			"outputs": [],
			"stateMutability": "nonpayable",
			"type": "function"
		},
		{
			"inputs": [
				{
					"internalType": "uint256",
					"name": "proposalId",
					"type": "uint256"
				}
			],
			"name": "escrowExists",
			"outputs": [
				{
					"internalType": "bool",
					"name": "",
					"type": "bool"
				}
			],
			"stateMutability": "view",
			"type": "function"
		},
		{
			"inputs": [],
			"name": "getAllRoles",
			"outputs": [
				{
					"internalType": "bytes32[]",
					"name": "roles",
					"type": "bytes32[]"
				}
			],
			"stateMutability": "pure",
			"type": "function"
		},
		{
			"inputs": [
				{
					"internalType": "address",
					"name": "beneficiary",
					"type": "address"
				}
			],
			"name": "getBeneficiaryEscrows",
			"outputs": [
				{
					"internalType": "uint256[]",
					"name": "",
					"type": "uint256[]"
				}
			],
			"stateMutability": "view",
			"type": "function"
		},
		{
			"inputs": [
				{
					"internalType": "uint256",
					"name": "proposalId",
					"type": "uint256"
				}
			],
			"name": "getEscrow",
			"outputs": [
				{
					"internalType": "address",
					"name": "beneficiary",
					"type": "address"
				},
				{
					"internalType": "uint256",
					"name": "totalAmount",
					"type": "uint256"
				},
				{
					"internalType": "uint256",
					"name": "releasedAmount",
					"type": "uint256"
				},
				{
					"internalType": "uint256",
					"name": "milestoneCount",
					"type": "uint256"
				},
				{
					"internalType": "enum ITreasuryEscrow.EscrowStatus",
					"name": "status",
					"type": "uint8"
				},
				{
					"internalType": "uint256",
					"name": "creationTime",
					"type": "uint256"
				}
			],
			"stateMutability": "view",
			"type": "function"
		},
		{
			"inputs": [
				{
					"internalType": "uint256",
					"name": "proposalId",
					"type": "uint256"
				},
				{
					"internalType": "uint256",
					"name": "milestoneIndex",
					"type": "uint256"
				}
			],
			"name": "getMilestone",
			"outputs": [
				{
					"internalType": "uint256",
					"name": "amount",
					"type": "uint256"
				},
				{
					"internalType": "string",
					"name": "description",
					"type": "string"
				},
				{
					"internalType": "bool",
					"name": "completed",
					"type": "bool"
				},
				{
					"internalType": "uint256",
					"name": "completionTime",
					"type": "uint256"
				},
				{
					"internalType": "string",
					"name": "evidenceIPFS",
					"type": "string"
				},
				{
					"internalType": "address",
					"name": "approver",
					"type": "address"
				},
				{
					"internalType": "bool",
					"name": "disputed",
					"type": "bool"
				},
				{
					"internalType": "string",
					"name": "disputeReason",
					"type": "string"
				}
			],
			"stateMutability": "view",
			"type": "function"
		},
		{
			"inputs": [
				{
					"internalType": "bytes32",
					"name": "role",
					"type": "bytes32"
				}
			],
			"name": "getRoleAdmin",
			"outputs": [
				{
					"internalType": "bytes32",
					"name": "",
					"type": "bytes32"
				}
			],
			"stateMutability": "view",
			"type": "function"
		},
		{
			"inputs": [
				{
					"internalType": "address",
					"name": "account",
					"type": "address"
				}
			],
			"name": "getRoleCount",
			"outputs": [
				{
					"internalType": "uint256",
					"name": "roleCount",
					"type": "uint256"
				}
			],
			"stateMutability": "view",
			"type": "function"
		},
		{
			"inputs": [],
			"name": "getTreasuryStats",
			"outputs": [
				{
					"internalType": "uint256",
					"name": "_totalEscrowedAmount",
					"type": "uint256"
				},
				{
					"internalType": "uint256",
					"name": "_totalReleasedAmount",
					"type": "uint256"
				},
				{
					"internalType": "uint256",
					"name": "_activeEscrowCount",
					"type": "uint256"
				},
				{
					"internalType": "uint256",
					"name": "_availableBalance",
					"type": "uint256"
				}
			],
			"stateMutability": "view",
			"type": "function"
		},
		{
			"inputs": [
				{
					"internalType": "address",
					"name": "account",
					"type": "address"
				},
				{
					"internalType": "bytes32[]",
					"name": "roles",
					"type": "bytes32[]"
				}
			],
			"name": "grantMultipleRoles",
			"outputs": [],
			"stateMutability": "nonpayable",
			"type": "function"
		},
		{
			"inputs": [
				{
					"internalType": "bytes32",
					"name": "role",
					"type": "bytes32"
				},
				{
					"internalType": "address",
					"name": "account",
					"type": "address"
				}
			],
			"name": "grantRole",
			"outputs": [],
			"stateMutability": "nonpayable",
			"type": "function"
		},
		{
			"inputs": [
				{
					"internalType": "address",
					"name": "account",
					"type": "address"
				},
				{
					"internalType": "bytes32[]",
					"name": "roles",
					"type": "bytes32[]"
				}
			],
			"name": "hasAnyRole",
			"outputs": [
				{
					"internalType": "bool",
					"name": "",
					"type": "bool"
				}
			],
			"stateMutability": "view",
			"type": "function"
		},
		{
			"inputs": [
				{
					"internalType": "bytes32",
					"name": "role",
					"type": "bytes32"
				},
				{
					"internalType": "address",
					"name": "account",
					"type": "address"
				}
			],
			"name": "hasRole",
			"outputs": [
				{
					"internalType": "bool",
					"name": "",
					"type": "bool"
				}
			],
			"stateMutability": "view",
			"type": "function"
		},
		{
			"inputs": [
				{
					"internalType": "address",
					"name": "",
					"type": "address"
				}
			],
			"name": "milestoneApprovers",
			"outputs": [
				{
					"internalType": "bool",
					"name": "",
					"type": "bool"
				}
			],
			"stateMutability": "view",
			"type": "function"
		},
		{
			"inputs": [],
			"name": "pause",
			"outputs": [],
			"stateMutability": "nonpayable",
			"type": "function"
		},
		{
			"inputs": [],
			"name": "paused",
			"outputs": [
				{
					"internalType": "bool",
					"name": "",
					"type": "bool"
				}
			],
			"stateMutability": "view",
			"type": "function"
		},
		{
			"inputs": [
				{
					"internalType": "bytes32",
					"name": "role",
					"type": "bytes32"
				},
				{
					"internalType": "address",
					"name": "callerConfirmation",
					"type": "address"
				}
			],
			"name": "renounceRole",
			"outputs": [],
			"stateMutability": "nonpayable",
			"type": "function"
		},
		{
			"inputs": [
				{
					"internalType": "uint256",
					"name": "proposalId",
					"type": "uint256"
				},
				{
					"internalType": "uint256",
					"name": "milestoneIndex",
					"type": "uint256"
				},
				{
					"internalType": "bool",
					"name": "approved",
					"type": "bool"
				}
			],
			"name": "resolveDispute",
			"outputs": [],
			"stateMutability": "nonpayable",
			"type": "function"
		},
		{
			"inputs": [
				{
					"internalType": "address",
					"name": "account",
					"type": "address"
				},
				{
					"internalType": "bytes32[]",
					"name": "roles",
					"type": "bytes32[]"
				}
			],
			"name": "revokeMultipleRoles",
			"outputs": [],
			"stateMutability": "nonpayable",
			"type": "function"
		},
		{
			"inputs": [
				{
					"internalType": "bytes32",
					"name": "role",
					"type": "bytes32"
				},
				{
					"internalType": "address",
					"name": "account",
					"type": "address"
				}
			],
			"name": "revokeRole",
			"outputs": [],
			"stateMutability": "nonpayable",
			"type": "function"
		},
		{
			"inputs": [
				{
					"internalType": "uint256",
					"name": "proposalId",
					"type": "uint256"
				},
				{
					"internalType": "uint256",
					"name": "milestoneIndex",
					"type": "uint256"
				},
				{
					"internalType": "uint256",
					"name": "amount",
					"type": "uint256"
				},
				{
					"internalType": "string",
					"name": "description",
					"type": "string"
				}
			],
			"name": "setMilestone",
			"outputs": [],
			"stateMutability": "nonpayable",
			"type": "function"
		},
		{
			"inputs": [
				{
					"internalType": "address",
					"name": "approver",
					"type": "address"
				},
				{
					"internalType": "bool",
					"name": "authorized",
					"type": "bool"
				}
			],
			"name": "setMilestoneApprover",
			"outputs": [],
			"stateMutability": "nonpayable",
			"type": "function"
		},
		{
			"inputs": [
				{
					"internalType": "uint256",
					"name": "proposalId",
					"type": "uint256"
				},
				{
					"internalType": "uint256",
					"name": "milestoneIndex",
					"type": "uint256"
				},
				{
					"internalType": "string",
					"name": "evidenceIPFS",
					"type": "string"
				}
			],
			"name": "submitMilestoneEvidence",
			"outputs": [],
			"stateMutability": "nonpayable",
			"type": "function"
		},
		{
			"inputs": [
				{
					"internalType": "bytes4",
					"name": "interfaceId",
					"type": "bytes4"
				}
			],
			"name": "supportsInterface",
			"outputs": [
				{
					"internalType": "bool",
					"name": "",
					"type": "bool"
				}
			],
			"stateMutability": "view",
			"type": "function"
		},
		{
			"inputs": [],
			"name": "totalEscrowedAmount",
			"outputs": [
				{
					"internalType": "uint256",
					"name": "",
					"type": "uint256"
				}
			],
			"stateMutability": "view",
			"type": "function"
		},
		{
			"inputs": [],
			"name": "totalReleasedAmount",
			"outputs": [
				{
					"internalType": "uint256",
					"name": "",
					"type": "uint256"
				}
			],
			"stateMutability": "view",
			"type": "function"
		},
		{
			"inputs": [],
			"name": "unpause",
			"outputs": [],
			"stateMutability": "nonpayable",
			"type": "function"
		}
	]
}